:100000000C947A050C9497050C9497050C94982BF6
:100010000C9497050C9497050C9497050C949705F0
:100020000C9497050C9497050C944E280C94362943
:100030000C94E80F0C9497050C9497050C94970575
:100040000C9497050C9497050C9497050C949705C0
:100050000C9497050C942A280C9497050C949705FA
:100060000C9497050C9497050C9497050C949705A0
:100070000C9497050C9497050C9497050C94970590
:100080000C9497050C9497050C9497050C94970580
:100090000C9497050C9497050C9497050C94970570
:1000A0000C9497050C9497050C94970500AF00AE3F
:1000B0000000000000003E5B4F5B3E003E6B4F6B5C
:1000C0003E001C3E7C3E1C00183C7E3C18001C5729
:1000D0007D571C001C5E7F5E1C0000183C18000051
:1000E000FFE7C3E7FF00001824180000FFE7DBE785
:1000F000FF0030483A060E00262979292600407F65
:1001000005050700407F05253F005A3CE73C5A00A3
:100110007F3E1C1C0800081C1C3E7F0014227F220E
:1001200014005F5F005F5F0006097F017F000066CB
:1001300089956A0060606060600094A2FFA29400EC
:1001400008047E04080010207E20100008082A1CE5
:100150000800081C2A0808001E10101010000C1EB1
:100160000C1E0C0030383E383000060E3E0E0600E5
:1001700000000000000000005F0000000007000712
:100180000000147F147F1400242A7F2A12002313F6
:10019000086462003649562050000008070300003A
:1001A000001C224100000041221C00002A1C7F1C70
:1001B0002A0008083E080800008070300000080887
:1001C0000808080000006060000020100804020019
:1001D0003E5149453E0000427F4000007249494976
:1001E00046002141494D33001814127F1000274565
:1001F000454539003C4A4949310041211109070070
:10020000364949493600464949291E000000140074
:1002100000000040340000000008142241001414C3
:1002200014141400004122140800020159090600A8
:100230003E415D594E007C1211127C007F494949B4
:1002400036003E41414122007F4141413E007F490D
:10025000494941007F09090901003E4141517300AC
:100260007F0808087F0000417F4100002040413F97
:1002700001007F08142241007F40404040007F027F
:100280001C027F007F0408107F003E4141413E0078
:100290007F09090906003E4151215E007F091929A5
:1002A000460026494949320003017F0103003F40CF
:1002B00040403F001F2040201F003F4038403F008B
:1002C0006314081463000304780403006159494D62
:1002D0004300007F4141410002040810200000411A
:1002E00041417F00040201020400404040404000C0
:1002F0000003070800002054547840007F2844443D
:100300003800384444442800384444287F00385496
:100310005454180000087E0902001824241C780098
:100320007F080404780000447D4000002040403DE8
:1003300000007F102844000000417F4000007C0442
:10034000780478007C080404780038444444380079
:100350007C1824241800182424187C007C08040429
:10036000080048545454240004043F4424003C40F2
:1003700040207C001C2040201C003C4030403C00C1
:100380004428102844004C9090907C004464544CC5
:1003900044000008364100000000770000000041E2
:1003A000360800000201020402003C2623263C001D
:1003B000000000000000000000000000000000003D
:1003C000C0E0F0F8F81800C0F0FCFEFFFFFFFFFFF0
:1003D000FFFF7E00000000000000000080C0E0E0A1
:1003E000E0E0E0E0E0E0C0800000000080C0E0E08D
:1003F000E0E0E0E0E0E0C080000000E0E0C0C0E05D
:10040000E0E0E00000E0E0C0C0E0E0E0E0E0C0806C
:100410000000000080C0E0E0E0E0E0E0E0E0C0805C
:100420000000000000000000000000000000E0F0FC
:10043000F0F0E0ECEEF7F37020007C7C7C7E007E38
:100440007E7E7F7F7F000080C0E07E5B4F5BFEC0D2
:100450000000C000DCD7DEDEDED7DC00C00000001C
:10046000000000000000000000000000000000008C
:10047000000000000000000000F8FCFEFFE000FFAC
:10048000FFFFFFFFFF80FFFFFFFFFFFFFFFFFF1FDB
:100490000701000000000000000000FFFFFF8100D6
:1004A000000000000081C3C3C30000FFFFFF810004
:1004B000000000000081FFFFFF0000FFFFFF0100C0
:1004C0000000000000FFFFFF010000000001FFFF2F
:1004D000FF0000FFFFFF9D1C1C1C1C1C1C9DDFDF80
:1004E000DF000000000000000000000000000F1FFF
:1004F0003F7F7F7F7F7F3F1E0C001F1F1F3F003FFE
:100500003F3F7F7F7F00307B7F7830202030787FB7
:100510003B0003000F7F0F0F0F7F0F000300000051
:1005200000000000000000000000000000000000CB
:10053000000000000000000000030F1F3F3F3F3F8E
:100540001F1F3F3F7F7F7F3F3F1F3F7F7F7F7F7C1E
:100550007878381C0F000000000000000103070736
:10056000070707070707030100000000010307074B
:100570000707070707070301000000070707000038
:100580000000000000070707000000000000070748
:100590000700000001030707070707070707030114
:1005A000000000000000000000000000000000004B
:1005B000000000000000000000000000000000003B
:1005C000000000000000000000000000000000002B
:1005D000000000000000000000000000000000001B
:1005E000000000000000000000000000000000000B
:1005F00005010902A10185020901A10005091901EE
:1006000029081500250195087501810205010930A9
:1006100009311581257F95027508810609381581F4
:10062000257F950175088106050C0A38021581257C
:100630007F950175088106C0C005010980A101856B
:100640000319012AB700150126B70095017510811D
:1006500000C0050C0901A101850419012AA0021599
:100660000126A002950175108100C005010906A1AF
:10067000018506050719E029E7150025019508758C
:100680000181020507190029EF1500250195F07574
:100690000181020508190129059505750191029549
:1006A0000175039101C005010906A101050719E0C3
:1006B00029E7150025019508750181029501750846
:1006C00081010507190029FF150026FF0095067511
:1006D00008810005081901290515002501950575F2
:1006E000019102950175039101C009023B000201CD
:1006F00000A0FA0904000001030101000921110111
:1007000000012244000705810308000109040100DB
:10071000010300000009211101000122B6000705B4
:10072000820320000112010002000000085346016C
:10073000000100010200010C0343006F0072006E13
:100740000065000000100366006F006F0073007406
:100750000061006E0000000403090400DA0281FF5A
:10076000D9F1DB20A4A62EAF00A0C0D30000A1C801
:10077000D30000AED580A81F408D14200080818258
:10078000838485868788898A8B8C8D8E8F909192C1
:100790009394A0A1A2A3A4A5A6A7A8A9AAABACAD17
:1007A000AEAFB0B1B2B3B4C0C1C2C3C4C5C6C7C88E
:1007B000C9CACBCCCDCECFD0D1D2D3D4003A002C25
:1007C000206B007800556E646566004D4F555345AB
:1007D0000053594D424F4C530046554E4354494FD8
:1007E0004E5300544F47474C45204E4156004E4112
:1007F0005649474154494F4E004E554D424552537C
:100800000051574552545900434F4C454D414B0000
:100810004C617965723A2000417E14001A0009008B
:1008200013000500292104001500160017000A0016
:10083000E1001D281B000600070019000000000051
:1008400000002B442C4328422F2433001C001800A6
:100850000F000D00343112000C00080011001000D0
:100860003232407E370036000B000E0000000000E0
:10087000000023522A454C462B2414001A0008007D
:1008800015001700292104001600070009000A00BE
:10089000E1001D281B0006001900050000000000F3
:1008A00000002B442C0028422F24130012000C00BF
:1008B00018001C00343133000F000E000D000B0037
:1008C0003232407E37003600100011000000000078
:1008D000000023522A454C462B001E001F0020001A
:1008E000210022006252E300E200E000E100000784
:1008F000E1001D011B0106010701000F00000000BF
:10090000000024522C4328002A002700260025003E
:10091000240023002D00360223002200210036008F
:100920001F02370220001F001E00370000000000D9
:1009300000003843274527022B001E021F1409011F
:1009400013010505E000A852A452A152A2521701BA
:10095000E1001D011B010601070119010000000053
:10096000000039006652625238002E004D004B00E4
:100970004E004A002D0036024F0052005100500038
:100980001F0237020000A900AA00000000000000BA
:100990000000380038022702557C000000000000EB
:1009A00000002078537CE300E200E000E100005208
:1009B000567C2378257827782178015200000000A2
:1009C0000000000000000000557C2E0042004100A5
:1009D00040004500547C36023F003E003D0044008C
:1009E000577C54003C003B003A00430000000000EC
:1009F000000039002A004C0030141E021F14251478
:100A0000261420023000230221142502260222028D
:100A10002D146414300264006402320200000000ED
:100A200000002B002C00280000000000000027140C
:100A300024143800E400A852A452A152A252270262
:100A4000E5000000000000000000000000000000C1
:100A500000000000000000002B0000000000CD009E
:100A60000000D9006652DB00CF00CE00D000DC00D1
:100A700000000000000000000000DA00000000009C
:100A80000000D300D100D200000000002B014F0471
:100A900050042B03E400E3004F2452315132500044
:100AA000DF00DE00DD00D200D100D3000000000036
:100AB000000000000000000020202020616263642C
:100AC00065666768696A6B6C6D6E6F70717273745E
:100AD00075767778797A313233343536373839303C
:100AE000524542545F2D3D5B5D5C233B27602C2EBD
:100AF0002F20202011241FBECFEFDAE0DEBFCDBFB4
:100B000012E0A0E0B1E0E6E2FCE502C005900D9243
:100B1000AC33B107D9F729E0ACE3B2E001C01D92D4
:100B2000A335B207E1F70E9469220C94B72D0C940B
:100B300000009C019A9581159F4118F5F901EE2757
:100B4000F270832F8170B90166277470A901442760
:100B5000587034FF0CC08295807FEF2B09F08062C3
:100B6000672B09F08064452B69F080680895EF2BAE
:100B700009F08260672B09F08460452B19F08860CA
:100B8000089580E00895CF93DF93EB010E949905CB
:100B9000FE010995DF91CF91089590930709809305
:100BA000060908959093090980930809089521E0A2
:100BB00030E002C0220F331F8A95E2F780910809C6
:100BC00090910909822B932B0E94D205089521E070
:100BD00030E002C0220F331F8A95E2F7209530954E
:100BE0008091080990910909822393230E94D205DC
:100BF0000895983098F5863088F5E82FF0E086E083
:100C0000989FE00DF11D11248E2F877041E001C0E7
:100C1000440F8A95EAF783E0F695E7958A95E1F720
:100C2000EE0FFF1FEE0FFF1FEC5BFA4F20E030E0EE
:100C300070E05191DF011197CB01022E02C0969511
:100C400087950A94E2F7817081958527842385270B
:100C50008C932F5F3F4F2430310559F7089598301A
:100C600078F5863068F5E82FF0E086E0989FE00D93
:100C7000F11D11249E2F977083E0F695E7958A95D4
:100C8000E1F7EE0FFF1FEE0FFF1FEC5BFA4F40E0A6
:100C900050E080E0219130E0092E02C03695279582
:100CA0000A94E2F721703327042E01C0220F0A9420
:100CB000EAF7822B4F5F5F4F4430510559F7089593
:100CC00080E008958091110990911009981301C056
:100CD00008958F5F8770FACF90910B0980958923D3
:100CE00080930B09282F2770211111C0891779F0E3
:100CF0009091520992FF0BC08695869586950E9429
:100D0000E70510920B0910920D0910920C09089535
:100D1000982F909580910409892380930409089560
:100D200080910309882331F01092030910920F0972
:100D300010920E0908957830B8F46630A8F4873020
:100D4000B0F4E62FF0E096E0799FE00DF11D11245C
:100D500090E3899FE00DF11D1124EE0FFF1FE85E67
:100D6000F74F85919491089580E090E0089581E097
:100D7000FCCF803E9105D1F1C8F48133910509F48F
:100D80007FC048F48932910509F46FC08A32910519
:100D900009F47DC0089589339105E1F08238910509
:100DA000C9F08533910509F45BC00895843E91052F
:100DB000D1F148F4823E910531F1833E910541F134
:100DC00081EE90E00895863E9105C1F1873E910540
:100DD000E1F10895209151092370211165C02091FE
:100DE000520923FF14C089E290E00895209151092F
:100DF00020FD43C03091520930FF09C024FF4EC08E
:100E000080E090E008952091510922FDF7CF0895E8
:100E10002091510922FD45C03091520930FD44C056
:100E200024FFF5CFEDCF2091520921FFF0CF809123
:100E3000510984FDE5CF87EE90E008952091510996
:100E400023FFE5CF24FDDCCFF6CF2091510923FD10
:100E50002EC03091520931FFE3CF84EE90E0089527
:100E60002091510925FFD3CFBECF2091510925FDF7
:100E700021C02091520923FFCACF89E390E0089551
:100E80002091510926FFC3CF8AE290E00895209176
:100E9000510926FFBCCF81E390E0089583EE90E0F6
:100EA000089582EE90E0089580EE90E0089586EE39
:100EB00090E0089585E390E0AACF9091510992FFC8
:100EC00010C041E0282F2471243009F040E031E0C7
:100ED000282F2871283009F030E0431711F02CE05A
:100EE000822793FF10C041E0282F2471243109F09C
:100EF00040E031E0282F2871283109F030E0431715
:100F000011F02CE082273091520930FF10C051E0DF
:100F1000282F2171213009F050E041E0282F28715D
:100F2000283009F040E0541711F029E0822731FF02
:100F300010C041E0282F2171213109F040E031E05B
:100F4000282F2871283109F030E0431711F029E0EB
:100F5000822794FD877E08951F93CF93DF930E948D
:100F6000B906EC01811522E5920708F053C08115FE
:100F700040E5940708F0DDC0803E9105F8F48D3C13
:100F8000910508F0AEC0883A910580F4853A910544
:100F900008F099C08130910521F00497813A9105BC
:100FA00050F4CE01DF91CF911F910895885A910995
:100FB0004B9708F48BC0C0E0D0E0F3CF811550E42C
:100FC0009507F8F4C11580E2D80708F0CBC0C83EF9
:100FD000D10538F3CE019A9581159F4160F78D2F89
:100FE0000E945D07182FCE0199270E94B906212F74
:100FF00030E0322F2227E901CC27DF71C82BD92B13
:10100000D0CF99270E94B906CC27DF70C82BD92BE7
:10101000D06AC7CF803842E59407C8F5803652E5DC
:10102000950708F067C0C03482E5D807B0F08C2F70
:1010300086958695877020E2829FC0011124C37037
:1010400021E030E0A90102C0440F551FCA95E2F724
:10105000EA01C82BD92BDC68A4CFC03252E5D507F2
:1010600008F041C08C2F8695869520E2829FC001B2
:101070001124C37021E030E0A90102C0440F551FC4
:10108000CA95E2F7EA01C82BD92BDD688ACF803CEC
:1010900052E5950760F48F71C03AD24508F03FC021
:1010A00090E0982F8827EC01C46FD06A7ACF805CDB
:1010B0009245809708F07FCFDC2FCC27CC27DF71BB
:1010C000C06FD06A6ECFA497D0646BCFC85AD0E0FF
:1010D000CC0FDD1FCE50DE4F0990D881C02DD464D7
:1010E00060CFD0655ECFCF71D0E0DC2FCC27C16F51
:1010F000D06A57CF86958695877020E2829FC0017F
:101100001124C37021E030E0A90102C0440F551F33
:10111000CA95E2F7EA01C82BD92BDA6842CF0E94C0
:101120005D07C82FD0E0DC2FCC27CC27DF71D06241
:1011300038CF8F710E945D0765E0D695C7956A9597
:10114000E1F7CF70D0E0DC2FCC27282F30E084FFF0
:1011500005C054E0220F331F5A95E1F7C22BD32B61
:10116000D0691FCF8D2F8F710E945D07182FCE0180
:1011700099270E94B906212F30E0322F22272227FB
:101180003F71282B392BE901D2CFA0E0B0E0EBEC86
:10119000F8E00C94D02C8C01E0900809F09009093B
:1011A0008091060990910709E82AF92ACFE0D0E05A
:1011B000CC24C394D12CC6010C2E02C0880F991FD9
:1011C0000A94E2F78E219F21892B49F4219798F701
:1011D000B12C8B2DCDB7DEB7E9E00C94EC2CBC2EF6
:1011E000B8018C2F0E949B060E94AC07019771F3F7
:1011F000F0CF0F931F93CF93FC0185810081118164
:10120000882391F0662381F0C8010E94C508C82F89
:10121000682FC8010E94F905B8018C2F0E949B0617
:10122000CF911F910F910895C8010E942F06C82FDA
:10123000F3CFCF93DF93D82FC92F0E94C5086D2F0E
:101240007C2F0E949B060E94AC07DF91CF910895EE
:10125000FC0184818823A1F0808191810E94190979
:10126000282F92959F70963091F060F4925F9F7056
:10127000923030F481E0203F79F030F4283E30F0B5
:1012800080E004C09A5FF3CF243FD1F7089581E056
:10129000283E18F0213FF9CF0895089580E0089581
:1012A000F894E82FE295EF70F0E041A18F7021E013
:1012B00030E0B90102C0660F771F8A95E2F7CB01D3
:1012C000962F9095942391A392A1892B82A3789431
:1012D0000895FC018581862381110AC082818823BB
:1012E000B9F06823918593FF05C081E061110FC0BB
:1012F00080E00895282F22952F708F70282B962F2D
:1013000092959F706F70962B81E02913F1CF08950D
:1013100081E0FDCF282F35EB2303C001112497FF77
:1013200004C080589109892F089580589F4FFBCFA2
:1013300080915E0580FD14C081FD14C082FD16C041
:1013400080915D05882381F08E3180F428E2829FB0
:10135000C00111246EE170E00E940A2D862F0895CD
:101360008AE0089584E1089584E0089588E208956C
:1013700080915E0580FD17C081FD17C082FD19C0F8
:1013800080915C05882399F0883298F428E0829F48
:10139000C001112468E270E00E940A2D61157105F8
:1013A00051F0862F089562E0FCCF64E0FACF61E04F
:1013B000F8CF68E0F6CF81E0089580911205882388
:1013C00059F0E0913A05F0913B05309729F00190F2
:1013D000F081E02D0995089580E00895A3E0B0E044
:1013E000E4EFF9E00C94D72C9C018091920290914B
:1013F000930282179307A1F03093930220939202F5
:10140000E0913A05F0913B05309751F083E08983F4
:101410003B832A830084F185E02DCE010196099556
:101420002396E2E00C94F32CA3E0B0E0EAE1FAE0CA
:101430000C94D72C9C01809190029091910282177C
:101440009307A1F03093910220939002E0913A0526
:10145000F0913B05309751F084E089833B832A83E8
:101460000084F185E02DCE01019609952396E2E0F6
:101470000C94F32C909136019130C1F49091510964
:1014800097FF14C0E82FE695E695E695803FF8F4BF
:10149000F0E0EA5BFD4F877021E030E001C0220FF1
:1014A0008A95EAF78281822B82830895A0E4B2E0D4
:1014B000EFEF90E02D91821751F0EF3F19F42111D9
:1014C00001C0E92F9F5F9630A9F7EF3F09F4089517
:1014D0000E2E000CFF0BE25CFD4FE6CF9091360123
:1014E0009130E1F49091510997FF18C0E82FE695EB
:1014F000E695E695803FF0F4F0E0EA5BFD4F8770FB
:1015000021E030E0A90102C0440F551F8A95E2F79F
:10151000CA0180959281892382830895E0E4F2E0F4
:101520009191891303C0DF0111971C9252E0E634B8
:10153000F507B1F70895809135010895A4E0B0E072
:10154000E4EAFAE00C94D72C8FB7F89420918C023F
:1015500030918D0240918E0250918F0229833A83FF
:101560004B835C838FBF69817A818B819C812496B8
:10157000E2E00C94F32CA4E0B0E0E1ECFAE00C948F
:10158000D72C80911205882371F00E949E0A6983EE
:101590007A838B839C8369817A818B819C81249659
:1015A000E2E00C94F32C0E949E0A69837A838B8379
:1015B0009C838091140590911505A0911605B0911A
:1015C000170529813A814B815C81280F391F4A1FF9
:1015D0005B1F29833A834B835C83DDCFA4E0B0E0BB
:1015E000E4EFFAE00C94D52C462F572FBC012FB70F
:1015F000F89480918C0290918D02A0918E02B0910E
:101600008F022FBF8C019D01041B150B260B370B7E
:10161000C901B8012496E4E00C94F12CA6E0B0E0F6
:10162000E4E1FBE00C94D32C7C010091FB081091C9
:10163000FC082091FD082E838091FE088D83B8015F
:10164000822F9D810E94EE0A643F714081059105C1
:1016500018F10E949E0A8B018E839D8382E390E0A5
:10166000A0E0B0E00093B6021093B7022E81209361
:10167000B8022D812093B9028093B2029093B302F5
:10168000A093B402B093B502E092F908F092FA0880
:101690002696E6E00C94EF2C84EF91E0A0E0B0E019
:1016A000E1CFFC019B018091820290918302861719
:1016B000970740F0672B29F48091E8008E7780939C
:1016C000E800C90140E0009741F4411106C0809153
:1016D000E80082FF2FC080E008952091A00222231D
:1016E000A9F12530A9F12091E80023FD2DC020911A
:1016F000E80022FDECCF2091E80020FFE4CF3091FC
:10170000F3002091F200009719F02830310558F0CD
:1017100041E02830310509F040E02091E8002E77C3
:101720002093E800D0CF41914093F10001972F5FC3
:101730003F4FE9CF8091A002882341F0853041F0EE
:101740008091E80083FFC3CF81E0089582E008958F
:1017500083E0089580917C0287FF13C08091E800A8
:1017600082FF06C08091E8008B778093E80004C078
:101770008091A0028111F2CF08958091A002882368
:10178000D9F38091E80080FFF8CF8091E8008E7750
:10179000ECCF2091E4003091E50095E6A90180911D
:1017A000EC008170882331F08091E80080FF06C052
:1017B00080E008952091E80022FD1BC08091A002E6
:1017C000882391F0853091F08091EB0085FD10C069
:1017D0002091E4003091E5004217530701F3915046
:1017E0009111DCCF84E0089582E0089583E00895AC
:1017F00081E00895E8EDF0E080818E7F8083109293
:10180000E2001092DA001092E100A0EEB0E08C91BC
:1018100081608C9380818F77808319BCA7EDB0E0C5
:101820008C918E7F8C9380818F7E808310927B023F
:101830000895FC01AC014C5F5F4F8FEF91E3219164
:10184000822728E030E087FF0BC0880F89272150CE
:10185000310921153105B9F7E417F50781F7089526
:10186000880FF5CF982FE42FE2709093E900891349
:1018700008C0762F242F50E0E11111C091E0980F9D
:10188000F4CF7091EC002091ED005091F00021FD1B
:1018900006C09F5F973049F78093E9000895309123
:1018A000EB003E7F3093EB003091ED003D7F3093B5
:1018B000ED003091EB0031603093EB007093EC0061
:1018C0002093ED005093F0002091EE0027FDE1CF32
:1018D0000895A0E0B0E0EFE6FCE00C94D12CC8ED58
:1018E000D0E088818F7E8883E7EDF0E080818160A1
:1018F000808384E082BF81E080937B0288818E7F39
:10190000888302EE10E0F80110821092DA0081EE76
:10191000C82ED12CF601108288818F778883888128
:101920008068888388818F7D888319BC1092A0028B
:1019300010927A0210929F021092790290EEE92E94
:10194000F12CF70180818B7F80838881816088837F
:1019500042E060E080E00E94320CF60180818E7FE0
:101960008083F801808181608083808188608083AA
:10197000F70180818E7F8083888180618883CDB7E5
:10198000DEB7E8E00C94ED2CE0911109909110097C
:1019900027E0E91302C080E00895AE2FB0E02E9F4B
:1019A000F0011124EE5EF64F3181361306C030810E
:1019B000381303C03581341304C0FD013196E7703C
:1019C000E8CF81E008950F931F93CF93DF93EB014E
:1019D0008A019091A002943079F58093E9008FEF0D
:1019E0009091E80095FD07C095ED9A95F1F70000FC
:1019F00081508111F5CF8091E80085FF1DC00E94C4
:101A0000C90B811114C08091E80085FD06C080914A
:101A1000E8008E778093E800F2CF88818093F10010
:101A2000015011090115110511F02196ECCF80919B
:101A3000E8008E778093E800DF91CF911F910F919E
:101A40000895CF93DF93D82FC92F48E050E0682F37
:101A5000792F81E00E94E30C88E0ED2FFC2FA4E8B1
:101A6000B2E001900D928A95E1F7DF91CF91089550
:101A7000BC0140E250E082E00E94E30C0895BC010A
:101A800046E050E082E00E94E30C0895BC0143E090
:101A900050E082E00E94E30C0895A0E0B0E0E3E5AE
:101AA000FDE00C94CF2CF82EE92EB62EA72E8A013D
:101AB00080917802CC24C394D12C8A3018F48AE027
:101AC000C82ED12CC1E0D0E06B2D7A2D8F2D9E2D0C
:101AD000F8010995811116C02196CC16DD0694F007
:101AE000CC9FC001CD9F900D900D112420E030E0DF
:101AF00045E34A95F1F700002F5F3F4F281739075C
:101B0000B9F7E2CFCDB7DEB7EAE00C94EB2C9091B9
:101B1000520992FB222720F9281779F080FB92F9CD
:101B200090935209609151097091520984E090E0BC
:101B30000E94A12D82E00E946C060895A8E0B0E00A
:101B4000E4EAFDE00C94D62C8091F5049091F60423
:101B5000A091F704B091F804BC01CD010E94EE0AF7
:101B600011E0643671058105910578F10E94BB0A88
:101B7000DC01CB010296A11DB11D89839A83AB8341
:101B8000BC8380912D0190912E0183509B4F209119
:101B90002C01422F50E0253010F044E050E0BE010F
:101BA0006F5F7F4F0E945C2D83E090E00E943E2C8F
:101BB000182F882351F00E949E0A6093F5047093B9
:101BC000F6048093F7049093F804812F2896E3E0BD
:101BD0000C94F22CEF92FF921F93CF93DF93CDB72B
:101BE000DEB729970FB6F894DEBF0FBECDBF7B01DD
:101BF00080E090E00E943E2C182F81111BC010E065
:101C000080910A0590910B05A0910C05B0910D05EE
:101C1000F70180839183A283B383812F29960FB626
:101C2000F894DEBF0FBECDBFDF91CF911F91FF9023
:101C3000EF90089580911701482F50E0882311F00C
:101C400041E050E0609118017091190163507B4FA1
:101C5000CE0105960E945C2D80910E0590910F0596
:101C6000A0911005B0911105BC01CD010E94EE0AB2
:101C70006E837F8388879987643671058105910516
:101C800038F48EEF94E00E94190C9D818917B9F108
:101C900081E090E00E943E2C882309F4B0CF80912F
:101CA0001F01482F50E0853010F044E050E0609173
:101CB00020017091210163507B4FCE0101960E945B
:101CC0005C2D8EEF94E00E94190C9D81891397CFB3
:101CD0000E949E0A60930E0570930F058093100575
:101CE0009093110589819A81AB81BC8180930A050B
:101CF00090930B05A0930C05B0930D0581CF8091B7
:101D0000FE049091FF04A0910005B0910105898324
:101D10009A83AB83BC83E6CFA6E0B0E0E2E9FEE0C5
:101D20000C94D52C8E839D8344E050E062E075E0F6
:101D30000E944F2D8C018091F9049091FA04A0919A
:101D4000FB04B091FC04BC01CD010E94EE0A643694
:101D500071058105910518F40115110511F18091A6
:101D600025019091260183509B4F20912401422F01
:101D700050E0253010F044E050E06E817D810E94FB
:101D80005C2D82E090E00E943E2C882359F00E9456
:101D90009E0A6093F9047093FA048093FB04909375
:101DA000FC0481E02696E4E00C94F12CAB0124E6DF
:101DB00030E0BC0188E70E94552A9C0181E0232B7A
:101DC00009F080E008958091EF04882369F0809104
:101DD000EC04882349F062E070E08EEA90E00E9413
:101DE000D60E81111092EC040895A4E0B0E0EBEF60
:101DF000FEE00C94D72C8091EF048823F9F00E9428
:101E00009E0ADC01CB01805A9541AF4FBF4F8093B2
:101E1000E8049093E904A093EA04B093EB04809162
:101E2000EC0481110BC062E070E08CEA90E00E944B
:101E3000D60E882319F081E08093EC042496E2E02A
:101E40000C94F32CCF93DF93682F81E06A3019F064
:101E50006D3031F480E00E94A20FDF91CF910895A0
:101E60008091BA029091BB0226E0FC01A2E7B2E0A9
:101E700001900D922A95E1F7603E08F458C026E0E3
:101E8000FC0111922A95E9F7C091BA02D091BB02E8
:101E900046E050E0BE0182E792E00E944F2D9E0195
:101EA000245E3240892B41F1C90145E09695879522
:101EB0004A95E1F741E050E0BA0102C0660F771F92
:101EC0008A95E2F7CB016091E6047091E704862BD6
:101ED000972BB9016B5F7F4FE5E076956795EA95A3
:101EE000E1F702C0440F551F6A95E2F7842B952B4A
:101EF0009093E7048093E6042A5F3F4F4091BC0231
:101F0000642F70E0C9010E94B32C481B463010F4C6
:101F1000240F311D211572E0370710F020E030E06A
:101F20002C513D4F3093BB022093BA0296CFF6E07E
:101F30006F9FB001112460557F4F46E050E00E9432
:101F4000462DA2CFCF93382FE091BA02F091BB0279
:101F5000E45EF2402091BC02622F70E0CF010E944B
:101F6000B32C281B822F332361F066E00E94FE2CE5
:101F7000C82FC15010F4CF91089580E20E94220F23
:101F8000F8CF9F01280F311D2115324018F080E055
:101F9000E0E0F0E08E0F9F2F911D8C519D4F9093AC
:101FA000BB028093BA02E7CFCF93DF93EC01FE012F
:101FB0008491811103C0DF91CF9108950E94220F77
:101FC0002196F5CF0E94D40F81E00E94A20F0895C0
:101FD0001F921FB61F9211248F939F93AF93BF93AD
:101FE00080919E02811113C080918C0290918D028C
:101FF000A0918E02B0918F024196A11DB11D8093D8
:102000008C0290938D02A0938E02B0938F02BF91A9
:10201000AF919F918F911F901FBE1F9018952FB762
:10202000F89480918C0290918D02A0918E02B091D3
:102030008F022FBF0895CF93DF93C0910409809141
:102040000A09C82B80910309882339F10E940F10D7
:1020500020910E0930910F09821B930B8838934110
:1020600010F00E949006D0910309809136018130D2
:10207000F1F48091510987FF1AC08DE128E432E024
:1020800090E0F90140812F5F3F4F41119F5F8150E8
:10209000C0F791110E949006CD2B8091F508809594
:1020A0008C239091F408892BDF91CF91089585E0DE
:1020B00020E432E0E5CF80913601813059F58091FE
:1020C000510987FF27C00E941B108093470240E2FE
:1020D00050E06AE175E086E492E00E944F2D892B82
:1020E000C1F080E2E6E4F2E0AAE1B5E001900D92F1
:1020F0008A95E1F7E0913A05F0913B05309749F078
:1021000086E0809346020480F581E02D86E492E02B
:10211000099508950E941B1080933E0248E050E00C
:102120006CE375E08EE392E00E944F2D892B89F3DA
:1021300088E0EEE3F2E0ACE3B5E001900D928A9521
:10214000E1F7E0913A05F0913B05309711F30280F9
:10215000F381E02D8EE392E0DBCF882339F090917C
:102160000409892B809304090E945B100895882339
:1021700039F090910A09892B80930A090E945B101B
:102180000895882321F00E9488060E945B1008951C
:10219000882341F0809590910A09892380930A0948
:1021A0000E945B1008959091520992FF10C098E030
:1021B000899F90011124622B60930B090E94D7051F
:1021C0000E940F1090930D0980930C0908950E94AE
:1021D000D705089590910309292F2823222361F020
:1021E0008095892380930309882339F00E940F107A
:1021F00080930E0990930F09089580E090E0F8CF46
:102200000E940F102091610530916205232B22233B
:1022100021F08093F2049093F304209163053091B0
:102220006405232B222321F08093F0049093F10482
:10223000E0913A05F0913B05309749F082E08093B8
:102240005F050680F781E02D8FE595E009950895FB
:10225000662309F44BC0E3E3E80FE33150F4F0E008
:10226000E754F24D0C94402D0E949809819580937B
:1022700062050E94001108950E949809F8CF0E94FB
:102280009809819580936105F4CF0E949809FACF4F
:102290000E94B80980936305ECCF0E94B80981952C
:1022A000F9CF0E94B809819580936405E2CF0E941E
:1022B000B809FACF815D990B21E030E001C0220F0F
:1022C0008A95EAF780916005822B80936005D1CFD3
:1022D00080915E05816080935E05CBCF80915E0525
:1022E0008260F9CF80915E058460F5CF40916105F1
:1022F0008D3C59F48091620587FF0DC010926205F4
:10230000442359F410925D0508C08E3C81F48091FD
:10231000620518169CF3442381F080916305909127
:102320006405892B8111A5CF10925C05A2CF8F3C4B
:1023300041F447FFF0CF1092610580916205882338
:10234000E0CF803D19F41416B4F3E5CF9091630506
:10235000893D29F41916FCF610926305DCCF8A3DFD
:1023600019F497FFD8CFF8CF909164058B3D29F4ED
:1023700097FFD1CF10926405CECF8C3D19F419167A
:10238000CCF3C9CF9FE2980F983090F4815D990B00
:1023900021E030E0B90102C0660F771F8A95E2F7AD
:1023A000CB01809590916005892380936005B3CF20
:1023B0008D3D31F480915E058E7F80935E05ABCFBD
:1023C0008E3D21F480915E058D7FF7CF8F3D09F022
:1023D000A2CF80915E058B7FF0CFCF93C82F88234B
:1023E000B1F18CEF8C0F813AA0F5809136018130EC
:1023F00001F58091510987FF1CC0EC2FE695E69509
:10240000E695F0E0EA5BFD4F828190E04C2F47704B
:1024100021E030E002C0220F331F4A95E2F7822309
:102420009323892B79F08C2F0E946E0A0E945B10F7
:1024300009C0E0E4F2E08191C817A9F322E0E63494
:10244000F207C9F78C2F0E943A0A0E945B10CF91C5
:10245000089580E28C0F883068F4C77081E090E0C6
:1024600001C0880FCA95EAF7C0910409C82BC09330
:102470000409EBCF8BE58C0F833038F42C2F2452DA
:10248000330BC9010E94EE09E2CFE8E5EC0FEB3116
:1024900050F4F0E0EE0FFF1FEE50FE4F808191816F
:1024A0000E94140AD4CF83E38C0F833180F661E05D
:1024B0008C2F0E942811CBCFCF93DF93EC01805E4D
:1024C0009109089720F067EB70E1209711F46DEA0D
:1024D00070E1CE010E94C3058C2F0E94ED11DF91A7
:1024E000CF910895882381F19CEF980F913A28F4B9
:1024F0000E946E0A0E945B10089590E2980F983037
:1025000050F4877091E001C0990F8A95EAF7892FFE
:102510000E948806EFCF9BE5980F933028F480E067
:1025200090E00E94EE09089598E5980F9B3128F4F9
:1025300080E090E00E94140A089593E3980F93318D
:1025400018F460E00E94281108951F93CF93DF9341
:10255000182FEB010E94ED11209739F4812F0E9472
:102560007212DF91CF911F9108958FE99FE001973B
:10257000F1F700C000002197EFCF1F93CF93DF93B7
:10258000182FA091F708B091F808109709F44AC0E5
:102590001092FA081092F9081092F5081092F408B7
:1025A0001796CD91DC911897CE019A9581159F4190
:1025B00008F4D07ED1E0C11101C0D0E01A96ED91AF
:1025C000FC911B97309731F01C966D917C9180E0C7
:1025D0000995D823DD2339F08CEF8C0F813A30F543
:1025E0008C2F0E946E0A1123A9F0E091F708F09158
:1025F000F808818584FD0EC08091F608882351F08B
:10260000808191819C01215031092F333E4710F484
:102610000E940E0B0E945B101092F8081092F708AF
:102620001092F608DF91CF911F9108950E945B10E0
:102630008C2F0E947212D7CF10920409809136011C
:10264000813039F58091510987FF23C0E8E4F2E039
:102650008EE1DF011D928A95E9F780E090E00E940B
:10266000EE0980E090E00E94140A10920A090E948C
:102670005B1086E0EFE5F5E0DF011D928A95E9F752
:1026800010925D0510925C0510925E050E9400118B
:102690000895E0E4F2E086E0DCCF0E941C132FEF07
:1026A00084E39CE0215080409040E1F700C00000AE
:1026B00088E19AE00FB6F894A895809360000FBE69
:1026C00090936000FFCFAAE2B0E0E9E6F3E10C945A
:1026D000D62C8CE792E0FC0101962091F10020833A
:1026E00022E084389207B9F780917D02893009F49D
:1026F0005AC0C8F4823009F4B6C0833009F485C0EA
:10270000813091F18091E80083FFEAC080917C02E2
:1027100090917D029A3008F0E3C0E92FF0E0E45395
:10272000F24D0C94402D8A3009F48CC08B3051F757
:1027300080917C02813231F78091800290918102F8
:10274000892B01F78091E800877F8093E8000E9441
:10275000AA0B81E090917E02911101C080E08093EC
:1027600036010E941C13CECF80917C02813A51F633
:102770008091E800877F8093E800809180029091AB
:102780008102892B61F060E080E090E070E00E94BF
:10279000510B8091E8008B778093E800B3CF68E01D
:1027A00084E892E0F3CF80917C02813209F0AACFD5
:1027B0008091800290918102029708F0A3CF8091CE
:1027C000E800877F8093E8008091E80082FF18C0CE
:1027D0009091F3008091F200029731F48091F10022
:1027E000813011F0863021F48091F1008093350121
:1027F0008091E8008B778093E8000E94AA0B82CF3B
:102800008091A0028111E0CF7DCF80917C02813A3E
:1028100009F078CF8091800290918102892B09F094
:1028200071CF8091E800877F8093E8008091E80075
:1028300080FFFCCF809136018093F1008091E80009
:102840008E77D9CF80917C02813209F05BCF809165
:10285000E800877F8093E8000E94AA0B80917F02A6
:10286000809334014FCF80917C02813A09F04ACFA6
:102870008091E800877F8093E8008091E80080FFE6
:10288000FCCF80913401D8CF803889F0823841F56F
:10289000809180028F70873018F58093E9008091D5
:1028A000EB0085FB882780F91092E90006C0809133
:1028B000790290919F02911182609091E800977F38
:1028C0009093E8008093F1001092F1008091E8006D
:1028D0008E7723C0811116C080917E02813011F164
:1028E0008091E80083FF0AC08091E800877F809391
:1028F000E8008091EB0080628093EB00AA96E3E011
:102900000C94F22C823061F780917E02882389F04A
:102910001092E9008091E800877F8093E8000E9490
:10292000AA0BDECF81E0933009F080E080939F0214
:10293000EFCF809180028F702FEF280F263080F626
:102940008093E9002091EB0020FFE2CF933031F437
:102950008091EB0080628093EB00DACF9091EB00E6
:1029600090619093EB0021E030E0A90102C0440F98
:10297000551F8A95E2F74093EA001092EA00809191
:10298000EB008860E8CF8111ABCF10917E021F77FA
:102990008091E3008078812B8093E3008091E800B0
:1029A000877F8093E8000E94AA0B8091E80080FF57
:1029B000FCCF8091E30080688093E30083E01111F5
:1029C00001C082E08093A0028BCF8058823008F053
:1029D00087CF40917E0250917F024C3D83E05807A3
:1029E00099F583E08A838AE289834FB7F894DE0100
:1029F000139620E03EE051E2E32FF0E050935700C1
:102A0000849120FF03C082958F703F5F8F708A3062
:102A1000C8F0895C90E08D939D932F5F243161F71E
:102A20004FBF8091E800877F8093E8006AE270E002
:102A3000CE0101960E94510B8091E8008B77809324
:102A4000E8004ECF805DE6CF209180023091810278
:102A5000852F99278330910509F160F48130910524
:102A600009F472C0029709F03BCF8BE390E0EAEEE5
:102A7000F6E029C08132910509F45AC0829709F025
:102A80002FCF2115310509F469C02130310509F036
:102A900027CF86EB90E0E0EFF5E015C0CA0199275B
:102AA0004130B1F18230910509F43AC0892B09F027
:102AB00017CFE7E5F7E0E4918E2F90E0E7E5F7E048
:102AC000009709F40DCF2091E800277F2093E800BC
:102AD00020918202309183028217930708F49C01AF
:102AE00040E02115310509F03EC041113CC0809104
:102AF000E80082FDA1CF8091A002882309F49CCF39
:102B0000853009F499CF8091E80083FFF0CF94CF0E
:102B1000E5E4F7E0E4918E2F90E0E5E4F7E0D0CF34
:102B2000E7E3F7E0E4918E2F90E0E7E3F7E0C8CF2A
:102B30002115310571F02130310509F0D1CE89E040
:102B400090E0E5E1F7E0BFCF82E190E0E5E2F7E079
:102B5000BACF89E090E0ECEFF6E0B5CF84E490E006
:102B6000E6EAF6E0B0CF8091A002882309F464CFB2
:102B7000853009F461CF8091E80083FD5DCF8091BD
:102B8000E80082FDB4CF8091E80080FFAACF909149
:102B9000F3008091F2002115310519F0883091057C
:102BA00050F041E0089709F040E08091E8008E770E
:102BB0008093E80096CF44914093F10031962150E4
:102BC00031090196E8CF803809F08ACE8091E8007B
:102BD000877F8093E80080917A028093F10076CE1F
:102BE00081117ECE10917E02123008F079CE809154
:102BF000E800877F8093E80010937A020E94AA0B76
:102C00001123A9F084E08093A00242E061EC81E00E
:102C10000E94320C42E261EC82E00E94320C809110
:102C2000A002843051F482E08093370159CE809124
:102C3000E30087FDE7CF81E0E6CF81E0F5CF9C019F
:102C40004FB7F89480918C0290918D02A0918E02E2
:102C5000B0918F024FBF821B930B08950F931F9368
:102C6000CF93DF93C62FD42F122F8823A9F0609320
:102C700001090E940F109093710280937002C77037
:102C800081E001C0880FCA95EAF70E94AD10DF917C
:102C9000CF911F910F91089580910109681336C05B
:102CA00080917002909171020E941F168F3A9105D7
:102CB00068F5CD130EC060E070E0812F0E94A51270
:102CC000D77081E001C0880FDA95EAF70E94C11041
:102CD000DECFC77001E0802F01C0880FCA95EAF7E8
:102CE0000E94C11080E28D0F883050F48D2F8770C4
:102CF00001C0000F8A95EAF7802F0E94AD10DBCF4C
:102D000060E070E0812F0E94A512C1CFC77081E002
:102D100001C0880FCA95EAF7D9CFA0E0B0E0E3E997
:102D2000F6E10C94C72C7C01DC0114968C9188236D
:102D300009F48AC061E0C7010E94F908EC018091A2
:102D4000E708F70135808111C8C0311029C0C635A8
:102D5000FCE7DF0709F48BC0F0F4C3353CE7D30789
:102D600009F452C0C4358CE7D80709F472C08E014B
:102D7000005E110980913D01811164C1F7018581D7
:102D8000FE01E851FC47E730F10508F017C3EA52AD
:102D9000F24D0C94402DC7359CE7D90709F485C046
:102DA000D70115963C901597332009F471C71196F9
:102DB0008C9111978093EB088C918093EA0880E2C4
:102DC00080933C01D093E908C093E808CE0190526B
:102DD0008115904208F005C1F7018681803108F421
:102DE00029C1FE01FF278E01005E1109CD3308F4D1
:102DF00043C2CD35BCE7DB0709F0BCCF80913D0174
:102E0000882309F45AC205C10E941C1380E090E097
:102E10000E94D20585E695E09093E6088093E50848
:102E200081E08093E70880910B098770882361F027
:102E3000D70115968C91882339F08091520982FF31
:102E400003C082E00E946C06CDB7DEB7E2E10C94CD
:102E5000E32C0E941C1380E090E00E94D2058EEDCE
:102E600098E09093E6088093E50882E0DACFC0907E
:102E70003A01D0903B0100910809109109090E9484
:102E80001C1380E090E00E94D205C5E6D5E0CC1688
:102E9000DD0631F40E941C13C8010E94D205C3CF85
:102EA000CE010E948D162796F2CFC0903801D090A7
:102EB000390100910809109109090E941C1380E052
:102EC00090E00E94D205CEEDD8E0CC16DD0611F3DD
:102ED000CE010E948D162797F8CF9E0123553C47BF
:102EE00023303105B8F591E0C535DC4709F490E0B1
:102EF000931509F498CF813029F08230B9F01092FF
:102F0000E70891CF8091E5089091E608B5E0853615
:102F10009B0729F0FC0137972581211105C090936B
:102F20003B0180933A01EBCFCF01F0CF8091E508D0
:102F30009091E608E8E08E3D9E0729F0FC01379667
:102F40002581211105C09093390180933801D7CF95
:102F5000CF01F0CF813011F1823009F021CF4091C3
:102F60003A0150913B018091E5089091E6083110BB
:102F700005C028E08E3D920709F412CF9C01295F1D
:102F80003F4F4217530709F40BCF27E0F701DC014D
:102F900001900D922A95E1F707971EC040913801E4
:102FA000509139018091E5089091E608311005C0F3
:102FB000F5E085369F0709F4F3CE9C0127503109CF
:102FC0004217530709F4ECCE27E0F701DC0101902A
:102FD0000D922A95E1F707969093E6088093E5080D
:102FE000DFCECE01905481159041C8F4D7011696DA
:102FF0008C918E01005E1109803108F4BBCEFE0178
:10300000FF27CD3308F432C1CF35ACE7DA0709F03A
:10301000F0CE10923D0180E00E94BD1204CFCE019F
:103020009A9581159F4108F0D6C0FE01FF27CD3348
:1030300008F413C130903D01332009F4BFC18E0163
:10304000005E11092090050980910409282A8091C9
:103050000309282A0830110508F0D3C09E01277003
:10306000332781E090E001C0880F2A95EAF73320EA
:1030700009F475C1282AF701808191810E942F06E9
:1030800021E030E0290102C0440C551C8A95E2F78A
:103090008090F7089090F80898E2692E92E0792ED7
:1030A000D301CD90DD903D01C114D10409F475C167
:1030B000211004C0F6018281811169C1D6011396E5
:1030C0008D919C91149784219521892B09F45FC1DE
:1030D00019968C91982F9770911182C10830110523
:1030E00008F053C1311083C1D601AD90BC90CA1510
:1030F000DB0509F44CC18C149D0409F448C1D601C8
:103100001E96ED91FC91309721F08081882309F47F
:103110003EC1622DC6010E946909882309F437C1A6
:10312000CA15DB0511F4311005C0A114B10409F072
:103130006AC1312C80E00E94BD12D092F808C09282
:10314000F70881E08093F608F60186818093F50800
:1031500031100DC0AB2859F0808191819C01245021
:103160003109213A310508F057C10E946E0AF60173
:10317000A780B084C5019A9581159F4110F420EE77
:10318000B22299249394C50101978F339E4708F08A
:10319000912CD6011A96ED91FC911B97309731F046
:1031A0001C966D917C9181E00995982281E03826EA
:1031B000992071F0F601878190850E94990580938E
:1031C000F408C5010830110508F029C10E940E0B52
:1031D0000E945B102BC1CE01805A9245809708F067
:1031E00051C030903D01332009F460C18E01005E72
:1031F00011092090050980910409282A809103096A
:10320000282A3110AFC08091FF0890910009C8179B
:10321000D90781F4109200091092FF081092FB0860
:103220001092FC081092FD081092FE081092FA0805
:103230001092F908E091F708F091F808309709F436
:103240009DCD80819181C817D90709F097CD109243
:10325000F60880E00E94BD1291CDE854F54FE4914C
:10326000E0933C018E01005E1109C3CDE854F54F97
:10327000E491E0933C01C8CEE854F54FE491E0932B
:103280003C01B7CDCD33D10538F4FE01E854F54FFC
:10329000E491E0933C016BCDC0343EE7D30789F065
:1032A000C1348EE7D80709F440C08E01005E1109D1
:1032B000CE359CE7D90709F0A7CE81E080933D0188
:1032C000B2CD0E940F109093F3088093F20881E032
:1032D0008093F1081092F008A6CD1092F108809129
:1032E000F008882321F083EE0E947212F3CFC09180
:1032F00004098C2F8272882391F0109204098DE2C8
:1033000092E00E945C128DE20E94721268EC70E101
:103310008DE292E00E94C305C093040984CD60E071
:1033200070E084E50E94A5127ECD0E940F1090935C
:10333000EF088093EE0881E08093ED081092EC088E
:1033400072CD8EE292E00E945C128EE20E947212B6
:1033500068EC70E18EE292E00E94C30564CD809536
:10336000282289CED0930009C093FF080E949E0AAC
:103370006093FB087093FC088093FD089093FE080F
:103380001092FA081092F90876CE311030C0ACE3F2
:10339000B2E0A615B70509F083CE8114910409F4B3
:1033A000EDCC0830110508F052C0622DC4010E9416
:1033B0006909811103C081E00E94BD12D7011596F1
:1033C0008C91811189C0C631BCE7DB0709F059C176
:1033D000809102098111ADC189E20E946E0A28C064
:1033E0000830110558F4332031F081FFD0CFF601B9
:1033F000A080B18080CE82FFCACF76CE332039F252
:1034000080FFC5CFF4CF8091FF08909100098A1505
:103410009B0509F0BCCF8DCE0E947212A8CE0497F6
:10342000813A910540F48A2D0E943A0A3110A6CCC7
:103430000E945B10F8CC0E945B108FE39CE901971F
:10344000F1F700C000008A2D0E94ED11EFCFF401CA
:1034500080819181C817D90739F4332009F4F7CE58
:10346000818585FD8BCCF5CE332009F487CC818511
:10347000F8CF26E241EE61EE0E942E16D4CC27E270
:1034800045EE65EEF9CF26E241EE60EEF5CF27E29C
:1034900045EE64EEF1CF26E241EE62EEEDCF27E29B
:1034A00045EE66EEE9CF28E241E0EBCF109201094C
:1034B000C631ECE7DE0709F03EC1809104098A7A43
:1034C00091E0811101C090E09093020981112FC118
:1034D00089E20E943A0AACCF10920109CE019057BE
:1034E000839730F784E090E00E946D2D909352090D
:1034F00080935109FE01E150F047E232F10520F4DA
:10350000E352F24D0C94402D8091510981608093DB
:103510005109609151097091520984E090E00E9434
:10352000A12D0E941C137FCC80915209886080934A
:103530005209EFCF809151098260E9CF8091510902
:103540008460E5CF809151098860E1CF8091520974
:103550008160EDCF809152098260E9CF809151095D
:103560008061D5CF809151098062D1CF809151097E
:103570008064CDCF0E941C13809151098068C7CF11
:10358000809151098C60C3CF809152098360CFCF65
:10359000809151098E7FBBCF80915209877FC7CF21
:1035A000809151098D7FB3CF809151098B7FAFCF2F
:1035B00080915109877FABCF809152098E7FB7CF21
:1035C000809152098D7FB3CF809151098F7E9FCF1B
:1035D000809151098F7D9BCF809151098F7B97CF2F
:1035E0000E941C13809151098F7791CF80915109CE
:1035F000837F8DCF809152098C7F99CF8091510923
:1036000082FB992790F921E0922790FB82F990FBA9
:1036100083F97DCF80915209982F909591708E7F7C
:10362000892B90FB81F983CF90915109892F8F7B52
:1036300096FF80646CCF0E941C1390915109892FD2
:1036400097FB87F9805863CF61E08EE090E00E949D
:10365000832D5FCF60E0F9CF90915109892F8F7E44
:1036600094FF806154CF90915109892F8E7F90FFF4
:1036700081604DCF90915209892F877F93FF886099
:1036800056CFCE01805E9245809708F48BC0F7013B
:10369000858100811181882309F4B5C0C8010E9489
:1036A000C508C82F682FC8010E94F905B8018C2FE2
:1036B0000E949B060E94AC07D82FC92FD7011596F0
:1036C000DC9015971696CC90C2948FE0C82280911A
:1036D0000B0987708823F9F00D2DDD20E9F0892F83
:1036E000807F803461F080E28D0F8830A0F0892FD8
:1036F000807E803221F4D23070F0CC2061F0809155
:10370000520982FF08C082E00E946C0680910B097A
:10371000877001E0811100E0EC2FE295EF70C03C72
:1037200008F0D1C0F0E0E150F24D0C94402D85E35B
:10373000D0CE85E352CECE01805E9245809708F4CC
:10374000A6CFCA353CE7D30709F459C008F03DC0FD
:10375000C1309CE7D90709F450C0C330ACE7DA07A1
:1037600009F445C0C115DC4709F091CF0E941C1334
:103770002FEF34E38CE0215030408040E1F700C06F
:10378000000087E797E7909301088093000888E19D
:103790009AE00FB6F894A895809360000FBE9093BE
:1037A0006000FFCFCF7181E090E09C0102C0220F4A
:1037B000331FCA95E2F7E901622F83E090E00E948F
:1037C000832DCE010E94CD052ECBCB35ECE7DE0755
:1037D000C1F0CC35DC4709F05ACF8091520982FB09
:1037E000882780F991E089270E94870D50CF6FEFDD
:1037F0007FEF80E090E00E94A12D0E944D1381E0B8
:10380000F3CF80E0F1CFC8010E942F06C82F4ECF22
:103810001C2F1F70C03110F01295107FDD20B9F001
:10382000112369F080E28D0F883010F0D11109C0AA
:1038300080910409812B809304090E945B108D2FD5
:1038400040C080910A09812B80930A09F6CF8D2F01
:103850000E9472121123B9F180E28D0F883010F0AE
:10386000D11104C0812F0E94880606C01095809156
:103870000A09812380930A090E945B1024C01C2F2F
:103880001F70C07FC03211F01295107FDD2349F008
:10389000D13009F484C0DD2009F490C0CC20B1F10E
:1038A000CECF8091520982FD2DC0DD2029F1112358
:1038B00039F080910409812B809304090E945B10E8
:1038C00080E00E94ED11002309F4B0C180910B0942
:1038D00080FDACC1F70115828695869586950E947C
:1038E000D705C7010E948D1680910B098695869594
:1038F00086950E94E7059AC180E00E94721211230A
:1039000011F3B0CFDD2069F1C11004C0812F0E94F6
:10391000AD10D9CFB1E0CB1210C0C0910309812FF7
:103920008C23181781F20E940F1090930F09809337
:103930000E09C12BC0930309C6CFE3E0CE12C3CF5B
:10394000812F0E94AD10812F0E94EA1080910509FD
:10395000912F9823191709F4B6CF812B809305096D
:10396000B2CFC11012C0812F0E94C110812F0E94BE
:10397000EA1080910509912F9823992309F4A3CF88
:1039800010951823109305099ECFF1E0CF129BCF1D
:10399000809104098123882309F495CFE4CFDD20A9
:1039A00029F025E02C1508F48ECFB0CF34E03C157B
:1039B00008F489CF812F0E94C11085CFCC20D1F38C
:1039C000D93349F48FEF97EEA3E081509040A040A7
:1039D000E1F700C000008D2F0E94721274CF8C2F6F
:1039E000869586958370882369F0813009F06BCFC6
:1039F0008D2F9C2F9370D11002C080E090E00E9428
:103A0000140A61CF8D2F9C2F9370D11002C080E0DB
:103A100090E00E94EE0957CF6D2D8D2F0E94281146
:103A200052CF8C2F8370811142C0D1102FC04D2FE7
:103A3000429546954770440F440F2D2F2F7030E06C
:103A4000042E02C0220F331F0A94E2F780E090E0B8
:103A5000D4FF09C08FE090E002C0880F991F4A95FB
:103A6000E2F780959095C695C695C370C230B1F0C7
:103A7000C33089F04091060950910709C13049F0DF
:103A8000822B932B842395230E94CD050E94DD0970
:103A90001ACF242B352B822B932BF6CF822B932BF3
:103AA000209106093091070982279327EDCFDD2069
:103AB00091F1C0FFEBCF4D2F429546954770440FD3
:103AC000440F2D2F2F7030E0042E02C0220F331F21
:103AD0000A94E2F780E090E0D4FF09C08FE090E024
:103AE00002C0880F991F4A95E2F780959095C69578
:103AF000C695C370C230C1F0C33099F04091080937
:103B000050910909C13059F0822B932B84239523BE
:103B10000E94D205BBCF823008F4B8CFCCCF242B83
:103B2000352B822B932BF4CF822B932B20910809DA
:103B30003091090982279327EBCFCF70DD2039F030
:103B40008C2F0E94D7058D2F0E94AD109FCF8D2FF7
:103B50000E94C1108C2F0E94E70598CFD23FA1F19F
:103B600078F4D03FC1F0D13F09F447C0DD2009F41B
:103B70007DC0CC2009F477C08D2F0E94ED1186CF37
:103B8000D33F49F1D43FA9F1D110F3CFC1107CC08C
:103B90008C2F8F71E0CFDD20A1F0B4E0BC1508F4CC
:103BA00075CFCF7181E090E0FC0102C0EE0FFF1FE6
:103BB000CA95E2F780910809909109098E279F27FD
:103BC000A7CFF5E0CF16EBCF8C2F8F71D110C3CFDD
:103BD0000E94D7055BCF80E090E0DD2009F498CF0C
:103BE000CF7181E090E002C0880F991FCA95E2F77B
:103BF0008FCF8091520982FD06C08C2F8F71DD20FE
:103C000009F4A9CFE5CFDD20F9F080910B09877089
:103C1000843089F410920B0910920D0910920C094E
:103C20008C2F8F710E94E7050E94DD0960E0C701BB
:103C30000E94F90809C922E02C15B0F363E08C2F2B
:103C40008F710E94D310F0CF32E03C1540F41092F7
:103C50000B0910920D0910920C0964E0F0CF81E07D
:103C60000E946C06E1CF8C2F8F71B2CFCC2009F46B
:103C70008FCFD93349F48FEF97EEA3E08150904076
:103C8000A040E1F700C000008D2F0E947212FECE0E
:103C9000C034FEE7DF0709F420CBC1342EE7D2079A
:103CA00009F065C81092ED088091EC08882309F4AA
:103CB00048CB82EE0E94721241CB80915009803134
:103CC00078F480914F09882359F0E09111092091EF
:103CD000100930914B0940914A0957E02E1301C059
:103CE00008956E2F70E05E9FF0011124DF01AE5E3B
:103CF000B64F14968C911497882361F111968C918C
:103D00001197831327C08C91841324C015968C912E
:103D1000159781111FC012968D919C91A0914C090D
:103D2000B0914D098A1B9B0B8F3A910598F48091B5
:103D300050098F70806180935009E85EF64F808152
:103D40008F70806180838AE499E00E948D160E94C2
:103D500062060895FB013196E770C0CFADE0B0E098
:103D6000E4EBFEE10C94CC2C8C0186E0F801DE0142
:103D7000189601900D928A95E1F7F801E080F580A0
:103D8000A280B380C4808AE4882E89E0982E709047
:103D90004E09711020C0CC20D9F0FF2009F419C1C0
:103DA000C8010E942809882309F413C187E0F8019B
:103DB000D40101900D928A95E1F7F1E0CF1206C08F
:103DC00080914A0990914B090E9419090E945D1E39
:103DD000FF24F39451C0D0904F0980914C099091E9
:103DE0004D099501281B390BDD2009F4BAC02F3A83
:103DF000310508F090C0CC2059F390914B09C18057
:103E000080915009803108F058C0C91214C09091B7
:103E10004A099E1110C0F1104AC08F7080618093D2
:103E200050098AE499E00E948D1680915009F801AA
:103E30008683F12C21C0F1103AC040E06C2D8E2D0C
:103E40000E94C40C40E06C2D8E2D0E94C40CF82EF4
:103E50008111EFCF888599850E941909292F229514
:103E60002F70903470F49F702230A0F09923B1F03D
:103E7000F8019681903190F48F2D2D96EDE00C9401
:103E8000E82C2A5F2F70223068F0C8010E948D163E
:103E9000FD2CF2CF992311F0882371F3805E8830D6
:103EA00058F3F3CF803F40F3815F8230F9CF8091A8
:103EB0005009816080935009BCCFC91207C090910E
:103EC0004A099E1103C0FF2009F46CC0C8010E947A
:103ED0002809882309F47DC0FF2009F47AC0809165
:103EE0005009803278F020914A0930914B093A8389
:103EF0002983BC82AB827D821E828F83CE01019694
:103F00000E948D1687E0F801AAE4B9E001900D92B5
:103F10008A95E1F75BCF80915009803150F48AE4B3
:103F200099E00E948D1687E0F40111928A95E9F7D5
:103F300080CFCC2009F44CCF20914B0991812913DB
:103F4000C5CF90914A099E11C1CFF110BFCF868392
:103F5000C8010E948D1687E0F40111928A95E9F755
:103F600037CF2F3A3105F8F6CC2009F431CFFF20B6
:103F700081F190914B098181981321C080914A0968
:103F80008E111DC08091500980FD10C0803170F0ED
:103F90008683807F803F39F08681982F907F905F65
:103FA0008F70892B8683C8010E948D1687E0F801E7
:103FB000AAE4B9E001900D928A95E1F709CFC80112
:103FC0000E94280981119ECF8091500981608093C1
:103FD0005009C8010E948D16FBCEABE1B0E0E3EFC3
:103FE000FFE10C94D62C4E8B5F8B688F798F8A8F74
:103FF0009B8F911110920A091D8A86E0FE01769628
:10400000DE011F9601900D928A95E1F78091520989
:1040100082FF1FC00E940F1020910C0930910D09E2
:10402000821B930B8838934138F080910B0982FDF5
:1040300003C082E00E946C060E940F1020910E09BE
:1040400030910F09821B930B8838934110F00E9426
:1040500090068B89882329F061E0CE010F960E949B
:10406000F90887E0FE013F96DE01189601900D9257
:104070008A95E1F7CE0108960E94AE1E811110C00C
:1040800087E0FE013896DE01119601900D928A9527
:10409000E1F720911009409111098C8581110BC025
:1040A00017E0809111099091100989132EC06B9629
:1040B000E3E00C94F22C30E0C90101968770992757
:1040C00050E08417950771F40E941C131092100998
:1040D0001092110987E0EAE4F9E0DF011D928A9568
:1040E000E9F7DECF97E0929FD001939FB00D1124A6
:1040F000AE5EB64FFE01319601900D929A95E1F7B2
:10410000809310090E946206CBCF189FC001112432
:104110008E5E964F0E94AE1E882349F2809111094F
:1041200090E001968770992780931109BACFA6E095
:10413000B0E0EDE9F0E20C94D52C0E940F108C0158
:1041400080911805909119058017910779F01982CF
:104150001A820E940F10BC0149815A8180E090E0D0
:104160000E94ED1F10931905009318052696E4E0B0
:104170000C94F12CA0E1B0E0E0ECF0E20C94CC2C3B
:104180001A821982FE01339686E0DF011D928A951C
:10419000E9F78EEDA82E81E0B82E8E010F5F1F4F3C
:1041A0004801EE24E394F12C28EEC22E21E0D22E19
:1041B000F50181915F018F3F09F441C0F894E82F28
:1041C000E295EF70F0E021A18F70A70102C0440FCB
:1041D000551F8A95E2F7CA01922F982B91A392A1BD
:1041E0008095892382A3789400C0E2EEF1E031E06B
:1041F000712C21912F3F09F4BCC0A22FA295AF7062
:10420000A05EB0E08C9190E02F7002C095958795EC
:104210002A95E2F781708111ACC0832F782A330F81
:10422000CE16DF0631F7F501319780818F3F11F00F
:104230000E94500950EA5A95F1F7D8017C920F5F1D
:104240001F4FB2EEAB16B1E0BB0609F0B1CF48E0AC
:1042500050E0B40184E992E00E944F2D00919D024C
:1042600010E00F551D4F892B09F485C088E0F4013B
:10427000A4E9B2E001900D928A95E1F781E0809384
:104280006F020E940F1090936E0280936D028091D6
:104290001205882309F4C9C01A8619861C861B8654
:1042A000809178028A3008F088C07E01E9E0EE0E45
:1042B000F11C4AEE5DE0B701C8010E944D0D670197
:1042C000882309F4A0C04CE85EE0B701C8010E9451
:1042D0004D0D882309F497C04EE95DE0B701C80190
:1042E0000E944D0D882309F48EC0109278028091AF
:1042F0009C0290E044E050E0B6018F559D4F0E9433
:104300004F2D21E020936C02892B09F06EC0809123
:10431000F108882399F08091F00881110FC08091F5
:10432000F2089091F3080E941F16803B910530F02F
:1043300083EE0E94ED1181E08093F0088091ED08FA
:10434000882399F08091EC0881110FC08091EE08CC
:104350009091EF080E941F16803B910530F082EE8D
:104360000E94ED1181E08093EC086096EDE00C94E2
:10437000E82C80E053CF80916F02882309F487CF27
:1043800080916D0290916E020E941F16059708F4AD
:104390007ECF44E050E064E972E0C8010E944F2DF6
:1043A000892B41F084E0E4E9F2E0D80101900D921C
:1043B0008A95E1F710926F026ACF80916A0290911C
:1043C0006B020E941F16843F914008F06ECF8091CF
:1043D0006C02882309F49BCFFE01399684E0DF014B
:1043E0001D928A95E9F710926C02E0919C02F0E030
:1043F000EF55FD4F89859A85AB85BC858083918378
:10440000A283B38384CF809178028F3F39F40E94D6
:104410000F1090936B0280936A02D9CF8F5F8093C5
:1044200078028A3008F463CFF2CFE0909C02F12C3E
:10443000F701EF55FD4F7F01F80180819181A28145
:10444000B3818093FE049093FF04A0930005B09382
:1044500001058EEF94E00E94190C8093FD04809179
:10446000020590910305A0910405B0910505F7019F
:1044700080839183A283B383C0900605D090070503
:10448000E0900805F090090580916602909167021E
:10449000A0916802B0916902C816D906EA06FB0627
:1044A00009F463CFC0926602D0926702E09268027C
:1044B000F09269020E949E0AC61AD70AE80AF90A0F
:1044C000C0921405D0921505E0921605F0921705DA
:1044D0004CCFCDB7DEB764970FB6F894DEBF0FBEF2
:1044E000CDBF85B7806885BF85B7806885BF84B735
:1044F000877F84BF0FB6F894A8958091600088618B
:1045000080936000109260000FBE80E890E00FB6CC
:10451000F89480936100909361000FBE81E08093D6
:1045200037018EE499E090933D0280933C020E9413
:10453000FA0B0E94690C8091E20084608093E20093
:1045400078948091A002882399F08091E9001091DD
:10455000EC001795112717958F70182B1092E90012
:104560008091E80083FD0E9463131F701093E9009F
:1045700082E084BD93E095BD9AEF97BD80936E0075
:104580001092140510921505109216051092170539
:104590008091D80080618093D8002AE12A95F1F7B4
:1045A00000C08091D90080FF04C281E08093120591
:1045B00080931305809300010E94502B809100018D
:1045C0008091000191E08927880F880F80939D02D8
:1045D00094E0981B90939C0284E90E94500986E61F
:1045E0000E94500987E90E94500986EC0E945009F8
:1045F00002EE11E068EEE62E61E0F62ED8018D9114
:104600008D018F3F11F00E945009E016F106B1F7BD
:1046100088E0E1EAF2E0DF01482E1D924A94E9F7D2
:10462000E4E9F2E0DF011D928A95E9F780E090E08D
:104630000E946D2D853E9E4F09F461C065EE7EEFB0
:1046400080E090E00E94A12D60E082E090E00E9476
:10465000832D81E090E0909307098093060961E043
:1046600083E090E00E94832D60E074E184E090E0BC
:104670000E94A12D60E086E090E00E94832D60E022
:1046800087E090E00E94832D40E050E0BA0188E08E
:1046900090E00E94952D60E083E290E00E94832DDF
:1046A00060E08CE090E00E94832D60E08DE090E07F
:1046B0000E94832D19821A821B821C821D821E82F7
:1046C0001F82188648E050E067E170E0CE01019655
:1046D0000E94732D40E050E0BA018FE190E00E940B
:1046E000952D40E050E0BA018FE090E00E94952DBA
:1046F00040E050E0BA0183E190E00E94952D82E015
:1047000090E00E94652D8093A90284E090E00E94D1
:104710006D2D909352098093510983E090E00E949F
:10472000652D90E00E94CD058091120591E08927CA
:10473000880F8093E40480E88093BC020E94D4290F
:104740006BE070E082E797E00E94D60E882309F4C0
:1047500043C08091E40465E070E081FD35C18DE6E1
:1047600097E00E94D60E8823B9F16DE070E08BE5EA
:1047700097E00E94D60E882379F10E949E0A6987ED
:104780007A878B879C87DC01CB01805A9541AF4F9C
:10479000BF4F8093E8049093E904A093EA04B09398
:1047A000EB04E4EEF2E080E092E0DF019C011D9278
:1047B00021503040E1F7F093BB02E093BA028FEF53
:1047C0009FEF9093E7048093E60481E08093EF04E9
:1047D0008093EC041092E50480911205811102C0CF
:1047E0000E94532B81E091E090933B0580933A0522
:1047F000EE24E394CE0101965AE0852E912CA12C53
:10480000B12C898B9A8B8091A00210E400E142E1E7
:10481000F42E853009F410C10E94BA200AEA12E091
:1048200031EAC32E32E0D32ED601F80191918D9159
:1048300022EB422E22E0522E4E165F0609F406C1EC
:104840009817A1F320901205F12CD6017D906D01EF
:10485000F80131908F01371449F13724512C442449
:104860004394832D84218823C1F02220B1F0598202
:10487000FA820E940F109C838B83F1E0FD8391E00C
:10488000872D8421811101C090E09E8349815A8146
:104890006B817C818D810E94ED1F5394440CE6E076
:1048A0006E2E5610DECFF80131977082F39478E0C7
:1048B000772EF710CACF0E94BB0AF0901205F110B4
:1048C000DCC0F090EF04F1101DC10E94F50E86E0EF
:1048D000EFE5F5E0A989BA8901900D928A95E1F793
:1048E000709060050091610510916205D09063059C
:1048F000F0906405109261051092620510926305B4
:1049000010926405812F802B882379F08091F20426
:104910009091F3040E941F169C0180915D05811106
:1049200000C32B30310508F002C38F2D8D29882359
:1049300079F08091F0049091F1040E941F169C017F
:1049400080915C0581112CC32B30310508F02EC3FA
:1049500080916005781216C080916105882311F05E
:10496000801310C090916205992311F019130AC0A9
:1049700020916405211106C020916305211102C018
:10498000892B81110E94001186E0E989FA89AFE53F
:10499000B5E001900D928A95E1F70E94DD099091B2
:1049A000F404891709F42FCF8093F4040E949E0A1F
:1049B0002ACF0E94FA0B1092A002109212051092B8
:1049C000130510920001FACD88E697E0CACE8091D7
:1049D000A002843029F10E94E30E10929E0248E169
:1049E00050E00FB6F894A895409360000FBE109366
:1049F000600083B7817F846083BF83B7816083BF9A
:104A00007894889583B78E7F83BF0FB6F894A89566
:104A100080916000886180936000109260000FBEFA
:104A20000E94BA20E1EAF2E081918111F8C289EA9C
:104A300092E08E179F07C1F78091A002853009F49C
:104A4000C6CF0E941C130E94DD09E6CE9813FACE51
:104A50000E94972080911205882341F00091F90867
:104A60001091FA08F12C0115110579F48091EF04E9
:104A7000882309F42CCFF12C45C00091F90810913E
:104A8000FA080115110509F41CCF2091B6023091E6
:104A9000B7024091B8025091B902CA01B9010E940F
:104AA000EE0A69877A878B879C878091B202909102
:104AB000B302A091B402B091B50249845A846B84C8
:104AC0007C84481659066A067B06B8F0C8010E9425
:104AD0005C121092FA081092F9081092B602109225
:104AE000B7021092B8021092B9021092B20210925C
:104AF000B3021092B4021092B5028091EF048823A1
:104B000009F4CFC08091ED049091EE040E941F162D
:104B1000C29708F488C00E940F109093EE0480930F
:104B2000ED0484EE92E09093BB028093BA028091F0
:104B30001205882309F42DC180E198E00E94D40F6A
:104B40008091080990910909292F3327E0E0211568
:104B5000310511F0C901E8E09C0154E03695279534
:104B60005A95E1F72115310511F0EC5FC9019C015F
:104B700036952795369527952115310511F0EE5F6D
:104B8000C90196958795892B09F0EF5F85EC97E031
:104B9000E83038F4F0E0E55FF14D0C94402D88E00A
:104BA00098E00E94E20F8091EB08805D0E94220F46
:104BB00083EC97E00E94D40F8091EA08805D0E9408
:104BC000220F8FEB97E00E94D40F8091E80890911C
:104BD000E90820910B0130910C018217930709F02D
:104BE00079C02091C302203209F074C0EDEBF2E0ED
:104BF0008F0181918032E1F3F80101900020E9F703
:104C00009F012150310969010C151D0508F4BBC035
:104C10008DEB97E00E94D40F80913C010E94220FFF
:104C200081E00E94A20F8091E6049091E704892B15
:104C3000A9F08091EF04882389F08091E504811127
:104C40000DC00E94F50E2091E6043091E70480E04B
:104C500061E070E02115310509F0A1C08091EC04FC
:104C60008823F9F00E949E0A69877A878B879C8740
:104C70008091E8049091E904A091EA04B091EB04DA
:104C800029853A854B855C85281B390B4A0B5B0BC4
:104C9000DA01C9018F3F9F4FAF4FBF4710F40E9409
:104CA000E30EFF2009F413CE10CE81E098E079CF17
:104CB00089EF97E076CF8EEE97E073CF83EE97E0A3
:104CC00070CF89ED97E06DCF81ED97E06ACF8BECE7
:104CD00097E067CF90930C0180930B0120E2209323
:104CE000C3021092C2029C0140E050E0CA01B90127
:104CF000A50194010E941E2D69877A878B879C8766
:104D00008985805D01EC12E08093C10229873A8792
:104D10004B875C87CC24C394D12C69857A858B859D
:104D20009C85A50194010E941E2D6D877E878F872B
:104D3000988B8D85805D4D845E846F84788845284E
:104D40004628472849F429853A854B855C85232BDD
:104D5000242B252B09F480E2D8018E938D016985DF
:104D60007A858B859C85A50194010E941E2D29873B
:104D70003A874B875C87BFEFCB1ADB0AE5E0CE169C
:104D8000D10459F633CFD8018D918D010E94220FA5
:104D90003BCF8DE797E00E94D40F45CF8F5F482E21
:104DA000512C1B01082E02C0220C331C0A94E2F77E
:104DB000A10142235323452B89F39091E40490FDF4
:104DC00043C092013695279536952795922F829567
:104DD000880F80763FE1380F80930F0120931201F6
:104DE000309310019093130124E630E047E050E047
:104DF0006DE071E088E70E940A2A892B09F02ECF26
:104E000085E0440C551C8A95E1F78091E40480FD0F
:104E100023C0A2014C515D4F04E610E020E230E0D7
:104E200060E488E70E94A22A892B09F017CF20941A
:104E300030948091E6049091E7048221932190932D
:104E4000E7048093E6040ACF880F880F880F37E0C5
:104E5000380F20E093E0C0CFE4ECF2E080E2DF0125
:104E60001D928A95E9F7ECEEF1E0FC8BEB8B68EE96
:104E700071E007E0DD24D394AB89BC894D91BC8BF4
:104E8000AB8BFB018191BF01840D952D911D9C0180
:104E90002C513D4F3A872987E42FF0E0EC53FD4F2A
:104EA00020E030E0402F421B4D871D2D022E01C017
:104EB000110F0A94EAF769847A8490E0D3018D9106
:104EC0003D0181234D85491B477050E0B82F042ECA
:104ED00001C0BB0F0A94EAF75195419551094770FB
:104EE000552701C086954A95EAF78B2B4081482BC0
:104EF00040839F5F983011F72F5F3F4F31962830E6
:104F0000310581F6E0EFF1E06B887C88E615F70566
:104F100009F0B2CF04E610E020E230E044EC52E0C9
:104F20007FCF2531310508F400CD8F3F19F08F5F19
:104F300080935D05002359F00E9498099FEF101699
:104F40000CF491E0899F802D112480936105112339
:104F500059F00E94980991E011160CF09FEF899F7B
:104F6000802D11248093620580916105882309F4C6
:104F7000DCCCC0906205CC2009F4D7CC0E948A0911
:104F8000811101C081E0809361058C2D0E948A0906
:104F9000882319F080936205C8CCE0926205C5CCE5
:104FA0002135310508F4D4CC8F3F19F08F5F809301
:104FB0005C05DD2059F00E94B8099FEF1D140CF428
:104FC00091E0899F802D112480936305FF2059F083
:104FD0000E94B80991E01F140CF09FEF899F802D6B
:104FE00011248093640580916305882309F4B0CC73
:104FF000F0906405FF2009F4ABCC0E948A0981116E
:1050000001C081E0809363058F2D0E948A09882367
:1050100019F0809364059CCCE092640599CC809152
:105020009F02882309F408CD09BDF9BC09B400FE2C
:10503000FDCF8091D8008F7D8093D8008091E000D3
:1050400082608093E0008091E00081FDFCCF0E94AF
:105050001C13F2CC78941F921FB61F9211248F93C9
:105060009F93AF93BF9380918C0290918D02A091FA
:105070008E02B0918F020196A11DB11D80938C020A
:1050800090938D02A0938E02B0938F02BF91AF9147
:105090009F918F911F901FBE1F9018951F920F9286
:1050A0000FB60F9211242F933F934F935F936F93FB
:1050B0007F938F939F93AF93BF93EF93FF938091D1
:1050C000E10082FF09C08091E20082FF05C080916B
:1050D000E1008B7F8093E1008091DA0080FF24C0A3
:1050E0008091D80080FF20C08091DA008E7F80936D
:1050F000DA008091D90080FFA9C080E189BD82E1FA
:1051000089BD09B400FEFDCF81E08093A0028091AB
:105110007B02811109C00E94FA0B0E94690C8091E8
:10512000E20084608093E2008091E10080FF1AC079
:105130008091E20080FF16C08091E2008E7F809314
:10514000E2008091E20080618093E2008091D800CB
:1051500080628093D80019BC85E08093A00283E030
:10516000809337018091E10084FF2FC08091E2009D
:1051700084FF2BC080E189BD82E189BD09B400FEB6
:10518000FDCF8091D8008F7D8093D8008091E10081
:105190008F7E8093E1008091E2008F7E8093E20019
:1051A0008091E20081608093E20080917A028823FE
:1051B00009F452C084E08093A0028091A002843060
:1051C00009F052C082E0809337018091E10083FFB3
:1051D0002CC08091E20083FF28C08091E100877F8E
:1051E0008093E10082E08093A00210927A02809185
:1051F000E1008E7F8093E1008091E2008E7F8093BA
:10520000E2008091E20080618093E20042E060E091
:1052100080E00E94320C8091F00088608093F00062
:1052200081E08093370180933601FF91EF91BF9128
:10523000AF919F918F917F916F915F914F913F912E
:105240002F910F900FBE0F901F90189519BC1092C0
:10525000A00210927B0268CF8091E30087FF02C01A
:1052600083E0A9CF81E0A7CF81E0ADCF1F920F925D
:105270000FB60F921124FF920F931F932F933F931A
:105280004F935F936F937F938F939F93AF93BF934E
:10529000CF93DF93EF93FF9309EE10E0F801808145
:1052A000C091EC00C795CC27C7958F70FC2EF82ACB
:1052B0001082C0EFD0E08881877F888378940E9435
:1052C0006313F8011082888188608883CF2DCF70A6
:1052D000C083FF91EF91DF91CF91BF91AF919F91EB
:1052E0008F917F916F915F914F913F912F911F917E
:1052F0000F91FF900F900FBE0F901F901895FF9287
:105300000F931F93CF93DF93182FEB011092BC00E4
:1053100084EA8093BC000E940F10082FF92E809120
:10532000BC0087FF28C08091B900887F883029F0B1
:105330008091B900887F8031A1F51093BB0084E88B
:105340008093BC000E940F10182F092F8091BC0081
:1053500087FF1FC02091B900287F80E090E02831AE
:1053600099F081E090E0203411F480E090E0919594
:105370008195910909C0802F9F2D0E941F16C81783
:10538000D90768F68EEF9FEFCDB7DEB7E5E00C9456
:10539000F02C812F902F0E941F16C817D907B0F646
:1053A000F1CF8FEF9FEFF0CF1092B9008CE0809398
:1053B000B80008950F931F93CF93DF93EB01809371
:1053C000BB0084E88093BC000E940F10182F092FA7
:1053D0008091BC0087FF11C02091B900287F81E037
:1053E00090E0283211F480E090E091958195910948
:1053F000DF91CF911F910F910895CF3FDC0741F3CB
:10540000812F902F0E941F16C817D90708F78EEF1B
:105410009FEFEECFA0E0B0E0E0E1FAE20C94CC2CFC
:10542000782E5B016A0189010E940F104C01043142
:10543000110560F10F3F100769F1C80164E170E0E8
:105440000E94B32CF62EE72E6F2D7E2D872D0E9405
:105450007F29EC0197FF09C00F3F1007A9F3C40192
:105460000E941F160817190778F77501CA0CDB1C74
:10547000EC14FD0411F0D7FF10C084E98093BC0048
:10548000CE01CDB7DEB7EDE00C94E82CFF24F39409
:10549000E12CDACF85E0F82EFBCFB801F70181913E
:1054A0007F010E94DA29EC01E3CFA0E0B0E0EBE558
:1054B000FAE20C94CC2C782E5B016A0189010E94DF
:1054C0000F104C010431110560F10F3F100769F115
:1054D000C80164E170E00E94B32CF62EE72E6F2D18
:1054E0007E2D872D0E947F29EC0197FF09C00F3F79
:1054F0001007A9F3C4010E941F160817190778F7AF
:105500007501CA0CDB1CEC14FD0411F0D7FF10C0B0
:1055100084E98093BC00CE01CDB7DEB7EDE00C94FA
:10552000E82CFF24F394E12CDACF85E0F82EFBCFB2
:10553000F7018491B8010E94DA29EC01FFEFEF1A1C
:10554000FF0AE1CFA0E0B0E0E8EAFAE20C94CB2C4D
:10555000682E962E5A01690178010E940F10782E4C
:10556000892E0431110530F10F3F100731F1C801C8
:1055700064E170E00E94B32C162F072F612F702F6B
:10558000862D0E947F29EC0197FF19C0FFEFEF16CF
:10559000FF06A1F3872D982D0E941F16E816F90625
:1055A00068F784E98093BC00CE01CDB7DEB7EEE0AA
:1055B0000C94E72C11E000E0E1CF15E0FCCFB7013F
:1055C000892D0E94DA29EC018501CA0CDB1C0C151F
:1055D0001D0539F3D7FDE5CFB701F80181918F01A2
:1055E0000E94DA29EC01F3CF8EE14A9B03C081507F
:1055F0008111FBCF4A9BFECF08955A9880E28A958D
:10560000F1F75A9A0895FC013BE03A95F1F798E0DA
:1056100020E080E031E040E14A95F1F7880F4A9BB5
:1056200002C08160232742E04A95F1F7000040E183
:105630004A95F1F791509111EECF90E19A95F1F7DB
:1056400099B132E03A95F1F7000040E14A95F1F75F
:1056500092FB992790F992272081920F90830895C9
:10566000A1E0B0E0E6E3FBE20C94D32C19828C01BC
:105670007C01E60EF11C0E151F0541F481E09981B5
:10568000911180E02196E6E00C94EF2C0E94F42A20
:10569000CE0101960E94032BF80181938F01EBCF7D
:1056A000529A5A9A089552985A9AEA9AE9E6F0E07C
:1056B00080818F7C808308956150770B91E001C0D9
:1056C000990F6A95EAF7692F90E021E0611108C00F
:1056D000992399F05A9A80E28A95F1F75A98089599
:1056E000362F3823332339F05A9A922730E23A95ED
:1056F000F1F76695EBCF5A98F9CF5A98ECCFFF9215
:105700000F931F93CF93DF93EC018C01060F111DB4
:10571000C017D10729F4CDB7DEB7E5E00C94F02C23
:10572000F9900E94FD2A68E08F2D0E945C2BF0CF3B
:105730001F920F920FB60F9211240F931F932F9366
:105740003F934F935F936F937F938F939F93AF9309
:10575000BF93EF93FF93CF93DF930F92CDB7DEB755
:1057600019820E94F42ACE0101960E94032B082F71
:10577000069506950695982F92959570202F257081
:10578000920F292F237096959695920F98279770D0
:105790008981892B81115CC0053008F059C080E1F6
:1057A0008A95F1F75A9A529A82E08A95F1F700C0E9
:1057B0005A9888E0089F80011124D801AC5EBE4F42
:1057C0001696ED91FC9117973097A9F06091F00132
:1057D0007091F10114962D913C911597260F371F6A
:1057E00011968D919C911297680F791F13964C9189
:1057F00013978C910995F801EC5EFE4F6381662347
:1058000051F02091F0013091F10184819581820F56
:10581000931F0E947F2B0E94FD2A80E18A95F1F759
:105820005A9852985A9A80E18A95F1F7F801EC5EFD
:10583000FE4F6081662351F02091F0013091F1011B
:1058400081819281820F931F0E94302B0E94F42A43
:105850000F90DF91CF91FF91EF91BF91AF919F9109
:105860008F917F916F915F914F913F912F911F91F8
:105870000F910F900FBE0F901F9018950F931F93CD
:10588000CF93DF938C0105970CF065C0F894529A82
:105890005A9885E08A95F1F70000C02FC695C5702B
:1058A000802F8570C80F8C2F8370C695C69593E0A6
:1058B000000F111F9A95E1F7C80FC8018C2BEC015E
:1058C0000E94FD2A00C068E08C2F0E945C2B90E1B2
:1058D0009A95F1F752985A9A4A9B35C087E090E022
:1058E0004A9933C0F801EC5EFE4F6381662361F094
:1058F0002091F0013091F10184819581820F931FF5
:105900000E94302B882321F10E94F42A80E28A959C
:10591000F1F75A98529A90E19A95F1F7F801EC5EF6
:10592000FE4F6081662351F02091F0013091F1012A
:1059300081819281820F931F0E947F2B0E94FD2AFA
:10594000789481E009C000C0C7CF0197009749F45F
:10595000529A5A9A789480E0DF91CF911F910F91DB
:10596000089500C0BDCFAA1BBB1B51E107C0AA1FF1
:10597000BB1FA617B70710F0A61BB70B881F991FF0
:105980005A95A9F780959095BC01CD0108952F9265
:105990003F924F925F926F927F928F929F92AF92BF
:1059A000BF92CF92DF92EF92FF920F931F93CF930C
:1059B000DF93CDB7DEB7CA1BDB0B0FB6F894DEBFA3
:1059C0000FBECDBF09942A88398848885F846E84C9
:1059D0007D848C849B84AA84B984C884DF80EE8013
:1059E000FD800C811B81AA81B981CE0FD11D0FB61C
:1059F000F894DEBF0FBECDBFED010895991B79E08D
:105A000004C0991F961708F0961B881F7A95C9F74E
:105A10008095089597FB072E16F4009407D077FD24
:105A200009D00E94B32C07FC05D03EF490958195D7
:105A30009F4F0895709561957F4F0895A1E21A2EAA
:105A4000AA1BBB1BFD010DC0AA1FBB1FEE1FFF1F22
:105A5000A217B307E407F50720F0A21BB30BE40B72
:105A6000F50B661F771F881F991F1A9469F76095B9
:105A70007095809590959B01AC01BD01CF01089573
:105A8000EE0FFF1F0590F491E02D0994FB01DC015E
:105A900002C005900D9241505040D8F70895FB0187
:105AA000DC0104C08D910190801921F441505040D7
:105AB000C8F7881B990B0895FB01DC0102C0019017
:105AC0000D9241505040D8F70895F999FECF92BDFC
:105AD00081BDF89A992780B50895A8E1B0E042E029
