:100000000C942A060C9447060C9447060C94B330C3
:100010000C9447060C9447060C9447060C9447062C
:100020000C9447060C9447060C94792D0C94512E91
:100030000C94EF160C9447060C9447060C94470654
:100040000C9447060C9447060C9447060C944706FC
:100050000C9447060C94552D0C9447060C944706B7
:100060000C9447060C9447060C9447060C944706DC
:100070000C9447060C9447060C9447060C944706CC
:100080000C9447060C9447060C9447060C944706BC
:100090000C9447060C9447060C9447060C944706AC
:1000A0000C9447060C9447060C94470600AF00AE2C
:1000B0000000000000003E5B4F5B3E003E6B4F6B5C
:1000C0003E001C3E7C3E1C00183C7E3C18001C5729
:1000D0007D571C001C5E7F5E1C0000183C18000051
:1000E000FFE7C3E7FF00001824180000FFE7DBE785
:1000F000FF0030483A060E00262979292600407F65
:1001000005050700407F05253F005A3CE73C5A00A3
:100110007F3E1C1C0800081C1C3E7F0014227F220E
:1001200014005F5F005F5F0006097F017F000066CB
:1001300089956A0060606060600094A2FFA29400EC
:1001400008047E04080010207E20100008082A1CE5
:100150000800081C2A0808001E10101010000C1EB1
:100160000C1E0C0030383E383000060E3E0E0600E5
:1001700000000000000000005F0000000007000712
:100180000000147F147F1400242A7F2A12002313F6
:10019000086462003649562050000008070300003A
:1001A000001C224100000041221C00002A1C7F1C70
:1001B0002A0008083E080800008070300000080887
:1001C0000808080000006060000020100804020019
:1001D0003E5149453E0000427F4000007249494976
:1001E00046002141494D33001814127F1000274565
:1001F000454539003C4A4949310041211109070070
:10020000364949493600464949291E000000140074
:1002100000000040340000000008142241001414C3
:1002200014141400004122140800020159090600A8
:100230003E415D594E007C1211127C007F494949B4
:1002400036003E41414122007F4141413E007F490D
:10025000494941007F09090901003E4141517300AC
:100260007F0808087F0000417F4100002040413F97
:1002700001007F08142241007F40404040007F027F
:100280001C027F007F0408107F003E4141413E0078
:100290007F09090906003E4151215E007F091929A5
:1002A000460026494949320003017F0103003F40CF
:1002B00040403F001F2040201F003F4038403F008B
:1002C0006314081463000304780403006159494D62
:1002D0004300007F4141410002040810200000411A
:1002E00041417F00040201020400404040404000C0
:1002F0000003070800002054547840007F2844443D
:100300003800384444442800384444287F00385496
:100310005454180000087E0902001824241C780098
:100320007F080404780000447D4000002040403DE8
:1003300000007F102844000000417F4000007C0442
:10034000780478007C080404780038444444380079
:100350007C1824241800182424187C007C08040429
:10036000080048545454240004043F4424003C40F2
:1003700040207C001C2040201C003C4030403C00C1
:100380004428102844004C9090907C004464544CC5
:1003900044000008364100000000770000000041E2
:1003A000360800000201020402003C2623263C001D
:1003B000000000000000000000000000000000003D
:1003C000C0E0F0F8F81800C0F0FCFEFFFFFFFFFFF0
:1003D000FFFF7E00000000000000000080C0E0E0A1
:1003E000E0E0E0E0E0E0C0800000000080C0E0E08D
:1003F000E0E0E0E0E0E0C080000000E0E0C0C0E05D
:10040000E0E0E00000E0E0C0C0E0E0E0E0E0C0806C
:100410000000000080C0E0E0E0E0E0E0E0E0C0805C
:100420000000000000000000000000000000E0F0FC
:10043000F0F0E0ECEEF7F37020007C7C7C7E007E38
:100440007E7E7F7F7F000080C0E07E5B4F5BFEC0D2
:100450000000C000DCD7DEDEDED7DC00C00000001C
:10046000000000000000000000000000000000008C
:10047000000000000000000000F8FCFEFFE000FFAC
:10048000FFFFFFFFFF80FFFFFFFFFFFFFFFFFF1FDB
:100490000701000000000000000000FFFFFF8100D6
:1004A000000000000081C3C3C30000FFFFFF810004
:1004B000000000000081FFFFFF0000FFFFFF0100C0
:1004C0000000000000FFFFFF010000000001FFFF2F
:1004D000FF0000FFFFFF9D1C1C1C1C1C1C9DDFDF80
:1004E000DF000000000000000000000000000F1FFF
:1004F0003F7F7F7F7F7F3F1E0C001F1F1F3F003FFE
:100500003F3F7F7F7F00307B7F7830202030787FB7
:100510003B0003000F7F0F0F0F7F0F000300000051
:1005200000000000000000000000000000000000CB
:10053000000000000000000000030F1F3F3F3F3F8E
:100540001F1F3F3F7F7F7F3F3F1F3F7F7F7F7F7C1E
:100550007878381C0F000000000000000103070736
:10056000070707070707030100000000010307074B
:100570000707070707070301000000070707000038
:100580000000000000070707000000000000070748
:100590000700000001030707070707070707030114
:1005A000000000000000000000000000000000004B
:1005B000000000000000000000000000000000003B
:1005C000000000000000000000000000000000002B
:1005D000000000000000000000000000000000001B
:1005E000000000000000000000000000000000000B
:1005F00005010902A10185020901A10005091901EE
:1006000029081500250195087501810205010930A9
:1006100009311581257F95027508810609381581F4
:10062000257F950175088106050C0A38021581257C
:100630007F950175088106C0C005010980A101856B
:100640000319012AB700150126B70095017510811D
:1006500000C0050C0901A101850419012AA0021599
:100660000126A002950175108100C005010906A1AF
:10067000018506050719E029E7150025019508758C
:100680000181020507190029EF1500250195F07574
:100690000181020508190129059505750191029549
:1006A0000175039101C005010906A101050719E0C3
:1006B00029E7150025019508750181029501750846
:1006C00081010507190029FF150026FF0095067511
:1006D00008810005081901290515002501950575F2
:1006E000019102950175039101C009023B000201CD
:1006F00000A0FA0904000001030101000921110111
:1007000000012244000705810308000109040100DB
:10071000010300000009211101000122B6000705B4
:10072000820320000112010002000000085346016C
:10073000000100010200010C0343006F0072006E13
:100740000065000000100366006F006F0073007406
:100750000061006E000000040309040001010101B2
:10076000010101010102020202020202020203036C
:10077000030303030303040404040404040505053C
:1007800005050606060606070707070708080808FE
:10079000090909090A0A0A0B0B0B0C0C0C0D0D0DAB
:1007A0000E0E0E0F0F0F1010111111121213131441
:1007B00014151516161717181819191A1A1B1B1CB9
:1007C0001D1D1E1E1F202021222223242425262613
:1007D000272829292A2B2C2D2D2E2F303132323348
:1007E0003435363738393A3B3C3D3E3F4041424351
:1007F0004445464748494A4C4D4E4F505153545535
:100800005658595A5B5D5E5F616264656668696BE4
:100810006C6D6F7072737577787A7B7D7E80828362
:100820008587888A8C8E8F91939596989A9C9EA0A6
:10083000A2A3A5A7A9ABADAFB1B3B5B7BABCBEC0B3
:10084000C2C4C6C9CBCDCFD1D4D6D8DBDDDFE2E47C
:10085000E7E9EBEEF0F3F5F8FAFDFF00DA0281FFCD
:10086000D9F1DB20A4A62EAF00A0C0D30000A1C800
:10087000D30000AED580A81F408D14200080818257
:10088000838485868788898A8B8C8D8E8F909192C0
:100890009394A0A1A2A3A4A5A6A7A8A9AAABACAD16
:1008A000AEAFB0B1B2B3B4C0C1C2C3C4C5C6C7C88D
:1008B000C9CACBCCCDCECFD0D1D2D3D4003A002C24
:1008C000206B007800556E646566004D4F555345AA
:1008D0000053594D424F4C530046554E4354494FD7
:1008E0004E5300544F47474C45204E4156004E4111
:1008F0005649474154494F4E004E554D424552537B
:100900000051574552545900434F4C454D414B00FF
:100910004C617965723A20002B0014001A290926CF
:1009200013000500292104281524162117220A275F
:100930002D141D001B2C06250733192F0000000065
:1009400000002B452C4328422F0033001C39183659
:100950000F000D00343112380C24083111321027E9
:1009600032325400373C36250B330E2F0000000086
:10097000000024522A464C472B0014001A0008009D
:1009800015001700292104001600070009000A00BD
:10099000E1001D001B00060019000500000000001A
:1009A00000002B452C0028422F00130012000C00E1
:1009B00018001C00343133380F240E310D320B0077
:1009C00032325400370036001000110000000000E1
:1009D000000024522A464C472B001E001F00200016
:1009E000210022006252E300E200E000E100000783
:1009F000E1001D011B0106010701000F00000000BE
:100A0000000025522C43280038002700260025002E
:100A1000240023002D00360223002200210036008E
:100A20001F02370220001F001E00370000000000D8
:100A3000000038442746270200001E021F14090147
:100A400013010505000004281524162117220007AC
:100A5000E1001D011B010601070119010000000052
:100A6000000000000000000038002E004D004B0088
:100A70004E004A002D0036024F0052005100500037
:100A80001F0237020000A900AA00000000000000B9
:100A9000000038003802270230141E021F142514EB
:100AA00026142002201423022114250226022202E9
:100AB000210264143002640064023202000000006B
:100AC0000000390067526252000000004D004B00E8
:100AD0004E004A00000000004F005200510050003C
:100AE000E50000000000A900AA00000000000000CE
:100AF00000000000000000001B700000000000006B
:100B0000000000001C70E300E200E000E100005281
:100B1000207823782578277821780152000000007A
:100B2000000000000000000038002E0042004100DC
:100B3000400045002D0036023F003E003D004400CD
:100B40001F0237023C003B003A0043000000000057
:100B5000000039002A004C0030141E021F14251416
:100B60002614200220142302211425022602220228
:100B700021026414300264006402320200000000AA
:100B800000002C002C0028000000000000000000E5
:100B9000000000000000E300E200E000E1000000CF
:100BA000E500000000000000000000000000000060
:100BB00000000000000000002B000000DB00CD0062
:100BC000DC00000067520000CF00CE00D000000023
:100BD00000000000D200DA00D90000000000000090
:100BE00000002C00D100D200000000004F082B01B3
:100BF0002B0350080000E3004F24523151325000C3
:100C0000DF00DE00DD00D200D100000000000000A7
:100C100000000000000000002020202061626364CA
:100C200065666768696A6B6C6D6E6F7071727374FC
:100C300075767778797A31323334353637383930DA
:100C4000524542545F2D3D5B5D5C233B27602C2E5B
:100C50002F20202011241FBECFEFDAE0DEBFCDBF52
:100C600013E0A0E0B1E0E2EAF6E602C005900D92E2
:100C7000A434B107D9F727E0A4E4B3E001C01D9282
:100C8000A13EB207E1F70E94A1260C94D9320C9440
:100C900000009C019A9581159F4118F5F901EE27F6
:100CA000F270832F8170B90166277470A9014427FF
:100CB000587034FF0CC08295807FEF2B09F0806262
:100CC000672B09F08064452B69F080680895EF2B4D
:100CD00009F08260672B09F08460452B19F0886069
:100CE000089580E008959093990780939807089558
:100CF00090939B0780939A07089521E030E002C00B
:100D0000220F331F8A95E2F780919A0790919B07F3
:100D1000822B932B0E947806089521E030E002C0D8
:100D2000220F331F8A95E2F72095309580919A071C
:100D300090919B07822393230E9478060895983010
:100D400098F5863088F5E82FF0E086E0989FE00D72
:100D5000F11D11248E2F877041E001C0440F8A9548
:100D6000EAF783E0F695E7958A95E1F7EE0FFF1F26
:100D7000EE0FFF1FE85AF84F20E030E070E051918D
:100D8000DF011197CB01022E02C0969587950A9438
:100D9000E2F7817081958527842385278C932F5FC7
:100DA0003F4F2430310559F70895983078F5863053
:100DB00068F5E82FF0E086E0989FE00DF11D112422
:100DC0009E2F977083E0F695E7958A95E1F7EE0FF1
:100DD000FF1FEE0FFF1FE85AF84F40E050E080E0A1
:100DE000219130E0092E02C0369527950A94E2F74A
:100DF00021703327042E01C0220F0A94EAF7822BB8
:100E00004F5F5F4F4430510559F7089580E00895D2
:100E10008091A1079091A007981301C008958F5F5A
:100E20008770FACF90919C078095892380939C07C7
:100E3000282F277021110DC0891759F090919E0716
:100E400092FF07C08695869586950E948D06109222
:100E50009C0708959091950780919F07982B50913A
:100E600096075523C1F0809141018823E1F08091DC
:100E70009D0787FF18C08DE120E533E040E0F901D0
:100E800060812F5F3F4F61114F5F8150C0F741116B
:100E900010929607952B80917E07809589239091DB
:100EA0007D07892B089585E028E433E0E7CF982F6C
:100EB00090958091950789238093950708957830C0
:100EC000B8F46630A8F48830B0F4E62FF0E096E08D
:100ED000799FE00DF11D112490E3899FE00DF11D34
:100EE0001124EE0FFF1FE85EF64F8591949108954F
:100EF00080E090E0089581E0FCCF803E9105D1F143
:100F0000C8F48133910509F47FC048F48932910512
:100F100009F46FC08A32910509F47DC008958933C0
:100F20009105E1F082389105C9F08533910509F406
:100F30005BC00895843E9105D1F148F4823E91054D
:100F400031F1833E910541F181EE90E00895863EB6
:100F50009105C1F1873E9105E1F1089520919D072A
:100F60002370211165C020919E0723FF14C089E2E0
:100F700090E0089520919D0720FD43C030919E0789
:100F800030FF09C024FF4EC080E090E0089520911A
:100F90009D0722FDF7CF089520919D0722FD45C0B2
:100FA00030919E0730FD44C024FFF5CFEDCF209156
:100FB0009E0721FFF0CF80919D0784FDE5CF87EE4E
:100FC00090E0089520919D0723FFE5CF24FDDCCF1D
:100FD000F6CF20919D0723FD2EC030919E0731FF53
:100FE000E3CF84EE90E0089520919D0725FFD3CFB5
:100FF000BECF20919D0725FD21C020919E0723FF94
:10100000CACF89E390E0089520919D0726FFC3CFC2
:101010008AE290E0089520919D0726FFBCCF81E3EE
:1010200090E0089583EE90E0089582EE90E00895B8
:1010300080EE90E0089586EE90E0089585E390E0DC
:10104000AACF90919D0792FF10C041E0282F2471F4
:10105000243009F040E031E0282F2871283009F0D1
:1010600030E0431711F02CE0822793FF10C041E0DD
:10107000282F2471243109F040E031E0282F287115
:10108000283109F030E0431711F02CE0822730912D
:101090009E0730FF10C051E0282F2171213009F048
:1010A00050E041E0282F2871283009F040E0541723
:1010B00011F029E0822731FF10C041E0282F217173
:1010C000213109F040E031E0282F2871283109F062
:1010D00030E0431711F029E0822794FD877E0895C0
:1010E0001F93CF93DF930E947D07EC01811522E5CA
:1010F000920708F053C0811540E5940708F0DDC061
:10110000803E9105F8F48D3C910508F0AEC0883A18
:10111000910580F4853A910508F099C081309105D8
:1011200021F00497813A910550F4CE01DF91CF91DF
:101130001F910895885A91094B9708F48BC0C0E01D
:10114000D0E0F3CF811550E49507F8F4C11580E2A3
:10115000D80708F0CBC0C83ED10538F3CE019A9528
:1011600081159F4160F78D2F0E942108182FCE0115
:1011700099270E947D07212F30E0322F2227E90195
:10118000CC27DF71C82BD92BD0CF99270E947D07A0
:10119000CC27DF70C82BD92BD06AC7CF803842E567
:1011A0009407C8F5803652E5950708F067C0C0344B
:1011B00082E5D807B0F08C2F86958695877020E25F
:1011C000829FC0011124C37021E030E0A90102C058
:1011D000440F551FCA95E2F7EA01C82BD92BDC68EA
:1011E000A4CFC03252E5D50708F041C08C2F8695B8
:1011F000869520E2829FC0011124C37021E030E077
:10120000A90102C0440F551FCA95E2F7EA01C82B95
:10121000D92BDD688ACF803C52E5950760F48F7149
:10122000C03AD24508F03FC090E0982F8827EC01E3
:10123000C46FD06A7ACF805C9245809708F07FCFE8
:10124000DC2FCC27CC27DF71C06FD06A6ECFA4977C
:10125000D0646BCFC85AD0E0CC0FDD1FCA50DD4F31
:101260000990D881C02DD46460CFD0655ECFCF7196
:10127000D0E0DC2FCC27C16FD06A57CF86958695FA
:10128000877020E2829FC0011124C37021E030E00A
:10129000A90102C0440F551FCA95E2F7EA01C82B05
:1012A000D92BDA6842CF0E942108C82FD0E0DC2F6A
:1012B000CC27CC27DF71D06238CF8F710E942108F4
:1012C00065E0D695C7956A95E1F7CF70D0E0DC2F41
:1012D000CC27282F30E084FF05C054E0220F331FB5
:1012E0005A95E1F7C22BD32BD0691FCF8D2F8F7169
:1012F0000E942108182FCE0199270E947D07212FD7
:1013000030E0322F222722273F71282B392BE90189
:10131000D2CFA0E0B0E0EFE8F9E00C94EB318C0123
:10132000E0909A07F0909B07809198079091990719
:10133000E82AF92ACFE0D0E0CC24C394D12CC6010E
:101340000C2E02C0880F991F0A94E2F78E219F216C
:10135000892B49F4219798F7B12C8B2DCDB7DEB7A7
:10136000E9E00C940732BC2EB8018C2F0E945F0775
:101370000E947008019771F3F0CF0F931F93CF93E2
:10138000FC01858100811181882391F0662381F021
:10139000C8010E948909C82F682FC8010E949F06B2
:1013A000B8018C2F0E945F07CF911F910F91089574
:1013B000C8010E94D506C82FF3CFCF93DF93D82F53
:1013C000C92F0E9489096D2F7C2F0E945F070E9400
:1013D0007008DF91CF910895FC0184818823A1F0EA
:1013E000808191810E94DD09282F92959F7096300F
:1013F00091F060F4925F9F70923030F481E0203F72
:1014000079F030F4283E30F080E004C09A5FF3CFEA
:10141000243FD1F7089581E0283E18F0213FF9CF0D
:101420000895089580E00895F894E82FE295EF700C
:10143000F0E041A18F7021E030E0B90102C0660FF9
:10144000771F8A95E2F7CB01962F9095942391A36D
:1014500092A1892B82A378940895A0E0B0E0E3E301
:10146000FAE00C94EA31E82FF0E0E55AF84F7111F8
:1014700009C0E4918E2F7E2F6E2FCDB7DEB7EAE044
:101480000C940632262F30E0C72FD0E0F491EF2FD6
:1014900086E0829F8001839F100D1124EE24EA9440
:1014A000F12CC801B7010E94CE31AB01220F331FCE
:1014B00065E5649FC001659F900D1124281B390BC1
:1014C000822F880F280FC7018C1B9D0BF89FD0011E
:1014D000F99FB00D11248B2F2C9FB0012D9F700D03
:1014E0001124672F77275701A61AB70AFA9D6001C2
:1014F000FB9DD00C11247D2D5701A21AB108950136
:101500002C9F50012D9FB00C3C9FB00C1124AB2C94
:10151000BB24EA18FB08FE9DE001FF9DD00D1124BD
:1015200043305105C1F00C3F93E0190750F44130AE
:10153000510509F4A1CF4230510589F07E2FED2FDE
:101540009BCF4430510571F046305105B9F3EB2F74
:101550008D2D7F2F91CFED2D7B2F8F2F8DCF7B2F3B
:101560008D2F8ACF7D2FEB2FF8CF982F80912707D3
:10157000882329F081E09B3108F080E0089581E024
:101580009533FACF9C0180E090E0269F812D369F15
:10159000800D911D11240895982FE82F96FDE09558
:1015A0008E2F8F7096FD8F5FE695E695E695E67037
:1015B000F0E0E85FFD4F2181289F202D812D11242F
:1015C00022952F708295807F282B8081820F97FD36
:1015D0008195805808950F931F93522F10E0F801C2
:1015E000EE0FFF1FE65EFD4FA1A9A052BB0B9D01B0
:1015F0005203F001539FF00D1124000F111FD80169
:10160000A65BBD4F2C912057330B4203D001439F63
:10161000B00D11249F012A0F3B1F37FF02C0215C30
:101620003F4F96E0359527959A95E1F7620F1F9108
:101630000F91089550E0FA01EE0FFF1FE65EFD4F97
:1016400031A9440F551FFA01E65BFD4F9081931BB2
:10165000692F660F690F313210F0620F0895621B17
:101660000895EF92FF920F939701201B31092F3FAE
:10167000310519F010F02FEF30E0322F3095482F60
:10168000430F08F44FEF842F620F0F91FF90EF90FC
:1016900008950E94990B0895FF920F931F93CF9383
:1016A000DF93182F062FF42EC0E0D0E02F2D402F0F
:1016B000612FCE010E94490B2196C633D105B1F7A7
:1016C000CDB7DEB7E5E00C940B329BE0899F802D0F
:1016D0001124980F973308F096E3209127072111E2
:1016E00004C08B3128F48BE108959C3108F09BE114
:1016F0000895EDE8F7E0248130E1230F08F42FEF9F
:10170000248380918C07816080938C070895EDE895
:10171000F7E0248130E1231B08F420E0248380914A
:101720008C07816080938C070895539A109240042F
:101730000895FC0180912707811123C0EB31F10549
:101740001CF17B97CF01880F991FDC01AE0FBF1FE3
:10175000A256BC4F11963C911197361307C03C918D
:10176000341304C012963C91321771F031E030937B
:101770004004E80FF91FE256FC4F61834083228347
:1017800003C0EB31F105F4F20895FA01882311F05A
:1017900009950895FB01FCCFFC0185818623811109
:1017A0000AC082818823B9F06823918593FF05C020
:1017B00081E061110FC080E00895282F22952F70DD
:1017C0008F70282B962F92959F706F70962B81E0CB
:1017D0002913F1CF089581E0FDCF282F35EB2303A6
:1017E000C001112497FF04C080589109892F0895E2
:1017F00080589F4FFBCF8091720780FD16C081FDFE
:1018000016C082FD18C080917107882391F0803442
:1018100090F428E1829FC001112426E095958795D8
:101820002A95E1F7009749F0089586E008958CE045
:10183000089588E0089588E1089581E008958091F1
:10184000720780FD17C081FD17C082FD19C080910D
:101850007007882399F0883298F428E0829FC001AD
:10186000112468E270E00E9425326115710551F083
:10187000862F089562E0FCCF64E0FACF61E0F8CFF4
:1018800068E0F6CF81E0089580912607882359F01B
:10189000E0914E07F0914F07309729F00190F081C9
:1018A000E02D0995089580E00895A3E0B0E0EBE510
:1018B000FCE00C94F2319C0180919C0390919D037B
:1018C00082179307A1F030939D0320939C03E0912E
:1018D0004E07F0914F07309751F083E089833B83A7
:1018E0002A830084F185E02DCE0101960995239687
:1018F000E2E00C940E32A3E0B0E0E1E8FCE00C94EE
:10190000F2319C0180919A0390919B038217930777
:10191000A1F030939B0320939A03E0914E07F0913E
:101920004F07309751F084E089833B832A830084FA
:10193000F185E02DCE01019609952396E2E00C9405
:101940000E32909141019923C1F090919D0797FF2C
:1019500014C0E82FE695E695E695803FF8F4F0E0B0
:10196000E25BFC4F877021E030E001C0220F8A95D6
:10197000EAF78281822B82830895A8E4B3E0EFEF37
:1019800090E02D91821751F0EF3F19F4211101C021
:10199000E92F9F5F9630A9F7EF3F09F408950E2EC7
:1019A000000CFF0BEA5BFC4FE6CF909141019923BD
:1019B000E1F090919D0797FF18C0E82FE695E69516
:1019C000E695803FF0F4F0E0E25BFC4F877021E0A9
:1019D00030E0A90102C0440F551F8A95E2F7CA0101
:1019E00080959281892382830895E8E4F3E09191C0
:1019F000891303C0DF0111971C9253E0EE34F50701
:101A0000B1F70895A4E0B0E0E8E0FDE00C94F23115
:101A10008FB7F894209196033091970340919803E3
:101A20005091990329833A834B835C838FBF6981EB
:101A30007A818B819C812496E2E00C940E32A4E0A2
:101A4000B0E0E5E2FDE00C94F231809126078823B6
:101A500071F00E94020D69837A838B839C83698174
:101A60007A818B819C812496E2E00C940E320E9454
:101A7000020D69837A838B839C83809128079091E0
:101A80002907A0912A07B0912B0729813A814B8120
:101A90005C81280F391F4A1F5B1F29833A834B83C0
:101AA0005C83DDCFA4E0B0E0E8E5FDE00C94F0312C
:101AB000462F572FBC012FB7F89480919603909131
:101AC0009703A0919803B09199032FBF8C019D01BA
:101AD000041B150B260B370BC901B8012496E4E053
:101AE0000C940C32A6E0B0E0E8E7FDE00C94EE3197
:101AF0007C010091840710918507209186072E8331
:101B0000809187078D83B801822F9D810E94520D9D
:101B1000643F71408105910518F10E94020D8B010F
:101B20008E839D8382E390E0A0E0B0E00093BD044B
:101B30001093BE042E812093BF042D812093C004F6
:101B40008093B9049093BA04A093BB04B093BC04EF
:101B5000E0928207F09283072696E6E00C940A3220
:101B600084EF91E0A0E0B0E0E1CF8091950308958B
:101B7000FC019B0180918B0390918C038617970742
:101B800040F0672B29F48091E8008E778093E8007D
:101B9000C90140E0009741F4411106C08091E8007E
:101BA00082FF2FC080E0089520917E042223A9F1B6
:101BB0002530A9F12091E80023FD2DC02091E800F7
:101BC00022FDECCF2091E80020FFE4CF3091F3001C
:101BD0002091F200009719F02830310558F041E0CB
:101BE0002830310509F040E02091E8002E7720935D
:101BF000E800D0CF41914093F10001972F5F3F4F14
:101C0000E9CF80917E04882341F0853041F08091B6
:101C1000E80083FFC3CF81E0089582E0089583E068
:101C200008958091850387FF13C08091E80082FFAB
:101C300006C08091E8008B778093E80004C0809113
:101C40007E048111F2CF089580917E048823D9F318
:101C50008091E80080FFF8CF8091E8008E77ECCF8C
:101C60002091E4003091E50095E6A9018091EC0017
:101C70008170882331F08091E80080FF06C080E009
:101C800008952091E80022FD1BC080917E048823E6
:101C900091F0853091F08091EB0085FD10C020918E
:101CA000E4003091E5004217530701F39150911180
:101CB000DCCF84E0089582E0089583E0089581E018
:101CC0000895E8EDF0E080818E7F80831092E2003D
:101CD0001092DA001092E100A0EEB0E08C918160E9
:101CE0008C9380818F77808319BCA7EDB0E08C91B5
:101CF0008E7F8C9380818F7E8083109284030895E1
:101D000090918D079370992371F080938E07609363
:101D10008F07493708F048E74093900780918C0778
:101D2000816080938C070895EDE8F7E0818190E071
:101D30004381628108960E94800E0895EDE8F7E0E5
:101D40008181438162818850990B0E94800E0895A1
:101D5000EDE8F7E0628120E1620F08F46FEF818126
:101D6000438190E00E94800E0895EDE8F7E06281E3
:101D700020E1621B08F460E08181438190E00E94D1
:101D8000800E0895EDE8F7E0438120E1420F08F46A
:101D90004FEF8181628190E00E94800E0895EDE80E
:101DA000F7E0438120E1421B08F440E08181628139
:101DB00090E00E94800E0895FC01AC014C5F5F4FE3
:101DC0008FEF91E32191822728E030E087FF0BC05D
:101DD000880F89272150310921153105B9F7E417FA
:101DE000F50781F70895880FF5CF90918D079370CF
:101DF000992391F0873008F086E0880F880F909142
:101E00008D079370892B80938D07109244018091E8
:101E10008C07816080938C07089580918D0786954B
:101E200086958F5F873008F081E00E94F50E089557
:101E300090918D07969596958FEF890F913009F4C3
:101E400086E00E94F50E0895982FE42FE27090939B
:101E5000E900891308C0762F242F50E0E11111C04A
:101E600091E0980FF4CF7091EC002091ED0050912B
:101E7000F00021FD06C09F5F973049F78093E9008D
:101E800008953091EB003E7F3093EB003091ED00F0
:101E90003D7F3093ED003091EB0031603093EB00EB
:101EA0007093EC002093ED005093F0002091EE0031
:101EB00027FDE1CF0895A0E0B0E0E1E6FFE00C945B
:101EC000EC31C8EDD0E088818F7E8883E7EDF0E0CB
:101ED00080818160808384E082BF81E0809384037D
:101EE00088818E7F888302EE10E0F80110821092C4
:101EF000DA0081EEC82ED12CF601108288818F770E
:101F0000888388818068888388818F7D888319BCD5
:101F100010927E041092830310927D04109282032B
:101F200090EEE92EF12CF70180818B7F80838881F0
:101F30008160888342E060E080E00E94240FF60127
:101F400080818E7F8083F8018081816080838081A1
:101F500088608083F70180818E7F808388818061A3
:101F60008883CDB7DEB7E8E00C940832E091A10792
:101F70009091A00727E0E91302C080E00895AE2FFA
:101F8000B0E02E9FF0011124EE55F84F3181361349
:101F900006C03081381303C03581341304C0FD01FD
:101FA0003196E770E8CF81E008958091400488235E
:101FB00039F13BB1377F2BB128604FB7F8948EE9E8
:101FC00093E0FC010196508168E02BB9000000C04D
:101FD00057FF3BB9550F000000C000C000C03BB91F
:101FE00000C06A9591F754E08034950751F74FBFD0
:101FF0008FE594E00197F1F700C0000010924004D3
:1020000008950F931F93CF93DF93EB018A01909173
:102010007E04943079F58093E9008FEF9091E80089
:1020200095FD07C095ED9A95F1F70000815081115B
:10203000F5CF8091E80085FF1DC00E94300E811110
:1020400014C08091E80085FD06C08091E8008E777D
:102050008093E800F2CF88818093F100015011094C
:102060000115110511F02196ECCF8091E8008E77D3
:102070008093E800DF91CF911F910F910895CF9346
:10208000DF93D82FC92F48E050E0682F792F81E0E7
:102090000E94011088E0ED2FFC2FADE8B3E0019025
:1020A0000D928A95E1F7DF91CF910895BC0140E24E
:1020B00050E082E00E9401100895BC0146E050E02B
:1020C00082E00E9401100895BC0143E050E082E0EC
:1020D0000E9401100895A0E0B0E0E1E7F0E10C9467
:1020E000EA31F82EE92EB62EA72E8A0180918003C0
:1020F000CC24C394D12C8A3018F48AE0C82ED12C79
:10210000C1E0D0E06B2D7A2D8F2D9E2DF801099521
:10211000811116C02196CC16DD0694F0CC9FC0012B
:10212000CD9F900D900D112420E030E045E34A95BD
:10213000F1F700002F5F3F4F28173907B9F7E2CFBB
:10214000CDB7DEB7EAE00C94063290919E0792FB81
:10215000222720F9281779F080FB92F990939E07A7
:1021600060919D0770919E0784E090E00E94D332B9
:1021700082E00E941207089580914101882359F15D
:1021800080919D0787FF27C00E942A0780934F03F5
:1021900040E250E06EE277E08EE493E00E946A3223
:1021A000892BC1F080E2EEE4F3E0AEE2B7E001900B
:1021B0000D928A95E1F7E0914E07F0914F07309725
:1021C00049F086E080934E030480F581E02D8EE493
:1021D00093E0099508950E942A078093460348E0FA
:1021E00050E060E577E086E493E00E946A32892B54
:1021F00089F388E0E6E4F3E0A0E5B7E001900D9212
:102200008A95E1F7E0914E07F0914F07309711F36F
:102210000280F381E02D86E493E0DBCF882339F060
:1022200090919507892B809395070E94BC10089583
:10223000882321F00E9457070E94BC10089588232C
:1022400039F090919F07892B80939F070E94BC10C3
:102250000895A8E0B0E0EFE2F1E10C94F131809153
:10226000000790910107A0910207B0910307BC01FC
:10227000CD010E94520D11E0643671058105910572
:1022800078F10E941F0DDC01CB010296A11DB11D4A
:1022900089839A83AB83BC8380913201909133010F
:1022A000805F984F20913101422F50E0253010F08F
:1022B00044E050E0BE016F5F7F4F0E94773283E0C1
:1022C00090E00E945931182F882351F00E94020D8E
:1022D00060930007709301078093020790930307B0
:1022E000812F2896E3E00C940D32A6E0B0E0EBE7F6
:1022F000F1E10C94EB318D837B01B42E5E83B90147
:102300006801A8018B2D9E810E946A328C01D70141
:102310008D919D910D90BC91A02DBC01CD010E948D
:10232000520D69837A838B839C83643671058105A2
:10233000910518F40115110539F1BD810B2F0B2EF4
:10234000000C110B88E0B802F0011124E75EFE4F8B
:1023500081819281805F984F2081422F50E0C41686
:10236000D50608F4A6016B2D7E810E947732C80144
:102370000E945931882349F00E94020DD7016D93C4
:102380007D938D939C93139781E02696E9E00C94BE
:1023900007320F931F93AC0104E010E025E137E012
:1023A00064E077E082E00E9475111F910F9108951B
:1023B000A9E0B0E0EEEDF1E10C94F03188E0EDE859
:1023C000F7E0DE01119601900D928A95E1F71986EA
:1023D00009E010E02DE137E0AE014F5F5F4F6CEF99
:1023E00076E084E00E9475112996E4E00C940C32AA
:1023F000EF92FF921F93CF93DF93CDB7DEB729976C
:102400000FB6F894DEBF0FBECDBF7B0180E090E039
:102410000E945931182F81111BC010E080910807CC
:1024200090910907A0910A07B0910B07F7018083EB
:102430009183A283B383812F29960FB6F894DEBFD0
:102440000FBECDBFDF91CF911F91FF90EF90089508
:1024500080911C01482F50E0882311F041E050E0AA
:1024600060911D0170911E01605F784FCE0105964D
:102470000E94773280910C0790910D07A0910E0772
:10248000B0910F07BC01CD010E94520D6E837F8376
:1024900088879987643671058105910538F481E153
:1024A00097E00E94DC0E9D818917B9F181E090E0F0
:1024B0000E945931882309F4B0CF80912401482F1C
:1024C00050E0853010F044E050E0609125017091BB
:1024D0002601605F784FCE0101960E94773281E13C
:1024E00097E00E94DC0E9D81891397CF0E94020D18
:1024F00060930C0770930D0780930E0790930F075E
:1025000089819A81AB81BC818093080790930907E8
:10251000A0930A07B0930B0781CF80911107909188
:102520001207A0911307B091140789839A83AB8394
:10253000BC83E6CFADE0B0E0E0EAF2E10C94E2313A
:10254000609141047091420480914304909144044D
:1025500069837A838B839C8380912607882309F47F
:1025600050C069817A818B819C810E94520D6B01E0
:102570007C010E941F0D282F609341047093420438
:102580008093430490934404A0918704E7E8F4E027
:102590008A2F30E088248A94982CA12CB12C8C1896
:1025A0009D08AE08BF08A31339C0809387048091AB
:1025B0008D07A82FA370A983AA2321F0B82FB69561
:1025C000B695B98330914401323009F4B0C2C8F5F0
:1025D00031113EC01092020160934504709346048D
:1025E000209347049093480489E2E7E8F4E0A3E5E8
:1025F000B4E001900D928A95E1F781E08093440167
:1026000023C00E941F0D6B017C0189819A81AB81DF
:10261000BC81C81AD90AEA0AFB0AABCF418D528D98
:102620002A01612C712C84149504A604B70420F4AB
:1026300081503F5F3296B7CF4C0D5D1D528F418F59
:10264000F8CF333009F47CC22D96E2E10C94FE31D0
:1026500090910101E981E91324C0837090E04091D9
:10266000000150E021E08417950709F420E0822F53
:1026700081708093040180919207909103019817D3
:1026800039F08093030140E060E080E00E944C0B51
:10269000F981F73040F4EF2FF0E0E552FD4C0C9457
:1026A0005B3281E0E5CF809102018F5F8093020170
:1026B00082E0A4CF80910401811107C080910201C2
:1026C0008F5F8093020183E099CF40E060E080E07B
:1026D0000E944C0B809102018F5F8093020182E087
:1026E00080934401809104018111AECFECCF8091A1
:1026F00002010E94650B082F998360918E077091EB
:102700008F07809190070E942D0A6D83F72EE82E87
:1027100010E02981021758F0822F0E94B50A90918B
:1027200002019F5F9093020181118ECFC1CFF8010A
:10273000EA54FD4F8081909103018923882331F071
:102740002E2D4D816F2DC8010E94490B0F5F1F4F29
:10275000E0CF809102010E94650B8D83E92E3091BC
:102760008E07398300918F0710919007632F702F88
:10277000812F0E942D0AD62EC72EB82E8091910748
:102780006981680F702F812F0E942D0A162F072F45
:10279000F82E7D81672F70E07A83698399819E1579
:1027A00010F08E2DBACFE981FA81EA54FD4F808175
:1027B000309103013823332361F02F2D412F602FF7
:1027C00080FD03C02B2D4D2D6C2D89819A810E9497
:1027D000490B89819A8101969A838983DFCF809101
:1027E00002010E94650B8983E92E10918E07A0914A
:1027F0008F07AD830091900760919107669566956C
:10280000669580914504909146040E94C20A0E94F8
:10281000CC0A20E8280F27FD2195220F209F212D8B
:102820001124612F7D81822F0E942D0A162F072FE0
:10283000F82EF981EF2FF0E0FA83E98339813E1514
:1028400008F0AFCFE981FA81EA54FD4F20818091F1
:1028500003012823222339F02F2D412F602F898156
:102860009A810E94490B29813A812F5F3F4F3A8319
:102870002983E4CF809102010E94650B8983D92EC0
:102880006091910766956695809145049091460404
:102890000E94C20A182F80E4810F0E94CC0AB0E87F
:1028A000FB2EF80E812F0E94CC0A90E8C92EC80E8C
:1028B0007981672F70E07A83698399819D1510F083
:1028C0008D2D2BCFE981FA81EA54FD4F80819091C3
:1028D000030189238823A9F060918E0770918F07E7
:1028E00080919007E12E09812C2D4F2D0E94EB0A3B
:1028F0000E942D0A462F672F282F89819A810E94D6
:10290000490B89819A8101969A838983D6CF8091D8
:1029100002010E94650B8983192F809191076AE05B
:102920000E941932682F21E0620F08F46FEF809146
:102930004504909146040E94C20A082FB981AB2F2A
:10294000B0E0BA83A983F981F11710F0812FE5CEA9
:10295000E981FA81EA54FD4F808190910301892336
:102960008823E1F0E981FA81EE0FFF1FE65EFD4F5B
:1029700091A960918E0770918F0780919007202F09
:102980004981913288F00E941A0B0E942D0A462F2D
:10299000272F682F89819A810E94490BE981FA814A
:1029A0003196FA83E983CFCF0E941A0B0E942D0A39
:1029B000462F672F282FEECF5090530421E0352D5E
:1029C000321B08F430E0332E809102010E94650B27
:1029D0009D83682F70E07D876C87CB01880F991FDE
:1029E000DC01A65EBD4F6D01832D90E0FC013196A8
:1029F000FB87EA878D819C85981708F08ECEEC8541
:102A0000FD85EA54FD4F808190910301892388233D
:102A100009F140908E07F0918F07F983209190077C
:102A200029876A857B856D5A7B4F3B01232C10E0FB
:102A30002514D0F02985129F112D1124642D798140
:102A4000812F0E942D0A462F672F282F8C859D8568
:102A50000E94490B6C857D856F5F7F4F7D876C87FA
:102A600072E0C70ED11CC6CFD3018D913D01F60196
:102A7000A0A8A81ABB0881A817968C91881A990853
:102A8000AA9CC001AB9C900D900D1124889C9001D4
:102A9000899C300D300D1124820F931F082F823036
:102AA000910524F14FEF813EFEE19F073CF4AC011C
:102AB00075E0569547957A95E1F7485F51E0652FA7
:102AC000640F7727771F9B0135952795022F229F4B
:102AD000B001239F700D700D11248617970710F514
:102AE0004FEF420F451758F70FEF050F6091910711
:102AF00071E0670F08F46FEFF301EE0FFF1FE3556E
:102B0000F440858996890E94C20A7C019401A5013E
:102B1000642D7981812F0E94310B462E7983182FE5
:102B2000239486CF2F3F11F351E0520FDBCFA981C1
:102B3000A09301018370809300010E94D50FC3CD43
:102B400080918C07882351F048E050E067E170E005
:102B50008DE897E00E94A53210928C0760914504A1
:102B600070914604809147049091480469837A8368
:102B70008B839C8380912607882391F069817A81D9
:102B80008B819C810E94520D462F572FBC014031F2
:102B900051056105710508F457CD1092440154CDDB
:102BA0000E941F0DAB01BC0189819A81AB81BC8160
:102BB000481B590B6A0B7B0BEACFAB0124E630E0D4
:102BC000BC0188E70E94702F9C0181E0232B09F053
:102BD00080E008958091F606882369F08091F306DD
:102BE000882349F062E070E08EEA90E00E94DD15F3
:102BF00081111092F3060895A4E0B0E0E2E0F6E15E
:102C00000C94F2318091F6068823F9F00E94020DAF
:102C1000DC01CB01805A9541AF4FBF4F8093EF0647
:102C20009093F006A093F106B093F2068091F3061C
:102C300081110BC062E070E08CEA90E00E94DD152B
:102C4000882319F081E08093F3062496E2E00C9447
:102C50000E32CF93DF93682F81E06A3019F06D3028
:102C600031F480E00E94A916DF91CF910895809100
:102C7000C1049091C20426E0FC01AAE7B3E00190F0
:102C80000D922A95E1F7603E08F458C026E0FC0159
:102C900011922A95E9F7C091C104D091C20446E08F
:102CA00050E0BE018AE793E00E946A329E012B5EEB
:102CB0003440892B41F1C90145E0969587954A95A5
:102CC000E1F741E050E0BA0102C0660F771F8A9534
:102CD000E2F7CB016091ED067091EE06862B972B03
:102CE000B9016B5F7F4FE5E076956795EA95E1F76F
:102CF00002C0440F551F6A95E2F7842B952B9093E1
:102D0000EE068093ED062A5F3F4F4091C304642F87
:102D100070E0C9010E94CE31481B463010F4240FE8
:102D2000311D211572E0370710F020E030E0255109
:102D30003B4F3093C2042093C10496CFF6E06F9FBF
:102D4000B001112460557F4F46E050E00E9461328F
:102D5000A2CFCF93382FE091C104F091C204EB5E73
:102D6000F4402091C304622F70E0CF010E94CE3165
:102D7000281B822F332361F066E00E941932C82F8E
:102D8000C15010F4CF91089580E20E942916F8CF27
:102D90009F01280F311D2115324018F080E0E0E03E
:102DA000F0E08E0F9F2F911D85519B4F9093C20491
:102DB0008093C104E7CFCF93DF93EC01FE018491B0
:102DC000811103C0DF91CF9108950E9429162196A9
:102DD000F5CF0E94DB1681E00E94A91608951F928C
:102DE0001FB61F9211248F939F93AF93BF9380912F
:102DF0007C04811113C08091960390919703A09158
:102E00009803B09199034196A11DB11D809396033B
:102E100090939703A0939803B0939903BF91AF91B8
:102E20009F918F911F901FBE1F9018952FB7F894F8
:102E30008091960390919703A0919803B091990384
:102E40002FBF08950E9416172091750730917607BD
:102E5000232B222321F08093F9069093FA062091E8
:102E6000770730917807232B222321F08093F706F0
:102E70009093F806E0914E07F0914F07309749F094
:102E800082E0809373070680F781E02D83E797E067
:102E900009950895662309F44BC0E3E3E80FE33195
:102EA00050F4F0E0EE51FD4C0C945B320E94FB0BB1
:102EB0008195809376070E94221708950E94FB0B4C
:102EC000F8CF0E94FB0B819580937507F4CF0E9489
:102ED000FB0BFACF0E941F0C80937707ECCF0E9468
:102EE0001F0C8195F9CF0E941F0C81958093780764
:102EF000E2CF0E941F0CFACF815D990B21E030E0F8
:102F000001C0220F8A95EAF780917407822B809383
:102F10007407D1CF80917207816080937207CBCF05
:102F2000809172078260F9CF809172078460F5CF3B
:102F3000409175078D3C59F48091760787FF0DC04D
:102F400010927607442359F41092710708C08E3C02
:102F500081F48091760718169CF3442381F08091C8
:102F6000770790917807892B8111A5CF1092700770
:102F7000A2CF8F3C41F447FFF0CF109275078091AC
:102F800076078823E0CF803D19F41416B4F3E5CF1B
:102F900090917707893D29F41916FCF6109277076E
:102FA000DCCF8A3D19F497FFD8CFF8CF90917807FE
:102FB0008B3D29F497FFD1CF10927807CECF8C3D6F
:102FC00019F41916CCF3C9CF9FE2980F983090F4FA
:102FD000815D990B21E030E0B90102C0660F771FD7
:102FE0008A95E2F7CB0180959091740789238093AD
:102FF0007407B3CF8D3D31F4809172078E7F80933B
:103000007207ABCF8E3D21F4809172078D7FF7CF91
:103010008F3D09F0A2CF809172078B7FF0CFCF93C5
:10302000C82F8823B1F18CEF8C0F813AA0F58091E5
:103030004101882301F180919D0787FF1CC0EC2F7F
:10304000E695E695E695F0E0E25BFC4F828190E044
:103050004C2F477021E030E002C0220F331F4A9509
:10306000E2F782239323892B79F08C2F0E94D50CD1
:103070000E94BC1009C0E8E4F3E08191C817A9F3ED
:1030800023E0EE34F207C9F78C2F0E94A10C0E94B6
:10309000BC10CF91089580E28C0F883068F4C7701F
:1030A00081E090E001C0880FCA95EAF7C0919507CA
:1030B000C82BC0939507EBCF8BE58C0F833038F48A
:1030C0002C2F2452330BC9010E94550CE2CFE8E5A6
:1030D000EC0FEB3150F4F0E0EE0FFF1FEA50FD4F24
:1030E000808191810E947B0CD4CF83E38C0F83314C
:1030F00080F661E08C2F0E944A17CBCF882381F1A4
:103100009CEF980F913A28F40E94D50C0E94BC10B5
:10311000089590E2980F983050F4877091E001C0C4
:10312000990F8A95EAF7892F0E945707EFCF9BE501
:10313000980F933028F480E090E00E94550C089599
:1031400098E5980F9B3128F480E090E00E947B0C7A
:10315000089593E3980F933118F460E00E944A17A2
:1031600008951F93CF93DF93182FA0918007B091FC
:103170008107109709F44AC01092830710928207C2
:1031800010927E0710927D071796CD91DC911897CB
:10319000CE019A9581159F4108F4D07ED1E0C111EE
:1031A00001C0D0E01A96ED91FC911B97309731F059
:1031B0001C966D917C9180E00995D823DD2339F030
:1031C0008CEF8C0F813A30F58C2F0E94D50C112397
:1031D000A9F0E0918007F0918107818584FD0EC000
:1031E00080917F07882351F0808191819C0121503B
:1031F00031092F333E4710F40E94720D0E94BC101B
:10320000109281071092800710927F07DF91CF9173
:103210001F9108950E94BC108C2F0E947E18D7CF5A
:103220001092950780914101882339F180919D0783
:1032300087FF23C0E0E5F3E08EE1DF011D928A9570
:10324000E9F780E090E00E94550C80E090E00E9459
:103250007B0C10929F070E94BC1086E0E3E7F7E02A
:10326000DF011D928A95E9F710927107109270079D
:10327000109272070E9422170895E8E4F3E086E0B6
:10328000DCCF0E9410192FEF84E39CE02150804096
:103290009040E1F700C0000088E19AE00FB6F89492
:1032A000A895809360000FBE90936000FFCFAAE2C4
:1032B000B0E0EDE5F9E10C94F13185E893E0FC0133
:1032C00001962091F100208323E08D389207B9F711
:1032D00080918603893009F456C0C8F4823009F41D
:1032E000B2C0833009F481C0813071F18091E8006F
:1032F00083FFE6C080918503909186039A3008F0A1
:10330000DFC0E92FF0E0EB50FD4C0C945B328A30CB
:1033100009F488C08B3051F780918503813231F7F1
:103320008091890390918A03892B01F78091E800AD
:10333000877F8093E8000E94110E8091870380931D
:1033400041010E941019D2CF80918503813A71F614
:103350008091E800877F8093E800809189039091B5
:103360008A03892B61F060E080E090E070E00E94C9
:10337000B80D8091E8008B778093E800B7CF68E0C4
:103380008DE893E0F3CF80918503813209F0AECFD1
:103390008091890390918A03029708F0A7CF8091CA
:1033A000E800877F8093E8008091E80082FF18C0E2
:1033B0009091F3008091F200029731F48091F10036
:1033C000813011F0863021F48091F10080939503D3
:1033D0008091E8008B778093E8000E94110E86CFE1
:1033E00080917E048111E0CF81CF80918503813A65
:1033F00009F07CCF8091890390918A03892B09F091
:1034000075CF8091E800877F8093E8008091E80085
:1034100080FFFCCF809141018093F1008091E80012
:103420008E77D9CF80918503813209F05FCF80916B
:10343000E800877F8093E8000E94110E8091880346
:103440008093810353CF80918503813A09F04ECF59
:103450008091E800877F8093E8008091E80080FFFA
:10346000FCCF80918103D8CF803889F0823841F534
:10347000809189038F70873018F58093E9008091DF
:10348000EB0085FB882780F91092E90006C0809147
:10349000820390917D04911182609091E800977F62
:1034A0009093E8008093F1001092F1008091E80081
:1034B0008E7723C0811116C080918703813011F16E
:1034C0008091E80083FF0AC08091E800877F8093A5
:1034D000E8008091EB0080628093EB00AA96E3E025
:1034E0000C940D32823061F780918703882389F034
:1034F0001092E9008091E800877F8093E8000E94A5
:10350000110EDECF81E0933009F080E080937D04DE
:10351000EFCF809189038F702FEF280F263080F630
:103520008093E9002091EB0020FFE2CF933031F44B
:103530008091EB0080628093EB00DACF9091EB00FA
:1035400090619093EB0021E030E0A90102C0440FAC
:10355000551F8A95E2F74093EA001092EA008091A5
:10356000EB008860E8CF8111ABCF109187031F7704
:103570008091E3008078812B8093E3008091E800C4
:10358000877F8093E8000E94110E8091E80080FF01
:10359000FCCF8091E30080688093E30083E0111109
:1035A00001C082E080937E048BCF8058823008F087
:1035B00087CF40918703509188034C3D83E05807A3
:1035C00099F583E08A838AE289834FB7F894DE0114
:1035D000139620E03EE051E2E32FF0E050935700D5
:1035E000849120FF03C082958F703F5F8F708A3077
:1035F000C8F0895C90E08D939D932F5F243161F733
:103600004FBF8091E800877F8093E8006AE270E016
:10361000CE0101960E94B80D8091E8008B778093CF
:10362000E8004ECF805DE6CF2091890330918A0378
:10363000852F99278330910509F160F48130910538
:1036400009F472C0029709F03BCF8BE390E0EAEEF9
:10365000F6E029C08132910509F45AC0829709F039
:103660002FCF2115310509F469C02130310509F04A
:1036700027CF86EB90E0E0EFF5E015C0CA0199276F
:103680004130B1F18230910509F43AC0892B09F03B
:1036900017CFE7E5F7E0E4918E2F90E0E7E5F7E05C
:1036A000009709F40DCF2091E800277F2093E800D0
:1036B00020918B0330918C038217930708F49C01AF
:1036C00040E02115310509F03EC041113CC0809118
:1036D000E80082FDA1CF80917E04882309F49CCF6D
:1036E000853009F499CF8091E80083FFF0CF94CF23
:1036F000E5E4F7E0E4918E2F90E0E5E4F7E0D0CF49
:10370000E7E3F7E0E4918E2F90E0E7E3F7E0C8CF3E
:103710002115310571F02130310509F0D1CE89E054
:1037200090E0E5E1F7E0BFCF82E190E0E5E2F7E08D
:10373000BACF89E090E0ECEFF6E0B5CF84E490E01A
:10374000E6EAF6E0B0CF80917E04882309F464CFE6
:10375000853009F461CF8091E80083FD5DCF8091D1
:10376000E80082FDB4CF8091E80080FFAACF90915D
:10377000F3008091F2002115310519F08830910590
:1037800050F041E0089709F040E08091E8008E7722
:103790008093E80096CF44914093F10031962150F8
:1037A00031090196E8CF803809F08ACE8091E8008F
:1037B000877F8093E800809183038093F10076CE29
:1037C00081117ECE10918703123008F079CE80915E
:1037D000E800877F8093E800109383030E94110E16
:1037E000112381F084E080937E0442E061EC81E06B
:1037F0000E94240F42E261EC82E00E94240F80913B
:103800007E045ECE8091E30087FDECCF81E0EBCFBC
:103810009C014FB7F8948091960390919703A091E3
:103820009803B09199034FBF821B930B08950F9398
:103830001F93CF93DF93C62FD42F122F8823A9F085
:1038400060938A070E9416179093790380937803F8
:10385000C77081E001C0880FCA95EAF70E940E1177
:10386000DF91CF911F910F91089580918A0768137E
:1038700038C080917803909179030E94081C8F3A98
:10388000910578F5CD130FC0812F0E940F18812F5D
:103890000E947E18D77081E001C0880FDA95EAF7A0
:1038A0000E941811DDCFC77001E0802F01C0880F82
:1038B000CA95EAF70E94181180E28D0F883050F403
:1038C0008D2F877001C0000F8A95EAF7802F0E9424
:1038D0000E11DACF812F0E940F18812F0E947E18BF
:1038E000BFCFC77081E001C0880FCA95EAF7D8CF73
:1038F000A0E0B0E0EEE7FCE10C94E2318C01DC01E9
:1039000014968C91882309F4C8C061E0C8010E9414
:10391000BD09EC01F80135809C01205E31094901A7
:10392000332009F4BFC0818180937C07808180931C
:103930007B0780E280934201D0937A07C093790796
:10394000CE01905281159042C8F48681803118F4DE
:10395000809143011DC0FE01FF27CD33C8F7E85E0B
:10396000F34FE491E0934201CF35ACE7DA07E9F495
:103970001092430180E00E94B1187EC0CE019054A5
:1039800081159041E8F4968180914301903120F4B3
:10399000882309F485C18AC0FE01FF27CD33C0F713
:1039A000E85EF34FE491E0934201CD35BCE7DB07DD
:1039B00009F078C080914301882309F45AC0D8CF18
:1039C000CE019A9581159F4158F4FE01FF27CD3312
:1039D00008F0BECFE85EF34FE491E0934201B8CF28
:1039E000CE01805A92458097D0F58091430188237B
:1039F00009F4DAC12090970780919507282A8091D1
:103A00009607282A31101FC1809188079091890755
:103A1000C817D90781F4109289071092880710926D
:103A200084071092850710928607109287071092DC
:103A3000830710928207E0918007F0918107309709
:103A400009F078C1F8018581FE01E851FC47E730B3
:103A5000F10508F025C1E150FD4C0C945B32CD33EB
:103A6000D10510F4FE01B6CFCE359CE7D90709F099
:103A70007BCF81E08093430180919C0787708823EE
:103A800061F0D80115968C91882339F080919E07BA
:103A900082FF03C082E00E941207CDB7DEB7E2E1E9
:103AA0000C94FE3180914301882361F220909707A6
:103AB00080919507282A80919607282AE8E08E169B
:103AC000910408F09FCF9E012770332781E090E09A
:103AD00001C0880F2A95EAF7332009F4B1C0282ADB
:103AE000D8018D919C910E94D50621E030E02901FA
:103AF00002C0440C551C8A95E2F7A0908007B09054
:103B000081073CE2632E33E0732EF301E190F190E4
:103B10003F01E114F10409F4B1C0211005C0D7013F
:103B200012968C918111A4C0F70183819481842124
:103B30009521892B09F49CC08185982F977091114C
:103B4000C1C0F8E08F16910408F090C03110C2C0D7
:103B5000F701C080D180CC15DD0509F489C0AE1411
:103B6000BF0409F485C0D7011E96ED91FC913097F2
:103B700021F08081882309F47BC0622DC7010E9457
:103B8000CC0B882309F474C0CC15DD0511F4311079
:103B900005C0C114D10409F0A9C0312C80E00E94F5
:103BA000B118F0928107E092800781E080937F074F
:103BB000F701868180937E0731100DC0CD2859F022
:103BC000808191819C0124503109213A310508F00E
:103BD00096C00E94D50CF701C780D084C6019A9583
:103BE00081159F4110F420EED222BB24B394C6016C
:103BF00001978F339E4708F0B12CD7011A96ED91AB
:103C0000FC911B97309731F01C966D917C9181E06F
:103C10000995B82281E03826BB2079F0F701878129
:103C200090850E94490680937D07C601F8E08F16B3
:103C3000910408F067C00E94720D0E94BC1069C018
:103C4000809528224DCFD0938907C09388070E9482
:103C5000020D609384077093850780938607909385
:103C6000870710928307109282073ACF311032C033
:103C7000A4E4B3E0A615B70509F047CFA114B10439
:103C800009F4E0CEB8E08B16910408F05FC0622D15
:103C9000C5010E94CC0B811103C081E00E94B118C4
:103CA000D80115968C91811195C0C631BCE7DB0710
:103CB00009F069C180918B07811163C189E20E947B
:103CC000D50C29C028E08216910458F4332031F035
:103CD00081FFCECFD701CD90DC9041CF82FFC8CFFE
:103CE00037CF332029F280FFC3CFF4CF80918807EC
:103CF000909189078C159D0509F0BACF4ECF0E948F
:103D00007E1869CF0497813A910540F48C2D0E946A
:103D1000A10C311097CE0E94BC10AECE0E94BC10F8
:103D20008FE39CE90197F1F700C000008C2D0E9401
:103D30000F18EFCF80819181C817D90709F082CE83
:103D400010927F0780E00E94B1187CCEF50180813F
:103D50009181C817D90731F4332091F3818585FD0E
:103D600071CEF0CF332009F46DCE8185F8CF26E2F5
:103D700041EE61EE0E94171C7FCE27E245EE65EE14
:103D8000F9CF26E241EE60EEF5CF27E245EE64EE94
:103D9000F1CF26E241EE62EEEDCF27E245EE66EE90
:103DA000E9CF28E241E0EBCF10928A07C631ECE779
:103DB000DE0709F0F5C3809195078A7A91E08111B9
:103DC00001C090E090938B078111D9C089E20E94D5
:103DD000A10CA1CF10928A07CE019057839730F79C
:103DE00084E090E00E949F3290939E0780939D070D
:103DF000FE01E150F047E232F10520F4EA5FFC4CAD
:103E00000C945B3280919D07816080939D07609147
:103E10009D0770919E0784E090E00E94D3320E943B
:103E200010192ACE80919E07886080939E07EFCF5D
:103E300080919D078260E9CF80919D078460E5CFE6
:103E400080919D078860E1CF80919E078160EDCFD2
:103E500080919E078260E9CF80919D078061D5CFD8
:103E600080919D078062D1CF80919D078064CDCFE6
:103E70000E94101980919D078068C7CF80919D078F
:103E80008C60C3CF80919E078360CFCF80919D07C8
:103E90008E7FBBCF80919E07877FC7CF80919D0784
:103EA0008D7FB3CF80919D078B7FAFCF80919D0792
:103EB000877FABCF80919E078E7FB7CF80919E0783
:103EC0008D7FB3CF80919D078F7E9FCF80919D077F
:103ED0008F7D9BCF80919D078F7B97CF0E9410197C
:103EE00080919D078F7791CF80919D07837F8DCFA4
:103EF00080919E078C7F99CF80919D0782FB9927A7
:103F000090F921E0922790FB82F990FB83F97DCF15
:103F100080919E07982F909591708E7F892B90FBB2
:103F200081F983CF90919D07892F8F7B96FF8064C5
:103F30006CCF0E94101990919D07892F97FB87F9EC
:103F4000805863CF61E08EE090E00E94B5325FCF91
:103F500060E0F9CF90919D07892F8F7E94FF80615B
:103F600054CF90919D07892F8E7F90FF81604DCF18
:103F700090919E07892F877F93FF886056CF85E3B6
:103F800026CF85E39CCE809195078272FE01E05298
:103F9000F847E531F10508F05FC0E85DFC4C0C9492
:103FA0005B3280918D0791E0892780938D07109275
:103FB000440180918C07816080938C075DCD48E13E
:103FC0005FE06DE07FE00E94C50B56CD4DE05FE005
:103FD00068E17FE0F8CF4EE95EE064E97EE0F3CF90
:103FE00044E95EE06EE97EE0EECF45EB5EE068EA34
:103FF0007EE0E9CF48EA5EE065EB7EE0E4CF4FEC9F
:104000005EE062EC7EE0DFCF42EC5EE06FEC7EE0F3
:10401000DACF47E85BE069E77BE0D5CF49E75BE0D3
:1040200067E87BE0D0CF81E00E94F50E25CD83E0EC
:10403000FBCFCB35FCE7DF0708F05FC0C1302CE7D2
:10404000D20709F48EC0C3303CE7D30709F483C01C
:10405000C115DC4709F463C0F8018581E080F18077
:10406000882309F482C0C7010E948909C82F682FDC
:10407000C7010E949F06B7018C2F0E945F070E9414
:104080007008D82FC92FD8011596DC901597169671
:10409000CC90C2942FE0C22280919C078770882325
:1040A00001F1ED2CDD20F1F0892F807F803461F06B
:1040B00080E28D0F8830A8F0892F807E803221F435
:1040C000D23078F0CC2069F080919E0782FF09C041
:1040D00082E00E94120780919C078770EE24E3948F
:1040E0008111E12CEC2FE295EF70C03C08F0A8C0E4
:1040F000F0E0E35CFC4C0C945B32CB359CE7D907D9
:1041000091F1CC35DC4709F0A7CF80919E0782FB67
:10411000882780F991E089270E94A5109DCF0E94F1
:104120001019BFEFE4E3FCE0B150E040F040E1F7EC
:1041300000C0000087E797E790930108809300088C
:1041400088E19AE00FB6F894A895809360000FBEBE
:1041500090936000FFCF6FEF7FEF80E090E00E94D0
:10416000D3320E94411980E0D7CFC7010E94D50603
:10417000C82F81CFBC2FBF70FB2EC03118F0F29436
:1041800090EFF922DD20B9F0FF2069F080E28D0F79
:10419000883010F0D11109C0809195078F29809344
:1041A00095070E94BC108D2F43C080919F078F29D7
:1041B00080939F07F6CF8D2F0E947E18FF2009F471
:1041C0003FC080E28D0F883010F0D11104C08F2DD8
:1041D0000E94570706C0F09480919F078F2180931B
:1041E0009F070E94BC102CC0EC2FEF70FE2EC07FEA
:1041F000C03219F0F29480EFF822DD2349F0D1307B
:1042000009F46CC0DD2009F478C0CC20D1F1CBCF0B
:1042100080919E0782FD31C0DD2069F0FF2039F0DA
:10422000809195078F29809395070E94BC1080E0AC
:104230000E940F1805C080E00E947E18F110C7CFC1
:10424000EE20B1F080919C0780FD12C0D801159638
:104250001C928695869586950E947D06C8010E94CF
:10426000781C80919C078695869586950E948D0680
:1042700060E0C8010E94BD0910CCDD2099F0C1109A
:1042800004C08F2D0E940E11DBCFF1E0CF12D8CFEA
:10429000809196079F2D9823F91691F28F2980938C
:1042A0009607CECFC110CCCF8F2D0E9418119091C0
:1042B00096078F2D8923882329F08F2D80958923B8
:1042C00080939607809197079F2D9823992309F44F
:1042D000B7CFF094F822F0929707B2CFDD2029F003
:1042E00025E02C1508F4ACCFCCCF34E03C1508F415
:1042F000A7CF8F2D0E941811A3CFCC20D1F3D93393
:1043000049F48FEF97EEA3E081509040A040E1F791
:1043100000C000008D2F0E947E1892CF8C2F8695B2
:1043200086958370882369F0813009F089CF8D2FBD
:104330009C2F9370D11002C080E090E00E947B0C13
:104340007FCF8D2F9C2F9370D11002C080E090E022
:104350000E94550C75CF6D2D8D2F0E944A1770CF7E
:104360008C2F8370811142C0D1102FC04D2F4295E8
:1043700046954770440F440F2D2F2F7030E0042EC8
:1043800002C0220F331F0A94E2F780E090E0D4FFCE
:1043900009C08FE090E002C0880F991F4A95E2F7AC
:1043A00080959095C695C695C370C230B1F0C33064
:1043B00089F04091980750919907C13049F0822BBC
:1043C000932B842395230E9473060E94440C38CFBC
:1043D000242B352B822B932BF6CF822B932B2091E2
:1043E00098073091990782279327EDCFDD2091F12F
:1043F000C0FFEBCF4D2F429546954770440F440FB9
:104400002D2F2F7030E0042E02C0220F331F0A948C
:10441000E2F780E090E0D4FF09C08FE090E002C0B6
:10442000880F991F4A95E2F780959095C695C69595
:10443000C370C230C1F0C33099F040919A075091D7
:104440009B07C13059F0822B932B842395230E9424
:104450007806BBCF823008F4B8CFCCCF242B352BD5
:10446000822B932BF4CF822B932B20919A073091A0
:104470009B0782279327EBCFCF70DD2039F08C2F5D
:104480000E947D068D2F0E940E119FCF8D2F0E94BE
:1044900018118C2F0E948D0698CFD23FA1F178F48D
:1044A000D03FC1F0D13F09F447C0DD2009F466C018
:1044B000CC2009F460C08D2F0E940F1886CFD33F07
:1044C00049F1D43FA9F1D110F3CFC11065C08C2FB1
:1044D0008F71E0CFDD20A1F0B4E0BC1508F475CFFA
:1044E000CF7181E090E0FC0102C0EE0FFF1FCA9582
:1044F000E2F780919A0790919B078E279F27A7CF7D
:10450000F5E0CF16EBCF8C2F8F71D110C3CF0E9467
:104510007D065BCF80E090E0DD2009F498CFCF717D
:1045200081E090E002C0880F991FCA95E2F78FCF13
:1045300090919E0792FD06C08C2F8F71DD2009F4AB
:10454000A9CFE5CFDD2061F08C2F8F7192FFDFCFF7
:1045500098E0899F90011124236020939C07D7CF76
:1045600081E00E941207A1E0AC1508F02ECF82E096
:104570000E9412072ACF8C2F8F71C9CFCC2009F44B
:10458000A6CFD93349F4BFEFE7EEF3E0B150E040F6
:10459000F040E1F700C000008D2F0E947E1815CF7B
:1045A000CA35BCE7DB0709F044CD81E0B5CD809189
:1045B000E007803178F48091DF07882359F0E0919B
:1045C000A1072091A0073091DB074091DA0757E05F
:1045D0002E1301C008956E2F70E05E9FF00111242C
:1045E000DF01AE55B84F14968C911497882361F172
:1045F00011968C911197831327C08C91841324C03A
:1046000015968C91159781111FC012968D919C91D2
:10461000A091DC07B091DD078A1B9B0B8F3A9105B7
:1046200098F48091E0078F7080618093E007E855EF
:10463000F84F80818F70806180838AED97E00E94BF
:10464000781C0E9408070895FB013196E770C0CFDF
:10465000ADE0B0E0EEE2F3E20C94E7318C0186E0ED
:10466000F801DE01189601900D928A95E1F7F801A4
:10467000E080F580A280B380C4808AED882E87E038
:10468000982E7090DE07711020C0CC20D9F0FF204A
:1046900009F419C1C8010E94EC09882309F413C167
:1046A00087E0F801D40101900D928A95E1F7F1E0DD
:1046B000CF1206C08091DA079091DB070E94DD09D6
:1046C0000E94D722FF24F39451C0D090DF0780913D
:1046D000DC079091DD079501281B390BDD2009F4DB
:1046E000BAC02F3A310508F090C0CC2059F3909110
:1046F000DB07C1808091E007803108F058C0C91203
:1047000014C09091DA079E1110C0F1104AC08F704A
:1047100080618093E0078AED97E00E94781C809189
:10472000E007F8018683F12C21C0F1103AC040E087
:104730006C2D8E2D0E94B60F40E06C2D8E2D0E94A8
:10474000B60FF82E8111EFCF888599850E94DD097B
:10475000292F22952F70903470F49F702230A0F092
:104760009923B1F0F8019681903190F48F2D2D9618
:10477000EDE00C9403322A5F2F70223068F0C801FC
:104780000E94781CFD2CF2CF992311F0882371F33D
:10479000805E883058F3F3CF803F40F3815F8230F2
:1047A000F9CF8091E00781608093E007BCCFC91208
:1047B00007C09091DA079E1103C0FF2009F46CC076
:1047C000C8010E94EC09882309F47DC0FF2009F488
:1047D0007AC08091E007803278F02091DA0730913A
:1047E000DB073A832983BC82AB827D821E828F8362
:1047F000CE0101960E94781C87E0F801AAEDB7E08F
:1048000001900D928A95E1F75BCF8091E0078031AE
:1048100050F48AED97E00E94781C87E0F401119231
:104820008A95E9F780CFCC2009F44CCF2091DB07A3
:1048300091812913C5CF9091DA079E11C1CFF11054
:10484000BFCF8683C8010E94781C87E0F4011192D3
:104850008A95E9F737CF2F3A3105F8F6CC2009F4DD
:1048600031CFFF2081F19091DB078181981321C026
:104870008091DA078E111DC08091E00780FD10C085
:10488000803170F08683807F803F39F08681982F59
:10489000907F905F8F70892B8683C8010E94781C5F
:1048A00087E0F801AAEDB7E001900D928A95E1F753
:1048B00009CFC8010E94EC0981119ECF8091E007C9
:1048C00081608093E007C8010E94781CFBCEABE1B9
:1048D000B0E0EDE6F4E20C94F1314E8B5F8B688F23
:1048E000798F8A8F9B8F911110929F071D8A86E086
:1048F000FE017696DE011F9601900D928A95E1F7F2
:104900008B89882329F061E0CE010F960E94BD09B2
:1049100087E0FE013F96DE01189601900D928A9580
:10492000E1F7CE0108960E94282381112BC087E071
:10493000FE013896DE01119601900D928A95E1F7FD
:104940002091A0074091A1078C858823D9F030E001
:10495000C90101968770992750E084179507E9F0FF
:1049600097E0929FD001939FB00D1124AE55B84FA0
:10497000FE01319601900D929A95E1F78093A00780
:104980000E94080717E08091A1079091A007891362
:1049900012C06B96E3E00C940D320E941019109235
:1049A000A0071092A10787E0EAEDF7E0DF011D9272
:1049B0008A95E9F7E7CF189FC00111248E55984FCB
:1049C0000E942823882329F38091A10790E0019673
:1049D000877099278093A107D6CFA6E0B0E0E3EFD8
:1049E000F4E20C94F0310E9416178C0180912C0790
:1049F00090912D078017910779F019821A820E94F1
:104A00001617BC0149815A8180E090E00E9467241A
:104A100010932D0700932C072696E4E00C940C329B
:104A2000A0E1B0E0E6E1F5E20C94E7311A821982E8
:104A3000FE01339686E0DF011D928A95E9F780E159
:104A4000A82E82E0B82E8E010F5F1F4F4801EE2482
:104A5000E394F12C2AE1C22E22E0D22EF5018191BD
:104A60005F018F3F09F441C0F894E82FE295EF70A1
:104A7000F0E021A18F70A70102C0440F551F8A9555
:104A8000E2F7CA01922F982B91A392A180958923D6
:104A900082A3789400C0E4E1F2E031E0712C21912E
:104AA0002F3F09F497C0A22FA295AF70A05EB0E08F
:104AB0008C9190E02F7002C0959587952A95E2F72A
:104AC0008170811187C0832F782A330FCE16DF06BD
:104AD00031F7F501319780818F3F11F00E94140A60
:104AE00050EA5A95F1F7D8017C920F5F1F4FB4E15D
:104AF000AB16B2E0BB0609F0B1CF48E050E0B4011C
:104B000089E494E00E946A320091520410E0015856
:104B10001B4F892B09F460C088E0F401A9E4B4E0DC
:104B200001900D928A95E1F781E0809377030E94CE
:104B30001617909376038093750380912607882338
:104B400009F4A3C01A8619861C861B8680918003EF
:104B50008A3008F063C07E01E9E0EE0EF11C48EFF8
:104B600051E1B701C8010E946B106701882309F465
:104B70007AC049EC51E1B701C8010E946B1088234B
:104B800009F471C049E251E1B701C8010E946B10FC
:104B9000882309F468C048ED51E1B701C8010E94BB
:104BA0006B10882309F45FC0109280038091510438
:104BB00090E044E050E0B60181589B4F0E946A3279
:104BC00021E020937403892B09F03FC06096EDE04B
:104BD0000C94033280E078CF80917703882309F426
:104BE000ACCF80917503909176030E94081C0597C5
:104BF00008F4A3CF44E050E069E474E0C8010E94E7
:104C00006A32892B41F084E0E9E4F4E0D8010190B4
:104C10000D928A95E1F7109277038FCF80917203FE
:104C2000909173030E94081C843F914008F093CF39
:104C300080917403882351F2FE01399684E0DF01EC
:104C40001D928A95E9F710927403E0915104F0E007
:104C5000E158FB4F89859A85AB85BC85808391831C
:104C6000A283B383B3CF809180038F3F39F40E9436
:104C700016179093730380937203DACF8F5F80933C
:104C800080038A3008F492CFF2CFE0905104F12CE7
:104C9000F701E158FB4F7F01F80180819181A281EA
:104CA000B3818093110790931207A0931307B093D9
:104CB000140781E197E00E94DC0E80931007809139
:104CC000150790911607A0911707B0911807F701E3
:104CD00080839183A283B383C0901907D0901A0771
:104CE000E0901B07F0901C0780916E0390916F037A
:104CF000A0917003B0917103C816D906EA06FB06AD
:104D0000B1F0C0926E03D0926F03E0927003F09204
:104D100071030E94020DC61AD70AE80AF90AC09266
:104D20002807D0922907E0922A07F0922B0788E003
:104D3000EDE1F7E0ADE8B7E001900D928A95E1F77B
:104D400045CFCDB7DEB762970FB6F894DEBF0FBE82
:104D5000CDBF85B7806885BF85B7806885BF84B7BC
:104D6000877F84BF0FB6F894A89580916000886112
:104D700080936000109260000FBE80E890E00FB654
:104D8000F89480936100909361000FBE82E19AE0F5
:104D900090934503809344030E94610E0E945B0F31
:104DA0008091E20084608093E200789480917E0498
:104DB000882399F08091E9001091EC001795112754
:104DC00017958F70182B1092E9008091E80083FDF1
:104DD0000E9457191F701093E90082E084BD93E090
:104DE00095BD9AEF97BD80936E00109228071092A0
:104DF000290710922A0710922B078091D800806112
:104E00008093D8002AE12A95F1F700C08091D9005B
:104E100080FF42C281E0809326078093270780931A
:104E200005010E946B30809105018091050191E0A0
:104E30008927880F880F8093520494E0981B9093E1
:104E4000510484E90E94140A86E60E94140A87E944
:104E50000E94140A86EC0E94140A04E112E09AE10E
:104E6000C92E92E0D92ED8018D918D018F3F11F07E
:104E70000E94140AC016D106B1F788E0EFE7F4E00B
:104E8000DF01482E1D924A94E9F7E9E4F4E0DF01DE
:104E90001D928A95E9F780E090E00E949F32853E5E
:104EA0009E4F09F461C065EE7EEF80E090E00E94C5
:104EB000D33260E082E090E00E94B53281E090E081
:104EC000909399078093980761E083E090E00E94B7
:104ED000B53260E074E184E090E00E94D33260E09B
:104EE00086E090E00E94B53260E087E090E00E94AA
:104EF000B53240E050E0BA0188E090E00E94C7324D
:104F000060E083E290E00E94B53260E08CE090E0E7
:104F10000E94B53260E08DE090E00E94B5321982C7
:104F20001A821B821C821D821E821F82188648E004
:104F300050E067E170E0CE0101960E94A53240E0AA
:104F400050E0BA018FE190E00E94C73240E050E0AB
:104F5000BA018FE090E00E94C73240E050E0BA0111
:104F600083E190E00E94C73282E090E00E94973295
:104F70008093B00484E090E00E949F3290939E075B
:104F800080939D0783E090E00E94973290E00E941A
:104F900073060E94950B1092530440E150E06FEFAE
:104FA00070E08CE694E00E9480321092870440E129
:104FB00050E06FEF70E080EA94E00E94803281E080
:104FC00080938C0748E050E067E170E08DE897E05F
:104FD0000E94873210928C0780918D078430F8F4FC
:104FE00085E080938D078091450190914601A091C5
:104FF000470180938E0790938F07A09390078FE7C8
:10500000809391078FEF8093920748E050E067E12B
:1050100070E08DE897E00E94A53210928C07809195
:10502000260791E08927880F8093EB0680E880931C
:10503000C3040E94EF2E6BE070E082E798E00E94CC
:10504000DD15882309F443C08091EB0665E070E02C
:1050500081FD2DC18DE698E00E94DD158823B9F110
:105060006DE070E08BE598E00E94DD15882379F112
:105070000E94020D69877A878B879C87DC01CB01B0
:10508000805A9541AF4FBF4F8093EF069093F00643
:10509000A093F106B093F206EBEEF4E080E092E02C
:1050A000DF019C011D9221503040E1F7F093C204D2
:1050B000E093C1048FEF9FEF9093EE068093ED068F
:1050C00081E08093F6068093F3061092EC068091BF
:1050D0002607811102C00E946E3086E091E0909315
:1050E0004F0780934E07CE010196898B9A8B809152
:1050F0007E04853069F410E400E182E1F82E8091AD
:105100007E04853009F4D6C00E9410190E94440C18
:105110000E941025A1EBB4E0BA87A987EFE7F4E07D
:10512000FE87ED87DF01E1EBF4E091918D9119EBC2
:10513000412E14E0512E4E165F0609F4F3C0981765
:10514000A1F320902607AAE1AA2EA2E0BA2ED12C24
:10515000AD85BE85CD90BE87AD87E985FA85319056
:10516000FA87E9873C14B1F13C244501512C4424D1
:105170004394842D8321882309F1142D1C2122209E
:10518000A1F05982DA820E9416179C838B83F1E08A
:10519000FD8391E0111101C090E09E8349815A8105
:1051A0006B817C818D810E9467248091870411111D
:1051B0001BC1FE2C893008F047C1EF2C5394440CDE
:1051C000EFEF8E1A9E0AF6E05F12D3CFE985FA85DB
:1051D0003197C082D39426E0A20EB11C38E0D312DE
:1051E000B7CF0E941F0DF0902607F110A5C00E94B6
:1051F0009A12F090F606FF2009F4F3C08091F406AD
:105200009091F5060E94081CC29708F409C20E94FA
:1052100016179093F5068093F4068BEE94E0909326
:10522000C2048093C10480912607882309F4DCC25C
:1052300080E199E00E94DB1680919A0790919B078C
:10524000292F3327E0E02115310511F0C901E8E0ED
:105250009C01B4E036952795BA95E1F72115310503
:1052600011F0EC5FC9019C0136952795369527957D
:105270002115310511F0EE5FC90196958795892BAF
:1052800009F0EF5F85EC98E0E83008F08BC1F0E0C2
:10529000E75BFC4C0C945B320E94610E10927E0422
:1052A000109226071092270710920501BCCD88E6C0
:1052B00098E0D2CE80917E04843039F10E949A1217
:1052C0000E94EA1510927C0448E150E00FB6F89471
:1052D000A895409360000FBE1093600083B7817F54
:1052E000846083BF83B7816083BF7894889583B7D8
:1052F0008E7F83BF0FB6F894A89580916000886177
:1053000080936000109260000FBE0E941025EFE7AE
:10531000F4E081918111AEC387E894E08E179F0776
:10532000C1F7EDCE98130DCF0E94ED24F090260723
:10533000FF2009F4BCC0F12C009182071091830773
:105340000115110509F444C08091BD049091BE047B
:10535000A091BF04B091C004BC01CD010E94520DC8
:1053600069877A878B879C878091B9049091BA046A
:10537000A091BB04B091BC0449845A846B847C84A2
:10538000481659066A067B0618F1C8010E944906AC
:105390009801205E31092830310508F0FEC00E94D6
:1053A0000E11802F0E940F1810928207109283070F
:1053B0001092BD041092BE041092BF041092C0045B
:1053C0001092B9041092BA041092BB041092BC045B
:1053D0000E949A128091F606811110CFFF2009F4E5
:1053E0006CC00E94FC1569C0D401FC90BFEFFB1695
:1053F00009F4DFCE01E010E0EE24E394883038F5C4
:10540000409187048F2D90E0242F30E0F901E95777
:10541000FB4FDC01AA0FBB1FA65BBD4F5C91518304
:10542000880F991FDC01A65EBD4FD1968C918187B4
:10543000F18AF901EE0FFF1FE957FB4F128E118E13
:105440004F5F40938704B9CE00E010E0E12C78E094
:10545000672E712C601A710AB80168577B4FA3013F
:1054600088E894E00E947732B80160577B4FA3012F
:1054700080E994E00E947732A301440F551FB801E0
:10548000660F771F60567B4F80EA94E00E94773268
:10549000B80168567B4FA30188E994E00E947732F7
:1054A00088E08E1980938704E110AACF86CE0E94EF
:1054B0009A128091F6068111A1CE86E0E3E7F7E02B
:1054C000A989BA8901900D928A95E1F7B090740785
:1054D0000091750710917607D0907707F0907807C4
:1054E000109275071092760710927707109278073E
:1054F000812F802B882371F08091F9069091FA0614
:105500000E94081C9C0180917107811137C2232BD6
:1055100009F03AC28D2D8F29882371F08091F7060A
:105520009091F8060E94081C9C01809170078111DF
:1055300063C2232B09F066C280917407B81216C0AB
:1055400080917507882311F0801310C09091760721
:10555000992311F091130AC020917807211106C0F8
:1055600020917707211102C0892B81110E942217F7
:1055700086E0E989FA89A3E7B7E001900D928A9560
:10558000E1F70E94440C9091FB06891709F4AFCD16
:105590008093FB060E94020DAACD0E941F1101CF2D
:1055A00088E099E00E94E91680917C07805D0E9466
:1055B000291683EC98E00E94DB1680917B07805DC2
:1055C0000E9429168FEB98E00E94DB1680917907E4
:1055D00090917A0720911001309111018217930761
:1055E00009F072C02091CA04203209F06DC0E4ECC9
:1055F000F4E06F0181918032E1F3F6010190002027
:10560000E9F78F0101501109C016D10608F4E6C070
:105610008DEB98E00E94DB16809142010E942916D2
:105620008091ED069091EE06892B99F08091F60617
:10563000882379F08091EC0681110BC00E94FC1543
:105640002091ED063091EE0680E02115310509F03C
:10565000D1C08091F306882309F4C0CE0E94020DC8
:1056600069877A878B879C878091EF069091F006F7
:10567000A091F106B091F20649845A846B847C842F
:10568000481A590A6A0A7B0A2FEF42165206620626
:105690002FE7720608F0A2CE0E94EA159FCE81E0A5
:1056A00099E080CF89EF98E07DCF8EEE98E07ACFB9
:1056B00083EE98E077CF89ED98E074CF81ED98E0A4
:1056C00071CF8BEC98E06ECF909311018093100115
:1056D00020E22093CA049C0140E050E029873A87E9
:1056E0004B875C871092C90479ECC72E74E0D72EE3
:1056F000EAE08E2E912CA12CB12CCA01B901A50192
:1057000094010E9439326D877E878F87988B8D85B3
:10571000805D4D845E846F84788800E010E04528C9
:105720004628472861F568ECC62E64E0D62E8093A3
:10573000C80429873A874B875C8769857A858B857A
:105740009C85A50194010E9439326D877E878F87E1
:10575000988B8D85805D2D853E854F85588901E02C
:1057600010E0232B242B252B51F480E249845A840A
:105770006B847C8445284628472809F080E39AE01A
:10578000892E912CA12CB12CD6018E936D016985A7
:105790007A858B859C85A50194010E9439322987E1
:1057A0003A874B875C870F5F1F4F0530110509F45F
:1057B0001ECFCA01B901A50194010E9439326D873B
:1057C0007E878F87988B8D85805D4D845E846F8406
:1057D0007888452846284728B9F6C7CFD6018D9145
:1057E0006D010E94291610CF8DE798E00E94DB160C
:1057F00017CF8F5F082F10E0CC24C394D12C082E34
:1058000002C0CC0CDD1C0A94E2F7A601422353230C
:10581000452B79F39091EB0690FD43C098013695A6
:10582000279536952795922F8295880F80763FE1B0
:10583000380F809314012093170130931501909332
:10584000180124E630E047E050E062E171E088E7CB
:105850000E94252F892B09F0FCCEA801F5E0440F0A
:10586000551FFA95E1F78091EB0680FD22C0455166
:105870005B4F04E610E020E230E060E488E70E943D
:10588000BD2F892B09F0E5CEC094D0948091ED0610
:105890009091EE06C822D922D092EE06C092ED0673
:1058A000D8CE880F880F880F37E0380F20E093E0BC
:1058B000C0CFEBECF4E080E2DF011D928A95E9F7BE
:1058C000E0EFF2E0FA87E9876CEE72E034EF232E26
:1058D00032E0332EE7E08E2EE985FA85A191FA8732
:1058E000E987FB018191BF01840F952F911D9C01D8
:1058F00025513B4F2901EA2FF0E0E553FB4F80E0B3
:1059000090E0682C681A99249394082E01C0990C91
:105910000A94EAF78201A12CD801BD908D01B9202B
:10592000262D2A19277030E0BB2D022E01C0BB0F97
:105930000A94EAF73195219531092770332701C080
:10594000B6942A95EAF7BB2A20812B292083A394B9
:1059500028E0722EA710E0CF01963196883091058D
:1059600081F629853A852216330609F0B5CF04E67B
:1059700010E020E230E04BEC54E07FCF21313105E4
:1059800008F4C8CD8F3F19F08F5F80937107002313
:1059900059F00E94FB0B9FEF10160CF491E0899FC9
:1059A000802D112480937507112359F00E94FB0B61
:1059B00091E011160CF09FEF899F802D11248093A8
:1059C000760780917507882309F4A4CDC0907607E7
:1059D000CC2009F49FCD0E94ED0B811101C081E024
:1059E000809375078C2D0E94ED0B882319F080930E
:1059F000760790CD81E0FBCF2135310508F49CCDB1
:105A00008F3F19F08F5F80937007DD2059F00E945F
:105A10001F0C9FEF1D140CF491E0899F802D112421
:105A200080937707FF2059F00E941F0C91E01F140C
:105A30000CF09FEF899F802D11248093780780912F
:105A40007707882309F478CDF0907807FF2009F4D0
:105A500073CD0E94ED0B811101C081E08093770727
:105A60008F2D0E94ED0B882319F08093780764CD69
:105A700081E0FBCF80917D04882309F440CB09BDF0
:105A8000F9BC09B400FEFDCF8091D8008F7D8093D2
:105A9000D8008091E00082608093E0008091E00077
:105AA00081FDFCCF0E9410192ACB78941F921FB65B
:105AB0001F9211248F939F93AF93BF93809196036E
:105AC00090919703A0919803B09199030196A11D1D
:105AD000B11D8093960390939703A0939803B0937E
