:100000000C9406060C9423060C9423060C949D2E47
:100010000C9423060C9423060C9423060C942306BC
:100020000C9423060C9423060C94532B0C943B2C19
:100030000C94461A0C9423060C9423060C94230665
:100040000C9423060C9423060C9423060C9423068C
:100050000C9423060C942F2B0C9423060C9423064B
:100060000C9423060C9423060C9423060C9423066C
:100070000C9423060C9423060C9423060C9423065C
:100080000C9423060C9423060C9423060C9423064C
:100090000C9423060C9423060C9423060C9423063C
:1000A0000C9423060C9423060C94230600AF00AE98
:1000B0000000000000003E5B4F5B3E003E6B4F6B5C
:1000C0003E001C3E7C3E1C00183C7E3C18001C5729
:1000D0007D571C001C5E7F5E1C0000183C18000051
:1000E000FFE7C3E7FF00001824180000FFE7DBE785
:1000F000FF0030483A060E00262979292600407F65
:1001000005050700407F05253F005A3CE73C5A00A3
:100110007F3E1C1C0800081C1C3E7F0014227F220E
:1001200014005F5F005F5F0006097F017F000066CB
:1001300089956A0060606060600094A2FFA29400EC
:1001400008047E04080010207E20100008082A1CE5
:100150000800081C2A0808001E10101010000C1EB1
:100160000C1E0C0030383E383000060E3E0E0600E5
:1001700000000000000000005F0000000007000712
:100180000000147F147F1400242A7F2A12002313F6
:10019000086462003649562050000008070300003A
:1001A000001C224100000041221C00002A1C7F1C70
:1001B0002A0008083E080800008070300000080887
:1001C0000808080000006060000020100804020019
:1001D0003E5149453E0000427F4000007249494976
:1001E00046002141494D33001814127F1000274565
:1001F000454539003C4A4949310041211109070070
:10020000364949493600464949291E000000140074
:1002100000000040340000000008142241001414C3
:1002200014141400004122140800020159090600A8
:100230003E415D594E007C1211127C007F494949B4
:1002400036003E41414122007F4141413E007F490D
:10025000494941007F09090901003E4141517300AC
:100260007F0808087F0000417F4100002040413F97
:1002700001007F08142241007F40404040007F027F
:100280001C027F007F0408107F003E4141413E0078
:100290007F09090906003E4151215E007F091929A5
:1002A000460026494949320003017F0103003F40CF
:1002B00040403F001F2040201F003F4038403F008B
:1002C0006314081463000304780403006159494D62
:1002D0004300007F4141410002040810200000411A
:1002E00041417F00040201020400404040404000C0
:1002F0000003070800002054547840007F2844443D
:100300003800384444442800384444287F00385496
:100310005454180000087E0902001824241C780098
:100320007F080404780000447D4000002040403DE8
:1003300000007F102844000000417F4000007C0442
:10034000780478007C080404780038444444380079
:100350007C1824241800182424187C007C08040429
:10036000080048545454240004043F4424003C40F2
:1003700040207C001C2040201C003C4030403C00C1
:100380004428102844004C9090907C004464544CC5
:1003900044000008364100000000770000000041E2
:1003A000360800000201020402003C2623263C001D
:1003B000000000000000000000000000000000003D
:1003C000C0E0F0F8F81800C0F0FCFEFFFFFFFFFFF0
:1003D000FFFF7E00000000000000000080C0E0E0A1
:1003E000E0E0E0E0E0E0C0800000000080C0E0E08D
:1003F000E0E0E0E0E0E0C080000000E0E0C0C0E05D
:10040000E0E0E00000E0E0C0C0E0E0E0E0E0C0806C
:100410000000000080C0E0E0E0E0E0E0E0E0C0805C
:100420000000000000000000000000000000E0F0FC
:10043000F0F0E0ECEEF7F37020007C7C7C7E007E38
:100440007E7E7F7F7F000080C0E07E5B4F5BFEC0D2
:100450000000C000DCD7DEDEDED7DC00C00000001C
:10046000000000000000000000000000000000008C
:10047000000000000000000000F8FCFEFFE000FFAC
:10048000FFFFFFFFFF80FFFFFFFFFFFFFFFFFF1FDB
:100490000701000000000000000000FFFFFF8100D6
:1004A000000000000081C3C3C30000FFFFFF810004
:1004B000000000000081FFFFFF0000FFFFFF0100C0
:1004C0000000000000FFFFFF010000000001FFFF2F
:1004D000FF0000FFFFFF9D1C1C1C1C1C1C9DDFDF80
:1004E000DF000000000000000000000000000F1FFF
:1004F0003F7F7F7F7F7F3F1E0C001F1F1F3F003FFE
:100500003F3F7F7F7F00307B7F7830202030787FB7
:100510003B0003000F7F0F0F0F7F0F000300000051
:1005200000000000000000000000000000000000CB
:10053000000000000000000000030F1F3F3F3F3F8E
:100540001F1F3F3F7F7F7F3F3F1F3F7F7F7F7F7C1E
:100550007878381C0F000000000000000103070736
:10056000070707070707030100000000010307074B
:100570000707070707070301000000070707000038
:100580000000000000070707000000000000070748
:100590000700000001030707070707070707030114
:1005A000000000000000000000000000000000004B
:1005B000000000000000000000000000000000003B
:1005C000000000000000000000000000000000002B
:1005D000000000000000000000000000000000001B
:1005E000000000000000000000000000000000000B
:1005F00005010980A101850319012AB7001501260B
:10060000B700950175108100C0050C0901A1018595
:100610000419012AA002150126A002950175108176
:1006200000C005010906A1018506050719E029E7B3
:10063000150025019508750181020507190029EFAC
:100640001500250195F0750181020508190129059C
:10065000950575019102950175039101C005010988
:1006600006A101050719E029E71500250195087580
:100670000181029501750881010507190029FF15FF
:100680000026FF0095067508810005081901290557
:1006900015002501950575019102950175039101DC
:1006A000C009023B00020100A0FA09040000010396
:1006B0000101000921110100012244000705810305
:1006C00008000109040100010300000009211101D3
:1006D0000001226D000705820320000112010002C3
:1006E00000000008534601000100010200010C0354
:1006F00043006F0072006E0065000000100366008A
:100700006F006F007300740061006E00000004034E
:1007100009040001010101010101010102020202BB
:10072000020202020203030303030303030404049B
:100730000404040405050505050606060606070764
:1007400007070708080808090909090A0A0A0B0B1C
:100750000B0C0C0C0D0D0D0E0E0E0F0F0F101011BB
:100760001111121213131414151516161717181841
:1007700019191A1A1B1B1C1D1D1E1E1F20202122A9
:1007800022232424252626272829292A2B2C2D2DEF
:100790002E2F30313232333435363738393A3B3C0C
:1007A0003D3E3F404142434445464748494A4C4DFF
:1007B0004E4F50515354555658595A5B5D5E5F61C8
:1007C0006264656668696B6C6D6F7072737577785B
:1007D0007A7B7D7E8082838587888A8C8E8F9193B9
:1007E0009596989A9C9EA0A2A3A5A7A9ABADAFB1E0
:1007F000B3B5B7BABCBEC0C2C4C6C9CBCDCFD1D4C5
:10080000D6D8DBDDDFE2E4E7E9EBEEF0F3F5F8FA6A
:10081000FDFF00DA0281FFD9F1DB20A4A62EAF0094
:10082000A0C0D30000A1C8D30000AED580A81F404F
:100830008D142000808182838485868788898A8BB5
:100840008C8D8E8F9091929394A0A1A2A3A4A5A623
:10085000A7A8A9AAABACADAEAFB0B1B2B3B4C0C19A
:10086000C2C3C4C5C6C7C8C9CACBCCCDCECFD0D1F0
:10087000D2D3D4003A002C206B007800556E64650A
:1008800066004D4F5553450053594D424F4C530050
:1008900046554E4354494F4E5300544F47474C45DD
:1008A000204E4156004E415649474154494F4E0053
:1008B0004E554D42455253005157455254590043ED
:1008C0004F4C454D414B004C617965723A20002EEA
:1008D0000214001A290926130005002921042815ED
:1008E00024162117220A27E1001D001B2C062507CC
:1008F00033192F0000000000002B452C4328422F05
:100900000033001C3918360F000D00343112380C3A
:1009100024083111321027E5005400373C36250BEE
:10092000330E2F00000000000024522A464C472BB3
:100930000014001A000800150017002921040016F1
:1009400000070009000A00E1001D001B0006001955
:100950000005000000000000002B452C0028422F5D
:1009600000130012000C0018001C00343133380F43
:10097000240E310D320B00E5005400370036001014
:1009800000110000000000000024522A464C472BB2
:10099000001E001F002000210022006252E300E23E
:1009A00000E000E1000007E1001D011B0106010756
:1009B00001000F00000000000025522C43280038E1
:1009C00000270026002500240023002D00360223E6
:1009D000002200210036003200370220001F001ED6
:1009E00000370000000000000038442746270200BE
:1009F000001E021F1409011301050500000428153B
:100A000024162117220007E1001D011B0106010722
:100A10000119010000000000000000000000003883
:100A2000002E004D004B004E004A002D0036024FB4
:100A300000520051005000320037020000A900AA05
:100A400000000000000000000038003802270230DB
:100A5000141E021F14251426142002201423022120
:100A6000142502260222022D14641430026400644C
:100A7000023202000000000000390067526252009A
:100A80000000004D004B004E004A00000000004FE7
:100A900000520051005000E50000000000A900AA2B
:100AA0000000000000000000000000000000001B2B
:100AB00070000000000000000000001C70E300E275
:100AC00000E000E100005220782378257827782183
:100AD0007801520000000000000000000000003813
:100AE000002E0042004100400045002D0036023F2C
:100AF000003E003D004400320037023C003B003A1B
:100B000000430000000000000039002A004C0030C3
:100B1000141E021F1425142614200220142302215F
:100B2000142502260222022D14641430026400648B
:100B30000232020000000000002C002C00280000FF
:100B400000000000000000000000000000E300E2E0
:100B500000E000E1000000E50000000000000000EF
:100B60000000000000000000000000000000002B5A
:100B70000000000000CD000000D9006752DB00CF6C
:100B800000CE00D000DC00000000000000000000EB
:100B900000DA000000000000002C00D100D20000AC
:100BA0000000002B014F0450042B030000E3004F12
:100BB00024523151325000DF00DE00DD00D200D17E
:100BC00000D3000000000000000000000000002032
:100BD0002020206162636465666768696A6B6C6D7A
:100BE0006E6F707172737475767778797A3132338B
:100BF00034353637383930524542545F2D3D5B5DD0
:100C00005C233B27602C2E2F2020200011241FBEA8
:100C1000CFEFDAE0DEBFCDBF13E0A0E0B1E0E6E168
:100C2000F2E602C005900D92A432B107D9F727E091
:100C3000A4E2B3E001C01D92A13BB207E1F70E941C
:100C400059250C94AF300C9400009C019A958115A5
:100C50009F4118F5F901EE27F270832F8170B901D9
:100C600066277470A9014427587034FF0CC0829520
:100C7000807FEF2B09F08062672B09F08064452BA1
:100C800069F080680895EF2B09F08260672B09F006
:100C90008460452B19F08860089580E00895909352
:100CA000690780936807089590936B0780936A079C
:100CB000089521E030E002C0220F331F8A95E2F749
:100CC00080916A0790916B07822B932B0E945406A8
:100CD000089521E030E002C0220F331F8A95E2F729
:100CE0002095309580916A0790916B07822393231A
:100CF0000E9454060895983098F5863088F5E82FBC
:100D0000F0E086E0989FE00DF11D11248E2F877092
:100D100041E001C0440F8A95EAF783E0F695E79534
:100D20008A95E1F7EE0FFF1FEE0FFF1FEF5CF84F04
:100D300020E030E070E05191DF011197CB01022EED
:100D400002C0969587950A94E2F781708195852770
:100D5000842385278C932F5F3F4F2430310559F72B
:100D60000895983078F5863068F5E82FF0E086E051
:100D7000989FE00DF11D11249E2F977083E0F6954A
:100D8000E7958A95E1F7EE0FFF1FEE0FFF1FEF5C6F
:100D9000F84F40E050E080E0219130E0092E02C0A1
:100DA000369527950A94E2F721703327042E01C067
:100DB000220F0A94EAF7822B4F5F5F4F44305105B0
:100DC00059F7089580E00895809171079091700718
:100DD000981301C008958F5F8770FACF90916C07C8
:100DE0008095892380936C07282F277021110DC0CF
:100DF000891759F090916E0792FF07C086958695E6
:100E000086950E94690610926C0708959091650777
:100E100080916F07982B509166075523C1F0809100
:100E200043018130E1F480916D0787FF18C08DE1A7
:100E300020E333E040E0F90160812F5F3F4F611113
:100E40004F5F8150C0F7411110926607952B80913A
:100E50004E078095892390914D07892B089585E051
:100E600028E233E0E7CF982F90958091650789239A
:100E70008093650708957830B8F46630A8F4883018
:100E8000B0F4E62FF0E096E0799FE00DF11D11241B
:100E900090E3899FE00DF11D1124EE0FFF1FE15338
:100EA000F74F85919491089580E090E0089581E056
:100EB000FCCF803E9105D1F1C8F48133910509F44E
:100EC0007FC048F48932910509F46FC08A329105D8
:100ED00009F47DC0089589339105E1F082389105C8
:100EE000C9F08533910509F45BC00895843E9105EE
:100EF000D1F148F4823E910531F1833E910541F1F3
:100F000081EE90E00895863E9105C1F1873E9105FE
:100F1000E1F1089520916D072370211165C02091A2
:100F20006E0723FF14C089E290E0089520916D07B9
:100F300020FD43C030916E0730FF09C024FF4EC032
:100F400080E090E0089520916D0722FDF7CF08958D
:100F500020916D0722FD45C030916E0730FD44C0E1
:100F600024FFF5CFEDCF20916E0721FFF0CF8091C8
:100F70006D0784FDE5CF87EE90E0089520916D0721
:100F800023FFE5CF24FDDCCFF6CF20916D0723FDB5
:100F90002EC030916E0731FFE3CF84EE90E00895CC
:100FA00020916D0725FFD3CFBECF20916D0725FD82
:100FB00021C020916E0723FFCACF89E390E00895F6
:100FC00020916D0726FFC3CF8AE290E0089520911B
:100FD0006D0726FFBCCF81E390E0089583EE90E09B
:100FE000089582EE90E0089580EE90E0089586EEF8
:100FF00090E0089585E390E0AACF90916D0792FF6D
:1010000010C041E0282F2471243009F040E031E085
:10101000282F2871283009F030E0431711F02CE018
:10102000822793FF10C041E0282F2471243109F05A
:1010300040E031E0282F2871283109F030E04317D3
:1010400011F02CE0822730916E0730FF10C051E084
:10105000282F2171213009F050E041E0282F28711C
:10106000283009F040E0541711F029E0822731FFC1
:1010700010C041E0282F2171213109F040E031E01A
:10108000282F2871283109F030E0431711F029E0AA
:10109000822794FD877E08951F93CF93DF930E944C
:1010A0005907EC01811522E5920708F053C081151C
:1010B00040E5940708F0DDC0803E9105F8F48D3CD2
:1010C000910508F0AEC0883A910580F4853A910503
:1010D00008F099C08130910521F00497813A91057B
:1010E00050F4CE01DF91CF911F910895885A910954
:1010F0004B9708F48BC0C0E0D0E0F3CF811550E4EB
:101100009507F8F4C11580E2D80708F0CBC0C83EB7
:10111000D10538F3CE019A9581159F4160F78D2F47
:101120000E94FD07182FCE0199270E945907212FF1
:1011300030E0322F2227E901CC27DF71C82BD92BD1
:10114000D0CF99270E945907CC27DF70C82BD92B05
:10115000D06AC7CF803842E59407C8F5803652E59B
:10116000950708F067C0C03482E5D807B0F08C2F2F
:1011700086958695877020E2829FC0011124C370F6
:1011800021E030E0A90102C0440F551FCA95E2F7E3
:10119000EA01C82BD92BDC68A4CFC03252E5D507B1
:1011A00008F041C08C2F8695869520E2829FC00171
:1011B0001124C37021E030E0A90102C0440F551F83
:1011C000CA95E2F7EA01C82BD92BDD688ACF803CAB
:1011D00052E5950760F48F71C03AD24508F03FC0E0
:1011E00090E0982F8827EC01C46FD06A7ACF805C9A
:1011F0009245809708F07FCFDC2FCC27CC27DF717A
:10120000C06FD06A6ECFA497D0646BCFC85AD0E0BD
:10121000CC0FDD1FC752DD4F0990D881C02DD4649B
:1012200060CFD0655ECFCF71D0E0DC2FCC27C16F0F
:10123000D06A57CF86958695877020E2829FC0013D
:101240001124C37021E030E0A90102C0440F551FF2
:10125000CA95E2F7EA01C82BD92BDA6842CF0E947F
:10126000FD07C82FD0E0DC2FCC27CC27DF71D06260
:1012700038CF8F710E94FD0765E0D695C7956A95B6
:10128000E1F7CF70D0E0DC2FCC27282F30E084FFAF
:1012900005C054E0220F331F5A95E1F7C22BD32B20
:1012A000D0691FCF8D2F8F710E94FD07182FCE019F
:1012B00099270E945907212F30E0322F2227222719
:1012C0003F71282B392BE901D2CFA0E0B0E0EBE64B
:1012D000F9E00C94D52F8C01E0906A07F0906B0731
:1012E0008091680790916907E82AF92ACFE0D0E059
:1012F000CC24C394D12CC6010C2E02C0880F991F98
:101300000A94E2F78E219F21892B49F4219798F7BF
:10131000B12C8B2DCDB7DEB7E9E00C94F12FBC2EAC
:10132000B8018C2F0E943B070E944C08019771F373
:10133000F0CF0F931F93CF93FC0185810081118122
:10134000882391F0662381F0C8010E946509C82FA7
:10135000682FC8010E947B06B8018C2F0E943B07B2
:10136000CF911F910F910895C8010E94B106C82F17
:10137000F3CFCF93DF93D82FC92F0E9465096D2F2C
:101380007C2F0E943B070E944C08DF91CF9108956B
:10139000FC0184818823A1F0808191810E94B90998
:1013A000282F92959F70963091F060F4925F9F7015
:1013B000923030F481E0203F79F030F4283E30F074
:1013C00080E004C09A5FF3CF243FD1F7089581E015
:1013D000283E18F0213FF9CF0895089580E0089540
:1013E000F894E82FE295EF70F0E041A18F7021E0D2
:1013F00030E0B90102C0660F771F8A95E2F7CB0192
:10140000962F9095942391A392A1892B82A37894EF
:101410000895A0E0B0E0EFE0FAE00C94D62FE82FBA
:10142000F0E0EE5EF84F711109C0E4918E2F7E2F2F
:101430006E2FCDB7DEB7E8E00C94F22F262F30E008
:10144000C72FD0E0F491EF2F86E0829F8001839F29
:10145000100D1124EE24EA94F12CC801B7010E946A
:10146000B82FAB01220F331F65E5649FC001659F54
:10147000900D1124281B390B822F880F280FC701CC
:101480008C1B9D0BF89FD001F99FB00D11248B2F61
:101490002C9FB0012D9F700D1124672F77276701B6
:1014A000C61AD70AB601F69F6001F79FD00C112427
:1014B000B701621B71099B012C9FB0012D9F700D1C
:1014C0003C9F700D1124672F77279701261B370B40
:1014D000F29FE001F39FD00D11247D2F4330510581
:1014E000C9F00C3F93E0190758F441305105B1F0B1
:1014F0004230510509F09CCFEB2F8D2F7F2F98CFD5
:101500004430510571F04630510509F491CF7B2FDD
:101510008D2D8ECF7D2DEB2F8F2F8ACF7F2FED2D11
:1015200087CFED2F7B2FF8CF982F8091000788234E
:1015300029F081E09B3108F080E0089581E0953347
:10154000FACF9C0180E090E0269F812D369F800D90
:10155000911D11240895982FE82F96FDE0958E2F68
:101560008F7096FD8F5FE695E695E695E670F0E064
:10157000E551FE4F2181289F202D812D1124229598
:101580002F708295807F282B8081820F97FD819517
:10159000805808951F93CF93DF93D62FC72F182F0E
:1015A000822F86950E94AB0A805887FD8195880F0F
:1015B000282F219F212D1124822F6D2F7C2FDF9129
:1015C000CF911F9108950F931F93522F10E0F801B0
:1015D000EE0FFF1FE350FE4FA1A9A052BB0B9D01D0
:1015E0005203F001539FF00D1124000F111FD80179
:1015F000A35DBD4F2C912057330B4203D001439F75
:10160000B00D11249F012A0F3B1F37FF02C0215C40
:101610003F4F96E0359527959A95E1F7620F1F9118
:101620000F91089550E0FA01EE0FFF1FE350FE4FB7
:1016300031A9440F551FFA01E35DFD4F9081931BC3
:10164000692F660F690F313210F0620F0895621B27
:101650000895EF92FF920F939701201B31092F3FBE
:10166000310519F010F02FEF30E0322F3095482F70
:10167000430F08F44FEF842F620F0F91FF90EF900C
:10168000089530910007311104C08B3191050CF0A1
:101690004B970E94A50B0895FF920F931F93CF9332
:1016A000DF93182F062FF42EC0E0D0E02F2D402F0F
:1016B000612FCE010E94410B2196C633D105B1F7AF
:1016C000CDB7DEB7E5E00C94F52F9BE0899F802D28
:1016D0001124980F973308F096E320910007211109
:1016E00004C08B3128F48BE108959C3108F09BE114
:1016F0000895ECE5F7E0808191E0892780831092DE
:101700004701809164078160809364070895ECE548
:10171000F7E0248130E1230F08F42FEF2483809138
:1017200064078160809364070895ECE5F7E0248105
:1017300030E1231B08F420E024838091640781605A
:10174000809364070895539A0895FC01EE0FFF1FDC
:10175000E80FF91FE458FC4F61834083228308950A
:10176000FC018581862381110AC082818823B9F01A
:101770006823918593FF05C081E061110FC080E06F
:101780000895282F22952F708F70282B962F9295D1
:101790009F706F70962B81E02913F1CF089581E03F
:1017A000FDCF8091FF06882359F0E0912707F09143
:1017B0002807309729F00190F081E02D09950895D0
:1017C00080E00895A3E0B0E0E8EEFBE00C94DC2FAD
:1017D0009C0180917A0390917B0382179307A1F07B
:1017E00030937B0320937A03E0912707F091280739
:1017F000309751F083E089833B832A830084F1850D
:10180000E02DCE01019609952396E2E00C94F82F85
:10181000A3E0B0E0EEE0FCE00C94DC2F9C018091B2
:1018200078039091790382179307A1F0309379039D
:1018300020937803E0912707F0912807309751F023
:1018400084E089833B832A830084F185E02DCE01E7
:10185000019609952396E2E00C94F82F90914301AC
:101860009130C1F490916D0797FF14C0E82FE69571
:10187000E695E695803FF8F4F0E0E25DFC4F877076
:1018800021E030E001C0220F8A95EAF78281822BA5
:1018900082830895A8E2B3E0EFEF90E02D918217E4
:1018A00051F0EF3F19F4211101C0E92F9F5F9630ED
:1018B000A9F7EF3F09F408950E2E000CFF0BEA5D27
:1018C000FC4FE6CF909143019130E1F490916D0788
:1018D00097FF18C0E82FE695E695E695803FF0F46F
:1018E000F0E0E25DFC4F877021E030E0A90102C02A
:1018F000440F551F8A95E2F7CA018095928189238A
:1019000082830895E8E2F3E09191891303C0DF0137
:1019100011971C9253E0EE32F507B1F708958091CC
:1019200042010895A4E0B0E0E8E9FCE00C94DC2F6B
:101930008FB7F8942091740330917503409176032A
:101940005091770329833A834B835C838FBF6981EE
:101950007A818B819C812496E2E00C94F82FA4E09C
:10196000B0E0E5EBFCE00C94DC2F8091FF068823CF
:1019700071F00E94920C69837A838B839C836981C6
:101980007A818B819C812496E2E00C94F82F0E944E
:10199000920C69837A838B839C8380910107909159
:1019A0000207A0910307B091040729813A814B8176
:1019B0005C81280F391F4A1F5B1F29833A834B83A1
:1019C0005C83DDCFA4E0B0E0E8EEFCE00C94DA2F1D
:1019D000462F572FBC012FB7F89480917403909134
:1019E0007503A0917603B09177032FBF8C019D0101
:1019F000041B150B260B370BC901B8012496E4E034
:101A00000C94F62FA6E0B0E0E8E0FDE00C94D82FAF
:101A10007C010091540710915507209156072E83A1
:101A2000809157078D83B801822F9D810E94E20C1F
:101A3000643F71408105910518F10E94920C8B0161
:101A40008E839D8382E390E0A0E0B0E000939A044F
:101A500010939B042E8120939C042D8120939D0440
:101A60008093960490939704A0939804B09399045C
:101A7000E0925207F09253072696E6E00C94F42F7A
:101A800084EF91E0A0E0B0E0E1CF0895FC019B017C
:101A900080916A0390916B038617970740F0672B3C
:101AA00029F48091E8008E778093E800C90140E036
:101AB000009741F4411106C08091E80082FF2FC0D9
:101AC00080E0089520915B042223A9F12530A9F13B
:101AD0002091E80023FD2DC02091E80022FDECCFED
:101AE0002091E80020FFE4CF3091F3002091F20034
:101AF000009719F02830310558F041E028303105C1
:101B000009F040E02091E8002E772093E800D0CF44
:101B100041914093F10001972F5F3F4FE9CF8091B2
:101B20005B04882341F0853041F08091E80083FF19
:101B3000C3CF81E0089582E0089583E00895809105
:101B4000640387FF13C08091E80082FF06C0809184
:101B5000E8008B778093E80004C080915B048111DA
:101B6000F2CF089580915B048823D9F38091E80037
:101B700080FFF8CF8091E8008E77ECCF2091E400D1
:101B80003091E50095E6A9018091EC0081708823F1
:101B900031F08091E80080FF06C080E00895209138
:101BA000E80022FD1BC080915B04882391F0853002
:101BB00091F08091EB0085FD10C02091E400309100
:101BC000E5004217530701F391509111DCCF84E0F7
:101BD000089582E0089583E0089581E00895E8ED96
:101BE000F0E080818E7F80831092E2001092DA0014
:101BF0001092E100A0EEB0E08C9181608C93808126
:101C00008F77808319BCA7EDB0E08C918E7F8C9389
:101C100080818F7E8083109263030895FC01AC0164
:101C20004C5F5F4F8FEF91E32191822728E030E0F6
:101C300087FF0BC0880F89272150310921153105F5
:101C4000B9F7E417F50781F70895880FF5CF90915C
:101C50005C079370992391F0873008F086E0880F35
:101C6000880F90915C079370892B80935C0710928A
:101C70004701809164078160809364070895809193
:101C80005C07869586958F5F873008F081E00E941B
:101C9000270E089590915C07969596958FEF890F82
:101CA000913009F486E00E94270E089590915C0718
:101CB0009370992371F080935D0760935E074937B5
:101CC00008F048E740935F07809164078160809344
:101CD00064070895ECE5F7E0818190E0438162813B
:101CE00008960E94560E0895ECE5F7E08181438145
:101CF00062818850990B0E94560E0895ECE5F7E03A
:101D0000628120E1620F08F46FEF8181438190E0EE
:101D10000E94560E0895ECE5F7E0628120E1621B17
:101D200008F460E08181438190E00E94560E08959E
:101D3000ECE5F7E0438120E1420F08F44FEF8181A9
:101D4000628190E00E94560E0895ECE5F7E0438131
:101D500020E1421B08F440E08181628190E00E9412
:101D6000560E0895982FE42FE2709093E90089139E
:101D700008C0762F242F50E0E11111C091E0980F98
:101D8000F4CF7091EC002091ED005091F00021FD16
:101D900006C09F5F973049F78093E900089530911E
:101DA000EB003E7F3093EB003091ED003D7F3093B0
:101DB000ED003091EB0031603093EB007093EC005C
:101DC0002093ED005093F0002091EE0027FDE1CF2D
:101DD0000895A0E0B0E0EFEEFEE00C94D62FC8ED41
:101DE000D0E088818F7E8883E7EDF0E0808181609C
:101DF000808384E082BF81E08093630388818E7F4B
:101E0000888302EE10E0F80110821092DA0081EE71
:101E1000C82ED12CF601108288818F778883888123
:101E20008068888388818F7D888319BC10925B04C9
:101E30001092620310925A041092610390EEE92E00
:101E4000F12CF70180818B7F80838881816088837A
:101E500042E060E080E00E94B20EF60180818E7F59
:101E60008083F801808181608083808188608083A5
:101E7000F70180818E7F8083888180618883CDB7E0
:101E8000DEB7E8E00C94F22FE091710790917007B3
:101E900027E0E91302C080E00895AE2FB0E02E9F46
:101EA000F0011124EE58F84F3181361306C030810D
:101EB000381303C03581341304C0FD013196E77037
:101EC000E8CF81E008953BB1377F2BB128604FB751
:101ED000F8948CE793E0FC010196508168E02BB9FF
:101EE000000000C057FF3BB9550F000000C000C004
:101EF00000C03BB900C06A9591F754E08E31950758
:101F000051F74FBF8FE594E00197F1F700C0000053
:101F100008950F931F93CF93DF93EB018A01909164
:101F20005B04943079F58093E9008FEF9091E8009D
:101F300095FD07C095ED9A95F1F70000815081114C
:101F4000F5CF8091E80085FF1DC00E94BE0D811174
:101F500014C08091E80085FD06C08091E8008E776E
:101F60008093E800F2CF88818093F100015011093D
:101F70000115110511F02196ECCF8091E8008E77C4
:101F80008093E800DF91CF911F910F910895CF9337
:101F9000DF93D82FC92F48E050E0682F792F81E0D8
:101FA0000E94890F88E0ED2FFC2FACE6B3E0019092
:101FB0000D928A95E1F7DF91CF910895BC0140E23F
:101FC00050E082E00E94890F0895BC0143E050E098
:101FD00082E00E94890F0895A0E0B0E0E2EFFFE008
:101FE0000C94D42FF82EE92EB62EA72E8A018091BC
:101FF0006003CC24C394D12C8A3018F48AE0C82E14
:10200000D12CC1E0D0E06B2D7A2D8F2D9E2DF801C3
:102010000995811116C02196CC16DD0694F0CC9F4F
:10202000C001CD9F900D900D112420E030E045E3DC
:102030004A95F1F700002F5F3F4F28173907B9F78E
:10204000E2CFCDB7DEB7EAE00C94F02F90916E07A7
:1020500092FB222720F9281779F080FB92F99093C0
:102060006E0760916D0770916E0784E090E00E94AA
:10207000A93082E00E94EE060895809143018130EC
:1020800059F580916D0787FF27C00E94060780934E
:102090002F0340E250E067E077E08EE293E00E9499
:1020A0004030892BC1F080E2EEE2F3E0A7E0B7E038
:1020B00001900D928A95E1F7E0912707F0912807AA
:1020C000309749F086E080932E030480F581E02D5F
:1020D0008EE293E0099508950E94060780932603F7
:1020E00048E050E069E277E086E293E00E94403009
:1020F000892B89F388E0E6E2F3E0A9E2B7E00190FA
:102100000D928A95E1F7E0912707F0912807309723
:1021100011F30280F381E02D86E293E0DBCFCF93D1
:10212000C82F8823B1F18CEF8C0F813AA0F58091F4
:102130004301813001F580916D0787FF1CC0EC2FB2
:10214000E695E695E695F0E0E25DFC4F828190E051
:102150004C2F477021E030E002C0220F331F4A9518
:10216000E2F782239323892B79F08C2F0E94620C53
:102170000E943D1009C0E8E2F3E08191C817A9F37D
:1021800023E0EE32F207C9F78C2F0E942E0C0E943A
:102190003D10CF91089580E28C0F883068F4C770AD
:1021A00081E090E001C0880FCA95EAF7C091650709
:1021B000C82BC0936507EBCF8BE58C0F833038F4C9
:1021C0002C2F2452330BC9010E94E20BE2CFC85AD4
:1021D000CB31F8F6EC2FF0E0EE0FFF1FE752FD4F8A
:1021E000808191810E94080CD4CF882339F19CEF23
:1021F000980F913A28F40E94620C0E943D100895B5
:1022000090E2980F983050F4877091E001C0990FD8
:102210008A95EAF7892F0E943307EFCF9BE5980F45
:10222000933028F480E090E00E94E20B0895885AF1
:102230008B3120F480E090E00E94080C0895882300
:1022400039F090916507892B809365070E943D10B6
:102250000895882321F00E9433070E943D100895BD
:10226000882339F090916F07892B80936F070E9424
:102270003D10089510926507809143018130C1F4AB
:1022800080916D0787FF14C0E0E3F3E08EE1DF018A
:102290001D928A95E9F780E090E00E94E20B80E0D1
:1022A00090E00E94080C10926F070E943D10089564
:1022B000E8E2F3E086E0EBCF0E943A112FEF84E3EF
:1022C0009CE0215080409040E1F700C0000088E190
:1022D0009AE00FB6F894A895809360000FBE909393
:1022E0006000FFCFAAE2B0E0E8E7F1E10C94DB2F59
:1022F00084E693E0FC0101962091F100208323E025
:102300008C369207B9F780916503893009F45AC079
:10231000C8F4823009F4B6C0833009F485C0813036
:1023200091F18091E80083FFEAC08091640390916D
:1023300065039A3008F0E3C0E92FF0E0EF54FF4C5A
:102340000C9431308A3009F48CC08B3051F7809175
:102350006403813231F78091680390916903892B7E
:1023600001F78091E800877F8093E8000E949F0D2D
:1023700081E090916603911101C080E08093430158
:102380000E943A11CECF80916403813A51F6809138
:10239000E800877F8093E80080916803909169034B
:1023A000892B61F060E080E090E070E00E94460DD3
:1023B0008091E8008B778093E800B3CF68E08CE6EB
:1023C00093E0F3CF80916403813209F0AACF80912A
:1023D000680390916903029708F0A3CF8091E80009
:1023E000877F8093E8008091E80082FF18C0909179
:1023F000F3008091F200029731F48091F100813076
:1024000011F0863021F48091F10080934201809197
:10241000E8008B778093E8000E949F0D82CF809127
:102420005B048111E0CF7DCF80916403813A09F094
:1024300078CF8091680390916903892B09F071CF5F
:102440008091E800877F8093E8008091E80080FF1A
:10245000FCCF809143018093F1008091E8008E775A
:10246000D9CF80916403813209F05BCF8091E8007D
:10247000877F8093E8000E949F0D8091670380937F
:1024800041014FCF80916403813A09F04ACF809196
:10249000E800877F8093E8008091E80080FFFCCF10
:1024A00080914101D8CF803889F0823841F5809100
:1024B00068038F70873018F58093E9008091EB00F6
:1024C00085FB882780F91092E90006C0809161039E
:1024D00090915A04911182609091E800977F9093B7
:1024E000E8008093F1001092F1008091E8008E776F
:1024F00023C0811116C080916603813011F1809153
:10250000E80083FF0AC08091E800877F8093E8009D
:102510008091EB0080628093EB00AA96E3E00C943C
:10252000F72F823061F780916603882389F010923B
:10253000E9008091E800877F8093E8000E949F0D6A
:10254000DECF81E0933009F080E080935A04EFCF32
:10255000809168038F702FEF280F263080F68093CC
:10256000E9002091EB0020FFE2CF933031F480911D
:10257000EB0080628093EB00DACF9091EB009061EA
:102580009093EB0021E030E0A90102C0440F551FF9
:102590008A95E2F74093EA001092EA008091EB00FE
:1025A0008860E8CF8111ABCF109166031F778091CF
:1025B000E3008078812B8093E3008091E800877F9F
:1025C0008093E8000E949F0D8091E80080FFFCCF7F
:1025D0008091E30080688093E30083E0111101C0E3
:1025E00082E080935B048BCF8058823008F087CFE5
:1025F00040916603509167034C3D83E0580799F57D
:1026000083E08A838AE289834FB7F894DE011396C8
:1026100020E03EE051E2E32FF0E050935700849138
:1026200020FF03C082958F703F5F8F708A30C8F0A3
:10263000895C90E08D939D932F5F243161F74FBFAC
:102640008091E800877F8093E8006AE270E0CE0125
:1026500001960E94460D8091E8008B778093E800F8
:102660004ECF805DE6CF2091680330916903852FBE
:1026700099278330910509F160F48130910509F4BF
:1026800072C0029709F03BCF8BE390E0E1EAF6E0FD
:1026900029C08132910509F45AC0829709F02FCFE1
:1026A0002115310509F469C02130310509F027CF22
:1026B0008DE690E0E0EFF5E015C0CA0199274130C2
:1026C000B1F18230910509F43AC0892B09F017CF96
:1026D000EEE0F7E0E4918E2F90E0EEE0F7E0009777
:1026E00009F40DCF2091E800277F2093E800209186
:1026F0006A0330916B038217930708F49C0140E052
:102700002115310509F03EC041113CC08091E8001F
:1027100082FDA1CF80915B04882309F49CCF853092
:1027200009F499CF8091E80083FFF0CF94CFECEFCC
:10273000F6E0E4918E2F90E0ECEFF6E0D0CFEEEEF5
:10274000F6E0E4918E2F90E0EEEEF6E0C8CF211592
:10275000310571F02130310509F0D1CE89E090E0EA
:10276000ECECF6E0BFCF82E190E0ECEDF6E0BACF22
:1027700089E090E0E3EBF6E0B5CF84E490E0EDE5AE
:10278000F6E0B0CF80915B04882309F464CF8530F4
:1027900009F461CF8091E80083FD5DCF8091E8006E
:1027A00082FDB4CF8091E80080FFAACF9091F30022
:1027B0008091F2002115310519F08830910550F013
:1027C00041E0089709F040E08091E8008E7780931F
:1027D000E80096CF44914093F100319621503109A1
:1027E0000196E8CF803809F08ACE8091E800877F93
:1027F0008093E800809162038093F10076CE81118E
:102800007ECE10916603123008F079CE8091E800F8
:10281000877F8093E800109362030E949F0D11232D
:10282000A9F084E080935B0442E061EC81E00E94C7
:10283000B20E42E261EC82E00E94B20E80915B0433
:10284000843051F482E08093440159CE8091E300BA
:1028500087FDE7CF81E0E6CF81E0F5CF1F93CF93EF
:10286000DF93182FA0915007B0915107109709F4EA
:102870004AC0109253071092520710924E071092BE
:102880004D071796CD91DC911897CE019A95811539
:102890009F4108F4D07ED1E0C11101C0D0E01A966A
:1028A000ED91FC911B97309731F01C966D917C91C6
:1028B00080E00995D823DD2339F08CEF8C0F813A25
:1028C00030F58C2F0E94620C1123A9F0E091500783
:1028D000F0915107818584FD0EC080914F078823B8
:1028E00051F0808191819C01215031092F333E4765
:1028F00010F40E94020D0E943D1010925107109298
:10290000500710924F07DF91CF911F9108950E94B9
:102910003D108C2F0E94F510D7CFA8E0B0E0E3E97E
:10292000F4E10C94DB2F8091D9069091DA06A09106
:10293000DB06B091DC06BC01CD010E94E20C11E087
:10294000643671058105910578F10E94AF0CDC01B8
:10295000CB010296A11DB11D89839A83AB83BC83F1
:1029600080913201909133018751994F209131012B
:10297000422F50E0253010F044E050E0BE016F5F80
:102980007F4F0E944D3083E090E00E94432F182F2C
:10299000882351F00E94920C6093D9067093DA0656
:1029A0008093DB069093DC06812F2896E3E00C945D
:1029B000F72FA6E0B0E0EFEDF4E10C94D52F8D8376
:1029C0007B01B42E5E83B9016801A8018B2D9E8125
:1029D0000E9440308C01D7018D919D910D90BC914A
:1029E000A02DBC01CD010E94E20C69837A838B8308
:1029F0009C83643671058105910518F40115110554
:102A000039F1BD810B2F0B2E000C110B88E0B802A1
:102A1000F0011124E75EFE4F818192818751994F29
:102A20002081422F50E0C416D50608F4A6016B2D74
:102A30007E810E944D30C8010E94432F882349F0B7
:102A40000E94920CD7016D937D938D939C93139765
:102A500081E02696E9E00C94F12F0F931F93AC01CF
:102A600004E010E02EEE36E06DED76E082E00E94AC
:102A7000D9141F910F910895A9E0B0E0E2E4F5E1C7
:102A80000C94DA2F88E0ECE5F7E0DE011196019076
:102A90000D928A95E1F7198609E010E026EF36E0FD
:102AA000AE014F5F5F4F65ED76E084E00E94D91480
:102AB0002996E4E00C94F62FEF92FF921F93CF93A8
:102AC000DF93CDB7DEB729970FB6F894DEBF0FBE00
:102AD000CDBF7B0180E090E00E94432F182F811131
:102AE0001BC010E08091E1069091E206A091E30600
:102AF000B091E406F70180839183A283B383812F91
:102B000029960FB6F894DEBF0FBECDBFDF91CF91EF
:102B10001F91FF90EF90089580911C01482F50E085
:102B2000882311F041E050E060911D0170911E0179
:102B30006751794FCE0105960E944D308091E50690
:102B40009091E606A091E706B091E806BC01CD01A0
:102B50000E94E20C6E837F838887998764367105B3
:102B60008105910538F48AEE96E00E940E0E9D8153
:102B70008917B9F181E090E00E94432F882309F47E
:102B8000B0CF80912401482F50E0853010F044E010
:102B900050E060912501709126016751794FCE0177
:102BA00001960E944D308AEE96E00E940E0E9D81A5
:102BB000891397CF0E94920C6093E5067093E60606
:102BC0008093E7069093E80689819A81AB81BC8166
:102BD0008093E1069093E206A093E306B093E406A7
:102BE00081CF8091EA069091EB06A091EC06B0911E
:102BF000ED0689839A83AB83BC83E6CFADE0B0E07A
:102C0000E4E0F6E10C94CC2F60911E0470911F0457
:102C1000809120049091210469837A838B839C8323
:102C20008091FF06882309F450C069817A818B81E5
:102C30009C810E94E20C6B017C010E94AF0C282F4A
:102C400060931E0470931F048093200490932104CA
:102C5000A0916404E4E6F4E08A2F30E088248A94AA
:102C6000982CA12CB12C8C189D08AE08BF08A3137A
:102C700039C08093640480915C07A82FA370A98356
:102C8000AA2321F0B82FB695B695B98330914701A4
:102C9000323009F4A3C2C8F531113EC010920201CE
:102CA00060932204709323042093240490932504BA
:102CB00089E2E4E6F4E0A0E3B4E001900D928A95A5
:102CC000E1F781E08093470123C00E94AF0C6B01C4
:102CD0007C0189819A81AB81BC81C81AD90AEA0A30
:102CE000FB0AABCF418D528D2A01612C712C8414CB
:102CF0009504A604B70420F481503F5F3296B7CF05
:102D00004C0D5D1D528F418FF8CF333009F46FC2E7
:102D10002D96E2E10C94E82F90910101E981E913ED
:102D200024C0837090E04091000150E021E08417BE
:102D3000950709F420E0822F81708093040180912F
:102D4000610790910301981739F08093030140E0E7
:102D500060E080E00E944C0BF981F73040F4EF2FE7
:102D6000F0E0E554FF4C0C94313081E0E5CF8091E8
:102D700002018F5F8093020182E0A4CF8091040161
:102D8000811107C0809102018F5F8093020183E06F
:102D900099CF40E060E080E00E944C0B80910201FE
:102DA0008F5F8093020182E080934701809104014C
:102DB0008111AECFECCF809102010E94650B082FEC
:102DC000998360915D0770915E0780915F070E9413
:102DD000090A6D83F72EE82E10E02981021758F0BA
:102DE000822F0E94940A909102019F5F90930201AA
:102DF00081118ECFC1CFF801E756FD4F80819091B0
:102E000003018923882331F02E2D4F2D6D81C801B8
:102E10000E94410B0F5F1F4FE0CF809102010E9483
:102E2000650B8D83E92E30915D07398300915E0734
:102E300010915F07632F702F812F0E94090AD62EF1
:102E4000C72EB82E809160076981680F702F812F7F
:102E50000E94090A162F072FF82E7D81672F70E038
:102E60007A83698399819E1510F08E2DBACFE981FE
:102E7000FA81E756FD4F80813091030138233323D7
:102E800061F02F2D402F612F80FD03C02B2D4C2D85
:102E90006D2D89819A810E94410B89819A810196C9
:102EA0009A838983DFCF809102010E94650B898319
:102EB000192F609160076695669521E0620F08F40E
:102EC0006FEF80912204909123040E94A10A082FA1
:102ED000B981AB2FB0E0BA83A983F981F11710F063
:102EE000812F7FCFE981FA81E756FD4F8081909154
:102EF00003018923882391F060915D0770915E073B
:102F000080915F07202F49810E94CA0A0E94090A06
:102F1000472F282F89819A810E94410BE981FA81EC
:102F20003196FA83E983D9CF809102010E94650B23
:102F30008983D92E609160076695669580912204F9
:102F4000909123040E94A10A182F80E4810F0E940F
:102F5000AB0AB0E8FB2EF80E812F0E94AB0A90E876
:102F6000C92EC80E3981232F30E03A832983798115
:102F70007D1510F08D2D35CFE981FA81E756FD4F93
:102F800080819091030189238823A1F060915D07DE
:102F900070915E0780915F07E12E09812C2D4F2DE6
:102FA0000E94E30A0E94090A472F282F89819A81EB
:102FB0000E94410B69817A816F5F7F4F7A836983B9
:102FC000D6CF809102010E94650B8983192F8091D1
:102FD00060076AE00E940330682F21E0620F08F466
:102FE0006FEF80912204909123040E94A10A082F80
:102FF0009981892F90E09A838983B981B11708F06C
:103000006FCFE981FA81E756FD4F808190910301EE
:1030100089238823E1F0E981FA81EE0FFF1FE35055
:10302000FE4F91A960915D0770915E0780915F07E7
:10303000202F4981913288F00E94120B0E94090AC8
:10304000262F472F682F89819A810E94410BA981E1
:10305000BA811196BA83A983D0CF0E94120B0E9425
:10306000090A472F282FEFCF5090300421E0352D4B
:10307000321B08F430E0332E809102010E94650B70
:103080009D83682F70E07D876C87CB01880F991F27
:10309000DC01A350BE4F6D01832D90E0FC01319601
:1030A000FB87EA878D819C85981708F09ACEEC857E
:1030B000FD85E756FD4F8081909103018923882388
:1030C00001F140905D07F0915E07F98320915F0761
:1030D00029876A857B85605D7B4F3B01232C10E04F
:1030E0002514C8F02985129F112D1124642D798192
:1030F000812F0E94090A472F282F8C859D850E94C9
:10310000410B6C857D856F5F7F4F7D876C8772E09B
:10311000C70ED11CC7CFD3018D913D01F601A0A8E8
:10312000A81ABB0881A817968C91881A9908AA9C9E
:10313000C001AB9C900D900D1124889C9001899C3E
:10314000300D300D1124820F931F082F823091050E
:1031500024F14FEF813EFEE19F073CF4AC0175E0A6
:10316000569547957A95E1F7485F51E0652F640FD2
:103170007727771F9B0135952795022F229FB00156
:10318000239F700D700D11248617970710F54FEFD0
:10319000420F451758F70FEF050F6091600771E078
:1031A000670F08F46FEFF301EE0FFF1FE053F440D9
:1031B000858996890E94A10A7C019401A501642D4C
:1031C0007981812F0E94290B462E7983182F239411
:1031D00087CF2F3F11F351E0520FDBCFA981A0938E
:1031E00001018370809300010E94630FD0CD809114
:1031F0006407882351F048E050E067E170E08CE517
:1032000097E00E947B3010926407609122047091D5
:103210002304809124049091250469837A838B830D
:103220009C838091FF06882391F069817A818B814C
:103230009C810E94E20C462F572FBC014031510562
:103240006105710508F464CD1092470161CD0E94BB
:10325000AF0CAB01BC0189819A81AB81BC81481B59
:10326000590B6A0B7B0BEACFAB0124E630E0BC01C3
:1032700088E70E945A2D9C0181E0232B09F080E011
:1032800008958091D306882369F08091D006882321
:1032900049F062E070E08EEA90E00E9434198111FA
:1032A0001092D0060895A4E0B0E0E9E5F9E10C94AD
:1032B000DC2F8091D3068823F9F00E94920CDC0168
:1032C000CB01805A9541AF4FBF4F8093CC0690936E
:1032D000CD06A093CE06B093CF068091D006811183
:1032E0000BC062E070E08CEA90E00E943419882301
:1032F00019F081E08093D0062496E2E00C94F82F38
:10330000CF93DF93682F81E06A3019F06D3031F48C
:1033100080E00E94001ADF91CF91089580919E0471
:1033200090919F0426E0FC01AAE5B3E001900D9284
:103330002A95E1F7603E08F458C026E0FC0111929E
:103340002A95E9F7C0919E04D0919F0446E050E091
:10335000BE018AE593E00E9440309E01285C344023
:10336000892B41F1C90145E0969587954A95E1F78A
:1033700041E050E0BA0102C0660F771F8A95E2F77C
:10338000CB016091CA067091CB06862B972BB901B1
:103390006B5F7F4FE5E076956795EA95E1F702C0B0
:1033A000440F551F6A95E2F7842B952B9093CB061B
:1033B0008093CA062A5F3F4F4091A004642F70E0BB
:1033C000C9010E94B82F481B463010F4240F311D4C
:1033D000211572E0370710F020E030E028533B4F12
:1033E00030939F0420939E0496CFF6E06F9FB00128
:1033F000112460557F4F46E050E00E943730A2CF45
:10340000CF93382FE0919E04F0919F04E85CF44044
:103410002091A004622F70E0CF010E94B82F281BDA
:10342000822F332361F066E00E940330C82FC15021
:1034300010F4CF91089580E20E948019F8CF9F0187
:10344000280F311D2115324018F080E0E0E0F0E057
:103450008E0F9F2F911D88539B4F90939F048093B5
:103460009E04E7CFCF93DF93EC01FE01849181119D
:1034700003C0DF91CF9108950E9480192196F5CF66
:103480000E94321A81E00E94001A08951F921FB60E
:103490001F9211248F939F93AF93BF9380915904F0
:1034A000811113C08091740390917503A0917603EC
:1034B000B09177034196A11DB11D80937403909341
:1034C0007503A0937603B0937703BF91AF919F915B
:1034D0008F911F901FBE1F9018952FB7F894809161
:1034E000740390917503A0917603B09177032FBF79
:1034F00008959C014FB7F8948091740390917503DF
:10350000A0917603B09177034FBF821B930B089570
:103510000F931F93CF93DF93C62FD42F122F88239F
:10352000A9F060935A070E946D1A909359038093F3
:103530005803C77081E001C0880FCA95EAF70E945E
:103540001F11DF91CF911F910F91089580915A071C
:10355000681338C080915803909159030E94791ADA
:103560008F3A910578F5CD130FC0812F0E948F10EF
:10357000812F0E94F510D77081E001C0880FDA9585
:10358000EAF70E942911DDCFC77001E0802F01C04A
:10359000880FCA95EAF70E94291180E28D0F8830C2
:1035A00050F48D2F877001C0000F8A95EAF7802FA5
:1035B0000E941F11DACF812F0E948F10812F0E944D
:1035C000F510BFCFC77081E001C0880FCA95EAF738
:1035D000D8CFA0E0B0E0EFEEFAE10C94CC2F8C0154
:1035E000DC0114968C91882309F4C8C061E0C801FD
:1035F0000E949909EC01F80135809C01205E310997
:103600004901332009F4BFC0818180934C07808138
:1036100080934B0780E280934501D0934A07C09383
:103620004907CE01905281159042C8F486818031BD
:1036300018F4809146011DC0FE01FF27CD33C8F765
:10364000E153F44FE491E0934501CF35ACE7DA075D
:10365000E9F41092460180E00E942E147EC0CE0153
:10366000905481159041E8F4968180914601903103
:1036700020F4882309F485C18AC0FE01FF27CD33D9
:10368000C0F7E153F44FE491E0934501CD35BCE739
:10369000DB0709F078C080914601882309F45AC0FD
:1036A000D8CFCE019A9581159F4158F4FE01FF278E
:1036B000CD3308F0BECFE153F44FE491E0934501E0
:1036C000B8CFCE01805A92458097D0F580914601BF
:1036D000882309F4DAC12090670780916507282ABA
:1036E00080916607282A31101FC180915807909158
:1036F0005907C817D90781F4109259071092580733
:1037000010925407109255071092560710925707BF
:103710001092530710925207E0915007F091510711
:10372000309709F078C1F8018581FE01E851FC4726
:10373000E730F10508F025C1EE53FF4C0C94313011
:10374000CD33D10510F4FE01B6CFCE359CE7D907B5
:1037500009F07BCF81E08093460180916C078770F0
:10376000882361F0D80115968C91882339F08091D7
:103770006E0782FF03C082E00E94EE06CDB7DEB77F
:10378000E2E10C94E82F80914601882361F22090B9
:10379000670780916507282A80916607282AE8E054
:1037A0008E16910408F09FCF9E012770332781E089
:1037B00090E001C0880F2A95EAF7332009F4B1C0E0
:1037C000282AD8018D919C910E94B10621E030E019
:1037D000290102C0440C551C8A95E2F7A0905007BD
:1037E000B09051073FE0632E33E0732EF301E19078
:1037F000F1903F01E114F10409F4B1C0211005C0BA
:10380000D70112968C918111A4C0F7018381948114
:1038100084219521892B09F49CC08185982F97706C
:103820009111C1C0F8E08F16910408F090C03110DA
:10383000C2C0F701C080D180CC15DD0509F489C074
:10384000AE14BF0409F485C0D7011E96ED91FC911A
:10385000309721F08081882309F47BC0622DC70155
:103860000E94B00B882309F474C0CC15DD0511F457
:10387000311005C0C114D10409F0A9C0312C80E079
:103880000E942E14F0925107E092500781E080933D
:103890004F07F701868180934E0731100DC0CD2868
:1038A00059F0808191819C0124503109213A3105E0
:1038B00008F096C00E94620CF701C780D084C60150
:1038C0009A9581159F4110F420EED222BB24B39427
:1038D000C60101978F339E4708F0B12CD7011A9685
:1038E000ED91FC911B97309731F01C966D917C9176
:1038F00081E00995B82281E03826BB2079F0F701F4
:10390000878190850E94250680934D07C601F8E0C7
:103910008F16910408F067C00E94020D0E943D10AE
:1039200069C0809528224DCFD0935907C09358077E
:103930000E94920C6093540770935507809356072A
:103940009093570710925307109252073ACF3110B5
:1039500032C0A3E2B3E0A615B70509F047CFA11422
:10396000B10409F4E0CEB8E08B16910408F05FC012
:10397000622DC5010E94B00B811103C081E00E943D
:103980002E14D80115968C91811195C0C631BCE7D3
:10399000DB0709F096C180915B07811163C189E261
:1039A0000E94620C29C028E08216910458F433204A
:1039B00031F081FFCECFD701CD90DC9041CF82FF97
:1039C000C8CF37CF332029F280FFC3CFF4CF809107
:1039D0005807909159078C159D0509F0BACF4ECF25
:1039E0000E94F51069CF0497813A910540F48C2D1F
:1039F0000E942E0C311097CE0E943D10AECE0E9438
:103A00003D108FE39CE90197F1F700C000008C2D79
:103A10000E948F10EFCF80819181C817D90709F0DC
:103A200082CE10924F0780E00E942E147CCEF501CA
:103A300080819181C817D90731F4332091F38185B2
:103A400085FD71CEF0CF332009F46DCE8185F8CF9E
:103A500026E241EE61EE0E94881A7FCE27E245EE13
:103A600065EEF9CF26E241EE60EEF5CF27E245EEB6
:103A700064EEF1CF26E241EE62EEEDCF27E245EEB5
:103A800066EEE9CF28E241E0EBCF10925A07809131
:103A90006507C631ECE7DE0709F0E6C08A7A91E0F7
:103AA000811101C090E090935B078111D9C089E238
:103AB0000E942E0CA1CF10925A07CE0190578397E7
:103AC00030F784E090E00E94753090936E07809309
:103AD0006D07FE01E150F047E232F10520F4E753B3
:103AE000FF4C0C94313080916D07816080936D079D
:103AF00060916D0770916E0784E090E00E94A9309C
:103B00000E943A112ACE80916E07886080936E07DA
:103B1000EFCF80916D078260E9CF80916D0784605F
:103B2000E5CF80916D078860E1CF80916E0781605D
:103B3000EDCF80916E078260E9CF80916D07806143
:103B4000D5CF80916D078062D1CF80916D07806461
:103B5000CDCF0E943A1180916D078068C7CF8091C8
:103B60006D078C60C3CF80916E078360CFCF80914B
:103B70006D078E7FBBCF80916E07877FC7CF809107
:103B80006D078D7FB3CF80916D078B7FAFCF809115
:103B90006D07877FABCF80916E078E7FB7CF809107
:103BA0006E078D7FB3CF80916D078F7E9FCF809101
:103BB0006D078F7D9BCF80916D078F7B97CF0E9484
:103BC0003A1180916D078F7791CF80916D07837F38
:103BD0008DCF80916E078C7F99CF80916D0782FB8E
:103BE000992790F921E0922790FB82F990FB83F9C5
:103BF0007DCF80916E07982F909591708E7F892B45
:103C000090FB81F983CF90916D07892F8F7B96FF71
:103C100080646CCF0E943A1190916D07892F97FBB9
:103C200087F9805863CF61E08EE090E00E948B308E
:103C30005FCF60E0F9CF90916D07892F8F7E94FF61
:103C4000806154CF90916D07892F8E7F90FF8160A6
:103C50004DCF90916E07892F877F93FF886056CF55
:103C600085E326CF85E39CCE8272FE01E052F847C1
:103C7000EB30F10508F06EC0E551FF4C0C9431308B
:103C80000E94790B6ACD882309F449C00E944A0E2C
:103C900064CD882309F449C00E94740E5ECD882348
:103CA00009F449C00E948B0E58CD882309F449C0FD
:103CB0000E94A50E52CD882309F449C00E94950B9D
:103CC0004CCD809165078272FE01E054F847ED30DB
:103CD000F10508F0C3C0EA50FF4C0C9431308091DC
:103CE0005C078370811102C01092470180915C07CC
:103CF0008C7F816080935C078091640781608093F2
:103D000064072BCD80915C0783708111109247016D
:103D100080915C078C7FEECF882309F4B7CF0E9497
:103D20003F0E1BCD882309F4B7CF0E946A0E15CD34
:103D3000882309F4B7CF0E947E0E0FCD882309F4A3
:103D4000B7CF0E94980E09CD882309F4B7CF0E94FF
:103D5000870B03CDCE01805E92458097A8F0CA35CF
:103D60003CE7D30709F4C9C008F091C0C1309CE713
:103D7000D90709F4C0C0C330ACE7DA0709F4B5C00D
:103D8000C115DC4709F495C0F8018581E080F18018
:103D9000882309F4B6C0C7010E946509C82F682F9F
:103DA000C7010E947B06B7018C2F0E943B070E942F
:103DB0004C08D82FC92FD8011596CC901597169678
:103DC000EC90E2942FE0E22280916C0787708823C8
:103DD00001F1DC2CCC20F1F0892F807F803461F060
:103DE00080E28D0F8830A8F0892F807E803221F408
:103DF000D23078F0EE2069F080916E0782FF09C022
:103E000082E00E94EE0680916C078770DD24D394D7
:103E10008111D12C8C2F82958F70883009F467C165
:103E200008F094C0843008F071C0BC2FBF70FB2E26
:103E3000823008F49CC0C07FC03219F0F29480EF49
:103E4000F822DD2309F4CAC0D13009F413C1CC2013
:103E500009F41FC1EE2009F4DFC09FC0CE01805ECF
:103E60009245809708F090CFCF7181E090E09C015F
:103E700002C0220F331FCA95E2F7E901622F83E0E7
:103E800090E00E948B30CE010E944F0666CCCB356D
:103E9000ECE7DE07A1F1CC35DC4709F075CF809166
:103EA0006E0782FB882780F991E089270E942610FF
:103EB0006BCF0E943A112FEF34E38CE02150304059
:103EC0008040E1F700C0000087E797E79093010882
:103ED0008093000888E19AE00FB6F894A895809343
:103EE00060000FBE90936000FFCF6FEF7FEF80E028
:103EF00090E00E94A9300E945C1181E0D7CF80E061
:103F0000D5CFC7010E94B106C82F4DCF843009F428
:103F1000D1C0DD20B1F080916C0780FD12C0D801C6
:103F200015961C928695869586950E945906C8011D
:103F30000E94E91A80916C078695869586950E9465
:103F4000690660E0C8010E94990918CC893009F41B
:103F50005AC18A5F8F708230E0F6D23F09F064C1A7
:103F60008C2F8F71C1105DC10E945906F5C0C03100
:103F700018F0F29490EFF922CC20B9F0FF2069F00C
:103F800080E28D0F883010F0D11109C08091650753
:103F90008F29809365070E943D108D2F2FC080913F
:103FA0006F078F2980936F07F6CF8D2F0E94F51032
:103FB000FF2009F4AECF80E28D0F883010F0D111D0
:103FC00004C08F2D0E94330706C0F09480916F07C4
:103FD0008F2180936F070E943D109BCF80916E07C9
:103FE00082FD16C0CC2069F0FF2039F08091650772
:103FF0008F29809365070E943D1080E00E948F10FA
:1040000088CF80E00E94F510FF2009F482CFD9CF3D
:10401000CC20A1F0E11004C08F2D0E941F1179CF98
:10402000E1E0EE1276CF809166079F2D9823F91676
:1040300009F46FCF8F29809366076BCFE11069CFAA
:104040008F2D0E942911909166078F2D8923882337
:1040500029F08F2D809589238093660780916707CB
:104060009F2D9823992309F454CFF094F822F092CD
:1040700067074FCFCC2029F0F5E0FE1508F449CFB3
:10408000CBCF24E02E1508F444CF8F2D0E942911A8
:1040900040CFEE20D1F3D93349F43FEF87EE93E0E0
:1040A000315080409040E1F700C000008D2F0E9409
:1040B000F5102FCF8C2F869586958370882369F015
:1040C000813009F026CF8D2F9C2F9370C11002C034
:1040D00080E090E00E94080C1CCF8D2F9C2F9370E5
:1040E000C11002C080E090E00E94E20B12CF8C2F42
:1040F0008370811142C0C1102FC04D2F429546954B
:104100004770440F440F2D2F2F7030E0042E02C053
:10411000220F331F0A94E2F780E090E0D4FF09C039
:104120008FE090E002C0880F991F4A95E2F78095D2
:104130009095C695C695C370C230B1F0C33089F072
:104140004091680750916907C13049F0822B932B49
:10415000842395230E944F060E94D10BDACE242B94
:10416000352B822B932BF6CF822B932B2091680734
:104170003091690782279327EDCFCC2091F1C0FFC2
:10418000EBCF4D2F429546954770440F440F2D2F8E
:104190002F7030E0042E02C0220F331F0A94E2F782
:1041A00080E090E0D4FF09C08FE090E002C0880F6B
:1041B000991F4A95E2F780959095C695C695C3706C
:1041C000C230C1F0C33099F040916A0750916B073B
:1041D000C13059F0822B932B842395230E945406DF
:1041E000BBCF823008F4B8CFCCCF242B352B822B19
:1041F000932BF4CF822B932B20916A0730916B077E
:1042000082279327EBCFCF70CC2039F08C2F0E94E0
:1042100059068D2F0E941F119FCF8D2F0E942911AB
:104220008C2F0E94690698CFD33F78F4D03FC1F01D
:10423000D13F09F440C0CC2009F45FC0EE2009F45E
:1042400059C08D2F0E948F1087CFD33F11F1D43FDB
:1042500071F1C110F3CFE1105EC08C2F8F71E1CFEF
:10426000CC20A1F0A4E0AE1508F476CFCF7181E0A8
:1042700090E0FC0102C0EE0FFF1FCA95E2F78091AB
:104280006A0790916B078E279F27A8CFF5E0EF165E
:10429000EBCF80E090E0CC2009F4A0CFCF7181E09B
:1042A00090E002C0880F991FCA95E2F797CF9091CE
:1042B0006E0792FD06C08C2F8F71CC2009F4B1CF10
:1042C00053CECC2061F08C2F8F7192FF4DCE98E0B1
:1042D000899F90011124236020936C0745CE81E0D3
:1042E0000E94EE06A1E0AE1508F036CF82E00E94F3
:1042F000EE0632CF8C2F8F7137CEEE2009F4ADCF82
:10430000D93349F4BFEFE7EEF3E0B150E040F040BD
:10431000E1F700C000008D2F0E94F5101DCF8091A5
:10432000B007803178F48091AF07882359F0E0918D
:104330007107209170073091AB074091AA0757E0B1
:104340002E1301C008956E2F70E05E9FF0011124BE
:10435000DF01AE58B84F14968C911497882361F101
:1043600011968C911197831327C08C91841324C0CC
:1043700015968C91159781111FC012968D919C9165
:10438000A091AC07B091AD078A1B9B0B8F3A9105AA
:1043900098F48091B0078F7080618093B007E858DF
:1043A000F84F80818F70806180838AEA97E00E9455
:1043B000E91A0E94E4060895FB013196E770C0CF28
:1043C000ADE0B0E0E6EEF1E20C94D12F8C0186E096
:1043D000F801DE01189601900D928A95E1F7F80137
:1043E000E080F580A280B380C4808AEA882E87E0CE
:1043F000982E7090AE07711020C0CC20D9F0FF200D
:1044000009F419C1C8010E94C809882309F413C11D
:1044100087E0F801D40101900D928A95E1F7F1E06F
:10442000CF1206C08091AA079091AB070E94B909EC
:104430000E948F21FF24F39451C0D090AF07809148
:10444000AC079091AD079501281B390BDD2009F4CD
:10445000BAC02F3A310508F090C0CC2059F39091A2
:10446000AB07C1808091B007803108F058C0C912F5
:1044700014C09091AA079E1110C0F1104AC08F700D
:1044800080618093B0078AEA97E00E94E91A8091E0
:10449000B007F8018683F12C21C0F1103AC040E04A
:1044A0006C2D8E2D0E94440F40E06C2D8E2D0E94AD
:1044B000440FF82E8111EFCF888599850E94B909A4
:1044C000292F22952F70903470F49F702230A0F025
:1044D0009923B1F0F8019681903190F48F2D2D96AB
:1044E000EDE00C94ED2F2A5F2F70223068F0C801A8
:1044F0000E94E91AFD2CF2CF992311F0882371F361
:10450000805E883058F3F3CF803F40F3815F823084
:10451000F9CF8091B00781608093B007BCCFC912FA
:1045200007C09091AA079E1103C0FF2009F46CC038
:10453000C8010E94C809882309F47DC0FF2009F43E
:104540007AC08091B007803278F02091AA0730912C
:10455000AB073A832983BC82AB827D821E828F8324
:10456000CE0101960E94E91A87E0F801AAEAB7E0B5
:1045700001900D928A95E1F75BCF8091B007803171
:1045800050F48AEA97E00E94E91A87E0F401119258
:104590008A95E9F780CFCC2009F44CCF2091AB0766
:1045A00091812913C5CF9091AA079E11C1CFF11017
:1045B000BFCF8683C8010E94E91A87E0F4011192F7
:1045C0008A95E9F737CF2F3A3105F8F6CC2009F470
:1045D00031CFFF2081F19091AB078181981321C0E9
:1045E0008091AA078E111DC08091B00780FD10C078
:1045F000803170F08683807F803F39F08681982FEC
:10460000907F905F8F70892B8683C8010E94E91A82
:1046100087E0F801AAEAB7E001900D928A95E1F7E8
:1046200009CFC8010E94C80981119ECF8091B007AF
:1046300081608093B007C8010E94E91AFBCEABE10C
:10464000B0E0E5E2F3E20C94DB2F4E8B5F8B688FDA
:10465000798F8A8F9B8F911110926F071D8A86E048
:10466000FE017696DE011F9601900D928A95E1F784
:104670008B89882329F061E0CE010F960E94990969
:1046800087E0FE013F96DE01189601900D928A9513
:10469000E1F7CE0108960E94E02181112BC087E04E
:1046A000FE013896DE01119601900D928A95E1F790
:1046B00020917007409171078C858823D9F030E0F4
:1046C000C90101968770992750E084179507E9F092
:1046D00097E0929FD001939FB00D1124AE58B84F30
:1046E000FE01319601900D929A95E1F78093700743
:1046F0000E94E40617E0809171079091700789137A
:1047000012C06B96E3E00C94F72F0E943A111092BE
:1047100070071092710787E0EAEAF7E0DF011D9267
:104720008A95E9F7E7CF189FC00111248E58984F5A
:104730000E94E021882329F38091710790E001967F
:104740008770992780937107D6CFA6E0B0E0EBEA97
:10475000F3E20C94DA2F0E946D1A8C018091050708
:10476000909106078017910779F019821A820E94AA
:104770006D1ABC0149815A8180E090E00E941F239C
:1047800010930607009305072696E4E00C94F62F95
:10479000A0E1B0E0EEECF3E20C94D12F1A82198282
:1047A000FE01339686E0DF011D928A95E9F783EFDB
:1047B000A82E81E0B82E8E010F5F1F4F4801EE2416
:1047C000E394F12C2DEFC22E21E0D22EF501819140
:1047D0005F018F3F09F441C0F894E82FE295EF7034
:1047E000F0E021A18F70A70102C0440F551F8A95E8
:1047F000E2F7CA01922F982B91A392A18095892369
:1048000082A3789400C0E7EFF1E031E0712C2191B0
:104810002F3F09F497C0A22FA295AF70A05EB0E021
:104820008C9190E02F7002C0959587952A95E2F7BC
:104830008170811187C0832F782A330FCE16DF064F
:1048400031F7F501319780818F3F11F00E94F00917
:1048500050EA5A95F1F7D8017C920F5F1F4FB7EFDE
:10486000AB16B1E0BB0609F0B1CF48E050E0B401AF
:1048700086E294E00E94403000912F0410E0045A38
:104880001B4F892B09F460C088E0F401A6E2B4E074
:1048900001900D928A95E1F781E0809357030E9481
:1048A0006D1A90935603809355038091FF068823D9
:1048B00009F4A3C01A8619861C861B8680916003A2
:1048C0008A3008F063C07E01E9E0EE0EF11C4CE591
:1048D00055E1B701C8010E94EC0F6701882309F474
:1048E0007AC04DE255E1B701C8010E94EC0F882360
:1048F00009F471C04DE854E1B701C8010E94EC0F02
:10490000882309F468C04CE355E1B701C8010E944F
:10491000EC0F882309F45FC01092600380912E048D
:1049200090E044E050E0B601845A9B4F0E94403032
:1049300021E020935403892B09F03FC06096EDE0FD
:104940000C94ED2F80E078CF80915703882309F4F1
:10495000ACCF80915503909156030E94791A059728
:1049600008F4A3CF44E050E066E274E0C8010E947E
:104970004030892B41F084E0E6E2F4E0D801019078
:104980000D928A95E1F7109257038FCF80915203D1
:10499000909153030E94791A843F914008F093CF7D
:1049A00080915403882351F2FE01399684E0DF019F
:1049B0001D928A95E9F710925403E0912E04F0E0DD
:1049C000E45AFB4F89859A85AB85BC8580839183AA
:1049D000A283B383B3CF809160038F3F39F40E94E9
:1049E0006D1A9093530380935203DACF8F5F8093B5
:1049F00060038A3008F492CFF2CFE0902E04F12CBD
:104A0000F701E45AFB4F7F01F80180819181A28177
:104A1000B3818093EA069093EB06A093EC06B093E3
:104A2000ED068AEE96E00E940E0E8093E9068091D4
:104A3000EE069091EF06A091F006B091F106F70115
:104A400080839183A283B383C090F206D090F30653
:104A5000E090F406F090F50680914E0390914F039C
:104A6000A0915003B0915103C816D906EA06FB067F
:104A7000B1F0C0924E03D0924F03E0925003F092F7
:104A800051030E94920CC61AD70AE80AF90AC0928A
:104A90000107D0920207E0920307F092040788E032
:104AA000E6EFF6E0ACE5B7E001900D928A95E1F70C
:104AB00045CFCDB7DEB760970FB6F894DEBF0FBE17
:104AC000CDBF85B7806885BF85B7806885BF84B74F
:104AD000877F84BF0FB6F894A895809160008861A5
:104AE00080936000109260000FBE80E890E00FB6E7
:104AF000F89480936100909361000FBE81E08093F1
:104B000044018EEE99E090932503809324030E9444
:104B1000EF0D0E94E90E8091E20084608093E20034
:104B2000789480915B04882399F08091E90010913A
:104B3000EC001795112717958F70182B1092E9002C
:104B40008091E80083FD0E9472111F701093E900AC
:104B500082E084BD93E095BD9AEF97BD80936E008F
:104B60001092010710920207109203071092040797
:104B70008091D80080618093D8002AE12A95F1F7CE
:104B800000C08091D90080FF3EC281E08093FF0683
:104B900080930007809305010E94552E80910501A6
:104BA0008091050191E08927880F880F80932F0459
:104BB00094E0981B90932E0484E90E94F00986E605
:104BC0000E94F00987E90E94F00986EC0E94F00932
:104BD00007EF11E09DEFC92E91E0D92ED8018D91FC
:104BE0008D018F3F11F00E94F009C016D106B1F778
:104BF00088E0ECE5F4E0DF01482E1D924A94E9F7E5
:104C0000E6E2F4E0DF011D928A95E9F780E090E0AA
:104C10000E947530853E9E4F09F461C065EE7EEFBF
:104C200080E090E00E94A93060E082E090E00E9485
:104C30008B3081E090E0909369078093680761E092
:104C400083E090E00E948B3060E074E184E090E0CB
:104C50000E94A93060E086E090E00E948B3060E026
:104C600087E090E00E948B3040E050E0BA0188E09D
:104C700090E00E949D3060E083E290E00E948B30E3
:104C800060E08CE090E00E948B3060E08DE090E08E
:104C90000E948B3019821A821B821C821D821E8206
:104CA0001F82188648E050E067E170E0CE0101966F
:104CB0000E947B3040E050E0BA018FE190E00E941A
:104CC0009D3040E050E0BA018FE090E00E949D30BE
:104CD00040E050E0BA0183E190E00E949D3082E024
:104CE00090E00E946D3080938D0484E090E00E94FB
:104CF000753090936E0780936D0783E090E00E947B
:104D00006D3090E00E944F060E94A30B1092300479
:104D100040E150E06FEF70E089E494E00E9456308B
:104D20001092640440E150E06FEF70E08DE794E092
:104D30000E94563081E08093640748E050E067E1CC
:104D400070E08CE597E00E945D30109264078091DE
:104D50005C078430F8F485E080935C07809148011B
:104D600090914901A0914A0180935D0790935E075D
:104D7000A0935F078FE7809360078FEF80936107B1
:104D800048E050E067E170E08CE597E00E947B30FE
:104D9000109264078091FF0691E08927880F809325
:104DA000C80680E88093A0040E94D92C6BE070E0D4
:104DB00089E298E00E943419882309F443C0809165
:104DC000C80665E070E081FD29C184E298E00E9498
:104DD00034198823B9F16DE070E082E198E00E9417
:104DE0003419882379F10E94920C69877A878B871E
:104DF0009C87DC01CB01805A9541AF4FBF4F809318
:104E0000CC069093CD06A093CE06B093CF06E8ECE7
:104E1000F4E080E092E0DF019C011D9221503040DF
:104E2000E1F7F0939F04E0939E048FEF9FEF909340
:104E3000CB068093CA0681E08093D3068093D00688
:104E40001092C9068091FF06811102C00E94582E5F
:104E500086E091E0909328078093270780915B0478
:104E6000853069F410E400E182E1F82E80915B0462
:104E7000853009F4D6C00E943A110E94D10B0E94DD
:104E8000C823AEE8B4E0BA87A987ECE5F4E0FE8772
:104E9000ED87DF01EEE8F4E091918D9116E9412E66
:104EA00014E0512E4E165F0609F4F3C09817A1F3D3
:104EB0002090FF06ADEFAA2EA1E0BA2ED12CAD8531
:104EC000BE85CD90BE87AD87E985FA853190FA879A
:104ED000E9873C14B1F13C244501512C442443940E
:104EE000842D8321882309F1142D1C212220A1F077
:104EF0005982DA820E946D1A9C838B83F1E0FD83D4
:104F000091E0111101C090E09E8349815A816B812B
:104F10007C818D810E941F238091640411111BC12B
:104F2000FE2C893008F047C1EF2C5394440CEFEF6E
:104F30008E1A9E0AF6E05F12D3CFE985FA85319783
:104F4000C082D39426E0A20EB11C38E0D312B7CFB2
:104F50000E94AF0CF090FF06F110A5C00E94FE1554
:104F6000F090D306FF2009F4F3C08091D106909110
:104F7000D2060E94791AC29708F4A8C10E946D1A3D
:104F80009093D2068093D10688EC94E090939F048E
:104F900080939E048091FF06882309F47BC287ECEE
:104FA00098E00E94321A80916A0790916B07292F2E
:104FB0003327E0E02115310511F0C901E8E09C013B
:104FC000B4E036952795BA95E1F72115310511F032
:104FD000EC5FC9019C0136952795369527952115DB
:104FE000310511F0EE5FC90196958795892B09F07F
:104FF000EF5F8CE798E0E83008F027C1F0E0ED5F64
:10500000FE4C0C9431300E94EF0D10925B04109214
:10501000FF061092000710920501C0CD8FE198E0C5
:10502000D6CE80915B04843039F10E94FE150E9437
:1050300041191092590448E150E00FB6F894A89530
:10504000409360000FBE1093600083B7817F84603F
:1050500083BF83B7816083BF7894889583B78E7F41
:1050600083BF0FB6F894A895809160008861809303
:105070006000109260000FBE0E94C823ECE5F4E0CF
:1050800081918111D1C284E694E08E179F07C1F708
:10509000EDCE98130DCF0E94A523F090FF06FF20C0
:1050A00009F4BCC0F12C009152071091530701156F
:1050B000110509F444C080919A0490919B04A09139
:1050C0009C04B0919D04BC01CD010E94E20C698753
:1050D0007A878B879C878091960490919704A09102
:1050E0009804B091990449845A846B847C8448164E
:1050F00059066A067B0618F1C8010E942506980128
:10510000205E31092830310508F09AC00E941F1135
:10511000802F0E948F101092520710925307109206
:105120009A0410929B0410929C0410929D04109279
:1051300096041092970410929804109299040E9479
:10514000FE158091D306811110CFFF2009F46CC0A9
:105150000E94531969C0D401FC90BFEFFB1609F4FB
:10516000DFCE01E010E0EE24E394883038F5409182
:1051700064048F2D90E0242F30E0F901EC59FB4FAF
:10518000DC01AA0FBB1FA35DBD4F5C915183880F4B
:10519000991FDC01A350BE4FD1968C918187F18A73
:1051A000F901EE0FFF1FEC59FB4F128E118E4F5F6E
:1051B00040936404B9CE00E010E0E12C78E0672E63
:1051C000712C601A710AB8016B597B4FA30185E6F7
:1051D00094E00E944D30B80163597B4FA3018DE6E6
:1051E00094E00E944D30A301440F551FB801660F93
:1051F000771F63587B4F8DE794E00E944D30B801D4
:105200006B587B4FA30185E794E00E944D3088E006
:105210008E1980936404E110AACF86CE0E94FE15F9
:105220008091D3068111A1CE0E94D10B9091D4061A
:10523000891709F413CE8093D4060E94920C0ECEE7
:105240000E94301165CF8FEB98E00E94401A809148
:105250004C07805D0E9480198AE798E00E94321A0C
:1052600080914B07805D0E94801986E798E00E943C
:10527000321A8091490790914A072091100130918C
:1052800011018217930709F075C02091A7042032FD
:1052900009F070C0E1EAF4E06F0181918032E1F33E
:1052A000F60101900020E9F78F0101501109C016A5
:1052B000D10608F4E9C084E798E00E94321A809190
:1052C00045010E94801981E00E94001A8091CA065F
:1052D0009091CB06892B99F08091D306882379F0A1
:1052E0008091C90681110BC00E9453192091CA06F2
:1052F0003091CB0680E02115310509F0D1C08091B5
:10530000D006882309F421CF0E94920C69877A87FE
:105310008B879C878091CC069091CD06A091CE067C
:10532000B091CF0649845A846B847C84481A590A08
:105330006A0A7B0A2FEF4216520662062FE77206B0
:1053400008F003CF0E94411900CF88EB98E07DCF91
:1053500080EB98E07ACF85EA98E077CF8AE998E009
:1053600074CF80E998E071CF88E898E06ECF82E84A
:1053700098E06BCF909311018093100120E220936D
:10538000A7049C0140E050E029873A874B875C875F
:105390001092A60476EAC72E74E0D72EEAE08E2E8D
:1053A000912CA12CB12CCA01B901A50194010E9434
:1053B0000F306D877E878F87988B8D85805D4D84BC
:1053C0005E846F84788800E010E0452846284728EE
:1053D00061F565EAC62E64E0D62E8093A504298780
:1053E0003A874B875C8769857A858B859C85A50183
:1053F00094010E940F306D877E878F87988B8D85F3
:10540000805D2D853E854F85588901E010E0232B76
:10541000242B252B51F480E249845A846B847C84AC
:1054200045284628472809F080E39AE0892E912CE8
:10543000A12CB12CD6018E936D0169857A858B855F
:105440009C85A50194010E940F3029873A874B87DC
:105450005C870F5F1F4F0530110509F41BCFCA0190
:10546000B901A50194010E940F306D877E878F8757
:10547000988B8D85805D4D845E846F847888452807
:1054800046284728B9F6C7CFD6018D916D010E94F5
:1054900080190DCF84E398E00E94321A17CF8F5FF6
:1054A000082F10E0CC24C394D12C082E02C0CC0CC1
:1054B000DD1C0A94E2F7A60142235323452B79F31E
:1054C0009091C80690FD43C0980136952795369572
:1054D0002795922F8295880F80763FE1380F809331
:1054E000140120931701309315019093180124E6BD
:1054F00030E047E050E062E171E088E70E940F2D64
:10550000892B09F0FCCEA801F5E0440F551FFA9550
:10551000E1F78091C80680FD22C048535B4F04E646
:1055200010E020E230E060E488E70E94A72D892B9C
:1055300009F0E5CEC094D0948091CA069091CB0634
:10554000C822D922D092CB06C092CA06D8CE880FE4
:10555000880F880F37E0380F20E093E0C0CFE8EAEB
:10556000F4E080E2DF011D928A95E9F7E3EDF2E0D5
:10557000FA87E9876FEC72E037ED232E32E0332EA5
:10558000E7E08E2EE985FA85A191FA87E987FB018C
:105590008191BF01840F952F911D9C0128533B4F92
:1055A0002901EA2FF0E0E855FB4F80E090E0682CFD
:1055B000681A99249394082E01C0990C0A94EAF76A
:1055C0008201A12CD801BD908D01B920262D2A1968
:1055D000277030E0BB2D022E01C0BB0F0A94EAF702
:1055E0003195219531092770332701C0B6942A954A
:1055F000EAF7BB2A20812B292083A39428E0722E6E
:10560000A710E0CF019631968830910581F6298563
:105610003A852216330609F0B5CF04E610E020E201
:1056200030E048EA54E07FCF80915A04882309F49F
:105630001DCC09BDF9BC09B400FEFDCF8091D80096
:105640008F7D8093D8008091E00082608093E0009D
:105650008091E00081FDFCCF0E943A1107CC789444
:105660001F921FB61F9211248F939F93AF93BF93E6
:105670008091740390917503A0917603B0917703A4
:105680000196A11DB11D8093740390937503A0939F
:105690007603B0937703BF91AF919F918F911F9045
:1056A0001FBE1F9018951F920F920FB60F921124D4
:1056B0002F933F934F935F936F937F938F939F931A
:1056C000AF93BF93EF93FF938091E10082FF09C0F6
:1056D0008091E20082FF05C08091E1008B7F809382
:1056E000E1008091DA0080FF24C08091D80080FF23
:1056F00020C08091DA008E7F8093DA008091D900FB
:1057000080FFA9C080E189BD82E189BD09B400FEA6
:10571000FDCF81E080935B0480916303811109C018
:105720000E94EF0D0E94E90E8091E2008460809358
:10573000E2008091E10080FF1AC08091E20080FFCA
:1057400016C08091E2008E7F8093E2008091E2009B
:1057500080618093E2008091D80080628093D800BD
:1057600019BC85E080935B0483E0809344018091C1
:10577000E10084FF2FC08091E20084FF2BC080E114
:1057800089BD82E189BD09B400FEFDCF8091D800BA
:105790008F7D8093D8008091E1008F7E8093E1001F
:1057A0008091E2008F7E8093E2008091E200816030
:1057B0008093E20080916203882309F452C084E060
:1057C00080935B0480915B04843009F052C082E0D6
:1057D000809344018091E10083FF2CC08091E2001E
:1057E00083FF28C08091E100877F8093E10082E001
:1057F00080935B04109262038091E1008E7F80931E
:10580000E1008091E2008E7F8093E2008091E200CF
:1058100080618093E20042E060E080E00E94B20E8E
:105820008091F00088608093F00081E080934401D3
:1058300080934301FF91EF91BF91AF919F918F9121
:105840007F916F915F914F913F912F910F900FBE7C
:105850000F901F90189519BC10925B04109263036F
:1058600068CF8091E30087FF02C083E0A9CF81E089
:10587000A7CF81E0ADCF1F920F920FB60F921124E8
:10588000FF920F931F932F933F934F935F936F93C9
:105890007F938F939F93AF93BF93CF93DF93EF93B8
:1058A000FF9309EE10E0F8018081C091EC00C795EC
:1058B000CC27C7958F70FC2EF82A1082C0EFD0E05D
:1058C0008881877F888378940E947211F801108202
:1058D000888188608883CF2DCF70C083FF91EF913E
:1058E000DF91CF91BF91AF919F918F917F916F91F8
:1058F0005F914F913F912F911F910F91FF900F90CA
:105900000FBE0F901F901895FF920F931F93CF9388
:10591000DF93182FEB011092BC0084EA8093BC0047
:105920000E946D1A082FF92E8091BC0087FF28C0B5
:105930008091B900887F883029F08091B900887FF4
:105940008031A1F51093BB0084E88093BC000E94D5
:105950006D1A182F092F8091BC0087FF1FC020915E
:10596000B900287F80E090E0283199F081E090E054
:10597000203411F480E090E091958195910909C05F
:10598000802F9F2D0E94791AC817D90768F68EEFCD
:105990009FEFCDB7DEB7E5E00C94F52F812F902F68
:1059A0000E94791AC817D907B0F6F1CF8FEF9FEF91
:1059B000F0CF1092B9008CE08093B80008950F9357
:1059C0001F93CF93DF93EB018093BB0084E8809318
:1059D000BC000E946D1A182F092F8091BC0087FF10
:1059E00011C02091B900287F81E090E0283211F4A5
:1059F00080E090E0919581959109DF91CF911F9181
:105A00000F910895CF3FDC0741F3812F902F0E9423
:105A1000791AC817D90708F78EEF9FEFEECFA0E0ED
:105A2000B0E0E5E1FDE20C94D12F782E5B016A0134
:105A300089010E946D1A4C010431110560F10F3F7C
:105A4000100769F1C80164E170E00E94B82FF62EDA
:105A5000E72E6F2D7E2D872D0E94842CEC0197FF61
:105A600009C00F3F1007A9F3C4010E94791A081753
:105A7000190778F77501CA0CDB1CEC14FD0411F052
:105A8000D7FF10C084E98093BC00CE01CDB7DEB74C
:105A9000EDE00C94ED2FFF24F394E12CDACF85E0B8
:105AA000F82EFBCFB801F70181917F010E94DF2C16
:105AB000EC01E3CFA0E0B0E0E0E6FDE20C94D12FF2
:105AC000782E5B016A0189010E946D1A4C01043134
:105AD000110560F10F3F100769F1C80164E170E042
