:100000000C942A060C9447060C9447060C94033172
:100010000C9447060C9447060C9447060C9447062C
:100020000C9447060C9447060C94B92D0C94A12E01
:100030000C94E0160C9447060C9447060C94470663
:100040000C9447060C9447060C9447060C944706FC
:100050000C9447060C94952D0C9447060C94470677
:100060000C9447060C9447060C9447060C944706DC
:100070000C9447060C9447060C9447060C944706CC
:100080000C9447060C9447060C9447060C944706BC
:100090000C9447060C9447060C9447060C944706AC
:1000A0000C9447060C9447060C94470600AF00AE2C
:1000B0000000000000003E5B4F5B3E003E6B4F6B5C
:1000C0003E001C3E7C3E1C00183C7E3C18001C5729
:1000D0007D571C001C5E7F5E1C0000183C18000051
:1000E000FFE7C3E7FF00001824180000FFE7DBE785
:1000F000FF0030483A060E00262979292600407F65
:1001000005050700407F05253F005A3CE73C5A00A3
:100110007F3E1C1C0800081C1C3E7F0014227F220E
:1001200014005F5F005F5F0006097F017F000066CB
:1001300089956A0060606060600094A2FFA29400EC
:1001400008047E04080010207E20100008082A1CE5
:100150000800081C2A0808001E10101010000C1EB1
:100160000C1E0C0030383E383000060E3E0E0600E5
:1001700000000000000000005F0000000007000712
:100180000000147F147F1400242A7F2A12002313F6
:10019000086462003649562050000008070300003A
:1001A000001C224100000041221C00002A1C7F1C70
:1001B0002A0008083E080800008070300000080887
:1001C0000808080000006060000020100804020019
:1001D0003E5149453E0000427F4000007249494976
:1001E00046002141494D33001814127F1000274565
:1001F000454539003C4A4949310041211109070070
:10020000364949493600464949291E000000140074
:1002100000000040340000000008142241001414C3
:1002200014141400004122140800020159090600A8
:100230003E415D594E007C1211127C007F494949B4
:1002400036003E41414122007F4141413E007F490D
:10025000494941007F09090901003E4141517300AC
:100260007F0808087F0000417F4100002040413F97
:1002700001007F08142241007F40404040007F027F
:100280001C027F007F0408107F003E4141413E0078
:100290007F09090906003E4151215E007F091929A5
:1002A000460026494949320003017F0103003F40CF
:1002B00040403F001F2040201F003F4038403F008B
:1002C0006314081463000304780403006159494D62
:1002D0004300007F4141410002040810200000411A
:1002E00041417F00040201020400404040404000C0
:1002F0000003070800002054547840007F2844443D
:100300003800384444442800384444287F00385496
:100310005454180000087E0902001824241C780098
:100320007F080404780000447D4000002040403DE8
:1003300000007F102844000000417F4000007C0442
:10034000780478007C080404780038444444380079
:100350007C1824241800182424187C007C08040429
:10036000080048545454240004043F4424003C40F2
:1003700040207C001C2040201C003C4030403C00C1
:100380004428102844004C9090907C004464544CC5
:1003900044000008364100000000770000000041E2
:1003A000360800000201020402003C2623263C001D
:1003B000000000000000000000000000000000003D
:1003C000C0E0F0F8F81800C0F0FCFEFFFFFFFFFFF0
:1003D000FFFF7E00000000000000000080C0E0E0A1
:1003E000E0E0E0E0E0E0C0800000000080C0E0E08D
:1003F000E0E0E0E0E0E0C080000000E0E0C0C0E05D
:10040000E0E0E00000E0E0C0C0E0E0E0E0E0C0806C
:100410000000000080C0E0E0E0E0E0E0E0E0C0805C
:100420000000000000000000000000000000E0F0FC
:10043000F0F0E0ECEEF7F37020007C7C7C7E007E38
:100440007E7E7F7F7F000080C0E07E5B4F5BFEC0D2
:100450000000C000DCD7DEDEDED7DC00C00000001C
:10046000000000000000000000000000000000008C
:10047000000000000000000000F8FCFEFFE000FFAC
:10048000FFFFFFFFFF80FFFFFFFFFFFFFFFFFF1FDB
:100490000701000000000000000000FFFFFF8100D6
:1004A000000000000081C3C3C30000FFFFFF810004
:1004B000000000000081FFFFFF0000FFFFFF0100C0
:1004C0000000000000FFFFFF010000000001FFFF2F
:1004D000FF0000FFFFFF9D1C1C1C1C1C1C9DDFDF80
:1004E000DF000000000000000000000000000F1FFF
:1004F0003F7F7F7F7F7F3F1E0C001F1F1F3F003FFE
:100500003F3F7F7F7F00307B7F7830202030787FB7
:100510003B0003000F7F0F0F0F7F0F000300000051
:1005200000000000000000000000000000000000CB
:10053000000000000000000000030F1F3F3F3F3F8E
:100540001F1F3F3F7F7F7F3F3F1F3F7F7F7F7F7C1E
:100550007878381C0F000000000000000103070736
:10056000070707070707030100000000010307074B
:100570000707070707070301000000070707000038
:100580000000000000070707000000000000070748
:100590000700000001030707070707070707030114
:1005A000000000000000000000000000000000004B
:1005B000000000000000000000000000000000003B
:1005C000000000000000000000000000000000002B
:1005D000000000000000000000000000000000001B
:1005E000000000000000000000000000000000000B
:1005F00005010902A10185020901A10005091901EE
:1006000029081500250195087501810205010930A9
:1006100009311581257F95027508810609381581F4
:10062000257F950175088106050C0A38021581257C
:100630007F950175088106C0C005010980A101856B
:100640000319012AB700150126B70095017510811D
:1006500000C0050C0901A101850419012AA0021599
:100660000126A002950175108100C005010906A1AF
:10067000018506050719E029E7150025019508758C
:100680000181020507190029EF1500250195F07574
:100690000181020508190129059505750191029549
:1006A0000175039101C005010906A101050719E0C3
:1006B00029E7150025019508750181029501750846
:1006C00081010507190029FF150026FF0095067511
:1006D00008810005081901290515002501950575F2
:1006E000019102950175039101C009023B000201CD
:1006F00000A0FA0904000001030101000921110111
:1007000000012244000705810308000109040100DB
:10071000010300000009211101000122B6000705B4
:10072000820320000112010002000000085346016C
:10073000000100010200010C0343006F0072006E13
:100740000065000000100366006F006F0073007406
:100750000061006E000000040309040001010101B2
:10076000010101010102020202020202020203036C
:10077000030303030303040404040404040505053C
:1007800005050606060606070707070708080808FE
:10079000090909090A0A0A0B0B0B0C0C0C0D0D0DAB
:1007A0000E0E0E0F0F0F1010111111121213131441
:1007B00014151516161717181819191A1A1B1B1CB9
:1007C0001D1D1E1E1F202021222223242425262613
:1007D000272829292A2B2C2D2D2E2F303132323348
:1007E0003435363738393A3B3C3D3E3F4041424351
:1007F0004445464748494A4C4D4E4F505153545535
:100800005658595A5B5D5E5F616264656668696BE4
:100810006C6D6F7072737577787A7B7D7E80828362
:100820008587888A8C8E8F91939596989A9C9EA0A6
:10083000A2A3A5A7A9ABADAFB1B3B5B7BABCBEC0B3
:10084000C2C4C6C9CBCDCFD1D4D6D8DBDDDFE2E47C
:10085000E7E9EBEEF0F3F5F8FAFDFF00DA0281FFCD
:10086000D9F1DB20A4A62EAF00A0C0D30000A1C800
:10087000D30000AED580A81F408D14200080818257
:10088000838485868788898A8B8C8D8E8F909192C0
:100890009394A0A1A2A3A4A5A6A7A8A9AAABACAD16
:1008A000AEAFB0B1B2B3B4C0C1C2C3C4C5C6C7C88D
:1008B000C9CACBCCCDCECFD0D1D2D3D4003A002C24
:1008C000206B007800556E646566004D4F555345AA
:1008D0000053594D424F4C530046554E4354494FD7
:1008E0004E5300544F47474C45204E4156004E4111
:1008F0005649474154494F4E004E554D424552537B
:100900000051574552545900434F4C454D414B00FF
:100910004C617965723A20002B0014001A290926CF
:1009200013000500292104211524162817220A275F
:1009300024061D001B25062C072A192F0000000085
:1009400000002B452C4328422F0033001C39183659
:100950000F000D00343112310C24083811321027E9
:10096000320054003725363C0B3A0E2F00000000B1
:10097000000024522A464C472B0014001A0008009D
:1009800015001700292104001600070009000A00BD
:1009900024061D001B0006001900050000000000D1
:1009A00000002B452C0028422F00130012000C00E1
:1009B00018001C00343133310F240E380D320B0077
:1009C0003200540037003600100011000000000013
:1009D000000024522A464C472B001E001F00200016
:1009E000210022006252E000E200E300E100000783
:1009F000E1001D081B0806080708000F00000000A2
:100A0000000025522C43280038002700260025002E
:100A1000240023002D00360223002200210036008E
:100A20001F02370220001F001E00370000000000D8
:100A3000000038442746270200001E021F04090850
:100A40001308050C0000042115241628172200079E
:100A5000E1001D081B08060807081908000000002F
:100A6000000000000000000038002E004D004B0088
:100A70004E004A002D0036024F0052005100500037
:100A80001F0237020000A900AA00000000000000B9
:100A9000000038003802270230041E021F0425041B
:100AA000260420023000230221042502260222020D
:100AB00024062404300264006402320200000000B4
:100AC0000000390067526252000000004D004B00E8
:100AD0004E004A00000000004F005200510050003C
:100AE000E50000000000A900AA00000000000000CE
:100AF00000000000000000001B700000000000006B
:100B0000000000001C70E000E200E300E100005281
:100B1000207823782578277821780152000000007A
:100B2000000000000000000038002E0042004100DC
:100B3000400045002D0036023F003E003D004400CD
:100B40001F0237023C003B003A0043000000000057
:100B5000000039002A004C0030041E021F04250446
:100B6000260420023000230221042502260222024C
:100B700024062404300264006402320200000000F3
:100B800000002C002C0028000000000000000000E5
:100B9000000000000000E000E200E300E1000000CF
:100BA000E500000000000000000000000000000060
:100BB00000000000000000002B0000000000CD003D
:100BC0000000D9006752DB00CF00CE00D000DC006F
:100BD00000000000000000000000DA00000000003B
:100BE00000002C00D100D200000000002B014F08B3
:100BF00050082B030000E4004F24523851325000BB
:100C0000DF00DE00DD00D200D100D30000000000D4
:100C100000000000000000002020202061626364CA
:100C200065666768696A6B6C6D6E6F7071727374FC
:100C300075767778797A31323334353637383930DA
:100C4000524542545F2D3D5B5D5C233B27602C2E5B
:100C50002F20202011241FBECFEFDAE0DEBFCDBF52
:100C600013E0A0E0B1E0E8E4F7E602C005900D92E1
:100C7000A231B107D9F727E0A2E1B3E001C01D928C
:100C8000AC3AB207E1F70E94D8260C9429330C94B1
:100C900000009C019A9581159F4118F5F901EE27F6
:100CA000F270832F8170B90166277470A9014427FF
:100CB000587034FF0CC08295807FEF2B09F0806262
:100CC000672B09F08064452B69F080680895EF2B4D
:100CD00009F08260672B09F08460452B19F0886069
:100CE000089580E0089590936407809363070895C2
:100CF0009093660780936507089521E030E002C075
:100D0000220F331F8A95E2F780916507909166075D
:100D1000822B932B0E947806089521E030E002C0D8
:100D2000220F331F8A95E2F7209530958091650751
:100D300090916607822393230E9478060895983045
:100D400098F5863088F5E82FF0E086E0989FE00D72
:100D5000F11D11248E2F877041E001C0440F8A9548
:100D6000EAF783E0F695E7958A95E1F7EE0FFF1F26
:100D7000EE0FFF1FED5DF84F20E030E070E0519185
:100D8000DF011197CB01022E02C0969587950A9438
:100D9000E2F7817081958527842385278C932F5FC7
:100DA0003F4F2430310559F70895983078F5863053
:100DB00068F5E82FF0E086E0989FE00DF11D112422
:100DC0009E2F977083E0F695E7958A95E1F7EE0FF1
:100DD000FF1FEE0FFF1FED5DF84F40E050E080E099
:100DE000219130E0092E02C0369527950A94E2F74A
:100DF00021703327042E01C0220F0A94EAF7822BB8
:100E00004F5F5F4F4430510559F7089580E00895D2
:100E100080916C0790916B07981301C008958F5FC4
:100E20008770FACF90916707809589238093670731
:100E3000282F277021110DC0891759F0909169074B
:100E400092FF07C08695869586950E948D06109222
:100E5000670708959091600780916A07982B5091D9
:100E600061075523C1F0809143018130E1F4809105
:100E7000680787FF18C08DE12EE133E040E0F901FB
:100E800060812F5F3F4F61114F5F8150C0F741116B
:100E900010926107952B8091490780958923909145
:100EA0004807892B089585E026E133E0E7CF982FA6
:100EB000909580916007892380936007089578302A
:100EC000B8F46630A8F48830B0F4E62FF0E096E08D
:100ED000799FE00DF11D112490E3899FE00DF11D34
:100EE0001124EE0FFF1FE85EF64F8591949108954F
:100EF00080E090E0089581E0FCCF803E9105D1F143
:100F0000C8F48133910509F47FC048F48932910512
:100F100009F46FC08A32910509F47DC008958933C0
:100F20009105E1F082389105C9F08533910509F406
:100F30005BC00895843E9105D1F148F4823E91054D
:100F400031F1833E910541F181EE90E00895863EB6
:100F50009105C1F1873E9105E1F10895209168075F
:100F60002370211165C02091690723FF14C089E215
:100F700090E008952091680720FD43C030916907F3
:100F800030FF09C024FF4EC080E090E0089520911A
:100F9000680722FDF7CF08952091680722FD45C01C
:100FA0003091690730FD44C024FFF5CFEDCF20918B
:100FB000690721FFF0CF8091680784FDE5CF87EEB8
:100FC00090E008952091680723FFE5CF24FDDCCF52
:100FD000F6CF2091680723FD2EC03091690731FFBD
:100FE000E3CF84EE90E008952091680725FFD3CFEA
:100FF000BECF2091680725FD21C02091690723FFFE
:10100000CACF89E390E008952091680726FFC3CFF7
:101010008AE290E008952091680726FFBCCF81E323
:1010200090E0089583EE90E0089582EE90E00895B8
:1010300080EE90E0089586EE90E0089585E390E0DC
:10104000AACF9091680792FF10C041E0282F247129
:10105000243009F040E031E0282F2871283009F0D1
:1010600030E0431711F02CE0822793FF10C041E0DD
:10107000282F2471243109F040E031E0282F287115
:10108000283109F030E0431711F02CE0822730912D
:10109000690730FF10C051E0282F2171213009F07D
:1010A00050E041E0282F2871283009F040E0541723
:1010B00011F029E0822731FF10C041E0282F217173
:1010C000213109F040E031E0282F2871283109F062
:1010D00030E0431711F029E0822794FD877E0895C0
:1010E0001F93CF93DF930E947D07EC01811522E5CA
:1010F000920708F053C0811540E5940708F0DDC061
:10110000803E9105F8F48D3C910508F0AEC0883A18
:10111000910580F4853A910508F099C081309105D8
:1011200021F00497813A910550F4CE01DF91CF91DF
:101130001F910895885A91094B9708F48BC0C0E01D
:10114000D0E0F3CF811550E49507F8F4C11580E2A3
:10115000D80708F0CBC0C83ED10538F3CE019A9528
:1011600081159F4160F78D2F0E942108182FCE0115
:1011700099270E947D07212F30E0322F2227E90195
:10118000CC27DF71C82BD92BD0CF99270E947D07A0
:10119000CC27DF70C82BD92BD06AC7CF803842E567
:1011A0009407C8F5803652E5950708F067C0C0344B
:1011B00082E5D807B0F08C2F86958695877020E25F
:1011C000829FC0011124C37021E030E0A90102C058
:1011D000440F551FCA95E2F7EA01C82BD92BDC68EA
:1011E000A4CFC03252E5D50708F041C08C2F8695B8
:1011F000869520E2829FC0011124C37021E030E077
:10120000A90102C0440F551FCA95E2F7EA01C82B95
:10121000D92BDD688ACF803C52E5950760F48F7149
:10122000C03AD24508F03FC090E0982F8827EC01E3
:10123000C46FD06A7ACF805C9245809708F07FCFE8
:10124000DC2FCC27CC27DF71C06FD06A6ECFA4977C
:10125000D0646BCFC85AD0E0CC0FDD1FC753DD4F31
:101260000990D881C02DD46460CFD0655ECFCF7196
:10127000D0E0DC2FCC27C16FD06A57CF86958695FA
:10128000877020E2829FC0011124C37021E030E00A
:10129000A90102C0440F551FCA95E2F7EA01C82B05
:1012A000D92BDA6842CF0E942108C82FD0E0DC2F6A
:1012B000CC27CC27DF71D06238CF8F710E942108F4
:1012C00065E0D695C7956A95E1F7CF70D0E0DC2F41
:1012D000CC27282F30E084FF05C054E0220F331FB5
:1012E0005A95E1F7C22BD32BD0691FCF8D2F8F7169
:1012F0000E942108182FCE0199270E947D07212FD7
:1013000030E0322F222722273F71282B392BE90189
:10131000D2CFA0E0B0E0EFE8F9E00C943B328C01D2
:10132000E0906507F09066078091630790916407ED
:10133000E82AF92ACFE0D0E0CC24C394D12CC6010E
:101340000C2E02C0880F991F0A94E2F78E219F216C
:10135000892B49F4219798F7B12C8B2DCDB7DEB7A7
:10136000E9E00C945732BC2EB8018C2F0E945F0725
:101370000E947008019771F3F0CF0F931F93CF93E2
:10138000FC01858100811181882391F0662381F021
:10139000C8010E948909C82F682FC8010E949F06B2
:1013A000B8018C2F0E945F07CF911F910F91089574
:1013B000C8010E94D506C82FF3CFCF93DF93D82F53
:1013C000C92F0E9489096D2F7C2F0E945F070E9400
:1013D0007008DF91CF910895FC0184818823A1F0EA
:1013E000808191810E94DD09282F92959F7096300F
:1013F00091F060F4925F9F70923030F481E0203F72
:1014000079F030F4283E30F080E004C09A5FF3CFEA
:10141000243FD1F7089581E0283E18F0213FF9CF0D
:101420000895089580E00895F894E82FE295EF700C
:10143000F0E041A18F7021E030E0B90102C0660FF9
:10144000771F8A95E2F7CB01962F9095942391A36D
:1014500092A1892B82A378940895A0E0B0E0E3E301
:10146000FAE00C943C32E82FF0E0E55AF84F7111A5
:1014700009C0E4918E2F7E2F6E2FCDB7DEB7E8E046
:101480000C945832262F30E0C72FD0E0F491EF2F84
:1014900086E0829F8001839F100D1124EE24EA9440
:1014A000F12CC801B7010E941E32AB01220F331F7D
:1014B00065E5649FC001659F900D1124281B390BC1
:1014C000822F880F280FC7018C1B9D0BF89FD0011E
:1014D000F99FB00D11248B2F2C9FB0012D9F700D03
:1014E0001124672F77276701C61AD70AB601F69F1E
:1014F0006001F79FD00C1124B701621B71099B0199
:101500002C9FB0012D9F700D3C9F700D1124672FF3
:1015100077279701261B370BF29FE001F39FD00D31
:1015200011247D2F43305105C9F00C3F93E019077A
:1015300058F441305105B1F04230510509F09CCFCB
:10154000EB2F8D2F7F2F98CF4430510571F046300F
:10155000510509F491CF7B2F8D2D8ECF7D2DEB2F53
:101560008F2F8ACF7F2FED2D87CFED2F7B2FF8CFB9
:10157000982F8091F206882329F081E09B3108F0B2
:1015800080E0089581E09533FACF9C0180E090E0FF
:10159000269F812D369F800D911D11240895982F2F
:1015A000E82F96FDE0958E2F8F7096FD8F5FE69564
:1015B000E695E695E670F0E0E552FE4F2181289F22
:1015C000202D812D112422952F708295807F282B2C
:1015D0008081820F97FD8195805808951F93CF9346
:1015E000DF93D62FC72F182F822F86950E94CF0A00
:1015F000805887FD8195880F282F219F212D112448
:10160000822F6D2F7C2FDF91CF911F9108950F9323
:101610001F93522F10E0F801EE0FFF1FE351FE4F12
:10162000A1A9A052BB0B9D015203F001539FF00DE5
:101630001124000F111FD801A35EBD4F2C9120571C
:10164000330B4203D001439FB00D11249F012A0F99
:101650003B1F37FF02C0215C3F4F96E03595279531
:101660009A95E1F7620F1F910F91089550E0FA01EA
:10167000EE0FFF1FE351FE4F31A9440F551FFA0132
:10168000E35EFD4F9081931B692F660F690F313226
:1016900010F0620F0895621B0895EF92FF920F936E
:1016A0009701201B31092F3F310519F010F02FEF62
:1016B00030E0322F3095482F430F08F44FEF842F3E
:1016C000620F0F91FF90EF9008953091F206311163
:1016D00004C08B3191050CF04B970E94C90B089503
:1016E000FF920F931F93CF93DF93182F062FF42EA3
:1016F000C0E0D0E02F2D402F612FCE010E94650B5E
:101700002196C633D105B1F7CDB7DEB7E5E00C942D
:101710005B329BE0899F802D1124980F973308F04E
:1017200096E32091F206211104C08B3128F48BE15D
:1017300008959C3108F09BE10895E7E5F7E080818A
:1017400091E0892780831092470180915F07816033
:1017500080935F070895E7E5F7E0248130E1230FE8
:1017600008F42FEF248380915F07816080935F07E7
:101770000895E7E5F7E0248130E1231B08F420E039
:10178000248380915F07816080935F070895539A57
:101790000895FC01EE0FFF1FE80FF91FE659FC4FFB
:1017A0006183408322830895FC0185818623811112
:1017B0000AC082818823B9F06823918593FF05C010
:1017C00081E061110FC080E00895282F22952F70CD
:1017D0008F70282B962F92959F706F70962B81E0BB
:1017E0002913F1CF089581E0FDCF282F35EB230396
:1017F000C001112497FF04C080589109892F0895D2
:1018000080589F4FFBCF80913D0780FD14C081FD24
:1018100014C082FD16C080913C07882381F08E3170
:1018200080F428E2829FC00111246EE170E00E94E2
:101830007532862F08958AE0089584E1089584E042
:10184000089588E2089580913D0780FD17C081FDCD
:1018500017C082FD19C080913B07882399F0883218
:1018600098F428E0829FC001112468E270E00E9491
:1018700075326115710551F0862F089562E0FCCF35
:1018800064E0FACF61E0F8CF68E0F6CF81E0089538
:101890008091F106882359F0E0911907F0911A0719
:1018A000309729F00190F081E02D0995089580E0AE
:1018B0000895A3E0B0E0EFE5FCE00C9442329C0117
:1018C000809168039091690382179307A1F0309388
:1018D000690320936803E0911907F0911A07309784
:1018E00051F083E089833B832A830084F185E02DD6
:1018F000CE01019609952396E2E00C945E32A3E0B6
:10190000B0E0E5E8FCE00C9442329C018091660373
:101910009091670382179307A1F030936703209398
:101920006603E0911907F0911A07309751F084E0AF
:1019300089833B832A830084F185E02DCE010196C3
:1019400009952396E2E00C945E3290914301913028
:10195000C1F49091680797FF14C0E82FE695E695CB
:10196000E695803FF8F4F0E0E45EFC4F877021E0FC
:1019700030E001C0220F8A95EAF78281822B8283B0
:101980000895A6E1B3E0EFEF90E02D91821751F0BA
:10199000EF3F19F4211101C0E92F9F5F9630A9F79D
:1019A000EF3F09F408950E2E000CFF0BEC5EFC4F88
:1019B000E6CF909143019130E1F49091680797FF51
:1019C00018C0E82FE695E695E695803FF0F4F0E044
:1019D000E45EFC4F877021E030E0A90102C0440FB3
:1019E000551F8A95E2F7CA018095928189238283E7
:1019F0000895E6E1F3E09191891303C0DF011197A7
:101A00001C9253E0EC31F507B1F708958091420143
:101A10000895A4E0B0E0EFE0FDE00C9442328FB70F
:101A2000F8942091620330916303409164035091D4
:101A3000650329833A834B835C838FBF69817A81F5
:101A40008B819C812496E2E00C945E32A4E0B0E0AD
:101A5000ECE2FDE00C9442328091F106882371F0B3
:101A60000E94090D69837A838B839C8369817A81C3
:101A70008B819C812496E2E00C945E320E94090DD9
:101A800069837A838B839C838091F3069091F4061B
:101A9000A091F506B091F60629813A814B815C81CF
:101AA000280F391F4A1F5B1F29833A834B835C83AE
:101AB000DDCFA4E0B0E0EFE5FDE00C944032462F2E
:101AC000572FBC012FB7F894809162039091630364
:101AD000A0916403B09165032FBF8C019D01041B8D
:101AE000150B260B370BC901B8012496E4E00C94C2
:101AF0005C32A6E0B0E0EFE7FDE00C943E327C0102
:101B000000914F0710915007209151072E8380912B
:101B100052078D83B801822F9D810E94590D643F29
:101B200071408105910518F10E94090D8B018E838A
:101B30009D8382E390E0A0E0B0E0009388041093DE
:101B400089042E8120938A042D8120938B04809315
:101B5000840490938504A0938604B0938704E09254
:101B60004D07F0924E072696E6E00C945A3284EF29
:101B700091E0A0E0B0E0E1CFFC019B01809158032F
:101B8000909159038617970740F0672B29F48091AD
:101B9000E8008E778093E800C90140E0009741F4A7
:101BA000411106C08091E80082FF2FC080E00895B7
:101BB000209149042223A9F12530A9F12091E800C0
:101BC00023FD2DC02091E80022FDECCF2091E800FC
:101BD00020FFE4CF3091F3002091F200009719F03C
:101BE0002830310558F041E02830310509F040E057
:101BF0002091E8002E772093E800D0CF41914093C8
:101C0000F10001972F5F3F4FE9CF8091490488236E
:101C100041F0853041F08091E80083FFC3CF81E03F
:101C2000089582E0089583E008958091520387FF2C
:101C300013C08091E80082FF06C08091E8008B7796
:101C40008093E80004C0809149048111F2CF089587
:101C5000809149048823D9F38091E80080FFF8CF70
:101C60008091E8008E77ECCF2091E4003091E50080
:101C700095E6A9018091EC008170882331F0809174
:101C8000E80080FF06C080E008952091E80022FD72
:101C90001BC080914904882391F0853091F0809198
:101CA000EB0085FD10C02091E4003091E500421763
:101CB000530701F391509111DCCF84E0089582E045
:101CC000089583E0089581E00895E8EDF0E08081D3
:101CD0008E7F80831092E2001092DA001092E10071
:101CE000A0EEB0E08C9181608C9380818F778083AF
:101CF00019BCA7EDB0E08C918E7F8C9380818F7E94
:101D00008083109251030895FC01AC014C5F5F4F3A
:101D10008FEF91E32191822728E030E087FF0BC00D
:101D2000880F89272150310921153105B9F7E417AA
:101D3000F50781F70895880FF5CF909157079370B5
:101D4000992391F0873008F086E0880F880F9091F2
:101D500057079370892B8093570710924701809102
:101D60005F07816080935F0708958091570786958C
:101D700086958F5F873008F081E00E949D0E089560
:101D800090915707969596958FEF890F913009F4AA
:101D900086E00E949D0E08959091570793709923B5
:101DA00071F08093580760935907493708F048E766
:101DB00040935A0780915F07816080935F07089581
:101DC000E7E5F7E0818190E04381628108960E9417
:101DD000CC0E0895E7E5F7E0818143816281885068
:101DE000990B0E94CC0E0895E7E5F7E0628120E1AF
:101DF000620F08F46FEF8181438190E00E94CC0E66
:101E00000895E7E5F7E0628120E1621B08F460E0F5
:101E10008181438190E00E94CC0E0895E7E5F7E0D0
:101E2000438120E1420F08F44FEF8181628190E00D
:101E30000E94CC0E0895E7E5F7E0438120E1421BC4
:101E400008F440E08181628190E00E94CC0E089508
:101E5000982FE42FE2709093E900891308C0762F41
:101E6000242F50E0E11111C091E0980FF4CF709150
:101E7000EC002091ED005091F00021FD06C09F5F25
:101E8000973049F78093E90008953091EB003E7F49
:101E90003093EB003091ED003D7F3093ED003091B9
:101EA000EB0031603093EB007093EC002093ED0079
:101EB0005093F0002091EE0027FDE1CF0895A0E0BF
:101EC000B0E0E5E6FFE00C943C32C8EDD0E088815C
:101ED0008F7E8883E7EDF0E080818160808384E0FD
:101EE00082BF81E08093510388818E7F888302EED8
:101EF00010E0F80110821092DA0081EEC82ED12C89
:101F0000F601108288818F77888388818068888332
:101F100088818F7D888319BC1092490410925003E8
:101F20001092480410924F0390EEE92EF12CF70125
:101F300080818B7F808388818160888342E060E03C
:101F400080E00E94280FF60180818E7F8083F80157
:101F5000808181608083808188608083F7018081B7
:101F60008E7F8083888180618883CDB7DEB7E8E08B
:101F70000C945832E0916C0790916B0727E0E913BD
:101F800002C080E00895AE2FB0E02E9FF001112432
:101F9000E359F84F3181361306C03081381303C03E
:101FA0003581341304C0FD013196E770E8CF81E03C
:101FB00008953BB1377F2BB128604FB7F8948AE67C
:101FC00093E0FC010196508168E02BB9000000C04D
:101FD00057FF3BB9550F000000C000C000C03BB91F
:101FE00000C06A9591F754E08C30950751F74FBFC8
:101FF0008FE594E00197F1F700C0000008950F937A
:102000001F93CF93DF93EB018A01909149049430A1
:1020100079F58093E9008FEF9091E80095FD07C076
:1020200095ED9A95F1F7000081508111F5CF8091DF
:10203000E80085FF1DC00E94340E811114C08091FC
:10204000E80085FD06C08091E8008E778093E80067
:10205000F2CF88818093F10001501109011511051B
:1020600011F02196ECCF8091E8008E778093E80004
:10207000DF91CF911F910F910895CF93DF93D82FC8
:10208000C92F48E050E0682F792F81E00E94FF0FB0
:1020900088E0ED2FFC2FAAE5B3E001900D928A9520
:1020A000E1F7DF91CF910895BC0140E250E082E07A
:1020B0000E94FF0F0895BC0146E050E082E00E94BC
:1020C000FF0F0895BC0143E050E082E00E94FF0F43
:1020D0000895A0E0B0E0EFE6F0E10C943A32F82E7B
:1020E000E92EB62EA72E8A0180914E03CC24C394EC
:1020F000D12C8A3018F48AE0C82ED12CC1E0D0E06F
:102100006B2D7A2D8F2D9E2DF8010995811116C00A
:102110002196CC16DD0694F0CC9FC001CD9F900D8A
:10212000900D112420E030E045E34A95F1F70000DE
:102130002F5F3F4F28173907B9F7E2CFCDB7DEB78A
:10214000EAE00C9456329091690792FB222720F91D
:10215000281779F080FB92F99093690760916807DE
:102160007091690784E090E00E94233382E00E942E
:102170001207089580914301813059F580916807D5
:1021800087FF27C00E942A0780931D0340E250E08A
:1021900069EF76E08CE193E00E94BA32892BC1F0BE
:1021A00080E2ECE1F3E0A9EFB6E001900D928A95B0
:1021B000E1F7E0911907F0911A07309749F086E0AE
:1021C00080931C030480F581E02D8CE193E0099558
:1021D00008950E942A078093140348E050E06BE1C1
:1021E00077E084E193E00E94BA32892B89F388E09A
:1021F000E4E1F3E0ABE1B7E001900D928A95E1F7FD
:10220000E0911907F0911A07309711F30280F381DA
:10221000E02D84E193E0DBCF882339F090916007D3
:10222000892B809360070E94BA100895882321F0BB
:102230000E9457070E94BA100895882339F09091A0
:102240006A07892B80936A070E94BA100895A8E054
:10225000B0E0EDE2F1E10C9441328091CB06909137
:10226000CC06A091CD06B091CE06BC01CD010E9456
:10227000590D11E0643671058105910578F10E94D0
:10228000260DDC01CB010296A11DB11D89839A8325
:10229000AB83BC8380913201909133018552994F79
:1022A00020913101422F50E0253010F044E050E001
:1022B000BE016F5F7F4F0E94C73283E090E00E94B3
:1022C000A931182F882351F00E94090D6093CB0685
:1022D0007093CC068093CD069093CE06812F2896DE
:1022E000E3E00C945D32A6E0B0E0E9E7F1E10C94A4
:1022F0003B328D837B01B42E5E83B9016801A80156
:102300008B2D9E810E94BA328C01D7018D919D91B7
:102310000D90BC91A02DBC01CD010E94590D698387
:102320007A838B839C83643671058105910518F44B
:102330000115110539F1BD810B2F0B2E000C110B6E
:1023400088E0B802F0011124E75EFE4F818192819E
:102350008552994F2081422F50E0C416D50608F4CB
:10236000A6016B2D7E810E94C732C8010E94A9314F
:10237000882349F00E94090DD7016D937D938D93B9
:102380009C93139781E02696E9E00C9457320F93C3
:102390001F93AC0104E010E020EE36E06FEC76E035
:1023A00082E00E9473111F910F910895A9E0B0E09F
:1023B000ECEDF1E10C94403288E0E7E5F7E0DE0176
:1023C000119601900D928A95E1F7198609E010E0C7
:1023D00028EE36E0AE014F5F5F4F67EC76E084E0B9
:1023E0000E9473112996E4E00C945C32EF92FF9204
:1023F0001F93CF93DF93CDB7DEB729970FB6F8942D
:10240000DEBF0FBECDBF7B0180E090E00E94A9310E
:10241000182F81111BC010E08091D3069091D40633
:10242000A091D506B091D606F70180839183A2834F
:10243000B383812F29960FB6F894DEBF0FBECDBFB0
:10244000DF91CF911F91FF90EF90089580911C0133
:10245000482F50E0882311F041E050E060911D01C9
:1024600070911E016552794FCE0105960E94C732C8
:102470008091D7069091D806A091D906B091DA063E
:10248000BC01CD010E94590D6E837F838887998797
:10249000643671058105910538F48CED96E00E9453
:1024A000840E9D818917B9F181E090E00E94A931E5
:1024B000882309F4B0CF80912401482F50E0853063
:1024C00010F044E050E060912501709126016552C2
:1024D000794FCE0101960E94C7328CED96E00E94A2
:1024E000840E9D81891397CF0E94090D6093D706B2
:1024F0007093D8068093D9069093DA0689819A81E1
:10250000AB81BC818093D3069093D406A093D5066B
:10251000B093D60681CF8091DC069091DD06A09124
:10252000DE06B091DF0689839A83AB83BC83E6CF56
:10253000ADE0B0E0EEE9F2E10C94323260910C04CF
:1025400070910D0480910E0490910F0469837A8339
:102550008B839C838091F106882309F450C06981A4
:102560007A818B819C810E94590D6B017C010E94B4
:10257000260D282F60930C0470930D0480930E0495
:1025800090930F04A0915204E2E5F4E08A2F30E02A
:1025900088248A94982CA12CB12C8C189D08AE0804
:1025A000BF08A31339C08093520480915707A82F06
:1025B000A370A983AA2321F0B82FB695B695B98345
:1025C00030914701323009F4A3C2C8F531113EC041
:1025D000109202016093100470931104209312046E
:1025E0009093130489E2E2E5F4E0AEE1B4E00190F7
:1025F0000D928A95E1F781E08093470123C00E9404
:10260000260D6B017C0189819A81AB81BC81C81A3E
:10261000D90AEA0AFB0AABCF418D528D2A01612CFF
:10262000712C84149504A604B70420F481503F5FF4
:102630003296B7CF4C0D5D1D528F418FF8CF33309E
:1026400009F46FC22D96E2E10C944E329091010193
:10265000E981E91324C0837090E04091000150E0CB
:1026600021E08417950709F420E0822F8170809380
:10267000040180915C0790910301981739F08093D1
:10268000030140E060E080E00E94700BF981F730C8
:1026900040F4EF2FF0E0E55DFC4C0C94AB3281E0B0
:1026A000E5CF809102018F5F8093020182E0A4CF89
:1026B00080910401811107C0809102018F5F809396
:1026C000020183E099CF40E060E080E00E94700B5F
:1026D000809102018F5F8093020182E08093470125
:1026E000809104018111AECFECCF809102010E9454
:1026F000890B082F99836091580770915907809131
:102700005A070E942D0A6D83F72EE82E10E02981CA
:10271000021758F0822F0E94B80A909102019F5F21
:102720009093020181118ECFC1CFF801E757FD4F81
:102730008081909103018923882331F02E2D4F2D24
:102740006D81C8010E94650B0F5F1F4FE0CF809124
:1027500002010E94890B8D83E92E3091580739833D
:102760000091590710915A07632F702F812F0E94F3
:102770002D0AD62EC72EB82E80915B076981680F6F
:10278000702F812F0E942D0A162F072FF82E7D8182
:10279000672F70E07A83698399819E1510F08E2DE2
:1027A000BACFE981FA81E757FD4F8081309103016B
:1027B0003823332361F02F2D402F612F80FD03C07C
:1027C0002B2D4C2D6D2D89819A810E94650B89815D
:1027D0009A8101969A838983DFCF809102010E94BA
:1027E000890B8983192F60915B076695669521E0B7
:1027F000620F08F46FEF80911004909111040E9411
:10280000C50A082FB981AB2FB0E0BA83A983F9813B
:10281000F11710F0812F7FCFE981FA81E757FD4F43
:102820008081909103018923882391F0609158075A
:102830007091590780915A07202F49810E94EE0A12
:102840000E942D0A472F282F89819A810E94650BAB
:10285000E981FA813196FA83E983D9CF8091020127
:102860000E94890B8983D92E60915B0766956695D6
:1028700080911004909111040E94C50A182F80E4E1
:10288000810F0E94CF0AB0E8FB2EF80E812F0E9424
:10289000CF0A90E8C92EC80E3981232F30E03A8341
:1028A000298379817D1510F08D2D35CFE981FA814D
:1028B000E757FD4F80819091030189238823A1F080
:1028C000609158077091590780915A07E12E09814C
:1028D0002C2D4F2D0E94070B0E942D0A472F282FC9
:1028E00089819A810E94650B69817A816F5F7F4F30
:1028F0007A836983D6CF809102010E94890B8983F4
:10290000192F80915B076AE00E946932682F21E0ED
:10291000620F08F46FEF80911004909111040E94EF
:10292000C50A082F9981892F90E09A838983B981FC
:10293000B11708F06FCFE981FA81E757FD4F808129
:102940009091030189238823E1F0E981FA81EE0F58
:10295000FF1FE351FE4F91A96091580770915907ED
:1029600080915A07202F4981913288F00E94360BBE
:102970000E942D0A262F472F682F89819A810E9455
:10298000650BA981BA811196BA83A983D0CF0E9421
:10299000360B0E942D0A472F282FEFCF50901E0490
:1029A00021E0352D321B08F430E0332E80910201F6
:1029B0000E94890B9D83682F70E07D876C87CB0117
:1029C000880F991FDC01A351BE4F6D01832D90E04C
:1029D000FC013196FB87EA878D819C85981708F06A
:1029E0009ACEEC85FD85E757FD4F808190910301DC
:1029F0008923882301F140905807F0915907F98302
:102A000020915A0729876A857B85625E7B4F3B014F
:102A1000232C10E02514C8F02985129F112D1124B4
:102A2000642D7981812F0E942D0A472F282F8C85B4
:102A30009D850E94650B6C857D856F5F7F4F7D87CF
:102A40006C8772E0C70ED11CC7CFD3018D913D01B9
:102A5000F601A0A8A81ABB0881A817968C91881A1D
:102A60009908AA9CC001AB9C900D900D1124889CE4
:102A70009001899C300D300D1124820F931F082F77
:102A80008230910524F14FEF813EFEE19F073CF437
:102A9000AC0175E0569547957A95E1F7485F51E0AE
:102AA000652F640F7727771F9B0135952795022F98
:102AB000229FB001239F700D700D11248617970778
:102AC00010F54FEF420F451758F70FEF050F6091C4
:102AD0005B0771E0670F08F46FEFF301EE0FFF1F64
:102AE000EE51F440858996890E94C50A7C019401C3
:102AF000A501642D7981812F0E944D0B462E79838B
:102B0000182F239487CF2F3F11F351E0520FDBCFC3
:102B1000A981A09301018370809300010E94D90FC5
:102B2000D0CD80915F07882351F048E050E067E105
:102B300070E087E597E00E94F53210925F076091A0
:102B40001004709111048091120490911304698310
:102B50007A838B839C838091F106882391F069812D
:102B60007A818B819C810E94590D462F572FBC0181
:102B7000403151056105710508F464CD109247019B
:102B800061CD0E94260DAB01BC0189819A81AB8188
:102B9000BC81481B590B6A0B7B0BEACFAB0124E6C7
:102BA00030E0BC0188E70E94C02F9C0181E0232B0C
:102BB00009F080E008958091C106882369F0809132
:102BC000BE06882349F062E070E08EEA90E00E9441
:102BD000CE1581111092BE060895A4E0B0E0E3EF97
:102BE000F5E10C9442328091C1068823F9F00E94ED
:102BF000090DDC01CB01805A9541AF4FBF4F809347
:102C0000BA069093BB06A093BC06B093BD06809114
:102C1000BE0681110BC062E070E08CEA90E00E9479
:102C2000CE15882319F081E08093BE062496E2E059
:102C30000C945E32CF93DF93682F81E06A3019F0F5
:102C40006D3031F480E00E949A16DF91CF910895A3
:102C500080918C0490918D0426E0FC01A8E4B3E0FF
:102C600001900D922A95E1F7603E08F458C026E0E5
:102C7000FC0111922A95E9F7C0918C04D0918D0442
:102C800046E050E0BE0188E493E00E94BA329E0123
:102C9000265B3440892B41F1C90145E09695879523
:102CA0004A95E1F741E050E0BA0102C0660F771F94
:102CB0008A95E2F7CB016091B8067091B906862B30
:102CC000972BB9016B5F7F4FE5E076956795EA95A5
:102CD000E1F702C0440F551F6A95E2F7842B952B4C
:102CE0009093B9068093B8062A5F3F4F40918E04B7
:102CF000642F70E0C9010E941E32481B463010F458
:102D0000240F311D211572E0370710F020E030E06C
:102D10002A543B4F30938D0420938C0496CFF6E0D9
:102D20006F9FB001112460557F4F46E050E00E9434
:102D3000B132A2CFCF93382FE0918C04F0918D0463
:102D4000E65BF44020918E04622F70E0CF010E9478
:102D50001E32281B822F332361F066E00E94693205
:102D6000C82FC15010F4CF91089580E20E941A1626
:102D7000F8CF9F01280F311D2115324018F080E057
:102D8000E0E0F0E08E0F9F2F911D8A549B4F9093AF
:102D90008D0480938C04E7CFCF93DF93EC01FE0189
:102DA0008491811103C0DF91CF9108950E941A167A
:102DB0002196F5CF0E94CC1681E00E949A160895C4
:102DC0001F921FB61F9211248F939F93AF93BF93AF
:102DD00080914704811113C0809162039091630335
:102DE000A0916403B09165034196A11DB11D80932C
:102DF000620390936303A0936403B0936503BF9150
:102E0000AF919F918F911F901FBE1F9018952FB764
:102E1000F8948091620390916303A0916403B09150
:102E200065032FBF08950E94071720914007309136
:102E30004107232B222321F08093C4069093C506DB
:102E40002091420730914307232B222321F08093C6
:102E5000C2069093C306E0911907F0911A073097C4
:102E600049F082E080933E070680F781E02D8EE3F3
:102E700097E009950895662309F44BC0E3E3E80F52
:102E8000E33150F4F0E0EE5CFC4C0C94AB320E9469
:102E9000030C8195809341070E94131708950E94A7
:102EA000030CF8CF0E94030C819580934007F4CF68
:102EB0000E94030CFACF0E94230C80934207ECCFB0
:102EC0000E94230C8195F9CF0E94230C8195809359
:102ED0004307E2CF0E94230CFACF815D990B21E0DA
:102EE00030E001C0220F8A95EAF780913F07822BDC
:102EF00080933F07D1CF80913D07816080933D074C
:102F0000CBCF80913D078260F9CF80913D078460EF
:102F1000F5CF409140078D3C59F48091410787FFE0
:102F20000DC010924107442359F410923C0708C089
:102F30008E3C81F48091410718169CF3442381F064
:102F40008091420790914307892B8111A5CF109260
:102F50003B07A2CF8F3C41F447FFF0CF10924007D0
:102F6000809141078823E0CF803D19F41416B4F313
:102F7000E5CF90914207893D29F41916FCF610928D
:102F80004207DCCF8A3D19F497FFD8CFF8CF909154
:102F900043078B3D29F497FFD1CF10924307CECF43
:102FA0008C3D19F41916CCF3C9CF9FE2980F9830D5
:102FB00090F4815D990B21E030E0B90102C0660F09
:102FC000771F8A95E2F7CB01809590913F0789237F
:102FD00080933F07B3CF8D3D31F480913D078E7FC5
:102FE00080933D07ABCF8E3D21F480913D078D7FCF
:102FF000F7CF8F3D09F0A2CF80913D078B7FF0CFB7
:10300000CF93C82F8823B1F18CEF8C0F813AA0F5B4
:1030100080914301813001F58091680787FF1CC0D2
:10302000EC2FE695E695E695F0E0E45EFC4F8281B4
:1030300090E04C2F477021E030E002C0220F331F98
:103040004A95E2F782239323892B79F08C2F0E94F3
:10305000D90C0E94BA1009C0E6E1F3E08191C817CB
:10306000A9F323E0EC31F207C9F78C2F0E94A50CDD
:103070000E94BA10CF91089580E28C0F883068F4D6
:10308000C77081E090E001C0880FCA95EAF7C0914F
:103090006007C82BC0936007EBCF8BE58C0F8330A4
:1030A00038F42C2F2452330BC9010E94590CE2CF63
:1030B000E8E5EC0FEB3150F4F0E0EE0FFF1FE753C3
:1030C000FD4F808191810E947F0CD4CF83E38C0FD0
:1030D000833180F661E08C2F0E943B17CBCF882391
:1030E00081F19CEF980F913A28F40E94D90C0E942C
:1030F000BA10089590E2980F983050F4877091E0DC
:1031000001C0990F8A95EAF7892F0E945707EFCFE0
:103110009BE5980F933028F480E090E00E94590CD2
:10312000089598E5980F9B3128F480E090E00E9484
:103130007F0C089593E3980F933118F460E00E9498
:103140003B1708951F93CF93DF93182FA0914B0740
:10315000B0914C07109709F44AC010924E07109294
:103160004D0710924907109248071796CD91DC91B0
:103170001897CE019A9581159F4108F4D07ED1E031
:10318000C11101C0D0E01A96ED91FC911B973097C8
:1031900031F01C966D917C9180E00995D823DD2358
:1031A00039F08CEF8C0F813A30F58C2F0E94D90CBE
:1031B0001123A9F0E0914B07F0914C07818584FD24
:1031C0000EC080914A07882351F0808191819C0133
:1031D000215031092F333E4710F40E94790D0E948F
:1031E000BA1010924C0710924B0710924A07DF91C9
:1031F000CF911F9108950E94BA108C2F0E946F18D2
:10320000D7CF1092600780914301813039F58091CA
:10321000680787FF23C0EEE1F3E08EE1DF011D9236
:103220008A95E9F780E090E00E94590C80E090E0F8
:103230000E947F0C10926A070E94BA1086E0EEE3AB
:10324000F7E0DF011D928A95E9F710923C07109292
:103250003B0710923D070E9413170895E6E1F3E043
:1032600086E0DCCF0E9401192FEF84E39CE021501F
:1032700080409040E1F700C0000088E19AE00FB67E
:10328000F894A895809360000FBE90936000FFCFE4
:10329000AAE2B0E0EEE4F9E10C94413282E593E079
:1032A000FC0101962091F100208323E08A359207EA
:1032B000B9F780915303893009F45AC0C8F48230B9
:1032C00009F4B6C0833009F485C0813091F1809152
:1032D000E80083FFEAC080915203909153039A3033
:1032E00008F0E3C0E92FF0E0EB5BFC4C0C94AB3250
:1032F0008A3009F48CC08B3051F7809152038132AF
:1033000031F78091560390915703892B01F78091F3
:10331000E800877F8093E8000E94150E81E090917D
:103320005403911101C080E0809343010E94011970
:10333000CECF80915203813A51F68091E800877F89
:103340008093E8008091560390915703892B61F098
:1033500060E080E090E070E00E94BC0D8091E800A9
:103360008B778093E800B3CF68E08AE593E0F3CFF2
:1033700080915203813209F0AACF80915603909137
:103380005703029708F0A3CF8091E800877F8093CE
:10339000E8008091E80082FF18C09091F3008091CE
:1033A000F200029731F48091F100813011F0863003
:1033B00021F48091F100809342018091E8008B77A5
:1033C0008093E8000E94150E82CF809149048111FC
:1033D000E0CF7DCF80915203813A09F078CF809180
:1033E000560390915703892B09F071CF8091E80023
:1033F000877F8093E8008091E80080FFFCCF809178
:1034000043018093F1008091E8008E77D9CF8091BD
:103410005203813209F05BCF8091E800877F80936F
:10342000E8000E94150E80915503809341014FCF13
:1034300080915203813A09F04ACF8091E800877F5A
:103440008093E8008091E80080FFFCCF80914101EB
:10345000D8CF803889F0823841F5809156038F703B
:10346000873018F58093E9008091EB0085FB882771
:1034700080F91092E90006C080914F0390914804B2
:10348000911182609091E800977F9093E80080937B
:10349000F1001092F1008091E8008E7723C0811135
:1034A00016C080915403813011F18091E80083FFB0
:1034B0000AC08091E800877F8093E8008091EB004C
:1034C00080628093EB00AA96E3E00C945D32823038
:1034D00061F780915403882389F01092E90080916C
:1034E000E800877F8093E8000E94150EDECF81E020
:1034F000933009F080E080934804EFCF8091560329
:103500008F702FEF280F263080F68093E9002091EE
:10351000EB0020FFE2CF933031F48091EB0080622A
:103520008093EB00DACF9091EB0090619093EB00E9
:1035300021E030E0A90102C0440F551F8A95E2F74F
:103540004093EA001092EA008091EB008860E8CF97
:103550008111ABCF109154031F778091E3008078E5
:10356000812B8093E3008091E800877F8093E800BF
:103570000E94150E8091E80080FFFCCF8091E3004F
:1035800080688093E30083E0111101C082E08093A2
:1035900049048BCF8058823008F087CF4091540384
:1035A000509155034C3D83E0580799F583E08A8399
:1035B0008AE289834FB7F894DE01139620E03EE05B
:1035C00051E2E32FF0E050935700849120FF03C0B5
:1035D00082958F703F5F8F708A30C8F0895C90E071
:1035E0008D939D932F5F243161F74FBF8091E80049
:1035F000877F8093E8006AE270E0CE0101960E9426
:10360000BC0D8091E8008B778093E8004ECF805D01
:10361000E6CF2091560330915703852F99278330A9
:10362000910509F160F48130910509F472C00297A7
:1036300009F03BCF8BE390E0EAEEF6E029C081325F
:10364000910509F45AC0829709F02FCF2115310551
:1036500009F469C02130310509F027CF86EB90E0ED
:10366000E0EFF5E015C0CA0199274130B1F1823091
:10367000910509F43AC0892B09F017CFE7E5F7E087
:10368000E4918E2F90E0E7E5F7E0009709F40DCF85
:103690002091E800277F2093E80020915803309183
:1036A00059038217930708F49C0140E02115310566
:1036B00009F03EC041113CC08091E80082FDA1CFDD
:1036C00080914904882309F49CCF853009F499CF6F
:1036D0008091E80083FFF0CF94CFE5E4F7E0E49138
:1036E0008E2F90E0E5E4F7E0D0CFE7E3F7E0E49158
:1036F0008E2F90E0E7E3F7E0C8CF2115310571F098
:103700002130310509F0D1CE89E090E0E5E1F7E024
:10371000BFCF82E190E0E5E2F7E0BACF89E090E048
:10372000ECEFF6E0B5CF84E490E0E6EAF6E0B0CF67
:1037300080914904882309F464CF853009F461CF6E
:103740008091E80083FD5DCF8091E80082FDB4CFD9
:103750008091E80080FFAACF9091F3008091F20061
:103760002115310519F08830910550F041E0089796
:1037700009F040E08091E8008E778093E80096CFD2
:1037800044914093F1003196215031090196E8CFE0
:10379000803809F08ACE8091E800877F8093E80026
:1037A000809150038093F10076CE81117ECE1091EE
:1037B0005403123008F079CE8091E800877F80931F
:1037C000E800109350030E94150E1123A9F084E025
:1037D0008093490442E061EC81E00E94280F42E2BC
:1037E00061EC82E00E94280F80914904843051F4FA
:1037F00082E08093440159CE8091E30087FDE7CFBA
:1038000081E0E6CF81E0F5CF9C014FB7F89480913D
:10381000620390916303A0916403B09165034FBF6D
:10382000821B930B08950F931F93CF93DF93C62FA3
:10383000D42F122F8823A9F0609355070E940717F1
:103840009093470380934603C77081E001C0880FBF
:10385000CA95EAF70E940C11DF91CF911F910F9149
:10386000089580915507681338C080914603909160
:1038700047030E94041C8F3A910578F5CD130FC0C1
:10388000812F0E940018812F0E946F18D77081E04D
:1038900001C0880FDA95EAF70E941611DDCFC770D4
:1038A00001E0802F01C0880FCA95EAF70E94161127
:1038B00080E28D0F883050F48D2F877001C0000F8B
:1038C0008A95EAF7802F0E940C11DACF812F0E948F
:1038D0000018812F0E946F18BFCFC77081E001C010
:1038E000880FCA95EAF7D8CFA0E0B0E0EAE7FCE19C
:1038F0000C9432328C01DC0114968C91882309F4EB
:10390000C8C061E0C8010E94BD09EC01F801358022
:103910009C01205E31094901332009F4BFC0818137
:103920008093470780818093460780E2809345011A
:10393000D0934507C0934407CE0190528115904221
:10394000C8F48681803118F4809146011DC0FE01C3
:10395000FF27CD33C8F7E85EF34FE491E0934501CC
:10396000CF35ACE7DA07E9F41092460180E00E9417
:10397000A2187EC0CE01905481159041E8F4968142
:1039800080914601903120F4882309F485C18AC0D2
:10399000FE01FF27CD33C0F7E85EF34FE491E093DB
:1039A0004501CD35BCE7DB0709F078C080914601C1
:1039B000882309F45AC0D8CFCE019A9581159F412A
:1039C00058F4FE01FF27CD3308F0BECFE85EF34F79
:1039D000E491E0934501B8CFCE01805A924580979B
:1039E000D0F580914601882309F4DAC1209062075E
:1039F00080916007282A80916107282A31101FC111
:103A00008091530790915407C817D90781F41092F9
:103A100054071092530710924F07109250071092BC
:103A200051071092520710924E0710924D07E091E5
:103A30004B07F0914C07309709F078C1F801858168
:103A4000FE01E851FC47E730F10508F025C1E15BD4
:103A5000FC4C0C94AB32CD33D10510F4FE01B6CF43
:103A6000CE359CE7D90709F07BCF81E080934601F2
:103A7000809167078770882361F0D80115968C9133
:103A8000882339F08091690782FF03C082E00E9499
:103A90001207CDB7DEB7E2E10C944E3280914601B9
:103AA000882361F22090620780916007282A809124
:103AB0006107282AE8E08E16910408F09FCF9E0146
:103AC0002770332781E090E001C0880F2A95EAF73C
:103AD000332009F4B1C0282AD8018D919C910E940D
:103AE000D50621E030E0290102C0440C551C8A951E
:103AF000E2F7A0904B07B0904C073FEF632E32E007
:103B0000732EF301E190F1903F01E114F10409F407
:103B1000B1C0211005C0D70112968C918111A4C0AB
:103B2000F7018381948184219521892B09F49CC01C
:103B30008185982F97709111C1C0F8E08F1691047C
:103B400008F090C03110C2C0F701C080D180CC1500
:103B5000DD0509F489C0AE14BF0409F485C0D7019E
:103B60001E96ED91FC91309721F08081882309F415
:103B70007BC0622DC7010E94D40B882309F474C056
:103B8000CC15DD0511F4311005C0C114D10409F0C4
:103B9000A9C0312C80E00E94A218F0924C07E0925C
:103BA0004B0781E080934A07F7018681809349079C
:103BB00031100DC0CD2859F0808191819C01245095
:103BC0003109213A310508F096C00E94D90CF7015D
:103BD000C780D084C6019A9581159F4110F420EECC
:103BE000D222BB24B394C60101978F339E4708F0BD
:103BF000B12CD7011A96ED91FC911B97309731F0BB
:103C00001C966D917C9181E00995B82281E038265F
:103C1000BB2079F0F701878190850E944906809347
:103C20004807C601F8E08F16910408F067C00E94AB
:103C3000790D0E94BA1069C0809528224DCFD0938B
:103C40005407C09353070E94090D60934F07709368
:103C50005007809351079093520710924E0710928D
:103C60004D073ACF311032C0A1E1B3E0A615B70538
:103C700009F047CFA114B10409F4E0CEB8E08B16E7
:103C8000910408F05FC0622DC5010E94D40B811120
:103C900003C081E00E94A218D80115968C91811171
:103CA00095C0C631BCE7DB0709F096C18091560785
:103CB000811163C189E20E94D90C29C028E08216D3
:103CC000910458F4332031F081FFCECFD701CD904D
:103CD000DC9041CF82FFC8CF37CF332029F280FF5D
:103CE000C3CFF4CF80915307909154078C159D0555
:103CF00009F0BACF4ECF0E946F1869CF0497813A6E
:103D0000910540F48C2D0E94A50C311097CE0E9495
:103D1000BA10AECE0E94BA108FE39CE90197F1F77A
:103D200000C000008C2D0E940018EFCF808191818F
:103D3000C817D90709F082CE10924A0780E00E9486
:103D4000A2187CCEF50180819181C817D90731F482
:103D5000332091F3818585FD71CEF0CF332009F4B6
:103D60006DCE8185F8CF26E241EE61EE0E94131CF4
:103D70007FCE27E245EE65EEF9CF26E241EE60EE1A
:103D8000F5CF27E245EE64EEF1CF26E241EE62EE9A
:103D9000EDCF27E245EE66EEE9CF28E241E0EBCF3A
:103DA0001092550780916007C631ECE7DE0709F0F5
:103DB000E6C08A7A91E0811101C090E090935607A5
:103DC0008111D9C089E20E94A50CA1CF109255079C
:103DD000CE019057839730F784E090E00E94EF3255
:103DE0009093690780936807FE01E150F047E23243
:103DF000F10520F4EA5AFC4C0C94AB328091680730
:103E0000816080936807609168077091690784E01A
:103E100090E00E9423330E9401192ACE8091690705
:103E2000886080936907EFCF809168078260E9CF4F
:103E3000809168078460E5CF809168078860E1CF52
:103E4000809169078160EDCF809169078260E9CF39
:103E5000809168078061D5CF809168078062D1CF5B
:103E6000809168078064CDCF0E9401198091680716
:103E70008068C7CF809168078C60C3CF8091690745
:103E80008360CFCF809168078E7FBBCF8091690719
:103E9000877FC7CF809168078D7FB3CF80916807F8
:103EA0008B7FAFCF80916807877FABCF8091690709
:103EB0008E7FB7CF809169078D7FB3CF80916807E0
:103EC0008F7E9FCF809168078F7D9BCF8091680701
:103ED0008F7B97CF0E940119809168078F7791CFD0
:103EE00080916807837F8DCF809169078C7F99CF00
:103EF0008091680782FB992790F921E0922790FB37
:103F000082F990FB83F97DCF80916907982F909576
:103F100091708E7F892B90FB81F983CF90916807F8
:103F2000892F8F7B96FF80646CCF0E94011990913E
:103F30006807892F97FB87F9805863CF61E08EE08F
:103F400090E00E9405335FCF60E0F9CF9091680761
:103F5000892F8F7E94FF806154CF90916807892FBD
:103F60008E7F90FF81604DCF90916907892F877F69
:103F700093FF886056CF85E326CF85E39CCE82727F
:103F8000FE01E052F847EB30F10508F06EC0E8584A
:103F9000FC4C0C94AB320E949D0B6ACD882309F433
:103FA00049C00E94C00E64CD882309F449C00E9414
:103FB000EA0E5ECD882309F449C00E94010F58CD56
:103FC000882309F449C00E941B0F52CD882309F4AD
:103FD00049C00E94B90B4CCD809160078272FE01EE
:103FE000E054F847ED30F10508F0AAC0ED57FC4C5D
:103FF0000C94AB32809157078370811102C01092EC
:104000004701809157078C7F81608093570780918B
:104010005F07816080935F072BCD80915707837086
:10402000811110924701809157078C7FEECF882332
:1040300009F4B7CF0E94B50E1BCD882309F4B7CF82
:104040000E94E00E15CD882309F4B7CF0E94F40E2C
:104050000FCD882309F4B7CF0E940E0F09CD882316
:1040600009F4B7CF0E94AB0B03CDCE01805E924521
:104070008097A8F0CA353CE7D30709F4B0C008F030
:1040800078C0C1309CE7D90709F4A7C0C330ACE7BA
:10409000DA0709F49CC0C115DC4709F47CC0F801BB
:1040A0008581E080F180882309F49DC0C7010E94CA
:1040B0008909C82F682FC7010E949F06B7018C2F5E
:1040C0000E945F070E947008D82FC92FD80115964B
:1040D000DC9015971696CC90C2942FE0C222809166
:1040E00067078770882301F1ED2CDD20F1F0892F1F
:1040F000807F803461F080E28D0F8830A8F0892FB6
:10410000807E803221F4D23078F0CC2069F080912A
:10411000690782FF09C082E00E9412078091670749
:104120008770EE24E3948111E12CEC2FE295EF707F
:10413000C03C08F0C3C0F0E0E057FC4C0C94AB323C
:10414000CE01805E9245809708F0A9CFCF7181E0C3
:1041500090E09C0102C0220F331FCA95E2F7E901EB
:10416000622F83E090E00E940533CE010E94730627
:104170007FCCCB35ECE7DE07A1F1CC35DC4709F08D
:104180008ECF8091690782FB882780F991E089278B
:104190000E94A31084CF0E9401192FEF34E38CE01A
:1041A000215030408040E1F700C0000087E797E7EA
:1041B000909301088093000888E19AE00FB6F89484
:1041C000A895809360000FBE90936000FFCF6FEFC3
:1041D0007FEF80E090E00E9423330E94321981E05B
:1041E000D7CF80E0D5CFC7010E94D506C82F66CFB4
:1041F000BC2FBF70FB2EC03118F0F29490EFF92263
:10420000DD20B9F0FF2069F080E28D0F883010F0DA
:10421000D11109C0809160078F29809360070E94A7
:10422000BA108D2F43C080916A078F2980936A0747
:10423000F6CF8D2F0E946F18FF2009F43FC080E257
:104240008D0F883010F0D11104C08F2D0E945707B8
:1042500006C0F09480916A078F2180936A070E94BC
:10426000BA102CC0EC2FEF70FE2EC07FC03219F0B8
:10427000F29480EFF822DD2349F0D13009F46CC0CC
:10428000DD2009F478C0CC20D1F1CBCF8091690733
:1042900082FD31C0DD2069F0FF2039F08091600798
:1042A0008F29809360070E94BA1080E00E94001856
:1042B00005C080E00E946F18F110C7CFEE20B1F06A
:1042C0008091670780FD12C0D80115961C928695D3
:1042D000869586950E947D06C8010E94741C809177
:1042E00067078695869586950E948D0660E0C801D1
:1042F0000E94BD09CECBDD2099F0C11004C08F2DE6
:104300000E940C11DBCFF1E0CF12D8CF8091610772
:104310009F2D9823F91691F28F2980936107CECFB4
:10432000C110CCCF8F2D0E941611909161078F2D57
:104330008923882329F08F2D809589238093610715
:10434000809162079F2D9823992309F4B7CFF094A9
:10435000F822F0926207B2CFDD2029F025E02C157B
:1043600008F4ACCFCCCF34E03C1508F4A7CF8F2DA8
:104370000E941611A3CFCC20D1F3D93349F48FEF8B
:1043800097EEA3E081509040A040E1F700C000000C
:104390008D2F0E946F1892CF8C2F869586958370F3
:1043A000882369F0813009F089CF8D2F9C2F93707D
:1043B000D11002C080E090E00E947F0C7FCF8D2F53
:1043C0009C2F9370D11002C080E090E00E94590CA5
:1043D00075CF6D2D8D2F0E943B1770CF8C2F837062
:1043E000811142C0D1102FC04D2F42954695477084
:1043F000440F440F2D2F2F7030E0042E02C0220FE7
:10440000331F0A94E2F780E090E0D4FF09C08FE008
:1044100090E002C0880F991F4A95E2F78095909529
:10442000C695C695C370C230B1F0C33089F04091D3
:10443000630750916407C13049F0822B932B84238A
:1044400095230E9473060E94480C38CF242B352BED
:10445000822B932BF6CF822B932B209163073091E5
:10446000640782279327EDCFDD2091F1C0FFEBCFCA
:104470004D2F429546954770440F440F2D2F2F70B6
:1044800030E0042E02C0220F331F0A94E2F780E0CE
:1044900090E0D4FF09C08FE090E002C0880F991F20
:1044A0004A95E2F780959095C695C695C370C2303F
:1044B000C1F0C33099F04091650750916607C13053
:1044C00059F0822B932B842395230E947806BBCF2F
:1044D000823008F4B8CFCCCF242B352B822B932BF2
:1044E000F4CF822B932B20916507309166078227AA
:1044F0009327EBCFCF70DD2039F08C2F0E947D0603
:104500008D2F0E940C119FCF8D2F0E9416118C2F82
:104510000E948D0698CFD23FA1F178F4D03FC1F030
:10452000D13F09F447C0DD2009F466C0CC2009F46E
:1045300060C08D2F0E94001886CFD33F49F1D43F31
:10454000A9F1D110F3CFC11065C08C2F8F71E0CFCE
:10455000DD20A1F0B4E0BC1508F475CFCF7181E087
:1045600090E0FC0102C0EE0FFF1FCA95E2F78091B8
:104570006507909166078E279F27A7CFF5E0CF1696
:10458000EBCF8C2F8F71D110C3CF0E947D065BCFF4
:1045900080E090E0DD2009F498CFCF7181E090E0D9
:1045A00002C0880F991FCA95E2F78FCF90916907D3
:1045B00092FD06C08C2F8F71DD2009F4A9CFE5CFC5
:1045C000DD2061F08C2F8F7192FFDFCF98E0899F03
:1045D00090011124236020936707D7CF81E00E94C8
:1045E0001207A1E0AC1508F02ECF82E00E9412075E
:1045F0002ACF8C2F8F71C9CFCC2009F4A6CFD93305
:1046000049F4BFEFE7EEF3E0B150E040F040E1F7EE
:1046100000C000008D2F0E946F1815CF8091AB074E
:10462000803178F48091AA07882359F0E0916C07D3
:1046300020916B073091A6074091A50757E02E13F4
:1046400001C008956E2F70E05E9FF0011124DF011C
:10465000A359B84F14968C911497882361F1119641
:104660008C911197831327C08C91841324C01596C5
:104670008C91159781111FC012968D919C91A091DC
:10468000A707B091A8078A1B9B0B8F3A910598F456
:104690008091AB078F7080618093AB07ED58F84F26
:1046A00080818F708061808385EA97E00E94741C0E
:1046B0000E9408070895FB013196E770C0CFADE076
:1046C000B0E0E5E6F3E20C9437328C0186E0F801C5
:1046D000DE01189601900D928A95E1F7F801E080CD
:1046E000F580A280B380C48085EA882E87E0982E6A
:1046F0007090A907711020C0CC20D9F0FF2009F4D8
:1047000019C1C8010E94EC09882309F413C187E08C
:10471000F801D40101900D928A95E1F7F1E0CF12F2
:1047200006C08091A5079091A6070E94DD090E940E
:104730000E23FF24F39451C0D090AA078091A707BD
:104740009091A8079501281B390BDD2009F4BAC008
:104750002F3A310508F090C0CC2059F39091A6076C
:10476000C1808091AB07803108F058C0C91214C0D5
:104770009091A5079E1110C0F1104AC08F70806102
:104780008093AB0785EA97E00E94741C8091AB0789
:10479000F8018683F12C21C0F1103AC040E06C2D65
:1047A0008E2D0E94BA0F40E06C2D8E2D0E94BA0F04
:1047B000F82E8111EFCF888599850E94DD09292F78
:1047C00022952F70903470F49F702230A0F09923BE
:1047D000B1F0F8019681903190F48F2D2D96EDE097
:1047E0000C9453322A5F2F70223068F0C8010E9467
:1047F000741CFD2CF2CF992311F0882371F3805E95
:10480000883058F3F3CF803F40F3815F8230F9CF97
:104810008091AB0781608093AB07BCCFC91207C002
:104820009091A5079E1103C0FF2009F46CC0C80138
:104830000E94EC09882309F47DC0FF2009F47AC0A6
:104840008091AB07803278F02091A5073091A607C0
:104850003A832983BC82AB827D821E828F83CE0104
:1048600001960E94741C87E0F801A5EAB7E0019068
:104870000D928A95E1F75BCF8091AB07803150F4C0
:1048800085EA97E00E94741C87E0F40111928A95F2
:10489000E9F780CFCC2009F44CCF2091A607918175
:1048A0002913C5CF9091A5079E11C1CFF110BFCF9D
:1048B0008683C8010E94741C87E0F40111928A95D6
:1048C000E9F737CF2F3A3105F8F6CC2009F431CF8C
:1048D000FF2081F19091A6078181981321C08091DA
:1048E000A5078E111DC08091AB0780FD10C08031DF
:1048F00070F08683807F803F39F08681982F907F8B
:10490000905F8F70892B8683C8010E94741C87E09A
:10491000F801A5EAB7E001900D928A95E1F709CF79
:10492000C8010E94EC0981119ECF8091AB07816084
:104930008093AB07C8010E94741CFBCEABE1B0E0D2
:10494000E4EAF4E20C9441324E8B5F8B688F798FEE
:104950008A8F9B8F911110926A071D8A86E0FE0153
:104960007696DE011F9601900D928A95E1F78B896C
:10497000882329F061E0CE010F960E94BD0987E0EF
:10498000FE013F96DE01189601900D928A95E1F79F
:10499000CE0108960E945F2381112BC087E0FE01A3
:1049A0003896DE01119601900D928A95E1F72091DB
:1049B0006B0740916C078C858823D9F030E0C901E2
:1049C00001968770992750E084179507E9F097E0E2
:1049D000929FD001939FB00D1124A359B84FFE01AF
:1049E000319601900D929A95E1F780936B070E94A2
:1049F000080717E080916C0790916B07891312C02C
:104A00006B96E3E00C945D320E94011910926B07E3
:104A100010926C0787E0E5EAF7E0DF011D928A95C6
:104A2000E9F7E7CF189FC00111248359984F0E94DE
:104A30005F23882329F380916C0790E001968770AB
:104A4000992780936C07D6CFA6E0B0E0EAE2F5E2C2
:104A50000C9440320E9407178C018091F7069091C8
:104A6000F8068017910779F019821A820E940717B9
:104A7000BC0149815A8180E090E00E949E241093FD
:104A8000F8060093F7062696E4E00C945C32A0E169
:104A9000B0E0EDE4F5E20C9437321A821982FE019F
:104AA000339686E0DF011D928A95E9F783EEA82E02
:104AB00081E0B82E8E010F5F1F4F4801EE24E39472
:104AC000F12C2DEEC22E21E0D22EF50181915F0155
:104AD0008F3F09F441C0F894E82FE295EF70F0E0C1
:104AE00021A18F70A70102C0440F551F8A95E2F7DC
:104AF000CA01922F982B91A392A18095892382A31A
:104B0000789400C0E7EEF1E031E0712C21912F3F65
:104B100009F497C0A22FA295AF70A05EB0E08C916F
:104B200090E02F7002C0959587952A95E2F78170E5
:104B3000811187C0832F782A330FCE16DF0631F715
:104B4000F501319780818F3F11F00E94140A50EADD
:104B50005A95F1F7D8017C920F5F1F4FB7EEAB1655
:104B6000B1E0BB0609F0B1CF48E050E0B40184E108
:104B700094E00E94BA3200911D0410E0065B1B4FC6
:104B8000892B09F460C088E0F401A4E1B4E001904D
:104B90000D928A95E1F781E0809345030E94071703
:104BA00090934403809343038091F106882309F492
:104BB000A3C01A8619861C861B8680914E038A30F4
:104BC00008F063C07E01E9E0EE0EF11C46EF51E112
:104BD000B701C8010E9469106701882309F47AC0EF
:104BE00047EC51E1B701C8010E946910882309F41C
:104BF00071C047E251E1B701C8010E9469108823E2
:104C000009F468C046ED51E1B701C8010E9469107E
:104C1000882309F45FC010924E0380911C0490E039
:104C200044E050E0B601865B9B4F0E94BA3221E01F
:104C300020934203892B09F03FC06096EDE00C946D
:104C4000533280E078CF80914503882309F4ACCFBC
:104C500080914303909144030E94041C059708F43B
:104C6000A3CF44E050E064E174E0C8010E94BA328E
:104C7000892B41F084E0E4E1F4E0D80101900D9249
:104C80008A95E1F7109245038FCF80914003909170
:104C900041030E94041C843F914008F093CF80910F
:104CA0004203882351F2FE01399684E0DF011D9210
:104CB0008A95E9F710924203E0911C04F0E0E65B6C
:104CC000FB4F89859A85AB85BC8580839183A283C0
:104CD000B383B3CF80914E038F3F39F40E940717FF
:104CE0009093410380934003DACF8F5F80934E030C
:104CF0008A3008F492CFF2CFE0901C04F12CF70137
:104D0000E65BFB4F7F01F80180819181A281B38135
:104D10008093DC069093DD06A093DE06B093DF0659
:104D20008CED96E00E94840E8093DB068091E00675
:104D30009091E106A091E206B091E306F70180832D
:104D40009183A283B383C090E406D090E506E090FF
:104D5000E606F090E70680913C0390913D03A09118
:104D60003E03B0913F03C816D906EA06FB06B1F030
:104D7000C0923C03D0923D03E0923E03F0923F0389
:104D80000E94090DC61AD70AE80AF90AC092F3066A
:104D9000D092F406E092F506F092F60688E0E8EE8E
:104DA000F6E0A7E5B7E001900D928A95E1F745CFCF
:104DB000CDB7DEB762970FB6F894DEBF0FBECDBF9A
:104DC00085B7806885BF85B7806885BF84B7877FD2
:104DD00084BF0FB6F894A895809160008861809395
:104DE0006000109260000FBE80E890E00FB6F8946B
:104DF00080936100909361000FBE81E08093440135
:104E000082E19AE090931303809312030E94650E4F
:104E10000E945F0F8091E20084608093E2007894AA
:104E200080914904882399F08091E9001091EC0069
:104E30001795112717958F70182B1092E900809104
:104E4000E80083FD0E9448191F701093E90082E07A
:104E500084BD93E095BD9AEF97BD80936E0010924C
:104E6000F3061092F4061092F5061092F606809161
:104E7000D80080618093D8002AE12A95F1F700C01C
:104E80008091D90080FF42C281E08093F1061092A8
:104E9000F206109205010E94BB30809105018091BD
:104EA000050191E08927880F880F80931D0494E005
:104EB000981B90931C0484E90E94140A86E60E94C1
:104EC000140A87E90E94140A86EC0E94140A07EE6D
:104ED00011E09DEEC92E91E0D92ED8018D918D0162
:104EE0008F3F11F00E94140AC016D106B1F788E076
:104EF000EAE4F4E0DF01482E1D924A94E9F7E4E188
:104F0000F4E0DF011D928A95E9F780E090E00E94CD
:104F1000EF32853E9E4F09F461C065EE7EEF80E082
:104F200090E00E94233360E082E090E00E9405332D
:104F300081E090E0909364078093630761E083E0F1
:104F400090E00E94053360E074E184E090E00E940C
:104F5000233360E086E090E00E94053360E087E064
:104F600090E00E94053340E050E0BA0188E090E014
:104F70000E94173360E083E290E00E94053360E016
:104F80008CE090E00E94053360E08DE090E00E94AC
:104F9000053319821A821B821C821D821E821F8287
:104FA000188648E050E067E170E0CE0101960E946B
:104FB000F53240E050E0BA018FE190E00E941733F3
:104FC00040E050E0BA018FE090E00E94173340E0EB
:104FD00050E0BA0183E190E00E94173382E090E054
:104FE0000E94E73280937B0484E090E00E94EF32DD
:104FF000909369078093680783E090E00E94E7320E
:1050000090E00E9473060E94C70B10921E0440E1BC
:1050100050E06FEF70E087E394E00E94D03210928E
:10502000520440E150E06FEF70E08BE694E00E94A4
:10503000D03281E080935F0748E050E067E170E0A4
:1050400087E597E00E94D73210925F07809157075B
:105050008430F8F485E0809357078091480190915F
:105060004901A0914A018093580790935907A09352
:105070005A078FE780935B078FEF80935C0748E0C8
:1050800050E067E170E087E597E00E94F53210920A
:105090005F078091F10691E08927880F8093B6061B
:1050A00080E880938E040E943F2F6BE070E082E7DF
:1050B00098E00E94CE15882309F443C08091B6067B
:1050C00065E070E081FD2EC18DE698E00E94CE156E
:1050D0008823B9F16DE070E08BE598E00E94CE1571
:1050E000882379F10E94090D69877A878B879C87CD
:1050F000DC01CB01805A9541AF4FBF4F8093BA0678
:105100009093BB06A093BC06B093BD06E6EBF4E01B
:1051100080E092E0DF019C011D9221503040E1F7D8
:10512000F0938D04E0938C048FEF9FEF9093B9067A
:105130008093B80681E08093C1068093BE061092EA
:10514000B7068091F106811102C00E94BE3086E050
:1051500091E090931A0780931907CE010196898BED
:105160009A8B80914904853069F410E400E182E172
:10517000F82E80914904853009F4D7C00E940119A6
:105180000E94480C0E944725ACE7B4E0BA87A98783
:10519000EAE4F4E0FE87ED87DF01ECE7F4E09191CB
:1051A0008D9114E8412E14E0512E4E165F0609F43D
:1051B000F4C09817A1F32090F106ADEEAA2EA1E05D
:1051C000BA2ED12CAD85BE85CD90BE87AD87E98541
:1051D000FA853190FA87E9873C14B1F13C24450106
:1051E000512C44244394842D8321882309F1142DC8
:1051F0001C212220A1F05982DA820E9407179C8389
:105200008B83F1E0FD8391E0111101C090E09E835A
:1052100049815A816B817C818D810E949E2480917D
:10522000520411111CC1FE2C893008F048C1EF2C2A
:105230005394440CEFEF8E1A9E0AF6E05F12D3CF20
:10524000E985FA853197C082D39426E0A20EB11C7D
:1052500038E0D312B7CF0E94260DF090F106F1107E
:10526000A6C00E949812F090C106FF2009F4F4C075
:105270008091BF069091C0060E94041CC29708F45A
:105280000FC20E9407179093C0068093BF0686EB5B
:1052900094E090938D0480938C048091F106882390
:1052A00009F4E2C280E199E00E94CC168091650782
:1052B00090916607292F3327E0E02115310511F081
:1052C000C901E8E09C01B4E036952795BA95E1F76D
:1052D0002115310511F0EC5FC9019C013695279528
:1052E000369527952115310511F0EE5FC901969588
:1052F0008795892B09F0EF5F85EC98E0E83008F09E
:105300008EC1F0E0E456FC4C0C94AB320E94650E6A
:10531000109249041092F10681E08093F206809386
:105320000501BBCD88E698E0D1CE80914904843058
:1053300039F10E9498120E94DB151092470448E14F
:1053400050E00FB6F894A895409360000FBE1093FC
:10535000600083B7817F846083BF83B7816083BF30
:105360007894889583B78E7F83BF0FB6F894A895FD
:1053700080916000886180936000109260000FBE91
:105380000E944725EAE4F4E081918111B3C382E5EC
:1053900094E08E179F07C1F7ECCE98130CCF0E94B4
:1053A0002425F090F106FF2009F4BCC0F12C0091F7
:1053B0004D0710914E070115110509F444C0809165
:1053C000880490918904A0918A04B0918B04BC0157
:1053D000CD010E94590D69877A878B879C878091C0
:1053E000840490918504A0918604B0918704498437
:1053F0005A846B847C84481659066A067B0618F129
:10540000C8010E9449069801205E31092830310503
:1054100008F000C10E940C11802F0E940018109209
:105420004D0710924E071092880410928904109232
:105430008A0410928B0410928404109285041092B6
:105440008604109287040E9498128091C1068111EF
:105450000FCFFF2009F46CC00E94ED1569C0D40184
:10546000FC90BFEFFB1609F4DECE01E010E0EE2465
:10547000E394883038F5409152048F2D90E0242F2A
:1054800030E0F901EE5AFB4FDC01AA0FBB1FA35E0F
:10549000BD4F5C915183880F991FDC01A351BE4F12
:1054A000D1968C918187F18AF901EE0FFF1FEE5A98
:1054B000FB4F128E118E4F5F40935204B8CE00E026
:1054C00010E0E12C78E0672E712C601A710AB801A7
:1054D0006D5A7B4FA30183E594E00E94C732B80167
:1054E000655A7B4FA3018BE594E00E94C732A3016C
:1054F000440F551FB801660F771F65597B4F8BE628
:1055000094E00E94C732B8016D597B4FA30183E636
:1055100094E00E94C73288E08E1980935204E11013
:10552000AACF85CE0E9498128091C1068111A0CE8B
:1055300086E0EEE3F7E0A989BA8901900D928A9599
:10554000E1F7B0903F070091400710914107D090DC
:105550004207F090430710924007109241071092C3
:10556000420710924307812F802B882379F0809186
:10557000C4069091C5060E94041C9C0180913C07C2
:1055800081113CC22B30310508F03EC28D2D8F2990
:10559000882379F08091C2069091C3060E94041C72
:1055A0009C0180913B07811167C22B30310508F0C7
:1055B00069C280913F07B81216C0809140078823C6
:1055C00011F0801310C090914107992311F09113AD
:1055D0000AC020914307211106C0209142072111E2
:1055E00002C0892B81110E94131786E0E989FA898C
:1055F000AEE3B7E001900D928A95E1F70E94480C66
:105600009091C606891709F4ACCD8093C6060E9416
:10561000090DA7CD0E941D11FFCE88E099E00E94E0
:10562000DA1680914707805D0E941A1683EC98E095
:105630000E94CC1680914607805D0E941A168FEB5F
:1056400098E00E94CC1680914407909145072091E4
:105650001001309111018217930709F075C0209154
:105660009504203209F070C0EFE8F4E06F018191F9
:105670008032E1F3F60101900020E9F78F0101503B
:105680001109C016D10608F4E9C08DEB98E00E941C
:10569000CC16809145010E941A1681E00E949A164C
:1056A0008091B8069091B906892B99F08091C10636
:1056B000882379F08091B70681110BC00E94ED1507
:1056C0002091B8063091B90680E02115310509F026
:1056D000D1C08091BE06882309F4BBCE0E94090D7B
:1056E00069877A878B879C878091BA069091BB06E1
:1056F000A091BC06B091BD0649845A846B847C8419
:10570000481A590A6A0A7B0A2FEF421652066206A5
:105710002FE7720608F09DCE0E94DB159ACE81E03D
:1057200099E07DCF89EF98E07ACF8EEE98E077CF41
:1057300083EE98E074CF89ED98E071CF81ED98E029
:105740006ECF8BEC98E06BCF90931101809310019A
:1057500020E2209395049C0140E050E029873A879D
:105760004B875C871092940474E9C72E74E0D72E9F
:10577000EAE08E2E912CA12CB12CCA01B901A50111
:1057800094010E9489326D877E878F87988B8D85E3
:10579000805D4D845E846F84788800E010E0452849
:1057A0004628472861F563E9C62E64E0D62E80932B
:1057B000930429873A874B875C8769857A858B852F
:1057C0009C85A50194010E9489326D877E878F8711
:1057D000988B8D85805D2D853E854F85588901E0AC
:1057E00010E0232B242B252B51F480E249845A848A
:1057F0006B847C8445284628472809F080E39AE09A
:10580000892E912CA12CB12CD6018E936D01698526
:105810007A858B859C85A50194010E948932298710
:105820003A874B875C870F5F1F4F0530110509F4DE
:105830001BCFCA01B901A50194010E9489326D876D
:105840007E878F87988B8D85805D4D845E846F8485
:105850007888452846284728B9F6C7CFD6018D91C4
:105860006D010E941A160DCF8DE798E00E94CC16AC
:1058700017CF8F5F082F10E0CC24C394D12C082EB3
:1058800002C0CC0CDD1C0A94E2F7A601422353238C
:10589000452B79F39091B60690FD43C0980136955B
:1058A000279536952795922F8295880F80763FE130
:1058B000380F8093140120931701309315019093B2
:1058C000180124E630E047E050E062E171E088E74B
:1058D0000E94752F892B09F0FCCEA801F5E0440F3A
:1058E000551FFA95E1F78091B60680FD22C04A5413
:1058F0005B4F04E610E020E230E060E488E70E94BD
:105900000D30892B09F0E5CEC094D0948091B80673
:105910009091B906C822D922D092B906C092B80691
:10592000D8CE880F880F880F37E0380F20E093E03B
:10593000C0CFE6E9F4E080E2DF011D928A95E9F745
:10594000E3ECF2E0FA87E9876FEB72E037EC232EA5
:1059500032E0332EE7E08E2EE985FA85A191FA87B1
:10596000E987FB018191BF01840F952F911D9C0157
:105970002A543B4F2901EA2FF0E0EA56FB4F80E022
:1059800090E0682C681A99249394082E01C0990C11
:105990000A94EAF78201A12CD801BD908D01B920AB
:1059A000262D2A19277030E0BB2D022E01C0BB0F17
:1059B0000A94EAF73195219531092770332701C000
:1059C000B6942A95EAF7BB2A20812B292083A39439
:1059D00028E0722EA710E0CF01963196883091050D
:1059E00081F629853A852216330609F0B5CF04E6FB
:1059F00010E020E230E046E954E07FCF2531310568
:105A000008F4C4CD8F3F19F08F5F80933C070023CB
:105A100059F00E94030C9FEF10160CF491E0899F3F
:105A2000802D112480934007112359F00E94030C0C
:105A300091E011160CF09FEF899F802D1124809327
:105A4000410780914007882309F4A0CDC090410709
:105A5000CC2009F49BCD0E94F50B811101C081E09F
:105A6000809340078C2D0E94F50B882319F08093BA
:105A700041078CCD81E0FBCF2135310508F499CD6C
:105A80008F3F19F08F5F80933B07DD2059F00E9414
:105A9000230C9FEF1D140CF491E0899F802D11249D
:105AA00080934207FF2059F00E94230C91E01F14BD
:105AB0000CF09FEF899F802D1124809343078091E4
:105AC0004207882309F475CDF0904307FF2009F4BD
:105AD00070CD0E94F50B811101C081E080934207D7
