:100000000C942A060C9447060C9447060C94023173
:100010000C9447060C9447060C9447060C9447062C
:100020000C9447060C9447060C94B82D0C94A02E03
:100030000C94E0160C9447060C9447060C94470663
:100040000C9447060C9447060C9447060C944706FC
:100050000C9447060C94942D0C9447060C94470678
:100060000C9447060C9447060C9447060C944706DC
:100070000C9447060C9447060C9447060C944706CC
:100080000C9447060C9447060C9447060C944706BC
:100090000C9447060C9447060C9447060C944706AC
:1000A0000C9447060C9447060C94470600AF00AE2C
:1000B0000000000000003E5B4F5B3E003E6B4F6B5C
:1000C0003E001C3E7C3E1C00183C7E3C18001C5729
:1000D0007D571C001C5E7F5E1C0000183C18000051
:1000E000FFE7C3E7FF00001824180000FFE7DBE785
:1000F000FF0030483A060E00262979292600407F65
:1001000005050700407F05253F005A3CE73C5A00A3
:100110007F3E1C1C0800081C1C3E7F0014227F220E
:1001200014005F5F005F5F0006097F017F000066CB
:1001300089956A0060606060600094A2FFA29400EC
:1001400008047E04080010207E20100008082A1CE5
:100150000800081C2A0808001E10101010000C1EB1
:100160000C1E0C0030383E383000060E3E0E0600E5
:1001700000000000000000005F0000000007000712
:100180000000147F147F1400242A7F2A12002313F6
:10019000086462003649562050000008070300003A
:1001A000001C224100000041221C00002A1C7F1C70
:1001B0002A0008083E080800008070300000080887
:1001C0000808080000006060000020100804020019
:1001D0003E5149453E0000427F4000007249494976
:1001E00046002141494D33001814127F1000274565
:1001F000454539003C4A4949310041211109070070
:10020000364949493600464949291E000000140074
:1002100000000040340000000008142241001414C3
:1002200014141400004122140800020159090600A8
:100230003E415D594E007C1211127C007F494949B4
:1002400036003E41414122007F4141413E007F490D
:10025000494941007F09090901003E4141517300AC
:100260007F0808087F0000417F4100002040413F97
:1002700001007F08142241007F40404040007F027F
:100280001C027F007F0408107F003E4141413E0078
:100290007F09090906003E4151215E007F091929A5
:1002A000460026494949320003017F0103003F40CF
:1002B00040403F001F2040201F003F4038403F008B
:1002C0006314081463000304780403006159494D62
:1002D0004300007F4141410002040810200000411A
:1002E00041417F00040201020400404040404000C0
:1002F0000003070800002054547840007F2844443D
:100300003800384444442800384444287F00385496
:100310005454180000087E0902001824241C780098
:100320007F080404780000447D4000002040403DE8
:1003300000007F102844000000417F4000007C0442
:10034000780478007C080404780038444444380079
:100350007C1824241800182424187C007C08040429
:10036000080048545454240004043F4424003C40F2
:1003700040207C001C2040201C003C4030403C00C1
:100380004428102844004C9090907C004464544CC5
:1003900044000008364100000000770000000041E2
:1003A000360800000201020402003C2623263C001D
:1003B000000000000000000000000000000000003D
:1003C000C0E0F0F8F81800C0F0FCFEFFFFFFFFFFF0
:1003D000FFFF7E00000000000000000080C0E0E0A1
:1003E000E0E0E0E0E0E0C0800000000080C0E0E08D
:1003F000E0E0E0E0E0E0C080000000E0E0C0C0E05D
:10040000E0E0E00000E0E0C0C0E0E0E0E0E0C0806C
:100410000000000080C0E0E0E0E0E0E0E0E0C0805C
:100420000000000000000000000000000000E0F0FC
:10043000F0F0E0ECEEF7F37020007C7C7C7E007E38
:100440007E7E7F7F7F000080C0E07E5B4F5BFEC0D2
:100450000000C000DCD7DEDEDED7DC00C00000001C
:10046000000000000000000000000000000000008C
:10047000000000000000000000F8FCFEFFE000FFAC
:10048000FFFFFFFFFF80FFFFFFFFFFFFFFFFFF1FDB
:100490000701000000000000000000FFFFFF8100D6
:1004A000000000000081C3C3C30000FFFFFF810004
:1004B000000000000081FFFFFF0000FFFFFF0100C0
:1004C0000000000000FFFFFF010000000001FFFF2F
:1004D000FF0000FFFFFF9D1C1C1C1C1C1C9DDFDF80
:1004E000DF000000000000000000000000000F1FFF
:1004F0003F7F7F7F7F7F3F1E0C001F1F1F3F003FFE
:100500003F3F7F7F7F00307B7F7830202030787FB7
:100510003B0003000F7F0F0F0F7F0F000300000051
:1005200000000000000000000000000000000000CB
:10053000000000000000000000030F1F3F3F3F3F8E
:100540001F1F3F3F7F7F7F3F3F1F3F7F7F7F7F7C1E
:100550007878381C0F000000000000000103070736
:10056000070707070707030100000000010307074B
:100570000707070707070301000000070707000038
:100580000000000000070707000000000000070748
:100590000700000001030707070707070707030114
:1005A000000000000000000000000000000000004B
:1005B000000000000000000000000000000000003B
:1005C000000000000000000000000000000000002B
:1005D000000000000000000000000000000000001B
:1005E000000000000000000000000000000000000B
:1005F00005010902A10185020901A10005091901EE
:1006000029081500250195087501810205010930A9
:1006100009311581257F95027508810609381581F4
:10062000257F950175088106050C0A38021581257C
:100630007F950175088106C0C005010980A101856B
:100640000319012AB700150126B70095017510811D
:1006500000C0050C0901A101850419012AA0021599
:100660000126A002950175108100C005010906A1AF
:10067000018506050719E029E7150025019508758C
:100680000181020507190029EF1500250195F07574
:100690000181020508190129059505750191029549
:1006A0000175039101C005010906A101050719E0C3
:1006B00029E7150025019508750181029501750846
:1006C00081010507190029FF150026FF0095067511
:1006D00008810005081901290515002501950575F2
:1006E000019102950175039101C009023B000201CD
:1006F00000A0FA0904000001030101000921110111
:1007000000012244000705810308000109040100DB
:10071000010300000009211101000122B6000705B4
:10072000820320000112010002000000085346016C
:10073000000100010200010C0343006F0072006E13
:100740000065000000100366006F006F0073007406
:100750000061006E000000040309040001010101B2
:10076000010101010102020202020202020203036C
:10077000030303030303040404040404040505053C
:1007800005050606060606070707070708080808FE
:10079000090909090A0A0A0B0B0B0C0C0C0D0D0DAB
:1007A0000E0E0E0F0F0F1010111111121213131441
:1007B00014151516161717181819191A1A1B1B1CB9
:1007C0001D1D1E1E1F202021222223242425262613
:1007D000272829292A2B2C2D2D2E2F303132323348
:1007E0003435363738393A3B3C3D3E3F4041424351
:1007F0004445464748494A4C4D4E4F505153545535
:100800005658595A5B5D5E5F616264656668696BE4
:100810006C6D6F7072737577787A7B7D7E80828362
:100820008587888A8C8E8F91939596989A9C9EA0A6
:10083000A2A3A5A7A9ABADAFB1B3B5B7BABCBEC0B3
:10084000C2C4C6C9CBCDCFD1D4D6D8DBDDDFE2E47C
:10085000E7E9EBEEF0F3F5F8FAFDFF00DA0281FFCD
:10086000D9F1DB20A4A62EAF00A0C0D30000A1C800
:10087000D30000AED580A81F408D14200080818257
:10088000838485868788898A8B8C8D8E8F909192C0
:100890009394A0A1A2A3A4A5A6A7A8A9AAABACAD16
:1008A000AEAFB0B1B2B3B4C0C1C2C3C4C5C6C7C88D
:1008B000C9CACBCCCDCECFD0D1D2D3D4003A002C24
:1008C000206B007800556E646566004D4F555345AA
:1008D0000053594D424F4C530046554E4354494FD7
:1008E0004E5300544F47474C45204E4156004E4111
:1008F0005649474154494F4E004E554D424552537B
:100900000051574552545900434F4C454D414B00FF
:100910004C617965723A20002E0214001A290926CA
:1009200013000500292104281524162117220A275F
:10093000E1001D001B2C06250733192F00000000C5
:1009400000002B452C4328422F0033001C39183659
:100950000F000D00343112380C24083111321027E9
:10096000E5005400373C36250B330E2F0000000005
:10097000000024522A464C472B0014001A0008009D
:1009800015001700292104001600070009000A00BD
:10099000E1001D001B00060019000500000000001A
:1009A00000002B452C0028422F00130012000C00E1
:1009B00018001C00343133380F240E310D320B0077
:1009C000E500540037003600100011000000000060
:1009D000000024522A464C472B001E001F00200016
:1009E000210022006252E300E200E000E100000783
:1009F000E1001D011B0106010701000F00000000BE
:100A0000000025522C43280038002700260025002E
:100A1000240023002D00360223002200210036008E
:100A20003200370220001F001E00370000000000C7
:100A3000000038442746270200001E021F14090147
:100A400013010505000004281524162117220007AC
:100A5000E1001D011B010601070119010000000052
:100A6000000000000000000038002E004D004B0088
:100A70004E004A002D0036024F0052005100500037
:100A8000320037020000A900AA00000000000000A8
:100A9000000038003802270230141E021F142514EB
:100AA00026142002300023022114250226022202ED
:100AB0002D1464143002640064023202000000004D
:100AC0000000390067526252000000004D004B00E8
:100AD0004E004A00000000004F005200510050003C
:100AE000E50000000000A900AA00000000000000CE
:100AF00000000000000000001B700000000000006B
:100B0000000000001C70E300E200E000E100005281
:100B1000207823782578277821780152000000007A
:100B2000000000000000000038002E0042004100DC
:100B3000400045002D0036023F003E003D004400CD
:100B4000320037023C003B003A0043000000000046
:100B5000000039002A004C0030141E021F14251416
:100B6000261420023000230221142502260222022C
:100B70002D1464143002640064023202000000008C
:100B800000002C002C0028000000000000000000E5
:100B9000000000000000E300E200E000E1000000CF
:100BA000E500000000000000000000000000000060
:100BB00000000000000000002B0000000000CD003D
:100BC0000000D9006752DB00CF00CE00D000DC006F
:100BD00000000000000000000000DA00000000003B
:100BE00000002C00D100D200000000002B014F04B7
:100BF00050042B030000E3004F24523151325000C7
:100C0000DF00DE00DD00D200D100D30000000000D4
:100C100000000000000000002020202061626364CA
:100C200065666768696A6B6C6D6E6F7071727374FC
:100C300075767778797A31323334353637383930DA
:100C4000524542545F2D3D5B5D5C233B27602C2E5B
:100C50002F20202011241FBECFEFDAE0DEBFCDBF52
:100C600013E0A0E0B1E0E6E4F7E602C005900D92E3
:100C7000A432B107D9F727E0A4E2B3E001C01D9286
:100C8000AE3BB207E1F70E94D8260C9428330C94AF
:100C900000009C019A9581159F4118F5F901EE27F6
:100CA000F270832F8170B90166277470A9014427FF
:100CB000587034FF0CC08295807FEF2B09F0806262
:100CC000672B09F08064452B69F080680895EF2B4D
:100CD00009F08260672B09F08460452B19F0886069
:100CE000089580E00895909376078093750708959E
:100CF0009093780780937707089521E030E002C051
:100D0000220F331F8A95E2F7809177079091780739
:100D1000822B932B0E947806089521E030E002C0D8
:100D2000220F331F8A95E2F720953095809177073F
:100D300090917807822393230E9478060895983033
:100D400098F5863088F5E82FF0E086E0989FE00D72
:100D5000F11D11248E2F877041E001C0440F8A9548
:100D6000EAF783E0F695E7958A95E1F7EE0FFF1F26
:100D7000EE0FFF1FEB5CF84F20E030E070E0519188
:100D8000DF011197CB01022E02C0969587950A9438
:100D9000E2F7817081958527842385278C932F5FC7
:100DA0003F4F2430310559F70895983078F5863053
:100DB00068F5E82FF0E086E0989FE00DF11D112422
:100DC0009E2F977083E0F695E7958A95E1F7EE0FF1
:100DD000FF1FEE0FFF1FEB5CF84F40E050E080E09C
:100DE000219130E0092E02C0369527950A94E2F74A
:100DF00021703327042E01C0220F0A94EAF7822BB8
:100E00004F5F5F4F4430510559F7089580E00895D2
:100E100080917E0790917D07981301C008958F5FA0
:100E20008770FACF9091790780958923809379070D
:100E3000282F277021110DC0891759F090917B0739
:100E400092FF07C08695869586950E948D06109222
:100E5000790708959091720780917C07982B5091A3
:100E600073075523C1F0809143018130E1F48091F3
:100E70007A0787FF18C08DE120E333E040E0F901F5
:100E800060812F5F3F4F61114F5F8150C0F741116B
:100E900010927307952B80915B0780958923909121
:100EA0005A07892B089585E028E233E0E7CF982F91
:100EB0009095809172078923809372070895783006
:100EC000B8F46630A8F48830B0F4E62FF0E096E08D
:100ED000799FE00DF11D112490E3899FE00DF11D34
:100EE0001124EE0FFF1FE85EF64F8591949108954F
:100EF00080E090E0089581E0FCCF803E9105D1F143
:100F0000C8F48133910509F47FC048F48932910512
:100F100009F46FC08A32910509F47DC008958933C0
:100F20009105E1F082389105C9F08533910509F406
:100F30005BC00895843E9105D1F148F4823E91054D
:100F400031F1833E910541F181EE90E00895863EB6
:100F50009105C1F1873E9105E1F1089520917A074D
:100F60002370211165C020917B0723FF14C089E203
:100F700090E0089520917A0720FD43C030917B07CF
:100F800030FF09C024FF4EC080E090E0089520911A
:100F90007A0722FDF7CF089520917A0722FD45C0F8
:100FA00030917B0730FD44C024FFF5CFEDCF209179
:100FB0007B0721FFF0CF80917A0784FDE5CF87EE94
:100FC00090E0089520917A0723FFE5CF24FDDCCF40
:100FD000F6CF20917A0723FD2EC030917B0731FF99
:100FE000E3CF84EE90E0089520917A0725FFD3CFD8
:100FF000BECF20917A0725FD21C020917B0723FFDA
:10100000CACF89E390E0089520917A0726FFC3CFE5
:101010008AE290E0089520917A0726FFBCCF81E311
:1010200090E0089583EE90E0089582EE90E00895B8
:1010300080EE90E0089586EE90E0089585E390E0DC
:10104000AACF90917A0792FF10C041E0282F247117
:10105000243009F040E031E0282F2871283009F0D1
:1010600030E0431711F02CE0822793FF10C041E0DD
:10107000282F2471243109F040E031E0282F287115
:10108000283109F030E0431711F02CE0822730912D
:101090007B0730FF10C051E0282F2171213009F06B
:1010A00050E041E0282F2871283009F040E0541723
:1010B00011F029E0822731FF10C041E0282F217173
:1010C000213109F040E031E0282F2871283109F062
:1010D00030E0431711F029E0822794FD877E0895C0
:1010E0001F93CF93DF930E947D07EC01811522E5CA
:1010F000920708F053C0811540E5940708F0DDC061
:10110000803E9105F8F48D3C910508F0AEC0883A18
:10111000910580F4853A910508F099C081309105D8
:1011200021F00497813A910550F4CE01DF91CF91DF
:101130001F910895885A91094B9708F48BC0C0E01D
:10114000D0E0F3CF811550E49507F8F4C11580E2A3
:10115000D80708F0CBC0C83ED10538F3CE019A9528
:1011600081159F4160F78D2F0E942108182FCE0115
:1011700099270E947D07212F30E0322F2227E90195
:10118000CC27DF71C82BD92BD0CF99270E947D07A0
:10119000CC27DF70C82BD92BD06AC7CF803842E567
:1011A0009407C8F5803652E5950708F067C0C0344B
:1011B00082E5D807B0F08C2F86958695877020E25F
:1011C000829FC0011124C37021E030E0A90102C058
:1011D000440F551FCA95E2F7EA01C82BD92BDC68EA
:1011E000A4CFC03252E5D50708F041C08C2F8695B8
:1011F000869520E2829FC0011124C37021E030E077
:10120000A90102C0440F551FCA95E2F7EA01C82B95
:10121000D92BDD688ACF803C52E5950760F48F7149
:10122000C03AD24508F03FC090E0982F8827EC01E3
:10123000C46FD06A7ACF805C9245809708F07FCFE8
:10124000DC2FCC27CC27DF71C06FD06A6ECFA4977C
:10125000D0646BCFC85AD0E0CC0FDD1FC752DD4F32
:101260000990D881C02DD46460CFD0655ECFCF7196
:10127000D0E0DC2FCC27C16FD06A57CF86958695FA
:10128000877020E2829FC0011124C37021E030E00A
:10129000A90102C0440F551FCA95E2F7EA01C82B05
:1012A000D92BDA6842CF0E942108C82FD0E0DC2F6A
:1012B000CC27CC27DF71D06238CF8F710E942108F4
:1012C00065E0D695C7956A95E1F7CF70D0E0DC2F41
:1012D000CC27282F30E084FF05C054E0220F331FB5
:1012E0005A95E1F7C22BD32BD0691FCF8D2F8F7169
:1012F0000E942108182FCE0199270E947D07212FD7
:1013000030E0322F222722273F71282B392BE90189
:10131000D2CFA0E0B0E0EFE8F9E00C943A328C01D3
:10132000E0907707F09078078091750790917607A5
:10133000E82AF92ACFE0D0E0CC24C394D12CC6010E
:101340000C2E02C0880F991F0A94E2F78E219F216C
:10135000892B49F4219798F7B12C8B2DCDB7DEB7A7
:10136000E9E00C945632BC2EB8018C2F0E945F0726
:101370000E947008019771F3F0CF0F931F93CF93E2
:10138000FC01858100811181882391F0662381F021
:10139000C8010E948909C82F682FC8010E949F06B2
:1013A000B8018C2F0E945F07CF911F910F91089574
:1013B000C8010E94D506C82FF3CFCF93DF93D82F53
:1013C000C92F0E9489096D2F7C2F0E945F070E9400
:1013D0007008DF91CF910895FC0184818823A1F0EA
:1013E000808191810E94DD09282F92959F7096300F
:1013F00091F060F4925F9F70923030F481E0203F72
:1014000079F030F4283E30F080E004C09A5FF3CFEA
:10141000243FD1F7089581E0283E18F0213FF9CF0D
:101420000895089580E00895F894E82FE295EF700C
:10143000F0E041A18F7021E030E0B90102C0660FF9
:10144000771F8A95E2F7CB01962F9095942391A36D
:1014500092A1892B82A378940895A0E0B0E0E3E301
:10146000FAE00C943B32E82FF0E0E55AF84F7111A6
:1014700009C0E4918E2F7E2F6E2FCDB7DEB7E8E046
:101480000C945732262F30E0C72FD0E0F491EF2F85
:1014900086E0829F8001839F100D1124EE24EA9440
:1014A000F12CC801B7010E941D32AB01220F331F7E
:1014B00065E5649FC001659F900D1124281B390BC1
:1014C000822F880F280FC7018C1B9D0BF89FD0011E
:1014D000F99FB00D11248B2F2C9FB0012D9F700D03
:1014E0001124672F77276701C61AD70AB601F69F1E
:1014F0006001F79FD00C1124B701621B71099B0199
:101500002C9FB0012D9F700D3C9F700D1124672FF3
:1015100077279701261B370BF29FE001F39FD00D31
:1015200011247D2F43305105C9F00C3F93E019077A
:1015300058F441305105B1F04230510509F09CCFCB
:10154000EB2F8D2F7F2F98CF4430510571F046300F
:10155000510509F491CF7B2F8D2D8ECF7D2DEB2F53
:101560008F2F8ACF7F2FED2D87CFED2F7B2FF8CFB9
:10157000982F80910407882329F081E09B3108F09F
:1015800080E0089581E09533FACF9C0180E090E0FF
:10159000269F812D369F800D911D11240895982F2F
:1015A000E82F96FDE0958E2F8F7096FD8F5FE69564
:1015B000E695E695E670F0E0E551FE4F2181289F23
:1015C000202D812D112422952F708295807F282B2C
:1015D0008081820F97FD8195805808951F93CF9346
:1015E000DF93D62FC72F182F822F86950E94CF0A00
:1015F000805887FD8195880F282F219F212D112448
:10160000822F6D2F7C2FDF91CF911F9108950F9323
:101610001F93522F10E0F801EE0FFF1FE350FE4F13
:10162000A1A9A052BB0B9D015203F001539FF00DE5
:101630001124000F111FD801A35DBD4F2C9120571D
:10164000330B4203D001439FB00D11249F012A0F99
:101650003B1F37FF02C0215C3F4F96E03595279531
:101660009A95E1F7620F1F910F91089550E0FA01EA
:10167000EE0FFF1FE350FE4F31A9440F551FFA0133
:10168000E35DFD4F9081931B692F660F690F313227
:1016900010F0620F0895621B0895EF92FF920F936E
:1016A0009701201B31092F3F310519F010F02FEF62
:1016B00030E0322F3095482F430F08F44FEF842F3E
:1016C000620F0F91FF90EF90089530910407311150
:1016D00004C08B3191050CF04B970E94C90B089503
:1016E000FF920F931F93CF93DF93182F062FF42EA3
:1016F000C0E0D0E02F2D402F612FCE010E94650B5E
:101700002196C633D105B1F7CDB7DEB7E5E00C942D
:101710005A329BE0899F802D1124980F973308F04F
:1017200096E320910407211104C08B3128F48BE14A
:1017300008959C3108F09BE10895E9E6F7E0808187
:1017400091E0892780831092470180917107816021
:10175000809371070895E9E6F7E0248130E1230FD3
:1017600008F42FEF248380917107816080937107C3
:101770000895E9E6F7E0248130E1231B08F420E036
:101780002483809171078160809371070895539A33
:101790000895FC01EE0FFF1FE80FF91FE458FC4FFE
:1017A0006183408322830895FC0185818623811112
:1017B0000AC082818823B9F06823918593FF05C010
:1017C00081E061110FC080E00895282F22952F70CD
:1017D0008F70282B962F92959F706F70962B81E0BB
:1017E0002913F1CF089581E0FDCF282F35EB230396
:1017F000C001112497FF04C080589109892F0895D2
:1018000080589F4FFBCF80914F0780FD14C081FD12
:1018100014C082FD16C080914E07882381F08E315E
:1018200080F428E2829FC00111246EE170E00E94E2
:101830007432862F08958AE0089584E1089584E043
:10184000089588E2089580914F0780FD17C081FDBB
:1018500017C082FD19C080914D07882399F0883206
:1018600098F428E0829FC001112468E270E00E9491
:1018700074326115710551F0862F089562E0FCCF36
:1018800064E0FACF61E0F8CF68E0F6CF81E0089538
:1018900080910307882359F0E0912B07F0912C07E2
:1018A000309729F00190F081E02D0995089580E0AE
:1018B0000895A3E0B0E0EFE5FCE00C9441329C0118
:1018C00080917A0390917B0382179307A1F0309364
:1018D0007B0320937A03E0912B07F0912C0730973C
:1018E00051F083E089833B832A830084F185E02DD6
:1018F000CE01019609952396E2E00C945D32A3E0B7
:10190000B0E0E5E8FCE00C9441329C018091780362
:101910009091790382179307A1F030937903209374
:101920007803E0912B07F0912C07309751F084E079
:1019300089833B832A830084F185E02DCE010196C3
:1019400009952396E2E00C945D3290914301913029
:10195000C1F490917A0797FF14C0E82FE695E695B9
:10196000E695803FF8F4F0E0E25DFC4F877021E0FF
:1019700030E001C0220F8A95EAF78281822B8283B0
:101980000895A8E2B3E0EFEF90E02D91821751F0B7
:10199000EF3F19F4211101C0E92F9F5F9630A9F79D
:1019A000EF3F09F408950E2E000CFF0BEA5DFC4F8B
:1019B000E6CF909143019130E1F490917A0797FF3F
:1019C00018C0E82FE695E695E695803FF0F4F0E044
:1019D000E25DFC4F877021E030E0A90102C0440FB6
:1019E000551F8A95E2F7CA018095928189238283E7
:1019F0000895E8E2F3E09191891303C0DF011197A4
:101A00001C9253E0EE32F507B1F708958091420140
:101A10000895A4E0B0E0EFE0FDE00C9441328FB710
:101A2000F89420917403309175034091760350919E
:101A3000770329833A834B835C838FBF69817A81E3
:101A40008B819C812496E2E00C945D32A4E0B0E0AE
:101A5000ECE2FDE00C94413280910307882371F0A1
:101A60000E94090D69837A838B839C8369817A81C3
:101A70008B819C812496E2E00C945D320E94090DDA
:101A800069837A838B839C838091050790910607F5
:101A9000A0910707B091080729813A814B815C81A9
:101AA000280F391F4A1F5B1F29833A834B835C83AE
:101AB000DDCFA4E0B0E0EFE5FDE00C943F32462F2F
:101AC000572FBC012FB7F894809174039091750340
:101AD000A0917603B09177032FBF8C019D01041B69
:101AE000150B260B370BC901B8012496E4E00C94C2
:101AF0005B32A6E0B0E0EFE7FDE00C943D327C0104
:101B00000091610710916207209163072E838091F5
:101B100064078D83B801822F9D810E94590D643F17
:101B200071408105910518F10E94090D8B018E838A
:101B30009D8382E390E0A0E0B0E000939A041093CC
:101B40009B042E8120939C042D8120939D048093DF
:101B5000960490939704A0939804B0939904E0920C
:101B60005F07F09260072696E6E00C94593284EF06
:101B700091E0A0E0B0E0E1CFFC019B0180916A031D
:101B800090916B038617970740F0672B29F480919B
:101B9000E8008E778093E800C90140E0009741F4A7
:101BA000411106C08091E80082FF2FC080E00895B7
:101BB00020915B042223A9F12530A9F12091E800AE
:101BC00023FD2DC02091E80022FDECCF2091E800FC
:101BD00020FFE4CF3091F3002091F200009719F03C
:101BE0002830310558F041E02830310509F040E057
:101BF0002091E8002E772093E800D0CF41914093C8
:101C0000F10001972F5F3F4FE9CF80915B0488235C
:101C100041F0853041F08091E80083FFC3CF81E03F
:101C2000089582E0089583E008958091640387FF1A
:101C300013C08091E80082FF06C08091E8008B7796
:101C40008093E80004C080915B048111F2CF089575
:101C500080915B048823D9F38091E80080FFF8CF5E
:101C60008091E8008E77ECCF2091E4003091E50080
:101C700095E6A9018091EC008170882331F0809174
:101C8000E80080FF06C080E008952091E80022FD72
:101C90001BC080915B04882391F0853091F0809186
:101CA000EB0085FD10C02091E4003091E500421763
:101CB000530701F391509111DCCF84E0089582E045
:101CC000089583E0089581E00895E8EDF0E08081D3
:101CD0008E7F80831092E2001092DA001092E10071
:101CE000A0EEB0E08C9181608C9380818F778083AF
:101CF00019BCA7EDB0E08C918E7F8C9380818F7E94
:101D00008083109263030895FC01AC014C5F5F4F28
:101D10008FEF91E32191822728E030E087FF0BC00D
:101D2000880F89272150310921153105B9F7E417AA
:101D3000F50781F70895880FF5CF909169079370A3
:101D4000992391F0873008F086E0880F880F9091F2
:101D500069079370892B80936907109247018091DE
:101D60007107816080937107089580916907869556
:101D700086958F5F873008F081E00E949D0E089560
:101D800090916907969596958FEF890F913009F498
:101D900086E00E949D0E08959091690793709923A3
:101DA00071F080936A0760936B07493708F048E742
:101DB00040936C078091710781608093710708954B
:101DC000E9E6F7E0818190E04381628108960E9414
:101DD000CC0E0895E9E6F7E0818143816281885065
:101DE000990B0E94CC0E0895E9E6F7E0628120E1AC
:101DF000620F08F46FEF8181438190E00E94CC0E66
:101E00000895E9E6F7E0628120E1621B08F460E0F2
:101E10008181438190E00E94CC0E0895E9E6F7E0CD
:101E2000438120E1420F08F44FEF8181628190E00D
:101E30000E94CC0E0895E9E6F7E0438120E1421BC1
:101E400008F440E08181628190E00E94CC0E089508
:101E5000982FE42FE2709093E900891308C0762F41
:101E6000242F50E0E11111C091E0980FF4CF709150
:101E7000EC002091ED005091F00021FD06C09F5F25
:101E8000973049F78093E90008953091EB003E7F49
:101E90003093EB003091ED003D7F3093ED003091B9
:101EA000EB0031603093EB007093EC002093ED0079
:101EB0005093F0002091EE0027FDE1CF0895A0E0BF
:101EC000B0E0E5E6FFE00C943B32C8EDD0E088815D
:101ED0008F7E8883E7EDF0E080818160808384E0FD
:101EE00082BF81E08093630388818E7F888302EEC6
:101EF00010E0F80110821092DA0081EEC82ED12C89
:101F0000F601108288818F77888388818068888332
:101F100088818F7D888319BC10925B0410926203C4
:101F200010925A041092610390EEE92EF12CF70101
:101F300080818B7F808388818160888342E060E03C
:101F400080E00E94280FF60180818E7F8083F80157
:101F5000808181608083808188608083F7018081B7
:101F60008E7F8083888180618883CDB7DEB7E8E08B
:101F70000C945732E0917E0790917D0727E0E9139A
:101F800002C080E00895AE2FB0E02E9FF001112432
:101F9000E158F84F3181361306C03081381303C041
:101FA0003581341304C0FD013196E770E8CF81E03C
:101FB00008953BB1377F2BB128604FB7F8948CE779
:101FC00093E0FC010196508168E02BB9000000C04D
:101FD00057FF3BB9550F000000C000C000C03BB91F
:101FE00000C06A9591F754E08E31950751F74FBFC5
:101FF0008FE594E00197F1F700C0000008950F937A
:102000001F93CF93DF93EB018A0190915B0494308F
:1020100079F58093E9008FEF9091E80095FD07C076
:1020200095ED9A95F1F7000081508111F5CF8091DF
:10203000E80085FF1DC00E94340E811114C08091FC
:10204000E80085FD06C08091E8008E778093E80067
:10205000F2CF88818093F10001501109011511051B
:1020600011F02196ECCF8091E8008E778093E80004
:10207000DF91CF911F910F910895CF93DF93D82FC8
:10208000C92F48E050E0682F792F81E00E94FF0FB0
:1020900088E0ED2FFC2FACE6B3E001900D928A951D
:1020A000E1F7DF91CF910895BC0140E250E082E07A
:1020B0000E94FF0F0895BC0146E050E082E00E94BC
:1020C000FF0F0895BC0143E050E082E00E94FF0F43
:1020D0000895A0E0B0E0EFE6F0E10C943932F82E7C
:1020E000E92EB62EA72E8A0180916003CC24C394DA
:1020F000D12C8A3018F48AE0C82ED12CC1E0D0E06F
:102100006B2D7A2D8F2D9E2DF8010995811116C00A
:102110002196CC16DD0694F0CC9FC001CD9F900D8A
:10212000900D112420E030E045E34A95F1F70000DE
:102130002F5F3F4F28173907B9F7E2CFCDB7DEB78A
:10214000EAE00C94553290917B0792FB222720F90C
:10215000281779F080FB92F990937B0760917A07BA
:1021600070917B0784E090E00E94223382E00E941D
:102170001207089580914301813059F580917A07C3
:1021800087FF27C00E942A0780932F0340E250E078
:102190006BE077E08EE293E00E94B932892BC1F0C8
:1021A00080E2EEE2F3E0ABE0B7E001900D928A95B9
:1021B000E1F7E0912B07F0912C07309749F086E08A
:1021C00080932E030480F581E02D8EE293E0099543
:1021D00008950E942A078093260348E050E06DE2AC
:1021E00077E086E293E00E94B932892B89F388E098
:1021F000E6E2F3E0ADE2B7E001900D928A95E1F7F7
:10220000E0912B07F0912C07309711F30280F381B6
:10221000E02D86E293E0DBCF882339F090917207BE
:10222000892B809372070E94BA100895882321F0A9
:102230000E9457070E94BA100895882339F09091A0
:102240007C07892B80937C070E94BA100895A8E030
:10225000B0E0EDE2F1E10C9440328091DD06909126
:10226000DE06A091DF06B091E006BC01CD010E9420
:10227000590D11E0643671058105910578F10E94D0
:10228000260DDC01CB010296A11DB11D89839A8325
:10229000AB83BC8380913201909133018351994F7C
:1022A00020913101422F50E0253010F044E050E001
:1022B000BE016F5F7F4F0E94C63283E090E00E94B4
:1022C000A831182F882351F00E94090D6093DD0674
:1022D0007093DE068093DF069093E006812F2896A8
:1022E000E3E00C945C32A6E0B0E0E9E7F1E10C94A5
:1022F0003A328D837B01B42E5E83B9016801A80157
:102300008B2D9E810E94B9328C01D7018D919D91B8
:102310000D90BC91A02DBC01CD010E94590D698387
:102320007A838B839C83643671058105910518F44B
:102330000115110539F1BD810B2F0B2E000C110B6E
:1023400088E0B802F0011124E75EFE4F818192819E
:102350008351994F2081422F50E0C416D50608F4CE
:10236000A6016B2D7E810E94C632C8010E94A83151
:10237000882349F00E94090DD7016D937D938D93B9
:102380009C93139781E02696E9E00C9456320F93C4
:102390001F93AC0104E010E022EF36E061EE76E03E
:1023A00082E00E9473111F910F910895A9E0B0E09F
:1023B000ECEDF1E10C943F3288E0E9E6F7E0DE0174
:1023C000119601900D928A95E1F7198609E010E0C7
:1023D0002AEF36E0AE014F5F5F4F69ED76E084E0B3
:1023E0000E9473112996E4E00C945B32EF92FF9205
:1023F0001F93CF93DF93CDB7DEB729970FB6F8942D
:10240000DEBF0FBECDBF7B0180E090E00E94A8310F
:10241000182F81111BC010E08091E5069091E6060F
:10242000A091E706B091E806F70180839183A2832B
:10243000B383812F29960FB6F894DEBF0FBECDBFB0
:10244000DF91CF911F91FF90EF90089580911C0133
:10245000482F50E0882311F041E050E060911D01C9
:1024600070911E016351794FCE0105960E94C632CC
:102470008091E9069091EA06A091EB06B091EC06F6
:10248000BC01CD010E94590D6E837F838887998797
:10249000643671058105910538F48EEE96E00E9450
:1024A000840E9D818917B9F181E090E00E94A831E6
:1024B000882309F4B0CF80912401482F50E0853063
:1024C00010F044E050E060912501709126016351C5
:1024D000794FCE0101960E94C6328EEE96E00E94A0
:1024E000840E9D81891397CF0E94090D6093E906A0
:1024F0007093EA068093EB069093EC0689819A81AB
:10250000AB81BC818093E5069093E606A093E70635
:10251000B093E80681CF8091EE069091EF06A091EE
:10252000F006B091F10689839A83AB83BC83E6CF32
:10253000ADE0B0E0EEE9F2E10C94313260911E04BE
:1025400070911F04809120049091210469837A8303
:102550008B839C8380910307882309F450C0698191
:102560007A818B819C810E94590D6B017C010E94B4
:10257000260D282F60931E0470931F04809320045F
:1025800090932104A0916404E4E6F4E08A2F30E003
:1025900088248A94982CA12CB12C8C189D08AE0804
:1025A000BF08A31339C08093640480916907A82FE2
:1025B000A370A983AA2321F0B82FB695B695B98345
:1025C00030914701323009F4A3C2C8F531113EC041
:1025D0001092020160932204709323042093240438
:1025E0009093250489E2E4E6F4E0A0E3B4E00190EE
:1025F0000D928A95E1F781E08093470123C00E9404
:10260000260D6B017C0189819A81AB81BC81C81A3E
:10261000D90AEA0AFB0AABCF418D528D2A01612CFF
:10262000712C84149504A604B70420F481503F5FF4
:102630003296B7CF4C0D5D1D528F418FF8CF33309E
:1026400009F46FC22D96E2E10C944D329091010194
:10265000E981E91324C0837090E04091000150E0CB
:1026600021E08417950709F420E0822F8170809380
:10267000040180916E0790910301981739F08093BF
:10268000030140E060E080E00E94700BF981F730C8
:1026900040F4EF2FF0E0E65DFC4C0C94AA3281E0B0
:1026A000E5CF809102018F5F8093020182E0A4CF89
:1026B00080910401811107C0809102018F5F809396
:1026C000020183E099CF40E060E080E00E94700B5F
:1026D000809102018F5F8093020182E08093470125
:1026E000809104018111AECFECCF809102010E9454
:1026F000890B082F998360916A0770916B0780910D
:102700006C070E942D0A6D83F72EE82E10E02981B8
:10271000021758F0822F0E94B80A909102019F5F21
:102720009093020181118ECFC1CFF801E756FD4F82
:102730008081909103018923882331F02E2D4F2D24
:102740006D81C8010E94650B0F5F1F4FE0CF809124
:1027500002010E94890B8D83E92E30916A0739832B
:1027600000916B0710916C07632F702F812F0E94CF
:102770002D0AD62EC72EB82E80916D076981680F5D
:10278000702F812F0E942D0A162F072FF82E7D8182
:10279000672F70E07A83698399819E1510F08E2DE2
:1027A000BACFE981FA81E756FD4F8081309103016C
:1027B0003823332361F02F2D402F612F80FD03C07C
:1027C0002B2D4C2D6D2D89819A810E94650B89815D
:1027D0009A8101969A838983DFCF809102010E94BA
:1027E000890B8983192F60916D076695669521E0A5
:1027F000620F08F46FEF80912204909123040E94ED
:10280000C50A082FB981AB2FB0E0BA83A983F9813B
:10281000F11710F0812F7FCFE981FA81E756FD4F44
:102820008081909103018923882391F060916A0748
:1028300070916B0780916C07202F49810E94EE0AEE
:102840000E942D0A472F282F89819A810E94650BAB
:10285000E981FA813196FA83E983D9CF8091020127
:102860000E94890B8983D92E60916D0766956695C4
:1028700080912204909123040E94C50A182F80E4BD
:10288000810F0E94CF0AB0E8FB2EF80E812F0E9424
:10289000CF0A90E8C92EC80E3981232F30E03A8341
:1028A000298379817D1510F08D2D35CFE981FA814D
:1028B000E756FD4F80819091030189238823A1F081
:1028C00060916A0770916B0780916C07E12E098116
:1028D0002C2D4F2D0E94070B0E942D0A472F282FC9
:1028E00089819A810E94650B69817A816F5F7F4F30
:1028F0007A836983D6CF809102010E94890B8983F4
:10290000192F80916D076AE00E946832682F21E0DC
:10291000620F08F46FEF80912204909123040E94CB
:10292000C50A082F9981892F90E09A838983B981FC
:10293000B11708F06FCFE981FA81E756FD4F80812A
:102940009091030189238823E1F0E981FA81EE0F58
:10295000FF1FE350FE4F91A960916A0770916B07CA
:1029600080916C07202F4981913288F00E94360BAC
:102970000E942D0A262F472F682F89819A810E9455
:10298000650BA981BA811196BA83A983D0CF0E9421
:10299000360B0E942D0A472F282FEFCF509030047E
:1029A00021E0352D321B08F430E0332E80910201F6
:1029B0000E94890B9D83682F70E07D876C87CB0117
:1029C000880F991FDC01A350BE4F6D01832D90E04D
:1029D000FC013196FB87EA878D819C85981708F06A
:1029E0009ACEEC85FD85E756FD4F808190910301DD
:1029F0008923882301F140906A07F0916B07F983DE
:102A000020916C0729876A857B85605D7B4F3B0140
:102A1000232C10E02514C8F02985129F112D1124B4
:102A2000642D7981812F0E942D0A472F282F8C85B4
:102A30009D850E94650B6C857D856F5F7F4F7D87CF
:102A40006C8772E0C70ED11CC7CFD3018D913D01B9
:102A5000F601A0A8A81ABB0881A817968C91881A1D
:102A60009908AA9CC001AB9C900D900D1124889CE4
:102A70009001899C300D300D1124820F931F082F77
:102A80008230910524F14FEF813EFEE19F073CF437
:102A9000AC0175E0569547957A95E1F7485F51E0AE
:102AA000652F640F7727771F9B0135952795022F98
:102AB000229FB001239F700D700D11248617970778
:102AC00010F54FEF420F451758F70FEF050F6091C4
:102AD0006D0771E0670F08F46FEFF301EE0FFF1F52
:102AE000E053F440858996890E94C50A7C019401CF
:102AF000A501642D7981812F0E944D0B462E79838B
:102B0000182F239487CF2F3F11F351E0520FDBCFC3
:102B1000A981A09301018370809300010E94D90FC5
:102B2000D0CD80917107882351F048E050E067E1F3
:102B300070E089E697E00E94F4321092710760918C
:102B400022047091230480912404909125046983C8
:102B50007A838B839C8380910307882391F069811A
:102B60007A818B819C810E94590D462F572FBC0181
:102B7000403151056105710508F464CD109247019B
:102B800061CD0E94260DAB01BC0189819A81AB8188
:102B9000BC81481B590B6A0B7B0BEACFAB0124E6C7
:102BA00030E0BC0188E70E94BF2F9C0181E0232B0D
:102BB00009F080E008958091D306882369F0809120
:102BC000D006882349F062E070E08EEA90E00E942F
:102BD000CE1581111092D0060895A4E0B0E0E3EF85
:102BE000F5E10C9441328091D3068823F9F00E94DC
:102BF000090DDC01CB01805A9541AF4FBF4F809347
:102C0000CC069093CD06A093CE06B093CF068091CC
:102C1000D00681110BC062E070E08CEA90E00E9467
:102C2000CE15882319F081E08093D0062496E2E047
:102C30000C945D32CF93DF93682F81E06A3019F0F6
:102C40006D3031F480E00E949A16DF91CF910895A3
:102C500080919E0490919F0426E0FC01AAE5B3E0D8
:102C600001900D922A95E1F7603E08F458C026E0E5
:102C7000FC0111922A95E9F7C0919E04D0919F041E
:102C800046E050E0BE018AE593E00E94B9329E0121
:102C9000285C3440892B41F1C90145E09695879520
:102CA0004A95E1F741E050E0BA0102C0660F771F94
:102CB0008A95E2F7CB016091CA067091CB06862B0C
:102CC000972BB9016B5F7F4FE5E076956795EA95A5
:102CD000E1F702C0440F551F6A95E2F7842B952B4C
:102CE0009093CB068093CA062A5F3F4F4091A00481
:102CF000642F70E0C9010E941D32481B463010F459
:102D0000240F311D211572E0370710F020E030E06C
:102D100028533B4F30939F0420939E0496CFF6E0B8
:102D20006F9FB001112460557F4F46E050E00E9434
:102D3000B032A2CFCF93382FE0919E04F0919F0440
:102D4000E85CF4402091A004622F70E0CF010E9463
:102D50001D32281B822F332361F066E00E94683207
:102D6000C82FC15010F4CF91089580E20E941A1626
:102D7000F8CF9F01280F311D2115324018F080E057
:102D8000E0E0F0E08E0F9F2F911D88539B4F9093B2
:102D90009F0480939E04E7CFCF93DF93EC01FE0165
:102DA0008491811103C0DF91CF9108950E941A167A
:102DB0002196F5CF0E94CC1681E00E949A160895C4
:102DC0001F921FB61F9211248F939F93AF93BF93AF
:102DD00080915904811113C08091740390917503FF
:102DE000A0917603B09177034196A11DB11D809308
:102DF000740390937503A0937603B0937703BF9108
:102E0000AF919F918F911F901FBE1F9018952FB764
:102E1000F8948091740390917503A0917603B0911A
:102E200077032FBF08950E94071720915207309112
:102E30005307232B222321F08093D6069093D706A5
:102E40002091540730915507232B222321F08093A2
:102E5000D4069093D506E0912B07F0912C0730977C
:102E600049F082E0809350070680F781E02D80E5ED
:102E700097E009950895662309F44BC0E3E3E80F52
:102E8000E33150F4F0E0EF5CFC4C0C94AA320E9469
:102E9000030C8195809353070E94131708950E9495
:102EA000030CF8CF0E94030C819580935207F4CF56
:102EB0000E94030CFACF0E94230C80935407ECCF9E
:102EC0000E94230C8195F9CF0E94230C8195809359
:102ED0005507E2CF0E94230CFACF815D990B21E0C8
:102EE00030E001C0220F8A95EAF780915107822BCA
:102EF00080935107D1CF80914F07816080934F0716
:102F0000CBCF80914F078260F9CF80914F078460CB
:102F1000F5CF409152078D3C59F48091530787FFBC
:102F20000DC010925307442359F410924E0708C065
:102F30008E3C81F48091530718169CF3442381F052
:102F40008091540790915507892B8111A5CF10923C
:102F50004D07A2CF8F3C41F447FFF0CF10925207AC
:102F6000809153078823E0CF803D19F41416B4F301
:102F7000E5CF90915407893D29F41916FCF610927B
:102F80005407DCCF8A3D19F497FFD8CFF8CF909142
:102F900055078B3D29F497FFD1CF10925507CECF1F
:102FA0008C3D19F41916CCF3C9CF9FE2980F9830D5
:102FB00090F4815D990B21E030E0B90102C0660F09
:102FC000771F8A95E2F7CB0180959091510789236D
:102FD00080935107B3CF8D3D31F480914F078E7FA1
:102FE00080934F07ABCF8E3D21F480914F078D7FAB
:102FF000F7CF8F3D09F0A2CF80914F078B7FF0CFA5
:10300000CF93C82F8823B1F18CEF8C0F813AA0F5B4
:1030100080914301813001F580917A0787FF1CC0C0
:10302000EC2FE695E695E695F0E0E25DFC4F8281B7
:1030300090E04C2F477021E030E002C0220F331F98
:103040004A95E2F782239323892B79F08C2F0E94F3
:10305000D90C0E94BA1009C0E8E2F3E08191C817C8
:10306000A9F323E0EE32F207C9F78C2F0E94A50CDA
:103070000E94BA10CF91089580E28C0F883068F4D6
:10308000C77081E090E001C0880FCA95EAF7C0914F
:103090007207C82BC0937207EBCF8BE58C0F833080
:1030A00038F42C2F2452330BC9010E94590CE2CF63
:1030B000E8E5EC0FEB3150F4F0E0EE0FFF1FE752C4
:1030C000FD4F808191810E947F0CD4CF83E38C0FD0
:1030D000833180F661E08C2F0E943B17CBCF882391
:1030E00081F19CEF980F913A28F40E94D90C0E942C
:1030F000BA10089590E2980F983050F4877091E0DC
:1031000001C0990F8A95EAF7892F0E945707EFCFE0
:103110009BE5980F933028F480E090E00E94590CD2
:10312000089598E5980F9B3128F480E090E00E9484
:103130007F0C089593E3980F933118F460E00E9498
:103140003B1708951F93CF93DF93182FA0915D072E
:10315000B0915E07109709F44AC010926007109270
:103160005F0710925B0710925A071796CD91DC917A
:103170001897CE019A9581159F4108F4D07ED1E031
:10318000C11101C0D0E01A96ED91FC911B973097C8
:1031900031F01C966D917C9180E00995D823DD2358
:1031A00039F08CEF8C0F813A30F58C2F0E94D90CBE
:1031B0001123A9F0E0915D07F0915E07818584FD00
:1031C0000EC080915C07882351F0808191819C0121
:1031D000215031092F333E4710F40E94790D0E948F
:1031E000BA1010925E0710925D0710925C07DF9193
:1031F000CF911F9108950E94BA108C2F0E946F18D2
:10320000D7CF1092720780914301813039F58091B8
:103210007A0787FF23C0E0E3F3E08EE1DF011D9230
:103220008A95E9F780E090E00E94590C80E090E0F8
:103230000E947F0C10927C070E94BA1086E0E0E5A5
:10324000F7E0DF011D928A95E9F710924E07109280
:103250004D0710924F070E9413170895E8E2F3E01C
:1032600086E0DCCF0E9401192FEF84E39CE021501F
:1032700080409040E1F700C0000088E19AE00FB67E
:10328000F894A895809360000FBE90936000FFCFE4
:10329000AAE2B0E0EEE4F9E10C94403284E693E077
:1032A000FC0101962091F100208323E08C369207E7
:1032B000B9F780916503893009F45AC0C8F48230A7
:1032C00009F4B6C0833009F485C0813091F1809152
:1032D000E80083FFEAC080916403909165039A300F
:1032E00008F0E3C0E92FF0E0EC5BFC4C0C94AA3250
:1032F0008A3009F48CC08B3051F78091640381329D
:1033000031F78091680390916903892B01F78091CF
:10331000E800877F8093E8000E94150E81E090917D
:103320006603911101C080E0809343010E9401195E
:10333000CECF80916403813A51F68091E800877F77
:103340008093E8008091680390916903892B61F074
:1033500060E080E090E070E00E94BC0D8091E800A9
:103360008B778093E800B3CF68E08CE693E0F3CFEF
:1033700080916403813209F0AACF80916803909113
:103380006903029708F0A3CF8091E800877F8093BC
:10339000E8008091E80082FF18C09091F3008091CE
:1033A000F200029731F48091F100813011F0863003
:1033B00021F48091F100809342018091E8008B77A5
:1033C0008093E8000E94150E82CF80915B048111EA
:1033D000E0CF7DCF80916403813A09F078CF80916E
:1033E000680390916903892B09F071CF8091E800FF
:1033F000877F8093E8008091E80080FFFCCF809178
:1034000043018093F1008091E8008E77D9CF8091BD
:103410006403813209F05BCF8091E800877F80935D
:10342000E8000E94150E80916703809341014FCF01
:1034300080916403813A09F04ACF8091E800877F48
:103440008093E8008091E80080FFFCCF80914101EB
:10345000D8CF803889F0823841F5809168038F7029
:10346000873018F58093E9008091EB0085FB882771
:1034700080F91092E90006C08091610390915A048E
:10348000911182609091E800977F9093E80080937B
:10349000F1001092F1008091E8008E7723C0811135
:1034A00016C080916603813011F18091E80083FF9E
:1034B0000AC08091E800877F8093E8008091EB004C
:1034C00080628093EB00AA96E3E00C945C32823039
:1034D00061F780916603882389F01092E90080915A
:1034E000E800877F8093E8000E94150EDECF81E020
:1034F000933009F080E080935A04EFCF8091680305
:103500008F702FEF280F263080F68093E9002091EE
:10351000EB0020FFE2CF933031F48091EB0080622A
:103520008093EB00DACF9091EB0090619093EB00E9
:1035300021E030E0A90102C0440F551F8A95E2F74F
:103540004093EA001092EA008091EB008860E8CF97
:103550008111ABCF109166031F778091E3008078D3
:10356000812B8093E3008091E800877F8093E800BF
:103570000E94150E8091E80080FFFCCF8091E3004F
:1035800080688093E30083E0111101C082E08093A2
:103590005B048BCF8058823008F087CF4091660360
:1035A000509167034C3D83E0580799F583E08A8387
:1035B0008AE289834FB7F894DE01139620E03EE05B
:1035C00051E2E32FF0E050935700849120FF03C0B5
:1035D00082958F703F5F8F708A30C8F0895C90E071
:1035E0008D939D932F5F243161F74FBF8091E80049
:1035F000877F8093E8006AE270E0CE0101960E9426
:10360000BC0D8091E8008B778093E8004ECF805D01
:10361000E6CF2091680330916903852F9927833085
:10362000910509F160F48130910509F472C00297A7
:1036300009F03BCF8BE390E0EAEEF6E029C081325F
:10364000910509F45AC0829709F02FCF2115310551
:1036500009F469C02130310509F027CF86EB90E0ED
:10366000E0EFF5E015C0CA0199274130B1F1823091
:10367000910509F43AC0892B09F017CFE7E5F7E087
:10368000E4918E2F90E0E7E5F7E0009709F40DCF85
:103690002091E800277F2093E80020916A03309171
:1036A0006B038217930708F49C0140E02115310554
:1036B00009F03EC041113CC08091E80082FDA1CFDD
:1036C00080915B04882309F49CCF853009F499CF5D
:1036D0008091E80083FFF0CF94CFE5E4F7E0E49138
:1036E0008E2F90E0E5E4F7E0D0CFE7E3F7E0E49158
:1036F0008E2F90E0E7E3F7E0C8CF2115310571F098
:103700002130310509F0D1CE89E090E0E5E1F7E024
:10371000BFCF82E190E0E5E2F7E0BACF89E090E048
:10372000ECEFF6E0B5CF84E490E0E6EAF6E0B0CF67
:1037300080915B04882309F464CF853009F461CF5C
:103740008091E80083FD5DCF8091E80082FDB4CFD9
:103750008091E80080FFAACF9091F3008091F20061
:103760002115310519F08830910550F041E0089796
:1037700009F040E08091E8008E778093E80096CFD2
:1037800044914093F1003196215031090196E8CFE0
:10379000803809F08ACE8091E800877F8093E80026
:1037A000809162038093F10076CE81117ECE1091DC
:1037B0006603123008F079CE8091E800877F80930D
:1037C000E800109362030E94150E1123A9F084E013
:1037D00080935B0442E061EC81E00E94280F42E2AA
:1037E00061EC82E00E94280F80915B04843051F4E8
:1037F00082E08093440159CE8091E30087FDE7CFBA
:1038000081E0E6CF81E0F5CF9C014FB7F89480913D
:10381000740390917503A0917603B09177034FBF25
:10382000821B930B08950F931F93CF93DF93C62FA3
:10383000D42F122F8823A9F0609367070E940717DF
:103840009093590380935803C77081E001C0880F9B
:10385000CA95EAF70E940C11DF91CF911F910F9149
:10386000089580916707681338C08091580390913C
:1038700059030E94041C8F3A910578F5CD130FC0AF
:10388000812F0E940018812F0E946F18D77081E04D
:1038900001C0880FDA95EAF70E941611DDCFC770D4
:1038A00001E0802F01C0880FCA95EAF70E94161127
:1038B00080E28D0F883050F48D2F877001C0000F8B
:1038C0008A95EAF7802F0E940C11DACF812F0E948F
:1038D0000018812F0E946F18BFCFC77081E001C010
:1038E000880FCA95EAF7D8CFA0E0B0E0EAE7FCE19C
:1038F0000C9431328C01DC0114968C91882309F4EC
:10390000C8C061E0C8010E94BD09EC01F801358022
:103910009C01205E31094901332009F4BFC0818137
:103920008093590780818093580780E280934501F6
:10393000D0935707C0935607CE01905281159042FD
:10394000C8F48681803118F4809146011DC0FE01C3
:10395000FF27CD33C8F7E85EF34FE491E0934501CC
:10396000CF35ACE7DA07E9F41092460180E00E9417
:10397000A2187EC0CE01905481159041E8F4968142
:1039800080914601903120F4882309F485C18AC0D2
:10399000FE01FF27CD33C0F7E85EF34FE491E093DB
:1039A0004501CD35BCE7DB0709F078C080914601C1
:1039B000882309F45AC0D8CFCE019A9581159F412A
:1039C00058F4FE01FF27CD3308F0BECFE85EF34F79
:1039D000E491E0934501B8CFCE01805A924580979B
:1039E000D0F580914601882309F4DAC1209074074C
:1039F00080917207282A80917307282A31101FC1ED
:103A00008091650790916607C817D90781F41092D5
:103A10006607109265071092610710926207109274
:103A20006307109264071092600710925F07E0919D
:103A30005D07F0915E07309709F078C1F801858144
:103A4000FE01E851FC47E730F10508F025C1E25BD3
:103A5000FC4C0C94AA32CD33D10510F4FE01B6CF44
:103A6000CE359CE7D90709F07BCF81E080934601F2
:103A7000809179078770882361F0D80115968C9121
:103A8000882339F080917B0782FF03C082E00E9487
:103A90001207CDB7DEB7E2E10C944D3280914601BA
:103AA000882361F22090740780917207282A809100
:103AB0007307282AE8E08E16910408F09FCF9E0134
:103AC0002770332781E090E001C0880F2A95EAF73C
:103AD000332009F4B1C0282AD8018D919C910E940D
:103AE000D50621E030E0290102C0440C551C8A951E
:103AF000E2F7A0905D07B0905E073FE0632E33E0F1
:103B0000732EF301E190F1903F01E114F10409F407
:103B1000B1C0211005C0D70112968C918111A4C0AB
:103B2000F7018381948184219521892B09F49CC01C
:103B30008185982F97709111C1C0F8E08F1691047C
:103B400008F090C03110C2C0F701C080D180CC1500
:103B5000DD0509F489C0AE14BF0409F485C0D7019E
:103B60001E96ED91FC91309721F08081882309F415
:103B70007BC0622DC7010E94D40B882309F474C056
:103B8000CC15DD0511F4311005C0C114D10409F0C4
:103B9000A9C0312C80E00E94A218F0925E07E0924A
:103BA0005D0781E080935C07F701868180935B0766
:103BB00031100DC0CD2859F0808191819C01245095
:103BC0003109213A310508F096C00E94D90CF7015D
:103BD000C780D084C6019A9581159F4110F420EECC
:103BE000D222BB24B394C60101978F339E4708F0BD
:103BF000B12CD7011A96ED91FC911B97309731F0BB
:103C00001C966D917C9181E00995B82281E038265F
:103C1000BB2079F0F701878190850E944906809347
:103C20005A07C601F8E08F16910408F067C00E9499
:103C3000790D0E94BA1069C0809528224DCFD0938B
:103C40006607C09365070E94090D60936107709332
:103C50006207809363079093640710926007109245
:103C60005F073ACF311032C0A3E2B3E0A615B70523
:103C700009F047CFA114B10409F4E0CEB8E08B16E7
:103C8000910408F05FC0622DC5010E94D40B811120
:103C900003C081E00E94A218D80115968C91811171
:103CA00095C0C631BCE7DB0709F096C18091680773
:103CB000811163C189E20E94D90C29C028E08216D3
:103CC000910458F4332031F081FFCECFD701CD904D
:103CD000DC9041CF82FFC8CF37CF332029F280FF5D
:103CE000C3CFF4CF80916507909166078C159D0531
:103CF00009F0BACF4ECF0E946F1869CF0497813A6E
:103D0000910540F48C2D0E94A50C311097CE0E9495
:103D1000BA10AECE0E94BA108FE39CE90197F1F77A
:103D200000C000008C2D0E940018EFCF808191818F
:103D3000C817D90709F082CE10925C0780E00E9474
:103D4000A2187CCEF50180819181C817D90731F482
:103D5000332091F3818585FD71CEF0CF332009F4B6
:103D60006DCE8185F8CF26E241EE61EE0E94131CF4
:103D70007FCE27E245EE65EEF9CF26E241EE60EE1A
:103D8000F5CF27E245EE64EEF1CF26E241EE62EE9A
:103D9000EDCF27E245EE66EEE9CF28E241E0EBCF3A
:103DA0001092670780917207C631ECE7DE0709F0D1
:103DB000E6C08A7A91E0811101C090E09093680793
:103DC0008111D9C089E20E94A50CA1CF109267078A
:103DD000CE019057839730F784E090E00E94EE3256
:103DE00090937B0780937A07FE01E150F047E2321F
:103DF000F10520F4EB5AFC4C0C94AA3280917A071E
:103E0000816080937A0760917A0770917B0784E0E4
:103E100090E00E9422330E9401192ACE80917B07F4
:103E2000886080937B07EFCF80917A078260E9CF2B
:103E300080917A078460E5CF80917A078860E1CF2E
:103E400080917B078160EDCF80917B078260E9CF15
:103E500080917A078061D5CF80917A078062D1CF37
:103E600080917A078064CDCF0E94011980917A07F2
:103E70008068C7CF80917A078C60C3CF80917B0721
:103E80008360CFCF80917A078E7FBBCF80917B07F5
:103E9000877FC7CF80917A078D7FB3CF80917A07D4
:103EA0008B7FAFCF80917A07877FABCF80917B07E5
:103EB0008E7FB7CF80917B078D7FB3CF80917A07BC
:103EC0008F7E9FCF80917A078F7D9BCF80917A07DD
:103ED0008F7B97CF0E94011980917A078F7791CFBE
:103EE00080917A07837F8DCF80917B078C7F99CFDC
:103EF00080917A0782FB992790F921E0922790FB25
:103F000082F990FB83F97DCF80917B07982F909564
:103F100091708E7F892B90FB81F983CF90917A07E6
:103F2000892F8F7B96FF80646CCF0E94011990913E
:103F30007A07892F97FB87F9805863CF61E08EE07D
:103F400090E00E9404335FCF60E0F9CF90917A0750
:103F5000892F8F7E94FF806154CF90917A07892FAB
:103F60008E7F90FF81604DCF90917B07892F877F57
:103F700093FF886056CF85E326CF85E39CCE82727F
:103F8000FE01E052F847EB30F10508F06EC0E95849
:103F9000FC4C0C94AA320E949D0B6ACD882309F434
:103FA00049C00E94C00E64CD882309F449C00E9414
:103FB000EA0E5ECD882309F449C00E94010F58CD56
:103FC000882309F449C00E941B0F52CD882309F4AD
:103FD00049C00E94B90B4CCD809172078272FE01DC
:103FE000E054F847ED30F10508F0AAC0EE57FC4C5C
:103FF0000C94AA32809169078370811102C01092DB
:104000004701809169078C7F816080936907809167
:1040100071078160809371072BCD80916907837050
:10402000811110924701809169078C7FEECF882320
:1040300009F4B7CF0E94B50E1BCD882309F4B7CF82
:104040000E94E00E15CD882309F4B7CF0E94F40E2C
:104050000FCD882309F4B7CF0E940E0F09CD882316
:1040600009F4B7CF0E94AB0B03CDCE01805E924521
:104070008097A8F0CA353CE7D30709F4B0C008F030
:1040800078C0C1309CE7D90709F4A7C0C330ACE7BA
:10409000DA0709F49CC0C115DC4709F47CC0F801BB
:1040A0008581E080F180882309F49DC0C7010E94CA
:1040B0008909C82F682FC7010E949F06B7018C2F5E
:1040C0000E945F070E947008D82FC92FD80115964B
:1040D000DC9015971696CC90C2942FE0C222809166
:1040E00079078770882301F1ED2CDD20F1F0892F0D
:1040F000807F803461F080E28D0F8830A8F0892FB6
:10410000807E803221F4D23078F0CC2069F080912A
:104110007B0782FF09C082E00E9412078091790725
:104120008770EE24E3948111E12CEC2FE295EF707F
:10413000C03C08F0C3C0F0E0E157FC4C0C94AA323C
:10414000CE01805E9245809708F0A9CFCF7181E0C3
:1041500090E09C0102C0220F331FCA95E2F7E901EB
:10416000622F83E090E00E940433CE010E94730628
:104170007FCCCB35ECE7DE07A1F1CC35DC4709F08D
:104180008ECF80917B0782FB882780F991E0892779
:104190000E94A31084CF0E9401192FEF34E38CE01A
:1041A000215030408040E1F700C0000087E797E7EA
:1041B000909301088093000888E19AE00FB6F89484
:1041C000A895809360000FBE90936000FFCF6FEFC3
:1041D0007FEF80E090E00E9422330E94321981E05C
:1041E000D7CF80E0D5CFC7010E94D506C82F66CFB4
:1041F000BC2FBF70FB2EC03118F0F29490EFF92263
:10420000DD20B9F0FF2069F080E28D0F883010F0DA
:10421000D11109C0809172078F29809372070E9483
:10422000BA108D2F43C080917C078F2980937C0723
:10423000F6CF8D2F0E946F18FF2009F43FC080E257
:104240008D0F883010F0D11104C08F2D0E945707B8
:1042500006C0F09480917C078F2180937C070E9498
:10426000BA102CC0EC2FEF70FE2EC07FC03219F0B8
:10427000F29480EFF822DD2349F0D13009F46CC0CC
:10428000DD2009F478C0CC20D1F1CBCF80917B0721
:1042900082FD31C0DD2069F0FF2039F08091720786
:1042A0008F29809372070E94BA1080E00E94001844
:1042B00005C080E00E946F18F110C7CFEE20B1F06A
:1042C0008091790780FD12C0D80115961C928695C1
:1042D000869586950E947D06C8010E94741C809177
:1042E00079078695869586950E948D0660E0C801BF
:1042F0000E94BD09CECBDD2099F0C11004C08F2DE6
:104300000E940C11DBCFF1E0CF12D8CF8091730760
:104310009F2D9823F91691F28F2980937307CECFA2
:10432000C110CCCF8F2D0E941611909173078F2D45
:104330008923882329F08F2D809589238093730703
:10434000809174079F2D9823992309F4B7CFF09497
:10435000F822F0927407B2CFDD2029F025E02C1569
:1043600008F4ACCFCCCF34E03C1508F4A7CF8F2DA8
:104370000E941611A3CFCC20D1F3D93349F48FEF8B
:1043800097EEA3E081509040A040E1F700C000000C
:104390008D2F0E946F1892CF8C2F869586958370F3
:1043A000882369F0813009F089CF8D2F9C2F93707D
:1043B000D11002C080E090E00E947F0C7FCF8D2F53
:1043C0009C2F9370D11002C080E090E00E94590CA5
:1043D00075CF6D2D8D2F0E943B1770CF8C2F837062
:1043E000811142C0D1102FC04D2F42954695477084
:1043F000440F440F2D2F2F7030E0042E02C0220FE7
:10440000331F0A94E2F780E090E0D4FF09C08FE008
:1044100090E002C0880F991F4A95E2F78095909529
:10442000C695C695C370C230B1F0C33089F04091D3
:10443000750750917607C13049F0822B932B842366
:1044400095230E9473060E94480C38CF242B352BED
:10445000822B932BF6CF822B932B209175073091D3
:10446000760782279327EDCFDD2091F1C0FFEBCFB8
:104470004D2F429546954770440F440F2D2F2F70B6
:1044800030E0042E02C0220F331F0A94E2F780E0CE
:1044900090E0D4FF09C08FE090E002C0880F991F20
:1044A0004A95E2F780959095C695C695C370C2303F
:1044B000C1F0C33099F04091770750917807C1302F
:1044C00059F0822B932B842395230E947806BBCF2F
:1044D000823008F4B8CFCCCF242B352B822B932BF2
:1044E000F4CF822B932B2091770730917807822786
:1044F0009327EBCFCF70DD2039F08C2F0E947D0603
:104500008D2F0E940C119FCF8D2F0E9416118C2F82
:104510000E948D0698CFD23FA1F178F4D03FC1F030
:10452000D13F09F447C0DD2009F466C0CC2009F46E
:1045300060C08D2F0E94001886CFD33F49F1D43F31
:10454000A9F1D110F3CFC11065C08C2F8F71E0CFCE
:10455000DD20A1F0B4E0BC1508F475CFCF7181E087
:1045600090E0FC0102C0EE0FFF1FCA95E2F78091B8
:104570007707909178078E279F27A7CFF5E0CF1672
:10458000EBCF8C2F8F71D110C3CF0E947D065BCFF4
:1045900080E090E0DD2009F498CFCF7181E090E0D9
:1045A00002C0880F991FCA95E2F78FCF90917B07C1
:1045B00092FD06C08C2F8F71DD2009F4A9CFE5CFC5
:1045C000DD2061F08C2F8F7192FFDFCF98E0899F03
:1045D00090011124236020937907D7CF81E00E94B6
:1045E0001207A1E0AC1508F02ECF82E00E9412075E
:1045F0002ACF8C2F8F71C9CFCC2009F4A6CFD93305
:1046000049F4BFEFE7EEF3E0B150E040F040E1F7EE
:1046100000C000008D2F0E946F1815CF8091BD073C
:10462000803178F48091BC07882359F0E0917E07AF
:1046300020917D073091B8074091B70757E02E13BE
:1046400001C008956E2F70E05E9FF0011124DF011C
:10465000A158B84F14968C911497882361F1119644
:104660008C911197831327C08C91841324C01596C5
:104670008C91159781111FC012968D919C91A091DC
:10468000B907B091BA078A1B9B0B8F3A910598F432
:104690008091BD078F7080618093BD07EB57F84F05
:1046A00080818F708061808387EB97E00E94741C0B
:1046B0000E9408070895FB013196E770C0CFADE076
:1046C000B0E0E5E6F3E20C9436328C0186E0F801C6
:1046D000DE01189601900D928A95E1F7F801E080CD
:1046E000F580A280B380C48087EB882E87E0982E67
:1046F0007090BB07711020C0CC20D9F0FF2009F4C6
:1047000019C1C8010E94EC09882309F413C187E08C
:10471000F801D40101900D928A95E1F7F1E0CF12F2
:1047200006C08091B7079091B8070E94DD090E94EA
:104730000E23FF24F39451C0D090BC078091B90799
:104740009091BA079501281B390BDD2009F4BAC0F6
:104750002F3A310508F090C0CC2059F39091B8075A
:10476000C1808091BD07803108F058C0C91214C0C3
:104770009091B7079E1110C0F1104AC08F708061F0
:104780008093BD0787EB97E00E94741C8091BD0762
:10479000F8018683F12C21C0F1103AC040E06C2D65
:1047A0008E2D0E94BA0F40E06C2D8E2D0E94BA0F04
:1047B000F82E8111EFCF888599850E94DD09292F78
:1047C00022952F70903470F49F702230A0F09923BE
:1047D000B1F0F8019681903190F48F2D2D96EDE097
:1047E0000C9452322A5F2F70223068F0C8010E9468
:1047F000741CFD2CF2CF992311F0882371F3805E95
:10480000883058F3F3CF803F40F3815F8230F9CF97
:104810008091BD0781608093BD07BCCFC91207C0DE
:104820009091B7079E1103C0FF2009F46CC0C80126
:104830000E94EC09882309F47DC0FF2009F47AC0A6
:104840008091BD07803278F02091B7073091B8078A
:104850003A832983BC82AB827D821E828F83CE0104
:1048600001960E94741C87E0F801A7EBB7E0019065
:104870000D928A95E1F75BCF8091BD07803150F4AE
:1048800087EB97E00E94741C87E0F40111928A95EF
:10489000E9F780CFCC2009F44CCF2091B807918163
:1048A0002913C5CF9091B7079E11C1CFF110BFCF8B
:1048B0008683C8010E94741C87E0F40111928A95D6
:1048C000E9F737CF2F3A3105F8F6CC2009F431CF8C
:1048D000FF2081F19091B8078181981321C08091C8
:1048E000B7078E111DC08091BD0780FD10C08031BB
:1048F00070F08683807F803F39F08681982F907F8B
:10490000905F8F70892B8683C8010E94741C87E09A
:10491000F801A7EBB7E001900D928A95E1F709CF76
:10492000C8010E94EC0981119ECF8091BD07816072
:104930008093BD07C8010E94741CFBCEABE1B0E0C0
:10494000E4EAF4E20C9440324E8B5F8B688F798FEF
:104950008A8F9B8F911110927C071D8A86E0FE0141
:104960007696DE011F9601900D928A95E1F78B896C
:10497000882329F061E0CE010F960E94BD0987E0EF
:10498000FE013F96DE01189601900D928A95E1F79F
:10499000CE0108960E945F2381112BC087E0FE01A3
:1049A0003896DE01119601900D928A95E1F72091DB
:1049B0007D0740917E078C858823D9F030E0C901BE
:1049C00001968770992750E084179507E9F097E0E2
:1049D000929FD001939FB00D1124A158B84FFE01B2
:1049E000319601900D929A95E1F780937D070E9490
:1049F000080717E080917E0790917D07891312C008
:104A00006B96E3E00C945C320E94011910927D07D2
:104A100010927E0787E0E7EBF7E0DF011D928A95B1
:104A2000E9F7E7CF189FC00111248158984F0E94E1
:104A30005F23882329F380917E0790E00196877099
:104A4000992780937E07D6CFA6E0B0E0EAE2F5E2B0
:104A50000C943F320E9407178C01809109079091B6
:104A60000A078017910779F019821A820E940717A6
:104A7000BC0149815A8180E090E00E949E241093FD
:104A80000A07009309072696E4E00C945B32A0E144
:104A9000B0E0EDE4F5E20C9436321A821982FE01A0
:104AA000339686E0DF011D928A95E9F783EFA82E01
:104AB00081E0B82E8E010F5F1F4F4801EE24E39472
:104AC000F12C2DEFC22E21E0D22EF50181915F0154
:104AD0008F3F09F441C0F894E82FE295EF70F0E0C1
:104AE00021A18F70A70102C0440F551F8A95E2F7DC
:104AF000CA01922F982B91A392A18095892382A31A
:104B0000789400C0E7EFF1E031E0712C21912F3F64
:104B100009F497C0A22FA295AF70A05EB0E08C916F
:104B200090E02F7002C0959587952A95E2F78170E5
:104B3000811187C0832F782A330FCE16DF0631F715
:104B4000F501319780818F3F11F00E94140A50EADD
:104B50005A95F1F7D8017C920F5F1F4FB7EFAB1654
:104B6000B1E0BB0609F0B1CF48E050E0B40186E205
:104B700094E00E94B93200912F0410E0045A1B4FB8
:104B8000892B09F460C088E0F401A6E2B4E001904A
:104B90000D928A95E1F781E0809357030E940717F1
:104BA000909356038093550380910307882309F45B
:104BB000A3C01A8619861C861B86809160038A30E2
:104BC00008F063C07E01E9E0EE0EF11C46EF51E112
:104BD000B701C8010E9469106701882309F47AC0EF
:104BE00047EC51E1B701C8010E946910882309F41C
:104BF00071C047E251E1B701C8010E9469108823E2
:104C000009F468C046ED51E1B701C8010E9469107E
:104C1000882309F45FC01092600380912E0490E015
:104C200044E050E0B601845A9B4F0E94B93221E023
:104C300020935403892B09F03FC06096EDE00C945B
:104C4000523280E078CF80915703882309F4ACCFAB
:104C500080915503909156030E94041C059708F417
:104C6000A3CF44E050E066E274E0C8010E94B9328C
:104C7000892B41F084E0E6E2F4E0D80101900D9246
:104C80008A95E1F7109257038FCF8091520390914C
:104C900053030E94041C843F914008F093CF8091FD
:104CA0005403882351F2FE01399684E0DF011D92FE
:104CB0008A95E9F710925403E0912E04F0E0E45A4B
:104CC000FB4F89859A85AB85BC8580839183A283C0
:104CD000B383B3CF809160038F3F39F40E940717ED
:104CE0009093530380935203DACF8F5F80936003D6
:104CF0008A3008F492CFF2CFE0902E04F12CF70125
:104D0000E45AFB4F7F01F80180819181A281B38138
:104D10008093EE069093EF06A093F006B093F10611
:104D20008EEE96E00E94840E8093ED068091F2064E
:104D30009091F306A091F406B091F506F7018083F7
:104D40009183A283B383C090F606D090F706E090DB
:104D5000F806F090F90680914E0390914F03A091D0
:104D60005003B0915103C816D906EA06FB06B1F00C
:104D7000C0924E03D0924F03E0925003F092510341
:104D80000E94090DC61AD70AE80AF90AC092050757
:104D9000D0920607E0920707F092080788E0EAEF52
:104DA000F6E0A9E6B7E001900D928A95E1F745CFCC
:104DB000CDB7DEB762970FB6F894DEBF0FBECDBF9A
:104DC00085B7806885BF85B7806885BF84B7877FD2
:104DD00084BF0FB6F894A895809160008861809395
:104DE0006000109260000FBE80E890E00FB6F8946B
:104DF00080936100909361000FBE81E08093440135
:104E000082E19AE090932503809324030E94650E2B
:104E10000E945F0F8091E20084608093E2007894AA
:104E200080915B04882399F08091E9001091EC0057
:104E30001795112717958F70182B1092E900809104
:104E4000E80083FD0E9448191F701093E90082E07A
:104E500084BD93E095BD9AEF97BD80936E0010924C
:104E60000507109206071092070710920807809115
:104E7000D80080618093D8002AE12A95F1F700C01C
:104E80008091D90080FF42C281E080930307809324
:104E90000407809305010E94BA308091050180913A
:104EA000050191E08927880F880F80932F0494E0F3
:104EB000981B90932E0484E90E94140A86E60E94AF
:104EC000140A87E90E94140A86EC0E94140A07EF6C
:104ED00011E09DEFC92E91E0D92ED8018D918D0161
:104EE0008F3F11F00E94140AC016D106B1F788E076
:104EF000ECE5F4E0DF01482E1D924A94E9F7E6E282
:104F0000F4E0DF011D928A95E9F780E090E00E94CD
:104F1000EE32853E9E4F09F461C065EE7EEF80E083
:104F200090E00E94223360E082E090E00E9404332F
:104F300081E090E0909376078093750761E083E0CD
:104F400090E00E94043360E074E184E090E00E940D
:104F5000223360E086E090E00E94043360E087E066
:104F600090E00E94043340E050E0BA0188E090E015
:104F70000E94163360E083E290E00E94043360E018
:104F80008CE090E00E94043360E08DE090E00E94AD
:104F9000043319821A821B821C821D821E821F8288
:104FA000188648E050E067E170E0CE0101960E946B
:104FB000F43240E050E0BA018FE190E00E941633F5
:104FC00040E050E0BA018FE090E00E94163340E0EC
:104FD00050E0BA0183E190E00E94163382E090E055
:104FE0000E94E63280938D0484E090E00E94EE32CD
:104FF00090937B0780937A0783E090E00E94E632EB
:1050000090E00E9473060E94C70B1092300440E1AA
:1050100050E06FEF70E089E494E00E94CF3210928C
:10502000640440E150E06FEF70E08DE794E00E948F
:10503000CF3281E08093710748E050E067E170E093
:1050400089E697E00E94D632109271078091690735
:105050008430F8F485E0809369078091480190914D
:105060004901A0914A0180936A0790936B07A0932E
:105070006C078FE780936D078FEF80936E0748E092
:1050800050E067E170E089E697E00E94F432109208
:1050900071078091030791E08927880F8093C806E4
:1050A00080E88093A0040E943E2F6BE070E082E7CE
:1050B00098E00E94CE15882309F443C08091C80669
:1050C00065E070E081FD2DC18DE698E00E94CE156F
:1050D0008823B9F16DE070E08BE598E00E94CE1571
:1050E000882379F10E94090D69877A878B879C87CD
:1050F000DC01CB01805A9541AF4FBF4F8093CC0666
:105100009093CD06A093CE06B093CF06E8ECF4E0E2
:1051100080E092E0DF019C011D9221503040E1F7D8
:10512000F0939F04E0939E048FEF9FEF9093CB0644
:105130008093CA0681E08093D3068093D0061092B4
:10514000C90680910307811102C00E94BD3086E02C
:1051500091E090932C0780932B07CE010196898BC9
:105160009A8B80915B04853069F410E400E182E160
:10517000F82E80915B04853009F4D6C00E94011995
:105180000E94480C0E944725AEE8B4E0BA87A98780
:10519000ECE5F4E0FE87ED87DF01EEE8F4E09191C5
:1051A0008D9116E9412E14E0512E4E165F0609F43A
:1051B000F3C09817A1F320900307ADEFAA2EA1E04A
:1051C000BA2ED12CAD85BE85CD90BE87AD87E98541
:1051D000FA853190FA87E9873C14B1F13C24450106
:1051E000512C44244394832D8421882309F11C2DC0
:1051F00014212220A1F05982DA820E9407179C8391
:105200008B83F1E0FD8391E0111101C090E09E835A
:1052100049815A816B817C818D810E949E2480917D
:10522000640411111BC1FE2C893008F047C1EF2C1A
:105230005394440CEFEF8E1A9E0AF6E05F12D3CF20
:10524000E985FA853197C082D39426E0A20EB11C7D
:1052500038E0D312B7CF0E94260DF0900307F1106B
:10526000A5C00E949812F090D306FF2009F4F3C065
:105270008091D1069091D2060E94041CC29708F436
:105280000EC20E9407179093D2068093D10688EC35
:1052900094E090939F0480939E0480910307882359
:1052A00009F4E1C280E199E00E94CC168091770771
:1052B00090917807292F3327E0E02115310511F06F
:1052C000C901E8E09C01B4E036952795BA95E1F76D
:1052D0002115310511F0EC5FC9019C013695279528
:1052E000369527952115310511F0EE5FC901969588
:1052F0008795892B09F0EF5F85EC98E0E83008F09E
:105300008DC1F0E0E556FC4C0C94AA320E94650E6B
:1053100010925B041092030710920407109205018B
:10532000BCCD88E698E0D2CE80915B04843039F120
:105330000E9498120E94DB151092590448E150E037
:105340000FB6F894A895409360000FBE10936000CC
:1053500083B7817F846083BF83B7816083BF789484
:10536000889583B78E7F83BF0FB6F894A8958091F8
:105370006000886180936000109260000FBE0E9400
:105380004725ECE5F4E081918111B3C384E694E014
:105390008E179F07C1F7EDCE98130DCF0E942425DD
:1053A000F0900307FF2009F4BCC0F12C00915F07C7
:1053B000109160070115110509F444C080919A0409
:1053C00090919B04A0919C04B0919D04BC01CD01DF
:1053D0000E94590D69877A878B879C8780919604F4
:1053E00090919704A0919804B091990449845A84AB
:1053F0006B847C84481659066A067B0618F1C8013E
:105400000E9449069801205E31092830310508F0D4
:1054100000C10E940C11802F0E94001810925F079B
:105420001092600710929A0410929B0410929C04B0
:1054300010929D0410929604109297041092980472
:10544000109299040E9498128091D306811110CF76
:10545000FF2009F46CC00E94ED1569C0D401FC90D6
:10546000BFEFFB1609F4DFCE01E010E0EE24E39479
:10547000883038F5409164048F2D90E0242F30E07F
:10548000F901EC59FB4FDC01AA0FBB1FA35DBD4F17
:105490005C915183880F991FDC01A350BE4FD196B8
:1054A0008C918187F18AF901EE0FFF1FEC59FB4FB8
:1054B000128E118E4F5F40936404B9CE00E010E06D
:1054C000E12C78E0672E712C601A710AB8016B59D3
:1054D0007B4FA30185E694E00E94C632B801635970
:1054E0007B4FA3018DE694E00E94C632A301440FD6
:1054F000551FB801660F771F63587B4F8DE794E007
:105500000E94C632B8016B587B4FA30185E794E037
:105510000E94C63288E08E1980936404E110AACFFD
:1055200086CE0E9498128091D3068111A1CE86E08A
:10553000E0E5F7E0A989BA8901900D928A95E1F733
:10554000B09051070091520710915307D090540723
:10555000F09055071092520710925307109254077B
:1055600010925507812F802B882379F08091D606E1
:105570009091D7060E94041C9C0180914E078111D6
:105580003CC22B30310508F03EC28D2D8F29882377
:1055900079F08091D4069091D5060E94041C9C015C
:1055A00080914D07811167C22B30310508F069C227
:1055B00080915107B81216C080915207882311F0CC
:1055C000801310C090915307992311F091130AC0D2
:1055D00020915507211106C020915407211102C0C6
:1055E000892B81110E94131786E0E989FA89A0E5C9
:1055F000B7E001900D928A95E1F70E94480C9091D6
:10560000D806891709F4ADCD8093D8060E94090DFC
:10561000A8CD0E941D11FFCE88E099E00E94DA1605
:1056200080915907805D0E941A1683EC98E00E94D1
:10563000CC1680915807805D0E941A168FEB98E077
:105640000E94CC1680915607909157072091100127
:10565000309111018217930709F075C02091A704BA
:10566000203209F070C0E1EAF4E06F0181918032EC
:10567000E1F3F60101900020E9F78F0101501109D3
:10568000C016D10608F4E9C08DEB98E00E94CC1654
:10569000809145010E941A1681E00E949A1680911D
:1056A000CA069091CB06892B99F08091D306882366
:1056B00079F08091C90681110BC00E94ED152091EF
:1056C000CA063091CB0680E02115310509F0D1C022
:1056D0008091D006882309F4BBCE0E94090D69870A
:1056E0007A878B879C878091CC069091CD06A0917C
:1056F000CE06B091CF0649845A846B847C84481AC4
:10570000590A6A0A7B0A2FEF4216520662062FE7F1
:10571000720608F09DCE0E94DB159ACE81E099E0DA
:105720007DCF89EF98E07ACF8EEE98E077CF83EE49
:1057300098E074CF89ED98E071CF81ED98E06ECF5D
:105740008BEC98E06BCF909311018093100120E2D5
:105750002093A7049C0140E050E029873A874B87BB
:105760005C871092A60476EAC72E74E0D72EEAE092
:105770008E2E912CA12CB12CCA01B901A501940146
:105780000E9488326D877E878F87988B8D85805D9C
:105790004D845E846F84788800E010E045284628B8
:1057A000472861F565EAC62E64E0D62E8093A504ED
:1057B00029873A874B875C8769857A858B859C85A5
:1057C000A50194010E9488326D877E878F87988B10
:1057D0008D85805D2D853E854F85588901E010E0DF
:1057E000232B242B252B51F480E249845A846B848B
:1057F0007C8445284628472809F080E39AE0892ED2
:10580000912CA12CB12CD6018E936D0169857A85DE
:105810008B859C85A50194010E94883229873A874F
:105820004B875C870F5F1F4F0530110509F41BCFB5
:10583000CA01B901A50194010E9488326D877E8753
:105840008F87988B8D85805D4D845E846F8478888A
:10585000452846284728B9F6C7CFD6018D916D0156
:105860000E941A160DCF8DE798E00E94CC1617CF34
:105870008F5F082F10E0CC24C394D12C082E02C0D7
:10588000CC0CDD1C0A94E2F7A60142235323452BDE
:1058900079F39091C80690FD43C0980136952795FD
:1058A00036952795922F8295880F80763FE1380FA5
:1058B00080931401209317013093150190931801E0
:1058C00024E630E047E050E062E171E088E70E94C2
:1058D000742F892B09F0FCCEA801F5E0440F551F69
:1058E000FA95E1F78091C80680FD22C048535B4FCE
:1058F00004E610E020E230E060E488E70E940C302B
:10590000892B09F0E5CEC094D0948091CA0690917D
:10591000CB06C822D922D092CB06C092CA06D8CED6
:10592000880F880F880F37E0380F20E093E0C0CF52
:10593000E8EAF4E080E2DF011D928A95E9F7E3ED01
:10594000F2E0FA87E9876FEC72E037ED232E32E060
:10595000332EE7E08E2EE985FA85A191FA87E98753
:10596000FB018191BF01840F952F911D9C0128534C
:105970003B4F2901EA2FF0E0E855FB4F80E090E033
:10598000682C681A99249394082E01C0990C0A94E3
:10599000EAF78201A12CD801BD908D01B920262DF6
:1059A0002A19277030E0BB2D022E01C0BB0F0A94CC
:1059B000EAF73195219531092770332701C0B69454
:1059C0002A95EAF7BB2A20812B292083A39428E07B
:1059D000722EA710E0CF019631968830910581F69E
:1059E00029853A852216330609F0B5CF04E610E082
:1059F00020E230E048EA54E07FCF2531310508F459
:105A0000C4CD8F3F19F08F5F80934E07002359F06C
:105A10000E94030C9FEF10160CF491E0899F802DDB
:105A2000112480935207112359F00E94030C91E036
:105A300011160CF09FEF899F802D1124809353073E
:105A400080915207882309F4A0CDC0905307CC2041
:105A500009F49BCD0E94F50B811101C081E0809378
:105A600052078C2D0E94F50B882319F08093530761
:105A70008CCD81E0FBCF2135310508F499CD8F3FE6
:105A800019F08F5F80934D07DD2059F00E94230CA1
:105A90009FEF1D140CF491E0899F802D11248093B9
:105AA0005407FF2059F00E94230C91E01F140CF0C2
:105AB0009FEF899F802D1124809355078091540773
:105AC000882309F475CDF0905507FF2009F470CDB7
:105AD0000E94F50B811101C081E0809354078F2D46
