:100000000C942A060C9447060C9447060C944B302B
:100010000C9447060C9447060C9447060C9447062C
:100020000C9447060C9447060C94A3160C94C41A1F
:100030000C94C6270C9447060C9447060C9447066C
:100040000C9447060C9447060C9447060C944706FC
:100050000C9447060C947C170C9447060C944706A6
:100060000C9447060C9447060C9447060C944706DC
:100070000C9447060C9447060C9447060C944706CC
:100080000C9447060C9447060C9447060C944706BC
:100090000C9447060C9447060C9447060C944706AC
:1000A0000C9447060C9447060C9447062020202009
:1000B0006162636465666768696A6B6C6D6E6F70B8
:1000C0007172737475767778797A31323334353664
:1000D00037383930524542545F2D3D5B5D5C233BE0
:1000E00027602C2E2F2020202B0014001A290926EF
:1000F00013000500292104281524162117220A2798
:100100002E161D001B2C06250733192F000000009A
:1001100000002B452C4328422F0033001C39183691
:100120000F000D00343112380C2408311132102721
:1001300032325400373C36250B330E2F00000000BE
:10014000000024522A464C472B0014001A000800D5
:1001500015001700292104001600070009000A00F5
:10016000E1001D001B000600190005000000000052
:1001700000002B452C0028422F00130012000C0019
:1001800018001C00343133380F240E310D320B00AF
:100190003232540037003600100011000000000019
:1001A000000024522A464C472B001E001F0020004E
:1001B000210022006252E300E200E000E1000007BB
:1001C000E1001D011B0106010701000F00000000F6
:1001D000000025522C432800380027002600250067
:1001E000240023002D0036022300220021003600C7
:1001F0001F02370220001F001E0037000000000011
:10020000000038442746270200001E021F1409017F
:1002100013010505000004281524162117220007E4
:10022000E1001D011B01060107011901000000008A
:10023000000000000000000038002E004D004B00C0
:100240004E004A002D0036024F005200510050006F
:100250001F0237020000A900AA00000000000000F1
:10026000000038003802270230141E021F14251423
:100270002614200220142302211425022602220221
:1002800021026414300264006402320200000000A3
:100290000000390067526252000000004D004B0020
:1002A0004E004A00000000004F0052005100500074
:1002B000E50000000000A900AA0000000000000006
:1002C00000000000000000001B70000000000000A3
:1002D000000000001C70E300E200E000E1000052BA
:1002E00020782378257827782178015200000000B3
:1002F000000000000000000038002E004200410015
:10030000400045002D0036023F003E003D00440005
:100310001F0237023C003B003A004300000000008F
:10032000000039002A004C0030141E021F1425144E
:100330002614200220142302211425022602220260
:1003400021026414300264006402320200000000E2
:1003500000002C002C00280000000000000000001D
:10036000000000000000E300E200E000E100000007
:10037000E500000000000000000000000000000098
:1003800000000000000000002B000000DB00CD009A
:10039000DC00000067520000CF00CE00D00000005B
:1003A00000000000D200DA00D900000000000000C8
:1003B00000002C00D100D200000000004F082B01EB
:1003C0002B0350080000E3004F24523151325000FB
:1003D000DF00DE00DD00D200D100000000000000E0
:1003E000000000000000000000DA0281FFD9F1DB0C
:1003F00020A4A62EAF00A0C0D30000A1C8D3000047
:10040000AED580A81F408D142000556E646566002F
:100410004D4F5553450053594D424F4C530046558F
:100420004E4354494F4E5300544F47474C45204E7E
:100430004156004E415649474154494F4E004E5592
:100440004D424552530051574552545900434F4C69
:10045000454D414B004C617965723A20003A002CC1
:10046000206B007800808182838485868788898AD2
:100470008B8C8D8E8F9091929394A0A1A2A3A4A512
:10048000A6A7A8A9AAABACADAEAFB0B1B2B3B4C089
:10049000C1C2C3C4C5C6C7C8C9CACBCCCDCECFD0D4
:1004A000D1D2D3D4000001010101010101010102F7
:1004B0000202020202020202030303030303030314
:1004C00004040404040404050505050506060606DF
:1004D00006070707070708080808090909090A0A9B
:1004E0000A0B0B0B0C0C0C0D0D0D0E0E0E0F0F0F3F
:1004F00010101111111212131314141515161617CA
:1005000017181819191A1A1B1B1C1D1D1E1E1F2037
:1005100020212222232424252626272829292A2B84
:100520002C2D2D2E2F3031323233343536373839A9
:100530003A3B3C3D3E3F40414243444546474849A3
:100540004A4C4D4E4F50515354555658595A5B5D75
:100550005E5F616264656668696B6C6D6F70727313
:100560007577787A7B7D7E8082838587888A8C8E7A
:100570008F91939596989A9C9EA0A2A3A5A7A9ABAC
:10058000ADAFB1B3B5B7BABCBEC0C2C4C6C9CBCD9E
:10059000CFD1D4D6D8DBDDDFE2E4E7E9EBEEF0F350
:1005A000F5F8FAFDFF00AF00AE05010902A10185D3
:1005B000020901A100050919012908150025019565
:1005C00008750181020501093009311581257F95E2
:1005D000027508810609381581257F950175088106
:1005E00006050C0A38021581257F950175088106DC
:1005F000C0C005010980A101850319012AB70015B2
:100600000126B700950175108100C0050C0901A1F4
:1006100001850419012AA002150126A00295017581
:10062000108100C005010906A1018506050719E032
:1006300029E71500250195087501810205071900B4
:1006400029EF1500250195F07501810205081901B2
:100650002905950575019102950175039101C00564
:10066000010906A101050719E029E71500250195F3
:100670000875018102950175088101050719002996
:10068000FF150026FF009506750881000508190171
:100690002905150025019505750191029501750340
:1006A0009101C009023B00020100A0FA0904000008
:1006B0000103010100092111010001224400070585
:1006C0008103080001090401000103000000092161
:1006D0001101000122B6000705820320000112016A
:1006E0000002000000085346010001000102000161
:1006F0000C0343006F0072006E00650000001003E1
:1007000066006F006F007300740061006E000000EF
:10071000040309040000000000003E5B4F5B3E0044
:100720003E6B4F6B3E001C3E7C3E1C00183C7E3CEA
:1007300018001C577D571C001C5E7F5E1C000018B3
:100740003C180000FFE7C3E7FF0000182418000072
:10075000FFE7DBE7FF0030483A060E00262979293B
:100760002600407F05050700407F05253F005A3CD5
:10077000E73C5A007F3E1C1C0800081C1C3E7F0002
:1007800014227F2214005F5F005F5F0006097F0173
:100790007F00006689956A0060606060600094A2D6
:1007A000FFA2940008047E04080010207E201000A0
:1007B00008082A1C0800081C2A0808001E1010102F
:1007C00010000C1E0C1E0C0030383E383000060E97
:1007D0003E0E060000000000000000005F00000068
:1007E000000700070000147F147F1400242A7F2ACA
:1007F0001200231308646200364956205000000896
:1008000007030000001C224100000041221C0000E0
:100810002A1C7F1C2A0008083E080800008070304F
:1008200000000808080808000000606000002010B0
:10083000080402003E5149453E0000427F4000004E
:100840007249494946002141494D33001814127F2D
:1008500010002745454539003C4A494931004121AE
:1008600011090700364949493600464949291E0001
:1008700000001400000000403400000000081422B2
:100880004100141414141400004122140800020141
:10089000590906003E415D594E007C1211127C0040
:1008A0007F49494936003E41414122007F41414153
:1008B0003E007F49494941007F09090901003E4145
:1008C000415173007F0808087F0000417F4100000C
:1008D0002040413F01007F08142241007F404040FA
:1008E00040007F021C027F007F0408107F003E4111
:1008F00041413E007F09090906003E4151215E0049
:100900007F091929460026494949320003017F0120
:1009100003003F4040403F001F2040201F003F4059
:1009200038403F0063140814630003047804030094
:100930006159494D4300007F4141410002040810C4
:100940002000004141417F000402010204004040B8
:100950004040400000030708000020545478400045
:100960007F2844443800384444442800384444280C
:100970007F0038545454180000087E0902001824DF
:10098000241C78007F080404780000447D400000A7
:100990002040403D00007F102844000000417F407F
:1009A00000007C04780478007C0804047800384453
:1009B000444438007C1824241800182424187C008F
:1009C0007C080404080048545454240004043F44A0
:1009D00024003C4040207C001C2040201C003C4067
:1009E00030403C004428102844004C9090907C00FB
:1009F0004464544C44000008364100000000770075
:100A000000000041360800000201020402003C26FA
:100A100023263C0000000000000000000000000051
:100A200000000000C0E0F0F8F81800C0F0FCFEFF85
:100A3000FFFFFFFFFFFF7E0000000000000000003E
:100A400080C0E0E0E0E0E0E0E0E0C0800000000026
:100A500080C0E0E0E0E0E0E0E0E0C080000000E036
:100A6000E0C0C0E0E0E0E00000E0E0C0C0E0E0E0C6
:100A7000E0E0C0800000000080C0E0E0E0E0E0E0F6
:100A8000E0E0C08000000000000000000000000066
:100A90000000E0F0F0F0E0ECEEF7F37020007C7C7A
:100AA0007C7E007E7E7E7F7F7F000080C0E07E5B5C
:100AB0004F5BFEC00000C000DCD7DEDEDED7DC000E
:100AC000C000000000000000000000000000000066
:100AD00000000000000000000000000000F8FCFE24
:100AE000FFE000FFFFFFFFFFFF80FFFFFFFFFFFFB3
:100AF000FFFFFF1F0701000000000000000000FFD3
:100B0000FFFF8100000000000081C3C3C30000FF9D
:100B1000FFFF8100000000000081FFFFFF0000FFD9
:100B2000FFFF01000000000000FFFFFF01000000C8
:100B30000001FFFFFF0000FFFFFF9D1C1C1C1C1C91
:100B40001C9DDFDFDF00000000000000000000004F
:100B500000000F1F3F7F7F7F7F7F3F1E0C001F1F06
:100B60001F3F003F3F3F7F7F7F00307B7F783020FB
:100B70002030787F3B0003000F7F0F0F0F7F0F00A7
:100B80000300000000000000000000000000000062
:100B900000000000000000000000000000030F1F24
:100BA0003F3F3F3F1F1F3F3F7F7F7F3F3F1F3F7FB5
:100BB0007F7F7F7C7878381C0F00000000000000E9
:100BC00001030707070707070707030100000000E5
:100BD00001030707070707070707030100000007CE
:100BE00007070000000000000007070700000000E2
:100BF00000000707070000000103070707070707B2
:100C000007070301000000000000000000000000D2
:100C100000000000000000000000000000000000D4
:100C200000000000000000000000000000000000C4
:100C300000000000000000000000000000000000B4
:100C400000000000000000000000000000000000A4
:100C50000000000011241FBECFEFDAE0DEBFCDBFE1
:100C600013E0A0E0B1E0E0EAF5E602C005900D92E5
:100C7000AA34B107D9F727E0AAE4B3E001C01D9276
:100C8000A73EB207E1F70E94ED270C946B320C945B
:100C900000009091D405937061F081110BC09460B5
:100CA0009093D40510925E018091D305816080936A
:100CB000D3050895873010F09861F2CF880F880F20
:100CC000982BEECF482F2091CF059091960557E0B5
:100CD000291302C080E0089530E0529FF001539F35
:100CE000F00D1124E956FA4F8181681306C0808106
:100CF000481303C085818111EECF2F5F3F4F2770CE
:100D0000E7CFFC01AC014C5F5F4F8FEF91E3219186
:100D1000822728E030E087FF09C0880F892721500B
:100D20003109C9F7E417F50791F70895880FF7CF50
:100D30009091D405937071F08093D5056093D6059A
:100D4000493708F048E74093D7058091D305816083
:100D50008093D3050895E8EDF0E080818E7F808355
:100D60001092E2001092DA001092E100A0EEB0E0E2
:100D70008C9181608C9380818F77808319BCA7EDE3
:100D8000B0E08C918E7F8C9380818F7E80831092D7
:100D90007F0508952091E4003091E50095E6A901D2
:100DA0002091EC00822F817020FF06C08091E80026
:100DB00080FF06C080E008952091E80022FD1AC05F
:100DC00080918C05882389F0853089F08091EB0033
:100DD00085FD0FC02091E4003091E50042175307D4
:100DE000F9F29150E1F684E0089582E0089583E0FD
:100DF000089581E0089580918E0587FF13C080914A
:100E0000E80082FF06C08091E8008B778093E800BD
:100E100004C080918C058111F2CF089580918C05DA
:100E20008823D9F38091E80080FFF8CF8091E80013
:100E30008E77ECCF982F9093E900242F762F50E0F7
:100E4000891731F07091EC002091ED005091F00085
:100E500021FD07C09F5F973071F78093E90081E023
:100E600008953091EB003E7F3093EB003091ED0020
:100E70003D7F3093ED003091EB0031603093EB001B
:100E80007093EC002093ED005093F0002091EE0061
:100E900027FDE0CF80E00895B0E0A0E0E2E5F7E0D4
:100EA0000C948531C8EDD0E088818F7E8883E7ED92
:100EB000F0E080818160808384E082BF81E0809364
:100EC0007F0588818E7F888302EE10E0F801108212
:100ED0001092DA0081EEC82ED12CF60110828881A2
:100EE0008F77888388818068888388818F7D8883D5
:100EF00019BC10928C0510928D0510928B051092E2
:100F00008A0590EEE92EF12CF70180818B7F80839A
:100F100088818160888342E060E080E00E941A0757
:100F2000F60180818E7F8083F801808181608083DB
:100F3000808188608083F70180818E7F80838881B3
:100F400080618883CDB7DEB7E8E00C94A131FC0165
:100F5000809194059091950586179707A0F06115EB
:100F6000710529F49091E8009E779093E80090E055
:100F70006115710551F4911108C08091E80082FF5C
:100F800034C080E00895BC01F2CF80918C058823A5
:100F9000C1F18530C1F18091E80083FD30C08091BE
:100FA000E80082FDEACF8091E80080FFE1CF8091E8
:100FB000F3002091F200382F6115710519F02830E7
:100FC000310558F091E02830310509F090E020918A
:100FD000E8002E772093E800CBCF81918093F10039
:100FE000615071092F5F3F4FE7CF80918C058823B7
:100FF00041F0853041F08091E80083FFBECF81E071
:10100000089582E0089583E0089580918105089510
:10101000CF92DF92EF92FF922FB7F894C0907B05AA
:10102000D0907C05E0907D05F0907E052FBFA70154
:101030009601261B370B480B590BCA01B901FF90CB
:10104000EF90DF90CF9008952FB7F89460917B05D3
:1010500070917C0580917D0590917E052FBF08954C
:1010600090915D019923D1F09091780597FF16C07A
:10107000E82FE695E695E695EE31E0F4F0E0EC5ADF
:10108000FC4F282F277081E090E001C0880F2A953F
:10109000EAF780959281892382830895EEE4F3E054
:1010A0009191891303C0DF0111971C9293E0E435FD
:1010B000F907B1F7089590915D019923C1F09091DE
:1010C000780597FF14C0E82FE695E695E695EE3192
:1010D000F8F4F0E0EC5AFC4F877021E030E001C0FA
:1010E000220F8A95EAF78281822B82830895AEE4EB
:1010F000B3E0EFEF90E02D91821751F0EF3F19F43C
:10110000211101C0E92F9F5F9630A9F7EF3F09F445
:1011100008950E2E000CFF0BE45BFC4FE6CFA3E01E
:10112000B0E0E5E9F8E00C948B3120917605309140
:10113000770528173907A1F09093770580937605F6
:10114000E0917405F0917505309751F024E0298302
:101150009B838A830084F185E02DCE010196099559
:101160002396E2E00C94A731A3E0B0E0EAEBF8E0CC
:101170000C948B3120917205309173052817390733
:10118000A1F09093730580937205E0917405F0913E
:101190007505309751F023E029839B838A8300846F
:1011A000F185E02DCE01019609952396E2E00C949D
:1011B000A73180917005882359F0E0917405F09172
:1011C0007505309729F00190F081E02D099508957B
:1011D00080E008958091650580FD16C081FD16C0F0
:1011E00082FD16C0809164058823A1F0883280F4C6
:1011F00028E0829FC001112468E270E00E94BE31A5
:10120000862F672B39F0089582E0089584E00895D1
:1012100088E0089581E008958091650580FD17C0FC
:1012200081FD17C082FD17C0209163052223A9F01C
:1012300088E12034A0F4289F9001112486E03595A0
:1012400027958A95E1F7822F232B51F0089586E0A8
:1012500008958CE0089588E1089588E00895089540
:1012600081E00895282F35EB2303C001112497FF57
:1012700004C080589109892F089580589F4FFBCF53
:10128000CF92DF92EF92FF92CF93DF93EC01C09069
:101290005805D0905905E0905A05F0905B05C701BC
:1012A000B6010E940808643F714081059105F8F479
:1012B000C0925405D0925505E0925605F09257051C
:1012C00084EF91E0A0E0B0E0809350059093510549
:1012D000A0935205B0935305D0936005C0935F056A
:1012E000DF91CF91FF90EF90DF90CF9008950E9413
:1012F0002408609354057093550580935605909388
:10130000570582E390E0A0E0B0E0DECFFC018581EC
:10131000862351F492819923B9F06923818583FF53
:1013200005C081E061110FC080E00895892F8F70A2
:1013300092959F70982B862F8F7062956F70682B97
:1013400081E09613F1CF089581E0FDCFFA0181117C
:1013500001C0FB010995089530917105311123C039
:101360008B3191051CF14B97FC01EE0FFF1FDF0144
:10137000A80FB91FA855BB4F11963C911197361372
:1013800007C03C91341304C012963C91321771F09F
:1013900031E03093A704E80FF91FE855FB4F618354
:1013A0004083228303C08B319105F4F20895539A50
:1013B0001092A7040895E4EDF5E0248130E1231BA9
:1013C00008F420E024838091D30581608093D305C5
:1013D0000895E4EDF5E0248130E1230F08F42FEFC8
:1013E00024838091D30581608093D3050895E4ED33
:1013F000F5E0438120E1421B08F440E081816281F5
:1014000090E00E9498060895E4EDF5E0438120E124
:10141000420F08F44FEF8181628190E00E949806AC
:101420000895E4EDF5E0628120E1621B08F460E0DC
:101430008181438190E00E9498060895E4EDF5E0F3
:10144000628120E1620F08F46FEF8181438190E0B7
:101450000E9498060895E4EDF5E081814381628160
:101460008850990B0E9498060895E4EDF5E081817B
:1014700090E04381628108960E94980608958091C9
:10148000D40586958695815009F486E00E94490628
:1014900008958091D405869586958F5F873008F0F2
:1014A00081E00E94490608959BE0899F802D1124C8
:1014B000980F973308F096E320917105222321F0CD
:1014C0009C3128F09BE108958B3108F48BE108955D
:1014D0000E94AC090895FF920F931F93CF93DF935F
:1014E000182F062FF42ED0E0C0E02F2D402F612FB3
:1014F000CE010E94680A2196C633D105B1F7CDB757
:10150000DEB7E5E00C94A431EF92FF920F939701C0
:10151000201B31092F3F310519F010F02FEF30E07B
:10152000322F3095482F430F08F44FEF842F620F6E
:101530000F91FF90EF90089550E0FA01EE0FFF1F1A
:10154000E958FD4F31A9440F551FFA01E955FD4FE8
:101550009081931B692F660F690F313210F0620F73
:101560000895621B08950F931F93522F10E0F80106
:10157000EE0FFF1FE958FD4FA1A9A052BB0B9D0123
:101580005203F001539FF00D1124000F111FD801D9
:10159000A955BD4F0C910057110B40039001419F7D
:1015A000300D11242E0F3F1F37FF02C0215C3F4F2B
:1015B00096E0359527959A95E1F7620F1F910F9167
:1015C0000895E82F86FDE0952E2F2F7086FD2F5F62
:1015D000E695E695E695E670F0E0E159FD4F9181DC
:1015E000929F902D212D112492959F702295207FFE
:1015F000922B2081920F87FD919580E8890F0895A5
:1016000030E020E0869F212D969F200D311D112472
:10161000C9010895982F80917105882329F081E0F0
:101620009B3128F080E003C081E09633D8F708951D
:10163000AF92BF92CF92DF92FF920F931F93CF93FF
:10164000DF93362F472FE82FF0E0EB55FB4F71115A
:101650000FC0E4918E2F2E2F6E2F722FDF91CF911E
:101660001F910F91FF90DF90CF90BF90AF900895A2
:10167000C72FD0E02491F22E022F10E056E0659F94
:10168000C0011124EFEFF0E0BF010E946731832F0A
:1016900090E0880F991F35E5369FD001379FB00D38
:1016A00011248A1B9B0B982F990F980F6F01CC1A4E
:1016B000DD0AC09ED001C19EB00DD09EB00D112498
:1016C0008B2F499FA0011124452F55276F01C41A64
:1016D000D50AC09EA001C19E500DD09E500D112470
:1016E0005F01A91AB108AC9E6001AD9ED00CBC9EF2
:1016F000D00C1124CD2CDD24EC19FD09E09FE00174
:10170000E19FD00DF09FD00D1124ED2F62307105B7
:10171000A1F050F46115710509F49ECF6130710597
:1017200081F0EB2F852F98CF6430710569F080F040
:101730006630710509F490CFF4CFE22F2B2F8D2F57
:101740008BCFE22F252F88CFEB2F822F2D2F84CF09
:101750002B2F8F2DE52F80CF80E00895F894E82F70
:10176000E295EF70F0E031A1282F2F7081E090E03A
:1017700001C0880F2A95EAF7982F9095932391A39B
:1017800092A1892B82A3789408950F931F9380913F
:101790007005882329F00E9424081F910F91089555
:1017A0000E9424080091FA031091FB032091FC038E
:1017B0003091FD03600F711F821F931FEECF909138
:1017C000780592FF10C041E0282F2471243009F0E1
:1017D00040E031E0282F2871283009F030E043172D
:1017E00011F02CE0822793FF10C041E0282F2471D4
:1017F000243109F040E031E0282F2871283109F028
:1018000030E0431711F02CE082273091790530FF4A
:1018100010C051E0282F2171213009F050E041E043
:10182000282F2871283009F040E0541711F029E0E2
:10183000822731FF10C041E0282F2171213109F0AA
:1018400040E031E0282F2871283109F030E04317BB
:1018500011F029E0822794FD877E08958238910552
:10186000B9F1B0F48133910509F47DC048F48932AF
:10187000910509F46DC08A32910509F47BC0089581
:101880008533910509F45FC08933910509F1089505
:10189000833E9105D9F138F4803E910529F1823ECD
:1018A000910579F10895863E9105D9F1873E91051C
:1018B00009F43EC0843E910541F52091790521FF50
:1018C00024C08091780584FD19C087EE90E00895CA
:1018D00020917805237009F05AC02091790523FFE3
:1018E00014C089E290E008952091780520FD38C069
:1018F0003091790530FF09C024FF43C090E080E0BB
:1019000008952091780522FDF7CF0895209178055C
:1019100022FD3AC03091790530FD39C024FFF5CF62
:10192000EDCF2091780523FFF0CF24FDE7CFCDCF79
:101930002091780523FD2EC03091790531FFEECF3F
:1019400084EE90E008952091780525FFDECFC9CF81
:101950002091780525FD21C02091790523FFD5CF61
:1019600089E390E0D2CF2091780526FFCECF8AE29E
:1019700090E008952091780526FFC7CF81E390E09D
:10198000089583EE90E0089582EE90E0089580EE51
:1019900090E0089586EE90E0089585E390E0089544
:1019A000972F7830B8F46630A8F48830B0F470E03F
:1019B00026E0929F600D711D1124FB0190E3899F29
:1019C000E00DF11D1124EE0FFF1FE851FF4F85912F
:1019D0009491089580E090E0089581E0FCCF1F93FA
:1019E000CF93DF930E942E0CEC01C11580E5D80740
:1019F000F0F5C11580E4D80708F09CC0C03ED105C1
:101A000020F5CD3CD10508F082C0C83AD10578F464
:101A1000C53AD10508F073C0C130D10519F120973E
:101A200009F1C430D105F0F4D0E0C0E01BC0C33CE4
:101A3000D105D0F7C85AD0E0CC0FDD1FCB5DDD4F0C
:101A40000990D881C02DD4640DC0C11580E2D8079B
:101A500008F0D1C0C11581E0D80708F05AC0C83ECF
:101A6000D10510F7CE01DF91CF911F910895C036B7
:101A700082E5D80718F5C03482E5D80708F06BC0B6
:101A8000C03282E5D80708F05FC0C11582E5D807EB
:101A900008F497C02C2F2695269580E2289F900168
:101AA00011248C2F8370C1E0D0E002C0CC0FDD1F69
:101AB0008A95E2F7C22BD32BDD68D4CFC03A82E5FA
:101AC000D80760F4C03882E5D80708F459C0CF7150
:101AD000D0E0DC2FCC27C46FD06AC4CFC03C82E5F5
:101AE000D80708F462C0C03E82E5D80708F09CCF52
:101AF000DC2FCC27CC27DF71C06FD06AB3CFC55A9B
:101B0000D0E0CE5DDD4FC881D0E0D064ABCFD065F2
:101B1000A9CF8D2F0E94DF0B182FCE0199270E948D
:101B20002E0CC12FD0E0DC2FCC27CC27DF71C82BA7
:101B3000D92B98CFCE0199270E942E0CCC27DF708D
:101B4000C82BD92BD06A8ECFCF71D0E0DC2FCC2719
:101B5000C16FD06A87CF2C2F26952695277080E2FB
:101B6000289F900111248C2F8370C1E0D0E002C027
:101B7000CC0FDD1F8A95E2F7C22BD32BDC6872CF26
:101B80002C2F26952695277080E2289F90011124FE
:101B90008C2F8370C1E0D0E002C0CC0FDD1F8A958E
:101BA000E2F7C22BD32BDA685DCF8C2F8F710E94A6
:101BB000DF0BC82FD0E0DC2FCC27CC27DF71D06221
:101BC00051CF8C2F8F710E94DF0B55E0D695C795B2
:101BD0005A95E1F7CF70D0E0DC2FCC27282F30E0EA
:101BE00084FF05C044E0220F331F4A95E1F7C22B62
:101BF000D32BD06937CF8D2F8F710E94DF0B182F19
:101C0000CE0199270E942E0CC12FD0E0DC2FCC27CB
:101C1000CC27DF71C82BD92BD2CF80959091C203EE
:101C200098239093C20308958091C20390919903E1
:101C3000982B80919803882391F0982B80915D01D7
:101C40008823A9F08091780587FF11C08EE126E5F1
:101C500033E040E0815078F4411110929803809174
:101C60005C058095892390915D05892B089586E018
:101C70002EE433E0EECFF90151919F01552351F34A
:101C80004F5FE8CF8091CF0590919605981301C0E2
:101C900008958F5F8770FACFB0E0A0E0E2E5FEE044
:101CA0000C9484317C0100911B0410911C048091E0
:101CB000080490910904082B192BCFE0D0E0CC2424
:101CC000C394D12CBC2EC6010C2E02C0880F991FC4
:101CD0000A94E2F780239123892B49F4219790F706
:101CE000B12C8B2DCDB7DEB7E9E00C94A031B70154
:101CF0008C2F0E94D00C0E94EF0C019779F3F1CF4A
:101D0000CF93DF93EC010E944C0EBE010E94D00CD9
:101D10000E94EF0CDF91CF910895983078F58630CE
:101D200068F5E82FF0E086E0989FE00DF11D1124A2
:101D30009E2F977083E0F695E7958A95E1F7EE0F71
:101D4000FF1FEE0FFF1FE858FC4F50E040E080E01F
:101D5000219130E0092E02C0369527950A94E2F7CA
:101D600021703327042E01C0220F0A94EAF7822B38
:101D70004F5F5F4F4430510559F7089580E0089553
:101D8000983098F5863088F5E82FF0E086E0989F47
:101D9000E00DF11D11248E2F877041E001C0440F2A
:101DA0008A95EAF783E0F695E7958A95E1F7EE0FD5
:101DB000FF1FEE0FFF1FE858FC4F30E020E070E0FF
:101DC0005191DF011197CB01022E02C096958795A4
:101DD0000A94E2F7817081958527842385278C9367
:101DE0002F5F3F4F2430310559F7089590931C041D
:101DF00080931B04089521E030E002C0220F331FBE
:101E00008A95E2F72095309580911B0490911C04EF
:101E1000822393230E94F60E089590919703809554
:101E2000892380939703282F277069F4891759F025
:101E30009091790592FF07C08695869586950E94B8
:101E4000FB0E10929703089521E030E002C0220FAC
:101E5000331F8A95E2F780911B0490911C04822B1A
:101E6000932B0E94F60E0895909309048093080422
:101E70000895FC0124812223C1F0808191810E9478
:101E8000800E92959F70963091F058F4925F9F70FB
:101E9000923058F4803F19F030F4883E30F481E0FD
:101EA00008959A5FF4CF843FD1F380E00895883E8F
:101EB000B0F3813FD1F7F3CFA6E0B0E0E2E6FFE078
:101EC0000C948A3149835A8349815A819923A1F01C
:101ED000222391F0CA010E944C0E182F682F89818D
:101EE0009A810E94C00E69817A81812F0E94D00C54
:101EF0002696E3E00C94A631CA010E948D0E182F9D
:101F0000F2CF9C013A9521153F4150F5FC01EE2797
:101F1000F170BC0166277270AC01442754709C01BB
:101F20002227387094FF0EC080E1EF2B09F480E087
:101F3000672B09F08062452B09F08064232B89F020
:101F40008068089581E0EF2B09F480E0672B09F0A9
:101F50008260452B09F08460232B19F08860089576
:101F600080E00895CF93DF93682F81E06A3019F005
:101F70006D3031F480E00E944010DF91CF910895E0
:101F80008091E5079091E60726E0FC01AFEDB7E010
:101F900001900D922A95E1F7603E08F458C026E0C2
:101FA000FC0111922A95E9F7C091E507D091E60767
:101FB00046E050E0BE018FED97E00E9403329E01A3
:101FC0002F5D3540892B41F1C90145E096958795F4
:101FD0004A95E1F741E050E0BA0102C0660F771F71
:101FE0008A95E2F7CB016091DD057091DE05862BC5
:101FF000972BB9016B5F7F4FE5E076956795EA9582
:10200000E1F702C0440F551F6A95E2F7842B952B28
:102010009093DE058093DD052A5F3F4F4091DC05FC
:10202000642F70E0C9010E946731481B463010F4EC
:10203000240F311D211572E0370710F030E020E049
:1020400021523A4F3093E6072093E50796CFF6E00A
:102050006F9FB00111246C5E784F46E050E00E9403
:10206000FA31A2CFCF93DF93EC01FE01849181116D
:1020700003C0DF91CF9108950E94B20F2196F5CF52
:10208000CF93382FE091E507F091E607EF5DF5403B
:102090002091DC05622F70E0CF010E946731281B80
:1020A000822F332361F066E00E94B231C82FC15005
:1020B00010F4CF91089580E20E94B20FF8CF9F01F3
:1020C000280F311D2115324018F080E0F0E0E0E0EB
:1020D0008E0F9F2F911D81529A4F9093E607809308
:1020E000E507E7CF0E94321081E00E94401008957A
:1020F00080915D01882359F18091780587FF27C081
:102100000E94140E8093550340E250E06AE973E0A8
:1021100084E593E00E940332892BC1F080E2E4E57C
:10212000F3E0AAE9B3E001900D928A95E1F7E0911E
:102130007405F0917505309749F086E0809354035B
:102140000480F581E02D84E593E0099508950E94CF
:10215000140E80934C0348E050E06AEB73E08CE48B
:1021600093E00E940332892B89F388E0ECE4F3E0EA
:10217000AAEBB3E001900D928A95E1F7E091740526
:10218000F0917505309711F30280F381E02D8CE416
:1021900093E0DBCF882339F090919903982B9093AB
:1021A00099030E9478100895882321F00E940D0E53
:1021B0000E9478100895882339F09091C203982BDB
:1021C0009093C2030E94781008950F931F93CF93AA
:1021D000DF938B01EA0190918C05943061F5809337
:1021E000E9008FEF9091E800815095FD06C095EDD4
:1021F0009A95F1F700008111F5CF8091E80085FFF5
:102200001AC00E94CA06811111C08091E80085FDA4
:1022100006C08091E8008E778093E800F2CFF80145
:1022200081918F018093F100219779F78091E800E7
:102230008E778093E800DF91CF911F910F910895E1
:1022400043E050E0BC0182E00E94E510089546E0C2
:1022500050E0BC0182E00E94E510089540E250E0A9
:10226000BC0182E00E94E5100895CF93DF93EC015A
:1022700048E050E0BC0181E00E94E51088E0FE01EA
:10228000A2E8B5E001900D928A95E1F7DF91CF9138
:1022900008958091A704882339F13BB1377F2BB192
:1022A00028604FB7F89488EA94E0FC015191CF017F
:1022B00068E02BB9000000C057FF3BB9550F000084
:1022C00000C000C000C03BB900C06A9591F7F5E0BE
:1022D0008A349F0751F74FBF8FE594E00197F1F7DC
:1022E00000C000001092A7040895B0E0A0E0EBE762
:1022F000F1E10C9483317C015B016A018091F90367
:1023000001E010E08A3010F40AE010E0C1E0D0E013
:10231000B501C701F6010995811104C021960C177A
:102320001D072CF4CDB7DEB7EAE00C949F31CC9FAB
:102330009001CD9F300D300D112490E080E045E3F9
:102340004A95F1F70000019682179307C1F7E0CF95
:10235000AB0124E630E0BC0188E70E941B2F21E09E
:10236000892B09F020E0822F089580914E059091ED
:102370004F05911103C091E089270895882369F0E2
:1023800062E070E087EA95E00E94A811811103C025
:1023900080914E05089510924E0580914E05EBCF29
:1023A000CF93C0914E0580914F058823D1F00E94B4
:1023B0002408605A75418F4F9F4F60934A05709370
:1023C0004B0580934C0590934D05C11108C062E008
:1023D00070E085EA95E00E94A811811105C0C091C6
:1023E0004E058C2FCF91089581E080934E05F7CF55
:1023F000A7E0B0E0EEEFF1E10C947B314090760481
:102400005090770460907804709079048091700502
:102410008823E9F1C301B2010E9408084B015C0165
:102420000E94C50B2B013C01409276045092770428
:102430006092780470927904A0914D04EDE4F4E088
:102440008A2F90E04FEF5FEF60E070E04819590984
:102450006A097B09A91324C080934D048091D40597
:10246000182F137019F0182F1695169590915E017C
:10247000913009F43FC0992331F1923009F4A5C29B
:10248000933009F4ABC22796E2E10C9497310E9495
:10249000C50B4B015C0184189508A608B708C0CF8E
:1024A000218D328D6901F12CE12C4C155D056E05F5
:1024B0007F0520F481509F5F3296CCCF280D391DC7
:1024C000328F218FF8CF10925A014092A30450927C
:1024D000A4046092A5047092A60489E2EDE4F4E0FD
:1024E000AAE7B4E001900D928A95E1F781E080932C
:1024F0005E01C9CF90915901191322C083702091B8
:10250000580130E091E08217130609F490E0892F1A
:10251000817080935C018091D90590915B0198173F
:1025200039F080935B0140E060E080E00E946B0A3C
:10253000173090F4E12FF0E0E359FD4C0C94F431A6
:1025400081E0E6CF80915C01882309F4F1C040E08E
:1025500060E080E00E946B0A80E0EAC080915A014E
:102560000E94540A8983092F6091D5057091D60580
:102570008091D7050E94180BD62EC72EB82E398110
:10258000232F30E03D832C835C81501710F0802F87
:10259000CDC0EC81FD81ED5EFC4F808190915B01AF
:1025A000892339F02B2D4D2D6C2D8C819D810E941E
:1025B000680A4C815D814F5F5F4F5D834C83E4CF40
:1025C00080915A010E94540A8983092FC090D60530
:1025D000D090D7058091D5058A83682F7C2D8D2DCD
:1025E0000E94180BB62EA72E982E6091D8059A81BE
:1025F000690F7C2D8D2D0E94180BD62EC72E882E8C
:10260000F981EF2FF0E0FD83EC833C81301708F077
:10261000BECFEC81FD81ED5EFC4F908180915B012E
:10262000892361F0282D4D2D6C2D90FD03C0292D9F
:102630004B2D6A2D8C819D810E94680A2C813D81E1
:102640002F5F3F4F3D832C83E0CF80915A010E9442
:10265000540A8983092FD090D5054091D6054A8325
:10266000C090D7056091D80566956695669580916E
:10267000A3049091A4040E94000B0E94E10A8058D8
:1026800087FD8195880F582F2C2D529F512D112495
:10269000852F6D2D7A810E94180BD62EC72EB82E4D
:1026A0005981452F50E05D834C839C81901708F041
:1026B0006ECFEC81FD81ED5EFC4F808190915B01DE
:1026C000892339F02B2D4D2D6C2D8C819D810E94FD
:1026D000680A8C819D8101969D838C83E6CF8091D1
:1026E0005A010E94540A8983C92E6091D8056695C3
:1026F00066958091A3049091A4040E94000BD82EAB
:1027000080E48D0D0E94E10AE0E8BE2EB80E8D2D0A
:102710000E94E10AF0E8AF2EA80EF981EF2FF0E059
:10272000FD83EC833C813C15C8F08C2D0E940A0B84
:1027300090915A0121E0290F20935A01811142C141
:1027400082E080935E0180915C0181113BC1112385
:1027500009F442C1892F0E94540A95CEEC81FD8173
:10276000ED5EFC4F808190915B018923A9F060911F
:10277000D5057091D6058091D705ED2C0C812A2DB9
:102780004B2D0E94B30A0E94180B462F282F672F4B
:102790008C819D810E94680A2C813D812F5F3F4F73
:1027A0003D832C83BFCF80915A010E94540A8983B4
:1027B000092F8091D8056AE00E94B231682F21E08C
:1027C000620F08F46FEF8091A3049091A4040E941B
:1027D000000BD82E5981452F50E05D834C839C819E
:1027E000901708F0D4CEEC81FD81ED5EFC4F808126
:1027F00090915B018923E1F0EC81FD81EE0FFF1FD9
:10280000E958FD4F91A96091D5057091D605809149
:10281000D7052D2D4C81913288F00E949C0A0E9490
:10282000180B462F272F682F8C819D810E94680AE4
:102830008C819D8101969D838C83D1CF0E949C0ABF
:102840000E94180B462F282F672FEECFE0917A04B5
:10285000EA8321E03E2F321B08F430E03983809177
:102860005A010E94540A9B83482F50E05F834E8395
:10287000CA01880F991FFC01E958FD4F6F01F981CA
:102880008F2F90E09C012F5F3F4F3D832C838B81E6
:102890009E81981708F04ACFEE81FF81ED5EFC4FD4
:1028A000808190915B01892301F14090D5053090A2
:1028B000D6054C815D8146585B4F3A012980512CE9
:1028C0008A812816E0F02091D705352D329F312DD1
:1028D0001124832F642D732D0E94180B462F282F4F
:1028E000672F8E819F810E94680A4E815F814F5FB2
:1028F0005F4F5F834E8352E0C50ED11CC8CFF301FA
:1029000081913F01F601A0A8A81ABB0881A8F30194
:102910008781881A9908AA9C9001AB9C300D300DD4
:102920001124889CC001899C900D900D1124820F68
:10293000931F082F8230910524F16FEF813EFEE155
:102940009F073CF4BC0155E0769567955A95E1F7F1
:10295000685F71E0472F460F5527551F9A0135953F
:102960002795022F229FA001239F500D500D112467
:102970008417950710F56FEF620F671758F70FEF81
:10298000070F6091D80551E0650F08F46FEFF30170
:10299000EE0FFF1FEA57F440858996890E94000BCD
:1029A0007C019401A501642D732D852D0E94840A5C
:1029B000462E372E2394582E83CF2F3F11F371E0EC
:1029C000720FDBCF1111C6CE5ECD1093590183700B
:1029D000809358010E94491183E089CD8091D305ED
:1029E000882351F048E050E067E170E084ED95E025
:1029F0000E9437321092D3058090A3049090A404D3
:102A0000A090A504B090A60480917005882369F079
:102A1000C501B4010E940808603171058105910566
:102A200008F431CD10925E012ECD0E94C50B6819BD
:102A300079098A099B09F0CF9091790592FB2227A9
:102A400020F9281779F080FB92F99093790560912D
:102A500078057091790584E090E00E94653282E00B
:102A60000E940D0F0895A4E0B0E0E9E3F5E10C94B5
:102A70008A316091F1037091F2038091F303909198
:102A8000F4030E94080811E0643671058105910580
:102A900070F10E94C50B6E5F7F4F8F4F9F4F698310
:102AA0007A838B839C838091340190913501855288
:102AB0009C4F4091330150E04530510510F044E007
:102AC00050E0BE016F5F7F4F0E94103283E090E0C4
:102AD0000E94F130182F882351F00E94240860933F
:102AE000F1037093F2038093F3039093F403812F27
:102AF0002496E3E00C94A631EF92FF921F93CF93BC
:102B0000DF9300D000D00F92CDB7DEB77B0190E00D
:102B100080E00E94F130182F882309F47AC0409198
:102B20001E0150E04115510511F041E050E0609167
:102B30001F017091200165527C4FCE0105960E94C5
:102B400010326091D3037091D4038091D50390919A
:102B5000D6030E940808643671058105910540F48A
:102B60008CED93E00E9481069D81891709F451C084
:102B700081E090E00E94F13081111AC010E0809154
:102B8000CF039091D003A091D103B091D203F7016C
:102B900080839183A283B383812F0F900F900F9036
:102BA0000F900F90DF91CF911F91FF90EF900895BC
:102BB0004091260150E04530510510F044E050E0CE
:102BC000609127017091280165527C4FCE010196DA
:102BD0000E9410328CED93E00E9481069D81891342
:102BE000CDCF0E9424086093D3037093D4038093C5
:102BF000D5039093D60389819A81AB81BC81809360
:102C0000CF039093D003A093D103B093D20311E0EC
:102C1000B6CF8091DC039091DD03A091DE03B091EB
:102C2000DF0389839A83AB83BC831111E4CFA7CFE1
:102C3000B0E0A0E0EEE1F6E10C948531C82F7B0115
:102C4000D42F6901FB0160817181828193810E948F
:102C50000808643671058105910510F4DD2359F1EA
:102C60000C2E000CDD0BFE0183E0EE0FFF1F8A959A
:102C7000E1F7E55EFE4F8181928185529C4F408154
:102C800050E00417150708F4A801B6010E9410329D
:102C9000CE010E94F130C82F882339F00E94240809
:102CA000F70160837183828393838C2FCDB7DEB766
:102CB000E8E00C94A131C1E0F8CFA9E0B0E0E3E690
:102CC000F6E10C94893188E0E4EDF5E0DE0111963F
:102CD00001900D928A95E1F7198649E050E068EE7F
:102CE00073E0CE0101960E94033241E0892B09F482
:102CF00040E009E010E09E012F5F3F4F65EF73E079
:102D000084E00E9418162996E4E00C94A5310F93F4
:102D10001F93CF93DF93EC0144E050E060EE73E04B
:102D20000E94033241E0892B09F440E004E010E006
:102D30009E0167ED73E082E00E941816DF91CF914B
:102D40001F910F9108951F920F920FB60F921124A9
:102D50002F933F934F935F936F937F938F939F93A3
:102D6000AF93BF93EF93FF938091E10082FF09C07F
:102D70008091E20082FF05C08091E1008B7F80930B
:102D8000E1008091DA0080FF24C08091D80080FFAC
:102D900020C08091DA008E7F8093DA008091D90084
:102DA00080FF9DC080E189BD82E189BD09B400FE3C
:102DB000FDCF81E080938C0580917F05811109C052
:102DC0000E94AB060E944C078091E20084608093D1
:102DD000E2008091E10080FF17C08091E20080FF57
:102DE00013C08091E2008E7F8093E2008091E20028
:102DF00080618093E2008091D80080628093D80047
:102E000019BC85E080938C058091E10084FF2BC084
:102E10008091E20084FF27C080E189BD82E189BD05
:102E200089B5982F917080FFFBCF8091D8008F7D5E
:102E30008093D8008091E1008F7E8093E1008091A3
:102E4000E2008F7E8093E2008091E20081608093B7
:102E5000E20080918D05882309F447C084E08093C7
:102E60008C0580918C058091E10083FF27C08091C3
:102E7000E20083FF23C08091E100877F8093E1001F
:102E800082E080938C0510928D058091E1008E7F09
:102E90008093E1008091E2008E7F8093E200809138
:102EA000E20080618093E20042E060E080E00E9406
:102EB0001A078091F00088608093F000FF91EF91F5
:102EC000BF91AF919F918F917F916F915F914F9142
:102ED0003F912F910F900FBE0F901F90189519BC26
:102EE00010928C0510927F0574CF8091E30087FDCE
:102EF00093E090938C05B5CF78941F921FB61F92E4
:102F000011248F939F93AF93BF9380917B059091F2
:102F10007C05A0917D05B0917E050196A11DB11D96
:102F200080937B0590937C05A0937D05B0937E05EF
:102F3000BF91AF919F918F911F901FBE1F901895C9
:102F40009C014FB7F89480917B0590917C05A091EE
:102F50007D05B0917E054FBF821B930B08952FB75F
:102F6000F89480917B0590917C05A0917D05B091AE
:102F70007E052FBF08950E94AF179C0190916C05AC
:102F800080916D05982B21F0309369052093680599
:102F900090916E0580916F05982B21F03093670515
:102FA00020936605E0917405F0917505309749F01E
:102FB00082E080936A050680F781E02D8AE695E03D
:102FC000099508951092C20380915D01882339F11B
:102FD0008091780587FF23C0E6E5F3E08EE1DF010D
:102FE0001D928A95E9F790E080E00E94B40890E095
:102FF00080E00E948F08109299030E94781086E06A
:10300000EAE6F5E0DF011D928A95E9F71092630583
:1030100010926405109265050E94BB170895EEE4B6
:10302000F3E086E0DCCFAAE2B0E0E9E1F8E10C945D
:103030008A318EE895E02091F100FC012193CF01C7
:10304000F5E086399F07B9F780918F05833009F441
:1030500070C0B8F4813009F447C0823009F4B1C0BF
:103060008091E80083FF7EC280918E0590918F054C
:103070009A3008F077C2E92FF0E0EC58FD4C0C9440
:10308000F4318A3009F48CC08B3009F46FC0893078
:1030900039F780918E05813219F7809192059091D0
:1030A00093050297E8F68091E800877F8093E80017
:1030B0008091E80082FF38C09091F3008091F20087
:1030C000029731F48091F100813011F0863021F4C3
:1030D0008091F100809381058091E8008B77809347
:1030E000E8000E94FB06BCCF80918E05813A09F072
:1030F000B7CF8091E800877F8093E80080919205A8
:1031000090919305892B61F468E082E895E070E086
:103110000E94A7078091E8008B778093E800A0CFFA
:1031200060E090E080E0F3CF80918C058111C0CF0A
:1031300097CF80918E05813A09F092CF80919205C8
:1031400090919305892B09F08BCF8091E800877FC0
:103150008093E8008091E80080FFFCCF80915D01C2
:103160008093F1008091E8008E77B9CF80918E0531
:10317000813209F075CF8091920590919305892B4A
:1031800009F06ECF8091E800877F8093E8000E946D
:10319000FB068091900580935D010E94E21760CF4D
:1031A00080918E05813209F05BCF8091E800877FA6
:1031B0008093E8000E94FB06809191058093800532
:1031C0004FCF80918E05813A09F04ACF8091E80077
:1031D000877F8093E8008091E80080FFFCCF80919A
:1031E0008005BECF803899F0823809F0BBC180914C
:1031F00092058F70873008F0B5C18093E900809107
:10320000EB0085FB882780F91092E90006C08091C9
:103210008A0590918B05911182609091E800977FCB
:103220009093E8008093F1001092F1008091E80003
:103230008E7794C1882309F482C1823009F092C14B
:1032400080919005811185C1809192058F702FEF3B
:10325000280F263008F086C18093E9002091EB000A
:1032600020FF77C1933031F48091EB00806280932E
:10327000EB006FC19091EB0090619093EB0021E027
:1032800030E001C0220F8A95EAF72093EA001092FD
:10329000EA008091EB008860EACF811163C1109150
:1032A00090051F778091E3008078812B8093E30065
:1032B0008091E800877F8093E8000E94FB06809160
:1032C000E80080FFFCCF8091E30080688093E300FA
:1032D00082E0111183E080938C0544C180588230D4
:1032E00008F040C180919005909191058C3D23E0BC
:1032F0009207A1F583E08A838AE289834FB7F89425
:10330000DE01139620E03EE051E2E32FF0E050931F
:103310005700E49120FF03C0E295EF703F5FEF702C
:103320008E2F90E0EA30C0F0C7968D939D932F5F6B
:10333000243159F74FBF8091E800877F8093E800E0
:103340006AE270E0CE0101960E94A7078091E80032
:103350008B778093E80006C1C096E7CF4091920535
:1033600050919305292F33272330310509F444C0A8
:1033700078F52130310509F46FC08BE390E0E3EA82
:10338000F6E02230310509F0EDC02091E800277FFA
:103390002093E800209194053091950582179307BA
:1033A00008F49C0140E02115310509F064C0411189
:1033B00062C08091E80082FDC9CF80918C0588238E
:1033C00029F2853019F28091E80083FFF2CFBECF59
:1033D00021323105A9F12232310509F0C3C041156E
:1033E000510509F443C04130510509F0BBC086EBDB
:1033F00090E0E9EAF5E0C9CF992781309105C1F065
:10340000009759F0029709F0ADC0E0EFF6E0E491C3
:103410008E2F90E0E0EFF6E007C0E0E1F7E0E49106
:103420008E2F90E0E0E1F7E0009709F49BC0ADCF6C
:10343000EEEFF6E0E4918E2F90E0EEEFF6E0F4CFC1
:103440004115510571F04130510509F08BC089E0FB
:1034500090E0EEECF6E099CF82E190E0EEEDF6E060
:1034600094CF89E090E0E5EBF6E08FCF84E490E044
:10347000EFE5F6E08ACF80918C05882309F466CFCA
:10348000853009F463CF8091E80083FD5FCF8091A0
:10349000E80082FD8ECF8091E80080FF84CF90917C
:1034A000F3008091F2002115310519F08830910563
:1034B00050F041E0089709F040E08091E8008E77F5
:1034C0008093E80070CF44914093F10031962150F1
:1034D00031090196E8CF803809F044C08091E800B6
:1034E000877F8093E80080918D058093F1009ECEC8
:1034F000811138C0109190051230A0F58091E8003C
:10350000877F8093E80010938D050E94FB061123AE
:1035100011F084E005C08091E30087FDFACF81E0DF
:1035200080938C0542E061EC81E00E941A0742E240
:1035300061EC82E00E941A0780918C0513C0809193
:103540009005813079F481E0933009F080E0809338
:103550008B051092E9008091E800877F8093E80056
:103560000E94FB068091E80083FF0AC08091E8007A
:10357000877F8093E8008091EB0080628093EB006E
:10358000AA96E3E00C94A6311F920F920FB60F9209
:1035900011242F933F934F935F936F937F938F9358
:1035A0009F93AF93BF93CF93DF93EF93FF93D0910C
:1035B000E900DF708091EC00C82FC17080FDC0E889
:1035C0001092E9008091F000877F8093F00078945A
:1035D0000E9413181092E9008091F0008860809397
:1035E000F000CD2BCF70C093E900FF91EF91DF91F8
:1035F000CF91BF91AF919F918F917F916F915F918B
:103600004F913F912F910F900FBE0F901F901895E3
:103610000E94E2172FEF84E39CE02150804090400D
:10362000E1F700C0000088E19AE00FB6F894A89591
:10363000809360000FBE90936000FFCF40916C05B7
:1036400090916E0520916F05662309F469C0942B53
:10365000922B20916D05922B31F098E090936305A9
:1036600091E0909364058D3C41F40E940C09819592
:1036700080936D050E94BB1708958E3C19F40E943B
:103680000C09F6CF8F3C31F40E940C098195809390
:103690006C05F0CF803D19F40E940C09F8CF893DEC
:1036A00029F40E94EA0880936E05E4CF8A3D21F454
:1036B0000E94EA088195F7CF8B3D31F40E94EA0819
:1036C000819580936F05D6CF8C3D19F40E94EA084E
:1036D000F8CF9FE2980F983070F4815D990B21E04C
:1036E00030E001C0220F8A95EAF780916B05822BAA
:1036F00080936B05BFCF8D3D31F48091650581606E
:1037000080936505B7CF8E3D21F480916505826079
:10371000F7CF8F3D09F0AECF809165058460F0CF83
:103720008D3C59F480916D0587FF0DC010926D0599
:1037300041110BC01092630508C08E3C81F480914A
:103740006D0518169CF3442381F080916E059091CD
:103750006F05892B09F08ECF109264058BCF8F3CBB
:1037600049F447FFF0CF10926C0580916D058111EF
:10377000ECCFE0CF803D19F41416ACF3E4CF893DD3
:1037800029F4191604F710926E05DDCF8A3D19F45D
:1037900097FFD9CFF8CF8B3D29F427FFD4CF1092D4
:1037A0006F05D1CF8C3D19F41216CCF3CCCF9FE22C
:1037B000980F983090F4815D990B21E030E0B901C9
:1037C00002C0660F771F8A95E2F7CB018095909132
:1037D0006B05892380936B05B6CF8D3D31F48091C5
:1037E00065058E7F80936505AECF8E3D21F4809177
:1037F00065058D7FF7CF8F3D09F0A5CF80916505D9
:103800008B7FF0CF882381F19CEF980F913A28F4B9
:103810000E9430080E947810089590E2980F983026
:1038200050F4877091E001C0990F8A95EAF7892FCB
:103830000E940D0EEFCF9BE5980F933028F490E097
:1038400080E00E94B408089598E5980F9B3128F411
:1038500090E080E00E948F08089593E3980F9331E1
:1038600018F460E00E941E1B0895FF920F931F93AF
:10387000CF93DF93F82E0091610510916205011539
:10388000110509F449C01092600510925F0510926D
:103890005C0510925D05D8011796CD91DC919E01D3
:1038A0003A9521153F4108F4D07ED1E0C11101C005
:1038B000D0E0D8011A96ED91FC911B97309731F02A
:1038C0001C966D917C9180E00995D823DD2339F019
:1038D0008CEF8C0F813A30F58C2F0E943008FF203E
:1038E00099F0E0916105F0916205818584FD0CC03D
:1038F00080915E05882341F0808191819C01215057
:1039000031092F333E47A0F00E94781010926205D3
:103910001092610510925E05C801CDB7DEB7E5E0F3
:103920000C94A4310E9478108C2F0E94021CD7CFD7
:103930000E944009E9CFCF93C82F8823B1F18CEFC3
:103940008C0F813AA0F580915D01882301F180916F
:10395000780587FF1CC0EC2FE695E695E695F0E02C
:10396000EC5AFC4F828190E04C2F477021E030E010
:1039700002C0220F331F4A95E2F782239323892B3B
:1039800079F08C2F0E9430080E94781009C0EEE474
:10399000F3E08191C817A9F383E0E435F807C9F78C
:1039A0008C2F0E945B080E947810CF91089580E2CE
:1039B0008C0F883068F4C77021E030E001C0220F1E
:1039C000CA95EAF78091C203822B8093C203EBCFA2
:1039D000EBE5EC0FE33040F4F0E0EE5DFD4F80816D
:1039E00090E00E94B408E1CFE8E5EC0FEB3150F431
:1039F000F0E0EE0FFF1FEB5DFD4F808191810E9493
:103A00008F08D3CF83E38C0F833178F661E08C2F5E
:103A10000E941E1BCACF0F931F93CF93DF93C62F15
:103A2000D42F022FFC0185818823A9F06093D20551
:103A30000E94AF179093D1058093D005C77081E0A5
:103A400001C0880FCA95EAF70E94DB10DF91CF9181
:103A50001F910F9108958091D205681335C0809110
:103A6000D0059091D1050E94A0178F3A910560F57D
:103A700010E21D0FCD17B9F080E28C0F883040F4B2
:103A8000C77081E001C0880FCA95EAF70E94D41080
:103A9000183048F481E09D2F977001C0880F9A95E7
:103AA000EAF70E94DB10802F0E949B1C802F0E944F
:103AB000021C183058F6D77081E001C0880FDA95E3
:103AC000EAF70E94D410C2CFC77081E001C0880F0E
:103AD000CA95EAF7F6CFA3E0B0E0E1E7FDE10C9488
:103AE0007B318C01DC0114968C911497882309F4A6
:103AF0007DC021E04C9111965C91119712966C91CA
:103B0000129713967C91139715969C910E945C0FC7
:103B10009B838A83F8013580332009F46BC081814F
:103B20008093270480818093260480E28093500153
:103B30002A813B813093250420932404C9019052AB
:103B40008115904230F48681807FB9F0EA81FB8153
:103B50000BC08A819B8190548115904128F5868104
:103B6000807FEA81FB818111FF27ED33F10528F485
:103B7000E455FF4FE491E0935001EA81FB81EE357B
:103B80002CE7F20701F1EF353CE7F30739F0ED35AB
:103B9000FC4781F580911A018823A9F010921A013F
:103BA00080E00E94351C12C08A819B819A95811504
:103BB0009F4160F28A819B81805A92458097E8F20A
:103BC000EA81FB81D2CF81E080931A018091970333
:103BD000877061F0D80115968C91882339F0809117
:103BE000790582FF03C082E00E940D0F2396E2E177
:103BF0000C94973180911A01882309F4C0C48A80FB
:103C00009B8050EE851A910820909803809177034D
:103C1000282A8091C203282A68E08616910408F0B9
:103C200088C02A813B812770332781E090E001C062
:103C3000880F2A95EAF7332009F478C0282AD8019A
:103C40008D919C910E948D0E21E030E0290102C0EF
:103C5000440C551C8A95E2F76090610570906205EE
:103C6000A0907403B09075031982B981EB2FF0E036
:103C7000EE0FFF1FE050FF4FE080F180E114F104F0
:103C800009F4A1C4211004C0F701828181118DC003
:103C9000D70113968D919C91149784219521892B9E
:103CA00009F483C019968C91982F977009F487E0D6
:103CB000B8E08B16910408F058C0332009F451C0C5
:103CC00086958170882309F470C0F701C080D18087
:103CD0002A813B812C153D0519F4332009F465C078
:103CE000E614F70409F461C0D7011E96ED91FC912A
:103CF000309721F08081882309F457C0622DC701D5
:103D00000E948609882309F450C0EA81FB81EC15E2
:103D1000FD0509F0ACC4EF2B09F4AEC43110AEC4FC
:103D2000CA14DB0409F041C0312CA8C480952822B4
:103D300086CF332009F42EC48A819B81909375032A
:103D4000809374030E94240860935805709359056A
:103D500080935A0590935B051092600510925F0561
:103D60006ECF82FB882780F9ADCF3320F1F08170D0
:103D7000A9CF0E94021CA1C40497813A910548F47E
:103D80008C2D0E945B08332009F4F9C30E9478103F
:103D90001DCF0E9478108FE39CE90197F1F700C0D6
:103DA00000008C2D0E949B1CEECF99819F5F998310
:103DB0005CCFFC01208131814A815B81421753072E
:103DC00009F0D6C33110D6C310925E0580E00E9480
:103DD000351CD5C326E241EE61EEC8010E940B1DE1
:103DE000F5CE27E245EE65EEF8CF26E241EE60EE35
:103DF000F4CF27E245EE64EEF0CF26E241EE62EE2C
:103E0000ECCF27E245EE66EEE8CF28E241E0EBCFCB
:103E10008091780581608093780595C080917905BF
:103E20008860809379058FC0809178058260F3CF98
:103E3000809178058460EFCF809178058860EBCF22
:103E4000809179058160EDCF809179058260E9CF1D
:103E5000809178058061DFCF809178058062DBCF2B
:103E6000809178058064D7CF0E94E2178091780511
:103E70008068D1CF809178058C60CDCF8091790515
:103E80008360CFCF809178058E7FC5CF80917905F3
:103E9000877FC7CF809178058D7FBDCF80917805D2
:103EA0008B7FB9CF80917805877FB5CF80917905D9
:103EB0008E7FB7CF809179058D7FB3CF80917805C4
:103EC0008F7EA9CF809178058F7DA5CF80917805D1
:103ED0008F7BA1CF0E94E217809178058F779BCFCF
:103EE00080917805837F97CF809179058C7F99CFDA
:103EF0008091780582FB992790F921E0922790FB29
:103F000082F990FB83F987CF80917905982F90955E
:103F100091708E7F892B90FB81F983CF90917805EA
:103F2000892F8F7B96FF806476CF0E94E217909155
:103F30007805892F97FB87F980586DCF61E08EE077
:103F400090E00E944732609178057091790584E095
:103F500090E00E9465320E94E21738CE60E0EFCF19
:103F600090917805892F8F7E94FF806154CF909136
:103F70007805892F8E7F90FF81604DCF90917905D4
:103F8000892F877F93FF88604CCF85E35FC385E3EC
:103F90006BC38091D40591E089278093D40510925A
:103FA0005E018091D30581608093D3050FCE4FE3EE
:103FB0005AE069E47AE00E94A60908CE49E45AE092
:103FC0006FE37AE0F8CF4BE25AE065E37AE0F3CFB3
:103FD00045E35AE06BE27AE0EECF41E15AE06EE170
:103FE0007AE0E9CF4EE15AE061E17AE0E4CF47EFD1
:103FF00059E064E07AE0DFCF44E05AE067EF79E02F
:10400000DACF4BED59E069EE79E0D5CF49EE59E0D2
:104010006BED79E0D0CF81E00E944906D7CD83E0F7
:10402000FBCF0E94E217FFEF24E33CE0F150204079
:104030003040E1F700C0000087E797E79093010860
:104040008093000888E19AE00FB6F894A8958093D1
:1040500060000FBE90936000FFCF6FEF7FEF90E0A6
:1040600080E00E9465320E94081B8091790582FBE6
:10407000882780F991E089270E941C15F801858125
:10408000208131813B832A83882309F452C0C901EE
:104090000E944C0EF82E682F8A819B810E94C00ED0
:1040A0006A817B818F2D0E94D00C0E94EF0C8A8345
:1040B0009983A82ED8011596CC9015971696BC908A
:1040C000B2943FE0B32280919703877009F1EC2C02
:1040D000CC20F9F0892F807F803469F08A2D805EB2
:1040E0008830B0F0892F807E803229F4B1E0BA1593
:1040F00078F4BB2069F08091790582FF09C082E0E5
:104100000E940D0F809197038770EE24E394811134
:10411000E12CD980D2942FE0D222EBE0ED1508F407
:1041200071C0ED2DF0E0E258FD4C0C94F43180E0CC
:10413000A3CF8A819B810E948D0EF82EB1CFF98189
:10414000FF70FF2E2981207F19F0F29490EFF92261
:10415000CC20B9F0FF2069F08A81805E883010F0B1
:10416000A11009C08091C203F82AF092C2030E94F4
:1041700078108A8145C080919903F82AF0929903BA
:10418000F6CF8A810E94021CFF20E1F13A81305E65
:10419000383010F0A11004C08F2D0E940D0E06C003
:1041A000F09480919903F822F09299030E9478107C
:1041B00029C049814F70F42E5981507F503219F037
:1041C000F29480EFF822AA2059F061E0A61609F4D3
:1041D0007AC0CC2009F486C0BB2009F448C0C9CFFE
:1041E0008091790582FD3FC0CC20B9F1FF2039F0E4
:1041F0008091C203F82AF092C2030E94781080E0F6
:104200000E949B1C4D2D4850550B4430510510F415
:104210000E94D908EE20B1F08091970380FD12C072
:10422000D80115961C928695869586950E94240F36
:10423000C8010E946B1D809197038695869586958F
:104240000E94FB0E20E0F801408151816281738160
:10425000848195810E945C0FC9CC80E00E94021C81
:10426000FF2081F299CFCC20A1F0B11004C08F2D96
:104270000E94DB10C7CF81E0B812C4CF80919803B1
:104280009F2D9823F91609F4BDCFF82AF0929803D0
:10429000B9CFB110B7CF8F2D0E94D4109091980351
:1042A0008F2D892329F08F2D809589238093980362
:1042B000809177039F2D982309F4A4CFF094F822DE
:1042C000F09277039FCFCC2029F095E09B1508F45E
:1042D00099CFCDCFA4E0AB1508F494CF8F2D0E94D9
:1042E000D41090CFBB20D1F3B9E3AB123AC1EFEFBA
:1042F000F7EE23E0E150F0402040E1F700C000007D
:1043000030C1898186958695837069F0813009F086
:1043100079CF8A8199819370C11002C080E090E0CA
:104320000E948F086FCF8A8199819370C11002C05B
:1043300080E090E00E94B40865CF6C2D8A810E94D5
:104340001E1B60CF8981837009F042C0C1105ACF13
:104350004A81429546954770440F440F2A812F7039
:1043600030E0042E02C0220F331F0A94E2F75A8174
:1043700090E080E054FF09C08FE090E002C0880F19
:10438000991F4A95E2F780959095698166956695A3
:1043900063706983623099F078F440910804509119
:1043A0000904613039F0822B932B842395230E94DA
:1043B000340F28CF242B352B822B932BF8CF822B35
:1043C000932B209108043091090482279327EFCF83
:1043D0008695CC2011F089818170882309F412CF51
:1043E0004A81429546954770440F440F2A812F70A9
:1043F00030E0042E02C0220F331F0A94E2F78A81B4
:1044000084FF1EC08FE090E002C0880F991F4A957C
:10441000E2F780959095A981A695A695A370A983AA
:10442000A230B1F090F440911B0450911C04A130D3
:1044300051F0822B932B842395230E94F60EE2CE1B
:1044400090E080E0E8CF242B352B822B932BF5CF07
:10445000822B932B20911B0430911C0482279327DD
:10446000ECCFB981BF70B983CC2029F08B2F0E948B
:10447000240F8A81FDCE8A810E94D41089810E94F6
:10448000FB0EC0CE8A81E2EFAE16A9F1EA1570F0FC
:10449000F0EFAF16D1F021EFA21691F0CC2009F485
:1044A0005BC0B11066CE89818F7129C033EFA3162E
:1044B00049F144EFA412F2CF9091790592FD33C0F7
:1044C00089818F71CC20D9F21AC0CC2079F054E0C8
:1044D0005B1508F497CE69816F71698381E090E084
:1044E00002C0880F991F6A95E2F7B4CF85E08B155B
:1044F00008F488CEF0CF89818F71C110C0CF0E949F
:10450000240F80CE90E080E0CC2009F496CF9981F2
:104510009F71998381E090E0098002C0880F991F04
:104520000A94E2F78ACFCC2061F089818F7192FFE3
:10453000E6CFA8E08A9F900111242360209397037F
:10454000DECF81E00E940D0FB1E0BB1508F05ACE1E
:1045500082E00E940D0F56CEBB2039F0893309F45A
:10456000C6CE8A810E94021C4DCE89818F7187CF71
:10457000332029F0DC0119968C9185FF27CCEA8144
:10458000FB81E851FC47E730F10580F5E657FD4C2B
:104590000C94F4318091740390917503EA81FB814E
:1045A000E817F90781F410927503109274031092C2
:1045B00058051092590510925A0510925B051092F9
:1045C000600510925F0580916105909162050097EA
:1045D000B1F2A8E08A16910408F0EBCB622D0E949C
:1045E00086098111CCCF81E00E94351CF8018581BC
:1045F000882379F11092D2058A819B819057839705
:10460000A0F484E090E00E94313290937905809389
:104610007805EA81FB81E150F047E232F10508F0CC
:10462000F7CBEF56FD4C0C94F4312A813B812631B7
:104630003C4709F084C08091C2038A7A91E009F472
:1046400090E0909376038111A0CC89E20E945B08F0
:104650009DCB8A819B8186319C4709F061C0809106
:104660007603811194CC89E20E9430088FCBC1146B
:10467000D10409F055CB312CD12CC12C80E00E9403
:10468000351CF0926205E092610581E080935E0541
:10469000D70116968C9180935C0531100EC0CD2801
:1046A00061F0D7018D919C919C0124503109213AF0
:1046B000310508F05ECB0E943008F701C780D08436
:1046C000C6019A9581159F4110F420EED222BB2499
:1046D000B394C60101978F339E4708F0B12CD701E0
:1046E0001A96ED91FC911B97309731F01C966D91C5
:1046F0007C9181E00995B822BB2079F0F701878190
:1047000090850E94810F80935D05C601F8E08F16A9
:10471000910408F031CB0E9440090E94781033CBFD
:104720008091C2038272EA81FB81E052F847E53151
:10473000F10508F0A3CCED54FD4C0C94F431EA8162
:10474000FB81E3302CE7F20709F487CC50F4E11544
:104750004CE7F40709F465CCE130FC4709F483CC5D
:104760008DCC8A819B818B35ACE79A0709F4DFCC2D
:104770008C35BCE79B0709F478CC8A359C4709F057
:104780007DCC81E079CCCF93DF9380919603807FBD
:1047900009F04DC080919503882309F448C0E09149
:1047A000CF0550919605C0919103D09190036091EF
:1047B00092037091930347E05E17C9F18E2F90E04A
:1047C000E49FF0011124E956FA4F2481222391F14C
:1047D000489FF001499FF00D1124DF01A956BA4FFF
:1047E00011962C9111972C1325C02C912D1322C0BA
:1047F00015962C91159721111DC012962D913C9163
:10480000261B370B2F3A3105A8F4809196038F7041
:10481000806180939603E356FA4F80818F708061A8
:10482000808380E993E00E946B1D0E94420EDF911D
:10483000CF910895FC013196E770BECFA4E1B0E0BE
:10484000E4E2F4E20C9481318C0186E0F801DE01AF
:104850001F9601900D928A95E1F7F8018481E58019
:1048600090E9A92E93E0B92E90919403911128C05C
:10487000882319F1EE20F1F0C8010E94390FF82EBB
:104880008823C1F087E0F801D50101900D928A9547
:10489000E1F780919403813031F4809190039091FD
:1048A00091030E94800E0E94C3238F2D6496ECE03A
:1048B0000C949D31C8010E946B1DFF24F394F5CF29
:1048C000D080C18082809380F090950320919203E4
:1048D00030919303A401421B530BFF2009F4D9C06C
:1048E0004F3A510508F092C08823F9F29091910354
:1048F00080919603282F207F09F056C0C91214C05A
:1049000090919003D91210C0E11048C08F7080615F
:104910008093960380E993E00E946B1D809196033B
:10492000F8018683F12CC1CFE11038C06C2D8D2D9C
:104930000E9462066C2D8D2D0E946206E82E811168
:10494000F1CFDF86C88A8F8598890E94800E292F33
:1049500022952F70243058F49F70223088F09923CC
:1049600099F0F8019681907F79F4FE2C9ECF2A5F12
:104970002F70223068F0C8010E946B1DEF2CF5CF1C
:10498000992311F0882389F3805E883070F3F3CF88
:10499000803F58F3815F833070F7E7CF80919603B3
:1049A000816080939603BECFC91207C09091900397
:1049B000D91203C0EE2009F48DC0C8010E94390F3E
:1049C000882309F477CFEE2009F474CF8091960301
:1049D000803288F0209190033091910339872887A5
:1049E0009B868A86909194039C871D868E87CE0134
:1049F00008960E946B1D87E0F801A0E9B3E00190E2
:104A00000D928A95E1F70E94C32357CF90919603A8
:104A1000292F207F51F480E993E00E946B1D87E0ED
:104A2000F50111928A95E9F77DCF882309F43DCFEE
:104A3000809191038C1110C080919003D8120CC00A
:104A4000E1100AC09683C8010E946B1D87E0F50142
:104A500011928A95E9F729CFC8010E94390F88235E
:104A600009F428CFEE2009F425CF809196038032F7
:104A700010F220919003309191033A8329839C8214
:104A80008B82909194039D831E828F83CE01019629
:104A9000B0CF4F3A5105D0F6882309F40ECFFE2C43
:104AA000EE2009F407CF809191038C1120C08091F2
:104AB0009003D8121CC08091960380FD0FC0982FE0
:104AC000907F61F08683903F31F0982F907F905FC8
:104AD0008F70892B8683C8010E946B1D87E0F801C7
:104AE000A0E9B3E001900D928A95E1F7DECEC8010E
:104AF0000E94390F81117FCF80919603816080934E
:104B00009603C8010E946B1DD0CEABE1B0E0EBE88C
:104B1000F5E20C9489314E8B5F8B688F798F8A8F89
:104B20009B8F192F9111109299031D8A86E0FE0127
:104B30007696DE011F9601900D928A95E1F70A8D17
:104B4000002341F021E04F85588969897A89C8019D
:104B50000E945C0F0B8B1C8B87E0FE013F96DE01F1
:104B6000189601900D928A95E1F7CE0108960E9461
:104B70001E2481110CC087E0FE013896DE011196DB
:104B800001900D928A95E1F78C8581110BC017E099
:104B90008091CF0590919605891331C06B96E4E022
:104BA0000C94A5312091960530E0C90101968770DB
:104BB00099274091CF054817190699F097E0929FE1
:104BC000D001939FB00D1124A956BA4FFE01319622
:104BD00001900D929A95E1F7809396050E94420EFE
:104BE000D6CF0E94E217109296051092CF0587E06B
:104BF000E0E9F3E0DF011D928A95E9F7C8CF819FD4
:104C0000C001112489569A4F0E941E24882331F234
:104C10008091CF0590E00196877099278093CF050A
:104C2000B7CFACE0B0E0E7E1F6E20C9480318E0162
:104C30000F5F1F4F88E0D8011D928A95E9F78DE537
:104C4000C82E82E0D82EF12CE12CAA24A394B12CFA
:104C500027E6822E22E0922EF60181916F018F3F8E
:104C600009F442C0F894E82FE295EF70F0E021A13A
:104C70008F70A50102C0440F551F8A95E2F7CA0143
:104C8000922F982B91A392A18095892382A3789447
:104C900000C0E1E6F2E0712C31E021912F3F09F4F0
:104CA000A3C0A22FA295AF70B0E090968C9190E037
:104CB0002F7002C0959587952A95E2F780FD94C0E4
:104CC000832F782A330F8E169F0639F7F601319716
:104CD00080818F3F11F00E94AE0B50EA5A95F1F798
:104CE000F801EE0DFF1D70828FEFE81AF80A94E0CC
:104CF000E916F10409F0B0CF48E050E0B8018EEFBA
:104D000093E00E940332009741F028E0F801AEEFF3
:104D1000B3E001900D922A95E1F70091070410E0AD
:104D2000065F1B4F892B09F461C081E08093C703A4
:104D30000E94AF179093C6038093C503F12CE090B7
:104D40007005EE2009F4ACC019861A861B861C86F5
:104D50008091F9038A3008F06DC04CE755E1BE013F
:104D6000675F7F4FC8010E947511882309F487C0CF
:104D700047E856E1BE01675F7F4FC8010E94751189
:104D8000882309F47CC043E355E1BE01675F7F4F90
:104D9000C8010E947511882309F471C04DE556E1E0
:104DA000BE01675F7F4FC8010E947511882309F417
:104DB00066C01092F9038091060490E044E050E050
:104DC000BE01675F7F4F865F9B4F0E94033221E0E9
:104DD0002093CE03892B09F044C0E12C8E2D8F291E
:104DE0002C96EDE00C949C3180E06BCFF090C703E3
:104DF000FF2009F4A3CF8091C5039091C6030E94C0
:104E0000A017059708F49ACF44E050E06EEF73E0E6
:104E1000C8010E940332892B59F084E0EEEFF3E0E1
:104E2000D80101900D928A95E1F71092C70387CFC0
:104E3000F12CFBCF8091C8039091C9030E94A01769
:104E4000843F914008F089CF8091CE03882329F2D6
:104E5000FE01399684E0DF011D928A95E9F71092F0
:104E6000CE03E0910604F0E0E65FFB4F89859A856A
:104E7000AB85BC8580839183A283B383AFCF8091C0
:104E8000F9038F3F31F08F5F8093F9038A3008F484
:104E900092CF0E94AF179093C9038093C803D4CFD9
:104EA000C0900604D12CF601E65FFB4F6F0184E051
:104EB000F801ACEDB3E001900D928A95E1F78CED2D
:104EC00093E00E9481068093DB0384E0E0EEF3E050
:104ED000D60101900D928A95E1F78090E4039090BD
:104EE000E503A090E603B090E7038091CA03909198
:104EF000CB03A091CC03B091CD0388169906AA06E6
:104F0000BB06B1F08092CA039092CB03A092CC036F
:104F1000B092CD030E942408861A970AA80AB90AFB
:104F20008092FA039092FB03A092FC03B092FD03DF
:104F300088E0E8EEF3E0A4EDB5E001900D928A95EB
:104F4000E1F74CCFA6E0B0E0E8EAF7E20C94893153
:104F50000E94AF178C018091C3039091C403801706
:104F6000910781F019821A820E94AF17682F498138
:104F70005A81792F80E090E00E9485251093C40328
:104F80000093C3032696E4E00C94A5311F921FB64C
:104F90001F9211248F939F93AF93BF9380917A05B3
:104FA000811113C080917B0590917C05A0917D05B6
:104FB000B0917E054196A11DB11D80937B05909314
:104FC0007C05A0937D05B0937E05BF91AF919F9125
:104FD0008F911F901FBE1F901895CDB7DEB76297B7
:104FE0000FB6F894DEBF0FBECDBF85B7806885BF12
:104FF00085B7806885BF84B7877F84BF0FB6F89474
:10500000A895809160008861809360001092600094
:105010000FBE80E890E00FB6F89480936100909303
:1050200061000FBE8CEA9BE090934B0380934A0390
:105030000E94AB060E944C078091E200846080933E
:10504000E200789480918C058823A1F01091E9000A
:105050001F709091EC00892F817090FD80E8182BD3
:105060001092E9008091E80083FD0E9413181F70E0
:105070001093E90082E084BD93E095BD9AEF97BD5F
:1050800080936E001092FA031092FB031092FC03BF
:105090001092FD038091D80080618093D8002AE1AE
:1050A0002A95F1F700C08091D900182F117080FD6A
:1050B00004C00E94AB0610928C05109370051093EB
:1050C00071051093430111110E9405308091430135
:1050D0008091430194E0811190E09093070484E073
:1050E000891B8093060484E90E94AE0B86E60E9429
:1050F000AE0B87E90E94AE0B86EC0E94AE0B01E678
:1051000012E057E6E52E52E0F52ED8018D918D0183
:105110008F3F11F00E94AE0BE016F106B1F788E068
:10512000EAE0F4E0DF01782E1D927A94E9F7EEEFE1
:10513000F3E0DF011D928A95E9F790E080E00E949C
:105140003132853E9E4F09F461C065EE7EEF90E0FE
:1051500080E00E94653260E082E090E00E94473289
:1051600081E090E0909309048093080461E083E07B
:1051700090E00E94473260E074E184E090E00E9499
:10518000653260E086E090E00E94473260E087E0B0
:1051900090E00E94473240E050E0BA0188E090E0A1
:1051A0000E94593260E083E290E00E94473260E062
:1051B0008CE090E00E94473260E08DE090E00E9439
:1051C000473219821A821B821C821D821E821F8214
:1051D000188648E050E067E170E0CE0101960E9439
:1051E000373240E050E0BA018FE190E00E9459323E
:1051F00040E050E0BA018FE090E00E94593240E078
:1052000050E0BA0183E190E00E94593282E090E0E0
:105210000E9429328093120484E090E00E9431328F
:10522000909379058093780583E090E00E9429327D
:1052300090E00E94340F0E94D70910927A048FEFF9
:105240009FEF90939404809393049093960480939B
:105250009504909398048093970490939A04809374
:10526000990490939C0480939B0490939E04809354
:105270009D049093A00480939F049093A204809334
:10528000A10410924D049093670480936604909358
:1052900069048093680490936B0480936A049093EC
:1052A0006D0480936C0490936F0480936E049093CC
:1052B00071048093700490937304809372049093AC
:1052C00075048093740481E08093D30548E050E036
:1052D00067E170E084ED95E00E9419321092D305E9
:1052E0008091D4058C7FF9F485E08093D40580917A
:1052F0005F0190916001A09161018093D505909329
:10530000D605A093D7058FE78093D8058FEF8093BC
:10531000D90548E050E067E170E084ED95E00E9437
:1053200037321092D30580917005811119C182E046
:105330008093480480E88093DC050E94A32E6BE0F4
:1053400070E08FEF93E00E94A8118823E9F180912B
:10535000480465E070E081FD05C18AEF93E00E949A
:10536000A811882389F16DE070E088EE93E00E9437
:10537000A811882349F10E942408605A75418F4F73
:105380009F4F60934A0570934B0580934C05909313
:105390004D05EFEDF5E080E092E0DF019C011D920C
:1053A00021503040E1F7F093E607E093E5078FEFF7
:1053B0009FEF9093DE058093DD0581E080934F059C
:1053C00080934E051092490480917005811102C0AE
:1053D0000E94083084E491E09093750580937405F1
:1053E00080918C0500E112E1853009F4F9C00E943A
:1053F000112643E1442E44E0542EEAE0F4E0F88B19
:10540000EF872BE134E0DF01F20191918D912E17AE
:105410003F0709F4EFC09817C1F3709070057A8ABE
:1054200037E7C32E32E0D32EA12CAF85B8899D90EB
:10543000B88BAF87F20161902F01691409F484C021
:1054400069241601812C77247394862D872109F411
:1054500070C0B92CB720FA89FF23A1F08986AA86EB
:105460000E94AF179C878B8721E02D8791E0B110B8
:1054700001C090E09E8749855A856B857C858D8526
:105480000E948525BB2041F0D1018C91B12C8F3F2A
:1054900019F0898BBB24B3940B2D10E080914D043F
:1054A000800F912F911D09976CF188E0E82EF12C67
:1054B000E01AF10AB801625B7B4FA7018EE494E029
:1054C0000E941032B8016A5A7B4FA70186E594E02A
:1054D0000E941032A701440F551FB801660F771FB5
:1054E0006A597B4F86E694E00E941032B801625AF6
:1054F0007B4FA7018EE594E00E94103288E08B1963
:1055000080934D0480914D0490E0E989AE2FB0E086
:105510009D01220F331F29553D4FAA0FBB1FBD010F
:1055200068557D4F41E0480F9B1508F402C18093F8
:105530004D048394770CEFEF2E1A3E0AF6E08F129B
:1055400084CFF20131979082A39426E0C20ED11C41
:1055500038E0A3126ACF0E94C50BDD24D3944FC05C
:1055600080E0E6CE85EF93E0FACE80918C05843022
:1055700041F10E94F8110E94B51110927A0588E15C
:1055800090E0A0E40FB6F894A895809360000FBE59
:10559000A093600083B7817F846083BF83B78160FD
:1055A00083BF7894889583B78E7F83BF0FB6F894B6
:1055B000A8958091600088618093600010926000DF
:1055C0000FBE80918B05882359F00E941126EAE0D6
:1055D000F4E08191811142C3B4E0E231FB07C9F7E5
:1055E00080918C05853009F4C0CF0E94E2170E949B
:1055F000D908FDCE981311CF0E94A227D12C8091FB
:105600007005882309F441C000915F051091600581
:1056100001151105D1F160915405709155058091E6
:105620005605909157050E9408088090500590906B
:105630005105A0905205B0905305681579058A056B
:105640009B0518F1C8010E94810F9801205E310965
:105650002830310508F083C00E94DB10802F0E94A3
:105660009B1C1092600510925F05109254051092D9
:10567000550510925605109257051092500510923C
:10568000510510925205109253050E94F811809115
:105690004F05882309F4C7C080914A0490914B04B8
:1056A0000E94A017C29708F49EC00E94AF17909363
:1056B0004B0480934A048FED95E09093E607809326
:1056C000E50780917005882309F4E0C185E594E041
:1056D0000E94321080911B0490911C04292F3327C3
:1056E000E0E02115310511F0C901E8E09C0174E00A
:1056F000369527957A95E1F72115310511F0EC5F84
:10570000C9019C01369527953695279521153105B8
:1057100011F0EE5FC90196958795892B09F0EF5F2F
:105720008AE094E0E83000F5F0E0E853FD4C0C949A
:10573000F43190E0FC01E35BFB4FD9015C915183B4
:10574000DB015C915187B989B18B880F991FFC01EE
:10575000E35BFB4F128E118E91E0842FE3CE0E940B
:10576000CA107CCF8DE494E00E94721080912704CF
:10577000805D0E94B20F83E694E00E943210809117
:105780002604805D0E94B20F8FE594E00E943210E3
:10579000809024049090250480914E0190914F01B7
:1057A0008816990609F036C180912304803209F0E9
:1057B00031C1EDE1F4E08F0181918032E1F3F80134
:1057C00001900020E9F79F012150310979010E1560
:1057D0001F0508F455C18DE594E00E9432108091B8
:1057E00050010E94B20F8091DD059091DE05892B5A
:1057F00009F051C180914E058823A9F00E94240828
:1058000000914A0510914B0520914C0530914D05B2
:10581000601B710B820B930B6F3F7F4F8F4F9F4726
:1058200010F40E94B511D1100E94D01186E0EAE672
:10583000F5E0DE01119601900D928A95E1F7D09086
:105840006B05F0906C0500916D05E0906E05109170
:105850006F0510926C0510926D0510926E051092F6
:105860006F05802F8F2909F445C0809168059091BC
:1058700069050E94A0179C0190916305992309F482
:105880000CC221313105B0F19F3F19F09F5F909319
:105890006305FF2059F00E940C099FEF1F140CF4C0
:1058A00091E0899F802D112480936C05002359F08D
:1058B0000E940C0991E010160CF09FEF899F802D3B
:1058C000112480936D0580916C05882399F0C09018
:1058D0006D05CC2079F00E943209882309F4B6C105
:1058E00080936C058C2D0E943209882309F4B0C185
:1058F00080936D05812F8E2909F445C0809166053E
:10590000909167050E94A0179C01909164059923CE
:1059100009F4BFC121353105B0F19F3F19F09F5FF8
:1059200090936405EE2059F00E94EA089FEF1E1440
:105930000CF491E0899F802D112480936E05112332
:1059400059F00E94EA0891E011160CF09FEF899F30
:10595000802D112480936F0580916E05882399F026
:10596000E0906F05EE2079F00E943209882309F457
:1059700071C180936E058E2D0E943209882309F42F
:105980006BC180936F0580916B05D81217C0809111
:105990006C05882311F0F81211C020916D052223A7
:1059A00011F002130BC090916F05992311F0191398
:1059B00005C030916E05332309F466C10E94BB1700
:1059C00086E0FE013196AAE6B5E001900D928A9537
:1059D000E1F70E94D90890914C04891709F400CD91
:1059E00080934C040E942408FBCC86E494E0BCCE57
:1059F0008EE394E0B9CE83E394E0B6CE88E294E0FF
:105A0000B3CE8EE194E0B0CE86E194E0ADCE80E1FD
:105A100094E0AACE90924F0180924E0180E2809352
:105A20002304B12CA12C109222040DE114E0C50135
:105A3000B4012AE030E040E050E00E94D231605DE5
:105A4000603321F454E00D31150731F081149104D5
:105A5000A104B10409F460E2D80114966C93C50165
:105A6000B4012AE030E040E050E00E94D231490128
:105A70005A0101501109B4E008311B07C1F699CE53
:105A8000D8018D918D010E94B20FA1CE85E694E0E0
:105A90000E943210A8CE80914F05882309F4AACE27
:105AA000809149048111A6CE0E94D0112091DD057C
:105AB0003091DE052115310509F49CCE80E041E0EE
:105AC00050E0082F10E07A01082E02C0EE0CFF1CF7
:105AD0000A94E2F7B70162237323672B11F48F5FF7
