:100000000C94FA050C9417060C9417060C94743192
:100010000C9417060C9417060C9417060C941706EC
:100020000C9417060C9417060C942A2E0C94122F7D
:100030000C9425160C9417060C9417060C941706AE
:100040000C9417060C9417060C9417060C941706BC
:100050000C9417060C94062E0C9417060C94170695
:100060000C9417060C9417060C9417060C9417069C
:100070000C9417060C9417060C9417060C9417068C
:100080000C9417060C9417060C9417060C9417067C
:100090000C9417060C9417060C9417060C9417066C
:1000A0000C9417060C9417060C94170600AF00AEBC
:1000B0000000000000003E5B4F5B3E003E6B4F6B5C
:1000C0003E001C3E7C3E1C00183C7E3C18001C5729
:1000D0007D571C001C5E7F5E1C0000183C18000051
:1000E000FFE7C3E7FF00001824180000FFE7DBE785
:1000F000FF0030483A060E00262979292600407F65
:1001000005050700407F05253F005A3CE73C5A00A3
:100110007F3E1C1C0800081C1C3E7F0014227F220E
:1001200014005F5F005F5F0006097F017F000066CB
:1001300089956A0060606060600094A2FFA29400EC
:1001400008047E04080010207E20100008082A1CE5
:100150000800081C2A0808001E10101010000C1EB1
:100160000C1E0C0030383E383000060E3E0E0600E5
:1001700000000000000000005F0000000007000712
:100180000000147F147F1400242A7F2A12002313F6
:10019000086462003649562050000008070300003A
:1001A000001C224100000041221C00002A1C7F1C70
:1001B0002A0008083E080800008070300000080887
:1001C0000808080000006060000020100804020019
:1001D0003E5149453E0000427F4000007249494976
:1001E00046002141494D33001814127F1000274565
:1001F000454539003C4A4949310041211109070070
:10020000364949493600464949291E000000140074
:1002100000000040340000000008142241001414C3
:1002200014141400004122140800020159090600A8
:100230003E415D594E007C1211127C007F494949B4
:1002400036003E41414122007F4141413E007F490D
:10025000494941007F09090901003E4141517300AC
:100260007F0808087F0000417F4100002040413F97
:1002700001007F08142241007F40404040007F027F
:100280001C027F007F0408107F003E4141413E0078
:100290007F09090906003E4151215E007F091929A5
:1002A000460026494949320003017F0103003F40CF
:1002B00040403F001F2040201F003F4038403F008B
:1002C0006314081463000304780403006159494D62
:1002D0004300007F4141410002040810200000411A
:1002E00041417F00040201020400404040404000C0
:1002F0000003070800002054547840007F2844443D
:100300003800384444442800384444287F00385496
:100310005454180000087E0902001824241C780098
:100320007F080404780000447D4000002040403DE8
:1003300000007F102844000000417F4000007C0442
:10034000780478007C080404780038444444380079
:100350007C1824241800182424187C007C08040429
:10036000080048545454240004043F4424003C40F2
:1003700040207C001C2040201C003C4030403C00C1
:100380004428102844004C9090907C004464544CC5
:1003900044000008364100000000770000000041E2
:1003A000360800000201020402003C2623263C001D
:1003B000000000000000000000000000000000003D
:1003C000C0E0F0F8F81800C0F0FCFEFFFFFFFFFFF0
:1003D000FFFF7E00000000000000000080C0E0E0A1
:1003E000E0E0E0E0E0E0C0800000000080C0E0E08D
:1003F000E0E0E0E0E0E0C080000000E0E0C0C0E05D
:10040000E0E0E00000E0E0C0C0E0E0E0E0E0C0806C
:100410000000000080C0E0E0E0E0E0E0E0E0C0805C
:100420000000000000000000000000000000E0F0FC
:10043000F0F0E0ECEEF7F37020007C7C7C7E007E38
:100440007E7E7F7F7F000080C0E07E5B4F5BFEC0D2
:100450000000C000DCD7DEDEDED7DC00C00000001C
:10046000000000000000000000000000000000008C
:10047000000000000000000000F8FCFEFFE000FFAC
:10048000FFFFFFFFFF80FFFFFFFFFFFFFFFFFF1FDB
:100490000701000000000000000000FFFFFF8100D6
:1004A000000000000081C3C3C30000FFFFFF810004
:1004B000000000000081FFFFFF0000FFFFFF0100C0
:1004C0000000000000FFFFFF010000000001FFFF2F
:1004D000FF0000FFFFFF9D1C1C1C1C1C1C9DDFDF80
:1004E000DF000000000000000000000000000F1FFF
:1004F0003F7F7F7F7F7F3F1E0C001F1F1F3F003FFE
:100500003F3F7F7F7F00307B7F7830202030787FB7
:100510003B0003000F7F0F0F0F7F0F000300000051
:1005200000000000000000000000000000000000CB
:10053000000000000000000000030F1F3F3F3F3F8E
:100540001F1F3F3F7F7F7F3F3F1F3F7F7F7F7F7C1E
:100550007878381C0F000000000000000103070736
:10056000070707070707030100000000010307074B
:100570000707070707070301000000070707000038
:100580000000000000070707000000000000070748
:100590000700000001030707070707070707030114
:1005A000000000000000000000000000000000004B
:1005B000000000000000000000000000000000003B
:1005C000000000000000000000000000000000002B
:1005D000000000000000000000000000000000001B
:1005E000000000000000000000000000000000000B
:1005F00005010902A10185020901A10005091901EE
:1006000029081500250195087501810205010930A9
:1006100009311581257F95027508810609381581F4
:10062000257F950175088106050C0A38021581257C
:100630007F950175088106C0C005010980A101856B
:100640000319012AB700150126B70095017510811D
:1006500000C0050C0901A101850419012AA0021599
:100660000126A002950175108100C005010906A1AF
:10067000018506050719E029E7150025019508758C
:100680000181020507190029EF1500250195F07574
:100690000181020508190129059505750191029549
:1006A0000175039101C005010906A101050719E0C3
:1006B00029E7150025019508750181029501750846
:1006C00081010507190029FF150026FF0095067511
:1006D00008810005081901290515002501950575F2
:1006E000019102950175039101C009023B000201CD
:1006F00000A0FA0904000001030101000921110111
:1007000000012244000705810308000109040100DB
:10071000010300000009211101000122B6000705B4
:10072000820320000112010002000000085346016C
:10073000000100010200010C0343006F0072006E13
:100740000065000000100366006F006F0073007406
:100750000061006E000000040309040001010101B2
:10076000010101010102020202020202020203036C
:10077000030303030303040404040404040505053C
:1007800005050606060606070707070708080808FE
:10079000090909090A0A0A0B0B0B0C0C0C0D0D0DAB
:1007A0000E0E0E0F0F0F1010111111121213131441
:1007B00014151516161717181819191A1A1B1B1CB9
:1007C0001D1D1E1E1F202021222223242425262613
:1007D000272829292A2B2C2D2D2E2F303132323348
:1007E0003435363738393A3B3C3D3E3F4041424351
:1007F0004445464748494A4C4D4E4F505153545535
:100800005658595A5B5D5E5F616264656668696BE4
:100810006C6D6F7072737577787A7B7D7E80828362
:100820008587888A8C8E8F91939596989A9C9EA0A6
:10083000A2A3A5A7A9ABADAFB1B3B5B7BABCBEC0B3
:10084000C2C4C6C9CBCDCFD1D4D6D8DBDDDFE2E47C
:10085000E7E9EBEEF0F3F5F8FAFDFF00DA0281FFCD
:10086000D9F1DB20A4A62EAF00A0C0D30000A1C800
:10087000D30000AED580A81F408D14200080818257
:10088000838485868788898A8B8C8D8E8F909192C0
:100890009394A0A1A2A3A4A5A6A7A8A9AAABACAD16
:1008A000AEAFB0B1B2B3B4C0C1C2C3C4C5C6C7C88D
:1008B000C9CACBCCCDCECFD0D1D2D3D4003A002C24
:1008C000206B007800556E646566004D4F555345AA
:1008D0000053594D424F4C530046554E4354494FD7
:1008E0004E5300544F47474C45204E4156004E4111
:1008F0005649474154494F4E004E554D424552537B
:100900000051574552545900434F4C454D414B00FF
:100910004C617965723A20002E0214001A00090019
:1009200013000500292104001500160017000A0015
:10093000E1001D001B000600070019000000000078
:1009400000002B442C4328422F0033001C001800C9
:100950000F000D00343112000C00080011001000CF
:1009600032325400370036000B000E000000000049
:10097000000023522A454C462B0014001A000800A0
:1009800015001700292104001600070009000A00BD
:10099000E1001D001B00060019000500000000001A
:1009A00000002B442C0028422F00130012000C00E2
:1009B00018001C00343133000F000E000D000B0036
:1009C00032325400370036001000110000000000E1
:1009D000000023522A454C462B001E001F00200019
:1009E000210022006252E300E200E000E100000783
:1009F000E1001D011B0106010701000F00000000BE
:100A0000000024522C43280038002700260025002F
:100A1000240023002D00360223002200210036008E
:100A20001F02370220001F001E00370000000000D8
:100A300000003843274527022B001E021F1409011E
:100A400013010505E000A852A452A152A2521701B9
:100A5000E1001D011B010601070119010000000052
:100A6000000039006652625238002E004D004B00E3
:100A70004E004A002D0036024F0052005100500037
:100A80001F0237020000A900AA00000000000000B9
:100A900000003800380227020000000000000000BB
:100AA000000020780000E300E200E000E1000052D6
:100AB0000000237825782778217801520000000073
:100AC000000000000000000038002E00420041003D
:100AD000400045002D0036023F003E003D0044002E
:100AE0001F0254003C003B003A004300000000009D
:100AF000000039002A004C0030141E021F14251477
:100B0000261420023000230221142502260222028C
:100B10002D146414300264006402320200000000EC
:100B200000002B002C002800000000000000000046
:100B300000000000E400A852A452A152A2520000FA
:100B4000E5000000000000000000000000000000C0
:100B500000000000000000002B0000000000CD009D
:100B60000000D9006652DB00CF00CE00D000DC00D0
:100B700000000000000000000000DA00000000009B
:100B80000000D300D100D200000000002B014F0470
:100B900050042B03E400E3004F2452315132500043
:100BA000DF00DE00DD00D200D100D3000000000035
:100BB000000000000000000020202020616263642B
:100BC00065666768696A6B6C6D6E6F70717273745D
:100BD00075767778797A313233343536373839303B
:100BE000524542545F2D3D5B5D5C233B27602C2EBC
:100BF0002F20202011241FBECFEFDAE0DEBFCDBFB3
:100C000013E0A0E0B1E0EAE2F8E602C005900D9240
:100C1000A633B107D9F727E0A6E3B3E001C01D92E0
:100C2000A43DB207E1F70E944A270C949A330C9432
:100C300000009C019A9581159F4118F5F901EE2756
:100C4000F270832F8170B90166277470A90144275F
:100C5000587034FF0CC08295807FEF2B09F08062C2
:100C6000672B09F08064452B69F080680895EF2BAD
:100C700009F08260672B09F08460452B19F08860C9
:100C8000089580E0089590938807809387070895DA
:100C900090938A0780938907089521E030E002C08D
:100CA000220F331F8A95E2F78091890790918A0776
:100CB000822B932B0E944806089521E030E002C069
:100CC000220F331F8A95E2F720953095809189078E
:100CD00090918A07822393230E94480608959830B2
:100CE00098F5863088F5E82FF0E086E0989FE00DD3
:100CF000F11D11248E2F877041E001C0440F8A95A9
:100D0000EAF783E0F695E7958A95E1F7EE0FFF1F86
:100D1000EE0FFF1FE95BF84F20E030E070E05191EB
:100D2000DF011197CB01022E02C0969587950A9498
:100D3000E2F7817081958527842385278C932F5F27
:100D40003F4F2430310559F70895983078F58630B3
:100D500068F5E82FF0E086E0989FE00DF11D112482
:100D60009E2F977083E0F695E7958A95E1F7EE0F51
:100D7000FF1FEE0FFF1FE95BF84F40E050E080E0FF
:100D8000219130E0092E02C0369527950A94E2F7AA
:100D900021703327042E01C0220F0A94EAF7822B18
:100DA0004F5F5F4F4430510559F7089580E0089533
:100DB0008091920790919107981301C008958F5FD9
:100DC0008770FACF90918C078095892380938C0748
:100DD000282F2770211111C0891779F09091D3071E
:100DE00092FF0BC08695869586950E945D061092AF
:100DF0008C0710928E0710928D070895982F90956A
:100E000080918507892380938507089580918407C1
:100E1000882331F0109284071092900710928F0768
:100E200008957830B8F46630A8F48730B0F4E62F2F
:100E3000F0E096E0799FE00DF11D112490E3899F89
:100E4000E00DF11D1124EE0FFF1FE85EF64F8591B6
:100E50009491089580E090E0089581E0FCCF803E79
:100E60009105D1F1C8F48133910509F47FC048F4AC
:100E70008932910509F46FC08A32910509F47DC069
:100E8000089589339105E1F082389105C9F08533E1
:100E9000910509F45BC00895843E9105D1F148F4B1
:100EA000823E910531F1833E910541F181EE90E062
:100EB0000895863E9105C1F1873E9105E1F10895BF
:100EC0002091D2072370211165C02091D30723FF01
:100ED00014C089E290E008952091D20720FD43C01C
:100EE0003091D30730FF09C024FF4EC080E090E06E
:100EF00008952091D20722FDF7CF08952091D207BF
:100F000022FD45C03091D30730FD44C024FFF5CF0A
:100F1000EDCF2091D30721FFF0CF8091D20784FD40
:100F2000E5CF87EE90E008952091D20723FFE5CF2B
:100F300024FDDCCFF6CF2091D20723FD2EC03091C7
:100F4000D30731FFE3CF84EE90E008952091D207DC
:100F500025FFD3CFBECF2091D20725FD21C0209100
:100F6000D30723FFCACF89E390E008952091D207E9
:100F700026FFC3CF8AE290E008952091D20726FF92
:100F8000BCCF81E390E0089583EE90E0089582EE77
:100F900090E0089580EE90E0089586EE90E0089548
:100FA00085E390E0AACF9091D20792FF10C041E074
:100FB000282F2471243009F040E031E0282F2871D7
:100FC000283009F030E0431711F02CE0822793FF1E
:100FD00010C041E0282F2471243109F040E031E0B5
:100FE000282F2871283109F030E0431711F02CE048
:100FF00082273091D30730FF10C051E0282F217194
:10100000213009F050E041E0282F2871283009F004
:1010100040E0541711F029E0822731FF10C041E071
:10102000282F2171213109F040E031E0282F28716B
:10103000283109F030E0431711F029E0822794FDB0
:10104000877E08951F93CF93DF930E942F07EC01B3
:10105000811522E5920708F053C0811540E59407F9
:1010600008F0DDC0803E9105F8F48D3C910508F054
:10107000AEC0883A910580F4853A910508F099C090
:101080008130910521F00497813A910550F4CE0109
:10109000DF91CF911F910895885A91094B9708F4D9
:1010A0008BC0C0E0D0E0F3CF811550E49507F8F491
:1010B000C11580E2D80708F0CBC0C83ED10538F38F
:1010C000CE019A9581159F4160F78D2F0E94D3071D
:1010D000182FCE0199270E942F07212F30E0322FA1
:1010E0002227E901CC27DF71C82BD92BD0CF992734
:1010F0000E942F07CC27DF70C82BD92BD06AC7CF0F
:10110000803842E59407C8F5803652E5950708F027
:1011100067C0C03482E5D807B0F08C2F86958695DD
:10112000877020E2829FC0011124C37021E030E06B
:10113000A90102C0440F551FCA95E2F7EA01C82B66
:10114000D92BDC68A4CFC03252E5D50708F041C0E6
:101150008C2F8695869520E2829FC0011124C37052
:1011600021E030E0A90102C0440F551FCA95E2F703
:10117000EA01C82BD92BDD688ACF803C52E5950760
:1011800060F48F71C03AD24508F03FC090E0982FCC
:101190008827EC01C46FD06A7ACF805C9245809733
:1011A00008F07FCFDC2FCC27CC27DF71C06FD06A4F
:1011B0006ECFA497D0646BCFC85AD0E0CC0FDD1FA0
:1011C000C751DD4F0990D881C02DD46460CFD06560
:1011D0005ECFCF71D0E0DC2FCC27C16FD06A57CF64
:1011E00086958695877020E2829FC0011124C37086
:1011F00021E030E0A90102C0440F551FCA95E2F773
:10120000EA01C82BD92BDA6842CF0E94D307C82F36
:10121000D0E0DC2FCC27CC27DF71D06238CF8F71A4
:101220000E94D30765E0D695C7956A95E1F7CF7020
:10123000D0E0DC2FCC27282F30E084FF05C054E01D
:10124000220F331F5A95E1F7C22BD32BD0691FCF42
:101250008D2F8F710E94D307182FCE0199270E94DE
:101260002F07212F30E0322F222722273F71282BF2
:10127000392BE901D2CFA0E0B0E0E1E4F9E00C9431
:10128000AC328C01E0908907F0908A078091870743
:1012900090918807E82AF92ACFE0D0E0CC24C394C3
:1012A000D12CC6010C2E02C0880F991F0A94E2F7B8
:1012B0008E219F21892B49F4219798F7B12C8B2DF2
:1012C000CDB7DEB7E9E00C94C832BC2EB8018C2F44
:1012D0000E9411070E942208019771F3F0CF0F932B
:1012E0001F93CF93FC01858100811181882391F0A8
:1012F000662381F0C8010E943B09C82F682FC801EE
:101300000E946F06B8018C2F0E941107CF911F9188
:101310000F910895C8010E94A506C82FF3CFCF935F
:10132000DF93D82FC92F0E943B096D2F7C2F0E947D
:1013300011070E942208DF91CF910895FC0184815A
:101340008823A1F0808191810E948F09282F929596
:101350009F70963091F060F4925F9F70923030F4FD
:1013600081E0203F79F030F4283E30F080E004C086
:101370009A5FF3CF243FD1F7089581E0283E18F01B
:10138000213FF9CF0895089580E00895F894E82F5B
:10139000E295EF70F0E041A18F7021E030E0B901FB
:1013A00002C0660F771F8A95E2F7CB01962F9095C2
:1013B000942391A392A1892B82A378940895A0E00D
:1013C000B0E0E5EEF9E00C94AD32E82FF0E0E55A3C
:1013D000F84F711109C0E4918E2F7E2F6E2FCDB77B
:1013E000DEB7E8E00C94C932262F30E0C72FD0E0FA
:1013F000F491EF2F86E0829F8001839F100D1124CE
:10140000EE24EA94F12CC801B7010E948F32AB019F
:10141000220F331F65E5649FC001659F900D112465
:10142000281B390B822F880F280FC7018C1B9D0B9F
:10143000F89FD001F99FB00D11248B2F2C9FB00184
:101440002D9F700D1124672F77276701C61AD70AC1
:10145000B601F69F6001F79FD00C1124B701621B03
:1014600071099B012C9FB0012D9F700D3C9F700D49
:101470001124672F77279701261B370BF29FE00176
:10148000F39FD00D11247D2F43305105C9F00C3F3F
:1014900093E0190758F441305105B1F0423051053D
:1014A00009F09CCFEB2F8D2F7F2F98CF4430510523
:1014B00071F04630510509F491CF7B2F8D2D8ECFE1
:1014C0007D2DEB2F8F2F8ACF7F2FED2D87CFED2F07
:1014D0007B2FF8CF982F80911607882329F081E081
:1014E0009B3108F080E0089581E09533FACF9C01AC
:1014F00080E090E0269F812D369F800D911D112464
:101500000895982FE82F96FDE0958E2F8F7096FD09
:101510008F5FE695E695E695E670F0E0E550FE4FC4
:101520002181289F202D812D112422952F708295B5
:10153000807F282B8081820F97FD819580580895A8
:101540001F93CF93DF93D62FC72F182F822F869507
:101550000E94810A805887FD8195880F282F219F3E
:10156000212D1124822F6D2F7C2FDF91CF911F9180
:1015700008950F931F93522F10E0F801EE0FFF1FF5
:10158000E35FFD4FA1A9A052BB0B9D015203F001E7
:10159000539FF00D1124000F111FD801A35CBD4F04
:1015A0002C912057330B4203D001439FB00D1124DF
:1015B0009F012A0F3B1F37FF02C0215C3F4F96E07F
:1015C000359527959A95E1F7620F1F910F91089530
:1015D00050E0FA01EE0FFF1FE35FFD4F31A9440F0A
:1015E000551FFA01E35CFD4F9081931B692F660F35
:1015F000690F313210F0620F0895621B0895EF9267
:10160000FF920F939701201B31092F3F310519F0ED
:1016100010F02FEF30E0322F3095482F430F08F4B1
:101620004FEF842F620F0F91FF90EF90089530914C
:101630001607311104C08B3191050CF04B970E94B5
:101640007B0B0895FF920F931F93CF93DF93182F77
:10165000062FF42EC0E0D0E02F2D402F612FCE01B9
:101660000E94170B2196C633D105B1F7CDB7DEB76F
:10167000E5E00C94CC329BE0899F802D1124980FDB
:10168000973308F096E320911607211104C08B319F
:1016900028F48BE108959C3108F09BE10895EBE775
:1016A000F7E0808191E08927808310924701809143
:1016B00083078160809383070895EBE7F7E0248137
:1016C00030E1230F08F42FEF24838091830781609A
:1016D000809383070895EBE7F7E0248130E1231B33
:1016E00008F420E02483809183078160809383073E
:1016F0000895539A0895FC01EE0FFF1FE80FF91F9C
:10170000E257FC4F6183408322830895FC01858169
:10171000862381110AC082818823B9F068239185CC
:1017200093FF05C081E061110FC080E00895282F6C
:1017300022952F708F70282B962F92959F706F7027
:10174000962B81E02913F1CF089581E0FDCF282F5A
:1017500035EB2303C001112497FF04C08058910981
:10176000892F089580589F4FFBCF8091610780FD9E
:1017700014C081FD14C082FD16C0809160078823CB
:1017800081F08E3180F428E2829FC00111246EE145
:1017900070E00E94E632862F08958AE0089584E181
:1017A000089584E0089588E208958091610780FD9E
:1017B00017C081FD17C082FD19C080915F07882383
:1017C00099F0883298F428E0829FC001112468E2E1
:1017D00070E00E94E6326115710551F0862F089580
:1017E00062E0FCCF64E0FACF61E0F8CF68E0F6CFCA
:1017F00081E0089580911507882359F0E0913D0715
:10180000F0913E07309729F00190F081E02D099585
:10181000089580E00895A3E0B0E0E1E1FCE00C94DD
:10182000B3329C0180918C0390918D0382179307B2
:10183000A1F030938D0320938C03E0913D07F0914C
:101840003E07309751F083E089833B832A830084ED
:10185000F185E02DCE01019609952396E2E00C94E6
:10186000CF32A3E0B0E0E7E3FCE00C94B3329C019C
:1018700080918A0390918B0382179307A1F0309394
:101880008B0320938A03E0913D07F0913E07309748
:1018900051F084E089833B832A830084F185E02D25
:1018A000CE01019609952396E2E00C94CF329091F7
:1018B00043019130C1F49091D20797FF14C0E82FF3
:1018C000E695E695E695803FF8F4F0E0E05CFC4FA5
:1018D000877021E030E001C0220F8A95EAF782810B
:1018E000822B82830895AAE3B3E0EFEF90E02D917D
:1018F000821751F0EF3F19F4211101C0E92F9F5FCA
:101900009630A9F7EF3F09F408950E2E000CFF0B57
:10191000E85CFC4FE6CF909143019130E1F4909167
:10192000D20797FF18C0E82FE695E695E695803F29
:10193000F0F4F0E0E05CFC4F877021E030E0A901BA
:1019400002C0440F551F8A95E2F7CA018095928123
:10195000892382830895EAE3F3E09191891303C018
:10196000DF0111971C9253E0E034F507B1F70895B9
:10197000809142010895A4E0B0E0E1ECFCE00C9419
:10198000B3328FB7F894209186033091870340914A
:1019900088035091890329833A834B835C838FBFEB
:1019A00069817A818B819C812496E2E00C94CF320C
:1019B000A4E0B0E0EEEDFCE00C94B33280911507AA
:1019C000882371F00E94BB0C69837A838B839C838C
:1019D00069817A818B819C812496E2E00C94CF32DC
:1019E0000E94BB0C69837A838B839C838091170749
:1019F00090911807A0911907B0911A0729813A818F
:101A00004B815C81280F391F4A1F5B1F29833A8352
:101A10004B835C83DDCFA4E0B0E0E1E1FDE00C941A
:101A2000B132462F572FBC012FB7F894809186030F
:101A300090918703A0918803B09189032FBF8C01F7
:101A40009D01041B150B260B370BC901B801249609
:101A5000E4E00C94CD32A6E0B0E0E1E3FDE00C94CC
:101A6000AF327C01009173071091740720917507C4
:101A70002E83809176078D83B801822F9D810E94ED
:101A80000B0D643F71408105910518F10E94BB0C5C
:101A90008B018E839D8382E390E0A0E0B0E0009311
:101AA000AC041093AD042E812093AE042D812093BD
:101AB000AF048093A8049093A904A093AA04B093C0
:101AC000AB04E0927107F09272072696E6E00C9460
:101AD000CB3284EF91E0A0E0B0E0E1CFFC019B01CC
:101AE00080917C0390917D038617970740F0672BC8
:101AF00029F48091E8008E778093E800C90140E0E6
:101B0000009741F4411106C08091E80082FF2FC088
:101B100080E0089520916D042223A9F12530A9F1D8
:101B20002091E80023FD2DC02091E80022FDECCF9C
:101B30002091E80020FFE4CF3091F3002091F200E3
:101B4000009719F02830310558F041E02830310570
:101B500009F040E02091E8002E772093E800D0CFF4
:101B600041914093F10001972F5F3F4FE9CF809162
:101B70006D04882341F0853041F08091E80083FFB7
:101B8000C3CF81E0089582E0089583E008958091B5
:101B9000760387FF13C08091E80082FF06C0809122
:101BA000E8008B778093E80004C080916D04811178
:101BB000F2CF089580916D048823D9F38091E800D5
:101BC00080FFF8CF8091E8008E77ECCF2091E40081
:101BD0003091E50095E6A9018091EC0081708823A1
:101BE00031F08091E80080FF06C080E008952091E8
:101BF000E80022FD1BC080916D04882391F08530A0
:101C000091F08091EB0085FD10C02091E4003091AF
:101C1000E5004217530701F391509111DCCF84E0A6
:101C2000089582E0089583E0089581E00895E8ED45
:101C3000F0E080818E7F80831092E2001092DA00C3
:101C40001092E100A0EEB0E08C9181608C938081D5
:101C50008F77808319BCA7EDB0E08C918E7F8C9339
:101C600080818F7E8083109275030895FC01AC0102
:101C70004C5F5F4F8FEF91E32191822728E030E0A6
:101C800087FF0BC0880F89272150310921153105A5
:101C9000B9F7E417F50781F70895880FF5CF90910C
:101CA0007B079370992391F0873008F086E0880FC6
:101CB000880F90917B079370892B80937B071092FC
:101CC0004701809183078160809383070895809105
:101CD0007B07869586958F5F873008F081E00E94AC
:101CE0004F0E089590917B07969596958FEF890FEB
:101CF000913009F486E00E944F0E089590917B0781
:101D00009370992371F080937C0760937D07493726
:101D100008F048E740937E078091830781608093B5
:101D200083070895EBE7F7E0818190E043816281CA
:101D300008960E947E0E0895EBE7F7E081814381CB
:101D400062818850990B0E947E0E0895EBE7F7E0C0
:101D5000628120E1620F08F46FEF8181438190E09E
:101D60000E947E0E0895EBE7F7E0628120E1621B9E
:101D700008F460E08181438190E00E947E0E089526
:101D8000EBE7F7E0438120E1420F08F44FEF818158
:101D9000628190E00E947E0E0895EBE7F7E04381B8
:101DA00020E1421B08F440E08181628190E00E94C2
:101DB0007E0E0895982FE42FE2709093E900891326
:101DC00008C0762F242F50E0E11111C091E0980F48
:101DD000F4CF7091EC002091ED005091F00021FDC6
:101DE00006C09F5F973049F78093E90008953091CE
:101DF000EB003E7F3093EB003091ED003D7F309360
:101E0000ED003091EB0031603093EB007093EC000B
:101E10002093ED005093F0002091EE0027FDE1CFDC
:101E20000895A0E0B0E0E7E1FFE00C94AD32C8ED2A
:101E3000D0E088818F7E8883E7EDF0E0808181604B
:101E4000808384E082BF81E08093750388818E7FE8
:101E5000888302EE10E0F80110821092DA0081EE21
:101E6000C82ED12CF601108288818F7788838881D3
:101E70008068888388818F7D888319BC10926D0467
:101E80001092740310926C041092730390EEE92E7A
:101E9000F12CF70180818B7F80838881816088832A
:101EA00042E060E080E00E94DA0EF60180818E7FE1
:101EB0008083F80180818160808380818860808355
:101EC000F70180818E7F8083888180618883CDB790
:101ED000DEB7E8E00C94C932E09192079091910747
:101EE00027E0E91302C080E00895AE2FB0E02E9FF6
:101EF000F0011124ED56F84F3181361306C03081C0
:101F0000381303C03581341304C0FD013196E770E6
:101F1000E8CF81E008953BB1377F2BB128604FB700
:101F2000F8948EE893E0FC010196508168E02BB9AB
:101F3000000000C057FF3BB9550F000000C000C0B3
:101F400000C03BB900C06A9591F754E08033950713
:101F500051F74FBF8FE594E00197F1F700C0000003
:101F600008950F931F93CF93DF93EB018A01909114
:101F70006D04943079F58093E9008FEF9091E8003B
:101F800095FD07C095ED9A95F1F7000081508111FC
:101F9000F5CF8091E80085FF1DC00E94E60D8111FC
:101FA00014C08091E80085FD06C08091E8008E771E
:101FB0008093E800F2CF88818093F10001501109ED
:101FC0000115110511F02196ECCF8091E8008E7774
:101FD0008093E800DF91CF911F910F910895CF93E7
:101FE000DF93D82FC92F48E050E0682F792F81E088
:101FF0000E94B10F88E0ED2FFC2FAEE7B3E0019017
:102000000D928A95E1F7DF91CF910895BC0140E2EE
:1020100050E082E00E94B10F0895BC0146E050E01C
:1020200082E00E94B10F0895BC0143E050E082E0DD
:102030000E94B10F0895A0E0B0E0E1E2F0E10C945D
:10204000AB32F82EE92EB62EA72E8A0180917203AC
:10205000CC24C394D12C8A3018F48AE0C82ED12C19
:10206000C1E0D0E06B2D7A2D8F2D9E2DF8010995C2
:10207000811116C02196CC16DD0694F0CC9FC001CC
:10208000CD9F900D900D112420E030E045E34A955E
:10209000F1F700002F5F3F4F28173907B9F7E2CF5C
:1020A000CDB7DEB7EAE00C94C7329091D30792FB2C
:1020B000222720F9281779F080FB92F99093D30713
:1020C0006091D2077091D30784E090E00E9494332E
:1020D00082E00E94E2060895A8E0B0E0E2E7F0E1C5
:1020E0000C94B2328091EF069091F006A091F10627
:1020F000B091F206BC01CD010E940B0D11E06436D7
:1021000071058105910578F10E94D80CDC01CB01A5
:102110000296A11DB11D89839A83AB83BC838091F4
:102120003201909133018150994F20913101422F1A
:1021300050E0253010F044E050E0BE016F5F7F4F6B
:102140000E94383383E090E00E941A32182F8823CF
:1021500051F00E94BB0C6093EF067093F0068093E1
:10216000F1069093F206812F2896E3E00C94CE328C
:10217000A6E0B0E0EEEBF0E10C94AC328D837B0195
:10218000B42E5E83B9016801A8018B2D9E810E9447
:102190002B338C01D7018D919D910D90BC91A02D79
:1021A000BC01CD010E940B0D69837A838B839C83D4
:1021B000643671058105910518F40115110539F191
:1021C000BD810B2F0B2E000C110B88E0B802F00123
:1021D0001124E75EFE4F818192818150994F2081C9
:1021E000422F50E0C416D50608F4A6016B2D7E815F
:1021F0000E943833C8010E941A32882349F00E9495
:10220000BB0CD7016D937D938D939C93139781E0C5
:102210002696E9E00C94C8320F931F93AC0104E0BA
:1022200010E024E037E063EF76E082E00E94B8102F
:102230001F910F910895A9E0B0E0E1E2F1E10C9463
:10224000B13288E0EBE7F7E0DE01119601900D92E4
:102250008A95E1F7198609E010E02CE037E0AE013D
:102260004F5F5F4F6BEE76E084E00E94B8102996D6
:10227000E4E00C94CD32EF92FF921F93CF93DF9363
:10228000CDB7DEB729970FB6F894DEBF0FBECDBF2E
:102290007B0180E090E00E941A32182F81111BC050
:1022A00010E08091F7069091F806A091F906B091A0
:1022B000FA06F70180839183A283B383812F299645
:1022C0000FB6F894DEBF0FBECDBFDF91CF911F9147
:1022D000FF90EF90089580911C01482F50E08823D3
:1022E00011F041E050E060911D0170911E016150BC
:1022F000794FCE0105960E9438338091FB0690916C
:10230000FC06A091FD06B091FE06BC01CD010E9425
:102310000B0D6E837F8388879987643671058105ED
:10232000910538F480E097E00E94360E9D81891770
:10233000B9F181E090E00E941A32882309F4B0CF0D
:1023400080912401482F50E0853010F044E050E0A7
:1023500060912501709126016150794FCE0101965F
:102360000E94383380E097E00E94360E9D818913E9
:1023700097CF0E94BB0C6093FB067093FC06809382
:10238000FD069093FE0689819A81AB81BC81809382
:10239000F7069093F806A093F906B093FA0681CF5A
:1023A0008091000790910107A0910207B091030767
:1023B00089839A83AB83BC83E6CFADE0B0E0E3EEE4
:1023C000F1E10C94A332609130047091310480915A
:1023D00032049091330469837A838B839C83809148
:1023E0001507882309F450C069817A818B819C810B
:1023F0000E940B0D6B017C010E94D80C282F60936A
:102400003004709331048093320490933304A0918C
:102410007604E6E7F4E08A2F30E088248A94982C4A
:10242000A12CB12C8C189D08AE08BF08A31339C08D
:102430008093760480917B07A82FA370A983AA2399
:1024400021F0B82FB695B695B98330914701323057
:1024500009F4A3C2C8F531113EC010920201609385
:10246000340470933504209336049093370489E242
:10247000E6E7F4E0A2E4B4E001900D928A95E1F77A
:1024800081E08093470123C00E94D80C6B017C013E
:1024900089819A81AB81BC81C81AD90AEA0AFB0AF0
:1024A000ABCF418D528D2A01612C712C841495047F
:1024B000A604B70420F481503F5F3296B7CF4C0D8D
:1024C0005D1D528F418FF8CF333009F46FC22D96C6
:1024D000E2E10C94BF3290910101E981E91324C03B
:1024E000837090E04091000150E021E0841795074F
:1024F00009F420E0822F817080930401809180078D
:1025000090910301981739F08093030140E060E057
:1025100080E00E94220BF981F73040F4EF2FF0E0C9
:10252000E456FC4C0C941C3381E0E5CF8091020111
:102530008F5F8093020182E0A4CF8091040181111A
:1025400007C0809102018F5F8093020183E099CFE1
:1025500040E060E080E00E94220B809102018F5FEA
:102560008093020182E080934701809104018111F0
:10257000AECFECCF809102010E943B0B082F9983D4
:1025800060917C0770917D0780917E070E94DF0932
:102590006D83F72EE82E10E02981021758F0822F64
:1025A0000E946A0A909102019F5F9093020181113B
:1025B0008ECFC1CFF801E755FD4F80819091030187
:1025C0008923882331F02E2D4F2D6D81C8010E9463
:1025D000170B0F5F1F4FE0CF809102010E943B0B52
:1025E0008D83E92E30917C07398300917D0710910E
:1025F0007E07632F702F812F0E94DF09D62EC72EF2
:10260000B82E80917F076981680F702F812F0E94FB
:10261000DF09162F072FF82E7D81672F70E07A8350
:10262000698399819E1510F08E2DBACFE981FA81C8
:10263000E755FD4F8081309103013823332361F04A
:102640002F2D402F612F80FD03C02B2D4C2D6D2D84
:1026500089819A810E94170B89819A8101969A83B8
:102660008983DFCF809102010E943B0B8983192F60
:1026700060917F076695669521E0620F08F46FEF21
:1026800080913404909135040E94770A082FB98113
:10269000AB2FB0E0BA83A983F981F11710F0812F35
:1026A0007FCFE981FA81E755FD4F80819091030149
:1026B0008923882391F060917C0770917D07809138
:1026C0007E07202F49810E94A00A0E94DF09472F20
:1026D000282F89819A810E94170BE981FA8131960E
:1026E000FA83E983D9CF809102010E943B0B898351
:1026F000D92E60917F0766956695809134049091FC
:1027000035040E94770A182F80E4810F0E94810A05
:10271000B0E8FB2EF80E812F0E94810A90E8C92EA6
:10272000C80E3981232F30E03A83298379817D15C2
:1027300010F08D2D35CFE981FA81E755FD4F80816D
:102740009091030189238823A1F060917C07709107
:102750007D0780917E07E12E09812C2D4F2D0E944F
:10276000B90A0E94DF09472F282F89819A810E9488
:10277000170B69817A816F5F7F4F7A836983D6CF28
:10278000809102010E943B0B8983192F80917F0762
:102790006AE00E94DA32682F21E0620F08F46FEFDE
:1027A00080913404909135040E94770A082F998112
:1027B000892F90E09A838983B981B11708F06FCF90
:1027C000E981FA81E755FD4F8081909103018923CA
:1027D0008823E1F0E981FA81EE0FFF1FE35FFD4FEF
:1027E00091A960917C0770917D0780917E07202FD1
:1027F0004981913288F00E94E80A0E94DF09262F61
:10280000472F682F89819A810E94170BA981BA816D
:102810001196BA83A983D0CF0E94E80A0E94DF09EB
:10282000472F282FEFCF5090420421E0352D321B47
:1028300008F430E0332E809102010E943B0B9D830F
:10284000682F70E07D876C87CB01880F991FDC01B2
:10285000A35FBD4F6D01832D90E0FC013196FB8796
:10286000EA878D819C85981708F09ACEEC85FD85C6
:10287000E755FD4F8081909103018923882301F161
:1028800040907C07F0917D07F98320917E0729878E
:102890006A857B856E5B7B4F3B01232C10E0251402
:1028A000C8F02985129F112D1124642D7981812F63
:1028B0000E94DF09472F282F8C859D850E94170BCA
:1028C0006C857D856F5F7F4F7D876C8772E0C70E5B
:1028D000D11CC7CFD3018D913D01F601A0A8A81A44
:1028E000BB0881A817968C91881A9908AA9CC001E8
:1028F000AB9C900D900D1124889C9001899C300D0B
:10290000300D1124820F931F082F8230910524F17E
:102910004FEF813EFEE19F073CF4AC0175E0569518
:1029200047957A95E1F7485F51E0652F640F772767
:10293000771F9B0135952795022F229FB001239F7A
:10294000700D700D11248617970710F54FEF420F89
:10295000451758F70FEF050F60917F0771E0670F7C
:1029600008F46FEFF301EE0FFF1FE254F440858986
:1029700096890E94770A7C019401A501642D7981D2
:10298000812F0E94FF0A462E7983182F239487CF28
:102990002F3F11F351E0520FDBCFA981A09301012A
:1029A0008370809300010E948B0FD0CD80918307AC
:1029B000882351F048E050E067E170E08BE797E052
:1029C0000E9466331092830760913404709135043D
:1029D000809136049091370469837A838B839C833A
:1029E00080911507882391F069817A818B819C8180
:1029F0000E940B0D462F572FBC0140315105610538
:102A0000710508F464CD1092470161CD0E94D80C85
:102A1000AB01BC0189819A81AB81BC81481B590BF8
:102A20006A0B7B0BEACFAB0124E630E0BC0188E700
:102A30000E9431309C0181E0232B09F080E0089551
:102A40008091E506882369F08091E206882349F0A9
:102A500062E070E08EEA90E00E94131581111092FE
:102A6000E2060895A4E0B0E0E8E3F5E10C94B332A7
:102A70008091E5068823F9F00E94BB0CDC01CB01B4
:102A8000805A9541AF4FBF4F8093DE069093DF068B
:102A9000A093E006B093E1068091E20681110BC09D
:102AA00062E070E08CEA90E00E941315882319F030
:102AB00081E08093E2062496E2E00C94CF32CF933B
:102AC000DF93682F81E06A3019F06D3031F480E0D7
:102AD0000E94DF15DF91CF9108958091B00490910D
:102AE000B10426E0FC01ACE6B3E001900D922A951A
:102AF000E1F7603E08F458C026E0FC0111922A95E7
:102B0000E9F7C091B004D091B10446E050E0BE01B5
:102B10008CE693E00E942B339E012A5D3440892B82
:102B200041F1C90145E0969587954A95E1F741E065
:102B300050E0BA0102C0660F771F8A95E2F7CB0119
:102B40006091DC067091DD06862B972BB9016B5FD7
:102B50007F4FE5E076956795EA95E1F702C0440F6F
:102B6000551F6A95E2F7842B952B9093DD06809391
:102B7000DC062A5F3F4F4091B204642F70E0C90128
:102B80000E948F32481B463010F4240F311D21154E
:102B900072E0370710F020E030E026523B4F3093D0
:102BA000B1042093B00496CFF6E06F9FB0011124DA
:102BB00060557F4F46E050E00E942233A2CFCF9372
:102BC000382FE091B004F091B104EA5DF440209117
:102BD000B204622F70E0CF010E948F32281B822F37
:102BE000332361F066E00E94DA32C82FC15010F43E
:102BF000CF91089580E20E945F15F8CF9F01280FC2
:102C0000311D2115324018F080E0E0E0F0E08E0F39
:102C10009F2F911D86529B4F9093B1048093B004D7
:102C2000E7CFCF93DF93EC01FE018491811103C0C4
:102C3000DF91CF9108950E945F152196F5CF0E94F4
:102C4000111681E00E94DF1508951F921FB61F9292
:102C500011248F939F93AF93BF9380916B04811145
:102C600013C08091860390918703A0918803B0914F
:102C700089034196A11DB11D80938603909387031C
:102C8000A0938803B0938903BF91AF919F918F91D7
:102C90001F901FBE1F9018952FB7F8948091860340
:102CA00090918703A0918803B09189032FBF089565
:102CB000CF93DF93C091850780918B07C82B8091BC
:102CC0008407882339F10E944C1620918F07309198
:102CD0009007821B930B8838934110F00E940607DF
:102CE000D0918407809143018130F1F48091D20723
:102CF00087FF1AC08DE122E433E090E0F9014081C2
:102D00002F5F3F4F41119F5F8150C0F791110E948B
:102D10000607CD2B80916D0780958C2390916C07D1
:102D2000892BDF91CF91089585E02AE333E0E5CF49
:102D300080914301813059F58091D20787FF27C0E8
:102D40000E9458168093410340E250E06DE177E025
:102D500080E493E00E942B33892BC1F080E2E0E411
:102D6000F3E0ADE1B7E001900D928A95E1F7E091D3
:102D70003D07F0913E07309749F086E0809340038D
:102D80000480F581E02D80E493E0099508950E9488
:102D900058168093380348E050E06FE377E088E30B
:102DA00093E00E942B33892B89F388E0E8E3F3E07A
:102DB000AFE3B7E001900D928A95E1F7E0913D070E
:102DC000F0913E07309711F30280F381E02D88E304
:102DD00093E0DBCF882339F090918507892B80938E
:102DE00085070E9498160895882321F00E94FE0608
:102DF0000E9498160895882339F090918B07892BAB
:102E000080938B070E94981608959091D30792FFA4
:102E100010C098E0899F90011124622B60938C0769
:102E20000E944D060E944C1690938E0780938D074A
:102E300008950E944D06089590918407292F282314
:102E4000222361F08095892380938407882339F0B9
:102E50000E944C1680938F0790939007089580E00E
:102E600090E0F8CF0E944C162091640730916507DE
:102E7000232B222321F08093E8069093E9062091EA
:102E8000660730916707232B222321F08093E60603
:102E90009093E706E0913D07F0913E07309749F0A7
:102EA00082E0809362070680F781E02D82E697E05A
:102EB00009950895662309F44BC0E3E3E80FE33175
:102EC00050F4F0E0ED55FC4C0C941C330E94B50B13
:102ED0008195809365070E94321708950E94B50B73
:102EE000F8CF0E94B50B819580936407F4CF0E94C0
:102EF000B50BFACF0E94D50B80936607ECCF0E94EA
:102F0000D50B8195F9CF0E94D50B819580936707EA
:102F1000E2CF0E94D50BFACF815D990B21E030E022
:102F200001C0220F8A95EAF780916307822B809374
:102F30006307D1CF80916107816080936107CBCF18
:102F4000809161078260F9CF809161078460F5CF3D
:102F5000409164078D3C59F48091650787FF0DC04F
:102F600010926507442359F41092600708C08E3C04
:102F700081F48091650718169CF3442381F08091B9
:102F8000660790916707892B8111A5CF10925F0783
:102F9000A2CF8F3C41F447FFF0CF1092640780919D
:102FA00065078823E0CF803D19F41416B4F3E5CF0C
:102FB00090916607893D29F41916FCF61092660770
:102FC000DCCF8A3D19F497FFD8CFF8CF90916707EF
:102FD0008B3D29F497FFD1CF10926707CECF8C3D60
:102FE00019F41916CCF3C9CF9FE2980F983090F4DA
:102FF000815D990B21E030E0B90102C0660F771FB7
:103000008A95E2F7CB01809590916307892380939D
:103010006307B3CF8D3D31F4809161078E7F80933C
:103020006107ABCF8E3D21F4809161078D7FF7CF93
:103030008F3D09F0A2CF809161078B7FF0CFCF93B6
:10304000C82F8823B1F18CEF8C0F813AA0F58091C5
:103050004301813001F58091D20787FF1CC0EC2F1E
:10306000E695E695E695F0E0E05CFC4F828190E025
:103070004C2F477021E030E002C0220F331F4A95E9
:10308000E2F782239323892B79F08C2F0E948B0CFB
:103090000E94981609C0EAE3F3E08191C817A9F3EA
:1030A00023E0E034F207C9F78C2F0E94570C0E94EE
:1030B0009816CF91089580E28C0F883068F4C7701D
:1030C00081E090E001C0880FCA95EAF7C0918507BA
:1030D000C82BC0938507EBCF8BE58C0F833038F47A
:1030E0002C2F2452330BC9010E940B0CE2CFE8E5D0
:1030F000EC0FEB3150F4F0E0EE0FFF1FE751FD4F06
:10310000808191810E94310CD4CF83E38C0F833175
:1031100080F661E08C2F0E945A17CBCF882381F173
:103120009CEF980F913A28F40E948B0C0E949816FD
:10313000089590E2980F983050F4877091E001C0A4
:10314000990F8A95EAF7892F0E94FE06EFCF9BE53B
:10315000980F933028F480E090E00E940B0C0895C3
:1031600098E5980F9B3128F480E090E00E94310CA4
:10317000089593E3980F933118F460E00E945A1772
:1031800008951F93CF93DF93182FA0916F07B091ED
:103190007007109709F44AC01092720710927107D5
:1031A00010926D0710926C071796CD91DC911897CD
:1031B000CE019A9581159F4108F4D07ED1E0C111CE
:1031C00001C0D0E01A96ED91FC911B97309731F039
:1031D0001C966D917C9180E00995D823DD2339F010
:1031E0008CEF8C0F813A30F58C2F0E948B0C1123C1
:1031F000A9F0E0916F07F0917007818584FD0EC002
:1032000080916E07882351F0808191819C0121502B
:1032100031092F333E4710F40E942B0D0E9498165F
:103220001092700710926F0710926E07DF91CF9186
:103230001F9108950E9498168C2F0E948E18D7CF48
:103240001092850780914301813039F58091D20732
:1032500087FF23C0E2E4F3E08EE1DF011D928A954F
:10326000E9F780E090E00E940B0C80E090E00E9483
:10327000310C10928B070E94981686E0E2E6F7E088
:10328000DF011D928A95E9F71092600710925F079F
:10329000109261070E9432170895EAE3F3E086E096
:1032A000DCCF0E9420192FEF84E39CE02150804066
:1032B0009040E1F700C0000088E19AE00FB6F89472
:1032C000A895809360000FBE90936000FFCFAAE2A4
:1032D000B0E0EDE6F9E10C94B23286E793E0FC0150
:1032E00001962091F100208323E08E379207B9F7F1
:1032F00080917703893009F45AC0C8F4823009F408
:10330000B6C0833009F485C0813091F18091E80026
:1033100083FFEAC080917603909177039A3008F09A
:10332000E3C0E92FF0E0EA54FC4C0C941C338A30E3
:1033300009F48CC08B3051F780917603813231F7DC
:1033400080917A0390917B03892B01F78091E800AB
:10335000877F8093E8000E94C70D81E090917803F9
:10336000911101C080E0809343010E942019CECFCB
:1033700080917603813A51F68091E800877F8093AF
:10338000E80080917A0390917B03892B61F060E0E3
:1033900080E090E070E00E946E0D8091E8008B77F5
:1033A0008093E800B3CF68E08EE793E0F3CF80919D
:1033B0007603813209F0AACF80917A0390917B0342
:1033C000029708F0A3CF8091E800877F8093E80000
:1033D0008091E80082FF18C09091F3008091F20084
:1033E000029731F48091F100813011F0863021F4A0
:1033F0008091F100809342018091E8008B77809367
:10340000E8000E94C70D82CF80916D048111E0CF4A
:103410007DCF80917603813A09F078CF80917A034D
:1034200090917B03892B09F071CF8091E800877F11
:103430008093E8008091E80080FFFCCF80914301F9
:103440008093F1008091E8008E77D9CF8091760348
:10345000813209F05BCF8091E800877F8093E8009C
:103460000E94C70D80917903809341014FCF8091D5
:103470007603813A09F04ACF8091E800877F8093F4
:10348000E8008091E80080FFFCCF80914101D8CF17
:10349000803889F0823841F580917A038F708730C7
:1034A00018F58093E9008091EB0085FB882780F96F
:1034B0001092E90006C08091730390916C04911101
:1034C00082609091E800977F9093E8008093F100EC
:1034D0001092F1008091E8008E7723C0811116C010
:1034E00080917803813011F18091E80083FF0AC058
:1034F0008091E800877F8093E8008091EB008062F4
:103500008093EB00AA96E3E00C94CE32823061F710
:1035100080917803882389F01092E9008091E80077
:10352000877F8093E8000E94C70DDECF81E0933053
:1035300009F080E080936C04EFCF80917A038F7064
:103540002FEF280F263080F68093E9002091EB00C2
:1035500020FFE2CF933031F48091EB0080628093C2
:10356000EB00DACF9091EB0090619093EB0021E0BB
:1035700030E0A90102C0440F551F8A95E2F740933D
:10358000EA001092EA008091EB008860E8CF811198
:10359000ABCF109178031F778091E3008078812B67
:1035A0008093E3008091E800877F8093E8000E9489
:1035B000C70D8091E80080FFFCCF8091E300806818
:1035C0008093E30083E0111101C082E080936D04D9
:1035D0008BCF8058823008F087CF4091780350918C
:1035E00079034C3D83E0580799F583E08A838AE2AA
:1035F00089834FB7F894DE01139620E03EE051E254
:10360000E32FF0E050935700849120FF03C0829590
:103610008F703F5F8F708A30C8F0895C90E08D9327
:103620009D932F5F243161F74FBF8091E800877F22
:103630008093E8006AE270E0CE0101960E946E0D70
:103640008091E8008B778093E8004ECF805DE6CFD5
:1036500020917A0330917B03852F99278330910540
:1036600009F160F48130910509F472C0029709F004
:103670003BCF8BE390E0EAEEF6E029C08132910582
:1036800009F45AC0829709F02FCF2115310509F4AA
:1036900069C02130310509F027CF86EB90E0E0EFDB
:1036A000F5E015C0CA0199274130B1F1823091058A
:1036B00009F43AC0892B09F017CFE7E5F7E0E49168
:1036C0008E2F90E0E7E5F7E0009709F40DCF209109
:1036D000E800277F2093E80020917C0330917D0350
:1036E0008217930708F49C0140E02115310509F089
:1036F0003EC041113CC08091E80082FDA1CF809185
:103700006D04882309F49CCF853009F499CF80910A
:10371000E80083FFF0CF94CFE5E4F7E0E4918E2F4B
:1037200090E0E5E4F7E0D0CFE7E3F7E0E4918E2F17
:1037300090E0E7E3F7E0C8CF2115310571F02130C3
:10374000310509F0D1CE89E090E0E5E1F7E0BFCFA7
:1037500082E190E0E5E2F7E0BACF89E090E0ECEFBB
:10376000F6E0B5CF84E490E0E6EAF6E0B0CF8091F1
:103770006D04882309F464CF853009F461CF80910A
:10378000E80083FD5DCF8091E80082FDB4CF809199
:10379000E80080FFAACF9091F3008091F2002115FC
:1037A000310519F08830910550F041E0089709F093
:1037B00040E08091E8008E778093E80096CF4491B6
:1037C0004093F1003196215031090196E8CF8038BD
:1037D00009F08ACE8091E800877F8093E80080918D
:1037E00074038093F10076CE81117ECE1091780320
:1037F000123008F079CE8091E800877F8093E8004E
:10380000109374030E94C70D1123A9F084E08093E4
:103810006D0442E061EC81E00E94DA0E42E261EC6C
:1038200082E00E94DA0E80916D04843051F482E0CF
:103830008093440159CE8091E30087FDE7CF81E07A
:10384000E6CF81E0F5CF9C014FB7F89480918603D5
:1038500090918703A0918803B09189034FBF821B89
:10386000930B08950F931F93CF93DF93C62FD42FFD
:10387000122F8823A9F0609379070E944C16909329
:103880006B0380936A03C77081E001C0880FCA95FB
:10389000EAF70E94EA16DF91CF911F910F910895E8
:1038A00080917907681338C080916A0390916B0307
:1038B0000E94231C8F3A910578F5CD130FC0812FFC
:1038C0000E941F18812F0E948E18D77081E001C0BE
:1038D000880FDA95EAF70E94F416DDCFC77001E091
:1038E000802F01C0880FCA95EAF70E94F41680E283
:1038F0008D0F883050F48D2F877001C0000F8A958E
:10390000EAF7802F0E94EA16DACF812F0E941F1853
:10391000812F0E948E18BFCFC77081E001C0880F31
:10392000CA95EAF7D8CFA0E0B0E0E9E9FCE10C9451
:10393000A3328C01DC0114968C91882309F4C8C051
:1039400061E0C8010E946F09EC01F80135809C011B
:10395000205E31094901332009F4BFC08181809381
:103960006B07808180936A0780E280934501D09342
:103970006907C0936807CE01905281159042C8F440
:103980008681803118F4809146011DC0FE01FF2719
:10399000CD33C8F7E854F44FE491E0934501CF35B7
:1039A000ACE7DA07E9F41092460180E00E94C11802
:1039B0007EC0CE01905481159041E8F496818091AB
:1039C0004601903120F4882309F485C18AC0FE01A4
:1039D000FF27CD33C0F7E854F44FE491E09345015D
:1039E000CD35BCE7DB0709F078C08091460188231C
:1039F00009F45AC0D8CFCE019A9581159F4158F449
:103A0000FE01FF27CD3308F0BECFE854F44FE49118
:103A1000E0934501B8CFCE01805A92458097D0F50A
:103A200080914601882309F4DAC1209085078091AE
:103A30008607282A80918407282A31101FC1809187
:103A4000770790917807C817D90781F41092780703
:103A500010927707109273071092740710927507EF
:103A6000109276071092720710927107E0916F071B
:103A7000F0917007309709F078C1F8018581FE0157
:103A8000E851FC47E730F10508F025C1E054FC4C53
:103A90000C941C33CD33D10510F4FE01B6CFCE35D6
:103AA0009CE7D90709F07BCF81E0809346018091A4
:103AB0008C078770882361F0D80115968C91882334
:103AC00039F08091D30782FF03C082E00E94E206B2
:103AD000CDB7DEB7E2E10C94BF3280914601882376
:103AE00061F22090860780918507282A80918407BB
:103AF000282AE8E08E16910408F09FCF9E012770D7
:103B0000332781E090E001C0880F2A95EAF733203F
:103B100009F4B1C0282AD8018D919C910E94A50674
:103B200021E030E0290102C0440C551C8A95E2F7DF
:103B3000A0906F07B09070073FE1632E33E0732EC3
:103B4000F301E190F1903F01E114F10409F4B1C0F7
:103B5000211005C0D70112968C918111A4C0F701E4
:103B60008381948184219521892B09F49CC08185CE
:103B7000982F97709111C1C0F8E08F16910408F04A
:103B800090C03110C2C0F701C080D180CC15DD05D6
:103B900009F489C0AE14BF0409F485C0D7011E968C
:103BA000ED91FC91309721F08081882309F47BC04E
:103BB000622DC7010E94860B882309F474C0CC15BE
:103BC000DD0511F4311005C0C114D10409F0A9C0FC
:103BD000312C80E00E94C118F0927007E0926F07CC
:103BE00081E080936E07F701868180936D07311025
:103BF0000DC0CD2859F0808191819C01245031095C
:103C0000213A310508F096C00E948B0CF701C7805D
:103C1000D084C6019A9581159F4110F420EED222DE
:103C2000BB24B394C60101978F339E4708F0B12C93
:103C3000D7011A96ED91FC911B97309731F01C96A5
:103C40006D917C9181E00995B82281E03826BB20F6
:103C500079F0F701878190850E94190680936C079F
:103C6000C601F8E08F16910408F067C00E942B0D82
:103C70000E94981669C0809528224DCFD09378076E
:103C8000C09377070E94BB0C60937307709374070F
:103C900080937507909376071092720710927107C0
:103CA0003ACF311032C0A5E3B3E0A615B70509F04D
:103CB00047CFA114B10409F4E0CEB8E08B1691040B
:103CC00008F05FC0622DC5010E94860B811103C000
:103CD00081E00E94C118D80115968C91811195C080
:103CE000C631BCE7DB0709F096C180917A078111E4
:103CF00063C189E20E948B0C29C028E082169104DE
:103D000058F4332031F081FFCECFD701CD90DC9035
:103D100041CF82FFC8CF37CF332029F280FFC3CFF6
:103D2000F4CF80917707909178078C159D0509F065
:103D3000BACF4ECF0E948E1869CF0497813A910571
:103D400040F48C2D0E94570C311097CE0E9498168B
:103D5000AECE0E9498168FE39CE90197F1F700C060
:103D600000008C2D0E941F18EFCF80819181C81711
:103D7000D90709F082CE10926E0780E00E94C11828
:103D80007CCEF50180819181C817D90731F43320A9
:103D900091F3818585FD71CEF0CF332009F46DCE8E
:103DA0008185F8CF26E241EE61EE0E94321C7FCE83
:103DB00027E245EE65EEF9CF26E241EE60EEF5CF63
:103DC00027E245EE64EEF1CF26E241EE62EEEDCF62
:103DD00027E245EE66EEE9CF28E241E0EBCF109214
:103DE000790780918507C631ECE7DE0709F0E6C068
:103DF0008A7A91E0811101C090E090937A07811155
:103E0000D9C089E20E94570CA1CF10927907CE0148
:103E10009057839730F784E090E00E94603390934E
:103E2000D3078093D207FE01E150F047E232F1055B
:103E300020F4E953FC4C0C941C338091D207816030
:103E40008093D2076091D2077091D30784E090E00D
:103E50000E9494330E9420192ACE8091D307886053
:103E60008093D307EFCF8091D2078260E9CF809112
:103E7000D2078460E5CF8091D2078860E1CF80913E
:103E8000D3078160EDCF8091D3078260E9CF809125
:103E9000D2078061D5CF8091D2078062D1CF809147
:103EA000D2078064CDCF0E9420198091D20780680C
:103EB000C7CF8091D2078C60C3CF8091D307836036
:103EC000CFCF8091D2078E7FBBCF8091D307877FE2
:103ED000C7CF8091D2078D7FB3CF8091D2078B7FE0
:103EE000AFCF8091D207877FABCF8091D3078E7FF2
:103EF000B7CF8091D3078D7FB3CF8091D2078F7ECC
:103F00009FCF8091D2078F7D9BCF8091D2078F7BEF
:103F100097CF0E9420198091D2078F7791CF8091FF
:103F2000D207837F8DCF8091D3078C7F99CF8091EB
:103F3000D20782FB992790F921E0922790FB82F922
:103F400090FB83F97DCF8091D307982F9095917046
:103F50008E7F892B90FB81F983CF9091D207892F97
:103F60008F7B96FF80646CCF0E9420199091D207BE
:103F7000892F97FB87F9805863CF61E08EE090E04E
:103F80000E9476335FCF60E0F9CF9091D207892FFE
:103F90008F7E94FF806154CF9091D207892F8E7FBE
:103FA00090FF81604DCF9091D307892F877F93FF3A
:103FB000886056CF85E326CF85E39CCE8272FE01D2
:103FC000E052F847EB30F10508F06EC0E751FC4CC9
:103FD0000C941C330E944F0B6ACD882309F449C00E
:103FE0000E94720E64CD882309F449C00E949C0E81
:103FF0005ECD882309F449C00E94B30E58CD8823B2
:1040000009F449C00E94CD0E52CD882309F449C05D
:104010000E946B0B4CCD809185078272FE01E054AB
:10402000F847ED30F10508F0AAC0EC50FC4C0C94B8
:104030001C3380917B078370811102C0109247016D
:1040400080917B078C7F816080937B0780918307C1
:104050008160809383072BCD80917B0783708111D2
:104060001092470180917B078C7FEECF882309F463
:10407000B7CF0E94670E1BCD882309F4B7CF0E94EB
:10408000920E15CD882309F4B7CF0E94A60E0FCD4E
:10409000882309F4B7CF0E94C00E09CD882309F404
:1040A000B7CF0E945D0B03CDCE01805E9245809715
:1040B000A8F0CA353CE7D30709F4B0C008F078C0CF
:1040C000C1309CE7D90709F4A7C0C330ACE7DA07D1
:1040D00009F49CC0C115DC4709F47CC0F801858156
:1040E000E080F180882309F49DC0C7010E943B094C
:1040F000C82F682FC7010E946F06B7018C2F0E943E
:1041000011070E942208D82FC92FD8011596DC90DC
:1041100015971696CC90C2942FE0C22280918C07FE
:104120008770882301F1ED2CDD20F1F0892F807F4D
:10413000803461F080E28D0F8830A8F0892F807E76
:10414000803221F4D23078F0CC2069F08091D3070E
:1041500082FF09C082E00E94E20680918C0787708E
:10416000EE24E3948111E12CEC2FE295EF70C03C3A
:1041700008F0BCC0F0E0EF5FFB4C0C941C33CE01A8
:10418000805E9245809708F0A9CFCF7181E090E0E2
:104190009C0102C0220F331FCA95E2F7E901622F8A
:1041A00083E090E00E947633CE010E9443067FCCEC
:1041B000CB35ECE7DE07A1F1CC35DC4709F08ECF3B
:1041C0008091D30782FB882780F991E089270E949C
:1041D000551084CF0E9420192FEF34E38CE021503A
:1041E00030408040E1F700C0000087E797E79093F8
:1041F00001088093000888E19AE00FB6F894A8952A
:10420000809360000FBE90936000FFCF6FEF7FEF51
:1042100080E090E00E9494330E94511981E0D7CF52
:1042200080E0D5CFC7010E94A506C82F66CFBC2F5E
:10423000BF70FB2EC03118F0F29490EFF922DD2010
:10424000B9F0FF2069F080E28D0F883010F0D111B5
:1042500009C0809185078F29809385070E94981651
:104260008D2F42C080918B078F2980938B07F6CFCB
:104270008D2F0E948E18FF20C9F180E28D0F8830AB
:1042800010F0D11104C08F2D0E94FE0606C0F094DC
:1042900080918B078F2180938B070E94981626C0F0
:1042A000EC2FEF70FE2EC07FC03219F0F29480EF39
:1042B000F822DD2349F0D13009F485C0DD2009F46E
:1042C00091C0CC20B9F1CCCF8091D30782FD2EC014
:1042D000DD2031F1FF2039F0809185078F2980930F
:1042E00085070E94981680E00E941F18EE2009F4AE
:1042F000B1C180918C0780FDADC1D80115961C928B
:104300008695869586950E944D06C8010E94931C4D
:1043100080918C078695869586950E945D069AC148
:1043200080E00E948E18FF2009F3ADCFDD2069F1F7
:10433000C11004C08F2D0E94EA16D8CFF1E0CF1231
:1043400010C0C09184078F2D8C23F81679F20E943B
:104350004C169093900780938F07CF29C0938407C2
:10436000C5CF25E0C212C2CF8F2D0E94EA168F2D35
:104370000E941C17809186079F2D9823F91609F437
:10438000B5CF8F2980938607B1CFC11012C08F2D72
:104390000E94F4168F2D0E941C17809186079F2D76
:1043A0009823992309F4A2CFF094F822F09286077B
:1043B0009DCF31E0C3129ACF809185078F2188234A
:1043C00009F494CFE4CFDD2029F085E08C1508F4C2
:1043D0008DCFB0CF94E09C1508F488CF8F2D0E942C
:1043E000F41684CFCC20D1F3D93349F4AFEFB7EE34
:1043F000E3E0A150B040E040E1F700C000008D2FA5
:104400000E948E1873CF8C2F869586958370882393
:1044100069F0813009F06ACF8D2F9C2F9370D110F5
:1044200002C080E090E00E94310C60CF8D2F9C2F65
:104430009370D11002C080E090E00E940B0C56CF28
:104440006D2D8D2F0E945A1751CF8C2F83708111A3
:1044500042C0D1102FC04D2F429546954770440F52
:10446000440F2D2F2F7030E0042E02C0220F331F77
:104470000A94E2F780E090E0D4FF09C08FE090E07A
:1044800002C0880F991F4A95E2F780959095C695CE
:10449000C695C370C230B1F0C33089F04091870730
:1044A00050918807C13049F0822B932B84239523A8
:1044B0000E9443060E94FA0B19CF242B352B822B26
:1044C000932BF6CF822B932B20918707309188076F
:1044D00082279327EDCFDD2091F1C0FFEBCF4D2F49
:1044E000429546954770440F440F2D2F2F7030E0B2
:1044F000042E02C0220F331F0A94E2F780E090E0FE
:10450000D4FF09C08FE090E002C0880F991F4A9540
:10451000E2F780959095C695C695C370C230C1F0FC
:10452000C33099F04091890750918A07C13059F002
:10453000822B932B842395230E944806BBCF823085
:1045400008F4B8CFCCCF242B352B822B932BF4CF70
:10455000822B932B2091890730918A0782279327FA
:10456000EBCFCF70DD2039F08C2F0E944D068D2FC0
:104570000E94EA169FCF8D2F0E94F4168C2F0E9466
:104580005D0698CFD23FA1F178F4D03FC1F0D13F82
:1045900009F447C0DD2009F47DC0CC2009F477C0C0
:1045A0008D2F0E941F1886CFD33F49F1D43FA9F128
:1045B000D110F3CFC1107CC08C2F8F71E0CFDD20E4
:1045C000A1F0F4E0FC1508F475CFCF7181E090E024
:1045D0009C0102C0220F331FCA95E2F78091890720
:1045E00090918A0782279327A7CF35E0C316EBCF98
:1045F0008C2F8F71D110C3CF0E944D065BCF80E00E
:1046000090E0DD2009F498CFCF7181E090E002C006
:10461000880F991FCA95E2F78FCF8091D30782FD4B
:1046200006C08C2F8F71DD2009F4A9CFE5CFDD20E6
:10463000F9F080918C078770843089F410928C0790
:1046400010928E0710928D078C2F8F710E945D063D
:104650000E94FA0B60E0C8010E946F0939CA84E029
:104660008C15B0F363E08C2F8F710E940517F0CF8B
:1046700094E09C1540F410928C0710928E071092D3
:104680008D0764E0F0CF81E00E94E206E1CF8C2F3D
:104690008F71B2CFCC2009F48FCFD93349F4AFEF6B
:1046A000B7EEE3E0A150B040E040E1F700C0000009
:1046B0008D2F0E948E18FECE8091D107803178F424
:1046C0008091D007882359F0E091920720919107BB
:1046D0003091CC074091CB0757E02E1301C00895CD
:1046E0006E2F70E05E9FF0011124DF01AD56B84FD0
:1046F00014968C911497882361F111968C911197DF
:10470000831327C08C91841324C015968C91159720
:1047100081111FC012968D919C91A091CD07B091EF
:10472000CE078A1B9B0B8F3A910598F48091D10795
:104730008F7080618093D107E756F84F80818F702A
:10474000806180838BEC97E00E94931C0E94D806C6
:104750000895FB013196E770C0CFADE0B0E0E3EB28
:10476000F3E20C94A8328C0186E0F801DE01189681
:1047700001900D928A95E1F7F801E080F580A28022
:10478000B380C4808BEC882E87E0982E7090CF0782
:10479000711020C0CC20D9F0FF2009F419C1C80144
:1047A0000E949E09882309F413C187E0F801D4010F
:1047B00001900D928A95E1F7F1E0CF1206C0809149
:1047C000CB079091CC070E948F090E945C23FF24A5
:1047D000F39451C0D090D0078091CD079091CE072F
:1047E0009501281B390BDD2009F4BAC02F3A310599
:1047F00008F090C0CC2059F39091CC07C1808091F3
:10480000D107803108F058C0C91214C09091CB076D
:104810009E1110C0F1104AC08F7080618093D10743
:104820008BEC97E00E94931C8091D107F80186835E
:10483000F12C21C0F1103AC040E06C2D8E2D0E9469
:104840006C0F40E06C2D8E2D0E946C0FF82E8111A4
:10485000EFCF888599850E948F09292F22952F7087
:10486000903470F49F702230A0F09923B1F0F801D9
:104870009681903190F48F2D2D96EDE00C94C432FA
:104880002A5F2F70223068F0C8010E94931CFD2C13
:10489000F2CF992311F0882371F3805E883058F3AA
:1048A000F3CF803F40F3815F8230F9CF8091D10711
:1048B00081608093D107BCCFC91207C09091CB070C
:1048C0009E1103C0FF2009F46CC0C8010E949E091C
:1048D000882309F47DC0FF2009F47AC08091D107B4
:1048E000803278F02091CB073091CC073A8329832E
:1048F000BC82AB827D821E828F83CE0101960E9494
:10490000931C87E0F801ABECB7E001900D928A951B
:10491000E1F75BCF8091D107803150F48BEC97E0C9
:104920000E94931C87E0F40111928A95E9F780CFE9
:10493000CC2009F44CCF2091CC0791812913C5CF0D
:104940009091CB079E11C1CFF110BFCF8683C801D4
:104950000E94931C87E0F40111928A95E9F737CF02
:104960002F3A3105F8F6CC2009F431CFFF2081F140
:104970009091CC078181981321C08091CB078E1133
:104980001DC08091D10780FD10C0803170F08683FA
:10499000807F803F39F08681982F907F905F8F7065
:1049A000892B8683C8010E94931C87E0F801ABEC39
:1049B000B7E001900D928A95E1F709CFC8010E94F6
:1049C0009E0981119ECF8091D10781608093D1078C
:1049D000C8010E94931CFBCEABE1B0E0E2EFF4E231
:1049E0000C94B2324E8B5F8B688F798F8A8F9B8F3E
:1049F000911110928B071D8A86E0FE017696DE01EA
:104A00001F9601900D928A95E1F78091D30782FF5E
:104A10001FC00E944C1620918D0730918E07821B7B
:104A2000930B8838934138F080918C0782FD03C046
:104A300082E00E94E2060E944C1620918F0730917E
:104A40009007821B930B8838934110F00E94060751
:104A50008B89882329F061E0CE010F960E946F09AF
:104A600087E0FE013F96DE01189601900D928A952F
:104A7000E1F7CE0108960E94AD23811110C087E0B6
:104A8000FE013896DE01119601900D928A95E1F7AC
:104A900020919107409192078C8581110BC017E0FE
:104AA000809192079091910789132EC06B96E3E055
:104AB0000C94CE3230E0C90101968770992750E0FE
:104AC0008417950771F40E94201910929107109293
:104AD000920787E0EBECF7E0DF011D928A95E9F79A
:104AE000DECF97E0929FD001939FB00D1124AD5679
:104AF000B84FFE01319601900D929A95E1F780939F
:104B000091070E94D806CBCF189FC00111248D5663
:104B1000984F0E94AD23882349F28091920790E03C
:104B200001968770992780939207BACFA6E0B0E0EC
:104B3000ECE9F5E20C94B1320E944C168C018091A4
:104B40001B0790911C078017910779F019821A8230
:104B50000E944C16BC0149815A8180E090E00E947D
:104B6000EC2410931C0700931B072696E4E00C949A
:104B7000CD32A0E1B0E0EFEBF5E20C94A8321A825E
:104B80001982FE01339686E0DF011D928A95E9F7CE
:104B900083E0A82E82E0B82E8E010F5F1F4F4801E0
:104BA000EE24E394F12C2DE0C22E22E0D22EF5016A
:104BB00081915F018F3F09F441C0F894E82FE2959D
:104BC000EF70F0E021A18F70A70102C0440F551FC4
:104BD0008A95E2F7CA01922F982B91A392A1809512
:104BE000892382A3789400C0E7E0F2E031E0712CE1
:104BF00021912F3F09F497C0A22FA295AF70A05E1C
:104C0000B0E08C9190E02F7002C0959587952A9521
:104C1000E2F78170811187C0832F782A330FCE1677
:104C2000DF0631F7F501319780818F3F11F00E9447
:104C3000C60950EA5A95F1F7D8017C920F5F1F4FD1
:104C4000B7E0AB16B2E0BB0609F0B1CF48E050E0E8
:104C5000B40188E394E00E942B330091410410E0FA
:104C600002591B4F892B09F460C088E0F401A8E3C6
:104C7000B4E001900D928A95E1F781E08093690399
:104C80000E944C16909368038093670380911507E8
:104C9000882309F4A3C01A8619861C861B86809176
:104CA00072038A3008F063C07E01E9E0EE0EF11C69
:104CB0004BE351E1B701C8010E941B106701882333
:104CC00009F47AC04CE051E1B701C8010E941B1001
:104CD000882309F471C04CE650E1B701C8010E9475
:104CE0001B10882309F468C04BE151E1B701C801EA
:104CF0000E941B10882309F45FC0109272038091F8
:104D0000400490E044E050E0B60182599B4F0E947D
:104D10002B3321E020936603892B09F03FC0609676
:104D2000EDE00C94C43280E078CF80916903882351
:104D300009F4ACCF80916703909168030E94231C13
:104D4000059708F4A3CF44E050E068E374E0C8019D
:104D50000E942B33892B41F084E0E8E3F4E0D80192
:104D600001900D928A95E1F7109269038FCF80919F
:104D70006403909165030E94231C843F914008F0D6
:104D800093CF80916603882351F2FE01399684E027
:104D9000DF011D928A95E9F710926603E0914004C5
:104DA000F0E0E259FB4F89859A85AB85BC8580830D
:104DB0009183A283B383B3CF809172038F3F39F481
:104DC0000E944C169093650380936403DACF8F5F43
:104DD000809372038A3008F492CFF2CFE0904004BF
:104DE000F12CF701E259FB4F7F01F801808191819D
:104DF000A281B3818093000790930107A0930207DB
:104E0000B093030780E097E00E94360E8093FF0680
:104E10008091040790910507A0910607B0910707BC
:104E2000F70180839183A283B383C0900807D09059
:104E30000907E0900A07F0900B07809160039091BA
:104E40006103A0916203B0916303C816D906EA0614
:104E5000FB06B1F0C0926003D0926103E09262035E
:104E6000F09263030E94BB0CC61AD70AE80AF90A3B
:104E7000C0921707D0921807E0921907F0921A070C
:104E800088E0ECE0F7E0ABE7B7E001900D928A959F
:104E9000E1F745CFCDB7DEB762970FB6F894DEBF26
:104EA0000FBECDBF85B7806885BF85B7806885BFD9
:104EB00084B7877F84BF0FB6F894A895809160006F
:104EC000886180936000109260000FBE80E890E0DF
:104ED0000FB6F89480936100909361000FBE81E05B
:104EE0008093440184EC99E09093370380933603D8
:104EF0000E94170E0E94110F8091E200846080933F
:104F0000E200789480916D04882399F08091E90003
:104F10001091EC001795112717958F70182B109290
:104F2000E9008091E80083FD0E9467191F701093CB
:104F3000E90082E084BD93E095BD9AEF97BD809330
:104F40006E0010921707109218071092190710920E
:104F50001A078091D80080618093D8002AE12A95B1
:104F6000F1F700C08091D90080FF42C281E08093B8
:104F7000150780931607809305010E942C318091BC
:104F800005018091050191E08927880F880F8093A2
:104F9000410494E0981B9093400484E90E94C60960
:104FA00086E60E94C60987E90E94C60986EC0E942F
:104FB000C60907E012E09DE0C92E92E0D92ED80183
:104FC0008D918D018F3F11F00E94C609C016D10648
:104FD000B1F788E0EEE6F4E0DF01482E1D924A9436
:104FE000E9F7E8E3F4E0DF011D928A95E9F780E054
:104FF00090E00E946033853E9E4F09F461C065EEEB
:105000007EEF80E090E00E94943360E082E090E0E8
:105010000E94763381E090E0909388078093870721
:1050200061E083E090E00E94763360E074E184E028
:1050300090E00E94943360E086E090E00E94763336
:1050400060E087E090E00E94763340E050E0BA01F3
:1050500088E090E00E94883360E083E290E00E9464
:10506000763360E08CE090E00E94763360E08DE083
:1050700090E00E94763319821A821B821C821D8264
:105080001E821F82188648E050E067E170E0CE0182
:1050900001960E94663340E050E0BA018FE190E053
:1050A0000E94883340E050E0BA018FE090E00E9417
:1050B000883340E050E0BA0183E190E00E948833F9
:1050C00082E090E00E94583380939F0484E090E057
:1050D0000E9460339093D3078093D20783E090E0DF
:1050E0000E94583390E00E9443060E94790B109270
:1050F000420440E150E06FEF70E08BE594E00E94E5
:1051000041331092760440E150E06FEF70E08FE899
:1051100094E00E94413381E08093830748E050E0AF
:1051200067E170E08BE797E00E94483310928307B5
:1051300080917B078430F8F485E080937B07809131
:10514000480190914901A0914A0180937C07909376
:105150007D07A0937E078FE780937F078FEF809373
:10516000800748E050E067E170E08BE797E00E943D
:105170006633109283078091150791E08927880F85
:105180008093DA0680E88093B2040E94B02F6BE02F
:1051900070E082E798E00E941315882309F443C069
:1051A0008091DA0665E070E081FD2DC18DE698E022
:1051B0000E9413158823B9F16DE070E08BE598E04B
:1051C0000E941315882379F10E94BB0C69877A87A6
:1051D0008B879C87DC01CB01805A9541AF4FBF4F35
:1051E0008093DE069093DF06A093E006B093E1067D
:1051F000EAEDF4E080E092E0DF019C011D92215095
:105200003040E1F7F093B104E093B0048FEF9FEFEB
:105210009093DD068093DC0681E08093E506809321
:10522000E2061092DB0680911507811102C00E94F0
:105230002F3186E091E090933E0780933D07CE01A9
:105240000196898B9A8B80916D04853069F410E406
:1052500000E182E1F82E80916D04853009F4D6C01A
:105260000E9420190E94FA0B0E94B925A0EAB4E01E
:10527000BA87A987EEE6F4E0FE87ED87DF01E0EA72
:10528000F4E091918D9118EA412E14E0512E4E16C2
:105290005F0609F4F3C09817A1F320901507ADE05D
:1052A000AA2EA2E0BA2ED12CAD85BE85CD90BE87A8
:1052B000AD87E985FA853190FA87E9873C14B1F129
:1052C0003C244501512C44244394832D842188237C
:1052D00009F11C2D14212220A1F05982DA820E94AA
:1052E0004C169C838B83F1E0FD8391E0111101C08A
:1052F00090E09E8349815A816B817C818D810E94DF
:10530000EC248091760411111BC1FE2C893008F029
:1053100047C1EF2C5394440CEFEF8E1A9E0AF6E02F
:105320005F12D3CFE985FA853197C082D39426E006
:10533000A20EB11C38E0D312B7CF0E94D80CF09067
:105340001507F110A5C00E94DD11F090E506FF20C1
:1053500009F4F3C08091E3069091E4060E94231CB7
:10536000C29708F40EC20E944C169093E4068093F4
:10537000E3068AED94E09093B1048093B0048091A9
:105380001507882309F4E1C280E199E00E94111613
:105390008091890790918A07292F3327E0E0211512
:1053A000310511F0C901E8E09C01B4E0369527957C
:1053B000BA95E1F72115310511F0EC5FC9019C01A7
:1053C00036952795369527952115310511F0EE5F15
:1053D000C90196958795892B09F0EF5F85EC98E0D8
:1053E000E83008F08DC1F0E0E35FFB4C0C941C3317
:1053F0000E94170E10926D04109215071092160756
:1054000010920501BCCD88E698E0D2CE80916D0463
:10541000843039F10E94DD110E94201510926B0436
:1054200048E150E00FB6F894A895409360000FBE95
:105430001093600083B7817F846083BF83B78160EE
:1054400083BF7894889583B78E7F83BF0FB6F89417
:10545000A895809160008861809360001092600040
:105460000FBE0E94B925EEE6F4E081918111B3C32D
:1054700086E794E08E179F07C1F7EDCE98130DCF06
:105480000E949625F0901507FF2009F4BCC0F12C6E
:1054900000917107109172070115110509F444C0BC
:1054A0008091AC049091AD04A091AE04B091AF0492
:1054B000BC01CD010E940B0D69877A878B879C8781
:1054C0008091A8049091A904A091AA04B091AB0482
:1054D00049845A846B847C84481659066A067B0684
:1054E00018F1C8010E9419069801205E3109283080
:1054F000310508F000C10E94EA16802F0E941F1893
:1055000010927107109272071092AC041092AD04C1
:105510001092AE041092AF041092A8041092A90445
:105520001092AA041092AB040E94DD118091E5064E
:10553000811110CFFF2009F46CC00E94321569C0A0
:10554000D401FC90BFEFFB1609F4DFCE01E010E0C0
:10555000EE24E394883038F5409176048F2D90E066
:10556000242F30E0F901EA58FB4FDC01AA0FBB1FE2
:10557000A35CBD4F5C915183880F991FDC01A35F31
:10558000BD4FD1968C918187F18AF901EE0FFF1FF3
:10559000EA58FB4F128E118E4F5F40937604B9CEBE
:1055A00000E010E0E12C78E0672E712C601A710A9F
:1055B000B80169587B4FA30187E794E00E94383314
:1055C000B80161587B4FA3018FE794E00E94383304
:1055D000A301440F551FB801660F771F61577B4F1A
:1055E0008FE894E00E943833B80169577B4FA301DC
:1055F00087E894E00E94383388E08E19809376041F
:10560000E110AACF86CE0E94DD118091E5068111BE
:10561000A1CE86E0E2E6F7E0A989BA8901900D9271
:105620008A95E1F7B09063070091640710916507D0
:10563000D0906607F0906707109264071092650794
:105640001092660710926707812F802B882379F0CC
:105650008091E8069091E9060E94231C9C018091AC
:10566000600781113CC22B30310508F03EC28D2D00
:105670008F29882379F08091E6069091E7060E94B1
:10568000231C9C0180915F07811167C22B3031057B
:1056900008F069C280916307B81216C08091640750
:1056A000882311F0801310C090916507992311F0A1
:1056B00091130AC020916707211106C02091660747
:1056C000211102C0892B81110E94321786E0E989DD
:1056D000FA89A2E6B7E001900D928A95E1F70E945F
:1056E000FA0B9091EA06891709F4ADCD8093EA068A
:1056F0000E94BB0CA8CD0E94FB16FFCE88E099E06B
:105700000E941F1680916B07805D0E945F1583ECDD
:1057100098E00E94111680916A07805D0E945F15D3
:105720008FEB98E00E9411168091680790916907AD
:1057300020911001309111018217930709F075C073
:105740002091B904203209F070C0E3EBF4E06F015E
:1057500081918032E1F3F60101900020E9F78F0199
:1057600001501109C016D10608F4E9C08DEB98E08C
:105770000E941116809145010E945F1581E00E94F0
:10578000DF158091DC069091DD06892B99F08091E0
:10579000E506882379F08091DB0681110BC00E9419
:1057A00032152091DC063091DD0680E021153105AF
:1057B00009F0D1C08091E206882309F4BBCE0E9493
:1057C000BB0C69877A878B879C878091DE069091D6
:1057D000DF06A091E006B091E10649845A846B840B
:1057E0007C84481A590A6A0A7B0A2FEF421652062D
:1057F00062062FE7720608F09DCE0E9420159ACE11
:1058000081E099E07DCF89EF98E07ACF8EEE98E045
:1058100077CF83EE98E074CF89ED98E071CF81ED7A
:1058200098E06ECF8BEC98E06BCF90931101809352
:10583000100120E22093B9049C0140E050E0298748
:105840003A874B875C871092B80478EBC72E74E0D8
:10585000D72EEAE08E2E912CA12CB12CCA01B901D1
:10586000A50194010E94FA326D877E878F87988BFD
:105870008D85805D4D845E846F84788800E010E0C3
:1058800045284628472861F567EBC62E64E0D62EEA
:105890008093B70429873A874B875C8769857A8527
:1058A0008B859C85A50194010E94FA326D877E87C5
:1058B0008F87988B8D85805D2D853E854F85588996
:1058C00001E010E0232B242B252B51F480E24984A6
:1058D0005A846B847C8445284628472809F080E355
:1058E0009AE0892E912CA12CB12CD6018E936D01BA
:1058F00069857A858B859C85A50194010E94FA3281
:1059000029873A874B875C870F5F1F4F053011054A
:1059100009F41BCFCA01B901A50194010E94FA3212
:105920006D877E878F87988B8D85805D4D845E84A3
:105930006F847888452846284728B9F6C7CFD6010E
:105940008D916D010E945F150DCF8DE798E00E944B
:10595000111617CF8F5F082F10E0CC24C394D12CE1
:10596000082E02C0CC0CDD1C0A94E2F7A6014223EB
:105970005323452B79F39091DA0690FD43C09801AB
:105980003695279536952795922F8295880F8076A4
:105990003FE1380F809314012093170130931501D4
:1059A0009093180124E630E047E050E062E171E0B6
:1059B00088E70E94E62F892B09F0FCCEA801F5E0CC
:1059C000440F551FFA95E1F78091DA0680FD22C059
:1059D00046525B4F04E610E020E230E060E488E7E6
:1059E0000E947E30892B09F0E5CEC094D09480913E
:1059F000DC069091DD06C822D922D092DD06C09245
:105A0000DC06D8CE880F880F880F37E0380F20E0EB
:105A100093E0C0CFEAEBF4E080E2DF011D928A95CB
:105A2000E9F7E3EEF2E0FA87E9876FED72E037EE2F
:105A3000232E32E0332EE7E08E2EE985FA85A19100
:105A4000FA87E987FB018191BF01840F952F911D92
:105A50009C0126523B4F2901EA2FF0E0E654FB4F10
:105A600080E090E0682C681A99249394082E01C075
:105A7000990C0A94EAF78201A12CD801BD908D01FE
:105A8000B920262D2A19277030E0BB2D022E01C027
:105A9000BB0F0A94EAF73195219531092770332716
:105AA00001C0B6942A95EAF7BB2A20812B292083CE
:105AB000A39428E0722EA710E0CF0196319688308B
:105AC000910581F629853A852216330609F0B5CF6E
:105AD00004E610E020E230E04AEB54E07FCF2531CD
