:100000000C942A060C9447060C9447060C94D332A1
:100010000C9447060C9447060C9447060C9447062C
:100020000C9447060C9447060C94892F0C9471305D
:100030000C9455160C9447060C9447060C944706EE
:100040000C9447060C9447060C9447060C944706FC
:100050000C9447060C94652F0C9447060C944706A5
:100060000C9447060C9447060C9447060C944706DC
:100070000C9447060C9447060C9447060C944706CC
:100080000C9447060C9447060C9447060C944706BC
:100090000C9447060C9447060C9447060C944706AC
:1000A0000C9447060C9447060C94470600AF00AE2C
:1000B0000000000000003E5B4F5B3E003E6B4F6B5C
:1000C0003E001C3E7C3E1C00183C7E3C18001C5729
:1000D0007D571C001C5E7F5E1C0000183C18000051
:1000E000FFE7C3E7FF00001824180000FFE7DBE785
:1000F000FF0030483A060E00262979292600407F65
:1001000005050700407F05253F005A3CE73C5A00A3
:100110007F3E1C1C0800081C1C3E7F0014227F220E
:1001200014005F5F005F5F0006097F017F000066CB
:1001300089956A0060606060600094A2FFA29400EC
:1001400008047E04080010207E20100008082A1CE5
:100150000800081C2A0808001E10101010000C1EB1
:100160000C1E0C0030383E383000060E3E0E0600E5
:1001700000000000000000005F0000000007000712
:100180000000147F147F1400242A7F2A12002313F6
:10019000086462003649562050000008070300003A
:1001A000001C224100000041221C00002A1C7F1C70
:1001B0002A0008083E080800008070300000080887
:1001C0000808080000006060000020100804020019
:1001D0003E5149453E0000427F4000007249494976
:1001E00046002141494D33001814127F1000274565
:1001F000454539003C4A4949310041211109070070
:10020000364949493600464949291E000000140074
:1002100000000040340000000008142241001414C3
:1002200014141400004122140800020159090600A8
:100230003E415D594E007C1211127C007F494949B4
:1002400036003E41414122007F4141413E007F490D
:10025000494941007F09090901003E4141517300AC
:100260007F0808087F0000417F4100002040413F97
:1002700001007F08142241007F40404040007F027F
:100280001C027F007F0408107F003E4141413E0078
:100290007F09090906003E4151215E007F091929A5
:1002A000460026494949320003017F0103003F40CF
:1002B00040403F001F2040201F003F4038403F008B
:1002C0006314081463000304780403006159494D62
:1002D0004300007F4141410002040810200000411A
:1002E00041417F00040201020400404040404000C0
:1002F0000003070800002054547840007F2844443D
:100300003800384444442800384444287F00385496
:100310005454180000087E0902001824241C780098
:100320007F080404780000447D4000002040403DE8
:1003300000007F102844000000417F4000007C0442
:10034000780478007C080404780038444444380079
:100350007C1824241800182424187C007C08040429
:10036000080048545454240004043F4424003C40F2
:1003700040207C001C2040201C003C4030403C00C1
:100380004428102844004C9090907C004464544CC5
:1003900044000008364100000000770000000041E2
:1003A000360800000201020402003C2623263C001D
:1003B000000000000000000000000000000000003D
:1003C000C0E0F0F8F81800C0F0FCFEFFFFFFFFFFF0
:1003D000FFFF7E00000000000000000080C0E0E0A1
:1003E000E0E0E0E0E0E0C0800000000080C0E0E08D
:1003F000E0E0E0E0E0E0C080000000E0E0C0C0E05D
:10040000E0E0E00000E0E0C0C0E0E0E0E0E0C0806C
:100410000000000080C0E0E0E0E0E0E0E0E0C0805C
:100420000000000000000000000000000000E0F0FC
:10043000F0F0E0ECEEF7F37020007C7C7C7E007E38
:100440007E7E7F7F7F000080C0E07E5B4F5BFEC0D2
:100450000000C000DCD7DEDEDED7DC00C00000001C
:10046000000000000000000000000000000000008C
:10047000000000000000000000F8FCFEFFE000FFAC
:10048000FFFFFFFFFF80FFFFFFFFFFFFFFFFFF1FDB
:100490000701000000000000000000FFFFFF8100D6
:1004A000000000000081C3C3C30000FFFFFF810004
:1004B000000000000081FFFFFF0000FFFFFF0100C0
:1004C0000000000000FFFFFF010000000001FFFF2F
:1004D000FF0000FFFFFF9D1C1C1C1C1C1C9DDFDF80
:1004E000DF000000000000000000000000000F1FFF
:1004F0003F7F7F7F7F7F3F1E0C001F1F1F3F003FFE
:100500003F3F7F7F7F00307B7F7830202030787FB7
:100510003B0003000F7F0F0F0F7F0F000300000051
:1005200000000000000000000000000000000000CB
:10053000000000000000000000030F1F3F3F3F3F8E
:100540001F1F3F3F7F7F7F3F3F1F3F7F7F7F7F7C1E
:100550007878381C0F000000000000000103070736
:10056000070707070707030100000000010307074B
:100570000707070707070301000000070707000038
:100580000000000000070707000000000000070748
:100590000700000001030707070707070707030114
:1005A000000000000000000000000000000000004B
:1005B000000000000000000000000000000000003B
:1005C000000000000000000000000000000000002B
:1005D000000000000000000000000000000000001B
:1005E000000000000000000000000000000000000B
:1005F00005010902A10185020901A10005091901EE
:1006000029081500250195087501810205010930A9
:1006100009311581257F95027508810609381581F4
:10062000257F950175088106050C0A38021581257C
:100630007F950175088106C0C005010980A101856B
:100640000319012AB700150126B70095017510811D
:1006500000C0050C0901A101850419012AA0021599
:100660000126A002950175108100C005010906A1AF
:10067000018506050719E029E7150025019508758C
:100680000181020507190029EF1500250195F07574
:100690000181020508190129059505750191029549
:1006A0000175039101C005010906A101050719E0C3
:1006B00029E7150025019508750181029501750846
:1006C00081010507190029FF150026FF0095067511
:1006D00008810005081901290515002501950575F2
:1006E000019102950175039101C009023B000201CD
:1006F00000A0FA0904000001030101000921110111
:1007000000012244000705810308000109040100DB
:10071000010300000009211101000122B6000705B4
:10072000820320000112010002000000085346016C
:10073000000100010200010C0343006F0072006E13
:100740000065000000100366006F006F0073007406
:100750000061006E000000040309040001010101B2
:10076000010101010102020202020202020203036C
:10077000030303030303040404040404040505053C
:1007800005050606060606070707070708080808FE
:10079000090909090A0A0A0B0B0B0C0C0C0D0D0DAB
:1007A0000E0E0E0F0F0F1010111111121213131441
:1007B00014151516161717181819191A1A1B1B1CB9
:1007C0001D1D1E1E1F202021222223242425262613
:1007D000272829292A2B2C2D2D2E2F303132323348
:1007E0003435363738393A3B3C3D3E3F4041424351
:1007F0004445464748494A4C4D4E4F505153545535
:100800005658595A5B5D5E5F616264656668696BE4
:100810006C6D6F7072737577787A7B7D7E80828362
:100820008587888A8C8E8F91939596989A9C9EA0A6
:10083000A2A3A5A7A9ABADAFB1B3B5B7BABCBEC0B3
:10084000C2C4C6C9CBCDCFD1D4D6D8DBDDDFE2E47C
:10085000E7E9EBEEF0F3F5F8FAFDFF00DA0281FFCD
:10086000D9F1DB20A4A62EAF00A0C0D30000A1C800
:10087000D30000AED580A81F408D14200080818257
:10088000838485868788898A8B8C8D8E8F909192C0
:100890009394A0A1A2A3A4A5A6A7A8A9AAABACAD16
:1008A000AEAFB0B1B2B3B4C0C1C2C3C4C5C6C7C88D
:1008B000C9CACBCCCDCECFD0D1D2D3D4003A002C24
:1008C000206B007800556E646566004D4F555345AA
:1008D0000053594D424F4C530046554E4354494FD7
:1008E0004E5300544F47474C45204E4156004E4111
:1008F0005649474154494F4E004E554D424552537B
:100900000051574552545900434F4C454D414B00FF
:100910004C617965723A20002E0214001A00090019
:1009200013000500292104001500160017000A0015
:10093000E1001D001B000600070019000000000078
:1009400000002B452C4328422F0033001C001800C8
:100950000F000D00343112000C00080011001000CF
:1009600032325400370036000B000E000000000049
:10097000000024522A464C472B0014001A0008009D
:1009800015001700292104001600070009000A00BD
:10099000E1001D001B00060019000500000000001A
:1009A00000002B452C0028422F00130012000C00E1
:1009B00018001C00343133380F240E310D320B0077
:1009C00032325400370036001000110000000000E1
:1009D000000024522A464C472B001E001F00200016
:1009E000210022006252E300E200E000E100000783
:1009F000E1001D011B0106010701000F00000000BE
:100A0000000025522C43280038002700260025002E
:100A1000240023002D00360223002200210036008E
:100A20001F02370220001F001E00370000000000D8
:100A300000003844274627022B001E021F1409011C
:100A400013010505E000A852A452A152A2521701B9
:100A5000E1001D011B010601070119010000000052
:100A6000000000000000000038002E004D004B0088
:100A70004E004A002D0036024F0052005100500037
:100A80001F0237020000A900AA00000000000000B9
:100A9000000038003802270230141E021F142514EB
:100AA00026142002300023022114250226022202ED
:100AB0002D1464143002640064023202000000004D
:100AC0000000390067526252000000004D004B00E8
:100AD0004E004A00E40000004F0052005100500058
:100AE000E50000000000A900AA00000000000000CE
:100AF0000000000000000000557C00000000000025
:100B000000002078537CE300E200E000E1000052A6
:100B1000567C237825782778217801520000000040
:100B2000000000000000000038002E0042004100DC
:100B3000400045002D0036023F003E003D004400CD
:100B40001F0254003C003B003A004300000000003C
:100B5000000039002A004C0030141E021F14251416
:100B6000261420023000230221142502260222022C
:100B70002D1464143002640064023202000000008C
:100B800000002B002C0028000000000000000000E6
:100B900000000000E400A852A452A152A25200009A
:100BA000E500000000000000000000000000000060
:100BB00000000000000000002B0000000000CD003D
:100BC0000000D9006752DB00CF00CE00D000DC006F
:100BD00000000000000000000000DA00000000003B
:100BE0000000D300D100D200000000002B014F0410
:100BF00050042B03E400E3004F24523151325000E3
:100C0000DF00DE00DD00D200D100D30000000000D4
:100C100000000000000000002020202061626364CA
:100C200065666768696A6B6C6D6E6F7071727374FC
:100C300075767778797A31323334353637383930DA
:100C4000524542545F2D3D5B5D5C233B27602C2E5B
:100C50002F20202011241FBECFEFDAE0DEBFCDBF52
:100C600013E0A0E0B1E0E8EEFAE602C005900D92D4
:100C7000AA33B107D9F72BE0AAE3B3E001C01D9274
:100C8000AB35B207E1F70E94A9280C94F9340C9413
:100C900000009C019A9581159F4118F5F901EE27F6
:100CA000F270832F8170B90166277470A9014427FF
:100CB000587034FF0CC08295807FEF2B09F0806262
:100CC000672B09F08064452B69F080680895EF2B4D
:100CD00009F08260672B09F08460452B19F0886069
:100CE000089580E0089590930F0B80930E0B089564
:100CF0009093110B8093100B089521E030E002C017
:100D0000220F331F8A95E2F78091100B9091110BFF
:100D1000822B932B0E947806089521E030E002C0D8
:100D2000220F331F8A95E2F7209530958091100BA2
:100D30009091110B822393230E9478060895983096
:100D400098F5863088F5E82FF0E086E0989FE00D72
:100D5000F11D11248E2F877041E001C0440F8A9548
:100D6000EAF783E0F695E7958A95E1F7EE0FFF1F26
:100D7000EE0FFF1FE55BF84F20E030E070E051918F
:100D8000DF011197CB01022E02C0969587950A9438
:100D9000E2F7817081958527842385278C932F5FC7
:100DA0003F4F2430310559F70895983078F5863053
:100DB00068F5E82FF0E086E0989FE00DF11D112422
:100DC0009E2F977083E0F695E7958A95E1F7EE0FF1
:100DD000FF1FEE0FFF1FE55BF84F40E050E080E0A3
:100DE000219130E0092E02C0369527950A94E2F74A
:100DF00021703327042E01C0220F0A94EAF7822BB8
:100E00004F5F5F4F4430510559F7089580E00895D2
:100E10008091190B9091180B981301C008958F5F62
:100E20008770FACF9091130B809589238093130BD1
:100E3000282F2770211111C0891779F090915A0B32
:100E400092FF0BC08695869586950E948D0610921E
:100E5000130B1092150B1092140B0895982F909568
:100E600080910C0B892380930C0B089580910B0BC0
:100E7000882331F010920B0B1092170B1092160B67
:100E800008957830B8F46630A8F48830B0F4E62FCE
:100E9000F0E096E0799FE00DF11D112490E3899F29
:100EA000E00DF11D1124EE0FFF1FE85EF64F859156
:100EB0009491089580E090E0089581E0FCCF803E19
:100EC0009105D1F1C8F48133910509F47FC048F44C
:100ED0008932910509F46FC08A32910509F47DC009
:100EE000089589339105E1F082389105C9F0853381
:100EF000910509F45BC00895843E9105D1F148F451
:100F0000823E910531F1833E910541F181EE90E001
:100F10000895863E9105C1F1873E9105E1F108955E
:100F20002091590B2370211165C020915A0B23FF8A
:100F300014C089E290E008952091590B20FD43C030
:100F400030915A0B30FF09C024FF4EC080E090E082
:100F500008952091590B22FDF7CF08952091590B48
:100F600022FD45C030915A0B30FD44C024FFF5CF1F
:100F7000EDCF20915A0B21FFF0CF8091590B84FDCA
:100F8000E5CF87EE90E008952091590B23FFE5CF40
:100F900024FDDCCFF6CF2091590B23FD2EC03091DC
:100FA0005A0B31FFE3CF84EE90E008952091590B66
:100FB00025FFD3CFBECF2091590B25FD21C0209115
:100FC0005A0B23FFCACF89E390E008952091590B73
:100FD00026FFC3CF8AE290E008952091590B26FFA7
:100FE000BCCF81E390E0089583EE90E0089582EE17
:100FF00090E0089580EE90E0089586EE90E00895E8
:1010000085E390E0AACF9091590B92FF10C041E088
:10101000282F2471243009F040E031E0282F287176
:10102000283009F030E0431711F02CE0822793FFBD
:1010300010C041E0282F2471243109F040E031E054
:10104000282F2871283109F030E0431711F02CE0E7
:10105000822730915A0B30FF10C051E0282F2171A8
:10106000213009F050E041E0282F2871283009F0A4
:1010700040E0541711F029E0822731FF10C041E011
:10108000282F2171213109F040E031E0282F28710B
:10109000283109F030E0431711F029E0822794FD50
:1010A000877E08951F93CF93DF930E945F07EC0123
:1010B000811522E5920708F053C0811540E5940799
:1010C00008F0DDC0803E9105F8F48D3C910508F0F4
:1010D000AEC0883A910580F4853A910508F099C030
:1010E0008130910521F00497813A910550F4CE01A9
:1010F000DF91CF911F910895885A91094B9708F479
:101100008BC0C0E0D0E0F3CF811550E49507F8F430
:10111000C11580E2D80708F0CBC0C83ED10538F32E
:10112000CE019A9581159F4160F78D2F0E9403088B
:10113000182FCE0199270E945F07212F30E0322F10
:101140002227E901CC27DF71C82BD92BD0CF9927D3
:101150000E945F07CC27DF70C82BD92BD06AC7CF7E
:10116000803842E59407C8F5803652E5950708F0C7
:1011700067C0C03482E5D807B0F08C2F869586957D
:10118000877020E2829FC0011124C37021E030E00B
:10119000A90102C0440F551FCA95E2F7EA01C82B06
:1011A000D92BDC68A4CFC03252E5D50708F041C086
:1011B0008C2F8695869520E2829FC0011124C370F2
:1011C00021E030E0A90102C0440F551FCA95E2F7A3
:1011D000EA01C82BD92BDD688ACF803C52E5950700
:1011E00060F48F71C03AD24508F03FC090E0982F6C
:1011F0008827EC01C46FD06A7ACF805C92458097D3
:1012000008F07FCFDC2FCC27CC27DF71C06FD06AEE
:101210006ECFA497D0646BCFC85AD0E0CC0FDD1F3F
:10122000C351DD4F0990D881C02DD46460CFD06503
:101230005ECFCF71D0E0DC2FCC27C16FD06A57CF03
:1012400086958695877020E2829FC0011124C37025
:1012500021E030E0A90102C0440F551FCA95E2F712
:10126000EA01C82BD92BDA6842CF0E940308C82FA5
:10127000D0E0DC2FCC27CC27DF71D06238CF8F7144
:101280000E94030865E0D695C7956A95E1F7CF708F
:10129000D0E0DC2FCC27282F30E084FF05C054E0BD
:1012A000220F331F5A95E1F7C22BD32BD0691FCFE2
:1012B0008D2F8F710E940308182FCE0199270E944D
:1012C0005F07212F30E0322F222722273F71282B62
:1012D000392BE901D2CFA0E0B0E0E1E7F9E00C94CE
:1012E0000B348C01E090100BF090110B80910E0BE1
:1012F00090910F0BE82AF92ACFE0D0E0CC24C394D8
:10130000D12CC6010C2E02C0880F991F0A94E2F757
:101310008E219F21892B49F4219798F7B12C8B2D91
:10132000CDB7DEB7E9E00C942734BC2EB8018C2F82
:101330000E9441070E945208019771F3F0CF0F936A
:101340001F93CF93FC01858100811181882391F047
:10135000662381F0C8010E946B09C82F682FC8015D
:101360000E949F06B8018C2F0E944107CF911F91C8
:101370000F910895C8010E94D506C82FF3CFCF93CF
:10138000DF93D82FC92F0E946B096D2F7C2F0E94ED
:1013900041070E945208DF91CF910895FC0184819A
:1013A0008823A1F0808191810E94BF09282F929506
:1013B0009F70963091F060F4925F9F70923030F49D
:1013C00081E0203F79F030F4283E30F080E004C026
:1013D0009A5FF3CF243FD1F7089581E0283E18F0BB
:1013E000213FF9CF0895089580E00895F894E82FFB
:1013F000E295EF70F0E041A18F7021E030E0B9019B
:1014000002C0660F771F8A95E2F7CB01962F909561
:10141000942391A392A1892B82A378940895A0E0AC
:10142000B0E0E5E1FAE00C940C34E82FF0E0E55A86
:10143000F84F711109C0E4918E2F7E2F6E2FCDB71A
:10144000DEB7E8E00C942834262F30E0C72FD0E038
:10145000F491EF2F86E0829F8001839F100D11246D
:10146000EE24EA94F12CC801B7010E94EE33AB01DF
:10147000220F331F65E5649FC001659F900D112405
:10148000281B390B822F880F280FC7018C1B9D0B3F
:10149000F89FD001F99FB00D11248B2F2C9FB00124
:1014A0002D9F700D1124672F77276701C61AD70A61
:1014B000B601F69F6001F79FD00C1124B701621BA3
:1014C00071099B012C9FB0012D9F700D3C9F700DE9
:1014D0001124672F77279701261B370BF29FE00116
:1014E000F39FD00D11247D2F43305105C9F00C3FDF
:1014F00093E0190758F441305105B1F042305105DD
:1015000009F09CCFEB2F8D2F7F2F98CF44305105C2
:1015100071F04630510509F491CF7B2F8D2D8ECF80
:101520007D2DEB2F8F2F8ACF7F2FED2D87CFED2FA6
:101530007B2FF8CF982F80911A07882329F081E01C
:101540009B3108F080E0089581E09533FACF9C014B
:1015500080E090E0269F812D369F800D911D112403
:101560000895982FE82F96FDE0958E2F8F7096FDA9
:101570008F5FE695E695E695E670F0E0E150FE4F68
:101580002181289F202D812D112422952F70829555
:10159000807F282B8081820F97FD81958058089548
:1015A0001F93CF93DF93D62FC72F182F822F8695A7
:1015B0000E94B10A805887FD8195880F282F219FAE
:1015C000212D1124822F6D2F7C2FDF91CF911F9120
:1015D00008950F931F93522F10E0F801EE0FFF1F95
:1015E000EF5EFD4FA1A9A052BB0B9D015203F0017C
:1015F000539FF00D1124000F111FD801AF5BBD4F99
:101600002C912057330B4203D001439FB00D11247E
:101610009F012A0F3B1F37FF02C0215C3F4F96E01E
:10162000359527959A95E1F7620F1F910F910895CF
:1016300050E0FA01EE0FFF1FEF5EFD4F31A9440F9E
:10164000551FFA01EF5BFD4F9081931B692F660FC9
:10165000690F313210F0620F0895621B0895EF9206
:10166000FF920F939701201B31092F3F310519F08D
:1016700010F02FEF30E0322F3095482F430F08F451
:101680004FEF842F620F0F91FF90EF9008953091EC
:101690001A07311104C08B3191050CF04B970E9451
:1016A000AB0B0895FF920F931F93CF93DF93182FE7
:1016B000062FF42EC0E0D0E02F2D402F612FCE0159
:1016C0000E94470B2196C633D105B1F7CDB7DEB7DF
:1016D000E5E00C942B349BE0899F802D1124980F1A
:1016E000973308F096E320911A07211104C08B313B
:1016F00028F48BE108959C3108F09BE10895E2E025
:10170000FBE0808191E08927808310924B018091DA
:101710000A0B816080930A0B0895E2E0FBE02481CC
:1017200030E1230F08F42FEF248380910A0B8160AE
:1017300080930A0B0895E2E0FBE0248130E1231B53
:1017400008F420E0248380910A0B816080930A0BC7
:101750000895539A0895FC01EE0FFF1FE80FF91F3B
:10176000EE56FC4F6183408322830895FC018581FE
:10177000862381110AC082818823B9F0682391856C
:1017800093FF05C081E061110FC080E00895282F0C
:1017900022952F708F70282B962F92959F706F70C7
:1017A000962B81E02913F1CF089581E0FDCF282FFA
:1017B00035EB2303C001112497FF04C08058910921
:1017C000892F089580589F4FFBCF8091650780FD3A
:1017D00014C081FD14C082FD16C080916407882367
:1017E00081F08E3180F428E2829FC00111246EE1E5
:1017F00070E00E944534862F08958AE0089584E1C0
:10180000089584E0089588E208958091650780FD39
:1018100017C081FD17C082FD19C08091630788231E
:1018200099F0883298F428E0829FC001112468E280
:1018300070E00E9445346115710551F0862F0895BE
:1018400062E0FCCF64E0FACF61E0F8CF68E0F6CF69
:1018500081E0089580911907882359F0E0914107AC
:10186000F0914207309729F00190F081E02D099521
:10187000089580E00895A3E0B0E0E1E4FCE00C947A
:1018800012349C01809190039091910382179307E9
:10189000A1F03093910320939003E0914107F091E0
:1018A0004207309751F083E089833B832A83008489
:1018B000F185E02DCE01019609952396E2E00C9486
:1018C0002E34A3E0B0E0E7E6FCE00C9412349C0177
:1018D00080918E0390918F0382179307A1F030932C
:1018E0008F0320938E03E0914107F09142073097D8
:1018F00051F084E089833B832A830084F185E02DC5
:10190000CE01019609952396E2E00C942E34909135
:1019100043019130C1F49091590B97FF14C0E82F07
:10192000E695E695E695803FF8F4F0E0EC5BFC4F39
:10193000877021E030E001C0220F8A95EAF78281AA
:10194000822B82830895AEE3B3E0EFEF90E02D9118
:10195000821751F0EF3F19F4211101C0E92F9F5F69
:101960009630A9F7EF3F09F408950E2E000CFF0BF7
:10197000E45CFC4FE6CF909143019130E1F490910B
:10198000590B97FF18C0E82FE695E695E695803F3E
:10199000F0F4F0E0EC5BFC4F877021E030E0A9014F
:1019A00002C0440F551F8A95E2F7CA0180959281C3
:1019B000892382830895EEE3F3E09191891303C0B4
:1019C000DF0111971C9253E0E434F507B1F7089555
:1019D000809142010895A4E0B0E0E1EFFCE00C94B6
:1019E00012348FB7F89420918A0330918B03409181
:1019F0008C0350918D0329833A834B835C838FBF83
:101A000069817A818B819C812496E2E00C942E344A
:101A1000A4E0B0E0EEE0FDE00C94123480911907F0
:101A2000882371F00E94EB0C69837A838B839C83FB
:101A300069817A818B819C812496E2E00C942E341A
:101A40000E94EB0C69837A838B839C8380911B07B4
:101A500090911C07A0911D07B0911E0729813A8122
:101A60004B815C81280F391F4A1F5B1F29833A83F2
:101A70004B835C83DDCFA4E0B0E0E1E4FDE00C94B7
:101A80001034462F572FBC012FB7F89480918A034A
:101A900090918B03A0918C03B0918D032FBF8C018B
:101AA0009D01041B150B260B370BC901B8012496A9
:101AB000E4E00C942C34A6E0B0E0E1E6FDE00C9408
:101AC0000E347C010091FA0A1091FB0A2091FC0A65
:101AD0002E838091FD0A8D83B801822F9D810E9403
:101AE0003B0D643F71408105910518F10E94EB0C9C
:101AF0008B018E839D8382E390E0A0E0B0E00093B1
:101B0000B0041093B1042E812093B2042D81209350
:101B1000B3048093AC049093AD04A093AE04B0934F
:101B2000AF04E092F80AF092F90A2696E6E00C94E7
:101B30002A3484EF91E0A0E0B0E0E1CFFC019B010A
:101B400080918003909181038617970740F0672B5F
:101B500029F48091E8008E778093E800C90140E085
:101B6000009741F4411106C08091E80082FF2FC028
:101B700080E00895209171042223A9F12530A9F174
:101B80002091E80023FD2DC02091E80022FDECCF3C
:101B90002091E80020FFE4CF3091F3002091F20083
:101BA000009719F02830310558F041E02830310510
:101BB00009F040E02091E8002E772093E800D0CF94
:101BC00041914093F10001972F5F3F4FE9CF809102
:101BD0007104882341F0853041F08091E80083FF53
:101BE000C3CF81E0089582E0089583E00895809155
:101BF0007A0387FF13C08091E80082FF06C08091BE
:101C0000E8008B778093E80004C080917104811113
:101C1000F2CF0895809171048823D9F38091E80070
:101C200080FFF8CF8091E8008E77ECCF2091E40020
:101C30003091E50095E6A9018091EC008170882340
:101C400031F08091E80080FF06C080E00895209187
:101C5000E80022FD1BC080917104882391F085303B
:101C600091F08091EB0085FD10C02091E40030914F
:101C7000E5004217530701F391509111DCCF84E046
:101C8000089582E0089583E0089581E00895E8EDE5
:101C9000F0E080818E7F80831092E2001092DA0063
:101CA0001092E100A0EEB0E08C9181608C93808175
:101CB0008F77808319BCA7EDB0E08C918E7F8C93D9
:101CC00080818F7E8083109279030895FC01AC019E
:101CD0004C5F5F4F8FEF91E32191822728E030E046
:101CE00087FF0BC0880F8927215031092115310545
:101CF000B9F7E417F50781F70895880FF5CF9091AC
:101D0000020B9370992391F0873008F086E0880FDA
:101D1000880F9091020B9370892B8093020B109285
:101D20004B0180910A0B816080930A0B089580918A
:101D3000020B869586958F5F873008F081E00E94C0
:101D40007F0E08959091020B969596958FEF890FCF
:101D5000913009F486E00E947F0E08959091020B65
:101D60009370992371F08093030B6093040B4937B0
:101D700008F048E74093050B80910A0B816080933F
:101D80000A0B0895E2E0FBE0818190E043816281EB
:101D900008960E94AE0E0895E2E0FBE08181438147
:101DA00062818850990B0E94AE0E0895E2E0FBE03C
:101DB000628120E1620F08F46FEF8181438190E03E
:101DC0000E94AE0E0895E2E0FBE0628120E1621B1A
:101DD00008F460E08181438190E00E94AE0E089596
:101DE000E2E0FBE0438120E1420F08F44FEF818104
:101DF000628190E00E94AE0E0895E2E0FBE0438134
:101E000020E1421B08F440E08181628190E00E9461
:101E1000AE0E0895982FE42FE2709093E900891395
:101E200008C0762F242F50E0E11111C091E0980FE7
:101E3000F4CF7091EC002091ED005091F00021FD65
:101E400006C09F5F973049F78093E900089530916D
:101E5000EB003E7F3093EB003091ED003D7F3093FF
:101E6000ED003091EB0031603093EB007093EC00AB
:101E70002093ED005093F0002091EE0027FDE1CF7C
:101E80000895A0E0B0E0E7E4FFE00C940C34C8ED66
:101E9000D0E088818F7E8883E7EDF0E080818160EB
:101EA000808384E082BF81E08093790388818E7F84
:101EB000888302EE10E0F80110821092DA0081EEC1
:101EC000C82ED12CF601108288818F778883888173
:101ED0008068888388818F7D888319BC1092710403
:101EE00010927803109270041092770390EEE92E0E
:101EF000F12CF70180818B7F8083888181608883CA
:101F000042E060E080E00E940A0FF60180818E7F4F
:101F10008083F801808181608083808188608083F4
:101F2000F70180818E7F8083888180618883CDB72F
:101F3000DEB7E8E00C942834E091190B9091180B6F
:101F400027E0E91302C080E00895AE2FB0E02E9F95
:101F5000F0011124E65EF44F3181361306C0308162
:101F6000381303C03581341304C0FD013196E77086
:101F7000E8CF81E008953BB1377F2BB128604FB7A0
:101F8000F89482E993E0FC010196508168E02BB956
:101F9000000000C057FF3BB9550F000000C000C053
:101FA00000C03BB900C06A9591F754E084339507AF
:101FB00051F74FBF8FE594E00197F1F700C00000A3
:101FC00008950F931F93CF93DF93EB018A019091B4
:101FD0007104943079F58093E9008FEF9091E800D7
:101FE00095FD07C095ED9A95F1F70000815081119C
:101FF000F5CF8091E80085FF1DC00E94160E81116B
:1020000014C08091E80085FD06C08091E8008E77BD
:102010008093E800F2CF88818093F100015011098C
:102020000115110511F02196ECCF8091E8008E7713
:102030008093E800DF91CF911F910F910895CF9386
:10204000DF93D82FC92F48E050E0682F792F81E027
:102050000E94E10F88E0ED2FFC2FA2E8B3E0019091
:102060000D928A95E1F7DF91CF910895BC0140E28E
:1020700050E082E00E94E10F0895BC0146E050E08C
:1020800082E00E94E10F0895BC0143E050E082E04D
:102090000E94E10F0895A0E0B0E0E1E5F0E10C94CA
:1020A0000A34F82EE92EB62EA72E8A0180917603E7
:1020B000CC24C394D12C8A3018F48AE0C82ED12CB9
:1020C000C1E0D0E06B2D7A2D8F2D9E2DF801099562
:1020D000811116C02196CC16DD0694F0CC9FC0016C
:1020E000CD9F900D900D112420E030E045E34A95FE
:1020F000F1F700002F5F3F4F28173907B9F7E2CFFC
:10210000CDB7DEB7EAE00C94263490915A0B92FBDF
:10211000222720F9281779F080FB92F990935A0B27
:102120006091590B70915A0B84E090E00E94F33457
:1021300082E00E9412070895A8E0B0E0E2EAF0E130
:102140000C9411348091F3069091F406A091F50659
:10215000B091F606BC01CD010E943B0D11E0643642
:1021600071058105910578F10E94080DDC01CB0114
:102170000296A11DB11D89839A83AB83BC83809194
:102180003201909133018D5F984F20913101422FA0
:1021900050E0253010F044E050E0BE016F5F7F4F0B
:1021A0000E94973483E090E00E947933182F8823AF
:1021B00051F00E94EB0C6093F3067093F406809349
:1021C000F5069093F606812F2896E3E00C942D34C3
:1021D000A6E0B0E0EEEEF0E10C940B348D837B01D1
:1021E000B42E5E83B9016801A8018B2D9E810E94E7
:1021F0008A348C01D7018D919D910D90BC91A02DB9
:10220000BC01CD010E943B0D69837A838B839C8343
:10221000643671058105910518F40115110539F130
:10222000BD810B2F0B2E000C110B88E0B802F001C2
:102230001124E75EFE4F818192818D5F984F20814E
:10224000422F50E0C416D50608F4A6016B2D7E81FE
:102250000E949734C8010E947933882349F00E9474
:10226000EB0CD7016D937D938D939C93139781E035
:102270002696E9E00C9427340F931F93AC0104E0F9
:1022800010E028E037E067EF76E082E00E94E81097
:102290001F910F910895A9E0B0E0E1E5F1E10C9400
:1022A000103488E0E2E0FBE0DE01119601900D922F
:1022B0008A95E1F7198609E010E020E137E0AE01E8
:1022C0004F5F5F4F6FEE76E084E00E94E810299642
:1022D000E4E00C942C34EF92FF921F93CF93DF93A2
:1022E000CDB7DEB729970FB6F894DEBF0FBECDBFCE
:1022F0007B0180E090E00E947933182F81111BC090
:1023000010E08091FB069091FC06A091FD06B09133
:10231000FE06F70180839183A283B383812F2996E0
:102320000FB6F894DEBF0FBECDBFDF91CF911F91E6
:10233000FF90EF90089580911C01482F50E0882372
:1023400011F041E050E060911D0170911E016D5F40
:10235000784FCE0105960E9497348091FF069091A8
:102360000007A0910107B0910207BC01CD010E94B6
:102370003B0D6E837F83888799876436710581055D
:10238000910538F484E097E00E94660E9D818917DC
:10239000B9F181E090E00E947933882309F4B0CF4D
:1023A00080912401482F50E0853010F044E050E047
:1023B00060912501709126016D5F784FCE010196E5
:1023C0000E94973484E097E00E94660E9D818913F5
:1023D00097CF0E94EB0C6093FF06709300078093E9
:1023E00001079093020789819A81AB81BC81809318
:1023F000FB069093FC06A093FD06B093FE0681CFEA
:102400008091040790910507A0910607B0910707F6
:1024100089839A83AB83BC83E6CFADE0B0E0E3E190
:10242000F2E10C940234609134047091350480918F
:1024300036049091370469837A838B839C838091DF
:102440001907882309F450C069817A818B819C81A6
:102450000E943B0D6B017C010E94080D282F6093A8
:102460003404709335048093360490933704A0911C
:102470007A04EAE7F4E08A2F30E088248A94982CE2
:10248000A12CB12C8C189D08AE08BF08A31339C02D
:1024900080937A048091020BA82FA370A983AA23AA
:1024A00021F0B82FB695B695B98330914B013230F3
:1024B00009F4A3C2C8F531113EC010920201609325
:1024C00038047093390420933A0490933B0489E2D2
:1024D000EAE7F4E0A6E4B4E001900D928A95E1F712
:1024E00081E080934B0123C00E94080D6B017C01A9
:1024F00089819A81AB81BC81C81AD90AEA0AFB0A90
:10250000ABCF418D528D2A01612C712C841495041E
:10251000A604B70420F481503F5F3296B7CF4C0D2C
:102520005D1D528F418FF8CF333009F46FC22D9665
:10253000E2E10C941E3490910101E981E91324C079
:10254000837090E04091000150E021E084179507EE
:1025500009F420E0822F8170809304018091070BA1
:1025600090910301981739F08093030140E060E0F7
:1025700080E00E94520BF981F73040F4EF2FF0E039
:10258000E550FB4C0C947B3481E0E5CF8091020157
:102590008F5F8093020182E0A4CF809104018111BA
:1025A00007C0809102018F5F8093020183E099CF81
:1025B00040E060E080E00E94520B809102018F5F5A
:1025C0008093020182E080934B018091040181118C
:1025D000AECFECCF809102010E946B0B082F998344
:1025E0006091030B7091040B8091050B0E940F0A00
:1025F0006D83F72EE82E10E02981021758F0822F04
:102600000E949A0A909102019F5F909302018111AA
:102610008ECFC1CFF801E355FD4F8081909103012A
:102620008923882331F02E2D4F2D6D81C8010E9402
:10263000470B0F5F1F4FE0CF809102010E946B0B91
:102640008D83E92E3091030B39830091040B109197
:10265000050B632F702F812F0E940F0AD62EC72ED5
:10266000B82E8091060B6981680F702F812F0E9410
:102670000F0A162F072FF82E7D81672F70E07A83BF
:10268000698399819E1510F08E2DBACFE981FA8168
:10269000E355FD4F8081309103013823332361F0EE
:1026A0002F2D402F612F80FD03C02B2D4C2D6D2D24
:1026B00089819A810E94470B89819A8101969A8328
:1026C0008983DFCF809102010E946B0B8983192FD0
:1026D0006091060B6695669521E0620F08F46FEF36
:1026E00080913804909139040E94A70A082FB9817B
:1026F000AB2FB0E0BA83A983F981F11710F0812FD5
:102700007FCFE981FA81E355FD4F808190910301EC
:102710008923882391F06091030B7091040B8091C1
:10272000050B202F49810E94D00A0E940F0A472FD3
:10273000282F89819A810E94470BE981FA8131967D
:10274000FA83E983D9CF809102010E946B0B8983C0
:10275000D92E6091060B669566958091380490910C
:1027600039040E94A70A182F80E4810F0E94B10A41
:10277000B0E8FB2EF80E812F0E94B10A90E8C92E16
:10278000C80E3981232F30E03A83298379817D1562
:1027900010F08D2D35CFE981FA81E355FD4F808111
:1027A0009091030189238823A1F06091030B70911C
:1027B000040B8091050BE12E09812C2D4F2D0E94D9
:1027C000E90A0E940F0A472F282F89819A810E94C7
:1027D000470B69817A816F5F7F4F7A836983D6CF98
:1027E000809102010E946B0B8983192F8091060B47
:1027F0006AE00E943934682F21E0620F08F46FEF1D
:1028000080913804909139040E94A70A082F998179
:10281000892F90E09A838983B981B11708F06FCF2F
:10282000E981FA81E355FD4F80819091030189236D
:102830008823E1F0E981FA81EE0FFF1FEF5EFD4F83
:1028400091A96091030B7091040B8091050B202FCF
:102850004981913288F00E94180B0E940F0A262F9E
:10286000472F682F89819A810E94470BA981BA81DD
:102870001196BA83A983D0CF0E94180B0E940F0A29
:10288000472F282FEFCF5090460421E0352D321BE3
:1028900008F430E0332E809102010E946B0B9D837F
:1028A000682F70E07D876C87CB01880F991FDC0152
:1028B000AF5EBD4F6D01832D90E0FC013196FB872B
:1028C000EA878D819C85981708F09ACEEC85FD8566
:1028D000E355FD4F8081909103018923882301F105
:1028E0004090030BF091040BF9832091050B29878D
:1028F0006A857B856A5B7B4F3B01232C10E02514A6
:10290000C8F02985129F112D1124642D7981812F02
:102910000E940F0A472F282F8C859D850E94470B08
:102920006C857D856F5F7F4F7D876C8772E0C70EFA
:10293000D11CC7CFD3018D913D01F601A0A8A81AE3
:10294000BB0881A817968C91881A9908AA9CC00187
:10295000AB9C900D900D1124889C9001899C300DAA
:10296000300D1124820F931F082F8230910524F11E
:102970004FEF813EFEE19F073CF4AC0175E05695B8
:1029800047957A95E1F7485F51E0652F640F772707
:10299000771F9B0135952795022F229FB001239F1A
:1029A000700D700D11248617970710F54FEF420F29
:1029B000451758F70FEF050F6091060B71E0670F91
:1029C00008F46FEFF301EE0FFF1FE654F440858922
:1029D00096890E94A70A7C019401A501642D798142
:1029E000812F0E942F0B462E7983182F239487CF97
:1029F0002F3F11F351E0520FDBCFA981A0930101CA
:102A00008370809300010E94BB0FD0CD80910A0B90
:102A1000882351F048E050E067E170E082E09BE0FD
:102A20000E94C53410920A0B6091380470913904E9
:102A300080913A0490913B0469837A838B839C83D1
:102A400080911907882391F069817A818B819C811B
:102A50000E943B0D462F572FBC01403151056105A7
:102A6000710508F464CD10924B0161CD0E94080DF0
:102A7000AB01BC0189819A81AB81BC81481B590B98
:102A80006A0B7B0BEACFAB0124E630E0BC0188E7A0
:102A90000E9490319C0181E0232B09F080E0089591
:102AA0008091E906882369F08091E606882349F041
:102AB00062E070E08EEA90E00E944315811110926E
:102AC000E6060895A4E0B0E0E8E6F5E10C941234DF
:102AD0008091E9068823F9F00E94EB0CDC01CB0120
:102AE000805A9541AF4FBF4F8093E2069093E30623
:102AF000A093E406B093E5068091E60681110BC031
:102B000062E070E08CEA90E00E944315882319F09F
:102B100081E08093E6062496E2E00C942E34CF9375
:102B2000DF93682F81E06A3019F06D3031F480E076
:102B30000E940F16DF91CF9108958091B404909177
:102B4000B50426E0FC01A0E7B3E001900D922A95C0
:102B5000E1F7603E08F458C026E0FC0111922A9586
:102B6000E9F7C091B404D091B50446E050E0BE014D
:102B700080E793E00E948A349E012E5D3440892BC9
:102B800041F1C90145E0969587954A95E1F741E005
:102B900050E0BA0102C0660F771F8A95E2F7CB01B9
:102BA0006091E0067091E106862B972BB9016B5F6F
:102BB0007F4FE5E076956795EA95E1F702C0440F0F
:102BC000551F6A95E2F7842B952B9093E10680932D
:102BD000E0062A5F3F4F4091B604642F70E0C901C0
:102BE0000E94EE33481B463010F4240F311D21158E
:102BF00072E0370710F020E030E022523B4F309374
:102C0000B5042093B40496CFF6E06F9FB001112471
:102C100060557F4F46E050E00E948134A2CFCF93B1
:102C2000382FE091B404F091B504EE5DF4402091AA
:102C3000B604622F70E0CF010E94EE33281B822F72
:102C4000332361F066E00E943934C82FC15010F47C
:102C5000CF91089580E20E948F15F8CF9F01280F31
:102C6000311D2115324018F080E0E0E0F0E08E0FD9
:102C70009F2F911D82529B4F9093B5048093B40473
:102C8000E7CFCF93DF93EC01FE018491811103C064
:102C9000DF91CF9108950E948F152196F5CF0E9464
:102CA000411681E00E940F1608951F921FB61F92D1
:102CB00011248F939F93AF93BF9380916F048111E1
:102CC00013C080918A0390918B03A0918C03B091E3
:102CD0008D034196A11DB11D80938A0390938B03B0
:102CE000A0938C03B0938D03BF91AF919F918F916F
:102CF0001F901FBE1F9018952FB7F89480918A03DC
:102D000090918B03A0918C03B0918D032FBF0895F8
:102D1000CF93DF93C0910C0B8091120BC82B809145
:102D20000B0B882339F10E947C162091160B3091F1
:102D3000170B821B930B8838934110F00E943607C3
:102D4000D0910B0B809143018130F1F48091590BAC
:102D500087FF1AC08DE126E433E090E0F90140815D
:102D60002F5F3F4F41119F5F8150C0F791110E942B
:102D70003607CD2B8091F40A80958C239091F30A2D
:102D8000892BDF91CF91089585E02EE333E0E5CFE5
:102D900080914301813059F58091590B87FF27C0FD
:102DA0000E9488168093450340E250E061E277E09C
:102DB00084E493E00E948A34892BC1F080E2E4E449
:102DC000F3E0A1E2B7E001900D928A95E1F7E0917E
:102DD0004107F0914207309749F086E08093440321
:102DE0000480F581E02D84E493E0099508950E9424
:102DF000881680933C0348E050E063E477E08CE37E
:102E000093E00E948A34892B89F388E0ECE3F3E0B5
:102E1000A3E4B7E001900D928A95E1F7E0914107B4
:102E2000F0914207309711F30280F381E02D8CE39B
:102E300093E0DBCF882339F090910C0B892B8093A2
:102E40000C0B0E94C8160895882321F00E942E07BB
:102E50000E94C8160895882339F09091120B892B8F
:102E60008093120B0E94C816089590915A0B92FFFE
:102E700010C098E0899F90011124622B6093130B7E
:102E80000E947D060E947C169093150B8093140B74
:102E900008950E947D06089590910B0B292F2823F9
:102EA000222361F08095892380930B0B882339F0CE
:102EB0000E947C168093160B9093170B089580E068
:102EC00090E0F8CF0E947C16209168073091690746
:102ED000232B222321F08093EC069093ED06209182
:102EE0006A0730916B07232B222321F08093EA0697
:102EF0009093EB06E0914107F0914207309749F03B
:102F000082E0809366070680F781E02D86E697E0F1
:102F100009950895662309F44BC0E3E3E80FE33114
:102F200050F4F0E0EE5FFA4C0C947B340E94E50B19
:102F30008195809369070E94621708950E94E50BAE
:102F4000F8CF0E94E50B819580936807F4CF0E942B
:102F5000E50BFACF0E94050C80936A07ECCF0E9424
:102F6000050C8195F9CF0E94050C819580936B0724
:102F7000E2CF0E94050CFACF815D990B21E030E091
:102F800001C0220F8A95EAF780916707822B809310
:102F90006707D1CF80916507816080936507CBCFAC
:102FA000809165078260F9CF809165078460F5CFD5
:102FB000409168078D3C59F48091690787FF0DC0E7
:102FC00010926907442359F41092640708C08E3C9C
:102FD00081F48091690718169CF3442381F0809155
:102FE0006A0790916B07892B8111A5CF1092630717
:102FF000A2CF8F3C41F447FFF0CF10926807809139
:1030000069078823E0CF803D19F41416B4F3E5CFA7
:1030100090916A07893D29F41916FCF610926A0707
:10302000DCCF8A3D19F497FFD8CFF8CF90916B078A
:103030008B3D29F497FFD1CF10926B07CECF8C3DFB
:1030400019F41916CCF3C9CF9FE2980F983090F479
:10305000815D990B21E030E0B90102C0660F771F56
:103060008A95E2F7CB018095909167078923809339
:103070006707B3CF8D3D31F4809165078E7F8093D4
:103080006507ABCF8E3D21F4809165078D7FF7CF2B
:103090008F3D09F0A2CF809165078B7FF0CFCF9352
:1030A000C82F8823B1F18CEF8C0F813AA0F5809165
:1030B0004301813001F58091590B87FF1CC0EC2F33
:1030C000E695E695E695F0E0EC5BFC4F828190E0BA
:1030D0004C2F477021E030E002C0220F331F4A9589
:1030E000E2F782239323892B79F08C2F0E94BB0C6B
:1030F0000E94C81609C0EEE3F3E08191C817A9F356
:1031000023E0E434F207C9F78C2F0E94870C0E9459
:10311000C816CF91089580E28C0F883068F4C7708C
:1031200081E090E001C0880FCA95EAF7C0910C0BCE
:10313000C82BC0930C0BEBCF8BE58C0F833038F48E
:103140002C2F2452330BC9010E943B0CE2CFE8E53F
:10315000EC0FEB3150F4F0E0EE0FFF1FE351FD4FA9
:10316000808191810E94610CD4CF83E38C0F8331E5
:1031700080F661E08C2F0E948A17CBCF882381F1E3
:103180009CEF980F913A28F40E94BB0C0E94C8163D
:10319000089590E2980F983050F4877091E001C044
:1031A000990F8A95EAF7892F0E942E07EFCF9BE5AA
:1031B000980F933028F480E090E00E943B0C089533
:1031C00098E5980F9B3128F480E090E00E94610C14
:1031D000089593E3980F933118F460E00E948A17E2
:1031E00008951F93CF93DF93182FA091F60AB09103
:1031F000F70A109709F44AC01092F90A1092F80AD7
:103200001092F40A1092F30A1796CD91DC91189758
:10321000CE019A9581159F4108F4D07ED1E0C1116D
:1032200001C0D0E01A96ED91FC911B97309731F0D8
:103230001C966D917C9180E00995D823DD2339F0AF
:103240008CEF8C0F813A30F58C2F0E94BB0C112330
:10325000A9F0E091F60AF091F70A818584FD0EC08D
:103260008091F50A882351F0808191819C01215041
:1032700031092F333E4710F40E945B0D0E94C8169F
:103280001092F70A1092F60A1092F50ADF91CF9188
:103290001F9108950E94C8168C2F0E94BE18D7CF88
:1032A00010920C0B80914301813039F58091590BBC
:1032B00087FF23C0E6E4F3E08EE1DF011D928A95EB
:1032C000E9F780E090E00E943B0C80E090E00E94F3
:1032D000610C1092120B0E94C81686E0E6E6F7E039
:1032E000DF011D928A95E9F7109264071092630737
:1032F000109265070E9462170895EEE3F3E086E0FE
:10330000DCCF0E9450192FEF84E39CE021508040D5
:103310009040E1F700C0000088E19AE00FB6F89411
:10332000A895809360000FBE90936000FFCFAAE243
:10333000B0E0EDE9F9E10C9411348AE793E0FC0187
:1033400001962091F100208323E082389207B9F79B
:1033500080917B03893009F45AC0C8F4823009F4A3
:10336000B6C0833009F485C0813091F18091E800C6
:1033700083FFEAC080917A0390917B039A3008F032
:10338000E3C0E92FF0E0EB5EFA4C0C947B348A301A
:1033900009F48CC08B3051F780917A03813231F778
:1033A00080917E0390917F03892B01F78091E80043
:1033B000877F8093E8000E94F70D81E090917C0365
:1033C000911101C080E0809343010E945019CECF3B
:1033D00080917A03813A51F68091E800877F80934B
:1033E000E80080917E0390917F03892B61F060E07B
:1033F00080E090E070E00E949E0D8091E8008B7765
:103400008093E800B3CF68E082E893E0F3CF809147
:103410007A03813209F0AACF80917E0390917F03D5
:10342000029708F0A3CF8091E800877F8093E8009F
:103430008091E80082FF18C09091F3008091F20023
:10344000029731F48091F100813011F0863021F43F
:103450008091F100809342018091E8008B77809306
:10346000E8000E94F70D82CF809171048111E0CFB6
:103470007DCF80917A03813A09F078CF80917E03E5
:1034800090917F03892B09F071CF8091E800877FAD
:103490008093E8008091E80080FFFCCF8091430199
:1034A0008093F1008091E8008E77D9CF80917A03E4
:1034B000813209F05BCF8091E800877F8093E8003C
:1034C0000E94F70D80917D03809341014FCF809141
:1034D0007A03813A09F04ACF8091E800877F809390
:1034E000E8008091E80080FFFCCF80914101D8CFB7
:1034F000803889F0823841F580917E038F70873063
:1035000018F58093E9008091EB0085FB882780F90E
:103510001092E90006C08091770390917004911198
:1035200082609091E800977F9093E8008093F1008B
:103530001092F1008091E8008E7723C0811116C0AF
:1035400080917C03813011F18091E80083FF0AC0F3
:103550008091E800877F8093E8008091EB00806293
:103560008093EB00AA96E3E00C942D34823061F74F
:1035700080917C03882389F01092E9008091E80013
:10358000877F8093E8000E94F70DDECF81E09330C3
:1035900009F080E080937004EFCF80917E038F70FC
:1035A0002FEF280F263080F68093E9002091EB0062
:1035B00020FFE2CF933031F48091EB008062809362
:1035C000EB00DACF9091EB0090619093EB0021E05B
:1035D00030E0A90102C0440F551F8A95E2F74093DD
:1035E000EA001092EA008091EB008860E8CF811138
:1035F000ABCF10917C031F778091E3008078812B03
:103600008093E3008091E800877F8093E8000E9428
:10361000F70D8091E80080FFFCCF8091E300806887
:103620008093E30083E0111101C082E08093710474
:103630008BCF8058823008F087CF40917C03509127
:103640007D034C3D83E0580799F583E08A838AE245
:1036500089834FB7F894DE01139620E03EE051E2F3
:10366000E32FF0E050935700849120FF03C0829530
:103670008F703F5F8F708A30C8F0895C90E08D93C7
:103680009D932F5F243161F74FBF8091E800877FC2
:103690008093E8006AE270E0CE0101960E949E0DE0
:1036A0008091E8008B778093E8004ECF805DE6CF75
:1036B00020917E0330917F03852F992783309105D8
:1036C00009F160F48130910509F472C0029709F0A4
:1036D0003BCF8BE390E0EAEEF6E029C08132910522
:1036E00009F45AC0829709F02FCF2115310509F44A
:1036F00069C02130310509F027CF86EB90E0E0EF7B
:10370000F5E015C0CA0199274130B1F18230910529
:1037100009F43AC0892B09F017CFE7E5F7E0E49107
:103720008E2F90E0E7E5F7E0009709F40DCF2091A8
:10373000E800277F2093E8002091800330918103E7
:103740008217930708F49C0140E02115310509F028
:103750003EC041113CC08091E80082FDA1CF809124
:103760007104882309F49CCF853009F499CF8091A6
:10377000E80083FFF0CF94CFE5E4F7E0E4918E2FEB
:1037800090E0E5E4F7E0D0CFE7E3F7E0E4918E2FB7
:1037900090E0E7E3F7E0C8CF2115310571F0213063
:1037A000310509F0D1CE89E090E0E5E1F7E0BFCF47
:1037B00082E190E0E5E2F7E0BACF89E090E0ECEF5B
:1037C000F6E0B5CF84E490E0E6EAF6E0B0CF809191
:1037D0007104882309F464CF853009F461CF8091A6
:1037E000E80083FD5DCF8091E80082FDB4CF809139
:1037F000E80080FFAACF9091F3008091F20021159C
:10380000310519F08830910550F041E0089709F032
:1038100040E08091E8008E778093E80096CF449155
:103820004093F1003196215031090196E8CF80385C
:1038300009F08ACE8091E800877F8093E80080912C
:1038400078038093F10076CE81117ECE10917C03B7
:10385000123008F079CE8091E800877F8093E800ED
:10386000109378030E94F70D1123A9F084E0809350
:10387000710442E061EC81E00E940A0F42E261ECD7
:1038800082E00E940A0F80917104843051F482E03A
:103890008093440159CE8091E30087FDE7CF81E01A
:1038A000E6CF81E0F5CF9C014FB7F89480918A0371
:1038B00090918B03A0918C03B0918D034FBF821B1D
:1038C000930B08950F931F93CF93DF93C62FD42F9D
:1038D000122F8823A9F06093000B0E947C1690930E
:1038E0006F0380936E03C77081E001C0880FCA9593
:1038F000EAF70E941A17DF91CF911F910F91089557
:103900008091000B681338C080916E0390916F0313
:103910000E94531C8F3A910578F5CD130FC0812F6B
:103920000E944F18812F0E94BE18D77081E001C0FD
:10393000880FDA95EAF70E942417DDCFC77001E0FF
:10394000802F01C0880FCA95EAF70E94241780E2F1
:103950008D0F883050F48D2F877001C0000F8A952D
:10396000EAF7802F0E941A17DACF812F0E944F1892
:10397000812F0E94BE18BFCFC77081E001C0880FA1
:10398000CA95EAF7D8CFA0E0B0E0E9ECFCE10C94EE
:1039900002348C01DC0114968C91882309F48AC1CD
:1039A00061E0C8010E949F09EC018091EE0AF801D4
:1039B00025818111C8C1211111C0C635FCE7DF077F
:1039C00009F48BC108F068C0C3353CE7D30709F49C
:1039D00051C1C4358CE7D80709F471C1D8011596D7
:1039E0003C901597332009F4B7C211968C9111972A
:1039F0008093F20A8C918093F10A80E280934901CE
:103A0000D093F00AC093EF0ACE01905281159042F4
:103A100008F024C2F801868130904A01803108F014
:103A200016C2332009F428C26E0180EEC81AD108EC
:103A300020900C0B80910D0B282A80910B0B282ACB
:103A400031109EC28091FE0A9091FF0AC817D907D3
:103A500081F41092FF0A1092FE0A1092FA0A109254
:103A6000FB0A1092FC0A1092FD0A1092F90A1092B9
:103A7000F80AE091F60AF091F70A309709F470C25B
:103A800080819181C817D90709F06AC21092F50A9E
:103A900080E00E94F11864C2C7359CE7D90709F499
:103AA0003AC1312C80914A01882309F4FFC26E018A
:103AB000B0EECB1AD10820900D0B80910C0B282A68
:103AC00080910B0B282AE8E0CE16D10408F0B8CF7D
:103AD0009E012770332781E090E001C0880F2A956E
:103AE000EAF7332009F449C2282AD8018D919C9124
:103AF0000E94D50621E030E0290102C0440C551C8B
:103B00008A95E2F78090F60A9090F70A33E2632EE6
:103B100033E0732EF301E190F1903F01E114F104E1
:103B200009F449C2211005C0D70112968C91811168
:103B30003CC2F7018381948184219521892B09F46A
:103B400034C28185982F9770911147C2F8E0CF1643
:103B5000D10408F028C2311048C2F701A080B1801A
:103B6000CA15DB0509F421C28E149F0409F41DC295
:103B7000D7011E96ED91FC91309721F0808188232A
:103B800009F413C2622DC7010E94B60B882309F401
:103B90000CC2CA15DB0511F4311005C0A114B10423
:103BA00009F02FC2312C80E00E94F118F092F70A40
:103BB000E092F60A81E08093F50AF701868180930E
:103BC000F40A31100DC0AB2859F0808191819C011D
:103BD00024503109213A310508F01BC20E94BB0C68
:103BE000F701A780B084C5019A9581159F4110F413
:103BF00020EEB22288248394C50101978F339E471B
:103C000008F0812CD7011A96ED91FC911B97309703
:103C100031F01C966D917C9181E00995882281E0BC
:103C20003826882009F410C2F701878190850E9408
:103C300049068093F30AC501F8E0CF16D10408F0D5
:103C4000EBC10E945B0D0E94C816332009F4EDC140
:103C5000D80115968C91811140C2C631BCE7DB07B3
:103C600009F0ECC38091010B811129C389E20E9404
:103C7000BB0CDBC10E94501980E090E00E947806E6
:103C80008CE697E09093ED0A8093EC0A81E08093B4
:103C9000EE0A8091130B8770882361F0D801159686
:103CA0008C91882339F080915A0B82FF03C082E007
:103CB0000E941207CDB7DEB7E2E10C941E340E94D9
:103CC000501980E090E00E94780685EE9AE090938B
:103CD000ED0A8093EC0A82E0DACFC0904701D090E1
:103CE0004801E090100BF090110B0E94501980E0F9
:103CF00090E00E947806CCE6D7E0CC16DD0631F4E1
:103D00000E945019C7010E947806C3CFCE010E94BD
:103D1000C31C2796F2CFC0904501D0904601E09099
:103D2000100BF090110B0E94501980E090E00E945F
:103D30007806C5EEDAE0CC16DD0611F3CE010E945E
:103D4000C31C2797F8CFAE0143555C47433051055C
:103D5000B8F591E0C535DC4709F490E0921709F415
:103D600098CF813029F08230B9F01092EE0A91CFCD
:103D70008091EC0A9091ED0AB7E08C369B0729F010
:103D8000FC0137972581211105C09093480180934C
:103D90004701EBCFCF01F0CF8091EC0A9091ED0A73
:103DA000EAE0853E9E0729F0FC0137962581211126
:103DB00005C09093460180934501D7CFCF01F0CF46
:103DC000813011F1823009F009CE409147015091C4
:103DD00048018091EC0A9091ED0A211105C02AE07A
:103DE000853E920709F4FACD9C01295F3F4F4217A7
:103DF000530709F4F3CD27E0F801DC0101900D929F
:103E00002A95E1F707971EC0409145015091460160
:103E10008091EC0A9091ED0A211105C0F7E08C36F3
:103E20009F0709F4DBCD9C01275031094217530746
:103E300009F4D4CD27E0F801DC0101900D922A9518
:103E4000E1F707969093ED0A8093EC0AC7CDFE0147
:103E5000FF27CD3308F45FC0332058C0CE01905403
:103E600081159041E8F4D80116968C9130904A0162
:103E7000803190F4311039C01092000B80910C0BFE
:103E80008272FE01E052F847EB30F10508F06BC298
:103E9000E15EFA4C0C947B34FE01FF27CC33DACF81
:103EA000CE019A9581159F4168F4FE01FF27CD331D
:103EB00028F130904A013320F9F26E01A0EECA1ABF
:103EC000D1080EC0CE01805A9245809798F4309068
:103ED0004A01332009F4BCCE6E0130EEC31AD1087A
:103EE00020900D0B80910C0BA7CD6E0190EEC91A9E
:103EF000D1089ECDCD33D105F8F4FE01E85EF34F35
:103F0000E491E093490180914A01882309F4CEC0ED
:103F100033243394CCCDE85EF34FE491E093490130
:103F2000CD353CE7D307B1F480914A0181110CC033
:103F300081E080934A01ADCECE35FCE7DF07C1F3C7
:103F4000CF352CE7D20761F710924A0180E00E943A
:103F5000F1189FCE3324339480914A018111A7CD6B
:103F6000F8018581FE01E851FC47E730F10508F0D2
:103F70009DC0E65DFA4C0C947B3480952822B5CD2B
:103F8000D093FF0AC093FE0A0E94EB0C6093FA0ADA
:103F90007093FB0A8093FC0A9093FD0A1092F90A31
:103FA0001092F80AA2CD311020C029E333E0261583
:103FB000370509F0AFCD8114910491F238E0C316B2
:103FC000D10408F044C0622DC4010E94B60B8111D7
:103FD0003FCE81E00E94F1183BCE28E0C216D1040A
:103FE00058F4332031F081FFE0CFD701AD90BC9081
:103FF000BBCD82FFDACFB1CD3320B9F280FFD5CF70
:10400000F4CF8091FE0A9091FF0A8A159B0569F60C
:10401000C9CD0E94BE18E4CD0497813A910540F4C1
:104020008A2D0E94870C31109BCF0E94C81631CE7A
:104030000E94C816EFE3FCE93197F1F700C00000D9
:104040008A2D0E944F18EFCF0E94C816ECCFF401C2
:1040500080819181C817D90739F4332009F416CD2E
:10406000818585FD7DCF14CD332009F479CF8185FD
:10407000F8CF26E241EE61EE0E94621C0ACE27E2F2
:1040800045EE65EEF9CF26E241EE60EEF5CF27E290
:1040900045EE64EEF1CF26E241EE62EEEDCF27E28F
:1040A00045EE66EEE9CF28E241E0EBCFF8018581ED
:1040B00081112CC0C631FCE7DF0709F4D3CD809114
:1040C0000C0B8272FE01E054F847ED30F10508F068
:1040D000B5C1EF5CFA4C0C947B341092000BCE010E
:1040E0009057839708F0CACE84E090E00E94BF34D6
:1040F00090935A0B8093590BFE01E150F047E23246
:10410000F105F0F4E25CFA4C0C947B341092000B55
:10411000CE019057839740F3C6312CE7D20709F0C0
:10412000ADCE80910C0B8A7A91E0811101C090E0B4
:104130009093010B8111C1C089E20E94870C75CF59
:104140008091590B81608093590B6091590B70914C
:104150005A0B84E090E00E94F3340E94501999CDEC
:1041600080915A0B886080935A0BEFCF8091590B46
:104170008260E9CF8091590B8460E5CF8091590B23
:104180008860E1CF80915A0B8160EDCF80915A0B0E
:104190008260E9CF8091590B8061D5CF8091590B16
:1041A0008062D1CF8091590B8064CDCF0E9450198D
:1041B0008091590B8068C7CF8091590B8C60C3CF19
:1041C00080915A0B8360CFCF8091590B8E7FBBCFEC
:1041D00080915A0B877FC7CF8091590B8D7FB3CFCA
:1041E0008091590B8B7FAFCF8091590B877FABCFDD
:1041F00080915A0B8E7FB7CF80915A0B8D7FB3CFB2
:104200008091590B8F7E9FCF8091590B8F7D9BCFD3
:104210008091590B8F7B97CF0E9450198091590B39
:104220008F7791CF8091590B837F8DCF80915A0BDF
:104230008C7F99CF8091590B82FB992790F921E0CF
:10424000922790FB82F990FB83F97DCF80915A0BE6
:10425000982F909591708E7F892B90FB81F983CF59
:104260009091590B892F8F7B96FF80646CCF0E94B1
:1042700050199091590B892F97FB87F9805863CF7C
:1042800061E08EE090E00E94D5345FCF60E0F9CF2E
:104290009091590B892F8F7E94FF806154CF90911C
:1042A000590B892F8E7F90FF81604DCF90915A0BD3
:1042B000892F877F93FF886056CF85E33ECF85E3C4
:1042C000D6CC0E947F0BE5CC8823B1F10E94A20ED0
:1042D000E0CC8823B1F10E94CC0EDBCC8823B1F175
:1042E0000E94E30ED6CC8823B1F10E94FD0ED1CC02
:1042F0008823B1F10E949B0BCCCC8091020B837080
:10430000811102C010924B018091020B8C7F816061
:104310008093020B80910A0B816080930A0BB9CCC9
:104320008091020B8370811110924B018091020BDE
:104330008C7FEECF882351F20E94970EAACC88235F
:1043400051F20E94C20EA5CC882351F20E94D60ED3
:10435000A0CC882351F20E94F00E9BCC882351F20E
:104360000E948D0B96CCCE01805E92458097A8F07E
:10437000CA35BCE7DB0709F4B0C008F078C0C1302B
:10438000FCE7DF0709F4A7C0C3302CE7D20709F424
:104390009CC0C115DC4709F47CC0F8018581E08030
:1043A000F180882309F49DC0C7010E946B09C82FC2
:1043B000682FC7010E949F06B7018C2F0E944107FA
:1043C0000E945208D82FC92FD8011596DC90159756
:1043D0001696CC90C2942FE0C2228091130B877066
:1043E000882301F1ED2CDD20F1F0892F807F8034CE
:1043F00061F080E28D0F8830A8F0892F807E8032B6
:1044000021F4D23078F0CC2069F080915A0B82FFF1
:1044100009C082E00E9412078091130B8770EE247E
:10442000E3948111E12CEC2FE295EF70C03C08F091
:10443000BCC0F0E0E05AFA4C0C947B34CE01805EB4
:104440009245809708F0A9CFCF7181E090E0DC0120
:1044500002C0AA0FBB1FCA95E2F7ED016A2F83E0E5
:1044600090E00E94D534CE010E94730612CCCB3569
:104470008CE7D807A1F1CC35DC4709F08ECF8091CD
:104480005A0B82FB882780F991E089270E948510CA
:1044900084CF0E945019AFEFB4E3ECE0A150B040DC
:1044A000E040E1F700C0000087E797E7909301083C
:1044B0008093000888E19AE00FB6F894A89580935D
:1044C00060000FBE90936000FFCF6FEF7FEF80E042
:1044D00090E00E94F3340E94811981E0D7CF80E000
:1044E000D5CFC7010E94D506C82F66CFBC2FBF709D
:1044F000FB2EC03118F0F29490EFF922DD20B9F0D4
:10450000FF2069F080E28D0F883010F0D11109C0D2
:1045100080910C0B8F2980930C0B0E94C8168D2F55
:1045200042C08091120B8F298093120BF6CF8D2FF2
:104530000E94BE18FF20C9F180E28D0F883010F074
:10454000D11104C08F2D0E942E0706C0F0948091D7
:10455000120B8F218093120B0E94C81626C0EC2FDD
:10456000EF70FE2EC07FC03219F0F29480EFF82277
:10457000DD2349F0D13009F485C0DD2009F491C074
:10458000CC20B9F1CCCF80915A0B82FD2EC0DD201A
:1045900031F1FF2039F080910C0B8F2980930C0BA7
:1045A0000E94C81680E00E944F18EE2009F4B1C1A5
:1045B0008091130B80FDADC1D80115961C92869594
:1045C000869586950E947D06C8010E94C31C809135
:1045D000130B8695869586950E948D069AC180E07C
:1045E0000E94BE18FF2009F3ADCFDD2069F1C11094
:1045F00004C08F2D0E941A17D8CFF1E0CF1210C03F
:10460000C0910B0B8F2D8C23F81679F20E947C162B
:104610009093170B8093160BCF29C0930B0BC5CF2C
:1046200025E0C212C2CF8F2D0E941A178F2D0E9433
:104630004C1780910D0B9F2D9823F91609F4B5CFD7
:104640008F2980930D0BB1CFC11012C08F2D0E9406
:1046500024178F2D0E944C1780910D0B9F2D9823AE
:10466000992309F4A2CFF094F822F0920D0B9DCF7C
:1046700031E0C3129ACF80910C0B8F21882309F46B
:1046800094CFE4CFDD2029F085E08C1508F48DCFA0
:10469000B0CF94E09C1508F488CF8F2D0E9424178A
:1046A00084CFCC20D1F3D93349F4AFEFB7EEE3E0B8
:1046B000A150B040E040E1F700C000008D2F0E9403
:1046C000BE1873CF8C2F869586958370882369F0EA
:1046D000813009F06ACF8D2F9C2F9370D11002C0CA
:1046E00080E090E00E94610C60CF8D2F9C2F937032
:1046F000D11002C080E090E00E943B0C56CF6D2D9F
:104700008D2F0E948A1751CF8C2F8370811142C048
:10471000D1102FC04D2F429546954770440F440F3E
:104720002D2F2F7030E0042E02C0220F331F0A9469
:10473000E2F780E090E0D4FF09C08FE090E002C093
:10474000880F991F4A95E2F780959095C695C69572
:10475000C370C230B1F0C33089F040910E0B50915C
:104760000F0BC13049F0822B932B842395230E9499
:1047700073060E942A0C19CF242B352B822B932BE6
:10478000F6CF822B932B20910E0B30910F0B8227AB
:104790009327EDCFDD2091F1C0FFEBCF4D2F429558
:1047A00046954770440F440F2D2F2F7030E0042E94
:1047B00002C0220F331F0A94E2F780E090E0D4FF9A
:1047C00009C08FE090E002C0880F991F4A95E2F778
:1047D00080959095C695C695C370C230C1F0C33020
:1047E00099F04091100B5091110BC13059F0822B70
:1047F000932B842395230E947806BBCF823008F444
:10480000B8CFCCCF242B352B822B932BF4CF822BFC
:10481000932B2091100B3091110B82279327EBCF14
:10482000CF70DD2039F08C2F0E947D068D2F0E94E5
:104830001A179FCF8D2F0E9424178C2F0E948D0650
:1048400098CFD23FA1F178F4D03FC1F0D13F09F425
:1048500047C0DD2009F47DC0CC2009F477C08D2F3E
:104860000E944F1886CFD33F49F1D43FA9F1D11010
:10487000F3CFC1107CC08C2F8F71E0CFDD20A1F071
:10488000F4E0FC1508F475CFCF7181E090E09C0155
:1048900002C0220F331FCA95E2F78091100B90914E
:1048A000110B82279327A7CF35E0C316EBCF8C2FB0
:1048B0008F71D110C3CF0E947D065BCF80E090E066
:1048C000DD2009F498CFCF7181E090E002C0880F1D
:1048D000991FCA95E2F78FCF80915A0B82FD06C0CF
:1048E0008C2F8F71DD2009F4A9CFE5CFDD20F9F001
:1048F0008091130B8770843089F41092130B1092FF
:10490000150B1092140B8C2F8F710E948D060E9434
:104910002A0C60E0C8010E949F09CCC984E08C1574
:10492000B0F363E08C2F8F710E943517F0CF94E0C5
:104930009C1540F41092130B1092150B1092140B4F
:1049400064E0F0CF81E00E941207E1CF8C2F8F71DD
:10495000B2CFCC2009F48FCFD93349F4AFEFB7EE03
:10496000E3E0A150B040E040E1F700C000008D2F2F
:104970000E94BE18FECE8091580B803178F4809151
:10498000570B882359F0E091190B2091180B3091A7
:10499000530B4091520B57E02E1301C008956E2F18
:1049A00070E05E9FF0011124DF01A65EB44F149603
:1049B0008C911497882361F111968C911197831330
:1049C00027C08C91841324C015968C911597811162
:1049D0001FC012968D919C91A091540BB091550BD4
:1049E0008A1B9B0B8F3A910598F48091580B8F701E
:1049F00080618093580BE05EF44F80818F708061FE
:104A0000808382E59BE00E94C31C0E9408070895F2
:104A1000FB013196E770C0CFADE0B0E0E2E1F5E236
:104A20000C9407348C0186E0F801DE0118960190A1
:104A30000D928A95E1F7F801E080F580A280B380BD
:104A4000C48082E5882E8BE0982E7090560B7110F2
:104A500020C0CC20D9F0FF2009F419C1C8010E9460
:104A6000CE09882309F413C187E0F801D40101902D
:104A70000D928A95E1F7F1E0CF1206C08091520BBA
:104A80009091530B0E94BF090E94BB24FF24F39412
:104A900051C0D090570B8091540B9091550B9501BC
:104AA000281B390BDD2009F4BAC02F3A310508F074
:104AB00090C0CC2059F39091530BC1808091580B3A
:104AC000803108F058C0C91214C09091520B9E1149
:104AD00010C0F1104AC08F7080618093580B82E53E
:104AE0009BE00E94C31C8091580BF8018683F12C37
:104AF00021C0F1103AC040E06C2D8E2D0E949C0F19
:104B000040E06C2D8E2D0E949C0FF82E8111EFCF6E
:104B1000888599850E94BF09292F22952F7090348E
:104B200070F49F702230A0F09923B1F0F8019681C3
:104B3000903190F48F2D2D96EDE00C9423342A5F64
:104B40002F70223068F0C8010E94C31CFD2CF2CFE8
:104B5000992311F0882371F3805E883058F3F3CFE6
:104B6000803F40F3815F8230F9CF8091580B8160A4
:104B70008093580BBCCFC91207C09091520B9E1165
:104B800003C0FF2009F46CC0C8010E94CE0988232D
:104B900009F47DC0FF2009F47AC08091580B80325F
:104BA00078F02091520B3091530B3A832983BC82C9
:104BB000AB827D821E828F83CE0101960E94C31C30
:104BC00087E0F801A2E5BBE001900D928A95E1F73C
:104BD0005BCF8091580B803150F482E59BE00E94BE
:104BE000C31C87E0F40111928A95E9F780CFCC20AD
:104BF00009F44CCF2091530B91812913C5CF90918B
:104C0000520B9E11C1CFF110BFCF8683C8010E9405
:104C1000C31C87E0F40111928A95E9F737CF2F3A48
:104C20003105F8F6CC2009F431CFFF2081F19091C5
:104C3000530B8181981321C08091520B8E111DC09E
:104C40008091580B80FD10C0803170F08683807F8A
:104C5000803F39F08681982F907F905F8F70892BED
:104C60008683C8010E94C31C87E0F801A2E5BBE06F
:104C700001900D928A95E1F709CFC8010E94CE09F3
:104C800081119ECF8091580B81608093580BC80191
:104C90000E94C31CFBCEABE1B0E0E1E5F6E20C9470
:104CA00011344E8B5F8B688F798F8A8F9B8F911118
:104CB0001092120B1D8A86E0FE017696DE011F9689
:104CC00001900D928A95E1F780915A0B82FF1FC0E7
:104CD0000E947C162091140B3091150B821B930BB4
:104CE0008838934138F08091130B82FD03C082E035
:104CF0000E9412070E947C162091160B3091170B10
:104D0000821B930B8838934110F00E9436078B89E1
:104D1000882329F061E0CE010F960E949F0987E069
:104D2000FE013F96DE01189601900D928A95E1F7FB
:104D3000CE0108960E940C25811110C087E0FE016B
:104D40003896DE01119601900D928A95E1F7209137
:104D5000180B4091190B8C8581110BC017E08091C5
:104D6000190B9091180B89132EC06B96E3E00C94ED
:104D70002D3430E0C90101968770992750E08417DF
:104D8000950771F40E9450191092180B1092190B8C
:104D900087E0E2E5FBE0DF011D928A95E9F7DECFCF
:104DA00097E0929FD001939FB00D1124A65EB44F5F
:104DB000FE01319601900D929A95E1F78093180BC0
:104DC0000E940807CBCF189FC0011124865E944F24
:104DD0000E940C25882349F28091190B90E00196DE
:104DE000877099278093190BBACFA6E0B0E0EBEF5C
:104DF000F6E20C9410340E947C168C0180911F07FF
:104E0000909120078017910779F019821A820E94E9
:104E10007C16BC0149815A8180E090E00E944B26BB
:104E20001093200700931F072696E4E00C942C347F
:104E3000A0E1B0E0EEE1F7E20C9407341A821982A7
:104E4000FE01339686E0DF011D928A95E9F787E03F
:104E5000A82E82E0B82E8E010F5F1F4F4801EE246E
:104E6000E394F12C21E1C22E22E0D22EF5018191B2
:104E70005F018F3F09F441C0F894E82FE295EF708D
:104E8000F0E021A18F70A70102C0440F551F8A9541
:104E9000E2F7CA01922F982B91A392A180958923C2
:104EA00082A3789400C0EBE0F2E031E0712C219114
:104EB0002F3F09F497C0A22FA295AF70A05EB0E07B
:104EC0008C9190E02F7002C0959587952A95E2F716
:104ED0008170811187C0832F782A330FCE16DF06A9
:104EE00031F7F501319780818F3F11F00E94F6096B
:104EF00050EA5A95F1F7D8017C920F5F1F4FBBE043
:104F0000AB16B2E0BB0609F0B1CF48E050E0B40107
:104F10008CE394E00E948A340091450410E00E581E
:104F20001B4F892B09F460C088E0F401ACE3B4E0C6
:104F300001900D928A95E1F781E080936D030E94C4
:104F40007C1690936C0380936B03809119078823E0
:104F500009F4A3C01A8619861C861B8680917603E5
:104F60008A3008F063C07E01E9E0EE0EF11C4BE6EA
:104F700051E1B701C8010E944B106701882309F471
:104F80007AC04CE351E1B701C8010E944B1088235D
:104F900009F471C04CE950E1B701C8010E944B10FF
:104FA000882309F468C04BE451E1B701C8010E94AD
:104FB0004B10882309F45FC010927603809144045B
:104FC00090E044E050E0B6018E589B4F0E948A3436
:104FD00021E020936A03892B09F03FC06096EDE041
:104FE0000C94233480E078CF80916D03882309F4FA
:104FF000ACCF80916B0390916C030E94531C05977A
:1050000008F4A3CF44E050E06CE374E0C8010E94D0
:105010008A34892B41F084E0ECE3F4E0D80101907C
:105020000D928A95E1F710926D038FCF80916803FE
:10503000909169030E94531C843F914008F093CFE4
:1050400080916A03882351F2FE01399684E0DF01E2
:105050001D928A95E9F710926A03E0914404F0E00A
:10506000EE58FB4F89859A85AB85BC8580839183FB
:10507000A283B383B3CF809176038F3F39F40E942C
:105080007C169093690380936803DACF8F5F8093D7
:1050900076038A3008F492CFF2CFE0904404F12CEA
:1050A000F701EE58FB4F7F01F80180819181A281C9
:1050B000B3818093040790930507A0930607B093EC
:1050C000070784E097E00E94660E809303078091B3
:1050D000080790910907A0910A07B0910B07F70103
:1050E00080839183A283B383C0900C07D0900D0777
:1050F000E0900E07F0900F07809164039091650394
:10510000A0916603B0916703C816D906EA06FB06AC
:10511000B1F0C0926403D0926503E0926603F0920E
:1051200067030E94EB0CC61AD70AE80AF90AC09274
:105130001B07D0921C07E0921D07F0921E0788E023
:10514000E0E1F7E0A2E0BBE001900D928A95E1F783
:1051500045CFCDB7DEB762970FB6F894DEBF0FBE6E
:10516000CDBF85B7806885BF85B7806885BF84B7A8
:10517000877F84BF0FB6F894A895809160008861FE
:1051800080936000109260000FBE80E890E00FB640
:10519000F89480936100909361000FBE81E080934A
:1051A000440184EF99E090933B0380933A030E947B
:1051B000470E0E94410F8091E20084608093E200DC
:1051C000789480917104882399F08091E90010917E
:1051D000EC001795112717958F70182B1092E90086
:1051E0008091E80083FD0E9497191F701093E900D9
:1051F00082E084BD93E095BD9AEF97BD80936E00E9
:1052000010921B0710921C0710921D0710921E0788
:105210008091D80080618093D8002AE12A95F1F727
:1052200000C08091D90080FF42C281E080931907BD
:1052300080931A07809305010E948B3280910501AB
:105240008091050191E08927880F880F809345049C
:1052500094E0981B9093440484E90E94F60986E642
:105260000E94F60987E90E94F60986EC0E94F60979
:105270000BE012E091E1C92E92E0D92ED8018D9178
:105280008D018F3F11F00E94F609C016D106B1F7CB
:1052900088E0E2E7F4E0DF01482E1D924A94E9F746
:1052A000ECE3F4E0DF011D928A95E9F780E090E0FD
:1052B0000E94BF34853E9E4F09F461C065EE7EEFCB
:1052C00080E090E00E94F33460E082E090E00E9491
:1052D000D53481E090E090930F0B80930E0B61E04A
:1052E00083E090E00E94D53460E074E184E090E0D7
:1052F0000E94F33460E086E090E00E94D53460E0E4
:1053000087E090E00E94D53440E050E0BA0188E0A8
:1053100090E00E94E73460E083E290E00E94D534A0
:1053200060E08CE090E00E94D53460E08DE090E099
:105330000E94D53419821A821B821C821D821E8211
:105340001F82188648E050E067E170E0CE010196C8
:105350000E94C53440E050E0BA018FE190E00E9425
:10536000E73440E050E0BA018FE090E00E94E7347B
:1053700040E050E0BA0183E190E00E94E73482E02F
:1053800090E00E94B7348093A30484E090E00E94F0
:10539000BF3490935A0B8093590B83E090E00E94A6
:1053A000B73490E00E9473060E94A90B1092460445
:1053B00040E150E06FEF70E08FE594E00E94A03490
:1053C00010927A0440E150E06FEF70E083E994E0DE
:1053D0000E94A03481E080930A0B48E050E067E12E
:1053E00070E082E09BE00E94A73410920A0B80914B
:1053F000020B8430F8F485E08093020B80914C011D
:1054000090914D01A0914E018093030B9093040B5A
:10541000A093050B8FE78093060B8FEF8093070B0C
:1054200048E050E067E170E082E09BE00E94C53414
:1054300010920A0B8091190791E08927880F8093B9
:10544000DE0680E88093B6040E940F316BE070E0C6
:1054500082E798E00E944315882309F443C08091B5
:10546000DE0665E070E081FD2DC18DE698E00E94CA
:1054700043158823B9F16DE070E08BE598E00E9458
:105480004315882379F10E94EB0C69877A878B8713
:105490009C87DC01CB01805A9541AF4FBF4F809371
:1054A000E2069093E306A093E406B093E506EEEDE2
:1054B000F4E080E092E0DF019C011D922150304039
:1054C000E1F7F093B504E093B4048FEF9FEF90936E
:1054D000E1068093E00681E08093E9068093E6068A
:1054E0001092DF0680911907811102C00E948E324E
:1054F00086E091E09093420780934107CE010196A8
:10550000898B9A8B80917104853069F410E400E1F5
:1055100082E1F82E80917104853009F4D6C00E9492
:1055200050190E942A0C0E941827A4EAB4E0BA87F6
:10553000A987E2E7F4E0FE87ED87DF01E4EAF4E023
:1055400091918D911CEA412E14E0512E4E165F066A
:1055500009F4F3C09817A1F320901907A1E1AA2E2E
:10556000A2E0BA2ED12CAD85BE85CD90BE87AD8789
:10557000E985FA853190FA87E9873C14B1F13C243A
:105580004501512C44244394832D8421882309F11F
:105590001C2D14212220A1F05982DA820E947C164F
:1055A0009C838B83F1E0FD8391E0111101C090E0B9
:1055B0009E8349815A816B817C818D810E944B261B
:1055C00080917A0411111BC1FE2C893008F047C16B
:1055D000EF2C5394440CEFEF8E1A9E0AF6E05F1204
:1055E000D3CFE985FA853197C082D39426E0A20E05
:1055F000B11C38E0D312B7CF0E94080DF090190704
:10560000F110A5C00E940D12F090E906FF2009F4E8
:10561000F3C08091E7069091E8060E94531CC29760
:1056200008F40EC20E947C169093E8068093E70669
:105630008EED94E09093B5048093B40480911907A3
:10564000882309F4E1C280E199E00E94411680912B
:10565000100B9091110B292F3327E0E02115310514
:1056600011F0C901E8E09C01B4E036952795BA95A0
:10567000E1F72115310511F0EC5FC9019C01369568
:105680002795369527952115310511F0EE5FC90153
:1056900096958795892B09F0EF5F85EC98E0E830C7
:1056A00008F08DC1F0E0E459FA4C0C947B340E9470
:1056B000470E109271041092190710921A07109257
:1056C0000501BCCD88E698E0D2CE8091710484308B
:1056D00039F10E940D120E94501510926F0448E19A
:1056E00050E00FB6F894A895409360000FBE109359
:1056F000600083B7817F846083BF83B7816083BF8D
:105700007894889583B78E7F83BF0FB6F894A89559
:1057100080916000886180936000109260000FBEED
:105720000E941827E2E7F4E081918111B3C38AE770
:1057300094E08E179F07C1F7EDCE98130DCF0E940E
:10574000F526F0901907FF2009F4BCC0F12C009158
:10575000F80A1091F90A0115110509F444C0809165
:10576000B0049091B104A091B204B091B304BC0113
:10577000CD010E943B0D69877A878B879C8780913A
:10578000AC049091AD04A091AE04B091AF044984F3
:105790005A846B847C84481659066A067B0618F185
:1057A000C8010E9449069801205E31092830310560
:1057B00008F000C10E941A17802F0E944F18109203
:1057C000F80A1092F90A1092B0041092B1041092E3
:1057D000B2041092B3041092AC041092AD04109273
:1057E000AE041092AF040E940D128091E90681115F
:1057F00010CFFF2009F46CC00E94621569C0D4016B
:10580000FC90BFEFFB1609F4DFCE01E010E0EE24C0
:10581000E394883038F540917A048F2D90E0242F5E
:1058200030E0F901E658FB4FDC01AA0FBB1FAF5B6C
:10583000BD4F5C915183880F991FDC01AF5EBD4F56
:10584000D1968C918187F18AF901EE0FFF1FE658FE
:10585000FB4F128E118E4F5F40937A04B9CE00E059
:1058600010E0E12C78E0672E712C601A710AB80103
:1058700065587B4FA3018BE794E00E949734B801F1
:105880006D577B4FA30183E894E00E949734A301F6
:10589000440F551FB801660F771F6D567B4F83E984
:1058A00094E00E949734B80165577B4FA3018BE8C1
:1058B00094E00E94973488E08E1980937A04E11076
:1058C000AACF86CE0E940D128091E9068111A1CE49
:1058D00086E0E6E6F7E0A989BA8901900D928A95FB
:1058E000E1F7B09067070091680710916907D090C1
:1058F0006A07F0906B071092680710926907109280
:105900006A0710926B07812F802B882379F0809192
:10591000EC069091ED060E94531C9C018091640757
:1059200081113CC22B30310508F03EC28D2D8F29EC
:10593000882379F08091EA069091EB060E94531C2F
:105940009C0180916307811167C22B30310508F0FB
:1059500069C280916707B81216C0809168078823D2
:1059600011F0801310C090916907992311F09113E1
:105970000AC020916B07211106C020916A072111EE
:1059800002C0892B81110E94621786E0E989FA8999
:10599000A6E6B7E001900D928A95E1F70E942A0CE5
:1059A0009091EE06891709F4ADCD8093EE060E9422
:1059B000EB0CA8CD0E942B17FFCE88E099E00E9447
:1059C0004F168091F20A805D0E948F1583EC98E05B
:1059D0000E9441168091F10A805D0E948F158FEB25
:1059E00098E00E9441168091EF0A9091F00A209170
:1059F0001001309111018217930709F075C02091B1
:105A0000BD04203209F070C0E7EBF4E06F01819132
:105A10008032E1F3F60101900020E9F78F01015097
:105A20001109C016D10608F4E9C08DEB98E00E9478
:105A30004116809149010E948F1581E00E940F1646
:105A40008091E0069091E106892B99F08091E9061A
:105A5000882379F08091DF0681110BC00E946215C6
:105A60002091E0063091E10680E02115310509F032
:105A7000D1C08091E606882309F4BBCE0E94EB0CCE
:105A800069877A878B879C878091E2069091E306ED
:105A9000A091E406B091E50649845A846B847C8425
:105AA000481A590A6A0A7B0A2FEF42165206620602
:105AB0002FE7720608F09DCE0E9450159ACE81E025
:105AC00099E07DCF89EF98E07ACF8EEE98E077CF9E
:105AD00083EE98E074CF89ED98E071CF81ED98E086
