:100000000C947A050C9497050C9497050C94F12A9E
:100010000C9497050C9497050C9497050C949705F0
:100020000C9497050C9497050C94A7270C948F2893
:100030000C94DE0F0C9497050C9497050C9497057F
:100040000C9497050C9497050C9497050C949705C0
:100050000C9497050C9483270C9497050C949705A2
:100060000C9497050C9497050C9497050C949705A0
:100070000C9497050C9497050C9497050C94970590
:100080000C9497050C9497050C9497050C94970580
:100090000C9497050C9497050C9497050C94970570
:1000A0000C9497050C9497050C94970500AF00AE3F
:1000B0000000000000003E5B4F5B3E003E6B4F6B5C
:1000C0003E001C3E7C3E1C00183C7E3C18001C5729
:1000D0007D571C001C5E7F5E1C0000183C18000051
:1000E000FFE7C3E7FF00001824180000FFE7DBE785
:1000F000FF0030483A060E00262979292600407F65
:1001000005050700407F05253F005A3CE73C5A00A3
:100110007F3E1C1C0800081C1C3E7F0014227F220E
:1001200014005F5F005F5F0006097F017F000066CB
:1001300089956A0060606060600094A2FFA29400EC
:1001400008047E04080010207E20100008082A1CE5
:100150000800081C2A0808001E10101010000C1EB1
:100160000C1E0C0030383E383000060E3E0E0600E5
:1001700000000000000000005F0000000007000712
:100180000000147F147F1400242A7F2A12002313F6
:10019000086462003649562050000008070300003A
:1001A000001C224100000041221C00002A1C7F1C70
:1001B0002A0008083E080800008070300000080887
:1001C0000808080000006060000020100804020019
:1001D0003E5149453E0000427F4000007249494976
:1001E00046002141494D33001814127F1000274565
:1001F000454539003C4A4949310041211109070070
:10020000364949493600464949291E000000140074
:1002100000000040340000000008142241001414C3
:1002200014141400004122140800020159090600A8
:100230003E415D594E007C1211127C007F494949B4
:1002400036003E41414122007F4141413E007F490D
:10025000494941007F09090901003E4141517300AC
:100260007F0808087F0000417F4100002040413F97
:1002700001007F08142241007F40404040007F027F
:100280001C027F007F0408107F003E4141413E0078
:100290007F09090906003E4151215E007F091929A5
:1002A000460026494949320003017F0103003F40CF
:1002B00040403F001F2040201F003F4038403F008B
:1002C0006314081463000304780403006159494D62
:1002D0004300007F4141410002040810200000411A
:1002E00041417F00040201020400404040404000C0
:1002F0000003070800002054547840007F2844443D
:100300003800384444442800384444287F00385496
:100310005454180000087E0902001824241C780098
:100320007F080404780000447D4000002040403DE8
:1003300000007F102844000000417F4000007C0442
:10034000780478007C080404780038444444380079
:100350007C1824241800182424187C007C08040429
:10036000080048545454240004043F4424003C40F2
:1003700040207C001C2040201C003C4030403C00C1
:100380004428102844004C9090907C004464544CC5
:1003900044000008364100000000770000000041E2
:1003A000360800000201020402003C2623263C001D
:1003B000000000000000000000000000000000003D
:1003C000C0E0F0F8F81800C0F0FCFEFFFFFFFFFFF0
:1003D000FFFF7E00000000000000000080C0E0E0A1
:1003E000E0E0E0E0E0E0C0800000000080C0E0E08D
:1003F000E0E0E0E0E0E0C080000000E0E0C0C0E05D
:10040000E0E0E00000E0E0C0C0E0E0E0E0E0C0806C
:100410000000000080C0E0E0E0E0E0E0E0E0C0805C
:100420000000000000000000000000000000E0F0FC
:10043000F0F0E0ECEEF7F37020007C7C7C7E007E38
:100440007E7E7F7F7F000080C0E07E5B4F5BFEC0D2
:100450000000C000DCD7DEDEDED7DC00C00000001C
:10046000000000000000000000000000000000008C
:10047000000000000000000000F8FCFEFFE000FFAC
:10048000FFFFFFFFFF80FFFFFFFFFFFFFFFFFF1FDB
:100490000701000000000000000000FFFFFF8100D6
:1004A000000000000081C3C3C30000FFFFFF810004
:1004B000000000000081FFFFFF0000FFFFFF0100C0
:1004C0000000000000FFFFFF010000000001FFFF2F
:1004D000FF0000FFFFFF9D1C1C1C1C1C1C9DDFDF80
:1004E000DF000000000000000000000000000F1FFF
:1004F0003F7F7F7F7F7F3F1E0C001F1F1F3F003FFE
:100500003F3F7F7F7F00307B7F7830202030787FB7
:100510003B0003000F7F0F0F0F7F0F000300000051
:1005200000000000000000000000000000000000CB
:10053000000000000000000000030F1F3F3F3F3F8E
:100540001F1F3F3F7F7F7F3F3F1F3F7F7F7F7F7C1E
:100550007878381C0F000000000000000103070736
:10056000070707070707030100000000010307074B
:100570000707070707070301000000070707000038
:100580000000000000070707000000000000070748
:100590000700000001030707070707070707030114
:1005A000000000000000000000000000000000004B
:1005B000000000000000000000000000000000003B
:1005C000000000000000000000000000000000002B
:1005D000000000000000000000000000000000001B
:1005E000000000000000000000000000000000000B
:1005F00005010902A10185020901A10005091901EE
:1006000029081500250195087501810205010930A9
:1006100009311581257F95027508810609381581F4
:10062000257F950175088106050C0A38021581257C
:100630007F950175088106C0C005010980A101856B
:100640000319012AB700150126B70095017510811D
:1006500000C0050C0901A101850419012AA0021599
:100660000126A002950175108100C005010906A1AF
:10067000018506050719E029E7150025019508758C
:100680000181020507190029EF1500250195F07574
:100690000181020508190129059505750191029549
:1006A0000175039101C005010906A101050719E0C3
:1006B00029E7150025019508750181029501750846
:1006C00081010507190029FF150026FF0095067511
:1006D00008810005081901290515002501950575F2
:1006E000019102950175039101C009023B000201CD
:1006F00000A0FA0904000001030101000921110111
:1007000000012244000705810308000109040100DB
:10071000010300000009211101000122B6000705B4
:10072000820320000112010002000000085346016C
:10073000000100010200010C0343006F0072006E13
:100740000065000000100366006F006F0073007406
:100750000061006E0000000403090400DA0281FF5A
:10076000D9F1DB20A4A62EAF00A0C0D30000A1C801
:10077000D30000AED580A81F408D14200080818258
:10078000838485868788898A8B8C8D8E8F909192C1
:100790009394A0A1A2A3A4A5A6A7A8A9AAABACAD17
:1007A000AEAFB0B1B2B3B4C0C1C2C3C4C5C6C7C88E
:1007B000C9CACBCCCDCECFD0D1D2D3D4003A002C25
:1007C000206B007800556E646566004D4F555345AB
:1007D0000053594D424F4C530046554E4354494FD8
:1007E0004E5300544F47474C45204E4156004E4112
:1007F0005649474154494F4E004E554D424552537C
:100800000051574552545900434F4C454D414B0000
:100810004C617965723A20002E0214001A0009001A
:1008200013000500292104001500160017000A0016
:10083000E1001D001B000600070019000000000079
:1008400000002B442C4328422F0033001C001800CA
:100850000F000D00343112000C00080011001000D0
:1008600032325400370036000B000E00000000004A
:10087000000023522A454C462B0014001A000800A1
:1008800015001700292104001600070009000A00BE
:10089000E1001D001B00060019000500000000001B
:1008A00000002B442C0028422F00130012000C00E3
:1008B00018001C00343133000F000E000D000B0037
:1008C00032325400370036001000110000000000E2
:1008D000000023522A454C462B001E001F0020001A
:1008E000210022006252E300E200E000E100000784
:1008F000E1001D011B0106010701000F00000000BF
:10090000000024522C432800380027002600250030
:10091000240023002D00360223002200210036008F
:100920003202540020001F001E00370000000000AB
:1009300000003843274527022B001E021F1409011F
:1009400013010505E000A852A452A152A2521701BA
:10095000E1001D011B010601070119010000000053
:10096000000039006652625238002E004D004B00E4
:100970004E004A002D0036024F0052005100500038
:100980001F0237020000A900AA00000000000000BA
:100990000000380038022702557C000000000000EB
:1009A00000002078537CE300E200E000E100005208
:1009B000567C2378257827782178015200000000A2
:1009C000000000000000000038002E00420041003E
:1009D000400045002D0036023F003E003D0044002F
:1009E0001F0254003C003B003A004300000000009E
:1009F000000039002A004C0030141E021F14251478
:100A0000261420023000230221142502260222028D
:100A10002D146414300264006402320200000000ED
:100A200000002B002C002800000000000000000047
:100A300000000000E400A852A452A152A2520000FB
:100A4000E5000000000000000000000000000000C1
:100A500000000000000000002B0000000000CD009E
:100A60000000D9006652DB00CF00CE00D000DC00D1
:100A700000000000000000000000DA00000000009C
:100A80000000D300D100D200000000002B014F0471
:100A900050042B03E400E3004F2452315132500044
:100AA000DF00DE00DD00D200D100D3000000000036
:100AB000000000000000000020202020616263642C
:100AC00065666768696A6B6C6D6E6F70717273745E
:100AD00075767778797A313233343536373839303C
:100AE000524542545F2D3D5B5D5C233B27602C2EBD
:100AF0002F20202011241FBECFEFDAE0DEBFCDBFB4
:100B000012E0A0E0B1E0E8EDFAE502C005900D9238
:100B1000AE34B107D9F729E0AEE4B2E001C01D92CE
:100B2000AD35B207E1F70E94B3210C94102D0C945F
:100B300000009C019A9581159F4118F5F901EE2757
:100B4000F270832F8170B90166277470A901442760
:100B5000587034FF0CC08295807FEF2B09F08062C3
:100B6000672B09F08064452B69F080680895EF2BAE
:100B700009F08260672B09F08460452B19F08860CA
:100B8000089580E0089590931109809310090895C5
:100B90009093130980931209089521E030E002C078
:100BA000220F331F8A95E2F7809112099091130961
:100BB000822B932B0E94C805089521E030E002C0EB
:100BC000220F331F8A95E2F7209530958091120904
:100BD00090911309822393230E94C80508959830A9
:100BE00098F5863088F5E82FF0E086E0989FE00DD4
:100BF000F11D11248E2F877041E001C0440F8A95AA
:100C0000EAF783E0F695E7958A95E1F7EE0FFF1F87
:100C1000EE0FFF1FEA5AFA4F20E030E070E05191EA
:100C2000DF011197CB01022E02C0969587950A9499
:100C3000E2F7817081958527842385278C932F5F28
:100C40003F4F2430310559F70895983078F58630B4
:100C500068F5E82FF0E086E0989FE00DF11D112483
:100C60009E2F977083E0F695E7958A95E1F7EE0F52
:100C7000FF1FEE0FFF1FEA5AFA4F40E050E080E0FE
:100C8000219130E0092E02C0369527950A94E2F7AB
:100C900021703327042E01C0220F0A94EAF7822B19
:100CA0004F5F5F4F4430510559F7089580E0089534
:100CB00080911B0990911A09981301C008958F5FC4
:100CC0008770FACF90911509809589238093150933
:100CD000282F2770211111C0891779F090915C0994
:100CE00092FF0BC08695869586950E94DD05109231
:100CF000150910921709109216090895982F9095CA
:100D000080910E09892380930E09089580910D0921
:100D1000882331F010920D091092190910921809C8
:100D200008957830B8F46630A8F48730B0F4E62F30
:100D3000F0E096E0799FE00DF11D112490E3899F8A
:100D4000E00DF11D1124EE0FFF1FE85EF74F8591B6
:100D50009491089580E090E0089581E0FCCF803E7A
:100D60009105D1F1C8F48133910509F47FC048F4AD
:100D70008932910509F46FC08A32910509F47DC06A
:100D8000089589339105E1F082389105C9F08533E2
:100D9000910509F45BC00895843E9105D1F148F4B2
:100DA000823E910531F1833E910541F181EE90E063
:100DB0000895863E9105C1F1873E9105E1F10895C0
:100DC00020915B092370211165C020915C0923FFEC
:100DD00014C089E290E0089520915B0920FD43C092
:100DE00030915C0930FF09C024FF4EC080E090E0E4
:100DF000089520915B0922FDF7CF089520915B09AA
:100E000022FD45C030915C0930FD44C024FFF5CF80
:100E1000EDCF20915C0921FFF0CF80915B0984FD2B
:100E2000E5CF87EE90E0089520915B0923FFE5CFA1
:100E300024FDDCCFF6CF20915B0923FD2EC030913D
:100E40005C0931FFE3CF84EE90E0089520915B09C7
:100E500025FFD3CFBECF20915B0925FD21C0209176
:100E60005C0923FFCACF89E390E0089520915B09D4
:100E700026FFC3CF8AE290E0089520915B0926FF08
:100E8000BCCF81E390E0089583EE90E0089582EE78
:100E900090E0089580EE90E0089586EE90E0089549
:100EA00085E390E0AACF90915B0992FF10C041E0EA
:100EB000282F2471243009F040E031E0282F2871D8
:100EC000283009F030E0431711F02CE0822793FF1F
:100ED00010C041E0282F2471243109F040E031E0B6
:100EE000282F2871283109F030E0431711F02CE049
:100EF000822730915C0930FF10C051E0282F21710A
:100F0000213009F050E041E0282F2871283009F005
:100F100040E0541711F029E0822731FF10C041E072
:100F2000282F2171213109F040E031E0282F28716C
:100F3000283109F030E0431711F029E0822794FDB1
:100F4000877E08951F93CF93DF930E94AF06EC0135
:100F5000811522E5920708F053C0811540E59407FA
:100F600008F0DDC0803E9105F8F48D3C910508F055
:100F7000AEC0883A910580F4853A910508F099C091
:100F80008130910521F00497813A910550F4CE010A
:100F9000DF91CF911F910895885A91094B9708F4DA
:100FA0008BC0C0E0D0E0F3CF811550E49507F8F492
:100FB000C11580E2D80708F0CBC0C83ED10538F390
:100FC000CE019A9581159F4160F78D2F0E9453079E
:100FD000182FCE0199270E94AF06212F30E0322F23
:100FE0002227E901CC27DF71C82BD92BD0CF992735
:100FF0000E94AF06CC27DF70C82BD92BD06AC7CF91
:10100000803842E59407C8F5803652E5950708F028
:1010100067C0C03482E5D807B0F08C2F86958695DE
:10102000877020E2829FC0011124C37021E030E06C
:10103000A90102C0440F551FCA95E2F7EA01C82B67
:10104000D92BDC68A4CFC03252E5D50708F041C0E7
:101050008C2F8695869520E2829FC0011124C37053
:1010600021E030E0A90102C0440F551FCA95E2F704
:10107000EA01C82BD92BDD688ACF803C52E5950761
:1010800060F48F71C03AD24508F03FC090E0982FCD
:101090008827EC01C46FD06A7ACF805C9245809734
:1010A00008F07FCFDC2FCC27CC27DF71C06FD06A50
:1010B0006ECFA497D0646BCFC85AD0E0CC0FDD1FA1
:1010C000CE5FDD4F0990D881C02DD46460CFD0654C
:1010D0005ECFCF71D0E0DC2FCC27C16FD06A57CF65
:1010E00086958695877020E2829FC0011124C37087
:1010F00021E030E0A90102C0440F551FCA95E2F774
:10110000EA01C82BD92BDA6842CF0E945307C82FB7
:10111000D0E0DC2FCC27CC27DF71D06238CF8F71A5
:101120000E94530765E0D695C7956A95E1F7CF70A1
:10113000D0E0DC2FCC27282F30E084FF05C054E01E
:10114000220F331F5A95E1F7C22BD32BD0691FCF43
:101150008D2F8F710E945307182FCE0199270E945F
:10116000AF06212F30E0322F222722273F71282B74
:10117000392BE901D2CFA0E0B0E0E1ECF8E00C942B
:10118000292C8C01E0901209F0901309809110092C
:1011900090911109E82AF92ACFE0D0E0CC24C39439
:1011A000D12CC6010C2E02C0880F991F0A94E2F7B9
:1011B0008E219F21892B49F4219798F7B12C8B2DF3
:1011C000CDB7DEB7E9E00C94452CBC2EB8018C2FCE
:1011D0000E9491060E94A207019771F3F0CF0F932E
:1011E0001F93CF93FC01858100811181882391F0A9
:1011F000662381F0C8010E94BB08C82F682FC80170
:101200000E94EF05B8018C2F0E949106CF911F918B
:101210000F910895C8010E942506C82FF3CFCF93E0
:10122000DF93D82FC92F0E94BB086D2F7C2F0E94FF
:1012300091060E94A207DF91CF910895FC0184815D
:101240008823A1F0808191810E940F09282F929517
:101250009F70963091F060F4925F9F70923030F4FE
:1012600081E0203F79F030F4283E30F080E004C087
:101270009A5FF3CF243FD1F7089581E0283E18F01C
:10128000213FF9CF0895089580E00895F894E82F5C
:10129000E295EF70F0E041A18F7021E030E0B901FC
:1012A00002C0660F771F8A95E2F7CB01962F9095C3
:1012B000942391A392A1892B82A378940895FC0191
:1012C0008581862381110AC082818823B9F0682331
:1012D000918593FF05C081E061110FC080E0089502
:1012E000282F22952F708F70282B962F92959F7004
:1012F0006F70962B81E02913F1CF089581E0FDCF27
:10130000282F35EB2303C001112497FF04C0805818
:101310009109892F089580589F4FFBCF80917005C8
:1013200080FD14C081FD14C082FD16C080916F0540
:10133000882381F08E3180F428E2829FC00111243D
:101340006EE170E00E94632C862F08958AE0089574
:1013500084E1089584E0089588E2089580917005FD
:1013600080FD17C081FD17C082FD19C080916E05F8
:10137000882399F0883298F428E0829FC0011124D4
:1013800068E270E00E94632C6115710551F0862FB0
:10139000089562E0FCCF64E0FACF61E0F8CF68E046
:1013A000F6CF81E0089580912405882359F0E091DB
:1013B0004C05F0914D05309729F00190F081E02D1A
:1013C0000995089580E00895A3E0B0E0EAEEF9E021
:1013D0000C94302C9C018091A4029091A50282175C
:1013E0009307A1F03093A5022093A402E0914C054D
:1013F000F0914D05309751F083E089833B832A8338
:101400000084F185E02DCE01019609952396E2E056
:101410000C944C2CA3E0B0E0E0E1FAE00C94302C0A
:101420009C018091A2029091A30282179307A1F0E0
:101430003093A3022093A202E0914C05F0914D0558
:10144000309751F084E089833B832A830084F185BF
:10145000E02DCE01019609952396E2E00C944C2CE8
:10146000909136019130C1F490915B0997FF14C0BF
:10147000E82FE695E695E695803FF8F4F0E0E85A27
:10148000FD4F877021E030E001C0220F8A95EAF716
:101490008281822B82830895A2E5B2E0EFEF90E093
:1014A0002D91821751F0EF3F19F4211101C0E92F5E
:1014B0009F5F9630A9F7EF3F09F408950E2E000CB8
:1014C000FF0BE05BFD4FE6CF909136019130E1F4E8
:1014D00090915B0997FF18C0E82FE695E695E69591
:1014E000803FF0F4F0E0E85AFD4F877021E030E0F3
:1014F000A90102C0440F551F8A95E2F7CA018095E1
:101500009281892382830895E2E5F2E09191891323
:1015100003C0DF0111971C9252E0E835F507B1F7DF
:101520000895809135010895A4E0B0E0EAE9FAE079
:101530000C94302C8FB7F89420919E0230919F022A
:101540004091A0025091A10229833A834B835C838E
:101550008FBF69817A818B819C812496E2E00C9413
:101560004C2CA4E0B0E0E7EBFAE00C94302C809136
:101570002405882371F00E94940A69837A838B83FF
:101580009C8369817A818B819C812496E2E00C9412
:101590004C2C0E94940A69837A838B839C8380916C
:1015A000260590912705A0912805B091290529814C
:1015B0003A814B815C81280F391F4A1F5B1F2983A9
:1015C0003A834B835C83DDCFA4E0B0E0EAEEFAE03F
:1015D0000C942E2C462F572FBC012FB7F8948091D6
:1015E0009E0290919F02A091A002B091A1022FBFF4
:1015F0008C019D01041B150B260B370BC901B8018B
:101600002496E4E00C944A2CA6E0B0E0EAE0FBE08B
:101610000C942C2C7C010091050910910609209155
:1016200007092E83809108098D83B801822F9D813F
:101630000E94E40A643F71408105910518F10E94FF
:10164000940A8B018E839D8382E390E0A0E0B0E05A
:101650000093C8021093C9022E812093CA022D81E3
:101660002093CB028093C4029093C502A093C6023C
:10167000B093C702E0920309F09204092696E6E0CF
:101680000C94482C84EF91E0A0E0B0E0E1CFFC01A5
:101690009B0180919402909195028617970740F0E4
:1016A000672B29F48091E8008E778093E800C901C8
:1016B00040E0009741F4411106C08091E80082FFAC
:1016C0002FC080E008952091B2022223A9F1253095
:1016D000A9F12091E80023FD2DC02091E80022FD12
:1016E000ECCF2091E80020FFE4CF3091F30020916F
:1016F000F200009719F02830310558F041E0283009
:10170000310509F040E02091E8002E772093E800B1
:10171000D0CF41914093F10001972F5F3F4FE9CF28
:101720008091B202882341F0853041F08091E80039
:1017300083FFC3CF81E0089582E0089583E0089598
:1017400080918E0287FF13C08091E80082FF06C05F
:101750008091E8008B778093E80004C08091B2020A
:101760008111F2CF08958091B2028823D9F380913C
:10177000E80080FFF8CF8091E8008E77ECCF2091D1
:10178000E4003091E50095E6A9018091EC008170BC
:10179000882331F08091E80080FF06C080E0089542
:1017A0002091E80022FD1BC08091B202882391F0B5
:1017B000853091F08091EB0085FD10C02091E40010
:1017C0003091E5004217530701F391509111DCCF9E
:1017D00084E0089582E0089583E0089581E008950B
:1017E000E8EDF0E080818E7F80831092E20010921D
:1017F000DA001092E100A0EEB0E08C9181608C9351
:1018000080818F77808319BCA7EDB0E08C918E7FAB
:101810008C9380818F7E808310928D020895FC01CD
:10182000AC014C5F5F4F8FEF91E32191822728E05D
:1018300030E087FF0BC0880F89272150310921151F
:101840003105B9F7E417F50781F70895880FF5CF4B
:10185000982FE42FE2709093E900891308C0762F47
:10186000242F50E0E11111C091E0980FF4CF709156
:10187000EC002091ED005091F00021FD06C09F5F2B
:10188000973049F78093E90008953091EB003E7F4F
:101890003093EB003091ED003D7F3093ED003091BF
:1018A000EB0031603093EB007093EC002093ED007F
:1018B0005093F0002091EE0027FDE1CF0895A0E0C5
:1018C000B0E0E5E6FCE00C942A2CC8EDD0E088817D
:1018D0008F7E8883E7EDF0E080818160808384E003
:1018E00082BF81E080938D0288818E7F888302EEA3
:1018F00010E0F80110821092DA0081EEC82ED12C8F
:10190000F601108288818F77888388818068888338
:1019100088818F7D888319BC1092B20210928C024C
:101920001092B10210928B0290EEE92EF12CF70189
:1019300080818B7F808388818160888342E060E042
:1019400080E00E94280CF60180818E7F8083F80160
:10195000808181608083808188608083F7018081BD
:101960008E7F8083888180618883CDB7DEB7E8E091
:101970000C94462CE0911B0990911A0927E0E91379
:1019800002C080E00895AE2FB0E02E9FF001112438
:10199000E45EF64F3181361306C03081381303C040
:1019A0003581341304C0FD013196E770E8CF81E042
:1019B00008950F931F93CF93DF93EB018A019091CA
:1019C000B202943079F58093E9008FEF9091E800AE
:1019D00095FD07C095ED9A95F1F7000081508111B2
:1019E000F5CF8091E80085FF1DC00E94BF0B8111DB
:1019F00014C08091E80085FD06C08091E8008E77D4
:101A00008093E800F2CF88818093F10001501109A2
:101A10000115110511F02196ECCF8091E8008E7729
:101A20008093E800DF91CF911F910F910895CF939C
:101A3000DF93D82FC92F48E050E0682F792F81E03D
:101A40000E94D90C88E0ED2FFC2FA6E9B2E00190AE
:101A50000D928A95E1F7DF91CF910895BC0140E2A4
:101A600050E082E00E94D90C0895BC0146E050E0AD
:101A700082E00E94D90C0895BC0143E050E082E06E
:101A80000E94D90C0895A0E0B0E0E9E4FDE00C94D8
:101A9000282CF82EE92EB62EA72E8A0180918A02D4
:101AA000CC24C394D12C8A3018F48AE0C82ED12CCF
:101AB000C1E0D0E06B2D7A2D8F2D9E2DF801099578
:101AC000811116C02196CC16DD0694F0CC9FC00182
:101AD000CD9F900D900D112420E030E045E34A9514
:101AE000F1F700002F5F3F4F28173907B9F7E2CF12
:101AF000CDB7DEB7EAE00C94442C90915C0992FBE0
:101B0000222720F9281779F080FB92F990935C093D
:101B100060915B0970915C0984E090E00E94FA2C6E
:101B200082E00E9462060895A8E0B0E0EAE9FDE0E4
:101B30000C942F2C8091070590910805A091090520
:101B4000B0910A05BC01CD010E94E40A11E064369F
:101B500071058105910578F10E94B10ADC01CB0184
:101B60000296A11DB11D89839A83AB83BC838091AA
:101B70002D0190912E01815F9A4F20912C01422FCF
:101B800050E0253010F044E050E0BE016F5F7F4F21
:101B90000E94B52C83E090E00E94972B182F882399
:101BA00051F00E94940A6093070570930805809392
:101BB000090590930A05812F2896E3E00C944B2C9D
:101BC000EF92FF921F93CF93DF93CDB7DEB72997A4
:101BD0000FB6F894DEBF0FBECDBF7B0180E090E072
:101BE0000E94972B182F81111BC010E080911C05BB
:101BF00090911D05A0911E05B0911F05F7018083EE
:101C00009183A283B383812F29960FB6F894DEBF08
:101C10000FBECDBFDF91CF911F91FF90EF90089540
:101C200080911701482F50E0882311F041E050E0E7
:101C30006091180170911901615F7A4FCE0105968C
:101C40000E94B52C8091200590912105A09122053C
:101C5000B0912305BC01CD010E94E40A6E837F830D
:101C600088879987643671058105910538F480E18C
:101C700095E00E940F0C9D818917B9F181E090E0F9
:101C80000E94972B882309F4B0CF80911F01482F21
:101C900050E0853010F044E050E0609120017091F8
:101CA0002101615F7A4FCE0101960E94B52C80E13F
:101CB00095E00E940F0C9D81891397CF0E94940A92
:101CC000609320057093210580932205909323054E
:101CD00089819A81AB81BC8180931C0590931D05FD
:101CE000A0931E05B0931F0581CF809110059091A0
:101CF0001105A0911205B091130589839A83AB83D6
:101D0000BC83E6CFA6E0B0E0E8E8FEE00C942E2C21
:101D10008E839D8344E050E064E175E00E94A82C2E
:101D20008C0180910B0590910C05A0910D05B0914F
:101D30000E05BC01CD010E94E40A643671058105DF
:101D4000910518F40115110511F18091250190916B
:101D50002601815F9A4F20912401422F50E02530C7
:101D600010F044E050E06E817D810E94B52C82E04D
:101D700090E00E94972B882359F00E94940A609368
:101D80000B0570930C0580930D0590930E0581E073
:101D90002696E4E00C944A2CAB0124E630E0BC012A
:101DA00088E70E94AE299C0181E0232B09F080E0A6
:101DB000089580910105882369F08091FE048823AD
:101DC00049F062E070E08EEA90E00E94CC0E811152
:101DD0001092FE040895A4E0B0E0E1EFFEE00C9460
:101DE000302C809101058823F9F00E94940ADC01CF
:101DF000CB01805A9541AF4FBF4F8093FA04909327
:101E0000FB04A093FC04B093FD048091FE048111B7
:101E10000BC062E070E08CEA90E00E94CC0E882358
:101E200019F081E08093FE042496E2E00C944C2C9F
:101E3000CF93DF93682F81E06A3019F06D3031F471
:101E400080E00E94980FDF91CF9108958091CC029D
:101E50009091CD0226E0FC01A4E8B2E001900D9241
:101E60002A95E1F7603E08F458C026E0FC01119283
:101E70002A95E9F7C091CC02D091CD0246E050E01E
:101E8000BE0184E892E00E94A82C9E01265F3240A9
:101E9000892B41F1C90145E0969587954A95E1F76F
:101EA00041E050E0BA0102C0660F771F8A95E2F761
:101EB000CB016091F8047091F904862B972BB9013E
:101EC0006B5F7F4FE5E076956795EA95E1F702C095
:101ED000440F551F6A95E2F7842B952B9093F904D4
:101EE0008093F8042A5F3F4F4091CE02642F70E048
:101EF000C9010E940C2C481B463010F4240F311DE0
:101F0000211572E0370710F020E030E02A503D4FF5
:101F10003093CD022093CC0296CFF6E06F9FB001B4
:101F2000112460557F4F46E050E00E949F2CA2CFC5
:101F3000CF93382FE091CC02F091CD02E65FF240D2
:101F40002091CE02622F70E0CF010E940C2C281B42
:101F5000822F332361F066E00E94572CC82FC150B6
:101F600010F4CF91089580E20E94180FF8CF9F01DE
:101F7000280F311D2115324018F080E0E0E0F0E03C
:101F80008E0F9F2F911D8A509D4F9093CD0280936D
:101F9000CC02E7CFCF93DF93EC01FE018491811156
:101FA00003C0DF91CF9108950E94180F2196F5CFBD
:101FB0000E94CA0F81E00E94980F08951F921FB6D9
:101FC0001F9211248F939F93AF93BF938091B00280
:101FD000811113C080919E0290919F02A091A00256
:101FE000B091A1024196A11DB11D80939E029093D4
:101FF0009F02A093A002B093A102BF91AF919F91C5
:102000008F911F901FBE1F9018952FB7F894809145
:102010009E0290919F02A091A002B091A1022FBFB9
:102020000895CF93DF93C0910E0980911409C82BB6
:1020300080910D09882339F10E940510209118091B
:1020400030911909821B930B8838934110F00E943C
:102050008606D0910D09809136018130F1F480918E
:102060005B0987FF1AC08DE12AE532E090E0F901B3
:1020700040812F5F3F4F41119F5F8150C0F7911109
:102080000E948606CD2B8091FF0880958C2390912D
:10209000FE08892BDF91CF91089585E022E532E09B
:1020A000E5CF80913601813059F580915B0987FF3A
:1020B00027C00E9411108093590240E250E06CE268
:1020C00075E088E592E00E94A82C892BC1F080E29F
:1020D000E8E5F2E0ACE2B5E001900D928A95E1F717
:1020E000E0914C05F0914D05309749F086E08093E2
:1020F00058020480F581E02D88E592E00995089565
:102100000E9411108093500248E050E06EE475E0A8
:1021100080E592E00E94A82C892B89F388E0E0E515
:10212000F2E0AEE4B5E001900D928A95E1F7E0911E
:102130004C05F0914D05309711F30280F381E02DAD
:1021400080E592E0DBCF882339F090910E09892B4E
:1021500080930E090E9451100895882321F00E9457
:102160007E060E9451100895882339F09091140939
:10217000892B809314090E945110089590915C0955
:1021800092FF10C098E0899F90011124622B609308
:1021900015090E94CD050E940510909317098093A0
:1021A000160908950E94CD05089590910D09292FD3
:1021B0002823222361F08095892380930D098823A9
:1021C00039F00E9405108093180990931909089519
:1021D00080E090E0F8CF0E940510209173053091C7
:1021E0007405232B222321F0809304059093050589
:1021F0002091750530917605232B222321F08093C1
:10220000020590930305E0914C05F0914D05309740
:1022100049F082E0809371050680F781E02D81E727
:1022200095E009950895662309F44BC0E3E3E80FB0
:10223000E33150F4F0E0EE5EF24D0C94992C0E94E4
:102240008E098195809374050E94EB1008950E9479
:102250008E09F8CF0E948E09819580937305F4CF83
:102260000E948E09FACF0E94AE0980937505ECCFCB
:102270000E94AE098195F9CF0E94AE0981958093A5
:102280007605E2CF0E94AE09FACF815D990B21E07D
:1022900030E001C0220F8A95EAF780917205822B07
:1022A00080937205D1CF8091700581608093700515
:1022B000CBCF809170058260F9CF809170058460EA
:1022C000F5CF409173058D3C59F48091740587FFDB
:1022D0000DC010927405442359F410926F0508C084
:1022E0008E3C81F48091740518169CF3442381F090
:1022F0008091750590917605892B8111A5CF10925B
:102300006E05A2CF8F3C41F447FFF0CF10927305CA
:10231000809174058823E0CF803D19F41416B4F33E
:10232000E5CF90917505893D29F41916FCF61092B8
:102330007505DCCF8A3D19F497FFD8CFF8CF90917F
:1023400076058B3D29F497FFD1CF10927605CECF3D
:102350008C3D19F41916CCF3C9CF9FE2980F983031
:1023600090F4815D990B21E030E0B90102C0660F65
:10237000771F8A95E2F7CB018095909172058923AA
:1023800080937205B3CF8D3D31F4809170058E7FBF
:1023900080937005ABCF8E3D21F4809170058D7FC9
:1023A000F7CF8F3D09F0A2CF809170058B7FF0CFE2
:1023B000CF93C82F8823B1F18CEF8C0F813AA0F511
:1023C00080913601813001F580915B0987FF1CC047
:1023D000EC2FE695E695E695F0E0E85AFD4F828110
:1023E00090E04C2F477021E030E002C0220F331FF5
:1023F0004A95E2F782239323892B79F08C2F0E9450
:10240000640A0E94511009C0E2E5F2E08191C81708
:10241000A9F322E0E835F207C9F78C2F0E94300AB1
:102420000E945110CF91089580E28C0F883068F49B
:10243000C77081E090E001C0880FCA95EAF7C091AB
:102440000E09C82BC0930E09EBCF8BE58C0F8330A0
:1024500038F42C2F2452330BC9010E94E409E2CF37
:10246000E8E5EC0FEB3150F4F0E0EE0FFF1FEE5F0C
:10247000FD4F808191810E940A0AD4CF83E38C0FA3
:10248000833180F661E08C2F0E941311CBCF88231B
:1024900081F19CEF980F913A28F40E94640A0E94FF
:1024A0005110089590E2980F983050F4877091E0A1
:1024B00001C0990F8A95EAF7892F0E947E06EFCF17
:1024C0009BE5980F933028F480E090E00E94E409A7
:1024D000089598E5980F9B3128F480E090E00E94E1
:1024E0000A0A089593E3980F933118F460E00E946C
:1024F000131108951F93CF93DF93182FA091010913
:10250000B0910209109709F44AC010920409109280
:1025100003091092FF081092FE081796CD91DC91E6
:102520001897CE019A9581159F4108F4D07ED1E08D
:10253000C11101C0D0E01A96ED91FC911B97309724
:1025400031F01C966D917C9180E00995D823DD23B4
:1025500039F08CEF8C0F813A30F58C2F0E94640A91
:102560001123A9F0E0910109F0910209818584FD10
:102570000EC080910009882351F0808191819C01D7
:10258000215031092F333E4710F40E94040B0E9462
:102590005110109202091092010910920009DF9166
:1025A000CF911F9108950E9451108C2F0E944712C5
:1025B000D7CF10920E0980913601813039F5809184
:1025C0005B0987FF23C0EAE5F2E08EE1DF011D929F
:1025D0008A95E9F780E090E00E94E40980E090E0CD
:1025E0000E940A0A109214090E94511086E0E1E745
:1025F000F5E0DF011D928A95E9F710926F051092C0
:102600006E05109270050E94EB100895E2E5F2E06D
:1026100086E0DCCF0E94D9122FEF84E39CE02150AA
:1026200080409040E1F700C0000088E19AE00FB6DA
:10263000F894A895809360000FBE90936000FFCF40
:10264000AAE2B0E0E6E2F3E10C942F2C8EE892E0EF
:10265000FC0101962091F100208322E08639920747
:10266000B9F780918F02893009F45AC0C8F48230DA
:1026700009F4B6C0833009F485C0813091F18091AE
:10268000E80083FFEAC080918E0290918F029A3019
:1026900008F0E3C0E92FF0E0EB5DF24D0C94992CCB
:1026A0008A3009F48CC08B3051F780918E028132D0
:1026B00031F78091920290919302892B01F78091DA
:1026C000E800877F8093E8000E94A00B81E0909152
:1026D0009002911101C080E0809336010E94D912CE
:1026E000CECF80918E02813A51F68091E800877FAB
:1026F0008093E8008091920290919302892B61F07F
:1027000060E080E090E070E00E94470B8091E8007C
:102710008B778093E800B3CF68E086E992E0F3CF4F
:1027200080918E02813209F0AACF8091920290911D
:102730009302029708F0A3CF8091E800877F8093EF
:10274000E8008091E80082FF18C09091F30080912A
:10275000F200029731F48091F100813011F086305F
:1027600021F48091F100809335018091E8008B770E
:102770008093E8000E94A00B82CF8091B202811169
:10278000E0CF7DCF80918E02813A09F078CF8091A1
:10279000920290919302892B09F071CF8091E80009
:1027A000877F8093E8008091E80080FFFCCF8091D4
:1027B00036018093F1008091E8008E77D9CF809127
:1027C0008E02813209F05BCF8091E800877F809391
:1027D000E8000E94A00B80919102809334014FCFBA
:1027E00080918E02813A09F04ACF8091E800877F7C
:1027F0008093E8008091E80080FFFCCF8091340155
:10280000D8CF803889F0823841F5809192028F705C
:10281000873018F58093E9008091EB0085FB8827CD
:1028200080F91092E90006C080918B029091B1026C
:10283000911182609091E800977F9093E8008093D7
:10284000F1001092F1008091E8008E7723C0811191
:1028500016C080919002813011F18091E80083FFD1
:102860000AC08091E800877F8093E8008091EB00A8
:1028700080628093EB00AA96E3E00C944B2C8230AC
:1028800061F780919002882389F01092E90080918D
:10289000E800877F8093E8000E94A00BDECF81E0F4
:1028A000933009F080E08093B102EFCF80919202E3
:1028B0008F702FEF280F263080F68093E90020914B
:1028C000EB0020FFE2CF933031F48091EB00806287
:1028D0008093EB00DACF9091EB0090619093EB0046
:1028E00021E030E0A90102C0440F551F8A95E2F7AC
:1028F0004093EA001092EA008091EB008860E8CFF4
:102900008111ABCF109190021F778091E300807806
:10291000812B8093E3008091E800877F8093E8001B
:102920000E94A00B8091E80080FFFCCF8091E30023
:1029300080688093E30083E0111101C082E08093FE
:10294000B2028BCF8058823008F087CF409190023E
:10295000509191024C3D83E0580799F583E08A83BA
:102960008AE289834FB7F894DE01139620E03EE0B7
:1029700051E2E32FF0E050935700849120FF03C011
:1029800082958F703F5F8F708A30C8F0895C90E0CD
:102990008D939D932F5F243161F74FBF8091E800A5
:1029A000877F8093E8006AE270E0CE0101960E9482
:1029B000470B8091E8008B778093E8004ECF805DD5
:1029C000E6CF2091920230919302852F9927833090
:1029D000910509F160F48130910509F472C0029704
:1029E00009F03BCF8BE390E0EAEEF6E029C08132BC
:1029F000910509F45AC0829709F02FCF21153105AE
:102A000009F469C02130310509F027CF86EB90E049
:102A1000E0EFF5E015C0CA0199274130B1F18230ED
:102A2000910509F43AC0892B09F017CFE7E5F7E0E3
:102A3000E4918E2F90E0E7E5F7E0009709F40DCFE1
:102A40002091E800277F2093E800209194023091A4
:102A500095028217930708F49C0140E02115310587
:102A600009F03EC041113CC08091E80082FDA1CF39
:102A70008091B202882309F49CCF853009F499CF64
:102A80008091E80083FFF0CF94CFE5E4F7E0E49194
:102A90008E2F90E0E5E4F7E0D0CFE7E3F7E0E491B4
:102AA0008E2F90E0E7E3F7E0C8CF2115310571F0F4
:102AB0002130310509F0D1CE89E090E0E5E1F7E081
:102AC000BFCF82E190E0E5E2F7E0BACF89E090E0A5
:102AD000ECEFF6E0B5CF84E490E0E6EAF6E0B0CFC4
:102AE0008091B202882309F464CF853009F461CF64
:102AF0008091E80083FD5DCF8091E80082FDB4CF36
:102B00008091E80080FFAACF9091F3008091F200BD
:102B10002115310519F08830910550F041E00897F2
:102B200009F040E08091E8008E778093E80096CF2E
:102B300044914093F1003196215031090196E8CF3C
:102B4000803809F08ACE8091E800877F8093E80082
:102B500080918C028093F10076CE81117ECE10910F
:102B60009002123008F079CE8091E800877F809340
:102B7000E80010938C020E94A00B1123A9F084E0BE
:102B80008093B20242E061EC81E00E94280C42E2B4
:102B900061EC82E00E94280C8091B202843051F4F2
:102BA00082E08093370159CE8091E30087FDE7CF23
:102BB00081E0E6CF81E0F5CF9C014FB7F89480919A
:102BC0009E0290919F02A091A002B091A1024FBFDE
:102BD000821B930B08950F931F93CF93DF93C62F00
:102BE000D42F122F8823A9F060930B090E9405109F
:102BF0009093830280938202C77081E001C0880FA6
:102C0000CA95EAF70E94A310DF91CF911F910F910F
:102C1000089580910B09681338C0809182029091C9
:102C200083020E94DC158F3A910578F5CD130FC011
:102C3000812F0E94D811812F0E944712D77081E006
:102C400001C0880FDA95EAF70E94AD10DDCFC7709A
:102C500001E0802F01C0880FCA95EAF70E94AD10ED
:102C600080E28D0F883050F48D2F877001C0000FE7
:102C70008A95EAF7802F0E94A310DACF812F0E9455
:102C8000D811812F0E944712BFCFC77081E001C0C9
:102C9000880FCA95EAF7D8CFA0E0B0E0E2E5F6E108
:102CA0000C94202C8C01DC0114968C91882309F45F
:102CB00055C161E0C8010E94EF08EC018091F9085C
:102CC000F8012581811193C1211110C0C635FCE79F
:102CD000DF0709F456C1A8F5C3353CE7D30709F46B
:102CE0001DC1C4358CE7D80709F43DC1D80115963C
:102CF0003C901597332009F4E0C211968C911197FE
:102D00008093FD088C918093FC0880E280933C01C5
:102D1000D093FB08C093FA08CE01905281159042DF
:102D200008F0F0C1F801868130903D01803108F053
:102D3000E2C1332009F4F6C16E0180EEC81AD10851
:102D400051C2C7359CE7D90709F439C1312C8091AC
:102D50003D01882309F45BC36E01B0EECB1AD108A4
:102D600020900F0980910E09282A80910D09282AA8
:102D7000E8E0CE16D10408F03DC29E01277033274B
:102D800081E090E001C0880F2A95EAF7332009F42A
:102D9000A5C2282AD8018D919C910E94250621E088
:102DA00030E0290102C0440C551C8A95E2F780905E
:102DB00001099090020938E3632E32E0732EF3018B
:102DC000E190F1903F01E114F10409F4A5C2211052
:102DD00005C0D70112968C91811198C2F7018381A9
:102DE000948184219521892B09F490C28185982FA3
:102DF00097709111A3C2F8E0CF16D10408F084C2F5
:102E00003110A4C2F701A080B180CA15DB0509F416
:102E10007DC28E149F0409F479C2D7011E96ED91EC
:102E2000FC91309721F08081882309F46FC2622DD4
:102E3000C7010E945F09882309F468C2CA15DB052F
:102E400011F4311005C0A114B10409F08BC2312C6A
:102E500080E00E947A12F0920209E092010981E07A
:102E600080930009F70186818093FF0831100DC01F
:102E7000AB2859F0808191819C0124503109213A7D
:102E8000310508F077C20E94640AF701A780B08478
:102E9000C5019A9581159F4110F420EEB222882435
:102EA0008394C50101978F339E4708F0812CD70189
:102EB0001A96ED91FC911B97309731F01C966D910D
:102EC0007C9181E00995882281E03826882009F4E8
:102ED0006CC2F701878190850E9499058093FE0856
:102EE000C501F8E0CF16D10408F047C20E94040BD8
:102EF0000E945110332009F449C2D80115968C91D3
:102F00008111E5C2C631DC4709F090C280910C09FD
:102F10008111CFC389E20E94640A38C20E94D9128B
:102F200080E090E00E94C80587E795E09093F8085C
:102F30008093F70881E08093F908809115098770E4
:102F4000882361F0D80115968C91882339F08091FF
:102F50005C0982FF03C082E00E946206CDB7DEB743
:102F6000E2E10C943C2C0E94D91280E090E00E9497
:102F7000C80580EF98E09093F8088093F70882E006
:102F8000DACFC0903A01D0903B01E0901209F09066
:102F900013090E94D91280E090E00E94C805C7E79B
:102FA000D5E0CC16DD0631F40E94D912C7010E948B
:102FB000C805C3CFCE010E944C162796F2CFC09011
:102FC0003801D0903901E0901209F09013090E9465
:102FD000D91280E090E00E94C805C0EFD8E0CC167E
:102FE000DD0611F3CE010E944C162797F8CFAE01F3
:102FF00043555C4743305105B8F591E0C535DC4792
:1030000009F490E0921709F498CF813029F08230CA
:10301000B9F01092F90891CF8091F7089091F808D3
:10302000B5E087379B0729F0FC01379725812111EF
:1030300005C090933B0180933A01EBCFCF01F0CFD5
:103040008091F7089091F808E8E0803F9E0729F00A
:10305000FC0137962581211105C090933901809399
:103060003801D7CFCF01F0CF813011F1823009F094
:103070003DCE40913A0150913B018091F7089091EB
:10308000F808211105C028E0803F920709F42ECEF0
:103090009C01295F3F4F4217530709F427CE27E0D1
:1030A000F801DC0101900D922A95E1F707971EC007
:1030B00040913801509139018091F7089091F808BA
:1030C000211105C0F5E087379F0709F40FCE9C0159
:1030D000275031094217530709F408CE27E0F801B9
:1030E000DC0101900D922A95E1F707969093F8087C
:1030F0008093F708FBCDFE01FF27CD3308F4BCC059
:103100003320B5C0CE0190548115904108F047C0DE
:10311000D80116968C9130903D01803108F03BC06B
:10312000311094C010920B09CE01805E92458097B9
:1031300008F47CC1CA35BCE7DB0709F4E9C208F032
:10314000CDC2C130FCE7DF0709F4E0C2C3302CE791
:10315000D20709F4D5C2C115DC4709F067C10E9446
:10316000D912AFEFB4E3ECE0A150B040E040E1F79A
:1031700000C0000087E797E790930108809300085C
:1031800088E19AE00FB6F894A895809360000FBE8E
:1031900090936000FFCFFE01FF27CC33AFCFCE016D
:1031A0009A9581159F4178F4FE01FF27CD3308F4ED
:1031B00056C030903D01332009F4B4CF6E01A0EE2B
:1031C000CA1AD1080FC0CE01805A9245809708F0E4
:1031D00042C030903D01332009F48FCE6E0130EEB5
:1031E000C31AD10820900F0980910E09282A8091D6
:1031F0000D09282A311075C08091090990910A099A
:10320000C817D90781F410920A091092090910927F
:1032100005091092060910920709109208091092E8
:10322000040910920309E0910109F0910209309715
:1032300009F447C080819181C817D90709F041C0BE
:103240001092000980E00E947A123BC06E0190EE5D
:10325000C91AD108C7CFCD33D105F8F4FE01E8541F
:10326000F54FE491E0933C0180913D01882309F4FE
:10327000CEC03324339470CDE854F54FE491E093FD
:103280003C01CD353CE7D307B1F480913D0181117C
:103290000CC081E080933D0150CECE35FCE7DF07C6
:1032A000C1F3CF352CE7D20761F710923D0180E0E2
:1032B0000E947A1242CE3324339480913D018111D1
:1032C0004BCDF8018581FE01E851FC47E730F1055F
:1032D00008F09DC0E15DF24D0C94992C8095282258
:1032E00059CDD0930A09C09309090E94940A6093AA
:1032F00005097093060980930709909308091092B5
:1033000004091092030946CD311020C02EE432E0AA
:103310002615370509F053CD8114910491F238E058
:10332000C316D10408F044C0622DC4010E945F0995
:103330008111E3CD81E00E947A12DFCD28E0C21630
:10334000D10458F4332031F081FFE0CFD701AD90A4
:10335000BC905FCD82FFDACF55CD3320B9F280FF2C
:10336000D5CFF4CF8091090990910A098A159B0560
:1033700069F66DCD0E94471288CD0497813A910578
:1033800040F48A2D0E94300A31109BCF0E945110C8
:10339000D4CD0E945110EFE3FCE93197F1F700C062
:1033A00000008A2D0E94D811EFCF0E945110ECCF5F
:1033B000F40180819181C817D90739F4332009F4C9
:1033C0003FCF818585FD7DCF3DCF332009F479CF77
:1033D0008185F8CF26E241EE61EE0E94EB15ADCD7E
:1033E00027E245EE65EEF9CF26E241EE60EEF5CF3D
:1033F00027E245EE64EEF1CF26E241EE62EEEDCF3C
:1034000027E245EE66EEE9CF28E241E0EBCFF80196
:103410008581811175C0C631FCE7DF0709F476CDDF
:10342000CE01805E9245809708F445C1F801858100
:10343000E080F180882309F46FC1C7010E94BB08B6
:10344000C82F682FC7010E94EF05B7018C2F0E947B
:1034500091060E94A207D82FC92FD8011596DC909B
:1034600015971696CC90C2942FE0C2228091150930
:103470008770882301F1ED2CDD20F1F0892F807F0A
:10348000803461F080E28D0F8830A8F0892F807E33
:10349000803221F4D23078F0CC2069F080915C0940
:1034A00082FF09C082E00E94620680911509877040
:1034B000EE24E3948111E12CEC2FE295EF70C03CF7
:1034C00008F08EC1F0E0EA5CF24D0C94992C109259
:1034D0000B09CE019057839708F026CE84E090E048
:1034E0000E94C62C90935C0980935B09FE01E15019
:1034F000F047E232F105F0F4EE5BF24D0C94992CBA
:1035000010920B09CE019057839740F3C6312CE7F8
:10351000D20709F009CE80910E098A7A91E08111D3
:1035200001C090E090930C098111C1C089E20E9412
:10353000300A2CCF80915B09816080935B09609198
:103540005B0970915C0984E090E00E94FA2C0E9473
:10355000D912F3CC80915C09886080935C09EFCF2D
:1035600080915B098260E9CF80915B098460E5CF3F
:1035700080915B098860E1CF80915C098160EDCF2B
:1035800080915C098260E9CF80915B098061D5CF31
:1035900080915B098062D1CF80915B098064CDCF3F
:1035A0000E94D91280915B098068C7CF80915B0926
:1035B0008C60C3CF80915C098360CFCF80915B0921
:1035C0008E7FBBCF80915C09877FC7CF80915B09DD
:1035D0008D7FB3CF80915B098B7FAFCF80915B09EB
:1035E000877FABCF80915C098E7FB7CF80915C09DC
:1035F0008D7FB3CF80915B098F7E9FCF80915B09D8
:103600008F7D9BCF80915B098F7B97CF0E94D912D2
:1036100080915B098F7791CF80915B09837F8DCFFC
:1036200080915C098C7F99CF80915B0982FB9927FF
:1036300090F921E0922790FB82F990FB83F97DCFEE
:1036400080915C09982F909591708E7F892B90FBCB
:1036500081F983CF90915B09892F8F7B96FF8064DE
:103660006CCF0E94D91290915B09892F97FB87F943
:10367000805863CF61E08EE090E00E94DC2C5FCF49
:1036800060E0F9CF90915B09892F8F7E94FF806174
:1036900054CF90915B09892F8E7F90FF81604DCF31
:1036A00090915C09892F877F93FF886056CF85E3CF
:1036B0003ECF85E330CCCF7181E090E0DC0102C0E9
:1036C000AA0FBB1FCA95E2F7ED016A2F83E090E0D5
:1036D0000E94DC2CCE010E94C3052FCCCB358CE799
:1036E000D807C1F0CC35DC4709F0A0CE80915C0949
:1036F00082FB882780F991E089270E947D0D96CE74
:103700006FEF7FEF80E090E00E94FA2C0E940A1396
:1037100081E0F3CF80E0F1CFC7010E942506C82FDA
:1037200094CEBC2FBF70FB2EC03118F0F29490EFF6
:10373000F922DD20B9F0FF2069F080E28D0F88309A
:1037400010F0D11109C080910E098F2980930E09C4
:103750000E9451108D2F42C0809114098F298093AF
:103760001409F6CF8D2F0E944712FF20C9F180E285
:103770008D0F883010F0D11104C08F2D0E947E066D
:1037800006C0F094809114098F21809314090E943F
:10379000511026C0EC2FEF70FE2EC07FC03219F002
:1037A000F29480EFF822DD2349F0D13009F485C08E
:1037B000DD2009F491C0CC20B9F1CCCF80915C0917
:1037C00082FD2EC0DD2031F1FF2039F080910E09FD
:1037D0008F2980930E090E94511080E00E94D81119
:1037E000EE2009F4B1C18091150980FDADC1D80169
:1037F00015961C928695869586950E94CD05C801E2
:103800000E944C16809115098695869586950E9492
:10381000DD059AC180E00E944712FF2009F3ADCF79
:10382000DD2069F1C11004C08F2D0E94A310D8CFF4
:10383000F1E0CF1210C0C0910D098F2D8C23F81626
:1038400079F20E9405109093190980931809CF29E5
:10385000C0930D09C5CF23E0C212C2CF8F2D0E94A5
:10386000A3108F2D0E94D51080910F099F2D9823B2
:10387000F91609F4B5CF8F2980930F09B1CFC11084
:1038800012C08F2D0E94AD108F2D0E94D5108091F7
:103890000F099F2D9823992309F4A2CFF094F822C1
:1038A000F0920F099DCF31E0C3129ACF80910E099B
:1038B0008F21882309F494CFE4CFDD2029F085E01F
:1038C0008C1508F48DCFB0CF94E09C1508F488CF08
:1038D0008F2D0E94AD1084CFCC20D1F3D93349F481
:1038E000AFEFB7EEE3E0A150B040E040E1F700C039
:1038F00000008D2F0E94471273CF8C2F86958695DE
:103900008370882369F0813009F06ACF8D2F9C2F56
:103910009370D11002C080E090E00E940A0A60CF4C
:103920008D2F9C2F9370D11002C080E090E00E94F8
:10393000E40956CF6D2D8D2F0E94131151CF8C2F7E
:103940008370811142C0D1102FC04D2F42954695F2
:103950004770440F440F2D2F2F7030E0042E02C00B
:10396000220F331F0A94E2F780E090E0D4FF09C0F1
:103970008FE090E002C0880F991F4A95E2F780958A
:103980009095C695C695C370C230B1F0C33089F02A
:103990004091100950911109C13049F0822B932BAD
:1039A000842395230E94C3050E94D30919CF242B99
:1039B000352B822B932BF6CF822B932B2091100942
:1039C0003091110982279327EDCFDD2091F1C0FFBF
:1039D000EBCF4D2F429546954770440F440F2D2F46
:1039E0002F7030E0042E02C0220F331F0A94E2F73A
:1039F00080E090E0D4FF09C08FE090E002C0880F23
:103A0000991F4A95E2F780959095C695C695C37023
:103A1000C230C1F0C33099F040911209509113099E
:103A2000C13059F0822B932B842395230E94C80523
:103A3000BBCF823008F4B8CFCCCF242B352B822BD0
:103A4000932BF4CF822B932B2091120930911309E1
:103A500082279327EBCFCF70DD2039F08C2F0E9487
:103A6000CD058D2F0E94A3109FCF8D2F0E94AD10EA
:103A70008C2F0E94DD0598CFD23FA1F178F4D03F82
:103A8000C1F0D13F09F447C0DD2009F47DC0CC204E
:103A900009F477C08D2F0E94D81186CFD33F49F10A
:103AA000D43FA9F1D110F3CFC1107CC08C2F8F71FE
:103AB000E0CFDD20A1F0F4E0FC1508F475CFCF7164
:103AC00081E090E09C0102C0220F331FCA95E2F70B
:103AD000809112099091130982279327A7CF35E08F
:103AE000C316EBCF8C2F8F71D110C3CF0E94CD05A1
:103AF0005BCF80E090E0DD2009F498CFCF7181E0CA
:103B000090E002C0880F991FCA95E2F78FCF80918D
:103B10005C0982FD06C08C2F8F71DD2009F4A9CFCE
:103B2000E5CFDD20F9F0809115098770843089F4A4
:103B30001092150910921709109216098C2F8F7187
:103B40000E94DD050E94D30960E0C8010E94EF08D1
:103B500005CA82E08C15B0F363E08C2F8F710E9450
:103B6000BE10F0CF92E09C1540F41092150910920F
:103B700017091092160964E0F0CF81E00E946206F6
:103B8000E1CF8C2F8F71B2CFCC2009F48FCFD933F6
:103B900049F4AFEFB7EEE3E0A150B040E040E1F709
:103BA00000C000008D2F0E944712FECE80915A095E
:103BB000803178F480915909882359F0E0911B09EC
:103BC00020911A09309155094091540957E02E135C
:103BD00001C008956E2F70E05E9FF0011124DF0197
:103BE000A45EB64F14968C911497882361F11196B8
:103BF0008C911197831327C08C91841324C0159640
:103C00008C91159781111FC012968D919C91A09156
:103C10005609B09157098A1B9B0B8F3A910598F46E
:103C200080915A098F70806180935A09EE5DF64F3A
:103C300080818F708061808384E599E00E944C16BA
:103C40000E9458060895FB013196E770C0CFADE0A1
:103C5000B0E0EDE2FEE10C94252C8C0186E0F80149
:103C6000DE01189601900D928A95E1F7F801E08047
:103C7000F580A280B380C48084E5882E89E0982EE8
:103C800070905809711020C0CC20D9F0FF2009F4A1
:103C900019C1C8010E941E09882309F413C187E0D5
:103CA000F801D40101900D928A95E1F7F1E0CF126D
:103CB00006C080915409909155090E940F090E94F5
:103CC000D61DFF24F39451C0D09059098091560914
:103CD000909157099501281B390BDD2009F4BAC0D2
:103CE0002F3A310508F090C0CC2059F39091550936
:103CF000C18080915A09803108F058C0C91214C09F
:103D0000909154099E1110C0F1104AC08F708061CB
:103D100080935A0984E599E00E944C1680915A09D3
:103D2000F8018683F12C21C0F1103AC040E06C2DDF
:103D30008E2D0E94BA0C40E06C2D8E2D0E94BA0C84
:103D4000F82E8111EFCF888599850E940F09292FC0
:103D500022952F70903470F49F702230A0F0992338
:103D6000B1F0F8019681903190F48F2D2D96EDE011
:103D70000C94412C2A5F2F70223068F0C8010E94F9
:103D80004C16FD2CF2CF992311F0882371F3805E3D
:103D9000883058F3F3CF803F40F3815F8230F9CF12
:103DA00080915A09816080935A09BCCFC91207C01B
:103DB000909154099E1103C0FF2009F46CC0C80102
:103DC0000E941E09882309F47DC0FF2009F47AC0EF
:103DD00080915A09803278F0209154093091550928
:103DE0003A832983BC82AB827D821E828F83CE017F
:103DF00001960E944C1687E0F801A4E5B9E0019015
:103E00000D928A95E1F75BCF80915A09803150F489
:103E100084E599E00E944C1687E0F40111928A959E
:103E2000E9F780CFCC2009F44CCF2091550991813E
:103E30002913C5CF909154099E11C1CFF110BFCF66
:103E40008683C8010E944C1687E0F40111928A957E
:103E5000E9F737CF2F3A3105F8F6CC2009F431CF06
:103E6000FF2081F1909155098181981321C08091A3
:103E700054098E111DC080915A0980FD10C08031F7
:103E800070F08683807F803F39F08681982F907F05
:103E9000905F8F70892B8683C8010E944C1687E043
:103EA000F801A4E5B9E001900D928A95E1F709CFF8
:103EB000C8010E941E0981119ECF80915A0981601C
:103EC00080935A09C8010E944C16FBCEABE1B0E0CA
:103ED000ECE6FFE10C942F2C4E8B5F8B688F798F73
:103EE0008A8F9B8F9111109214091D8A86E0FE0122
:103EF0007696DE011F9601900D928A95E1F78091EA
:103F00005C0982FF1FC00E940510209116093091A4
:103F10001709821B930B8838934138F0809115095B
:103F200082FD03C082E00E9462060E94051020917B
:103F3000180930911909821B930B8838934110F0AE
:103F40000E9486068B89882329F061E0CE010F96B6
:103F50000E94EF0887E0FE013F96DE01189601906F
:103F60000D928A95E1F7CE0108960E94271E8111D5
:103F700010C087E0FE013896DE01119601900D9287
:103F80008A95E1F720911A0940911B098C858111CE
:103F90000BC017E080911B0990911A0989132EC05C
:103FA0006B96E3E00C944B2C30E0C90101968770CE
:103FB000992750E08417950771F40E94D912109246
:103FC0001A0910921B0987E0E4E5F9E0DF011D9270
:103FD0008A95E9F7DECF97E0929FD001939FB00DCD
:103FE0001124A45EB64FFE01319601900D929A9570
:103FF000E1F780931A090E945806CBCF189FC001A1
:104000001124845E964F0E94271E882349F28091D6
:104010001B0990E001968770992780931B09BACFFE
:10402000A6E0B0E0E6E1F0E20C942E2C0E94051030
:104030008C0180912A0590912B058017910779F0CA
:1040400019821A820E940510BC0149815A8180E0C0
:1040500090E00E94661F10932B0500932A05269678
:10406000E4E00C944A2CA0E1B0E0E9E3F0E20C9427
:10407000252C1A821982FE01339686E0DF011D92FB
:104080008A95E9F78EEEA82E81E0B82E8E010F5F9B
:104090001F4F4801EE24E394F12C28EFC22E21E0BB
:1040A000D22EF50181915F018F3F09F441C0F89450
:1040B000E82FE295EF70F0E021A18F70A70102C018
:1040C000440F551F8A95E2F7CA01922F982B91A3AE
:1040D00092A18095892382A3789400C0E2EFF1E059
:1040E00031E0712C21912F3F09F48EC0A22FA295AF
:1040F000AF70A05EB0E08C9190E02F7002C09595FB
:1041000087952A95E2F7817081117EC0832F782AE6
:10411000330FCE16DF0631F7F501319780818F3FDF
:1041200011F00E94460950EA5A95F1F7D8017C92A5
:104130000F5F1F4FB2EFAB16B1E0BB0609F0B1CF76
:1041400048E050E0B40186EA92E00E94A82C009179
:10415000AF0210E00D541D4F892B09F457C088E0C1
:10416000F401A6EAB2E001900D928A95E1F781E0B0
:10417000809381020E9405109093800280937F02B9
:1041800080912405882309F49AC01A8619861C8612
:104190001B8680918A028A3008F05AC07E01E9E0CD
:1041A000EE0EF11C40EE5DE0B701C8010E94430D28
:1041B0006701882309F471C042E85EE0B701C801D5
:1041C0000E94430D882309F468C044E95DE0B7010B
:1041D000C8010E94430D882309F45FC010928A022F
:1041E0008091AE0290E044E050E0B6018D549D4FC6
:1041F0000E94A82C21E020937E02892B09F03FC069
:104200006096EDE00C94412C80E081CF809181029A
:10421000882309F4B5CF80917F02909180020E949B
:10422000DC15059708F4ACCF44E050E066EA72E094
:10423000C8010E94A82C892B41F084E0E6EAF2E054
:10424000D80101900D928A95E1F71092810298CFE2
:1042500080917C0290917D020E94DC15843F914008
:1042600008F09CCF80917E02882351F2FE0139969E
:1042700084E0DF011D928A95E9F710927E02E091B9
:10428000AE02F0E0ED54FD4F89859A85AB85BC8583
:1042900080839183A283B383B3CF80918A028F3FBF
:1042A00039F40E94051090937D0280937C02DACF4E
:1042B0008F5F80938A028A3008F492CFF2CFE09029
:1042C000AE02F12CF701ED54FD4F7F01F801808122
:1042D0009181A281B3818093100590931105A093E1
:1042E0001205B093130580E195E00E940F0C8093B6
:1042F0000F058091140590911505A0911605B091B8
:104300001705F70180839183A283B383C0901805BA
:10431000D0901905E0901A05F0901B058091780265
:1043200090917902A0917A02B0917B02C816D906C9
:10433000EA06FB0609F464CFC0927802D0927902B3
:10434000E0927A02F0927B020E94940AC61AD70A7F
:10435000E80AF90AC0922605D0922705E0922805BE
:10436000F09229054DCFCDB7DEB764970FB6F8941C
:10437000DEBF0FBECDBF85B7806885BF85B78068BB
:1043800085BF84B7877F84BF0FB6F894A8958091C6
:104390006000886180936000109260000FBE80E82A
:1043A00090E00FB6F89480936100909361000FBE87
:1043B00081E08093370184E499E090934F028093E9
:1043C0004E020E94F00B0E945F0C8091E20084601C
:1043D0008093E20078948091B202882399F08091D2
:1043E000E9001091EC001795112717958F70182B85
:1043F0001092E9008091E80083FD0E9420131F7055
:104400001093E90082E084BD93E095BD9AEF97BDDB
:1044100080936E00109226051092270510922805B1
:10442000109229058091D80080618093D8002AE1FC
:104430002A95F1F700C08091D90080FF04C281E085
:104440008093240580932505809300010E94A92A6A
:10445000809100018091000191E08927880F880FE9
:104460008093AF0294E0981B9093AE0284E90E947F
:10447000460986E60E94460987E90E94460986ECBD
:104480000E94460902EF11E068EFE62E61E0F62E89
:10449000D8018D918D018F3F11F00E944609E016E1
:1044A000F106B1F788E0E3EBF2E0DF01482E1D9260
:1044B0004A94E9F7E6EAF2E0DF011D928A95E9F70E
:1044C00080E090E00E94C62C853E9E4F09F461C0BA
:1044D00065EE7EEF80E090E00E94FA2C60E082E0E2
:1044E00090E00E94DC2C81E090E090931109809391
:1044F000100961E083E090E00E94DC2C60E074E150
:1045000084E090E00E94FA2C60E086E090E00E9457
:10451000DC2C60E087E090E00E94DC2C40E050E082
:10452000BA0188E090E00E94EE2C60E083E290E027
:104530000E94DC2C60E08CE090E00E94DC2C60E0CB
:104540008DE090E00E94DC2C19821A821B821C8272
:104550001D821E821F82188648E050E067E170E0ED
:10456000CE0101960E94CC2C40E050E0BA018FE1D0
:1045700090E00E94EE2C40E050E0BA018FE090E025
:104580000E94EE2C40E050E0BA0183E190E00E94EE
:10459000EE2C82E090E00E94BE2C8093BB0284E06F
:1045A00090E00E94C62C90935C0980935B0983E0A5
:1045B00090E00E94BE2C90E00E94C30580912405EB
:1045C00091E08927880F8093F60480E88093CE02DB
:1045D0000E942D296BE070E082E797E00E94CC0EEC
:1045E000882309F443C08091F60465E070E081FD02
:1045F00035C18DE697E00E94CC0E8823B9F16DE0BD
:1046000070E08BE597E00E94CC0E882379F10E9440
:10461000940A69877A878B879C87DC01CB01805A53
:104620009541AF4FBF4F8093FA049093FB04A09342
:10463000FC04B093FD04E6EFF2E080E092E0DF01DD
:104640009C011D9221503040E1F7F093CD02E093A0
:10465000CC028FEF9FEF9093F9048093F80481E0F0
:10466000809301058093FE041092F7048091240545
:10467000811102C00E94AC2A81E091E090934D0527
:1046800080934C05EE24E394CE0101965AE0852EEA
:10469000912CA12CB12C898B9A8B8091B20210E4C1
:1046A00000E142E1F42E853009F410C10E9433206C
:1046B0000CEB12E033EBC32E32E0D32ED601F8011F
:1046C00091918D9124EC422E22E0522E4E165F06DF
:1046D00009F406C19817A1F320902405F12CD60106
:1046E0007D906D01F80131908F01371449F1372425
:1046F000512C44244394832D84218823C1F022200B
:10470000B1F05982FA820E9405109C838B83F1E0FC
:10471000FD8391E0872D8421811101C090E09E836B
:1047200049815A816B817C818D810E94661F5394DF
:10473000440CE6E06E2E5610DECFF8013197708201
:10474000F39478E0772EF710CACF0E94B10AF09068
:104750002405F110DCC0F0900105F11029C10E9480
:10476000EB0E86E0E1E7F5E0A989BA8901900D92A8
:104770008A95E1F7709072050091730510917405A8
:10478000D0907505F090760510927305109274051F
:104790001092750510927605812F802B882379F071
:1047A00080910405909105050E94DC159C01809183
:1047B0006F0581110FC32B30310508F011C38F2D08
:1047C0008D29882379F080910205909103050E943C
:1047D000DC159C0180916E0581113BC32B303105A6
:1047E00008F03DC380917205781216C08091730560
:1047F000882311F0801310C090917405992311F053
:1048000019130AC020917605211106C02091750563
:10481000211102C0892B81110E94EB1086E0E989E9
:10482000FA89A1E7B5E001900D928A95E1F70E941F
:10483000D30990910605891709F42FCF80930605B7
:104840000E94940A2ACF0E94F00B1092B20210929A
:1048500024051092250510920001FACD88E697E014
:10486000CACE8091B202843029F10E94D90E1092F2
:10487000B00248E150E00FB6F894A895409360006C
:104880000FBE1093600083B7817F846083BF83B7BE
:10489000816083BF7894889583B78E7F83BF0FB67E
:1048A000F894A895809160008861809360001092D0
:1048B00060000FBE0E943320E3EBF2E08191811192
:1048C00007C38BEB92E08E179F07C1F78091B2026E
:1048D000853009F4C6CF0E94D9120E94D309E6CED2
:1048E0009813FACE0E94102080912405882341F06D
:1048F0000091030910910409F12C0115110579F4B7
:1049000080910105882309F42CCFF12C51C000912E
:104910000309109104090115110509F41CCF209118
:10492000C8023091C9024091CA025091CB02CA011B
:10493000B9010E94E40A69877A878B879C878091F6
:10494000C4029091C502A091C602B091C7024984E9
:104950005A846B847C84481659066A067B0618F1D3
:10496000C8010E9499059801205E3109283031055F
:1049700008F06BC00E94A310802F0E94D8111092E3
:104980000409109203091092C8021092C9021092F1
:10499000CA021092CB021092C4021092C502109269
:1049A000C6021092C70280910105882309F4D2C083
:1049B0008091FF04909100050E94DC15C29708F4D5
:1049C0008BC00E940510909300058093FF0486EF32
:1049D00092E09093CD028093CC02809124058823AD
:1049E00009F430C180E198E00E94CA0F8091120959
:1049F00090911309292F3327E0E02115310511F09B
:104A0000C901E8E09C0154E0369527955A95E1F7F5
:104A10002115310511F0EC5FC9019C0136952795F0
:104A2000369527952115310511F0EE5FC901969550
:104A30008795892B09F0EF5F85EC97E0E83050F41B
:104A4000F0E0EC59F24D0C94992C0E94B41094CFE4
:104A500088E098E00E94D80F8091FD08805D0E9458
:104A6000180F83EC97E00E94CA0F8091FC08805DCC
:104A70000E94180F8FEB97E00E94CA0F8091FA08EE
:104A80009091FB0820910B0130910C018217930744
:104A900009F079C02091D502203209F074C0EFEC02
:104AA000F2E08F0181918032E1F3F8010190002062
:104AB000E9F79F012150310969010C151D0508F422
:104AC000BBC08DEB97E00E94CA0F80913C010E9411
:104AD000180F81E00E94980F8091F8049091F904DA
:104AE000892BA9F080910105882389F08091F70432
:104AF00081110DC00E94EB0E2091F8043091F90451
:104B000080E061E070E02115310509F0A1C08091DD
:104B1000FE048823F9F00E94940A69877A878B87BC
:104B20009C878091FA049091FB04A091FC04B091C1
:104B3000FD0429853A854B855C85281B390B4A0B7A
:104B40005B0BDA01C9018F3F9F4FAF4FBF4710F496
:104B50000E94D90EFF2009F404CE01CE81E098E036
:104B600079CF89EF97E076CF8EEE97E073CF83EE23
:104B700097E070CF89ED97E06DCF81ED97E06ACF38
:104B80008BEC97E067CF90930C0180930B0120E2B0
:104B90002093D5021092D4029C0140E050E0CA015B
:104BA000B901A50194010E94772C69877A878B87C8
:104BB0009C878985805D03ED12E08093D30229876D
:104BC0003A874B875C87CC24C394D12C69857A853E
:104BD0008B859C85A50194010E94772C6D877E872B
:104BE0008F87988B8D85805D4D845E846F847888F7
:104BF00045284628472849F429853A854B855C8510
:104C0000232B242B252B09F480E2D8018E938D01D0
:104C100069857A858B859C85A50194010E94772CF6
:104C200029873A874B875C87BFEFCB1ADB0AE5E021
:104C3000CE16D10459F633CFD8018D918D010E9443
:104C4000180F3BCF8DE797E00E94CA0F45CF8F5FCB
:104C5000482E512C1B01082E02C0220C331C0A9432
:104C6000E2F7A10142235323452B89F39091F604E7
:104C700090FD43C092013695279536952795922F42
:104C80008295880F80763FE1380F80930F01209343
:104C90001201309310019093130124E630E047E0B5
:104CA00050E06DE071E088E70E946329892B09F0EC
:104CB0002ECF85E0440C551C8A95E1F78091F604CF
:104CC00080FD23C0A2014A505D4F04E610E020E2BF
:104CD00030E060E488E70E94FB29892B09F017CFB8
:104CE000209430948091F8049091F90482219321CA
:104CF0009093F9048093F8040ACF880F880F880FE7
:104D000037E0380F20E093E0C0CFE6EDF2E080E23C
:104D1000DF011D928A95E9F7ECEFF1E0FC8BEB8B5C
:104D200068EF71E007E0DD24D394AB89BC894D9135
:104D3000BC8BAB8BFB018191BF01840D952D911D27
:104D40009C012A503D4F3A872987E42FF0E0EA5230
:104D5000FD4F20E030E0402F421B4D871D2D022EDD
:104D600001C0110F0A94EAF769847A8490E0D301B4
:104D70008D913D0181234D85491B477050E0B82F2F
:104D8000042E01C0BB0F0A94EAF7519541955109D1
:104D90004770552701C086954A95EAF78B2B4081CD
:104DA000482B40839F5F983011F72F5F3F4F31961C
:104DB0002830310581F6E0E0F2E06B887C88E6156A
:104DC000F70509F0B2CF04E610E020E230E046ED4E
:104DD00052E07FCF2531310508F4F1CC8F3F19F037
:104DE0008F5F80936F05002359F00E948E099FEF1B
:104DF00010160CF491E0899F802D11248093730587
:104E0000112359F00E948E0991E011160CF09FEFCA
:104E1000899F802D112480937405809173058823C8
:104E200009F4CDCCC0907405CC2009F4C8CC0E9404
:104E30008009811101C081E0809373058C2D0E944F
:104E40008009882319F080937405B9CCE092740529
:104E5000B6CC2135310508F4C5CC8F3F19F08F5FF2
:104E600080936E05DD2059F00E94AE099FEF1D145E
:104E70000CF491E0899F802D112480937505FF200B
:104E800059F00E94AE0991E01F140CF09FEF899F2A
:104E9000802D11248093760580917505882309F46F
:104EA000A1CCF0907605FF2009F49CCC0E948009EB
:104EB000811101C081E0809375058F2D0E948009CA
:104EC000882319F0809376058DCCE09276058ACC04
:104ED0008091B102882309F4F9CC09BDF9BC09B469
:104EE00000FEFDCF8091D8008F7D8093D800809107
:104EF000E00082608093E0008091E00081FDFCCFC3
:104F00000E94D912E3CC78941F921FB61F921124ED
:104F10008F939F93AF93BF9380919E0290919F0236
:104F2000A091A002B091A1020196A11DB11D809394
:104F30009E0290939F02A093A002B093A102BF9102
:104F4000AF919F918F911F901FBE1F9018951F9238
:104F50000F920FB60F9211242F933F934F935F93AD
:104F60006F937F938F939F93AF93BF93EF93FF9331
:104F70008091E10082FF09C08091E20082FF05C0BC
:104F80008091E1008B7F8093E1008091DA0080FFC7
:104F900024C08091D80080FF20C08091DA008E7FED
:104FA0008093DA008091D90080FFA9C080E189BD9B
:104FB00082E189BD09B400FEFDCF81E08093B20299
:104FC00080918D02811109C00E94F00B0E945F0C3C
:104FD0008091E20084608093E2008091E10080FF94
:104FE0001AC08091E20080FF16C08091E2008E7F9F
:104FF0008093E2008091E20080618093E2008091E2
:10500000D80080628093D80019BC85E08093B202FA
:1050100083E0809337018091E10084FF2FC080916D
:10502000E20084FF2BC080E189BD82E189BD09B423
:1050300000FEFDCF8091D8008F7D8093D8008091B5
:10504000E1008F7E8093E1008091E2008F7E80936B
:10505000E2008091E20081608093E20080918C0206
:10506000882309F452C084E08093B2028091B20296
:10507000843009F052C082E0809337018091E100D2
:1050800083FF2CC08091E20083FF28C08091E10063
:10509000877F8093E10082E08093B20210928C02BD
:1050A0008091E1008E7F8093E1008091E2008E7F0D
:1050B0008093E2008091E20080618093E20042E010
:1050C00060E080E00E94280C8091F000886080936E
:1050D000F00081E08093370180933601FF91EF91DA
:1050E000BF91AF919F918F917F916F915F914F9100
:1050F0003F912F910F900FBE0F901F90189519BCE4
:105100001092B20210928D0268CF8091E30087FF67
:1051100002C083E0A9CF81E0A7CF81E0ADCF1F928D
:105120000F920FB60F921124FF920F931F932F939C
:105130003F934F935F936F937F938F939F93AF931F
:10514000BF93CF93DF93EF93FF9309EE10E0F80145
:105150008081C091EC00C795CC27C7958F70FC2E3D
:10516000F82A1082C0EFD0E08881877F8883789406
:105170000E942013F8011082888188608883CF2DD7
:10518000CF70C083FF91EF91DF91CF91BF91AF912D
:105190009F918F917F916F915F914F913F912F914F
:1051A0001F910F91FF900F900FBE0F901F901895B9
:1051B000FF920F931F93CF93DF93182FEB01109261
:1051C000BC0084EA8093BC000E940510082FF92ED1
:1051D0008091BC0087FF28C08091B900887F88300B
:1051E00029F08091B900887F8031A1F51093BB0030
:1051F00084E88093BC000E940510182F092F80912D
:10520000BC0087FF1FC02091B900287F80E090E09C
:10521000283199F081E090E0203411F480E090E0B2
:1052200091958195910909C0802F9F2D0E94DC15D1
:10523000C817D90768F68EEF9FEFCDB7DEB7E5E068
:105240000C94492C812F902F0E94DC15C817D90788
:10525000B0F6F1CF8FEF9FEFF0CF1092B9008CE056
:105260008093B80008950F931F93CF93DF93EB01C2
:105270008093BB0084E88093BC000E940510182F27
:10528000092F8091BC0087FF11C02091B900287FB1
:1052900081E090E0283211F480E090E091958195D2
:1052A0009109DF91CF911F910F910895CF3FDC07B6
:1052B00041F3812F902F0E94DC15C817D90708F7FA
:1052C0008EEF9FEFEECFA0E0B0E0E9E6F9E20C94BC
:1052D000252C782E5B016A0189010E9405104C0182
:1052E0000431110560F10F3F100769F1C80164E155
:1052F00070E00E940C2CF62EE72E6F2D7E2D872D50
:105300000E94D828EC0197FF09C00F3F1007A9F3AE
:10531000C4010E94DC150817190778F77501CA0C3B
:10532000DB1CEC14FD0411F0D7FF10C084E980935E
:10533000BC00CE01CDB7DEB7EDE00C94412CFF24CC
:10534000F394E12CDACF85E0F82EFBCFB801F7011A
:1053500081917F010E943329EC01E3CFA0E0B0E00E
:10536000E4EBF9E20C94252C782E5B016A018901AB
:105370000E9405104C010431110560F10F3F100728
:1053800069F1C80164E170E00E940C2CF62EE72E52
:105390006F2D7E2D872D0E94D828EC0197FF09C024
:1053A0000F3F1007A9F3C4010E94DC150817190765
:1053B00078F77501CA0CDB1CEC14FD0411F0D7FF63
:1053C00010C084E98093BC00CE01CDB7DEB7EDE01C
:1053D0000C94412CFF24F394E12CDACF85E0F82ED5
:1053E000FBCFF7018491B8010E943329EC01FFEF54
:1053F000EF1AFF0AE1CFA0E0B0E0E1E0FAE20C949E
:10540000242C682E962E5A01690178010E940510FD
:10541000782E892E0431110530F10F3F100731F13C
:10542000C80164E170E00E940C2C162F072F612F39
:10543000702F862D0E94D828EC0197FF19C0FFEF2E
:10544000EF16FF06A1F3872D982D0E94DC15E816B4
:10545000F90668F784E98093BC00CE01CDB7DEB7CA
:10546000EEE00C94402C11E000E0E1CF15E0FCCF21
:10547000B701892D0E943329EC018501CA0CDB1C80
:105480000C151D0539F3D7FDE5CFB701F801819162
:105490008F010E943329EC01F3CF8EE14A9B03C0B8
:1054A00081508111FBCF4A9BFECF08955A9880E22C
:1054B0008A95F1F75A9A0895FC013BE03A95F1F785
:1054C00098E020E080E031E040E14A95F1F7880F74
:1054D0004A9B02C08160232742E04A95F1F7000011
:1054E00040E14A95F1F791509111EECF90E19A95F4
:1054F000F1F799B132E03A95F1F7000040E14A95B1
:10550000F1F792FB992790F992272081920F9083CF
:105510000895A1E0B0E0EFE8FAE20C942C2C198297
:105520008C017C01E60EF11C0E151F0541F481E093
:105530009981911180E02196E6E00C94482C0E941C
:105540004D2ACE0101960E945C2AF80181938F01B9
:10555000EBCF529A5A9A089552985A9AEA9AE9E6E3
:10556000F0E080818F7C808308956150770B91E01B
:1055700001C0990F6A95EAF7692F90E021E0611167
:1055800008C0992399F05A9A80E28A95F1F75A98BF
:105590000895362F3823332339F05A9A922730E270
:1055A0003A95F1F76695EBCF5A98F9CF5A98ECCF28
:1055B000FF920F931F93CF93DF93EC018C01060FA3
:1055C000111DC017D10729F4CDB7DEB7E5E00C9463
:1055D000492CF9900E94562A68E08F2D0E94B52A26
:1055E000F0CF1F920F920FB60F9211240F931F93BB
:1055F0002F933F934F935F936F937F938F939F93DB
:10560000AF93BF93EF93FF93CF93DF930F92CDB7F9
:10561000DEB719820E944D2ACE0101960E945C2AB3
:10562000082F069506950695982F92959570202F30
:105630002570920F292F237096959695920F982793
:1056400097708981892B81115CC0053008F059C0A1
:1056500080E18A95F1F75A9A529A82E08A95F1F799
:1056600000C05A9888E0089F80011124D801AC5EE0
:10567000BE4F1696ED91FC9117973097A9F0609167
:1056800000027091010214962D913C911597260FFE
:10569000371F11968D919C911297680F791F139661
:1056A0004C9113978C910995F801EC5EFE4F638144
:1056B000662351F02091000230910102848195818E
:1056C000820F931F0E94D82A0E94562A80E18A9551
:1056D000F1F75A9852985A9A80E18A95F1F7F801B1
:1056E000EC5EFE4F6081662351F020910002309104
:1056F000010281819281820F931F0E94892A0E9458
:105700004D2A0F90DF91CF91FF91EF91BF91AF9113
:105710009F918F917F916F915F914F913F912F91C9
:105720001F910F910F900FBE0F901F9018950F9320
:105730001F93CF93DF938C0105970CF065C0F8940D
:10574000529A5A9885E08A95F1F70000C02FC695C5
:10575000C570802F8570C80F8C2F8370C695C69535
:1057600093E0000F111F9A95E1F7C80FC8018C2B29
:10577000EC010E94562A00C068E08C2F0E94B52AD6
:1057800090E19A95F1F752985A9A4A9B35C087E072
:1057900090E04A9933C0F801EC5EFE4F63816623C6
:1057A00061F0209100023091010284819581820F85
:1057B000931F0E94892A882321F10E944D2A80E2AA
:1057C0008A95F1F75A98529A90E19A95F1F7F80173
:1057D000EC5EFE4F6081662351F020910002309113
:1057E000010281819281820F931F0E94D82A0E9418
:1057F000562A789481E009C000C0C7CF019700976E
:1058000049F4529A5A9A789480E0DF91CF911F918F
:105810000F91089500C0BDCFAA1BBB1B51E107C06B
:10582000AA1FBB1FA617B70710F0A61BB70B881F30
:10583000991F5A95A9F780959095BC01CD010895BF
:105840002F923F924F925F926F927F928F929F9290
:10585000AF92BF92CF92DF92EF92FF920F931F937E
:10586000CF93DF93CDB7DEB7CA1BDB0B0FB6F8942F
:10587000DEBF0FBECDBF09942A88398848885F846F
:105880006E847D848C849B84AA84B984C884DF80E0
:10589000EE80FD800C811B81AA81B981CE0FD11DC4
:1058A0000FB6F894DEBF0FBECDBFED010895991B72
:1058B00079E004C0991F961708F0961B881F7A9507
:1058C000C9F78095089597FB072E16F4009407D02A
:1058D00077FD09D00E940C2C07FC05D03EF4909572
:1058E00081959F4F0895709561957F4F0895A1E22E
:1058F0001A2EAA1BBB1BFD010DC0AA1FBB1FEE1F4A
:10590000FF1FA217B307E407F50720F0A21BB30B94
:10591000E40BF50B661F771F881F991F1A9469F710
:1059200060957095809590959B01AC01BD01CF016C
:105930000895EE0FFF1F0590F491E02D0994FB01EF
:10594000DC0102C005900D9241505040D8F70895F7
:10595000FB01DC0104C08D910190801921F44150BC
:105960005040C8F7881B990B0895FB01DC0102C069
:1059700001900D9241505040D8F70895F999FECF0B
:1059800092BD81BDF89A992780B50895A8E1B0E04D
:1059900042E050E00C94022DDC01A40FB51F4150F1
:1059A000504048F0CB01840F951F2E910E94DD2CB2
:1059B00041505040D0F70895262FF999FECF92BD5F
:1059C00081BDF89A019700B4021639F01FBA20BDC4
:1059D0000FB6F894FA9AF99A0FBE08950396272FF6
:1059E0000E94DD2C0E94DC2C252F0E94DD2C242F10
:1059F0000C94DD2C0196272F0E94DD2C0C94DC2CBE
:105A0000DC01CB01FC01F999FECF06C0F2BDE1BD7E
:105A1000F89A319600B40D9241505040B8F708956D
:105A2000F894FFCF1F1127112A113011451145118C
:105A300045114511451145114511451133113811D5
:105A40003C114211531159115D11011427142D14E9
:105A500027142D148014A2142D14A015AD15F419BB
:105A6000F819EA19F019FC19001A041A911B911B74
:105A7000CA1BCA1B7D1C9A1CF01BF01B9F1C2B1DF4
:105A80003C1D3C1DDE1A491BE61AB01AB41AEA1A6C
:105A9000B81AEE1AFA1AC41A421BC81AFE1ACC1AFD
:105AA000021B2A1BD01A061B311BD61A0C1B141BF7
:105AB000BC1AF21AC01AF61ADA1A101B201B3A1B6B
:105AC000401BAA1AE21A501B2825AE25B125B42581
:085AD000B725BA25BD25C0254C
