:100000000C944B040C94B72A0C9468040C94680468
:100010000C9468040C9468040C9468040C946804B0
:100020000C9468040C9468040C9453240C940F24CE
:100030000C9450250C9468040C9468040C94680487
:100040000C9468040C9468040C9468040C94680480
:100050000C9468040C942C250C9468040C9468048B
:100060000C9468040C9468040C9468040C94680460
:100070000C9468040C9468040C9468040C94680450
:100080000C9468040C9468040C9468040C94680440
:100090000C9468040C9468040C9468040C94680430
:1000A0000C9468040C9468040C94680430141E00CA
:1000B0001F002000210022004E002B0014001A0017
:1000C0000900130005004A002921042115241628DF
:1000D00017220A000052E1001D001B000600070065
:1000E000190001522752E000E200E3002C422C43A9
:1000F00028443800270026002500240023004B0058
:100100002F0033001C0018000F000D004D003400BC
:1001100012310C24083811321000005232323602EB
:10012000370036000B000E0001524F005200510004
:1001300050002A452A454C4630141E001F0020005E
:10014000210022004E002B0014001A0008001500A8
:1001500017004A00292104211624072809220A0031
:100160000052E1001D001B000600190005000152AD
:100170002752E000E200E3002C422C4328443800E0
:10018000270026002500240023004B002F00130029
:1001900012000C0018001C004D00340033310F24F5
:1001A0000E380D320B000052323236023700360064
:1001B0001000110001524F005200510050002A451A
:1001C0002A454C460000000000000000000000002E
:1001D000000000000000000000000000000000001F
:1001E0000000E000E200E300E10000000000E100A8
:1001F00000000000000000000000000000000000FF
:1002000000000000000000000000000000000000EE
:10021000000000000000000000002E0033082B0149
:100220002B03330800002D0032004F005200510014
:1002300050000000380054004D004B004E004A00B2
:100240000000BB00A900AA00BC002A0038002D0055
:10025000000000000000000000000000000000009E
:100260000000000000000000000000000000E000AE
:10027000E200E300E10000000000E10000000000F7
:10028000000000000000000000000000000000006E
:10029000000000000000000000000000000000005E
:1002A0000000000000002E00610060005F00000000
:1002B00000002D0032005E005D005C0000000000C8
:1002C000380054005B005A00590000000000BB00D9
:1002D000A900AA00BC00620038002D000000000048
:1002E000000000000000000000000000000000000E
:1002F00000000000000000000000E000E200E30059
:10030000E10000000000E10000000000000000002B
:1003100000000000000000000000000000000000DD
:1003200000000000000000000000000000000000CD
:1003300000002E00420041004000450000002D005A
:1003400032003F003E003D004400000038005400F1
:100350003C003B003A0043000000BB00A900AA009B
:10036000BC00390038002D003014000000000000EF
:1003700000000000000030141E021F14251626166F
:10038000320200000000230221142514261420024A
:100390000000000024143002250226022202000080
:1003A00000000000000000002C002C0028000000CD
:1003B000000000000000000000000000000000003D
:1003C000000000000000000000000000E000E2006B
:1003D000E300E10000000000E50000000000000074
:1003E000000000000000BB00A900AA00BC00000043
:1003F00000000000000000000000000000000000FD
:10040000000000000000DB00CD00DC000000000068
:1004100029000000CF00CE00D00000000000000046
:100420000000D200DA00D900000000000000000047
:10043000000000002C00D100D200000000000000ED
:1004400000000000000000000000000000000000AC
:100450000000000000000000E000E200E300E10016
:1004600000000000E500DF00DE00DD00D10000003C
:100470000000BB00A900AA00BC00000000000000B2
:1004800020783A003B003C003D003E00000021780F
:10049000237825782778000000004400290024787C
:1004A00026782878000000000000E1003A003B00B8
:1004B0003C003D003E0000000100E000E200E300DF
:1004C0000000000000000000430042004100400026
:1004D0003F000000000000000000000000000000DD
:1004E000450000000000000000001C701B700000B0
:1004F000E50043004200410040003F0000000000D2
:10050000BD00BE0000000000000000001E0F05003E
:10051000047F3F1F643214643214783C1E1E140A98
:1005200005000101010101010101010202020202B3
:10053000020202020303030303030303040404048B
:100540000404040505050505060606060607070753
:10055000070708080808090909090A0A0A0B0B0B0A
:100560000C0C0C0D0D0D0E0E0E0F0F0F10101111A7
:10057000111212131314141515161617171818192B
:10058000191A1A1B1B1C1D1D1E1E1F202021222292
:10059000232424252626272829292A2B2C2D2D2ED5
:1005A0002F30313232333435363738393A3B3C3DEF
:1005B0003E3F404142434445464748494A4C4D4EE0
:1005C0004F50515354555658595A5B5D5E5F6162A6
:1005D00064656668696B6C6D6F7072737577787A35
:1005E0007B7D7E8082838587888A8C8E8F91939590
:1005F00096989A9C9EA0A2A3A5A7A9ABADAFB1B3B4
:10060000B5B7BABCBEC0C2C4C6C9CBCDCFD1D4D693
:10061000D8DBDDDFE2E4E7E9EBEEF0F3F5F8FAFD35
:10062000FFFFAA7F55402223252628292A2C2D2F7B
:100630003032333536383A3B3D3E404243454749F8
:100640004A4C4E5051535557595A5C5E606264662D
:1006500068696B6D6F71737577797B7D7F81838539
:1006600087898A8C8E90929496989A9C9E9FA1A33B
:10067000A5A7A8AAACAEAFB1B3B4B6B8B9BBBCBE5F
:10068000BFC1C2C3C5C6C7C9CACBCCCDCED0D1D2DB
:10069000D2D3D4D5D6D7D7D8D9D9DADADBDBDBDCDD
:1006A000DCDCDCDCDDDDDDDDDCDCDCDCDCDBDBDB89
:1006B000DADAD9D9D8D7D7D6D5D4D3D2D2D1D0CEE9
:1006C000CDCCCBCAC9C7C6C5C3C2C1BFBEBCBBB9EE
:1006D000B8B6B4B3B1AFAEACAAA8A7A5A3A19F9E6C
:1006E0009C9A98969492908E8C8A89878583817F34
:1006F0007D7B79777573716F6D6B69686664626015
:100700005E5C5A5957555351504E4C4A49474543E0
:1007100042403E3D3B3A3836353332302F2D2C2A7D
:1007200029282625232205010902A10185020901A4
:10073000A100050919012908150025019508750171
:1007400081020501093009311581257F950275085F
:10075000810609381581257F950175088106050CEC
:100760000A38021581257F950175088106C0C005EC
:10077000010980A101850319012AB700150126B7D7
:1007800000950175108100C0050C0901A1018504C7
:1007900019012AA002150126A002950175108100F9
:1007A000C005010906A1018506050719E029E7151D
:1007B0000025019508750181020507190029EF152B
:1007C00000250195F075018102050819012905959B
:1007D0000575019102950175039101C00501090696
:1007E000A101050719E029E7150025019508750104
:1007F00081029501750881010507190029FF15007F
:1008000026FF0095067508810005081901290515C0
:10081000002501950575019102950175039101C0AF
:1008200009023B00020100A0FA09040000010301D3
:10083000010009211101000122440007058103087C
:100840000001090401000103000000092111010059
:100850000122B600070582032000011201000200F8
:10086000000008444D44520001010200010C0352F3
:1008700000650064006F007800000014034600610A
:10088000006C006200610074006500630068000095
:1008900000040309040011241FBECFEFDAE0DEBF1D
:1008A000CDBF24E0ACE8B2E001C01D92A937B20789
:1008B000E1F712E0A0E0B1E0EEE4FCE502C0059053
:1008C0000D92AC38B107D9F70E9477250C94D12D41
:1008D0000C940000482F2091750490913C0457E03F
:1008E000291302C080E0089530E0529FF001539F29
:1008F000F00D1124E35CFB4F8181681306C08081F9
:10090000481303C085818111EECF2F5F3F4F2770C1
:10091000E7CFFC01AC014B5F5F4F8FEF91E321917B
:10092000822728E030E087FF09C0880F89272150FF
:100930003109C9F7E417F50791F70895880FF7CF44
:10094000E8EDF0E080818E7F80831092E2001092CB
:10095000DA001092E100A0EEB0E08C9181608C93FF
:1009600080818F77808319BCA7EDB0E08C918E7F5A
:100970008C9380818F7E808310922504089520912E
:10098000E4003091E50095E6A9012091EC00822F6A
:10099000817020FF06C08091E80080FF06C080E0E3
:1009A00008952091E80022FD1AC080913204882326
:1009B00089F0853089F08091EB0085FD0FC0209192
:1009C000E4003091E50042175307F9F29150E1F647
:1009D00084E0089582E0089583E0089581E0089519
:1009E0008091340487FF13C08091E80082FF06C025
:1009F0008091E8008B778093E80004C080913204F6
:100A00008111F2CF0895809132048823D9F3809127
:100A1000E80080FFF8CF8091E8008E77ECCF982F28
:100A20009093E900242F762F50E0891731F07091D0
:100A3000EC002091ED005091F00021FD07C09F5F78
:100A4000973071F78093E90081E008953091EB00D1
:100A50003E7F3093EB003091ED003D7F3093ED0011
:100A60003091EB0031603093EB007093EC002093F9
:100A7000ED005093F0002091EE0027FDE0CF80E0E4
:100A80000895B0E0A0E0E7E4F5E00C94DD2BC8EDBC
:100A9000D0E088818F7E8883E7EDF0E080818160FF
:100AA000808384E082BF81E08093250488818E7FEB
:100AB000888302EE10E0F80110821092DA0081EED5
:100AC000C82ED12CF601108288818F778883888187
:100AD0008068888388818F7D888319BC1092320456
:100AE00010923304109231041092300490EEE92EEB
:100AF000F12CF70180818B7F8083888181608883DE
:100B000042E060E080E00E940F05F60180818E7F68
:100B10008083F80180818160808380818860808308
:100B2000F70180818E7F8083888180618883CDB743
:100B3000DEB7E8E00C94F92BFC0180913A04909127
:100B40003B0486179707A0F06115710529F4909171
:100B5000E8009E779093E80090E06115710551F4EC
:100B6000911108C08091E80082FF34C080E00895B0
:100B7000BC01F2CF809132048823C1F18530C1F1EC
:100B80008091E80083FD30C08091E80082FDEACFCB
:100B90008091E80080FFE1CF8091F3002091F20086
:100BA000382F6115710519F02830310558F091E0A2
:100BB0002830310509F090E02091E8002E7720934D
:100BC000E800CBCF81918093F100615071092F5FD4
:100BD0003F4FE7CF80913204882341F0853041F0C8
:100BE0008091E80083FFBECF81E0089582E0089500
:100BF00083E008958091270408959C014FB7F894ED
:100C00008091210490912204A0912304B0912404A6
:100C10004FBF821B930B08952FB7F8946091210466
:100C20007091220480912304909124042FBF089591
:100C30002FB7F8948091210490912204A09123046D
:100C4000B09124042FBF0895909158019923D1F0B9
:100C500090911E0497FF16C0E82FE695E695E6955D
:100C6000EE31E0F4F0E0EA56FD4F282F277081E0E6
:100C700090E001C0880F2A95EAF780959281892338
:100C800082830895E0E9F2E09191891303C0DF01C6
:100C900011971C9292E0E639F907B1F70895909107
:100CA00058019923C1F090911E0497FF14C0E82FBA
:100CB000E695E695E695EE31F8F4F0E0EA56FD4F5C
:100CC000877021E030E001C0220F8A95EAF7828127
:100CD000822B82830895A0E9B2E0EFEF90E02D919E
:100CE000821751F0EF3F19F4211101C0E92F9F5FE6
:100CF0009630A9F7EF3F09F408950E2E000CFF0B74
:100D0000E257FD4FE6CFA3E0B0E0E9E8F6E00C944F
:100D1000E32B20911C0430911D0428173907A1F002
:100D200090931D0480931C04E0911A04F0911B041D
:100D3000309751F024E029839B838A830084F185D6
:100D4000E02DCE01019609952396E2E00C94FF2B4D
:100D5000A3E0B0E0EEEAF6E00C94E32B2091180457
:100D60003091190428173907A1F090931904809342
:100D70001804E0911A04F0911B04309751F023E01D
:100D800029839B838A830084F185E02DCE0101961F
:100D900009952396E2E00C94FF2B8091160488239A
:100DA00059F0E0911A04F0911B04309729F001905A
:100DB000F081E02D0995089580E008950E941806BD
:100DC0009C019091120480911304982B21F0309390
:100DD0000F0420930E049091140480911504982B15
:100DE00021F030930D0420930C04E0911A04F0914B
:100DF0001B04309749F082E0809310040680F7814D
:100E0000E02D80E194E00995089580910B0480FD28
:100E100016C081FD16C082FD16C080910A04882389
:100E2000A1F0883280F428E0829FC001112468E29A
:100E300070E00E94382C862F672B39F0089582E0ED
:100E4000089584E0089588E0089581E008958091F0
:100E50000B0480FD14C081FD14C082FD16C080917A
:100E60000904882381F08E3180F420E5829FC0013F
:100E700011246EE170E00E94382C862F089584E1E1
:100E8000089588E2089588E0089580E50895282F60
:100E900035EB2303C001112497FF04C0805891094A
:100EA000892F089580589F4FFBCFCF93DF93EC019C
:100EB0004091FE035091FF03609100047091010482
:100EC0002FB7F8948091210490912204A0912304DB
:100ED000B09124042FBF841B950BA60BB70B843F46
:100EE0009140A105B10518F58091FE039091FF0393
:100EF000A0910004B09101048093FA039093FB0346
:100F0000A093FC03B093FD0384EF91E0A0E0B0E078
:100F10008093F6039093F703A093F803B093F9033B
:100F2000D0930604C0930504DF91CF9108950E94E9
:100F30000C066093FA037093FB038093FC03909379
:100F4000FD0382E390E0A0E0B0E0E2CFFC01858108
:100F5000862351F492819923B9F06923818583FF17
:100F600005C081E061110FC080E00895892F8F7066
:100F700092959F70982B862F8F7062956F70682B5B
:100F800081E09613F1CF089581E0FDCFFA01811140
:100F900001C0FB01099508950895E8E7F3E0118287
:100FA00082818460828308958091EE0380FD0AC06F
:100FB000EEE7F3E0118210821282339683E0E83A82
:100FC000F807C1F76EE070E08EE793E00E942A1008
:100FD00008959091EE0390FF0CC0EEE7F3E081835B
:100FE00060834283339693E0E83AF907C1F70E94A1
:100FF000D40708958091EE03982F9C7F29F4837085
:1010000084608093EE0308958C3AE8F38370886AD5
:10101000F8CFAF92BF92DF92EF92FF920F931F93A0
:10102000CF93DF93082F162FE901E42FF0E0EF5D57
:10103000FA4F611110C0E4915E2F4E2F4983E8836F
:101040005A83DF91CF911F910F91FF90EF90DF9026
:10105000BF90AF900895E62EF12C4491D42EE42F4A
:10106000F0E026E0829FC00111242FEF30E0B901AB
:101070000E94242C802F90E0880F991F55E5569FE1
:10108000D001579FB00D11248A1B9B0B982F990FED
:10109000890F5901AE18BF08AE9ED001AF9EB00DAA
:1010A000BE9EB00D11245B2F189F80011124012FCB
:1010B00011275901A01AB10AAE9E8001AF9E100DF2
:1010C000BE9E100D11245901A81AB108AE9CC00192
:1010D000AF9C900DBE9C900D1124892F9927281B41
:1010E000390B2E9FC0012F9F900D3E9F900D112414
:1010F000E92F62307105A1F050F46115710509F412
:101100009DCF6130710581F0EB2F512F97CF643067
:10111000710569F080F06630710509F48FCFF4CF66
:10112000E42F4B2F592F8ACFE42F412F87CFEB2F5E
:10113000542F492F83CF4B2F5D2DE12F7FCFA3E07D
:10114000B0E0E5EAF8E00C94E32B9091EE0390FF19
:101150000AC09E012F5F3F4F0E9409084B816981A1
:101160008A810E94E9072396E2E00C94FF2BCF933B
:10117000DF93EC01EEEEF3E0438162818C810E940B
:101180009F088C818F5F8C83DF91CF910895CF93DF
:10119000DF93EC01EC81F0E0EA5DF94F4491EEEE73
:1011A000F3E0628181810E949F088C818F5F8C8334
:1011B000DF91CF910895EF92FF920F931F93CF93FA
:1011C000DF938C01CEE7D3E0F12CE12CF801948180
:1011D0006091F0038091EF03F7E0EF16F104ECF477
:1011E0009923E9F09E014091F1030E9409082FEF35
:1011F000E21AF20A23968EE0E816F10439F70E940B
:10120000D407F801848190E0019681709927848346
:10121000CDB7DEB7E6E00C94FB2B992319F39E01C2
:1012200040E0E3CFA3E0B0E0E8E1F9E00C94E12B8B
:101230008C0180917D0381110AC09E012F5F3F4F79
:101240004FEF6FEF0E9409088A8180937D03F801B8
:101250006481613069F080917D0340E0662361F034
:1012600040E0623011F440917D0380E060E004C012
:1012700060917D0340E080E00E94E907F8018481ED
:1012800090E0019663E070E00E94382C84832396FE
:10129000E4E00C94FD2BB0E0A0E0E1E5F9E00C9473
:1012A000D92BEC014C81042F10E09801D8010E9449
:1012B000C22D9B01AC010E948D2D4B015C01E0E22F
:1012C000F0E0E01BF10BA5E5B0E0AC019B010E9452
:1012D0008D2D6B017C019F01DF010E94522C9B012F
:1012E000AC010E94982D9B01AC01280D391D4A1DAF
:1012F0005B1DC701B6010E94A02DF22E822F90E047
:1013000039E23F1598F143E0249F9001112435956F
:101310002795122F10959EE7C92E93E0D92E00E055
:1013200085E5E82EEF188E2D01FD8F2D9601412FBA
:101330006091F0030E9409080F5F53E0C50ED11CB5
:101340000E3089F70E94D4079C8181E0992319F01F
:10135000903219F48FEF8093570180915701890FD4
:101360008C83CDB7DEB7ECE00C94F52B25E530E0AF
:10137000A901481B590BCA019A01220F331F280FDC
:10138000391F37FFC4CF2F5F3F4FC1CFEF92FF927E
:101390000F931F93CF93DF937C01FC018481811114
:1013A00009C081E0848310927C0392E090935601FF
:1013B00080935501CEE7D3E0FE01118210821282A4
:1013C000339683E0E83AF807C1F710E000E0809137
:1013D0007C03082E000C990B08171907ACF18091BB
:1013E0005601082E000C990B801791076CF19E0195
:1013F0004091F1036091F0038091EF030E9409088E
:101400000F5F1F4F23960E30110509F70E94D40776
:101410008091550190917C03980F90937C032091CB
:101420005601280F20935601121614F49D303CF0FB
:10143000819580935501813011F4F7011482CDB765
:10144000DEB7E6E00C94FB2B198218821A82D8CF03
:10145000B0E0A0E0EEE2FAE00C94DA2BEC018A8135
:10146000BB24BA9480FD02C0BB24B3948C8181114B
:1014700008C081E0B81256C08DE080937B0381E004
:101480008C832EE7E22E23E0F22E10E000E03EE017
:10149000932EF70111821082128294E0C92ED12C72
:1014A000A12C80917B038A0D8F300CF43EC0692DF6
:1014B0000E94162C892F082E000C990B801791077B
:1014C00091F48091F1038C9DA0018D9D500D11240C
:1014D000559547955595479597016091F0038091F3
:1014E000EF030E940908AB0CF1E0CF1AD108C9F64E
:1014F0000F5F1F4F83E0E80EF11C0E30110549F617
:101500000E94D40780917B0391E0B91217C081112A
:1015100010C08DE080937B031C82CDB7DEB7EBE07B
:101520000C94F62B10927B03AACF87FFC4CF825F67
:10153000C2CF815080937B03BC82EFCF90E00196B5
:10154000B8010E94382C80937B038C83E6CFEF9206
:10155000FF921F93CF93DF93EC018EE7E82E83E099
:10156000F82E10E08C8197014091F1036091F00317
:10157000810F0E9409081E5E83E0E80EF11C1C3FEB
:1015800089F70E94D4079A818C8190FF08C08F5FF1
:101590008C83DF91CF911F91FF90EF900895815040
:1015A000F7CF80E00895F894E82FE295EF70F0E02F
:1015B00031A1282F2F7081E090E001C0880F2A957B
:1015C000EAF7982F9095932391A392A1892B82A358
:1015D000789408950F931F9380911604882329F01F
:1015E0000E940C061F910F9108950E940C06009115
:1015F0004403109145032091460330914703600F47
:10160000711F821F931FEECF80911604882319F05B
:101610000E94180608950E94EA0ACB01089590914D
:101620001E0492FF10C041E0282F2471243009F0DD
:1016300040E031E0282F2871283009F030E04317CE
:1016400011F02CE0822793FF10C041E0282F247175
:10165000243109F040E031E0282F2871283109F0C9
:1016600030E0431711F02CE0822730911F0430FF47
:1016700010C051E0282F2171213009F050E041E0E5
:10168000282F2871283009F040E0541711F029E084
:10169000822731FF10C041E0282F2171213109F04C
:1016A00040E031E0282F2871283109F030E043175D
:1016B00011F029E0822794FD877E089582389105F4
:1016C000B9F1B0F48133910509F47DC048F4893251
:1016D000910509F46DC08A32910509F47BC0089523
:1016E0008533910509F45FC08933910509F10895A7
:1016F000833E9105D9F138F4803E910529F1823E6F
:10170000910579F10895863E9105D9F1873E9105BD
:1017100009F43EC0843E910541F520911F0421FF4C
:1017200024C080911E0484FD19C087EE90E00895C6
:1017300020911E04237009F05AC020911F0423FF3A
:1017400014C089E290E0089520911E0420FD38C065
:1017500030911F0430FF09C024FF43C090E080E0B7
:10176000089520911E0422FDF7CF089520911E04B4
:1017700022FD3AC030911F0430FD39C024FFF5CF5F
:10178000EDCF20911E0423FFF0CF24FDE7CFCDCF76
:1017900020911E0423FD2EC030911F0431FFEECF97
:1017A00084EE90E0089520911E0425FFDECFC9CF7E
:1017B00020911E0425FD21C020911F0423FFD5CFB9
:1017C00089E390E0D2CF20911E0426FFCECF8AE29B
:1017D00090E0089520911E0426FFC7CF81E390E09A
:1017E000089583EE90E0089582EE90E0089580EEF3
:1017F00090E0089586EE90E0089585E390E00895E6
:10180000972F7A30B8F46730A8F48830B0F470E0DD
:1018100027E0929F600D711D1124FB0196E4899FC2
:10182000E00DF11D1124EE0FFF1FE455FF4F8591D0
:101830009491089580E090E0089581E0FCCF1F939B
:10184000CF93DF930E945E0BEC01C11580E5D807B2
:10185000F0F5C11580E4D80708F09CC0C03ED10562
:1018600020F5CD3CD10508F082C0C83AD10578F406
:10187000C53AD10508F073C0C130D10519F12097E0
:1018800009F1C430D105F0F4D0E0C0E01BC0C33C86
:10189000D105D0F7C85AD0E0CC0FDD1FC45EDD4FB4
:1018A0000990D881C02DD4640DC0C11580E2D8073D
:1018B00008F0D1C0C11581E0D80708F05AC0C83E71
:1018C000D10510F7CE01DF91CF911F910895C03659
:1018D00082E5D80718F5C03482E5D80708F06BC058
:1018E000C03282E5D80708F05FC0C11582E5D8078D
:1018F00008F497C02C2F2695269580E2289F90010A
:1019000011248C2F8370C1E0D0E002C0CC0FDD1F0A
:101910008A95E2F7C22BD32BDD68D4CFC03A82E59B
:10192000D80760F4C03882E5D80708F459C0CF71F1
:10193000D0E0DC2FCC27C46FD06AC4CFC03C82E596
:10194000D80708F462C0C03E82E5D80708F09CCFF3
:10195000DC2FCC27CC27DF71C06FD06AB3CFC55A3C
:10196000D0E0C75EDD4FC881D0E0D064ABCFD0659A
:10197000A9CF8D2F0E940F0B182FCE0199270E94FF
:101980005E0BC12FD0E0DC2FCC27CC27DF71C82B1A
:10199000D92B98CFCE0199270E945E0BCC27DF7000
:1019A000C82BD92BD06A8ECFCF71D0E0DC2FCC27BB
:1019B000C16FD06A87CF2C2F26952695277080E29D
:1019C000289F900111248C2F8370C1E0D0E002C0C9
:1019D000CC0FDD1F8A95E2F7C22BD32BDC6872CFC8
:1019E0002C2F26952695277080E2289F90011124A0
:1019F0008C2F8370C1E0D0E002C0CC0FDD1F8A9530
:101A0000E2F7C22BD32BDA685DCF8C2F8F710E9447
:101A10000F0BC82FD0E0DC2FCC27CC27DF71D06292
:101A200051CF8C2F8F710E940F0B55E0D695C79523
:101A30005A95E1F7CF70D0E0DC2FCC27282F30E08B
:101A400084FF05C044E0220F331F4A95E1F7C22B03
:101A5000D32BD06937CF8D2F8F710E940F0B182F8A
:101A6000CE0199270E945E0BC12FD0E0DC2FCC273E
:101A7000CC27DF71C82BD92BD2CF80959091100342
:101A80009823909310030895809110039091E7029A
:101A9000982B8091E602882391F0982B8091580131
:101AA0008823A9F080911E0487FF11C08EE128E9E8
:101AB00032E040E0815078F441111092E6028091CA
:101AC00002048095892390910304892B089586E070
:101AD00020E932E0EECFF90151919F01552351F3F6
:101AE0004F5FE8CF8091750490913C04981301C03A
:101AF00008958F5F8770FACFB0E0A0E0E2E8FDE0E4
:101B00000C94DC2B7C0100915603109157038091BB
:101B1000540390915503082B192BCFE0D0E0CC242F
:101B2000C394D12CBC2EC6010C2E02C0880F991F65
:101B30000A94E2F780239123892B49F4219790F7A7
:101B4000B12C8B2DCDB7DEB7E9E00C94F82BB701A3
:101B50008C2F0E94000C0E941F0C019779F3F1CF8B
:101B6000CF93DF93EC010E947C0DBE010E94000C1C
:101B70000E941F0CDF91CF9108959A3078F587303D
:101B800068F5E82FF0E087E0989FE00DF11D112443
:101B90009E2F977083E0F695E7958A95E1F7EE0F13
:101BA000FF1FEE0FFF1FE654FD4F50E040E080E0C6
:101BB000219130E0092E02C0369527950A94E2F76C
:101BC00021703327042E01C0220F0A94EAF7822BDA
:101BD0004F5F5F4F4430510559F7089580E00895F5
:101BE0009A3098F5873088F5E82FF0E087E0989FE5
:101BF000E00DF11D11248E2F877041E001C0440FCC
:101C00008A95EAF783E0F695E7958A95E1F7EE0F76
:101C1000FF1FEE0FFF1FE654FD4F30E020E070E0A5
:101C20005191DF011197CB01022E02C09695879545
:101C30000A94E2F7817081958527842385278C9308
:101C40002F5F3F4F2430310559F708959093570384
:101C500080935603089521E030E002C0220F331F25
:101C60008A95E2F72095309580915603909157031D
:101C7000822393230E94260E08959091E502809579
:101C800089238093E502282F277069F4891759F07A
:101C900090911F0492FF07C08695869586950E94B5
:101CA0002B0E1092E502089521E030E002C0220FD1
:101CB000331F8A95E2F78091560390915703822B48
:101CC000932B0E94260E08959093550380935403FE
:101CD0000895FC0124812223C1F0808191810E941A
:101CE000B00D92959F70963091F058F4925F9F706E
:101CF000923058F4803F19F030F4883E30F481E09F
:101D000008959A5FF4CF843FD1F380E00895883E30
:101D1000B0F3813FD1F7F3CF4091120490911404B6
:101D200020911504662309F469C0942B922B20910D
:101D30001304922B31F098E09093090491E0909372
:101D40000A048D3C41F40E94270781958093130477
:101D50000E94DE0608958E3C19F40E942707F6CFF4
:101D60008F3C31F40E942707819580931204F0CFB5
:101D7000803D19F40E942707F8CF893D29F40E947D
:101D8000050780931404E4CF8A3D21F40E940507DF
:101D90008195F7CF8B3D31F40E94050781958093A3
:101DA0001504D6CF8C3D19F40E940507F8CF9FE2A9
:101DB000980F983070F4815D990B21E030E001C0FC
:101DC000220F8A95EAF780911104822B80931104E7
:101DD000BFCF8D3D31F480910B04816080930B0463
:101DE000B7CF8E3D21F480910B048260F7CF8F3DF9
:101DF00009F0AECF80910B048460F0CF8D3C59F494
:101E00008091130487FF0DC01092130441110BC081
:101E10001092090408C08E3C81F4809113041816B6
:101E20009CF3442381F08091140490911504892B34
:101E300009F08ECF10920A048BCF8F3C49F447FFF4
:101E4000F0CF10921204809113048111ECCFE0CFF7
:101E5000803D19F41416ACF3E4CF893D29F419162A
:101E600004F710921404DDCF8A3D19F497FFD9CFFF
:101E7000F8CF8B3D29F427FFD4CF10921504D1CF92
:101E80008C3D19F41216CCF3CCCF9FE2980F98300A
:101E900090F4815D990B21E030E0B90102C0660F3A
:101EA000771F8A95E2F7CB018095909111048923E1
:101EB00080931104B6CF8D3D31F480910B048E7F59
:101EC00080930B04AECF8E3D21F480910B048D7F67
:101ED000F7CF8F3D09F0A5CF80910B048B7FF0CF1A
:101EE000A6E0B0E0E6E7FFE00C94E22B49835A83DA
:101EF00049815A819923A1F0222391F0CA010E94BD
:101F00007C0D182F682F89819A810E94F00D6981BC
:101F10007A81812F0E94000C2696E3E00C94FE2B20
:101F2000CA010E94BD0D182FF2CF9C013A952115D0
:101F30003F4150F5FC01EE27F170BC01662772703D
:101F4000AC01442754709C012227387094FF0EC0C6
:101F500080E1EF2B09F480E0672B09F08062452BCC
:101F600009F08064232B89F08068089581E0EF2BCD
:101F700009F480E0672B09F08260452B09F084604A
:101F8000232B19F08860089580E008950F931F9324
:101F9000CF93DF938B01EA0190913204943061F585
:101FA0008093E9008FEF9091E800815095FD06C085
:101FB00095ED9A95F1F700008111F5CF8091E80039
:101FC00085FF1AC00E94BF04811111C08091E800F2
:101FD00085FD06C08091E8008E778093E800F2CFFF
:101FE000F80181918F018093F100219779F7809119
:101FF000E8008E778093E800DF91CF911F910F91D9
:10200000089543E050E0BC0182E00E94C60F0895AD
:1020100046E050E0BC0182E00E94C60F089540E215
:1020200050E0BC0182E00E94C60F0895CF93DF9379
:10203000EC0148E050E0BC0181E00E94C60F88E05E
:10204000FE01A8E2B4E001900D928A95E1F7DF91DC
:10205000CF910895539A4BB1477F5BB15860EFB76A
:10206000F8949B01220F331F260F371F280F391FAB
:102070002817390741F4EFBF8FE594E00197F1F796
:1020800000C000000895DC016D91CD0178E05BB9DE
:10209000000000C067FF4BB9660F000000C000C021
:1020A00000C04BB900C07A9591F7E2CFB0E0A0E054
:1020B000ECE5F0E10C94DB2B7C015B016A01809183
:1020C000430301E010E08A3010F40AE010E0C1E0C0
:1020D000D0E0B501C701F6010995811104C0219630
:1020E0000C171D072CF4CDB7DEB7EAE00C94F72BE4
:1020F000CC9F9001CD9F300D300D112490E080E0F9
:1021000045E34A95F1F70000019682179307C1F75E
:10211000E0CFB0E0A0E0EFE8F0E10C94D52BFC01BB
:102120006280448081E08483E6E2F6E07490E5EA30
:10213000F6E0E4910091F1030695015810E0000FDC
:10214000111F012F1127C8EAD3E02EE7C22E23E08A
:10215000D22E3EEE832E33E0932EAA24AA94B12CE5
:1021600055245A94E719EE2EF12C82E0861530F0B2
:102170008091EF0388838091F0038983411016C01A
:102180001B821A8296014A81698188810E9409080E
:10219000259683E0C80ED11C8C169D0631F70E944F
:1021A000D407CDB7DEB7E0E10C94F12B8B81882307
:1021B000E9F081508B83859DC00111246C8170E012
:1021C0000E94242CFB01FF27EA5DF94F8491E82F40
:1021D000E719E59DC0011124B7010E94242C8091CC
:1021E000F103689FB00111247A83CCCF0E94E32CC5
:1021F000B5010E94382C8017910724F682E08615DD
:1022000088F40E94E32CB5010E94382C88830E9438
:10221000E32C2091F0032695622F70E00E94382C69
:10222000280F29831A828091F103893C20F088ECE1
:102230008C838B83A7CF8431D8F784E1F9CF609169
:10224000EE036695669570E04BE050E08AE491E01D
:102250000E94F32C892B19F481E0809379030E946A
:10226000040B909373038093720380917A038460CC
:1022700080937A030895B0E0A0E0E1E4F1E10C94EA
:10228000D92B49015A016B017C010E94FA07840194
:10229000A4016A2D7B2D88E090E00E944C2D9401D2
:1022A0004A2D5B2DB601C70100E20E947C2C622FF3
:1022B00084E290E00E943A2DCDB7DEB7ECE00C94BA
:1022C000F52BA3E0B0E0E7E6F1E10C94D42BF82E77
:1022D000562EE42E422E9091EE0390FF42C02091A4
:1022E000EF03281308C08091F003861304C0809187
:1022F000F103841729F080917A03826080937A0336
:10230000E92FE695E695AE2FB0E0A05ABD4F8C912F
:10231000809378039C7F943041F59E012F5F3F4F5F
:102320004E2D652D8F2D0E9409084B8169818A8170
:102330000E94E907F092EF035092F003E092F1035C
:10234000442079F02091EE036091F2037091F30341
:102350003F2D452D5E2D8091F4039091F5030E9451
:102360003B112396E1E10C94F02B823019F4E090BC
:10237000F103E0CF8630B1F18930A1F18931D1F696
:10238000E9518E2F8170382EE695F0E0EF5DF94F20
:10239000E4910E2F10E08EE7C82E83E0D82E98EA45
:1023A000892E93E0992EB12CA12C2EE0622E712C57
:1023B000C501B3010E94242C8F2D311011C0860F4E
:1023C00096014E2D652D0E940908A00EB11E83E0D6
:1023D000C80ED11C8C149D0459F70E94D407AACFB3
:1023E000861BEECFF22EA6CFEEEEF3E0438128E07F
:1023F000421B08F440E021E0628181810E9461116A
:102400000895EEEEF3E0438128E0420F08F44FEF29
:1024100021E0628181810E9461110895EEEEF3E076
:10242000628128E0621B08F460E021E04381818141
:102430000E9461110895EEEEF3E0628128E0620FE0
:1024400008F46FEF21E0438181810E9461110895BA
:10245000EEEEF3E0818121E04381628188500E94A9
:1024600061110895EEEEF3E0818121E04381628104
:10247000885F0E94611108958091F203882319F00A
:1024800081508093F2032091EE033091EF0340914D
:10249000F0035091F1036091F2037091F303809186
:1024A000F4039091F5030E943B1108958091F2038B
:1024B000833018F48F5F8093F2032091EE03309104
:1024C000EF034091F0035091F1036091F20370919A
:1024D000F3038091F4039091F5030E943B1108955A
:1024E0009091EE0390FF3AC09370811138C09460D0
:1024F0009093EE0380917A03816080937A03662340
:1025000091F02091EE033091EF034091F003509150
:10251000F1036091F2037091F3038091F4039091C1
:10252000F5030E943B116091EE036695669570E09D
:102530004BE050E08AE491E00E94F32C892BB9F043
:102540000E94CD0781E08093750320E04091F10364
:102550006091F0038091EF030E94611108958B3226
:1025600010F0986AC5CF880F880F982BC1CF0E94B2
:102570001F11E8CF8091EE0386958695815009F46E
:102580008AE261E00E94701208958091EE038695C0
:1025900086958F5F8B3208F081E061E00E947012B7
:1025A00008959091EE0390FF09C09695969598171F
:1025B00028F0961718F40E94C512089561E00E9451
:1025C0007012089590911F0492FB222720F928177A
:1025D00079F080FB92F990931F0460911E04709132
:1025E0001F0484E090E00E94582D82E00E943D0E7E
:1025F0000895A4E0B0E0EFEFF2E10C94E22B4091FB
:1026000026035091270360912803709129032FB767
:10261000F8948091210490912204A0912304B09118
:1026200024042FBF841B950BA60BB70B11E0843637
:102630009105A105B10570F10E94EA0A6E5F7F4F16
:102640008F4F9F4F69837A838B839C838091300166
:1026500090913101865D9C4F40912F0150E04530B3
:10266000510510F044E050E0BE016F5F7F4F0E94C3
:102670000D2D82E090E00E945D2B182F882351F0F1
:102680000E940C066093260370932703809328030F
:1026900090932903812F2496E3E00C94FE2BABE06A
:1026A000B0E0E5E5F3E10C94E32B88E0EEEEF3E037
:1026B000DE01119601900D928A95E1F780917803E1
:1026C00090917903A0917A0389879A87AB872B85AC
:1026D00040913F0350914003609141037091420348
:1026E0003FB7F8948091210490912204A091230493
:1026F000B09124043FBF841B950BA60BB70B843607
:102700009105A105B10510F4222319F1809138013A
:1027100090913901865D9C4F4091370150E04C30DB
:10272000510510F04BE050E0BE016F5F7F4F0E94FB
:102730000D2D83E090E00E945D2B882369F00E94BC
:102740000C0660933F037093400380934103909382
:10275000420310927A0381E02B96E2E00C94FF2B67
:10276000EF92FF921F93CF93DF9300D000D000D061
:10277000CDB7DEB77B0190E080E00E945D2B182F83
:10278000882309F480C04091220150E04115510591
:1027900011F041E050E06091230170912401665DE9
:1027A0007C4FCE0106960E940D2D40912203509140
:1027B000230360912403709125032FB7F89480912F
:1027C000210490912204A0912304B09124042FBFEE
:1027D000841B950BA60BB70B84369105A105B1059B
:1027E00040F48BE293E00E9489049E81891709F4EA
:1027F0004AC081E090E00E945D2B811116C010E07C
:1028000085E0EDE1F3E0D70101900D928A95E1F7C3
:10281000812F26960FB6F894DEBF0FBECDBFDF9195
:10282000CF911F91FF90EF90089540912A0150E0C1
:102830004630510510F045E050E060912B01709159
:102840002C01665D7C4FCE0101960E940D2D8BE21E
:1028500093E00E9489049E818913D1CF0E940C06C7
:1028600060932203709323038093240390932503A2
:1028700085E0FE013196ADE1B3E001900D928A95BD
:10288000E1F711E0BDCF85E0EBE2F3E0DE01119668
:1028900001900D928A95E1F71111EACFB1CFA5E130
:1028A000B0E0E5E5F4E10C94D82B8E01045F1F4FF6
:1028B0008AE0F80111928A95E9F784E5C82E82E052
:1028C000D82EF12CE12CAA24A394B12C20E6822E40
:1028D00022E0922EF60181916F018F3F09F442C0F0
:1028E000F894E82FE295EF70F0E021A18F70A50138
:1028F00002C0440F551F8A95E2F7CA01922F982B08
:1029000091A392A18095892382A3789400C0E9E5E0
:10291000F2E0712C31E021912F3F09F493C0A22FF6
:10292000A295AF70B0E090968C9190E02F7002C0AD
:10293000959587952A95E2F780FD84C0832F782AA4
:10294000330F8E169F0639F7F601319780818F3F3E
:1029500011F00E94D30A50EA5A95F1F7F801EE0DF2
:10296000FF1D70828FEFE81AF80A95E0E916F1046E
:1029700009F0B0CF4AE050E0B80188E493E00E944B
:10298000002D009741F02AE0F801A8E4B3E001909F
:102990000D922A95E1F70091530310E0075A1C4F5E
:1029A000892B09F451C081E0809315030E94180619
:1029B0009093140380931303D12CC0901604FE014E
:1029C00031967F0185E0CC2009F494C011928A955C
:1029D000E9F7809143038A3008F05AC040EB53E195
:1029E000B701C8010E945610882309F472C049EF4C
:1029F00052E1B701C8010E945610882309F469C04A
:102A00004FE453E1B701C8010E945610882309F42E
:102A100060C0109243038091520390E045E050E083
:102A2000B701875A9C4F0E94002D21E020931C0380
:102A3000892B09F042C0C12C8C2D8D296596EDE0C3
:102A40000C94F42B80E07BCFD0901503DD2009F4AB
:102A5000B3CF80911303909114030E94FD05059755
:102A600008F4AACF45E050E068E473E0C8010E9492
:102A7000002D892B59F085E0E8E4F3E0D8010190BE
:102A80000D928A95E1F71092150397CFD12CFBCFC9
:102A900080911603909117030E94FD05843F914099
:102AA00008F09CCF80911C03882329F285E0F70170
:102AB00011928A95E9F710921C03A0915203B0E09D
:102AC000A75ABC4F85E0F70101900D928A95E1F776
:102AD000B3CF809143038F3F31F08F5F80934303E7
:102AE0008A3008F498CF0E941806909317038093B9
:102AF0001603D8CFF801ABE2B3E001900D928A95AE
:102B0000E1F78BE293E00E94890480932A0380908E
:102B1000300390903103A0903203B0903303809142
:102B2000180390911903A0911A03B0911B03881602
:102B30009906AA06BB06B1F0809218039092190379
:102B4000A0921A03B0921B030E940C06861A970AE1
:102B5000A80AB90A8092440390924503A0924603C2
:102B6000B09247038BE0E4E3F3E0D70101900D92CC
:102B70008A95E1F78091340386958695F090350328
:102B8000E0903603B090370300913D0310913E036F
:102B900010923E03112309F44FCF10FF0BC029817F
:102BA0009091EE0320FF1AC091609093EE0360E0D5
:102BB0000E94701211FF06C020E04B2D6E2D8F2D4C
:102BC0000E94611112FF04C00023A9F00E941F118E
:102BD00013FF32CF81E0809375032ECF9E7F9093B9
:102BE000EE030E94CD0780917A03816080937A037F
:102BF0000E94D407DFCF0E94CD07EACF8091580111
:102C0000882359F180911E0487FF27C00E94440D3C
:102C10008093970240E250E068EE72E086E992E02D
:102C20000E94002D892BC1F080E2E6E9F2E0A8EED7
:102C3000B2E001900D928A95E1F7E0911A04F091CB
:102C40001B04309749F086E0809396020480F5815A
:102C5000E02D86E992E0099508950E94440D809345
:102C60008E0248E050E068E073E08EE892E00E9457
:102C7000002D892B89F388E0EEE8F2E0A8E0B3E0CC
:102C800001900D928A95E1F7E0911A04F0911B04EE
:102C9000309711F30280F381E02D8EE892E0DBCFD4
:102CA0001092100380915801882339F180911E04FD
:102CB00087FF23C0E8E9F2E08EE1DF011D928A95EB
:102CC000E9F790E080E00E94A80690E080E00E9492
:102CD00083061092E7020E94FE1586E0E0E1F4E030
:102CE000DF011D928A95E9F71092090410920A04F7
:102CF00010920B040E94DE060895E0E9F2E086E0FF
:102D0000DCCFAAE2B0E0E7E8F6E10C94E22B84E342
:102D100094E02091F100FC012193CF01F4E08C3389
:102D20009F07B9F780913504833009F470C0B8F477
:102D3000813009F447C0823009F4B1C08091E800C5
:102D400083FF7EC280913404909135049A3008F05C
:102D500077C2E92FF0E0ED52F24D0C944C2C8A3002
:102D600009F48CC08B3009F46FC0893039F7809139
:102D70003404813219F78091380490913904029714
:102D8000E8F68091E800877F8093E8008091E80072
:102D900082FF38C09091F3008091F200029731F4E5
:102DA0008091F100813011F0863021F48091F100A2
:102DB000809327048091E8008B778093E8000E943D
:102DC000F004BCCF80913404813A09F0B7CF8091F0
:102DD000E800877F8093E80080913804909139045F
:102DE000892B61F468E088E294E070E00E949C0521
:102DF0008091E8008B778093E800A0CF60E090E0BE
:102E000080E0F3CF809132048111C0CF97CF8091C1
:102E10003404813A09F092CF8091380490913904BA
:102E2000892B09F08BCF8091E800877F8093E800A1
:102E30008091E80080FFFCCF809158018093F100E1
:102E40008091E8008E77B9CF80913404813209F007
:102E500075CF8091380490913904892B09F06ECF99
:102E60008091E800877F8093E8000E94F0048091C1
:102E70003604809358010E94501660CF809134042C
:102E8000813209F05BCF8091E800877F8093E80072
:102E90000E94F00480913704809326044FCF8091E4
:102EA0003404813A09F04ACF8091E800877F80930B
:102EB000E8008091E80080FFFCCF80912604BECF1F
:102EC000803899F0823809F0BBC1809138048F7046
:102ED000873008F0B5C18093E9008091EB0085FB55
:102EE000882780F91092E90006C080913004909103
:102EF0003104911182609091E800977F9093E800EF
:102F00008093F1001092F1008091E8008E7794C1D7
:102F1000882309F482C1823009F092C1809136047D
:102F2000811185C1809138048F702FEF280F2630D2
:102F300008F086C18093E9002091EB0020FF77C163
:102F4000933031F48091EB0080628093EB006FC18D
:102F50009091EB0090619093EB0021E030E001C094
:102F6000220F8A95EAF72093EA001092EA008091F6
:102F7000EB008860EACF811163C1109136041F779E
:102F80008091E3008078812B8093E3008091E800BA
:102F9000877F8093E8000E94F0048091E80080FF22
:102FA000FCCF8091E30080688093E30082E0111100
:102FB00083E08093320444C18058823008F040C1DD
:102FC00080913604909137048C3D23E09207A1F55F
:102FD00083E08A838AE289834FB7F894DE011396EF
:102FE00020E03EE051E2E32FF0E050935700E491FF
:102FF00020FF03C0E295EF703F5FEF708E2F90E0EF
:10300000EA30C0F0C7968D939D932F5F243159F716
:103010004FBF8091E800877F8093E8006AE270E00C
:10302000CE0101960E949C058091E8008B778093E9
:10303000E80006C1C096E7CF4091380450913904AA
:10304000292F33272330310509F444C078F5213086
:10305000310509F46FC08BE390E0E0E2F8E0223044
:10306000310509F0EDC02091E800277F2093E800AA
:1030700020913A0430913B048217930708F49C0195
:1030800040E02115310509F064C0411162C0809112
:10309000E80082FDC9CF80913204882329F285306F
:1030A00019F28091E80083FFF2CFBECF21323105C3
:1030B000A9F12232310509F0C3C04115510509F4C7
:1030C00043C04130510509F0BBC086EB90E0E6E219
:1030D000F7E0C9CF992781309105C1F0009759F0E9
:1030E000029709F0ADC0EDE6F8E0E4918E2F90E094
:1030F000EDE6F8E007C0E1E9F8E0E4918E2F90E01A
:10310000E1E9F8E0009709F49BC0ADCFEBE7F8E008
:10311000E4918E2F90E0EBE7F8E0F4CF41155105F4
:1031200071F04130510509F08BC089E090E0EBE48B
:10313000F8E099CF82E190E0EBE5F8E094CF89E008
:1031400090E0E2E3F8E08FCF84E490E0ECEDF7E08C
:103150008ACF80913204882309F466CF853009F440
:1031600063CF8091E80083FD5FCF8091E80082FD0E
:103170008ECF8091E80080FF84CF9091F300809102
:10318000F2002115310519F08830910550F041E029
:10319000089709F040E08091E8008E778093E8007E
:1031A00070CF44914093F10031962150310901963E
:1031B000E8CF803809F044C08091E800877F809391
:1031C000E800809133048093F1009ECE811138C0D5
:1031D000109136041230A0F58091E800877F80932B
:1031E000E800109333040E94F004112311F084E0EE
:1031F00005C08091E30087FDFACF81E0809332041F
:1032000042E061EC81E00E940F0542E261EC82E065
:103210000E940F058091320413C0809136048130E2
:1032200079F481E0933009F080E0809331041092CA
:10323000E9008091E800877F8093E8000E94F00415
:103240008091E80083FF0AC08091E800877F809327
:10325000E8008091EB0080628093EB00AA96E3E0A7
:103260000C94FE2B0E9450162FEF84E39CE021501B
:1032700080409040E1F700C0000088E19AE00FB67E
:10328000F894A895809360000FBE90936000FFCFE4
:10329000882339F09091E702982B9093E7020E94DF
:1032A000FE150895882321F00E943D0D0E94FE1511
:1032B0000895882339F090911003982B9093100370
:1032C0000E94FE150895882309F456C0823879F4C7
:1032D0000E94CD0681FF50C089E30E944F060E94E4
:1032E000FE1589E30E9424060E94FE150895833886
:1032F00059F40E94CD0680FF3FC083E50E944F062F
:103300000E94FE1583E5EECF843859F40E94CD0665
:1033100082FF32C087E40E944F060E94FE1587E4B8
:10332000E1CF9CEF980F913AE8F290E2980F983035
:1033300050F4877091E001C0990F8A95EAF7892FC0
:103340000E943D0DD1CF9BE5980F933028F490E07B
:1033500080E00E94A806089598E5980F9B3128F414
:1033600090E080E00E948306089593E3980F9331E4
:1033700018F460E00E948C0E0895FF920F931F9343
:10338000CF93DF93F82E00910704109108040115E4
:10339000110509F449C01092060410920504109218
:1033A000020410920304D8011796CD91DC919E017E
:1033B0003A9521153F4108F4D07ED1E0C11101C0FA
:1033C000D0E0D8011A96ED91FC911B97309731F01F
:1033D0001C966D917C9180E00995D823DD2339F00E
:1033E0008CEF8C0F813A30F58C2F0E942406FF2041
:1033F00099F0E0910704F0910804818584FD0CC0E8
:1034000080910404882341F0808191819C012150A6
:1034100031092F333E47A0F00E94FE151092080498
:103420001092070410920404C801CDB7DEB7E5E09E
:103430000C94FC2B0E94FE158C2F0E946319D7CF91
:103440000E945507E9CFCF93C82F8823C9F082384F
:10345000C9F40E94CD0681FD13C089E30E944F0686
:103460000E94FE152FEF87EE93E0215080409040A0
:10347000E1F700C0000089E30E9424060E94FE15C7
:10348000CF9108958338A1F40E94CD0680FDF8CF36
:1034900083E50E944F060E94FE152FEF81EE94E017
:1034A000215080409040E1F700C0000083E5E4CF68
:1034B0008438A1F40E94CD0682FDE2CF87E40E9409
:1034C0004F060E94FE152FEF81EE94E021508040C0
:1034D0009040E1F700C0000087E4CECF8CEF8C0F66
:1034E000813A88F580915801882301F180911E046A
:1034F00087FF1CC0EC2FE695E695E695F0E0EA56CE
:10350000FD4F828190E04C2F477021E030E002C0F7
:10351000220F331F4A95E2F782239323892B79F0F8
:103520008C2F0E9424060E94FE1509C0E0E9F2E0FB
:103530008191C817A9F322E0E639F207C9F78C2F69
:103540000E944F069BCF80E28C0F883068F4C770D2
:1035500021E030E001C0220FCA95EAF78091100304
:10356000822B809310038ACFEBE5EC0FE33040F41D
:10357000F0E0E75EFD4F808190E00E94A80680CFDA
:10358000E8E5EC0FEB3150F4F0E0EE0FFF1FE45EE6
:10359000FD4F808191810E94830672CF83E38C0F5F
:1035A000833108F06DCF61E08C2F0E948C0E68CFC4
:1035B0000F931F93CF93DF93C62FD42F022FFC01BD
:1035C00085818823A9F0609378040E94180690935F
:1035D000770480937604C77081E001C0880FCA9594
:1035E000EAF70E945919DF91CF911F910F91089529
:1035F00080917804681335C08091760490917704A7
:103600000E94FD058F3A910560F510E21D0FCD1760
:10361000B9F080E28C0F883040F4C77081E001C0BF
:10362000880FCA95EAF70E945219183048F481E0D1
:103630009D2F977001C0880F9A95EAF70E9459193B
:10364000802F0E94231A802F0E946319183058F689
:10365000D77081E001C0880FDA95EAF70E9452190D
:10366000C2CFC77081E001C0880FCA95EAF7F6CFD4
:10367000A3E0B0E0EEE3FBE10C94D32B8C01DC0182
:1036800014968C9114978823E9F121E04C911196BE
:103690005C91119712966C91129713967C911397E7
:1036A00015969C910E94700F9B838A83F801358048
:1036B000332061F18E35FCE79F0789F08F352CE7C9
:1036C000920739F08D359C4709F580911E018823BA
:1036D00031F010921E0180E00E94BD1903C081E00C
:1036E00080931E018091E502877061F0D8011596E4
:1036F0008C91882339F080911F0482FF03C082E0FF
:103700000E943D0E2396E2E10C94EF2B80911E0166
:10371000882309F40FC58A809B8040EE841A9108A3
:103720002090E6028091B902282A80911003282A6D
:1037300058E08516910408F088C02A813B812770E3
:10374000332781E090E001C0880F2A95EAF7332003
:1037500009F478C0282AD8018D919C910E94BD0D52
:1037600021E030E0290102C0440C551C8A95E2F7A3
:103770006090070470900804A090B602B090B70261
:103780001982B981EB2FF0E0EE0FFF1FEC5FFE4FC7
:10379000E080F180E114F10409F4F0C4211004C0C8
:1037A000F701828181118DC0D70113968D919C9173
:1037B000149784219521892B09F483C019968C9143
:1037C000982F977009F487E0B8E08B16910408F001
:1037D00058C0332009F451C086958170882309F4BC
:1037E00070C0F701C080D1802A813B812C153D0536
:1037F00019F4332009F465C0E614F70409F461C034
:10380000D7011E96ED91FC91309721F0808188239D
:1038100009F457C0622DC7010E94A607882309F446
:1038200050C0EA81FB81EC15FD0509F0FBC4EF2BCC
:1038300009F4FDC43110FDC4CA14DB0409F041C011
:10384000312CF7C48095282286CF332009F47DC41B
:103850008A819B819093B7028093B6020E940C06E6
:103860006093FE037093FF03809300049093010420
:1038700010920604109205046ECF82FB882780F90F
:10388000ADCF3320F1F08170A9CF0E946319EFC44E
:103890000497813A910548F48C2D0E944F063320FD
:1038A00009F448C40E94FE151DCF0E94FE158FE347
:1038B0009CE90197F1F700C000008C2D0E94231AAB
:1038C000EECF99819F5F99835CCFFC01208131818C
:1038D0004A815B814217530709F025C4311025C482
:1038E0001092040480E00E94BD1924C426E241EE37
:1038F00061EEC8010E94D81AF5CE27E245EE65EECA
:10390000F8CF26E241EE60EEF4CF27E245EE64EE1A
:10391000F0CF26E241EE62EEECCF27E245EE66EE16
:10392000E8CF28E241E0EBCF80911E0481608093D4
:103930001E0495C080911F04886080931F048FC06F
:1039400080911E048260F3CF80911E048460EFCFCB
:1039500080911E048860EBCF80911F048160EDCFC1
:1039600080911F048260E9CF80911E048061DFCFC7
:1039700080911E048062DBCF80911E048064D7CFCB
:103980000E94501680911E048068D1CF80911E0441
:103990008C60CDCF80911F048360CFCF80911E04B7
:1039A0008E7FC5CF80911F04877FC7CF80911E0473
:1039B0008D7FBDCF80911E048B7FB9CF80911E0477
:1039C000877FB5CF80911F048E7FB7CF80911F0472
:1039D0008D7FB3CF80911E048F7EA9CF80911E046E
:1039E0008F7DA5CF80911E048F7BA1CF0E945016A2
:1039F00080911E048F779BCF80911E04837F97CF89
:103A000080911F048C7F99CF80911E0482FB99279F
:103A100090F921E0922790FB82F990FB83F987CF00
:103A200080911F04982F909591708E7F892B90FB29
:103A300081F983CF90911E04892F8F7B96FF80643C
:103A400076CF0E94501690911E04892F97FB87F91C
:103A500080586DCF61E08EE090E00E943A2D609139
:103A60001E0470911F0484E090E00E94582D0E9473
:103A7000501638CE60E0EFCF90911E04892F8F7ED4
:103A800094FF806154CF90911E04892F8E7F90FF08
:103A900081604DCF90911F04892F877F93FF8860AD
:103AA0004CCF85E3AEC385E3BAC38091EE0380FFBC
:103AB0001EC0282F2E7F2093EE033091EF034091FC
:103AC000F0035091F1036091F2037091F303809140
:103AD000F4039091F5030E943B110E94CD07809161
:103AE0007A03816080937A030E94D407FBCD8160C2
:103AF0008093EE0361E0869586950E947012F2CD68
:103B00004AEB52E165EC72E10E94C607EBCD45EC51
:103B100052E16AEB72E1F8CF48E252E162E372E10E
:103B2000F3CF42E352E168E272E1EECF4EE052E1C0
:103B30006BE172E1E9CF4BE152E16EE072E1E4CF7B
:103B400044EF51E161E072E1DFCF41E052E164EF27
:103B500071E1DACF4CE352E166E572E1D5CF46E59B
:103B600052E16CE372E1D0CF61E081E0C6CF65E065
:103B700082E00E94D112B6CD68E086E0FACF6EE016
:103B800089E0F7CF64E18FE0F4CF67E185E1F1CF21
:103B900061E088E1B2CF62E289E1EBCF61E083E2EC
:103BA000ACCF6AE285E2E5CF0E945016FFEF24E336
:103BB0003CE0F15020403040E1F700C0000087E7D2
:103BC00097E7909301088093000888E19AE00FB688
:103BD000F894A895809360000FBE90936000FFCF8B
:103BE0006FEF7FEF90E080E00E94582D0E94321925
:103BF00080911F0482FB882780F991E089270E9429
:103C0000E212F8018581208131813B832A83882358
:103C100009F452C0C9010E947C0DF82E682F8A81D8
:103C20009B810E94F00D6A817B818F2D0E94000C88
:103C30000E941F0C8A839983A82ED8011596CC90D8
:103C400015971696BC90B2943FE0B3228091E5029E
:103C5000877009F1EC2CCC20F9F0892F807F80341B
:103C600069F08A2D805E8830B0F0892F807E8032A6
:103C700029F4B1E0BA1578F4BB2069F080911F04F3
:103C800082FF09C082E00E943D0E8091E5028770AC
:103C9000EE24E3948111E12CD980D2942FE0D2223A
:103CA000EBE0ED1508F471C0ED2DF0E0E352F24DBC
:103CB0000C944C2C80E0A3CF8A819B810E94BD0D87
:103CC000F82EB1CFF981FF70FF2E2981207F19F0E6
:103CD000F29490EFF922CC20B9F0FF2069F08A81AC
:103CE000805E883010F0A11009C080911003F82A7E
:103CF000F09210030E94FE158A8145C08091E70270
:103D0000F82AF092E702F6CF8A810E946319FF2019
:103D1000E1F13A81305E383010F0A11004C08F2DEF
:103D20000E943D0D06C0F0948091E702F822F092C7
:103D3000E7020E94FE1529C049814F70F42E598177
:103D4000507F503219F0F29480EFF822AA2059F0F7
:103D500061E0A61609F481C0CC2009F48DC0BB2017
:103D600009F44FC0C9CF80911F0482FD46C0CC200A
:103D7000F1F1FF2039F080911003F82AF09210033E
:103D80000E94FE1580E00E94231AAD2DA850BB0BA7
:103D9000149710F40E94CD06EE20A9F08091E50260
:103DA00080FD11C0F80115828695869586950E9442
:103DB000540EC8010E94381B8091E50286958695B5
:103DC00086950E942B0E20E0D8014C9111965C91B3
:103DD000119712966C91129713967C9113971496E3
:103DE0008C91149715969C910E94700F8BCC80E05B
:103DF0000E946319FF2049F292CFCC20A1F0B110AC
:103E000004C08F2D0E945919C0CF81E0B812BDCFD8
:103E10008091E6029F2D9823F91609F4B6CFF82A6F
:103E2000F092E602B2CFB110B0CF8F2D0E9452199E
:103E30009091E6028F2D892329F08F2D809589237B
:103E40008093E6028091B9029F2D982309F49DCFBB
:103E5000F094F822F092B90298CFCC2029F095E0A6
:103E60009B1508F492CFCDCFA4E0AB1508F48DCF0D
:103E70008F2D0E94521989CFBB20D1F3B9E3AB1229
:103E800009C0EFEFF7EE23E0E150F0402040E1F70A
:103E900000C000008A810E94631977CF89818695CE
:103EA0008695837069F0813009F06FCF8A8199819E
:103EB0009370C11002C080E090E00E94830665CF3D
:103EC0008A8199819370C11002C080E090E00E94C5
:103ED000A8065BCF6C2D8A810E948C0E56CF8981FB
:103EE000837009F042C0C11050CF4A814295469577
:103EF0004770440F440F2A812F7030E0042E02C017
:103F0000220F331F0A94E2F75A8190E080E054FFB9
:103F100009C08FE090E002C0880F991F4A95E2F730
:103F20008095909569816695669563706983623026
:103F300099F078F44091540350915503613039F071
:103F4000822B932B842395230E94640E1ECF242B57
:103F5000352B822B932BF8CF822B932B209154035C
:103F60003091550382279327EFCF8695CC2011F00F
:103F700089818170882309F408CF4A81429546954A
:103F80004770440F440F2A812F7030E0042E02C086
:103F9000220F331F0A94E2F78A8184FF1EC08FE04C
:103FA00090E002C0880F991F4A95E2F7809590959E
:103FB000A981A695A695A370A983A230B1F090F42B
:103FC0004091560350915703A13051F0822B932B0F
:103FD000842395230E94260ED8CE90E080E0E8CF7F
:103FE000242B352B822B932BF5CF822B932B2091D7
:103FF00056033091570382279327ECCFB981BF70C6
:10400000B983CC2029F08B2F0E94540E8A81FACEDE
:104010008A810E94521989810E942B0EB6CE8A8114
:10402000E2EFAE16A9F1EA1570F0F0EFAF16D1F09D
:1040300021EFA21691F0CC2009F465C0B1105CCE3E
:1040400089818F7129C033EFA31649F144EFA4127F
:10405000F2CF80911F0482FD33C089818F71CC2003
:10406000D9F21AC0CC2079F054E05B1508F48DCE5B
:1040700069816F71698381E090E002C0880F991FA8
:104080006A95E2F7B4CF85E08B1508F47ECEF0CFC9
:1040900089818F71C110C0CF0E94540E76CE90E0FE
:1040A00080E0CC2009F496CF99819F71998381E0BB
:1040B00090E0098002C0880F991F0A94E2F78ACF26
:1040C000CC20B1F0A981AF71A9838A2F0E94540E30
:1040D00080911F0482FF0AC0E981B8E0EB9FC00114
:1040E000112483608093E5028E2FD6CF8981D4CFAF
:1040F00081E00E943D0EF1E0FB1508F046CE82E023
:104100000E943D0E42CEBB2059F0893309F0C2CE49
:104110002FEF37EE43E0215030404040E1F7B8CE7A
:1041200089818F7179CF332029F0DC0119968C9128
:1041300085FFD8CBEA81FB81E851FC47E730F105E8
:1041400080F5E751F24D0C944C2C8091B602909181
:10415000B7022A813B812817390781F41092B702F0
:104160001092B6021092FE031092FF031092000408
:104170001092010410920604109205048091070425
:10418000909108040097B1F2A8E08A16910408F013
:104190009CCB622D0E94A6078111CCCF81E00E94AA
:1041A000BD19F8018581882379F1109278048A81FC
:1041B0009B8190578397A0F484E090E00E94242D87
:1041C00090931F0480931E04EA81FB81E150F04725
:1041D000E232F10508F0A8CBE051F24D0C944C2CE2
:1041E0004A815B8146315C4709F083C080911003AE
:1041F0008A7A91E009F490E09093B802811151CC51
:1042000089E20E944F064ECB8A819B8186319C4772
:1042100009F060C08091B802811145CC89E20E940A
:10422000240640CBC114D10409F006CB312CD12C8B
:10423000C12C80E00E94BD19F0920804E0920704AE
:1042400081E080930404F701868180930204311099
:104250000EC0CD2861F0D7018D919C919C01245016
:104260003109213A310508F010CB0E942406F701EC
:10427000C780D084C6019A9581159F4110F420EE25
:10428000D222BB24B394C60101978F339E4708F016
:10429000B12CD7011A96ED91FC911B97309731F014
:1042A0001C966D917C9181E00995B822BB2079F034
:1042B000F701878190850E94950F80930304C601C2
:1042C000F8E08F16910408F0E3CA0E9455070E9497
:1042D000FE15E5CA809110038272EA81FB81E052EB
:1042E000F847E531F10508F08CCCEE5EF14D0C9409
:1042F0004C2CEA81FB81E3302CE7F20709F470CC07
:1043000050F4E1154CE7F40709F44ECCE130FC47DA
:1043100009F46CCC76CC8A819B818B35ACE79A070B
:1043200009F4C8CC8C35BCE79B0709F461CC8A350D
:104330009C4709F066CC81E062CCCF93DF938091FB
:10434000E402807F09F04DC08091E302882309F4E4
:1043500048C0E091750450913C04C091DF02D091B7
:10436000DE026091E0027091E10247E05E17C9F160
:104370008E2F90E0E49FF0011124E35CFB4F248139
:10438000222391F1489FF001499FF00D1124DF0194
:10439000A35CBB4F11962C9111972C1325C02C9127
:1043A0002D1322C015962C91159721111DC0129620
:1043B0002D913C91261B370B2F3A3105A8F48091A3
:1043C000E4028F7080618093E402ED5BFB4F80819B
:1043D0008F70806180838EED92E00E94381B0E9476
:1043E000720DDF91CF910895FC013196E770BECF39
:1043F000A4E1B0E0EEEFF1E20C94D92B8C0186E061
:10440000F801DE011F9601900D928A95E1F7F801FF
:104410008481E5809EEDA92E92E0B92E9091E20272
:10442000911128C0882319F1EE20F1F0C8010E94F3
:10443000690EF82E8823C1F087E0F801D5010190BC
:104440000D928A95E1F78091E202813031F48091FA
:10445000DE029091DF020E94B00D0E949D218F2DFF
:104460006496ECE00C94F52BC8010E94381BFF24E5
:10447000F394F5CFD080C18082809380F090E302E6
:104480002091E0023091E102A401421B530BFF2076
:1044900009F4D9C04F3A510508F092C08823F9F2C7
:1044A0009091DF028091E402282F207F09F056C00E
:1044B000C91214C09091DE02D91210C0E11048C098
:1044C0008F7080618093E4028EED92E00E94381B31
:1044D0008091E402F8018683F12CC1CFE11038C04D
:1044E0006C2D8D2D0E946A046C2D8D2D0E946A0406
:1044F000E82E8111F1CFDF86C88A8F8598890E94C6
:10450000B00D292F22952F70243058F49F7022303F
:1045100088F0992399F0F8019681907F79F4FE2C28
:104520009ECF2A5F2F70223068F0C8010E94381B8E
:10453000EF2CF5CF992311F0882389F3805E883022
:1045400070F3F3CF803F58F3815F833070F7E7CF8C
:104550008091E40281608093E402BECFC91207C05B
:104560009091DE02D91203C0EE2009F48DC0C8017B
:104570000E94690E882309F477CFEE2009F474CFE6
:104580008091E402803288F02091DE023091DF02D7
:10459000398728879B868A869091E2029C871D86B0
:1045A0008E87CE0108960E94381B87E0F801AEED99
:1045B000B2E001900D928A95E1F70E949D2157CFBC
:1045C0009091E402292F207F51F48EED92E00E9419
:1045D000381B87E0F50111928A95E9F77DCF882392
:1045E00009F43DCF8091DF028C1110C08091DE0272
:1045F000D8120CC0E1100AC09683C8010E94381B73
:1046000087E0F50111928A95E9F729CFC8010E9448
:10461000690E882309F428CFEE2009F425CF809174
:10462000E402803210F22091DE023091DF023A8300
:1046300029839C828B829091E2029D831E828F83CC
:10464000CE010196B0CF4F3A5105D0F6882309F438
:104650000ECFFE2CEE2009F407CF8091DF028C11E3
:1046600020C08091DE02D8121CC08091E40280FD3F
:104670000FC0982F907F61F08683903F31F0982F84
:10468000907F905F8F70892B8683C8010E94381BB2
:1046900087E0F801AEEDB2E001900D928A95E1F766
:1046A000DECEC8010E94690E81117FCF8091E402A5
:1046B00081608093E402C8010E94381BD0CEABE138
:1046C000B0E0E5E6F3E20C94E12B4E8B5F8B688F54
:1046D000798F8A8F9B8F192F91111092E7021D8A73
:1046E00086E0FE017696DE011F9601900D928A9576
:1046F000E1F70A8D002341F021E04F85588969894F
:104700007A89C8010E94700F0B8B1C8B87E0FE0119
:104710003F96DE01189601900D928A95E1F7CE0141
:1047200008960E94F82181110CC087E0FE0138969E
:10473000DE01119601900D928A95E1F78C85811129
:104740000BC017E08091750490913C04891331C02F
:104750006B96E4E00C94FD2B20913C0430E0C90101
:10476000019687709927409175044817190699F0AA
:1047700097E0929FD001939FB00D1124A35CBB4F93
:10478000FE01319601900D929A95E1F780933C04D9
:104790000E94720DD6CF0E94501610923C041092C7
:1047A000750487E0EEEDF2E0DF011D928A95E9F7EE
:1047B000C8CF819FC0011124835C9B4F0E94F821C8
:1047C000882331F28091750490E0019687709927D3
:1047D00080937504B7CFA6E0B0E0E1EFF3E20C946C
:1047E000E12B0E9418068C01809111039091120315
:1047F0008017910781F019821A820E941806682F8B
:1048000049815A81792F80E090E00E945F231093C4
:104810001203009311032696E4E00C94FD2B1F92E3
:104820000F920FB60F9211242F933F934F935F93E4
:104830006F937F938F939F93AF93BF93CF93DF93A8
:10484000EF93FF93D091E900DF708091EC00C82FC7
:10485000C17080FDC0E81092E9008091F000877F70
:104860008093F00078940E9481161092E900809164
:10487000F00088608093F000CD2BCF70C093E900EA
:10488000FF91EF91DF91CF91BF91AF919F918F9168
:104890007F916F915F914F913F912F910F900FBE3C
:1048A0000F901F9018951F920F920FB60F92112420
:1048B0002F933F934F935F936F937F938F939F9328
:1048C000AF93BF93EF93FF938091E10082FF09C004
:1048D0008091E20082FF05C08091E1008B7F809390
:1048E000E1008091DA0080FF24C08091D80080FF31
:1048F00020C08091DA008E7F8093DA008091D90009
:1049000080FF9DC080E189BD82E189BD09B400FEC0
:10491000FDCF81E08093320480912504811109C08C
:104920000E94A0040E9441058091E200846080936F
:10493000E2008091E10080FF17C08091E20080FFDB
:1049400013C08091E2008E7F8093E2008091E200AC
:1049500080618093E2008091D80080628093D800CB
:1049600019BC85E0809332048091E10084FF2BC064
:104970008091E20084FF27C080E189BD82E189BD8A
:1049800089B5982F917080FFFBCF8091D8008F7DE3
:104990008093D8008091E1008F7E8093E100809128
:1049A000E2008F7E8093E2008091E200816080933C
:1049B000E20080913304882309F447C084E08093A7
:1049C0003204809132048091E10083FF27C08091FE
:1049D000E20083FF23C08091E100877F8093E100A4
:1049E00082E080933204109233048091E1008E7F44
:1049F0008093E1008091E2008E7F8093E2008091BD
:104A0000E20080618093E20042E060E080E00E948A
:104A10000F058091F00088608093F000FF91EF9186
:104A2000BF91AF919F918F917F916F915F914F91C6
:104A30003F912F910F900FBE0F901F90189519BCAA
:104A4000109232041092250474CF8091E30087FD08
:104A500093E090933204B5CF78941F921FB61F92C3
:104A600011248F939F93AF93BF93809121049091D2
:104A70002204A0912304B09124040196A11DB11D2C
:104A80008093210490932204A0932304B0932404E0
:104A9000BF91AF919F918F911F901FBE1F9018954E
:104AA0001F921FB61F9211248F939F93AF93BF93B2
:104AB00080912004811113C08091210490912204DF
:104AC000A0912304B09124044196A11DB11D8093AF
:104AD000210490932204A0932304B0932404BF9153
:104AE000AF919F918F911F901FBE1F901895CDB7CA
:104AF000DEB72E970FB6F894DEBF0FBECDBF85B7D9
:104B0000806885BF85B7806885BF84B7877F84BF8D
:104B10000FB6F894A895809160008861809360003A
:104B2000109260000FBE80E890E00FB6F89480937A
:104B30006100909361000FBE81ED9AE090938D0229
:104B400080938C020E94A0040E9441058091E200A3
:104B500084608093E2007894809132048823A1F0ED
:104B60001091E9001F709091EC00892F817090FDE9
:104B700080E8182B1092E9008091E80083FD0E94E4
:104B800081161F701093E90082E084BD93E095BD0B
:104B90009AEF97BD80936E001092440310924503E4
:104BA00010924603109247038091D8008061809351
:104BB000D8002AE12A95F1F700C08091D900182F7A
:104BC000117080FD04C00E94A00410923204109362
:104BD00016041093170410933F0111110E94712ABB
:104BE00080913F0180913F0195E0811190E0909389
:104BF000530385E0891B8093520304E512E0D8013A
:104C00008D918D018F3F11F00E94D30AB2E00935DA
:104C10001B07A9F709E512E0F80181918F018F3F89
:104C200011F00E94D30AF2E000361F07A9F78AE0CC
:104C3000E9E5F3E0DF01282F1D922A95E9F7E8E482
:104C4000F3E0DF011D928A95E9F790E080E00E9491
:104C5000242D863E9E4F09F466C066EE7EEF90E0FE
:104C600080E00E94582D60E082E090E00E943A2DA2
:104C700081E090E0909355038093540361E083E0DA
:104C800090E00E943A2D60E074E184E090E00E94A0
:104C9000582D60E086E090E00E943A2D60E087E0C9
:104CA00090E00E943A2D40E050E0BA0188E090E0A8
:104CB0000E944C2D60E084E290E00E943A2D60E07A
:104CC00087E190E00E943A2D60E08CE090E00E9445
:104CD0003A2D60E08DE090E00E943A2D19821A8210
:104CE0001B821C821D821E821F82188648E050E0B3
:104CF00068E170E0CE0101960E942A2D40E050E06C
:104D0000BA0180E290E00E944C2D40E050E0BA01F0
:104D10008FE090E00E944C2D40E050E0BA0183E12A
:104D200090E00E944C2D82E090E00E94162D80932E
:104D3000630384E090E00E94242D90931F048093ED
:104D40001E0483E090E00E94162D90E00E94640E05
:104D500080915803811183C088E090E00E941E2D4D
:104D60004B015C0184E290E00E94162D282F30E078
:104D700040E050E060E070E080E090E000E20E94FF
:104D8000612C282939294A295B292093EE03309385
:104D9000EF034093F0035093F1036093F203709399
:104DA000F3038093F4039093F50330917A03336017
:104DB00030937A032C7F09F042C025E02093EE0364
:104DC0001092EF032FEF2093F0032093F103109242
:104DD000F20325E030E04FEF5FEF60E00E943B110F
:104DE00088E090E00E941E2D6B017C0184E290E03F
:104DF0000E94162D282F30E040E050E060E070E087
:104E000080E090E00E94612CB22FA32FF42FE52FB9
:104E10005B0197018601BC29A12BFE29E32BB093EE
:104E2000EE03A093EF03F093F003E093F10360939C
:104E3000F203B092F3038093F4039093F5030E947E
:104E4000FA070E94CD078091EE0380FF05C060E065
:104E5000869586950E94701281E080935803809118
:104E60001604811102C00E94742A80E491E090939C
:104E70001B0480931A0418E1E12EF12C00E4C02EEB
:104E8000DD24D3948091320400E112E1853009F4ED
:104E900080C00E944F14A4E6AA2EA3E0BA2EB9E562
:104EA0008B2EB3E09B2ED401F50191918D9143E0BF
:104EB000EE36F40709F477C09817B9F3509016044A
:104EC00010E0D4010D914D01F50181915F01801732
:104ED00031F1482E4026712C66246394842D86215E
:104EE000B1F05520A1F079861A870E9418069C8798
:104EF0008B87DD8691E0802F862109F490E09E87E4
:104F000049855A856B857C858D850E945F237394C6
:104F1000660CF7E07F12E2CFF501319700831F5F47
:104F20001A3079F60E94EA0A42C080913204843035
:104F300009F1109220040FB6F894A895E092600051
:104F40000FBEC092600083B7817F846083BF83B748
:104F5000816083BF7894889583B78E7F83BF0FB6B7
:104F6000F894A89580916000886180936000109209
:104F700060000FBE80913104882359F00E944F14C5
:104F8000E9E5F3E0819181112FC223E0E336F207D6
:104F9000C9F780913204853009F4C7CF0E945016BA
:104FA0000E94CD0676CF981389CF0E94EB23809183
:104FB0001604882309F455C08091050490910604D5
:104FC000892B09F44EC04091FA035091FB03609184
:104FD000FC037091FD032FB7F89480912104909108
:104FE0002204A0912304B09124042FBF841B950BAD
:104FF000A60BB70B4091F6035091F7036091F803AD
:105000007091F90384179507A607B70750F100912F
:10501000050410910604C8010E94950F9801205EB6
:1050200031092830310520F00115110509F061C161
:105030000E945919802F0E94231A10920604109280
:1050400005041092FA031092FB031092FC031092D5
:10505000FD031092F6031092F7031092F8031092DA
:10506000F90380917903882309F464C0809178035F
:10507000E091EE03E695E695E81BE0937403823039
:1050800009F03AC1F0E0E35EFA4FE4910E2F10E030
:10509000F7ECAF2EF8E0BF2E80917503882361F006
:1050A000109275030E94040B909373038093720314
:1050B00010927703109276030E94040BE091720322
:1050C000F09173039C012E1B3F0B2F3F3F4790F540
:1050D000209170032223B1F01092700320916E038F
:1050E00030916F03821B930B8F3F9F4758F4205DD5
:1050F0003A4830936F0320936E0380917A0388605F
:1051000080937A038090760390907703E00FF11FED
:10511000F0937303E093720382E793E0F50109953E
:105120008091760390917703892B21F4892811F0DF
:10513000D092700386E0E0E1F4E0DE011196019088
:105140000D928A95E1F7909011040091120410914C
:105150001304A0901404B09015041092120410923D
:1051600013041092140410921504812F802B09F45B
:1051700045C080910E0490910F040E94FD059C0192
:1051800090910904992309F44FC125313105B0F1FB
:105190009F3F19F09F5F90930904002359F00E94EC
:1051A00027079FEF10160CF491E0899F802D1124A2
:1051B00080931204112359F00E94270791E01116E1
:1051C0000CF09FEF899F802D112480931304809110
:1051D0001204882399F080901304882079F00E94AB
:1051E0004707882309F4F4C080931204882D0E9495
:1051F0004707882309F4EFC0809313048B2D8A2975
:1052000009F445C080910C0490910D040E94FD05A5
:105210009C0190910A04992309F401C121353105BB
:10522000B0F19F3F19F09F5F90930A04AA2059F0B4
:105230000E9405079FEF1A140CF491E0899F802DBE
:10524000112480931404BB2059F00E94050791E0BB
:105250001B140CF09FEF899F802D1124809315045F
:1052600080911404882399F0A0901504AA2079F065
:105270000E944707882309F4B1C0809314048A2D43
:105280000E944707882309F4ACC0809315048091DD
:105290001104891117C080911204882311F0801322
:1052A00011C020911304222311F012130BC090910E
:1052B0001504992311F09B1105C030911404332378
:1052C00009F4A8C00E94DE0686E0FE013196A0E146
:1052D000B4E001900D928A95E1F70E94CD0690917D
:1052E0007103891709F4CECD809371030E940C06D7
:1052F000C9CD0E9448199ECE863059F4F0E0E65E92
:10530000FA4FE4910E2F10E0E7EBAE2EE8E0BE2E50
:10531000C3CE893061F4E695F0E0E95EFA4FE4919E
:105320000E2F10E077EAA72E7AE0B72EB5CE8F3099
:1053300061F4E695F0E0EC5EFA4FE4910E2F10E098
:1053400068E2A62E6AE0B62EA7CE853159F4F0E0C9
:10535000EF5EFA4FE4910E2F10E056ECA52E59E0C7
:10536000B52E9ACE08E210E02BE4A22E29E0B22E50
:10537000883109F491CE833249F4EFE0F5E00591EC
:10538000149142E1A42E49E0B42E86CE04EF11E040
:105390009BEDA92E98E0B92E843209F47DCE85329A
:1053A00081F48E2F63E00E940A2CE92FF0E0E45F85
:1053B000FA4FE4910E2F10E039E8A32E30E1B32E1E
:1053C0006BCE00ED17E08CECA82E87E0B82E64CEF3
:1053D000D09212040BCFD092130410CFD0921404A9
:1053E0004ECFD092150453CF09BD19BD09B400FEAC
:1053F000FDCF8091D8008F7D8093D8008091E00010
:1054000082608093E0008091E00081FDFCCF0E94EB
:105410005016BFCD822B892B09F456CF53CF2B309A
:10542000310508F000CF33CF2B30310508F0B2CE74
:10543000E5CE8EE1489B02C08150E1F7489BFECF4C
:105440000895589880E28A95F1F7589A0895FC01DA
:105450003BE03A95F1F798E020E080E031E040E170
:105460004A95F1F7880F489B02C08160232742E0EC
:105470004A95F1F7000040E14A95F1F7915079F72C
:1054800090E19A95F1F799B132E03A95F1F7000081
:1054900040E14A95F1F7917092272081920F908315
:1054A0000895A1E0B0E0E7E5FAE20C94DF2B198261
:1054B0008C017C01E60EF11C0E151F0541F481E004
:1054C0009981911180E02196E6E00C94FB2B0E94DB
:1054D000192ACE0101960E94272AF80181938F0193
:1054E000EBCF509A589A08955098589AE89AE9E65E
:1054F000F0E080818C7F808308956150770B91E08C
:1055000001C0990F6A95EAF720E031E0911108C0D7
:10551000222391F0589A80E28A95F1F758980895DD
:10552000492F482339F0589A232740E24A95F1F74A
:105530009695ECCF5898F9CF5898EDCFFF920F93EE
:105540001F93CF93DF93EC018C01060F111DC01741
:10555000D10729F4CDB7DEB7E5E00C94FC2BF99028
:105560000E94212A68E08F2D0E947D2AF0CF1F9291
:105570000F920FB60F9211240F931F932F933F9307
:105580004F935F936F937F938F939F93AF93BF934B
:10559000EF93FF93CF93DF930F92CDB7DEB71982CE
:1055A0000E94192ACE0101960E94272A082F0695EB
:1055B00006950695282F22952570902F9570290F16
:1055C000922F937026952695920F98279770898130
:1055D000982B09F05CC0053008F059C080E18A952D
:1055E000F1F7589A509A82E08A95F1F700C05898DE
:1055F00088E0089F80011124D801A15EBE4F169655
:10560000ED91FC9117973097A9F06091520270913B
:10561000530214962D913C911597260F371F119622
:105620008D919C911297680F791F13964C91139747
:105630008C910995F801E15EFE4F6381662351F07C
:10564000209152023091530284819581820F931FE1
:105650000E949E2A0E94212A80E18A95F1F758989B
:105660005098589A80E18A95F1F7F801E15EFE4F73
:105670006081662351F02091520230915302818162
:105680009281820F931F0E94512A0E94192A0F9023
:10569000DF91CF91FF91EF91BF91AF919F918F914A
:1056A0007F916F915F914F913F912F911F910F913A
:1056B0000F900FBE0F901F9018950F931F93CF93CD
:1056C000DF93EC0105970CF04CC0F894509A589871
:1056D00085E08A95F1F700009C2F969595708C2FA8
:1056E0008570980F892F83709695969523E0CC0F3F
:1056F000DD1F2A95E1F7980F8E01092B0E94212AC0
:1057000000C068E0802F0E947D2A80E18A95F1F731
:105710005098589A489B1EC087E090E048991CC05A
:10572000FE01E15EFE4F63816623F9F02091520293
:105730003091530284819581820F931F0E94512AD8
:10574000811113C0509A589A7894DF91CF911F918C
:105750000F91089500C0DECF019729F4509A589A0E
:10576000789480E0F2CF00C0D9CF0E94192A80E25D
:105770008A95F1F75898509A80E18A95F1F7C15EC1
:10578000DE4F6881662351F020915202309153021E
:1057900089819A81820F931F0E949E2A0E94212A4A
:1057A000789481E0D2CF2F923F924F925F926F9286
:1057B0007F928F929F92AF92BF92CF92DF92EF92A1
:1057C000FF920F931F93CF93DF93CDB7DEB7CA1B22
:1057D000DB0B0FB6F894DEBF0FBECDBF09942A884D
:1057E000398848885F846E847D848C849B84AA84F5
:1057F000B984C884DF80EE80FD800C811B81AA8182
:10580000B981CE0FD11D0FB6F894DEBF0FBECDBF4C
:10581000ED010895991B79E004C0991F961708F0CF
:10582000961B881F7A95C9F78095089587FB082EE7
:10583000062687FD819567FD61950E940A2C0EF46E
:10584000919507FC81950895AA1BBB1B51E107C0E8
:10585000AA1FBB1FA617B70710F0A61BB70B881F00
:10586000991F5A95A9F780959095BC01CD0108958F
:1058700097FB072E16F4009407D077FD09D00E94FD
:10588000242C07FC05D03EF4909581959F4F0895F8
:10589000709561957F4F0895EE0FFF1F0590F4916D
:1058A000E02D09940E94C22D332312F48A1B9B0B16
:1058B0000C945C2C0E94C22DB7FF0895821B930BA1
:1058C0000895002E083090F0982F872F762F652F9F
:1058D000542F432F322F22270850F4CF220F331F8B
:1058E000441F551F661F771F881F991F0A95B2F71F
:1058F000002D089597FD1094002E083098F0085060
:10590000232F342F452F562F672F782F892F912D36
:10591000F4CF159497958795779567955795479503
:10592000379527950A95AAF71124002D08958F928F
:105930009F92AF92BF92CF92DF92EF92FF92CF935E
:10594000DF93EC01688179818A819B816115710502
:105950008105910521F464E279ED8BE597E02DE175
:1059600033EF41E050E00E946E2D49015A019B0146
:10597000AC01A7EAB1E40E948D2D6B017C01ACEE75
:10598000B4EFA50194010E949B2DDC01CB018C0D8D
:105990009D1DAE1DBF1DB7FF03C00197A109B048F3
:1059A00088839983AA83BB839F77DF91CF91FF90F0
:1059B000EF90DF90CF90BF90AF909F908F90089521
:1059C0000E94972C089580E091E00E94972C089502
:1059D000B0E0A0E08093000190930101A093020148
:1059E000B09303010895FC014150504030F0019004
:1059F0000616D1F73197CF01089588279927089582
:105A0000FB01DC0104C08D910190801921F441500B
:105A10005040C8F7881B990B0895FB01DC0102C0B8
:105A200001900D9241505040D8F70895F999FECF5A
:105A300092BD81BDF89A992780B50895A6E1B0E09E
:105A400044E050E00C94602DA8E1B0E042E050E06A
:105A50000C94602DDC01A40FB51F4150504048F05C
:105A6000CB01840F951F2E910E943B2D4150504039
:105A7000D0F70895262FF999FECF92BD81BDF89AEF
:105A8000019700B4021639F01FBA20BD0FB6F89482
:105A9000FA9AF99A0FBE08950396272F0E943B2D7C
:105AA0000E943A2D252F0E943B2D242F0C943B2D34
:105AB0000196272F0E943B2D0C943A2DDC01CB013F
:105AC000FC01F999FECF06C0F2BDE1BDF89A31960E
:105AD00000B40D9241505040B8F70895052E97FB41
