:100000000C944B040C94B92A0C9468040C94680466
:100010000C9468040C9468040C9468040C946804B0
:100020000C9468040C9468040C9453240C940F24CE
:100030000C9450250C9468040C9468040C94680487
:100040000C9468040C9468040C9468040C94680480
:100050000C9468040C942C250C9468040C9468048B
:100060000C9468040C9468040C9468040C94680460
:100070000C9468040C9468040C9468040C94680450
:100080000C9468040C9468040C9468040C94680440
:100090000C9468040C9468040C9468040C94680430
:1000A0000C9468040C9468040C94680430041E00DA
:1000B0001F00200021002200000F2B0014001A292D
:1000C00009261300050000072921042115241628FC
:1000D00017220A004A00E1001D001B25062C072AF2
:1000E00019004D002752E000E200E3002C422C43AF
:1000F0002844380027002600250024002300000F94
:100100002F0033001C3918360F000D000007343162
:1001100012310C240838113210004E0032325400D3
:100120003725363C0B3A0E004B004F005200510071
:1001300050002A452A454C4630041E001F0020006E
:1001400021002200000F2B0014001A0008001500E7
:1001500017000007292104001600070009000A0003
:100160004A00E1001D001B000600190005004D00BB
:100170002752E000E200E3002C422C4328443800E0
:1001800027002600250024002300000F2F00130065
:1001900012000C0018001C000007343133310F240A
:1001A0000E380D320B004E0032325400370036004C
:1001B000100011004B004F005200510050002A4522
:1001C0002A454C460000000000000000000000002E
:1001D000000F00001E021F0409081308050C000789
:1001E0000000042115241628172209080000E10048
:1001F0001D081B0806080708190800000000000079
:1002000000000000000000000000000000000000EE
:10021000000000000000000F38002E004F082B01E6
:100220002B03500800072D0036024F0052005100EA
:10023000500000001F0237024D004B004E004A00E4
:100240000000BB00A900AA00BC002A0038002D0055
:10025000000000000000000000000000000F00008F
:100260000000000000000000000000070000E000A7
:10027000E200E300E10000000000E10000000000F7
:10028000000000000000000000000000000000006E
:10029000000000000000000000000000000000005E
:1002A0000000000F38002E0026002500240000006A
:1002B00000072D0036022300220021003600000036
:1002C0001F02370220001F001E0037000000BB0085
:1002D000A900AA00BC002700380027020000000087
:1002E0000000000000000000000F000000000000FF
:1002F00000000000000000070000E000E200E30052
:10030000E10000000000E10000000000000000002B
:1003100000000000000000000000000000000000DD
:100320000000000000000000000000000000000FBE
:1003300038002E00420041004000450000072D001B
:1003400036023F003E003D00440000001F0237021D
:100350003C003B003A0043000000BB00A900AA009B
:10036000BC00390038002D003004000000000000FF
:1003700000000000000F30041E021F0425042604A4
:100380002002000720042302210425022602220263
:1003900000001E06240430026400640232020000E1
:1003A00000000000000000002C002C0028000000CD
:1003B00000000000000000000000000F000000002E
:1003C000000000000000000000070000E000E20064
:1003D000E300E10000000000E50000000000000074
:1003E000000000000000BB00A900AA00BC00000043
:1003F00000000000000000000000000000000000FD
:10040000000F00000000DB00CD00DC000000000752
:1004100029000000CF00CE00D00000000000000046
:100420000000D200DA00D900000000000000000047
:10043000000000002C00D100D200000000000000ED
:10044000000000000000000F00000000000000009D
:100450000000000000070000E4004F245238513231
:1004600050000000DF00DE00DD00D200D1000000FF
:100470000000BB00A900AA00BC00000000000000B2
:1004800020783A003B003C003D003E0000001B701D
:100490000000000000000000000044001C70E000AC
:1004A000E200E300E1000000005220782378257884
:1004B00027782178000001520100E000E200E3000B
:1004C0000000000000000000430042004100400026
:1004D0003F000000000000000000000000000000DD
:1004E000450000000000000000001C701B7000525E
:1004F000E50043004200410040003F00015200007F
:10050000BD00BE0000000000000000001E0F05003E
:10051000047F3F1F643214643214783C1E1E140A98
:1005200005000101010101010101010202020202B3
:10053000020202020303030303030303040404048B
:100540000404040505050505060606060607070753
:10055000070708080808090909090A0A0A0B0B0B0A
:100560000C0C0C0D0D0D0E0E0E0F0F0F10101111A7
:10057000111212131314141515161617171818192B
:10058000191A1A1B1B1C1D1D1E1E1F202021222292
:10059000232424252626272829292A2B2C2D2D2ED5
:1005A0002F30313232333435363738393A3B3C3DEF
:1005B0003E3F404142434445464748494A4C4D4EE0
:1005C0004F50515354555658595A5B5D5E5F6162A6
:1005D00064656668696B6C6D6F7072737577787A35
:1005E0007B7D7E8082838587888A8C8E8F91939590
:1005F00096989A9C9EA0A2A3A5A7A9ABADAFB1B3B4
:10060000B5B7BABCBEC0C2C4C6C9CBCDCFD1D4D693
:10061000D8DBDDDFE2E4E7E9EBEEF0F3F5F8FAFD35
:10062000FFFFAA7F55402223252628292A2C2D2F7B
:100630003032333536383A3B3D3E404243454749F8
:100640004A4C4E5051535557595A5C5E606264662D
:1006500068696B6D6F71737577797B7D7F81838539
:1006600087898A8C8E90929496989A9C9E9FA1A33B
:10067000A5A7A8AAACAEAFB1B3B4B6B8B9BBBCBE5F
:10068000BFC1C2C3C5C6C7C9CACBCCCDCED0D1D2DB
:10069000D2D3D4D5D6D7D7D8D9D9DADADBDBDBDCDD
:1006A000DCDCDCDCDDDDDDDDDCDCDCDCDCDBDBDB89
:1006B000DADAD9D9D8D7D7D6D5D4D3D2D2D1D0CEE9
:1006C000CDCCCBCAC9C7C6C5C3C2C1BFBEBCBBB9EE
:1006D000B8B6B4B3B1AFAEACAAA8A7A5A3A19F9E6C
:1006E0009C9A98969492908E8C8A89878583817F34
:1006F0007D7B79777573716F6D6B69686664626015
:100700005E5C5A5957555351504E4C4A49474543E0
:1007100042403E3D3B3A3836353332302F2D2C2A7D
:1007200029282625232205010902A10185020901A4
:10073000A100050919012908150025019508750171
:1007400081020501093009311581257F950275085F
:10075000810609381581257F950175088106050CEC
:100760000A38021581257F950175088106C0C005EC
:10077000010980A101850319012AB700150126B7D7
:1007800000950175108100C0050C0901A1018504C7
:1007900019012AA002150126A002950175108100F9
:1007A000C005010906A1018506050719E029E7151D
:1007B0000025019508750181020507190029EF152B
:1007C00000250195F075018102050819012905959B
:1007D0000575019102950175039101C00501090696
:1007E000A101050719E029E7150025019508750104
:1007F00081029501750881010507190029FF15007F
:1008000026FF0095067508810005081901290515C0
:10081000002501950575019102950175039101C0AF
:1008200009023B00020100A0FA09040000010301D3
:10083000010009211101000122440007058103087C
:100840000001090401000103000000092111010059
:100850000122B600070582032000011201000200F8
:10086000000008444D44520001010200010C0352F3
:1008700000650064006F007800000014034600610A
:10088000006C006200610074006500630068000095
:1008900000040309040011241FBECFEFDAE0DEBF1D
:1008A000CDBF24E0A4EDB2E001C01D92A13CB2078F
:1008B000E1F712E0A0E0B1E0E2E5FCE502C005905E
:1008C0000D92A43DB107D9F70E9477250C94D32D42
:1008D0000C940000482F2091BD049091840457E0AF
:1008E000291302C080E0089530E0529FF001539F29
:1008F000F00D1124EB57FB4F8181681306C08081F6
:10090000481303C085818111EECF2F5F3F4F2770C1
:10091000E7CFFC01AC014B5F5F4F8FEF91E321917B
:10092000822728E030E087FF09C0880F89272150FF
:100930003109C9F7E417F50791F70895880FF7CF44
:10094000E8EDF0E080818E7F80831092E2001092CB
:10095000DA001092E100A0EEB0E08C9181608C93FF
:1009600080818F77808319BCA7EDB0E08C918E7F5A
:100970008C9380818F7E808310926D0408952091E6
:10098000E4003091E50095E6A9012091EC00822F6A
:10099000817020FF06C08091E80080FF06C080E0E3
:1009A00008952091E80022FD1AC080917A048823DE
:1009B00089F0853089F08091EB0085FD0FC0209192
:1009C000E4003091E50042175307F9F29150E1F647
:1009D00084E0089582E0089583E0089581E0089519
:1009E00080917C0487FF13C08091E80082FF06C0DD
:1009F0008091E8008B778093E80004C080917A04AE
:100A00008111F2CF089580917A048823D9F38091DF
:100A1000E80080FFF8CF8091E8008E77ECCF982F28
:100A20009093E900242F762F50E0891731F07091D0
:100A3000EC002091ED005091F00021FD07C09F5F78
:100A4000973071F78093E90081E008953091EB00D1
:100A50003E7F3093EB003091ED003D7F3093ED0011
:100A60003091EB0031603093EB007093EC002093F9
:100A7000ED005093F0002091EE0027FDE0CF80E0E4
:100A80000895B0E0A0E0E7E4F5E00C94DF2BC8EDBA
:100A9000D0E088818F7E8883E7EDF0E080818160FF
:100AA000808384E082BF81E080936D0488818E7FA3
:100AB000888302EE10E0F80110821092DA0081EED5
:100AC000C82ED12CF601108288818F778883888187
:100AD0008068888388818F7D888319BC10927A040E
:100AE00010927B04109279041092780490EEE92E13
:100AF000F12CF70180818B7F8083888181608883DE
:100B000042E060E080E00E940F05F60180818E7F68
:100B10008083F80180818160808380818860808308
:100B2000F70180818E7F8083888180618883CDB743
:100B3000DEB7E8E00C94FB2BFC01809182049091DD
:100B4000830486179707A0F06115710529F4909129
:100B5000E8009E779093E80090E06115710551F4EC
:100B6000911108C08091E80082FF34C080E00895B0
:100B7000BC01F2CF80917A048823C1F18530C1F1A4
:100B80008091E80083FD30C08091E80082FDEACFCB
:100B90008091E80080FFE1CF8091F3002091F20086
:100BA000382F6115710519F02830310558F091E0A2
:100BB0002830310509F090E02091E8002E7720934D
:100BC000E800CBCF81918093F100615071092F5FD4
:100BD0003F4FE7CF80917A04882341F0853041F080
:100BE0008091E80083FFBECF81E0089582E0089500
:100BF00083E0089580916F0408959C014FB7F894A5
:100C00008091690490916A04A0916B04B0916C0486
:100C10004FBF821B930B08952FB7F894609169041E
:100C200070916A0480916B0490916C042FBF0895B9
:100C30002FB7F8948091690490916A04A0916B0495
:100C4000B0916C042FBF0895909160019923D1F069
:100C50009091660497FF16C0E82FE695E695E69515
:100C6000EE31E0F4F0E0E252FD4F282F277081E0F2
:100C700090E001C0880F2A95EAF780959281892338
:100C800082830895E8EDF2E09191891303C0DF01BA
:100C900011971C9292E0EE3DF907B1F708959091FB
:100CA00060019923C1F09091660497FF14C0E82F6A
:100CB000E695E695E695EE31F8F4F0E0E252FD4F68
:100CC000877021E030E001C0220F8A95EAF7828127
:100CD000822B82830895A8EDB2E0EFEF90E02D9192
:100CE000821751F0EF3F19F4211101C0E92F9F5FE6
:100CF0009630A9F7EF3F09F408950E2E000CFF0B74
:100D0000EA52FD4FE6CFA3E0B0E0E9E8F6E00C944C
:100D1000E52B209164043091650428173907A1F070
:100D20009093650480936404E0916204F0916304FD
:100D3000309751F024E029839B838A830084F185D6
:100D4000E02DCE01019609952396E2E00C94012C4A
:100D5000A3E0B0E0EEEAF6E00C94E52B209160040D
:100D60003091610428173907A1F0909361048093B2
:100D70006004E0916204F0916304309751F023E045
:100D800029839B838A830084F185E02DCE0101961F
:100D900009952396E2E00C94012C80915E0488234F
:100DA00059F0E0916204F0916304309729F00190CA
:100DB000F081E02D0995089580E008950E941806BD
:100DC0009C0190915A0480915B04982B21F0309300
:100DD00057042093560490915C0480915D04982BF5
:100DE00021F03093550420935404E0916204F09173
:100DF0006304309749F082E0809358040680F781BD
:100E0000E02D88E594E0099508958091530480FDD4
:100E100016C081FD16C082FD16C080915204882341
:100E2000A1F0883280F428E0829FC001112468E29A
:100E300070E00E943A2C862F672B39F0089582E0EB
:100E4000089584E0089588E0089581E008958091F0
:100E5000530480FD14C081FD14C082FD16C0809132
:100E60005104882381F08E3180F420E5829FC001F7
:100E700011246EE170E00E943A2C862F089584E1DF
:100E8000089588E2089588E0089580E50895282F60
:100E900035EB2303C001112497FF04C0805891094A
:100EA000892F089580589F4FFBCFCF93DF93EC019C
:100EB0004091460450914704609148047091490460
:100EC0002FB7F8948091690490916A04A0916B0403
:100ED000B0916C042FBF841B950BA60BB70B843FFE
:100EE0009140A105B10518F5809146049091470401
:100EF000A0914804B0914904809342049093430424
:100F0000A0934404B093450484EF91E0A0E0B0E0E6
:100F100080933E0490933F04A0934004B093410417
:100F2000D0934E04C0934D04DF91CF9108950E9459
:100F30000C0660934204709343048093440490939E
:100F4000450482E390E0A0E0B0E0E2CFFC018581BF
:100F5000862351F492819923B9F06923818583FF17
:100F600005C081E061110FC080E00895892F8F7066
:100F700092959F70982B862F8F7062956F70682B5B
:100F800081E09613F1CF089581E0FDCFFA01811140
:100F900001C0FB01099508950895E0ECF3E011828A
:100FA00082818460828308958091360480FD0AC026
:100FB000E6ECF3E0118210821282339683E0E03F88
:100FC000F807C1F76EE070E086EC93E00E942A100B
:100FD00008959091360490FF0CC0E6ECF3E0818315
:100FE00060834283339693E0E03FF907C1F70E94A4
:100FF000D407089580913604982F9C7F29F483703C
:1010000084608093360408958C3AE8F38370886A8C
:10101000F8CFAF92BF92DF92EF92FF920F931F93A0
:10102000CF93DF93082F162FE901E42FF0E0EF5D57
:10103000FA4F611110C0E4915E2F4E2F4983E8836F
:101040005A83DF91CF911F910F91FF90EF90DF9026
:10105000BF90AF900895E62EF12C4491D42EE42F4A
:10106000F0E026E0829FC00111242FEF30E0B901AB
:101070000E94262C802F90E0880F991F55E5569FDF
:10108000D001579FB00D11248A1B9B0B982F990FED
:10109000890F5901AE18BF08AE9ED001AF9EB00DAA
:1010A000BE9EB00D11245B2F189F80011124012FCB
:1010B00011275901A01AB10AAE9E8001AF9E100DF2
:1010C000BE9E100D11245901A81AB108AE9CC00192
:1010D000AF9C900DBE9C900D1124892F9927281B41
:1010E000390B2E9FC0012F9F900D3E9F900D112414
:1010F000E92F62307105A1F050F46115710509F412
:101100009DCF6130710581F0EB2F512F97CF643067
:10111000710569F080F06630710509F48FCFF4CF66
:10112000E42F4B2F592F8ACFE42F412F87CFEB2F5E
:10113000542F492F83CF4B2F5D2DE12F7FCFA3E07D
:10114000B0E0E5EAF8E00C94E52B9091360490FFCE
:101150000AC09E012F5F3F4F0E9409084B816981A1
:101160008A810E94E9072396E2E00C94012CCF9338
:10117000DF93EC01E6E3F4E0438162818C810E941D
:101180009F088C818F5F8C83DF91CF910895CF93DF
:10119000DF93EC01EC81F0E0EA5DF94F4491E6E386
:1011A000F4E0628181810E949F088C818F5F8C8333
:1011B000DF91CF910895EF92FF920F931F93CF93FA
:1011C000DF938C01C6ECD3E0F12CE12CF801948183
:1011D0006091380480913704F7E0EF16F104ECF4E5
:1011E0009923E9F09E01409139040E9409082FEFEC
:1011F000E21AF20A23968EE0E816F10439F70E940B
:10120000D407F801848190E0019681709927848346
:10121000CDB7DEB7E6E00C94FD2B992319F39E01C0
:1012200040E0E3CFA3E0B0E0E8E1F9E00C94E32B89
:101230008C018091C50381110AC09E012F5F3F4F31
:101240004FEF6FEF0E9409088A818093C503F80170
:101250006481613069F08091C50340E0662361F0EC
:1012600040E0623011F44091C50380E060E004C0CA
:101270006091C50340E080E00E94E907F8018481A5
:1012800090E0019663E070E00E943A2C84832396FC
:10129000E4E00C94FF2BB0E0A0E0E1E5F9E00C9471
:1012A000DB2BEC014C81042F10E09801D8010E9447
:1012B000C42D9B01AC010E948F2D4B015C01E0E22B
:1012C000F0E0E01BF10BA5E5B0E0AC019B010E9452
:1012D0008F2D6B017C019F01DF010E94542C9B012B
:1012E000AC010E949A2D9B01AC01280D391D4A1DAD
:1012F0005B1DC701B6010E94A22DF22E822F90E045
:1013000039E23F1598F143E0249F9001112435956F
:101310002795122F109596ECC92E93E0D92E00E058
:1013200085E5E82EEF188E2D01FD8F2D9601412FBA
:10133000609138040E9409080F5F53E0C50ED11C6C
:101340000E3089F70E94D4079C8181E0992319F01F
:10135000903219F48FEF80935F0180915F01890FC4
:101360008C83CDB7DEB7ECE00C94F72B25E530E0AD
:10137000A901481B590BCA019A01220F331F280FDC
:10138000391F37FFC4CF2F5F3F4FC1CFEF92FF927E
:101390000F931F93CF93DF937C01FC018481811114
:1013A00009C081E084831092C40392E090935E01AF
:1013B00080935D01C6ECD3E0FE011182108212829F
:1013C000339683E0E03FF807C1F710E000E080913A
:1013D000C403082E000C990B08171907ACF1809173
:1013E0005E01082E000C990B801791076CF19E018D
:1013F0004091390460913804809137040E940908B3
:101400000F5F1F4F23960E30110509F70E94D40776
:1014100080915D019091C403980F9093C403209133
:101420005E01280F20935E01121614F49D303CF0EB
:10143000819580935D01813011F4F7011482CDB75D
:10144000DEB7E6E00C94FD2B198218821A82D8CF01
:10145000B0E0A0E0EEE2FAE00C94DC2BEC018A8133
:10146000BB24BA9480FD02C0BB24B3948C8181114B
:1014700008C081E0B81256C08DE08093C30381E0BC
:101480008C8326ECE22E23E0F22E10E000E03EE01A
:10149000932EF70111821082128294E0C92ED12C72
:1014A000A12C8091C3038A0D8F300CF43EC0692DAE
:1014B0000E94182C892F082E000C990B8017910779
:1014C00091F4809139048C9DA0018D9D500D1124C3
:1014D00055954795559547959701609138048091AA
:1014E00037040E940908AB0CF1E0CF1AD108C9F605
:1014F0000F5F1F4F83E0E80EF11C0E30110549F617
:101500000E94D4078091C30391E0B91217C08111E2
:1015100010C08DE08093C3031C82CDB7DEB7EBE033
:101520000C94F82B1092C303AACF87FFC4CF825F1D
:10153000C2CF81508093C303BC82EFCF90E001966D
:10154000B8010E943A2C8093C3038C83E6CFEF92BC
:10155000FF921F93CF93DF93EC0186ECE82E83E09C
:10156000F82E10E08C819701409139046091380485
:10157000810F0E9409081E5E83E0E80EF11C1C3FEB
:1015800089F70E94D4079A818C8190FF08C08F5FF1
:101590008C83DF91CF911F91FF90EF900895815040
:1015A000F7CF80E00895F894E82FE295EF70F0E02F
:1015B00031A1282F2F7081E090E001C0880F2A957B
:1015C000EAF7982F9095932391A392A1892B82A358
:1015D000789408950F931F9380915E04882329F0D7
:1015E0000E940C061F910F9108950E940C06009115
:1015F0008C0310918D0320918E0330918F03600F27
:10160000711F821F931FEECF80915E04882319F013
:101610000E94180608950E94EA0ACB01089590914D
:10162000660492FF10C041E0282F2471243009F095
:1016300040E031E0282F2871283009F030E04317CE
:1016400011F02CE0822793FF10C041E0282F247175
:10165000243109F040E031E0282F2871283109F0C9
:1016600030E0431711F02CE082273091670430FFFF
:1016700010C051E0282F2171213009F050E041E0E5
:10168000282F2871283009F040E0541711F029E084
:10169000822731FF10C041E0282F2171213109F04C
:1016A00040E031E0282F2871283109F030E043175D
:1016B00011F029E0822794FD877E089582389105F4
:1016C000B9F1B0F48133910509F47DC048F4893251
:1016D000910509F46DC08A32910509F47BC0089523
:1016E0008533910509F45FC08933910509F10895A7
:1016F000833E9105D9F138F4803E910529F1823E6F
:10170000910579F10895863E9105D9F1873E9105BD
:1017100009F43EC0843E910541F52091670421FF04
:1017200024C08091660484FD19C087EE90E008957E
:1017300020916604237009F05AC02091670423FFAA
:1017400014C089E290E008952091660420FD38C01D
:101750003091670430FF09C024FF43C090E080E06F
:1017600008952091660422FDF7CF08952091660424
:1017700022FD3AC03091670430FD39C024FFF5CF17
:10178000EDCF2091660423FFF0CF24FDE7CFCDCF2E
:101790002091660423FD2EC03091670431FFEECF07
:1017A00084EE90E008952091660425FFDECFC9CF36
:1017B0002091660425FD21C02091670423FFD5CF29
:1017C00089E390E0D2CF2091660426FFCECF8AE253
:1017D00090E008952091660426FFC7CF81E390E052
:1017E000089583EE90E0089582EE90E0089580EEF3
:1017F00090E0089586EE90E0089585E390E00895E6
:10180000972F7A30B8F46730A8F48830B0F470E0DD
:1018100027E0929F600D711D1124FB0196E4899FC2
:10182000E00DF11D1124EE0FFF1FE455FF4F8591D0
:101830009491089580E090E0089581E0FCCF1F939B
:10184000CF93DF930E945E0BEC01C11580E5D807B2
:10185000F0F5C11580E4D80708F09CC0C03ED10562
:1018600020F5CD3CD10508F082C0C83AD10578F406
:10187000C53AD10508F073C0C130D10519F12097E0
:1018800009F1C430D105F0F4D0E0C0E01BC0C33C86
:10189000D105D0F7C85AD0E0CC0FDD1FCC59DD4FB1
:1018A0000990D881C02DD4640DC0C11580E2D8073D
:1018B00008F0D1C0C11581E0D80708F05AC0C83E71
:1018C000D10510F7CE01DF91CF911F910895C03659
:1018D00082E5D80718F5C03482E5D80708F06BC058
:1018E000C03282E5D80708F05FC0C11582E5D8078D
:1018F00008F497C02C2F2695269580E2289F90010A
:1019000011248C2F8370C1E0D0E002C0CC0FDD1F0A
:101910008A95E2F7C22BD32BDD68D4CFC03A82E59B
:10192000D80760F4C03882E5D80708F459C0CF71F1
:10193000D0E0DC2FCC27C46FD06AC4CFC03C82E596
:10194000D80708F462C0C03E82E5D80708F09CCFF3
:10195000DC2FCC27CC27DF71C06FD06AB3CFC55A3C
:10196000D0E0CF59DD4FC881D0E0D064ABCFD06597
:10197000A9CF8D2F0E940F0B182FCE0199270E94FF
:101980005E0BC12FD0E0DC2FCC27CC27DF71C82B1A
:10199000D92B98CFCE0199270E945E0BCC27DF7000
:1019A000C82BD92BD06A8ECFCF71D0E0DC2FCC27BB
:1019B000C16FD06A87CF2C2F26952695277080E29D
:1019C000289F900111248C2F8370C1E0D0E002C0C9
:1019D000CC0FDD1F8A95E2F7C22BD32BDC6872CFC8
:1019E0002C2F26952695277080E2289F90011124A0
:1019F0008C2F8370C1E0D0E002C0CC0FDD1F8A9530
:101A0000E2F7C22BD32BDA685DCF8C2F8F710E9447
:101A10000F0BC82FD0E0DC2FCC27CC27DF71D06292
:101A200051CF8C2F8F710E940F0B55E0D695C79523
:101A30005A95E1F7CF70D0E0DC2FCC27282F30E08B
:101A400084FF05C044E0220F331F4A95E1F7C22B03
:101A5000D32BD06937CF8D2F8F710E940F0B182F8A
:101A6000CE0199270E945E0BC12FD0E0DC2FCC273E
:101A7000CC27DF71C82BD92BD2CF809590915803FA
:101A800098239093580308958091580390912F03C1
:101A9000982B80912E03882391F0982B80916001E0
:101AA0008823A9F08091660487FF11C08EE120EEA3
:101AB00032E040E0815078F4411110922E03809181
:101AC0004A048095892390914B04892B089586E0E0
:101AD00028ED32E0EECFF90151919F01552351F3EA
:101AE0004F5FE8CF8091BD0490918404981301C0AA
:101AF00008958F5F8770FACFB0E0A0E0E2E8FDE0E4
:101B00000C94DE2B7C0100919E0310919F03809129
:101B10009C0390919D03082B192BCFE0D0E0CC249F
:101B2000C394D12CBC2EC6010C2E02C0880F991F65
:101B30000A94E2F780239123892B49F4219790F7A7
:101B4000B12C8B2DCDB7DEB7E9E00C94FA2BB701A1
:101B50008C2F0E94000C0E941F0C019779F3F1CF8B
:101B6000CF93DF93EC010E947C0DBE010E94000C1C
:101B70000E941F0CDF91CF9108959A3078F587303D
:101B800068F5E82FF0E087E0989FE00DF11D112443
:101B90009E2F977083E0F695E7958A95E1F7EE0F13
:101BA000FF1FEE0FFF1FEE5FFC4F50E040E080E0B4
:101BB000219130E0092E02C0369527950A94E2F76C
:101BC00021703327042E01C0220F0A94EAF7822BDA
:101BD0004F5F5F4F4430510559F7089580E00895F5
:101BE0009A3098F5873088F5E82FF0E087E0989FE5
:101BF000E00DF11D11248E2F877041E001C0440FCC
:101C00008A95EAF783E0F695E7958A95E1F7EE0F76
:101C1000FF1FEE0FFF1FEE5FFC4F30E020E070E093
:101C20005191DF011197CB01022E02C09695879545
:101C30000A94E2F7817081958527842385278C9308
:101C40002F5F3F4F2430310559F7089590939F033C
:101C500080939E03089521E030E002C0220F331FDD
:101C60008A95E2F72095309580919E0390919F038D
:101C7000822393230E94260E089590912D03809530
:101C8000892380932D03282F277069F4891759F031
:101C90009091670492FF07C08695869586950E946D
:101CA0002B0E10922D03089521E030E002C0220F88
:101CB000331F8A95E2F780919E0390919F03822BB8
:101CC000932B0E94260E089590939D0380939C036E
:101CD0000895FC0124812223C1F0808191810E941A
:101CE000B00D92959F70963091F058F4925F9F706E
:101CF000923058F4803F19F030F4883E30F481E09F
:101D000008959A5FF4CF843FD1F380E00895883E30
:101D1000B0F3813FD1F7F3CF40915A0490915C0426
:101D200020915D04662309F469C0942B922B2091C5
:101D30005B04922B31F098E09093510491E09093E2
:101D400052048D3C41F40E942707819580935B04E7
:101D50000E94DE0608958E3C19F40E942707F6CFF4
:101D60008F3C31F40E942707819580935A04F0CF6D
:101D7000803D19F40E942707F8CF893D29F40E947D
:101D8000050780935C04E4CF8A3D21F40E94050797
:101D90008195F7CF8B3D31F40E94050781958093A3
:101DA0005D04D6CF8C3D19F40E940507F8CF9FE261
:101DB000980F983070F4815D990B21E030E001C0FC
:101DC000220F8A95EAF780915904822B8093590457
:101DD000BFCF8D3D31F480915304816080935304D3
:101DE000B7CF8E3D21F4809153048260F7CF8F3DB1
:101DF00009F0AECF809153048460F0CF8D3C59F44C
:101E000080915B0487FF0DC010925B0441110BC0F1
:101E10001092510408C08E3C81F480915B04181626
:101E20009CF3442381F080915C0490915D04892BA4
:101E300009F08ECF109252048BCF8F3C49F447FFAC
:101E4000F0CF10925A0480915B048111ECCFE0CF67
:101E5000803D19F41416ACF3E4CF893D29F419162A
:101E600004F710925C04DDCF8A3D19F497FFD9CFB7
:101E7000F8CF8B3D29F427FFD4CF10925D04D1CF4A
:101E80008C3D19F41216CCF3CCCF9FE2980F98300A
:101E900090F4815D990B21E030E0B90102C0660F3A
:101EA000771F8A95E2F7CB01809590915904892399
:101EB00080935904B6CF8D3D31F4809153048E7FC9
:101EC00080935304AECF8E3D21F4809153048D7FD7
:101ED000F7CF8F3D09F0A5CF809153048B7FF0CFD2
:101EE000A6E0B0E0E6E7FFE00C94E42B49835A83D8
:101EF00049815A819923A1F0222391F0CA010E94BD
:101F00007C0D182F682F89819A810E94F00D6981BC
:101F10007A81812F0E94000C2696E3E00C94002C1D
:101F2000CA010E94BD0D182FF2CF9C013A952115D0
:101F30003F4150F5FC01EE27F170BC01662772703D
:101F4000AC01442754709C012227387094FF0EC0C6
:101F500080E1EF2B09F480E0672B09F08062452BCC
:101F600009F08064232B89F08068089581E0EF2BCD
:101F700009F480E0672B09F08260452B09F084604A
:101F8000232B19F08860089580E008950F931F9324
:101F9000CF93DF938B01EA0190917A04943061F53D
:101FA0008093E9008FEF9091E800815095FD06C085
:101FB00095ED9A95F1F700008111F5CF8091E80039
:101FC00085FF1AC00E94BF04811111C08091E800F2
:101FD00085FD06C08091E8008E778093E800F2CFFF
:101FE000F80181918F018093F100219779F7809119
:101FF000E8008E778093E800DF91CF911F910F91D9
:10200000089543E050E0BC0182E00E94C60F0895AD
:1020100046E050E0BC0182E00E94C60F089540E215
:1020200050E0BC0182E00E94C60F0895CF93DF9379
:10203000EC0148E050E0BC0181E00E94C60F88E05E
:10204000FE01A0E7B4E001900D928A95E1F7DF91DF
:10205000CF910895539A4BB1477F5BB15860EFB76A
:10206000F8949B01220F331F260F371F280F391FAB
:102070002817390741F4EFBF8FE594E00197F1F796
:1020800000C000000895DC016D91CD0178E05BB9DE
:10209000000000C067FF4BB9660F000000C000C021
:1020A00000C04BB900C07A9591F7E2CFB0E0A0E054
:1020B000ECE5F0E10C94DD2B7C015B016A01809181
:1020C0008B0301E010E08A3010F40AE010E0C1E078
:1020D000D0E0B501C701F6010995811104C0219630
:1020E0000C171D072CF4CDB7DEB7EAE00C94F92BE2
:1020F000CC9F9001CD9F300D300D112490E080E0F9
:1021000045E34A95F1F70000019682179307C1F75E
:10211000E0CFB0E0A0E0EFE8F0E10C94D72BFC01B9
:102120006280448081E08483E6E2F6E07490E5EA30
:10213000F6E0E491009139040695015810E0000F93
:10214000111F012F1127C0EFD3E026ECC22E23E090
:10215000D22E36E3832E34E0932EAA24AA94B12CF7
:1021600055245A94E719EE2EF12C82E0861530F0B2
:10217000809137048883809138048983411016C088
:102180001B821A8296014A81698188810E9409080E
:10219000259683E0C80ED11C8C169D0631F70E944F
:1021A000D407CDB7DEB7E0E10C94F32B8B81882305
:1021B000E9F081508B83859DC00111246C8170E012
:1021C0000E94262CFB01FF27EA5DF94F8491E82F3E
:1021D000E719E59DC0011124B7010E94262C8091CA
:1021E0003904689FB00111247A83CCCF0E94E52C7A
:1021F000B5010E943A2C8017910724F682E08615DB
:1022000088F40E94E52CB5010E943A2C88830E9434
:10221000E52C209138042695622F70E00E943A2C1C
:10222000280F29831A8280913904893C20F088EC98
:102230008C838B83A7CF8431D8F784E1F9CF609169
:1022400036046695669570E04BE050E082E591E0DB
:102250000E94F52C892B19F481E08093C1030E9420
:10226000040B9093BB038093BA038091C2038460F4
:102270008093C2030895B0E0A0E0E1E4F1E10C94A2
:10228000DB2B49015A016B017C010E94FA07840192
:10229000A4016A2D7B2D88E090E00E944E2D9401D0
:1022A0004A2D5B2DB601C70100E20E947E2C622FF1
:1022B00084E290E00E943C2DCDB7DEB7ECE00C94B8
:1022C000F72BA3E0B0E0E7E6F1E10C94D62BF82E73
:1022D000562EE42E422E9091360490FF42C020915B
:1022E0003704281308C080913804861304C08091F5
:1022F0003904841729F08091C20382608093C2035D
:10230000E92FE695E695AE2FB0E0A855BD4F8C912C
:102310008093C0039C7F943041F59E012F5F3F4F17
:102320004E2D652D8F2D0E9409084B8169818A8170
:102330000E94E907F092370450923804E092390481
:10234000442079F02091360460913A0470913B0466
:102350003F2D452D5E2D80913C0490913D040E94BF
:102360003B112396E1E10C94F22B823019F4E090BA
:102370003904E0CF8630B1F18930A1F18931D1F64D
:10238000E9518E2F8170382EE695F0E0EF5DF94F20
:10239000E4910E2F10E086ECC82E83E0D82E90EF4B
:1023A000892E93E0992EB12CA12C2EE0622E712C57
:1023B000C501B3010E94262C8F2D311011C0860F4C
:1023C00096014E2D652D0E940908A00EB11E83E0D6
:1023D000C80ED11C8C149D0459F70E94D407AACFB3
:1023E000861BEECFF22EA6CFE6E3F4E0438128E091
:1023F000421B08F440E021E0628181810E9461116A
:102400000895E6E3F4E0438128E0420F08F44FEF3B
:1024100021E0628181810E9461110895E6E3F4E088
:10242000628128E0621B08F460E021E04381818141
:102430000E9461110895E6E3F4E0628128E0620FF2
:1024400008F46FEF21E0438181810E9461110895BA
:10245000E6E3F4E0818121E04381628188500E94BB
:1024600061110895E6E3F4E0818121E04381628116
:10247000885F0E946111089580913A04882319F0C1
:10248000815080933A042091360430913704409172
:1024900038045091390460913A0470913B04809162
:1024A0003C0490913D040E943B11089580913A04B0
:1024B000833018F48F5F80933A0420913604309172
:1024C0003704409138045091390460913A04709176
:1024D0003B0480913C0490913D040E943B1108957F
:1024E0009091360490FF3AC09370811138C0946087
:1024F000909336048091C20381608093C203662367
:1025000091F0209136043091370440913804509175
:10251000390460913A0470913B0480913C0490919D
:102520003D040E943B11609136046695669570E00B
:102530004BE050E082E591E00E94F52C892BB9F048
:102540000E94CD0781E08093BD0320E040913904D3
:1025500060913804809137040E94611108958B3294
:1025600010F0986AC5CF880F880F982BC1CF0E94B2
:102570001F11E8CF8091360486958695815009F425
:102580008AE261E00E947012089580913604869577
:1025900086958F5F8B3208F081E061E00E947012B7
:1025A00008959091360490FF09C0969596959817D6
:1025B00028F0961718F40E94C512089561E00E9451
:1025C000701208959091670492FB222720F9281732
:1025D00079F080FB92F990936704609166047091A2
:1025E000670484E090E00E945A2D82E00E943D0E34
:1025F0000895A4E0B0E0EFEFF2E10C94E42B4091F9
:102600006E0350916F0360917003709171032FB747
:10261000F8948091690490916A04A0916B04B09140
:102620006C042FBF841B950BA60BB70B11E08436EF
:102630009105A105B10570F10E94EA0A6E5F7F4F16
:102640008F4F9F4F69837A838B839C83809138015E
:10265000909139018E589C4F4091370150E04530A0
:10266000510510F044E050E0BE016F5F7F4F0E94C3
:102670000F2D82E090E00E945F2B182F882351F0ED
:102680000E940C0660936E0370936F038093700337
:1026900090937103812F2496E3E00C94002CABE01F
:1026A000B0E0E5E5F3E10C94E52B88E0E6E3F4E047
:1026B000DE01119601900D928A95E1F78091C00399
:1026C0009091C103A091C20389879A87AB872B851C
:1026D00040918703509188036091890370918A0328
:1026E0003FB7F8948091690490916A04A0916B04BB
:1026F000B0916C043FBF841B950BA60BB70B8436BF
:102700009105A105B10510F4222319F18091400132
:10271000909141018E589C4F40913F0150E04C30C8
:10272000510510F04BE050E0BE016F5F7F4F0E94FB
:102730000F2D83E090E00E945F2B882369F00E94B8
:102740000C066093870370938803809389039093AA
:102750008A031092C20381E02B96E2E00C94012CD4
:10276000EF92FF921F93CF93DF9300D000D000D061
:10277000CDB7DEB77B0190E080E00E945F2B182F81
:10278000882309F480C040912A0150E04115510589
:1027900011F041E050E060912B0170912C016E58D6
:1027A0007C4FCE0106960E940F2D40916A035091F6
:1027B0006B0360916C0370916D032FB7F894809157
:1027C000690490916A04A0916B04B0916C042FBFCE
:1027D000841B950BA60BB70B84369105A105B1059B
:1027E00040F483E793E00E9489049E81891709F4ED
:1027F0004AC081E090E00E945F2B811116C010E07A
:1028000085E0E5E6F3E0D70101900D928A95E1F7C6
:10281000812F26960FB6F894DEBF0FBECDBFDF9195
:10282000CF911F91FF90EF9008954091320150E0B9
:102830004630510510F045E050E060913301709151
:1028400034016E587C4FCE0101960E940F2D83E714
:1028500093E00E9489049E818913D1CF0E940C06C7
:1028600060936A0370936B0380936C0390936D0382
:1028700085E0FE013196A5E6B3E001900D928A95C0
:10288000E1F711E0BDCF85E0E3E7F3E0DE0111966B
:1028900001900D928A95E1F71111EACFB1CFA5E130
:1028A000B0E0E5E5F4E10C94DA2B8E01045F1F4FF4
:1028B0008AE0F80111928A95E9F78CE9C82E82E046
:1028C000D82EF12CE12CAA24A394B12C28EA822E34
:1028D00022E0922EF60181916F018F3F09F442C0F0
:1028E000F894E82FE295EF70F0E021A18F70A50138
:1028F00002C0440F551F8A95E2F7CA01922F982B08
:1029000091A392A18095892382A3789400C0E1EAE3
:10291000F2E0712C31E021912F3F09F493C0A22FF6
:10292000A295AF70B0E090968C9190E02F7002C0AD
:10293000959587952A95E2F780FD84C0832F782AA4
:10294000330F8E169F0639F7F601319780818F3F3E
:1029500011F00E94D30A50EA5A95F1F7F801EE0DF2
:10296000FF1D70828FEFE81AF80A95E0E916F1046E
:1029700009F0B0CF4AE050E0B80180E993E00E944E
:10298000022D009741F02AE0F801A0E9B3E00190A0
:102990000D922A95E1F700919B0310E00F551C4F13
:1029A000892B09F451C081E080935D030E941806D1
:1029B00090935C0380935B03D12CC0905E04FE0176
:1029C00031967F0185E0CC2009F494C011928A955C
:1029D000E9F780918B038A3008F05AC040EB53E14D
:1029E000B701C8010E945610882309F472C049EF4C
:1029F00052E1B701C8010E945610882309F469C04A
:102A00004FE453E1B701C8010E945610882309F42E
:102A100060C010928B0380919A0390E045E050E0F3
:102A2000B7018F559C4F0E94022D21E02093640333
:102A3000892B09F042C0C12C8C2D8D296596EDE0C3
:102A40000C94F62B80E07BCFD0905D03DD2009F461
:102A5000B3CF80915B0390915C030E94FD050597C5
:102A600008F4AACF45E050E060E973E0C8010E9495
:102A7000022D892B59F085E0E0E9F3E0D8010190BF
:102A80000D928A95E1F710925D0397CFD12CFBCF81
:102A900080915E0390915F030E94FD05843F914009
:102AA00008F09CCF80916403882329F285E0F70128
:102AB00011928A95E9F710926403A0919A03B0E00D
:102AC000AF55BC4F85E0F70101900D928A95E1F773
:102AD000B3CF80918B038F3F31F08F5F80938B0357
:102AE0008A3008F498CF0E94180690935F03809371
:102AF0005E03D8CFF801A3E7B3E001900D928A9569
:102B0000E1F783E793E00E94890480937203809049
:102B1000780390907903A0907A03B0907B03809122
:102B2000600390916103A0916203B09163038816E2
:102B30009906AA06BB06B1F08092600390926103E9
:102B4000A0926203B09263030E940C06861A970A51
:102B5000A80AB90A80928C0390928D03A0928E03EA
:102B6000B0928F038BE0ECE7F3E0D70101900D9278
:102B70008A95E1F780917C0386958695F0907D0398
:102B8000E0907E03B0907F0300918503109186034F
:102B900010928603112309F44FCF10FF0BC0298137
:102BA0009091360420FF1AC091609093360460E043
:102BB0000E94701211FF06C020E04B2D6E2D8F2D4C
:102BC0000E94611112FF04C00023A9F00E941F118E
:102BD00013FF32CF81E08093BD032ECF9E7F909371
:102BE00036040E94CD078091C20381608093C203A6
:102BF0000E94D407DFCF0E94CD07EACF8091600109
:102C0000882359F18091660487FF27C00E94440DF4
:102C10008093DF0240E250E060E373E08EED92E0EB
:102C20000E94022D892BC1F080E2EEEDF2E0A0E3DC
:102C3000B3E001900D928A95E1F7E0916204F09182
:102C40006304309749F086E08093DE020480F581CA
:102C5000E02D8EED92E0099508950E94440D809339
:102C6000D60248E050E060E573E086ED92E00E9415
:102C7000022D892B89F388E0E6EDF2E0A0E5B3E0D0
:102C800001900D928A95E1F7E0916204F09163045E
:102C9000309711F30280F381E02D86ED92E0DBCFD7
:102CA0001092580380916001882339F18091660465
:102CB00087FF23C0E0EEF2E08EE1DF011D928A95EE
:102CC000E9F790E080E00E94A80690E080E00E9492
:102CD000830610922F030E94FE1586E0E8E5F4E0DB
:102CE000DF011D928A95E9F7109251041092520467
:102CF000109253040E94DE060895E8EDF2E086E0AB
:102D0000DCCFAAE2B0E0E7E8F6E10C94E42B8CE734
:102D100094E02091F100FC012193CF01F4E084388C
:102D20009F07B9F780917D04833009F470C0B8F42F
:102D3000813009F447C0823009F4B1C08091E800C5
:102D400083FF7EC280917C0490917D049A3008F0CC
:102D500077C2E92FF0E0EB52F24D0C944E2C8A3002
:102D600009F48CC08B3009F46FC0893039F7809139
:102D70007C04813219F7809180049091810402973C
:102D8000E8F68091E800877F8093E8008091E80072
:102D900082FF38C09091F3008091F200029731F4E5
:102DA0008091F100813011F0863021F48091F100A2
:102DB00080936F048091E8008B778093E8000E94F5
:102DC000F004BCCF80917C04813A09F0B7CF8091A8
:102DD000E800877F8093E8008091800490918104CF
:102DE000892B61F468E080E794E070E00E949C0524
:102DF0008091E8008B778093E800A0CF60E090E0BE
:102E000080E0F3CF80917A048111C0CF97CF809179
:102E10007C04813A09F092CF8091800490918104E2
:102E2000892B09F08BCF8091E800877F8093E800A1
:102E30008091E80080FFFCCF809160018093F100D9
:102E40008091E8008E77B9CF80917C04813209F0BF
:102E500075CF8091800490918104892B09F06ECF09
:102E60008091E800877F8093E8000E94F0048091C1
:102E70007E04809360010E94501660CF80917C0494
:102E8000813209F05BCF8091E800877F8093E80072
:102E90000E94F00480917F0480936E044FCF809154
:102EA0007C04813A09F04ACF8091E800877F8093C3
:102EB000E8008091E80080FFFCCF80916E04BECFD7
:102EC000803899F0823809F0BBC1809180048F70FE
:102ED000873008F0B5C18093E9008091EB0085FB55
:102EE000882780F91092E90006C0809178049091BB
:102EF0007904911182609091E800977F9093E800A7
:102F00008093F1001092F1008091E8008E7794C1D7
:102F1000882309F482C1823009F092C180917E0435
:102F2000811185C1809180048F702FEF280F26308A
:102F300008F086C18093E9002091EB0020FF77C163
:102F4000933031F48091EB0080628093EB006FC18D
:102F50009091EB0090619093EB0021E030E001C094
:102F6000220F8A95EAF72093EA001092EA008091F6
:102F7000EB008860EACF811163C110917E041F7756
:102F80008091E3008078812B8093E3008091E800BA
:102F9000877F8093E8000E94F0048091E80080FF22
:102FA000FCCF8091E30080688093E30082E0111100
:102FB00083E080937A0444C18058823008F040C195
:102FC00080917E0490917F048C3D23E09207A1F5CF
:102FD00083E08A838AE289834FB7F894DE011396EF
:102FE00020E03EE051E2E32FF0E050935700E491FF
:102FF00020FF03C0E295EF703F5FEF708E2F90E0EF
:10300000EA30C0F0C7968D939D932F5F243159F716
:103010004FBF8091E800877F8093E8006AE270E00C
:10302000CE0101960E949C058091E8008B778093E9
:10303000E80006C1C096E7CF40918004509181041A
:10304000292F33272330310509F444C078F5213086
:10305000310509F46FC08BE390E0E0E2F8E0223044
:10306000310509F0EDC02091E800277F2093E800AA
:1030700020918204309183048217930708F49C0105
:1030800040E02115310509F064C0411162C0809112
:10309000E80082FDC9CF80917A04882329F2853027
:1030A00019F28091E80083FFF2CFBECF21323105C3
:1030B000A9F12232310509F0C3C04115510509F4C7
:1030C00043C04130510509F0BBC086EB90E0E6E219
:1030D000F7E0C9CF992781309105C1F0009759F0E9
:1030E000029709F0ADC0EDE6F8E0E4918E2F90E094
:1030F000EDE6F8E007C0E1E9F8E0E4918E2F90E01A
:10310000E1E9F8E0009709F49BC0ADCFEBE7F8E008
:10311000E4918E2F90E0EBE7F8E0F4CF41155105F4
:1031200071F04130510509F08BC089E090E0EBE48B
:10313000F8E099CF82E190E0EBE5F8E094CF89E008
:1031400090E0E2E3F8E08FCF84E490E0ECEDF7E08C
:103150008ACF80917A04882309F466CF853009F4F8
:1031600063CF8091E80083FD5FCF8091E80082FD0E
:103170008ECF8091E80080FF84CF9091F300809102
:10318000F2002115310519F08830910550F041E029
:10319000089709F040E08091E8008E778093E8007E
:1031A00070CF44914093F10031962150310901963E
:1031B000E8CF803809F044C08091E800877F809391
:1031C000E80080917B048093F1009ECE811138C08D
:1031D00010917E041230A0F58091E800877F8093E3
:1031E000E80010937B040E94F004112311F084E0A6
:1031F00005C08091E30087FDFACF81E080937A04D7
:1032000042E061EC81E00E940F0542E261EC82E065
:103210000E940F0580917A0413C080917E04813052
:1032200079F481E0933009F080E080937904109282
:10323000E9008091E800877F8093E8000E94F00415
:103240008091E80083FF0AC08091E800877F809327
:10325000E8008091EB0080628093EB00AA96E3E0A7
:103260000C94002C0E9450162FEF84E39CE0215018
:1032700080409040E1F700C0000088E19AE00FB67E
:10328000F894A895809360000FBE90936000FFCFE4
:10329000882339F090912F03982B90932F030E944D
:1032A000FE150895882321F00E943D0D0E94FE1511
:1032B0000895882339F090915803982B90935803E0
:1032C0000E94FE150895882309F456C0823879F4C7
:1032D0000E94CD0681FF50C089E30E944F060E94E4
:1032E000FE1589E30E9424060E94FE150895833886
:1032F00059F40E94CD0680FF3FC083E50E944F062F
:103300000E94FE1583E5EECF843859F40E94CD0665
:1033100082FF32C087E40E944F060E94FE1587E4B8
:10332000E1CF9CEF980F913AE8F290E2980F983035
:1033300050F4877091E001C0990F8A95EAF7892FC0
:103340000E943D0DD1CF9BE5980F933028F490E07B
:1033500080E00E94A806089598E5980F9B3128F414
:1033600090E080E00E948306089593E3980F9331E4
:1033700018F460E00E948C0E0895FF920F931F9343
:10338000CF93DF93F82E00914F0410915004011554
:10339000110509F449C010924E0410924D04109288
:1033A0004A0410924B04D8011796CD91DC919E01EE
:1033B0003A9521153F4108F4D07ED1E0C11101C0FA
:1033C000D0E0D8011A96ED91FC911B97309731F01F
:1033D0001C966D917C9180E00995D823DD2339F00E
:1033E0008CEF8C0F813A30F58C2F0E942406FF2041
:1033F00099F0E0914F04F0915004818584FD0CC058
:1034000080914C04882341F0808191819C0121505E
:1034100031092F333E47A0F00E94FE151092500450
:1034200010924F0410924C04C801CDB7DEB7E5E00E
:103430000C94FE2B0E94FE158C2F0E946319D7CF8F
:103440000E945507E9CFCF93C82F8823C9F082384F
:10345000C9F40E94CD0681FD13C089E30E944F0686
:103460000E94FE152FEF87EE93E0215080409040A0
:10347000E1F700C0000089E30E9424060E94FE15C7
:10348000CF9108958338A1F40E94CD0680FDF8CF36
:1034900083E50E944F060E94FE152FEF81EE94E017
:1034A000215080409040E1F700C0000083E5E4CF68
:1034B0008438A1F40E94CD0682FDE2CF87E40E9409
:1034C0004F060E94FE152FEF81EE94E021508040C0
:1034D0009040E1F700C0000087E4CECF8CEF8C0F66
:1034E000813A88F580916001882301F1809166041A
:1034F00087FF1CC0EC2FE695E695E695F0E0E252DA
:10350000FD4F828190E04C2F477021E030E002C0F7
:10351000220F331F4A95E2F782239323892B79F0F8
:103520008C2F0E9424060E94FE1509C0E8EDF2E0EF
:103530008191C817A9F322E0EE3DF207C9F78C2F5D
:103540000E944F069BCF80E28C0F883068F4C770D2
:1035500021E030E001C0220FCA95EAF780915803BC
:10356000822B809358038ACFEBE5EC0FE33040F4D5
:10357000F0E0EF59FD4F808190E00E94A80680CFD7
:10358000E8E5EC0FEB3150F4F0E0EE0FFF1FEC59E3
:10359000FD4F808191810E94830672CF83E38C0F5F
:1035A000833108F06DCF61E08C2F0E948C0E68CFC4
:1035B0000F931F93CF93DF93C62FD42F022FFC01BD
:1035C00085818823A9F06093C0040E941806909317
:1035D000BF048093BE04C77081E001C0880FCA9504
:1035E000EAF70E945919DF91CF911F910F91089529
:1035F0008091C004681335C08091BE049091BF04CF
:103600000E94FD058F3A910560F510E21D0FCD1760
:10361000B9F080E28C0F883040F4C77081E001C0BF
:10362000880FCA95EAF70E945219183048F481E0D1
:103630009D2F977001C0880F9A95EAF70E9459193B
:10364000802F0E94231A802F0E946319183058F689
:10365000D77081E001C0880FDA95EAF70E9452190D
:10366000C2CFC77081E001C0880FCA95EAF7F6CFD4
:10367000A3E0B0E0EEE3FBE10C94D52B8C01DC0180
:1036800014968C9114978823E9F121E04C911196BE
:103690005C91119712966C91129713967C911397E7
:1036A00015969C910E94700F9B838A83F801358048
:1036B000332061F18E35FCE79F0789F08F352CE7C9
:1036C000920739F08D359C4709F5809126018823B2
:1036D00031F01092260180E00E94BD1903C081E004
:1036E0008093260180912D03877061F0D801159693
:1036F0008C91882339F08091670482FF03C082E0B7
:103700000E943D0E2396E2E10C94F12B809126015C
:10371000882309F40FC58A809B8040EE841A9108A3
:1037200020902E0380910103282A80915803282A93
:1037300058E08516910408F088C02A813B812770E3
:10374000332781E090E001C0880F2A95EAF7332003
:1037500009F478C0282AD8018D919C910E94BD0D52
:1037600021E030E0290102C0440C551C8A95E2F7A3
:1037700060904F0470905004A090FE02B090FF0241
:103780001982B981EB2FF0E0EE0FFF1FEC5FFE4FC7
:10379000E080F180E114F10409F4F0C4211004C0C8
:1037A000F701828181118DC0D70113968D919C9173
:1037B000149784219521892B09F483C019968C9143
:1037C000982F977009F487E0B8E08B16910408F001
:1037D00058C0332009F451C086958170882309F4BC
:1037E00070C0F701C080D1802A813B812C153D0536
:1037F00019F4332009F465C0E614F70409F461C034
:10380000D7011E96ED91FC91309721F0808188239D
:1038100009F457C0622DC7010E94A607882309F446
:1038200050C0EA81FB81EC15FD0509F0FBC4EF2BCC
:1038300009F4FDC43110FDC4CA14DB0409F041C011
:10384000312CF7C48095282286CF332009F47DC41B
:103850008A819B819093FF028093FE020E940C0656
:1038600060934604709347048093480490934904FE
:1038700010924E0410924D046ECF82FB882780F97F
:10388000ADCF3320F1F08170A9CF0E946319EFC44E
:103890000497813A910548F48C2D0E944F063320FD
:1038A00009F448C40E94FE151DCF0E94FE158FE347
:1038B0009CE90197F1F700C000008C2D0E94231AAB
:1038C000EECF99819F5F99835CCFFC01208131818C
:1038D0004A815B814217530709F025C4311025C482
:1038E00010924C0480E00E94BD1924C426E241EEEF
:1038F00061EEC8010E94D81AF5CE27E245EE65EECA
:10390000F8CF26E241EE60EEF4CF27E245EE64EE1A
:10391000F0CF26E241EE62EEECCF27E245EE66EE16
:10392000E8CF28E241E0EBCF80916604816080938C
:10393000660495C0809167048860809367048FC097
:10394000809166048260F3CF809166048460EFCF3B
:10395000809166048860EBCF809167048160EDCF31
:10396000809167048260E9CF809166048061DFCF37
:10397000809166048062DBCF809166048064D7CF3B
:103980000E945016809166048068D1CF80916604B1
:103990008C60CDCF809167048360CFCF8091660427
:1039A0008E7FC5CF80916704877FC7CF80916604E3
:1039B0008D7FBDCF809166048B7FB9CF80916604E7
:1039C000877FB5CF809167048E7FB7CF80916704E2
:1039D0008D7FB3CF809166048F7EA9CF80916604DE
:1039E0008F7DA5CF809166048F7BA1CF0E9450165A
:1039F000809166048F779BCF80916604837F97CFF9
:103A0000809167048C7F99CF8091660482FB99270F
:103A100090F921E0922790FB82F990FB83F987CF00
:103A200080916704982F909591708E7F892B90FBE1
:103A300081F983CF90916604892F8F7B96FF8064F4
:103A400076CF0E94501690916604892F97FB87F9D4
:103A500080586DCF61E08EE090E00E943C2D609137
:103A600066047091670484E090E00E945A2D0E94E1
:103A7000501638CE60E0EFCF90916604892F8F7E8C
:103A800094FF806154CF90916604892F8E7F90FFC0
:103A900081604DCF90916704892F877F93FF886065
:103AA0004CCF85E3AEC385E3BAC38091360480FF73
:103AB0001EC0282F2E7F209336043091370440916A
:103AC00038045091390460913A0470913B0480911C
:103AD0003C0490913D040E943B110E94CD078091CF
:103AE000C20381608093C2030E94D407FBCD816032
:103AF0008093360461E0869586950E947012F2CD1F
:103B00004AEB52E165EC72E10E94C607EBCD45EC51
:103B100052E16AEB72E1F8CF48E252E162E372E10E
:103B2000F3CF42E352E168E272E1EECF4EE052E1C0
:103B30006BE172E1E9CF4BE152E16EE072E1E4CF7B
:103B400044EF51E161E072E1DFCF41E052E164EF27
:103B500071E1DACF4CE352E166E572E1D5CF46E59B
:103B600052E16CE372E1D0CF61E081E0C6CF65E065
:103B700082E00E94D112B6CD68E086E0FACF6EE016
:103B800089E0F7CF64E18FE0F4CF67E185E1F1CF21
:103B900061E088E1B2CF62E289E1EBCF61E083E2EC
:103BA000ACCF6AE285E2E5CF0E945016FFEF24E336
:103BB0003CE0F15020403040E1F700C0000087E7D2
:103BC00097E7909301088093000888E19AE00FB688
:103BD000F894A895809360000FBE90936000FFCF8B
:103BE0006FEF7FEF90E080E00E945A2D0E94321923
:103BF0008091670482FB882780F991E089270E94E1
:103C0000E212F8018581208131813B832A83882358
:103C100009F452C0C9010E947C0DF82E682F8A81D8
:103C20009B810E94F00D6A817B818F2D0E94000C88
:103C30000E941F0C8A839983A82ED8011596CC90D8
:103C400015971696BC90B2943FE0B32280912D0355
:103C5000877009F1EC2CCC20F9F0892F807F80341B
:103C600069F08A2D805E8830B0F0892F807E8032A6
:103C700029F4B1E0BA1578F4BB2069F080916704AB
:103C800082FF09C082E00E943D0E80912D03877063
:103C9000EE24E3948111E12CD980D2942FE0D2223A
:103CA000EBE0ED1508F471C0ED2DF0E0E152F24DBE
:103CB0000C944E2C80E0A3CF8A819B810E94BD0D85
:103CC000F82EB1CFF981FF70FF2E2981207F19F0E6
:103CD000F29490EFF922CC20B9F0FF2069F08A81AC
:103CE000805E883010F0A11009C080915803F82A36
:103CF000F09258030E94FE158A8145C080912F03DF
:103D0000F82AF0922F03F6CF8A810E946319FF20D0
:103D1000E1F13A81305E383010F0A11004C08F2DEF
:103D20000E943D0D06C0F09480912F03F822F0927E
:103D30002F030E94FE1529C049814F70F42E59812E
:103D4000507F503219F0F29480EFF822AA2059F0F7
:103D500061E0A61609F481C0CC2009F48DC0BB2017
:103D600009F44FC0C9CF8091670482FD46C0CC20C2
:103D7000F1F1FF2039F080915803F82AF0925803AE
:103D80000E94FE1580E00E94231AAD2DA850BB0BA7
:103D9000149710F40E94CD06EE20A9F080912D0317
:103DA00080FD11C0F80115828695869586950E9442
:103DB000540EC8010E94381B80912D03869586956C
:103DC00086950E942B0E20E0D8014C9111965C91B3
:103DD000119712966C91129713967C9113971496E3
:103DE0008C91149715969C910E94700F8BCC80E05B
:103DF0000E946319FF2049F292CFCC20A1F0B110AC
:103E000004C08F2D0E945919C0CF81E0B812BDCFD8
:103E100080912E039F2D9823F91609F4B6CFF82A26
:103E2000F0922E03B2CFB110B0CF8F2D0E94521955
:103E300090912E038F2D892329F08F2D8095892332
:103E400080932E03809101039F2D982309F49DCF29
:103E5000F094F822F092010398CFCC2029F095E05D
:103E60009B1508F492CFCDCFA4E0AB1508F48DCF0D
:103E70008F2D0E94521989CFBB20D1F3B9E3AB1229
:103E800009C0EFEFF7EE23E0E150F0402040E1F70A
:103E900000C000008A810E94631977CF89818695CE
:103EA0008695837069F0813009F06FCF8A8199819E
:103EB0009370C11002C080E090E00E94830665CF3D
:103EC0008A8199819370C11002C080E090E00E94C5
:103ED000A8065BCF6C2D8A810E948C0E56CF8981FB
:103EE000837009F042C0C11050CF4A814295469577
:103EF0004770440F440F2A812F7030E0042E02C017
:103F0000220F331F0A94E2F75A8190E080E054FFB9
:103F100009C08FE090E002C0880F991F4A95E2F730
:103F20008095909569816695669563706983623026
:103F300099F078F440919C0350919D03613039F0E1
:103F4000822B932B842395230E94640E1ECF242B57
:103F5000352B822B932BF8CF822B932B20919C0314
:103F600030919D0382279327EFCF8695CC2011F0C7
:103F700089818170882309F408CF4A81429546954A
:103F80004770440F440F2A812F7030E0042E02C086
:103F9000220F331F0A94E2F78A8184FF1EC08FE04C
:103FA00090E002C0880F991F4A95E2F7809590959E
:103FB000A981A695A695A370A983A230B1F090F42B
:103FC00040919E0350919F03A13051F0822B932B7F
:103FD000842395230E94260ED8CE90E080E0E8CF7F
:103FE000242B352B822B932BF5CF822B932B2091D7
:103FF0009E0330919F0382279327ECCFB981BF7036
:10400000B983CC2029F08B2F0E94540E8A81FACEDE
:104010008A810E94521989810E942B0EB6CE8A8114
:10402000E2EFAE16A9F1EA1570F0F0EFAF16D1F09D
:1040300021EFA21691F0CC2009F465C0B1105CCE3E
:1040400089818F7129C033EFA31649F144EFA4127F
:10405000F2CF8091670482FD33C089818F71CC20BB
:10406000D9F21AC0CC2079F054E05B1508F48DCE5B
:1040700069816F71698381E090E002C0880F991FA8
:104080006A95E2F7B4CF85E08B1508F47ECEF0CFC9
:1040900089818F71C110C0CF0E94540E76CE90E0FE
:1040A00080E0CC2009F496CF99819F71998381E0BB
:1040B00090E0098002C0880F991F0A94E2F78ACF26
:1040C000CC20B1F0A981AF71A9838A2F0E94540E30
:1040D0008091670482FF0AC0E981B8E0EB9FC001CC
:1040E0001124836080932D038E2FD6CF8981D4CF66
:1040F00081E00E943D0EF1E0FB1508F046CE82E023
:104100000E943D0E42CEBB2059F0893309F0C2CE49
:104110002FEF37EE43E0215030404040E1F7B8CE7A
:1041200089818F7179CF332029F0DC0119968C9128
:1041300085FFD8CBEA81FB81E851FC47E730F105E8
:1041400080F5E551F24D0C944E2C8091FE02909139
:10415000FF022A813B812817390781F41092FF0260
:104160001092FE02109246041092470410924804E6
:104170001092490410924E0410924D0480914F0405
:10418000909150040097B1F2A8E08A16910408F0CB
:104190009CCB622D0E94A6078111CCCF81E00E94AA
:1041A000BD19F8018581882379F11092C0048A81B4
:1041B0009B8190578397A0F484E090E00E94262D85
:1041C0009093670480936604EA81FB81E150F04795
:1041D000E232F10508F0A8CBEE50F24D0C944E2CD3
:1041E0004A815B8146315C4709F083C08091580366
:1041F0008A7A91E009F490E090930003811151CC08
:1042000089E20E944F064ECB8A819B8186319C4772
:1042100009F060C080910003811145CC89E20E94C1
:10422000240640CBC114D10409F006CB312CD12C8B
:10423000C12C80E00E94BD19F0925004E0924F041E
:1042400081E080934C04F701868180934A04311009
:104250000EC0CD2861F0D7018D919C919C01245016
:104260003109213A310508F010CB0E942406F701EC
:10427000C780D084C6019A9581159F4110F420EE25
:10428000D222BB24B394C60101978F339E4708F016
:10429000B12CD7011A96ED91FC911B97309731F014
:1042A0001C966D917C9181E00995B822BB2079F034
:1042B000F701878190850E94950F80934B04C6017A
:1042C000F8E08F16910408F0E3CA0E9455070E9497
:1042D000FE15E5CA809158038272EA81FB81E052A3
:1042E000F847E531F10508F08CCCEC5EF14D0C940B
:1042F0004E2CEA81FB81E3302CE7F20709F470CC05
:1043000050F4E1154CE7F40709F44ECCE130FC47DA
:1043100009F46CCC76CC8A819B818B35ACE79A070B
:1043200009F4C8CC8C35BCE79B0709F461CC8A350D
:104330009C4709F066CC81E062CCCF93DF938091FB
:104340002C03807F09F04DC080912B03882309F452
:1043500048C0E091BD0450918404C0912703D091DE
:104360002603609128037091290347E05E17C9F185
:104370008E2F90E0E49FF0011124EB57FB4F248136
:10438000222391F1489FF001499FF00D1124DF0194
:10439000AB57BB4F11962C9111972C1325C02C9124
:1043A0002D1322C015962C91159721111DC0129620
:1043B0002D913C91261B370B2F3A3105A8F48091A3
:1043C0002C038F70806180932C03E557FB4F808115
:1043D0008F708061808386E293E00E94381B0E9488
:1043E000720DDF91CF910895FC013196E770BECF39
:1043F000A4E1B0E0EEEFF1E20C94DB2B8C0186E05F
:10440000F801DE011F9601900D928A95E1F7F801FF
:104410008481E58096E2A92E93E0B92E90912A033B
:10442000911128C0882319F1EE20F1F0C8010E94F3
:10443000690EF82E8823C1F087E0F801D5010190BC
:104440000D928A95E1F780912A03813031F48091B1
:104450002603909127030E94B00D0E949D218F2D6D
:104460006496ECE00C94F72BC8010E94381BFF24E3
:10447000F394F5CFD080C18082809380F0902B039D
:104480002091280330912903A401421B530BFF20E4
:1044900009F4D9C04F3A510508F092C08823F9F2C7
:1044A0009091270380912C03282F207F09F056C07C
:1044B000C91214C090912603D91210C0E11048C04F
:1044C0008F70806180932C0386E293E00E94381BFA
:1044D00080912C03F8018683F12CC1CFE11038C004
:1044E0006C2D8D2D0E946A046C2D8D2D0E946A0406
:1044F000E82E8111F1CFDF86C88A8F8598890E94C6
:10450000B00D292F22952F70243058F49F7022303F
:1045100088F0992399F0F8019681907F79F4FE2C28
:104520009ECF2A5F2F70223068F0C8010E94381B8E
:10453000EF2CF5CF992311F0882389F3805E883022
:1045400070F3F3CF803F58F3815F833070F7E7CF8C
:1045500080912C03816080932C03BECFC91207C0C9
:1045600090912603D91203C0EE2009F48DC0C80132
:104570000E94690E882309F477CFEE2009F474CFE6
:1045800080912C03803288F02091260330912703FC
:10459000398728879B868A8690912A039C871D8667
:1045A0008E87CE0108960E94381B87E0F801A6E2AC
:1045B000B3E001900D928A95E1F70E949D2157CFBB
:1045C00090912C03292F207F51F486E293E00E94E2
:1045D000381B87E0F50111928A95E9F77DCF882392
:1045E00009F43DCF809127038C1110C080912603E0
:1045F000D8120CC0E1100AC09683C8010E94381B73
:1046000087E0F50111928A95E9F729CFC8010E9448
:10461000690E882309F428CFEE2009F425CF809174
:104620002C03803210F220912603309127033A8325
:1046300029839C828B8290912A039D831E828F8383
:10464000CE010196B0CF4F3A5105D0F6882309F438
:104650000ECFFE2CEE2009F407CF809127038C119A
:1046600020C080912603D8121CC080912C0380FDAD
:104670000FC0982F907F61F08683903F31F0982F84
:10468000907F905F8F70892B8683C8010E94381BB2
:1046900087E0F801A6E2B3E001900D928A95E1F778
:1046A000DECEC8010E94690E81117FCF80912C035C
:1046B000816080932C03C8010E94381BD0CEABE1EF
:1046C000B0E0E5E6F3E20C94E32B4E8B5F8B688F52
:1046D000798F8A8F9B8F192F911110922F031D8A2A
:1046E00086E0FE017696DE011F9601900D928A9576
:1046F000E1F70A8D002341F021E04F85588969894F
:104700007A89C8010E94700F0B8B1C8B87E0FE0119
:104710003F96DE01189601900D928A95E1F7CE0141
:1047200008960E94F82181110CC087E0FE0138969E
:10473000DE01119601900D928A95E1F78C85811129
:104740000BC017E08091BD0490918404891331C09F
:104750006B96E4E00C94FF2B2091840430E0C901B7
:104760000196877099274091BD044817190699F062
:1047700097E0929FD001939FB00D1124AB57BB4F90
:10478000FE01319601900D929A95E1F78093840491
:104790000E94720DD6CF0E9450161092840410927F
:1047A000BD0487E0E6E2F3E0DF011D928A95E9F7B8
:1047B000C8CF819FC00111248B579B4F0E94F821C5
:1047C000882331F28091BD0490E00196877099278B
:1047D0008093BD04B7CFA6E0B0E0E1EFF3E20C9424
:1047E000E32B0E9418068C018091590390915A0383
:1047F0008017910781F019821A820E941806682F8B
:1048000049815A81792F80E090E00E945F231093C4
:104810005A03009359032696E4E00C94FF2B1F9251
:104820000F920FB60F9211242F933F934F935F93E4
:104830006F937F938F939F93AF93BF93CF93DF93A8
:10484000EF93FF93D091E900DF708091EC00C82FC7
:10485000C17080FDC0E81092E9008091F000877F70
:104860008093F00078940E9481161092E900809164
:10487000F00088608093F000CD2BCF70C093E900EA
:10488000FF91EF91DF91CF91BF91AF919F918F9168
:104890007F916F915F914F913F912F910F900FBE3C
:1048A0000F901F9018951F920F920FB60F92112420
:1048B0002F933F934F935F936F937F938F939F9328
:1048C000AF93BF93EF93FF938091E10082FF09C004
:1048D0008091E20082FF05C08091E1008B7F809390
:1048E000E1008091DA0080FF24C08091D80080FF31
:1048F00020C08091DA008E7F8093DA008091D90009
:1049000080FF9DC080E189BD82E189BD09B400FEC0
:10491000FDCF81E080937A0480916D04811109C0FC
:104920000E94A0040E9441058091E200846080936F
:10493000E2008091E10080FF17C08091E20080FFDB
:1049400013C08091E2008E7F8093E2008091E200AC
:1049500080618093E2008091D80080628093D800CB
:1049600019BC85E080937A048091E10084FF2BC01C
:104970008091E20084FF27C080E189BD82E189BD8A
:1049800089B5982F917080FFFBCF8091D8008F7DE3
:104990008093D8008091E1008F7E8093E100809128
:1049A000E2008F7E8093E2008091E200816080933C
:1049B000E20080917B04882309F447C084E080935F
:1049C0007A0480917A048091E10083FF27C080916E
:1049D000E20083FF23C08091E100877F8093E100A4
:1049E00082E080937A0410927B048091E1008E7FB4
:1049F0008093E1008091E2008E7F8093E2008091BD
:104A0000E20080618093E20042E060E080E00E948A
:104A10000F058091F00088608093F000FF91EF9186
:104A2000BF91AF919F918F917F916F915F914F91C6
:104A30003F912F910F900FBE0F901F90189519BCAA
:104A400010927A0410926D0474CF8091E30087FD78
:104A500093E090937A04B5CF78941F921FB61F927B
:104A600011248F939F93AF93BF938091690490918A
:104A70006A04A0916B04B0916C040196A11DB11D54
:104A80008093690490936A04A0936B04B0936C04C0
:104A9000BF91AF919F918F911F901FBE1F9018954E
:104AA0001F921FB61F9211248F939F93AF93BF93B2
:104AB00080916804811113C08091690490916A0407
:104AC000A0916B04B0916C044196A11DB11D80931F
:104AD000690490936A04A0936B04B0936C04BF9133
:104AE000AF919F918F911F901FBE1F901895CDB7CA
:104AF000DEB72E970FB6F894DEBF0FBECDBF85B7D9
:104B0000806885BF85B7806885BF84B7877F84BF8D
:104B10000FB6F894A895809160008861809360003A
:104B2000109260000FBE80E890E00FB6F89480937A
:104B30006100909361000FBE81ED9AE09093D502E1
:104B40008093D4020E94A0040E9441058091E2005B
:104B500084608093E200789480917A048823A1F0A5
:104B60001091E9001F709091EC00892F817090FDE9
:104B700080E8182B1092E9008091E80083FD0E94E4
:104B800081161F701093E90082E084BD93E095BD0B
:104B90009AEF97BD80936E0010928C0310928D0354
:104BA00010928E0310928F038091D80080618093C1
:104BB000D8002AE12A95F1F700C08091D900182F7A
:104BC000117080FD04C00E94A00410927A0410931A
:104BD0005E0481E0812780935F0480934701111177
:104BE0000E94732A809147018091470195E08111CD
:104BF00090E090939B0385E0891B80939A030CE9D6
:104C000012E0D8018D918D018F3F11F00E94D30ADF
:104C1000B2E0013A1B07A9F701EA12E0F80181911D
:104C20008F018F3F11F00E94D30AF2E0083A1F076C
:104C3000A9F78AE0E1EAF3E0DF01282F1D922A9527
:104C4000E9F7E0E9F3E0DF011D928A95E9F790E0EA
:104C500080E00E94262D863E9E4F09F466C066EED7
:104C60007EEF90E080E00E945A2D60E082E090E0CC
:104C70000E943C2D81E090E090939D0380939C03E3
:104C800061E083E090E00E943C2D60E074E184E00C
:104C900090E00E945A2D60E086E090E00E943C2D5A
:104CA00060E087E090E00E943C2D40E050E0BA01D7
:104CB00088E090E00E944E2D60E084E290E00E9447
:104CC0003C2D60E087E190E00E943C2D60E08CE0AC
:104CD00090E00E943C2D60E08DE090E00E943C2D31
:104CE00019821A821B821C821D821E821F821886D4
:104CF00048E050E068E170E0CE0101960E942C2D62
:104D000040E050E0BA0180E290E00E944E2D40E089
:104D100050E0BA018FE090E00E944E2D40E050E05C
:104D2000BA0183E190E00E944E2D82E090E00E9463
:104D3000182D8093AB0384E090E00E94262D909381
:104D400067048093660483E090E00E94182D90E051
:104D50000E94640E8091A003811183C088E090E0DE
:104D60000E94202D4B015C0184E290E00E94182DEE
:104D7000282F30E040E050E060E070E080E090E01C
:104D800000E20E94632C282939294A295B292093B3
:104D900036043093370440933804509339046093B9
:104DA0003A0470933B0480933C0490933D0430910B
:104DB000C20333603093C2032C7F09F042C025E068
:104DC00020933604109237042FEF20933804209359
:104DD000390410923A0425E030E04FEF5FEF60E0D5
:104DE0000E943B1188E090E00E94202D6B017C0125
:104DF00084E290E00E94182D282F30E040E050E03F
:104E000060E070E080E090E00E94632CB22FA32F5E
:104E1000F42FE52F5B0197018601BC29A12BFE2908
:104E2000E32BB0933604A0933704F0933804E09357
:104E3000390460933A04B0923B0480933C0490930D
:104E40003D040E94FA070E94CD078091360480FF3E
:104E500005C060E0869586950E94701281E080937F
:104E6000A00380915E04811102C00E94762A88E42A
:104E700091E0909363048093620418E1E12EF12C99
:104E800000E4C02EDD24D39480917A0400E112E185
:104E9000853009F480C00E944F14ACEAAA2EA3E02A
:104EA000BA2EB1EA8B2EB3E09B2ED401F50191917D
:104EB0008D9143E0E63BF40709F477C09817B9F306
:104EC00050905E0410E0D4010D914D01F5018191E7
:104ED0005F01801731F1482E4026712C66246394BF
:104EE000842D8621B1F05520A1F079861A870E9481
:104EF00018069C878B87DD8691E0802F862109F438
:104F000090E09E8749855A856B857C858D850E94BA
:104F10005F237394660CF7E07F12E2CFF5013197BF
:104F200000831F5F1A3079F60E94EA0A42C080911E
:104F30007A04843009F1109268040FB6F894A895A9
:104F4000E09260000FBEC092600083B7817F8460F2
:104F500083BF83B7816083BF7894889583B78E7F42
:104F600083BF0FB6F894A895809160008861809304
:104F70006000109260000FBE80917904882359F080
:104F80000E944F14E1EAF3E0819181112FC223E0E6
:104F9000EB3AF207C9F780917A04853009F4C7CF5C
:104FA0000E9450160E94CD0676CF981389CF0E949A
:104FB000EB2380915E04882309F455C080914D0451
:104FC00090914E04892B09F44EC0409142045091B7
:104FD000430460914404709145042FB7F894809184
:104FE000690490916A04A0916B04B0916C042FBF86
:104FF000841B950BA60BB70B40913E0450913F04C8
:10500000609140047091410484179507A607B70783
:1050100050F100914D0410914E04C8010E94950F6B
:105020009801205E31092830310520F00115110565
:1050300009F061C10E945919802F0E94231A109211
:105040004E0410924D0410924204109243041092A8
:1050500044041092450410923E0410923F041092B2
:105060004004109241048091C103882309F464C074
:105070008091C003E0913604E695E695E81BE09345
:10508000BC03823009F03AC1F0E0E35EFA4FE491EC
:105090000E2F10E0F7ECAF2EF8E0BF2E8091BD038D
:1050A000882361F01092BD030E94040B9093BB0310
:1050B0008093BA031092BF031092BE030E94040BA8
:1050C000E091BA03F091BB039C012E1B3F0B2F3FD5
:1050D0003F4790F52091B8032223B1F01092B80316
:1050E0002091B6033091B703821B930B8F3F9F47EC
:1050F00058F4205D3A483093B7032093B60380916B
:10510000C20388608093C2038090BE039090BF0367
:10511000E00FF11FF093BB03E093BA038AEB93E037
:10512000F50109958091BE039091BF03892B21F46D
:10513000892811F0D092B80386E0E8E5F4E0DE01BA
:10514000119601900D928A95E1F790905904009183
:105150005A0410915B04A0905C04B0905D0410921E
:105160005A0410925B0410925C0410925D04812F2B
:10517000802B09F445C080915604909157040E94F9
:10518000FD059C0190915104992309F44FC12531EB
:105190003105B0F19F3F19F09F5F909351040023B8
:1051A00059F00E9427079FEF10160CF491E0899F99
:1051B000802D112480935A04112359F00E9427074F
:1051C00091E011160CF09FEF899F802D11248093A0
:1051D0005B0480915A04882399F080905B048820B6
:1051E00079F00E944707882309F4F4C080935A0499
:1051F000882D0E944707882309F4EFC080935B0441
:105200008B2D8A2909F445C080915404909155044E
:105210000E94FD059C0190915204992309F401C15B
:1052200021353105B0F19F3F19F09F5F90935204F3
:10523000AA2059F00E9405079FEF1A140CF491E080
:10524000899F802D112480935C04BB2059F00E941B
:10525000050791E01B140CF09FEF899F802D11240E
:1052600080935D0480915C04882399F0A0905D0494
:10527000AA2079F00E944707882309F4B1C08093DF
:105280005C048A2D0E944707882309F4ACC08093F0
:105290005D0480915904891117C080915A048823B4
:1052A00011F0801311C020915B04222311F012131E
:1052B0000BC090915D04992311F09B1105C03091B2
:1052C0005C04332309F4A8C00E94DE0686E0FE01D8
:1052D0003196A8E5B4E001900D928A95E1F70E941D
:1052E000CD069091B903891709F4CECD8093B90307
:1052F0000E940C06C9CD0E9448199ECE863059F4F2
:10530000F0E0E65EFA4FE4910E2F10E0E7EBAE2EF0
:10531000E8E0BE2EC3CE893061F4E695F0E0E95EA8
:10532000FA4FE4910E2F10E077EAA72E7AE0B72E1D
:10533000B5CE8F3061F4E695F0E0EC5EFA4FE49183
:105340000E2F10E068E2A62E6AE0B62EA7CE8531B9
:1053500059F4F0E0EF5EFA4FE4910E2F10E056ECB6
:10536000A52E59E0B52E9ACE08E210E02BE4A22E2D
:1053700029E0B22E883109F491CE833249F4EFE06E
:10538000F5E00591149142E1A42E49E0B42E86CEB9
:1053900004EF11E09BEDA92E98E0B92E843209F4B8
:1053A0007DCE853281F48E2F63E00E940C2CE92F94
:1053B000F0E0E45FFA4FE4910E2F10E039E8A32EFD
:1053C00030E1B32E6BCE00ED17E08CECA82E87E019
:1053D000B82E64CED0925A040BCFD0925B0410CF7B
:1053E000D0925C044ECFD0925D0453CF09BD19BD5D
:1053F00009B400FEFDCF8091D8008F7D8093D80046
:105400008091E00082608093E0008091E00081FD67
:10541000FCCF0E945016BFCD822B892B09F456CFAA
:1054200053CF2B30310508F000CF33CF2B3031056F
:1054300008F0B2CEE5CE8EE1489B02C08150E1F784
:10544000489BFECF0895589880E28A95F1F7589AC4
:105450000895FC013BE03A95F1F798E020E080E008
:1054600031E040E14A95F1F7880F489B02C0816026
:10547000232742E04A95F1F7000040E14A95F1F711
:10548000915079F790E19A95F1F799B132E03A9518
:10549000F1F7000040E14A95F1F7917092272081E1
:1054A000920F90830895A1E0B0E0E9E5FAE20C9450
:1054B000E12B19828C017C01E60EF11C0E151F05F3
:1054C00041F481E09981911180E02196E6E00C940D
:1054D000FD2B0E941B2ACE0101960E94292AF80169
:1054E00081938F01EBCF509A589A08955098589A0B
:1054F000E89AE9E6F0E080818C7F8083089561502E
:10550000770B91E001C0990F6A95EAF720E031E04E
:10551000911108C0222391F0589A80E28A95F1F700
:1055200058980895492F482339F0589A232740E284
:105530004A95F1F79695ECCF5898F9CF5898EDCF5A
:10554000FF920F931F93CF93DF93EC018C01060F13
:10555000111DC017D10729F4CDB7DEB7E5E00C94D3
:10556000FE2BF9900E94232A68E08F2D0E947F2A4B
:10557000F0CF1F920F920FB60F9211240F931F932B
:105580002F933F934F935F936F937F938F939F934B
:10559000AF93BF93EF93FF93CF93DF930F92CDB76A
:1055A000DEB719820E941B2ACE0101960E94292A89
:1055B000082F069506950695282F22952570902F81
:1055C0009570290F922F937026952695920F982704
:1055D00097708981982B09F05CC0053008F059C09C
:1055E00080E18A95F1F7589A509A82E08A95F1F70E
:1055F00000C0589888E0089F80011124D801A95D57
:10560000BE4F1696ED91FC9117973097A9F06091D7
:105610009A0270919B0214962D913C911597260F3A
:10562000371F11968D919C911297680F791F1396D1
:105630004C9113978C910995F801E95DFE4F6381B8
:10564000662351F020919A0230919B0284819581CA
:10565000820F931F0E94A02A0E94232A80E18A952C
:10566000F1F758985098589A80E18A95F1F7F80127
:10567000E95DFE4F6081662351F020919A023091DE
:105680009B0281819281820F931F0E94532A0E9464
:105690001B2A0F90DF91CF91FF91EF91BF91AF91B6
:1056A0009F918F917F916F915F914F913F912F913A
:1056B0001F910F910F900FBE0F901F9018950F9391
:1056C0001F93CF93DF93EC0105970CF04CC0F89437
:1056D000509A589885E08A95F1F700009C2F96958E
:1056E00095708C2F8570980F892F8370969596955D
:1056F00023E0CC0FDD1F2A95E1F7980F8E01092BCF
:105700000E94232A00C068E0802F0E947F2A80E147
:105710008A95F1F75098589A489B1EC087E090E010
:1057200048991CC0FE01E95DFE4F63816623F9F0D4
:1057300020919A0230919B0284819581820F931F60
:105740000E94532A811113C0509A589A7894DF917D
:10575000CF911F910F91089500C0DECF019729F4DA
:10576000509A589A789480E0F2CF00C0D9CF0E9426
:105770001B2A80E28A95F1F75898509A80E18A9521
:10578000F1F7C95DDE4F6881662351F020919A02DE
:1057900030919B0289819A81820F931F0E94A02AD7
:1057A0000E94232A789481E0D2CF2F923F924F9289
:1057B0005F926F927F928F929F92AF92BF92CF92A1
:1057C000DF92EF92FF920F931F93CF93DF93CDB7AA
:1057D000DEB7CA1BDB0B0FB6F894DEBF0FBECDBF22
:1057E00009942A88398848885F846E847D848C84F3
:1057F0009B84AA84B984C884DF80EE80FD800C81FC
:105800001B81AA81B981CE0FD11D0FB6F894DEBFDE
:105810000FBECDBFED010895991B79E004C0991F1B
:10582000961708F0961B881F7A95C9F780950895FA
:1058300087FB082E062687FD819567FD61950E94EE
:105840000C2C0EF4919507FC81950895AA1BBB1BA7
:1058500051E107C0AA1FBB1FA617B70710F0A61B70
:10586000B70B881F991F5A95A9F780959095BC0191
:10587000CD01089597FB072E16F4009407D077FD0D
:1058800009D00E94262C07FC05D03EF49095819506
:105890009F4F0895709561957F4F0895EE0FFF1FFC
:1058A0000590F491E02D09940E94C42D332312F445
:1058B0008A1B9B0B0C945E2C0E94C42DB7FF08958D
:1058C000821B930B0895002E083090F0982F872F9D
:1058D000762F652F542F432F322F22270850F4CFD5
:1058E000220F331F441F551F661F771F881F991FE4
:1058F0000A95B2F7002D089597FD1094002E0830F8
:1059000098F00850232F342F452F562F672F782FCC
:10591000892F912DF4CF1594979587957795679555
:1059200057954795379527950A95AAF71124002D85
:1059300008958F929F92AF92BF92CF92DF92EF9293
:10594000FF92CF93DF93EC01688179818A819B81FB
:10595000611571058105910521F464E279ED8BE50E
:1059600097E02DE133EF41E050E00E94702D4901B6
:105970005A019B01AC01A7EAB1E40E948F2D6B0193
:105980007C01ACEEB4EFA50194010E949D2DDC01D9
:10599000CB018C0D9D1DAE1DBF1DB7FF03C0019730
:1059A000A109B04888839983AA83BB839F77DF913D
:1059B000CF91FF90EF90DF90CF90BF90AF909F90EE
:1059C0008F9008950E94992C089580E091E00E94A4
:1059D000992C0895B0E0A0E080930001909301011C
:1059E000A0930201B09303010895FC01415050407F
:1059F00030F001900616D1F73197CF01089588272E
:105A000099270895FB01DC0104C08D910190801954
:105A100021F441505040C8F7881B990B0895FB01B1
:105A2000DC0102C001900D9241505040D8F708951A
:105A3000F999FECF92BD81BDF89A992780B5089556
:105A4000A6E1B0E044E050E00C94622DA8E1B0E0A3
:105A500042E050E00C94622DDC01A40FB51F4150D0
:105A6000504048F0CB01840F951F2E910E943D2D90
:105A700041505040D0F70895262FF999FECF92BD9E
:105A800081BDF89A019700B4021639F01FBA20BD03
:105A90000FB6F894FA9AF99A0FBE08950396272F35
:105AA0000E943D2D0E943C2D252F0E943D2D242F2C
:105AB0000C943D2D0196272F0E943D2D0C943C2DDA
:105AC000DC01CB01FC01F999FECF06C0F2BDE1BDBE
:105AD000F89A319600B40D9241505040B8F70895AD
