:100000000C944B040C94BC2A0C9468040C94680463
:100010000C9468040C9468040C9468040C946804B0
:100020000C9468040C9468040C94F9280C94D1295D
:100030000C94AE280C9468040C9468040C94680426
:100040000C9468040C9468040C9468040C94680480
:100050000C9468040C94D5280C9468040C946804DF
:100060000C9468040C9468040C9468040C94680460
:100070000C9468040C9468040C9468040C94680450
:100080000C9468040C9468040C9468040C94680440
:100090000C9468040C9468040C9468040C94680430
:1000A0000C9468040C9468040C946804050109021B
:1000B000A10185020901A1000509190129081500FE
:1000C0002501950875018102050109300931158165
:1000D000257F95027508810609381581257F9501D0
:1000E00075088106050C0A38021581257F95017572
:1000F000088106C0C005010980A101850319012AF4
:10010000B700150126B700950175108100C0050CD8
:100110000901A101850419012AA002150126A002E6
:10012000950175108100C005010906A1018506052C
:100130000719E029E71500250195087501810205D9
:1001400007190029EF1500250195F07501810205B9
:10015000081901290595057501910295017503910D
:1001600001C005010906A101050719E029E71500ED
:100170002501950875018102950175088101050722
:10018000190029FF150026FF009506750881000556
:10019000081901290515002501950575019102959C
:1001A0000175039101C009023B00020100A0FA0998
:1001B0000400000103010100092111010001224492
:1001C0000007058103080001090401000103000084
:1001D0000009211101000122B60007058203200059
:1001E000011201000200000008444D4452000101C8
:1001F0000200010C035200650064006F00780000EB
:10020000001403460061006C006200610074006528
:100210000063006800000004030904222325262847
:10022000292A2C2D2F3032333536383A3B3D3E408B
:1002300042434547494A4C4E5051535557595A5CD1
:100240005E6062646668696B6D6F71737577797BE8
:100250007D7F81838587898A8C8E90929496989AE7
:100260009C9E9FA1A3A5A7A8AAACAEAFB1B3B4B6FC
:10027000B8B9BBBCBEBFC1C2C3C5C6C7C9CACBCC57
:10028000CDCED0D1D2D2D3D4D5D6D7D7D8D9D9DA2A
:10029000DADBDBDBDCDCDCDCDCDDDDDDDDDCDCDC9F
:1002A000DCDCDBDBDBDADAD9D9D8D7D7D6D5D4D3C7
:1002B000D2D2D1D0CECDCCCBCAC9C7C6C5C3C2C19C
:1002C000BFBEBCBBB9B8B6B4B3B1AFAEACAAA8A7F9
:1002D000A5A3A19F9E9C9A98969492908E8C8A89B1
:1002E000878583817F7D7B79777573716F6D6B698E
:1002F00068666462605E5C5A5957555351504E4C63
:100300004A4947454342403E3D3B3A383635333211
:10031000302F2D2C2A292826252322FFAA7F55405D
:1003200000010101010101010101020202020202B8
:10033000020202030303030303030304040404048B
:100340000404050505050506060606060707070752
:100350000708080808090909090A0A0A0B0B0B0C07
:100360000C0C0D0D0D0E0E0E0F0F0F1010111111A4
:100370001212131314141515161617171818191925
:100380001A1A1B1B1C1D1D1E1E1F2020212222238A
:100390002424252626272829292A2B2C2D2D2E2FCB
:1003A00030313232333435363738393A3B3C3D3EE2
:1003B0003F404142434445464748494A4C4D4E4FD1
:1003C00050515354555658595A5B5D5E5F61626493
:1003D000656668696B6C6D6F7072737577787A7B20
:1003E0007D7E8082838587888A8C8E8F9193959677
:1003F000989A9C9EA0A2A3A5A7A9ABADAFB1B3B597
:10040000B7BABCBEC0C2C4C6C9CBCDCFD1D4D6D872
:10041000DBDDDFE2E4E7E9EBEEF0F3F5F8FAFDFF10
:100420001E0F0500047F3F1F643214643214783CB1
:100430001E1E140A0530141E001F00200021002279
:1004400000000F2B0014001A2909261300050000D4
:1004500007292104281524162117220A0063522D8A
:10046000141D001B2C06250733190063522752E088
:1004700000E20024522C422843284338002700265B
:1004800000250024002300000F2F0033001C391822
:10049000360F000D000007343112380C24083111DA
:1004A000321000665232325400373C36250B330E80
:1004B0000066524F005200510050422A454C464CB3
:1004C0004630141E001F00200021002200000F2BC8
:1004D0000014001A00080015001700000729210465
:1004E000001600070009000A006352E1001D001B0E
:1004F0000006001900050063522752E000E20024C4
:10050000522C422C43284338002700260025002483
:10051000002300000F2F00130012000C0018001C15
:10052000000007343133380F240E310D320B0066D2
:100530005232325400370036001000110066524F1C
:10054000005200510050422A454C464C46000000E3
:10055000000000000000000000000F00001E021F4D
:1005600014090113010505000700000428152416CD
:1005700021172209010000E1001D011B01060107EE
:100580000119010000000000000000390000000017
:10059000000000000000000000000000000000005B
:1005A0000F38002E004D004B004E004A0000072D72
:1005B0000036024F0052005100500000001F023769
:1005C00002BB00A900AA00BC000000BB00A900AA51
:1005D0000038003802270227020000000000000057
:1005E0000000000000000F000000000000000000FC
:1005F00000000000076352E300E200E000E10000B9
:10060000000000E100000000000000000000000009
:1006100000000000000000000000000000000000DA
:100620000000000000000000000000000F38002E55
:1006300000260025002400000000072D00360223BC
:100640000022002100360000001F02370220001F98
:10065000001E0037000000BB00A900AA00380027D8
:100660000027022702000000000000000000000038
:1006700000000F000000000000000000000000006B
:10068000070000E300E200E000E10000000000E1FC
:10069000000000000000000000000000000000005A
:1006A000000000000000000000000000000000004A
:1006B00000000000000000000F38002E0042004142
:1006C000004000450000072D0036023F003E003D7F
:1006D00000440000001F0237023C003B003A004388
:1006E000000000BB00A900AA0039002A004C004C01
:1006F00000301400000000000000000000000F3077
:10070000141E021F1425142614200200072014238F
:100710000221142502260222020000210264143064
:100720000264006402320200000000000000002C9D
:10073000002C00280028000000000000000000003D
:10074000000000000F00000000000000000000009A
:100750000000070000E300E200E000E1000000000C
:1007600000E5000000BB00A900AA00BC000000BB1F
:1007700000A900AA00BC000000000000000000006A
:10078000000000000000000000000F00000000DB7F
:1007900000CD00DC000000000766520000CF00CE54
:1007A00000D0000000000000000000D200DA00D9F4
:1007B000000000000000000000000000002C00D13C
:1007C00000D2000000000000000000000000000057
:1007D0000F000000004F082B012B035008000700FA
:1007E00000E3004F245231513250000000DF00DEA0
:1007F00000DD00D200D10000000000BB00A900AA6B
:1008000000BC000000000000002078000000000094
:10081000000000000000001B70000000000000004D
:1008200000000000001C70E300E200E000E10000B6
:1008300052005220782378257827782178015201B8
:10084000520000E000E200E30000000000000000B1
:100850000000000000000000000000000000000098
:100860000000000000000000000000000000000088
:100870000000000000000000000000000000000078
:100880000000000000000000000000000000000068
:1008900000000000000011241FBECFEFDAE0DEBF31
:1008A000CDBF24E0A4EFB2E001C01D92A13EB2078B
:1008B000E1F712E0A0E0B1E0EAE7FCE502C0059054
:1008C0000D92A43FB107D9F70E94F8230C94D52DBF
:1008D0000C9400009C019A9581159F4118F5F9012F
:1008E000EE27F270832F8170B90166277470A90119
:1008F0004427587034FF0CC08295807FEF2B09F09D
:100900008062672B09F08064452B69F08068089548
:10091000EF2B09F08260672B09F08460452B19F0FA
:100920008860089580E008959093990480939804D6
:10093000089590939B0480939A04089521E030E0F9
:1009400002C0220F331F8A95E2F780919A0490919A
:100950009B04822B932B0E949904089521E030E0A0
:1009600002C0220F331F8A95E2F7209530958091BF
:100970009A0490919B04822393230E9499040895E2
:100980009A3098F5873088F5E82FF0E087E0989F57
:10099000E00DF11D11248E2F877041E001C0440F3E
:1009A0008A95EAF783E0F695E7958A95E1F7EE0FE9
:1009B000FF1FEE0FFF1FE25BFB4F20E030E070E017
:1009C0005191DF011197CB01022E02C096958795B8
:1009D0000A94E2F7817081958527842385278C937B
:1009E0002F5F3F4F2430310559F708959A3078F53D
:1009F000873068F5E82FF0E087E0989FE00DF11D63
:100A000011249E2F977083E0F695E7958A95E1F77C
:100A1000EE0FFF1FEE0FFF1FE25BFB4F40E050E0C9
:100A200080E0219130E0092E02C0369527950A9486
:100A3000E2F721703327042E01C0220F0A94EAF74F
:100A4000822B4F5F5F4F4430510559F7089580E086
:100A500008958091A1049091A004981301C0089575
:100A60008F5F8770FACF90919C0480958923809343
:100A70009C04282F277021110DC0891759F09091DF
:100A80009E0492FF07C08695869586950E94AE04C7
:100A900010929C0408959091950480919F04982B46
:100AA000509196045523C1F0809163018823E1F0B1
:100AB00080919D0487FF18C08DE120E033E040E085
:100AC000F90160812F5F3F4F61114F5F8150C0F787
:100AD000411110929604952B80917C048095892376
:100AE00090917B04892B089585E028EF32E0E7CFD1
:100AF000982F90958091950489238093950408956B
:100B00007A30B8F46730A8F48830B0F4E62FF0E01B
:100B100097E0799FE00DF11D112496E4899FE00D87
:100B2000F11D1124EE0FFF1FEB5CFB4F859194919B
:100B3000089580E090E0089581E0FCCF803E91052B
:100B4000D1F1C8F48133910509F47FC048F48932AA
:100B5000910509F46FC08A32910509F47DC00895AA
:100B600089339105E1F082389105C9F0853391050B
:100B700009F45BC00895843E9105D1F148F4823EAA
:100B8000910531F1833E910541F181EE90E00895A8
:100B9000863E9105C1F1873E9105E1F108952091CE
:100BA0009D042370211165C020919E0423FF14C071
:100BB00089E290E0089520919D0420FD43C030918A
:100BC0009E0430FF09C024FF4EC080E090E00895ED
:100BD00020919D0422FDF7CF089520919D0422FDD0
:100BE00045C030919E0430FD44C024FFF5CFEDCFC9
:100BF00020919E0421FFF0CF80919D0484FDE5CFDC
:100C000087EE90E0089520919D0423FFE5CF24FD19
:100C1000DCCFF6CF20919D0423FD2EC030919E04A1
:100C200031FFE3CF84EE90E0089520919D0425FFED
:100C3000D3CFBECF20919D0425FD21C020919E04DD
:100C400023FFCACF89E390E0089520919D0426FFF9
:100C5000C3CF8AE290E0089520919D0426FFBCCF87
:100C600081E390E0089583EE90E0089582EE90E0B5
:100C7000089580EE90E0089586EE90E0089585E373
:100C800090E0AACF90919D0492FF10C041E0282FE0
:100C90002471243009F040E031E0282F28712830F9
:100CA00009F030E0431711F02CE0822793FF10C0C9
:100CB00041E0282F2471243109F040E031E0282F51
:100CC0002871283109F030E0431711F02CE0822719
:100CD00030919E0430FF10C051E0282F2171213047
:100CE00009F050E041E0282F2871283009F040E059
:100CF000541711F029E0822731FF10C041E0282F5E
:100D00002171213109F040E031E0282F287128318C
:100D100009F030E0431711F029E0822794FD877E27
:100D200008951F93CF93DF930E949E05EC018115D8
:100D300022E5920708F053C0811540E5940708F0BA
:100D4000DDC0803E9105F8F48D3C910508F0AEC001
:100D5000883A910580F4853A910508F099C0813070
:100D6000910521F00497813A910550F4CE01DF916D
:100D7000CF911F910895885A91094B9708F48BC021
:100D8000C0E0D0E0F3CF811550E49507F8F4C11529
:100D900080E2D80708F0CBC0C83ED10538F3CE01B9
:100DA0009A9581159F4160F78D2F0E944206182F5A
:100DB000CE0199270E949E05212F30E0322F222755
:100DC000E901CC27DF71C82BD92BD0CF99270E94FE
:100DD0009E05CC27DF70C82BD92BD06AC7CF8038AF
:100DE00042E59407C8F5803652E5950708F067C0DC
:100DF000C03482E5D807B0F08C2F86958695877031
:100E000020E2829FC0011124C37021E030E0A901DB
:100E100002C0440F551FCA95E2F7EA01C82BD92B2F
:100E2000DC68A4CFC03252E5D50708F041C08C2F52
:100E30008695869520E2829FC0011124C37021E02F
:100E400030E0A90102C0440F551FCA95E2F7EA013C
:100E5000C82BD92BDD688ACF803C52E5950760F41A
:100E60008F71C03AD24508F03FC090E0982F882794
:100E7000EC01C46FD06A7ACF805C9245809708F00D
:100E80007FCFDC2FCC27CC27DF71C06FD06A6ECF2D
:100E9000A497D0646BCFC85AD0E0CC0FDD1FC254EA
:100EA000DD4F0990D881C02DD46460CFD0655ECF6E
:100EB000CF71D0E0DC2FCC27C16FD06A57CF869599
:100EC0008695877020E2829FC0011124C37021E0C3
:100ED00030E0A90102C0440F551FCA95E2F7EA01AC
:100EE000C82BD92BDA6842CF0E944206C82FD0E027
:100EF000DC2FCC27CC27DF71D06238CF8F710E94D6
:100F0000420665E0D695C7956A95E1F7CF70D0E0C7
:100F1000DC2FCC27282F30E084FF05C054E0220FBF
:100F2000331F5A95E1F7C22BD32BD0691FCF8D2FDA
:100F30008F710E944206182FCE0199270E949E05AC
:100F4000212F30E0322F222722273F71282B392BE7
:100F5000E901D2CFA0E0B0E0E0EBF7E00C94E02BA9
:100F60008C01E0909A04F0909B04809198049091F9
:100F70009904E82AF92ACFE0D0E0CC24C394D12CFC
:100F8000C6010C2E02C0880F991F0A94E2F78E2129
:100F90009F21892B49F4219798F7B12C8B2DCDB740
:100FA000DEB7E9E00C94FC2BBC2EB8018C2F0E941C
:100FB00080050E949106019771F3F0CF0F931F9364
:100FC000CF93FC01858100811181882391F06623F4
:100FD00081F0C8010E94AA07C82F682FC8010E948B
:100FE000C004B8018C2F0E948005CF911F910F91F2
:100FF0000895C8010E94F604C82FF3CFCF93DF9362
:10100000D82FC92F0E94AA076D2F7C2F0E94800520
:101010000E949106DF91CF910895FC01848188237D
:10102000A1F0808191810E94FE07282F92959F70E8
:10103000963091F060F4925F9F70923030F481E0CE
:10104000203F79F030F4283E30F080E004C09A5F11
:10105000F3CF243FD1F7089581E0283E18F0213FD7
:10106000F9CF0895089580E00895F894E82FE29567
:10107000EF70F0E041A18F7021E030E0B90102C0D3
:10108000660F771F8A95E2F7CB01962F90959423F0
:1010900091A392A1892B82A3789408950895A0E04A
:1010A000B0E0E5E5F8E00C94DF2BE901E42FF0E097
:1010B000E05EFC4F61110BC0E4919E2F8E2F89835F
:1010C000E8839A83CDB7DEB7EAE00C94FB2B282F98
:1010D00030E0062F10E0F491EF2F86E0829F600150
:1010E000839FD00C1124EE24EA94F12CC601B701A1
:1010F0000E94282C220F331F45E5469FC001479FC1
:10110000900D1124281B390B822F880F280FC7013F
:10111000801B910BF89FA001F99F500D1124952F72
:10112000209F5001219FB00C1124AB2CBB24D70170
:10113000AA19BB095D01FA9DD001FB9DB00D1124D8
:101140008B2F5701A21AB1089501209F5001219FB2
:10115000B00C309FB00C1124AB2CBB24EA18FB0858
:10116000FE9D9001FF9D300D112463307105C9F083
:101170001CEFC11613E0D10650F46130710509F47B
:101180009ECF6230710589F08E2FE32F98CF6430A7
:10119000710571F066307105B9F3E52F9B2F8F2F24
:1011A0008ECFEB2F852F9F2F8ACF852F932F87CF21
:1011B000832FE52FF8CF80918D04843028F483703D
:1011C000846080938D0408958C3AE8F38370886A74
:1011D000F8CF80918D0480FD0AC0E1E9F3E011822F
:1011E00010821282339683E0EB3BF807C1F76EE082
:1011F00070E081E993E00E940D10089590918D04B4
:1012000090FF0CC0E1E9F3E0818360834283339671
:1012100093E0EB3BF907C1F70E94E9080895A3E0CA
:10122000B0E0E5E1F9E00C94E72B90918D0490FF9C
:101230000AC09E012F5F3F4F0E944F084B8169817A
:101240008A810E94FE082396E2E00C94032CCF933F
:10125000DF93EC01EDE8F4E0438162818C810E9430
:101260000F098C818F5F8C83DF91CF910895EAE81D
:10127000F4E011828281846082830895CF93DF93AA
:10128000EC01EC81F0E0E55EFD4F4491EDE8F4E027
:10129000628181810E940F098C818F5F8C83DF9135
:1012A000CF910895EF92FF921F93CF93DF93EC01BC
:1012B00081E9E82E83E0F82E10E08C8197014091BF
:1012C000900460918F04810F0E944F081E5E83E09E
:1012D000E80EF11C1C3F89F70E94E9089A818C8175
:1012E00090FF08C08F5F8C83DF91CF911F91FF909B
:1012F000EF9008958150F7CFA0E0B0E0E2E8F9E088
:101300000C94DF2BEC018C819A8190FD08C0BB24EA
:10131000B39481110CC08DE0BB24B39404C0BB24F2
:10132000BA94811104C08093900381E08C8321E9F9
:10133000E22E23E0F22E00E010E0F701118210828D
:10134000128294E0C92ED12CA12C809190038A0D99
:101350008F300CF440C06EE00E941A2C892F082EAA
:10136000000C990B8017910791F4809190048C9D4B
:10137000A0018D9D500D1124559547955595479584
:10138000970160918F0480918E040E944F08AB0CEE
:10139000F1E0CF1AD108C114D104B9F60F5F1F4F85
:1013A00083E0E80EF11C0E30110539F60E94E908C1
:1013B00090919003E1E0BE1212C08DE0992319F0E4
:1013C0008FEF890F91E0809390039C83CDB7DEB7B8
:1013D000EAE00C94FB2B87FFC2CF825FC0CF892F3E
:1013E00090E00196B8010E943C2C982FECCFEF9230
:1013F000FF920F931F93CF93DF938C01FC018481A5
:10140000811109C081E0848310928F0392E0909350
:101410002C0180932B01C1E9D3E0FE0111821082DF
:101420001282339683E0EB3BF807C1F7E12CF12CF5
:1014300080918F03082E000C990BE816F906BCF179
:1014400080912C01082E000C990B8E159F057CF1C4
:101450009E014091900460918F0480918E040E94BF
:101460004F08EFEFEE1AFE0A2396FEE0EF16F104A6
:10147000F9F60E94E90880912B0190918F03980F53
:1014800090938F0320912C01280F20932C0112168A
:1014900014F49D303CF0819580932B01813011F440
:1014A000F8011482CDB7DEB7E6E00C94FF2B198269
:1014B00018821A82D6CFAEE0B0E0E1E6FAE00C94F2
:1014C000E12B8D879E87AD85BE8514961C91212FBB
:1014D00030E0D9010E94C62D9B01AC010E94912DE4
:1014E00069837A838B839C83E0E2F0E0E11BF1095E
:1014F000A5E5B0E09B01AC010E94912D69877A8738
:101500008B879C879F01DF010E94562C9B01AC01B9
:101510000E949C2D6D837E838F8398879B01AC01F5
:1015200089819A81AB81BC81280F391F4A1F5B1FBB
:1015300069857A858B859C850E94A42D022F30E0D9
:101540000A32C8F5A901440F551F420F531F559584
:101550004795142F109591E9C92E93E0D92EF12CBF
:1015600085E5E82EE01A8E2DF1FC802F9601412FA3
:1015700060918F040E944F08F39493E0C90ED11C30
:10158000AEE0FA12F0CF0E94E908ED85FE85948165
:1015900081E0992319F0903219F48FEF80932A019A
:1015A00080912A01890FAD85BE8514968C932E9665
:1015B000E8E00C94FD2B85E590E0821B930BAC01D9
:1015C000440F551F480F591F57FFC1CF4F5F5F4F43
:1015D000BECFA3E0B0E0EFEEFAE00C94E52B8C0177
:1015E00080918E0381110AC09E012F5F3F4F4FEF04
:1015F0006FEF0E944F088A8180938E03F801648107
:10160000613049F06230D1F080918E0340E0662372
:1016100031F040E015C060918E0340E080E00E9410
:10162000FE08F801848190E0019663E070E00E947A
:101630003C2C84832396E4E00C94012C40918E038F
:1016400080E060E0ECCFA0E0B0E0E9E2FBE00C94E9
:10165000E12B8C01C1E9D3E020E030E0F801948176
:1016600060918F0480918E04A9014F5F5F4F7A01D2
:101670002730310574F4FE0133966F019E014091CD
:101680009004911101C040E00E944F089701E601CB
:10169000E5CF9E0140919004911140E00E944F08D7
:1016A00097012E30310511F02396D8CF0E94E9081A
:1016B000F801848190E00196817099278483CDB7E9
:1016C000DEB7E8E00C94FD2BFA01882311F00995B0
:1016D0000895FB01FCCF539A0895FC018581862370
:1016E00081110AC082818823B9F06823918593FF14
:1016F00005C081E061110FC080E00895282F229578
:101700002F708F70282B962F92959F706F70962B4D
:1017100081E02913F1CF089581E0FDCF282F35EB2B
:101720002303C001112497FF04C080589109892F19
:10173000089580589F4FFBCF8091740480FD16C0A0
:1017400081FD16C082FD18C080917304882391F03A
:10175000803490F428E1829FC001112426E0959501
:1017600087952A95E1F7009749F0089586E0089556
:101770008CE0089588E0089588E1089581E0089557
:101780008091740480FD17C081FD17C082FD19C0CF
:1017900080917204882399F0883298F428E0829F1F
:1017A000C001112468E270E00E943C2C61157105B3
:1017B00051F0862F089562E0FCCF64E0FACF61E03B
:1017C000F8CF68E0F6CF81E0089580912004882367
:1017D00059F0E0914404F0914504309729F00190CC
:1017E000F081E02D0995089580E00895A3E0B0E030
:1017F000ECEFFBE00C94E72B9C0180914603909169
:10180000470382179307A1F03093470320934603C1
:10181000E0914404F0914504309751F083E08983CE
:101820003B832A830084F185E02DCE010196099542
:101830002396E2E00C94032CA3E0B0E0E2E2FCE0AB
:101840000C94E72B9C0180914403909145038217EF
:101850009307A1F03093450320934403E09144049F
:10186000F0914504309751F084E089833B832A83CB
:101870000084F185E02DCE01019609952396E2E0E2
:101880000C94032C909163019923C1F090919D04D5
:1018900097FF14C0E82FE695E695E695803FF8F4AB
:1018A000F0E0E250FD4F877021E030E001C0220FF0
:1018B0008A95EAF78281822B82830895A8EFB2E0AD
:1018C000EFEF90E02D91821751F0EF3F19F42111C5
:1018D00001C0E92F9F5F9630A9F7EF3F09F4089503
:1018E0000E2E000CFF0BEA50FD4FE6CF90916301E6
:1018F0009923E1F090919D0497FF18C0E82FE69599
:10190000E695E695803FF0F4F0E0E250FD4F8770F9
:1019100021E030E0A90102C0440F551F8A95E2F78B
:10192000CA0180959281892382830895E8EFF2E0CD
:101930009191891303C0DF0111971C9252E0EE3F91
:10194000F507B1F708952FB7F8948091400390916F
:101950004103A0914203B09143032FBF08950E9419
:10196000A30C2091770430917804232B222321F0BB
:101970008093F3039093F4032091790430917A04D7
:10198000232B222321F08093F1039093F203E09123
:101990004404F0914504309749F082E08093750447
:1019A0000680F781E02D85E794E009950895209160
:1019B000770490917A0430917904662309F45AC02F
:1019C00040917804242B292B232B222331F098E0FB
:1019D0009093730491E0909372048D3C41F40E94C3
:1019E0009C0B8195809378040E94AF0C0895E2E3EC
:1019F000E80FE231C8F7F0E0E952F24D0C94502CB8
:101A00000E949C0BEFCF0E949C0B819580937704E2
:101A1000EBCF0E949C0BFACF0E94C00B80937904FD
:101A2000E3CF0E94C00B8195F9CF0E94C00B819536
:101A300080937A04D9CF0E94C00BFACF815D990BB5
:101A400021E030E001C0220F8A95EAF78091760408
:101A5000822B80937604C8CF809174048160809338
:101A60007404C2CF809174048260F9CF80917404B1
:101A70008460F5CF8D3C59F48091780487FF0DC0C8
:101A800010927804222359F41092730408C08E3CFB
:101A900081F48091780418169CF3222381F08091C0
:101AA000790490917A04892B81119ECF109272044F
:101AB0009BCF8F3C41F427FFF0CF109277048091A9
:101AC00078048823E0CF803D19F41216B4F3E5CFF3
:101AD000893D29F413160CF710927904DECF8A3D64
:101AE00019F437FFDACFF8CF8B3D29F497FFD5CF24
:101AF00010927A04D2CF8C3D19F41916CCF3CDCFC5
:101B00009FE2980F983090F4815D990B41E050E08E
:101B1000BA0102C0660F771F8A95E2F7CB01809564
:101B200090917604892380937604B7CF8D3D31F46C
:101B3000809174048E7F80937404AFCF8E3D21F426
:101B4000809174048D7FF7CF8F3D09F0A6CF8091EF
:101B500074048B7FF0CFA4E0B0E0E1EBFDE00C94E7
:101B6000E72B8FB7F89420914003309141034091C7
:101B700042035091430329833A834B835C838FBF95
:101B800069817A818B819C812496E2E00C94032CFC
:101B9000A4E0B0E0EEECFDE00C94E72B8091200493
:101BA000882371F00E94AB0D69837A838B839C83B9
:101BB00069817A818B819C812496E2E00C94032CCC
:101BC0000E94AB0D69837A838B839C8380911C0474
:101BD00090911D04A0911E04B0911F0429813A81A7
:101BE0004B815C81280F391F4A1F5B1F29833A8371
:101BF0004B835C83DDCF80912004882319F00E9401
:101C0000A30C08950E94C80DCB0108959C014FB705
:101C1000F8948091400390914103A0914203B091C8
:101C200043034FBF821B930B0895A4E0B0E0EBE1A8
:101C3000FEE00C94E52B462F572FBC012FB7F894EC
:101C40008091400390914103A0914203B0914303DE
:101C50002FBF8C019D01041B150B260B370BC901EF
:101C6000B8012496E4E00C94012CA6E0B0E0EBE38C
:101C7000FEE00C94E32B7C0100918204109183041C
:101C8000209184042E83809185048D83B801822F56
:101C90009D810E94150E643F71408105910518F1E8
:101CA0000E94AB0D8B018E839D8382E390E0A0E0C8
:101CB000B0E00093E4031093E5032E812093E60344
:101CC0002D812093E7038093E0039093E103A09399
:101CD000E203B093E303E0928004F092810426963D
:101CE000E6E00C94FF2B84EF91E0A0E0B0E0E1CFC0
:101CF00080913F030895FC019B01809135039091F1
:101D000036038617970740F0672B29F48091E80087
:101D10008E778093E800C90140E0009741F44111BB
:101D200006C08091E80082FF2FC080E008952091D6
:101D3000CA032223A9F12530A9F12091E80023FD4F
:101D40002DC02091E80022FDECCF2091E80020FF7B
:101D5000E4CF3091F3002091F200009719F0283081
:101D6000310558F041E02830310509F040E020917C
:101D7000E8002E772093E800D0CF41914093F10006
:101D800001972F5F3F4FE9CF8091CA03882341F02D
:101D9000853041F08091E80083FFC3CF81E0089552
:101DA00082E0089583E0089580912F0387FF13C098
:101DB0008091E80082FF06C08091E8008B778093D5
:101DC000E80004C08091CA038111F2CF0895809188
:101DD000CA038823D9F38091E80080FFF8CF80916F
:101DE000E8008E77ECCF2091E4003091E50095E695
:101DF000A9018091EC008170882331F08091E80086
:101E000080FF06C080E008952091E80022FD1BC0FD
:101E10008091CA03882391F0853091F08091EB0086
:101E200085FD10C02091E4003091E5004217530772
:101E300001F391509111DCCF84E0089582E0089580
:101E400083E0089581E00895E8EDF0E080818E7FE1
:101E500080831092E2001092DA001092E100A0EE6E
:101E6000B0E08C9181608C9380818F77808319BCE6
:101E7000A7EDB0E08C918E7F8C9380818F7E8083E4
:101E800010922E030895FC01AC014B5F5F4F8FEF62
:101E900091E32191822728E030E087FF0BC0880F73
:101EA00089272150310921153105B9F7E417F507C4
:101EB00081F70895880FF5CF982FE42FE270909363
:101EC000E900891308C0762F242F50E0E11111C0DA
:101ED00091E0980FF4CF7091EC002091ED005091BB
:101EE000F00021FD06C09F5F973049F78093E9001D
:101EF00008953091EB003E7F3093EB003091ED0080
:101F00003D7F3093ED003091EB0031603093EB007A
:101F10007093EC002093ED005093F0002091EE00C0
:101F200027FDE1CF0895A0E0B0E0E9E9FFE00C94DF
:101F3000E12BC8EDD0E088818F7E8883E7EDF0E06B
:101F400080818160808384E082BF81E080932E0362
:101F500088818E7F888302EE10E0F8011082109253
:101F6000DA0081EEC82ED12CF601108288818F779D
:101F7000888388818068888388818F7D888319BC65
:101F80001092CA0310922D031092C90310922C03D1
:101F900090EEE92EF12CF70180818B7F8083888180
:101FA0008160888342E060E080E00E945C0FF6017F
:101FB00080818E7F8083F801808181608083808131
:101FC00088608083F70180818E7F80838881806133
:101FD0008883CDB7DEB7E8E00C94FD2BE091A10437
:101FE0009091A00427E0E91302C080E00895AE2F8D
:101FF000B0E02E9FF0011124EE55FB4F31813613D6
:1020000006C03081381303C03581341304C0FD018C
:102010003196E770E8CF81E008959C01AB016BB188
:10202000677F7BB17860EFB7F894CA01880F991F7A
:10203000840F951F820F931F8217930741F4EFBF00
:102040008FE594E00197F1F700C000000895D901F1
:102050004D919D0158E07BB9000000C047FF6BB96E
:10206000440F000000C000C000C06BB900C05A950A
:1020700091F7E2CF0F931F93CF93DF93EB018A0188
:102080009091CA03943079F58093E9008FEF909195
:10209000E80095FD07C095ED9A95F1F70000815095
:1020A0008111F5CF8091E80085FF1DC00E94F30EDD
:1020B000811114C08091E80085FD06C08091E80080
:1020C0008E778093E800F2CF88818093F1000150F1
:1020D00011090115110511F02196ECCF8091E8004E
:1020E0008E778093E800DF91CF911F910F91089533
:1020F000CF93DF93D82FC92F48E050E0682F792F76
:1021000081E00E943A1088E0ED2FFC2FA7E3B3E0B6
:1021100001900D928A95E1F7DF91CF910895BC016E
:1021200040E250E082E00E943A100895BC0146E08F
:1021300050E082E00E943A100895BC0143E050E074
:1021400082E00E943A100895A0E0B0E0EAEAF0E1EF
:102150000C94DF2BF82EE92EB62EA72E8A01809143
:102160002A03CC24C394D12C8A3018F48AE0C82ED8
:10217000D12CC1E0D0E06B2D7A2D8F2D9E2DF80152
:102180000995811116C02196CC16DD0694F0CC9FDE
:10219000C001CD9F900D900D112420E030E045E36B
:1021A0004A95F1F700002F5F3F4F28173907B9F71D
:1021B000E2CFCDB7DEB7EAE00C94FB2B90919E0402
:1021C00092FB222720F9281779F080FB92F990934F
:1021D0009E0460919D0470919E0484E090E00E94B2
:1021E0005C2D82E00E94330508958091630188236D
:1021F00059F180919D0487FF27C00E944B05809371
:10220000FF0240E250E064E274E08EEF92E00E9450
:10221000042D892BC1F080E2EEEFF2E0A4E2B4E0FD
:1022200001900D928A95E1F7E0914404F091450404
:10223000309749F086E08093FE020480F581E02D1E
:102240008EEF92E0099508950E944B058093F60267
:1022500048E050E066E474E086EF92E00E94042DCE
:10226000892B89F388E0E6EFF2E0A6E4B4E0019080
:102270000D928A95E1F7E0914404F091450430977E
:1022800011F30280F381E02D86EF92E0DBCFCF9354
:10229000C82F8823C9F08238C9F40E94E50B81FD5C
:1022A00013C089E30E94420C0E94F5102FEF37EE15
:1022B00083E0215030408040E1F700C0000089E316
:1022C0000E94760C0E94F510CF9108958338A1F4F6
:1022D0000E94E50B80FDF8CF83E50E94420C0E942E
:1022E000F5109FEF21EE34E0915020403040E1F7AF
:1022F00000C0000083E5E4CF8438A1F40E94E50B20
:1023000082FDE2CF87E40E94420C0E94F5108FEF1D
:1023100091EE24E0815090402040E1F700C00000A1
:1023200087E4CECF8CEF8C0F813A88F580916301E2
:10233000882301F180919D0487FF1CC0EC2FE69556
:10234000E695E695F0E0E250FD4F828190E04C2F5B
:10235000477021E030E002C0220F331F4A95E2F7B8
:1023600082239323892B79F08C2F0E94760C0E9474
:10237000F51009C0E8EFF2E08191C817A9F332E047
:10238000EE3FF307C9F78C2F0E94420C9BCF80E2EF
:102390008C0F883068F4C77081E090E001C0880F2E
:1023A000CA95EAF7C0919504C82BC09395048ACFCB
:1023B0008BE58C0F833038F42C2F2452330BC9015A
:1023C0000E94F60B81CFE8E5EC0FEB3150F4F0E022
:1023D000EE0FFF1FE254FD4F808191810E941C0C83
:1023E00073CF83E38C0F833108F06ECF61E08C2FC5
:1023F0000E94D70C69CF882309F456C0823879F43B
:102400000E94E50B81FF50C089E30E94420C0E94AC
:10241000F51089E30E94760C0E94F5100895833828
:1024200059F40E94E50B80FF3FC083E50E94420CF7
:102430000E94F51083E5EECF843859F40E94E50B35
:1024400082FF32C087E40E94420C0E94F51087E4AC
:10245000E1CF9CEF980F913AE8F290E2980F983014
:1024600050F4877091E001C0990F8A95EAF7892F9F
:102470000E947805D1CF9BE5980F933028F480E037
:1024800090E00E94F60B089598E5980F9B3128F490
:1024900080E090E00E941C0C089593E3980F933124
:1024A00018F460E00E94D70C0895882339F09091C9
:1024B0009504892B809395040E94F5100895882334
:1024C00021F00E9478050E94F5100895882339F0C4
:1024D00090919F04892B80939F040E94F51008958A
:1024E0001092950480916301882339F180919D04B5
:1024F00087FF23C0E0E0F3E08EE1DF011D928A95C3
:10250000E9F780E090E00E94F60B80E090E00E9406
:102510001C0C10929F040E94F51086E0E5E7F4E0A1
:10252000DF011D928A95E9F71092730410927204EC
:10253000109274040E94AF0C0895E8EFF2E086E078
:10254000DCCF0E9470122FEF84E39CE0215080408A
:102550009040E1F700C0000088E19AE00FB6F894DF
:10256000A895809360000FBE90936000FFCFAAE211
:10257000B0E0EDEBF2E10C94E62B8FE293E0FC018E
:1025800001962091F100208323E087339207B9F769
:1025900080913003893009F456C0C8F4823009F4C0
:1025A000B2C0833009F481C0813071F18091E800BC
:1025B00083FFE6C080912F03909130039A3008F09A
:1025C000DFC0E92FF0E0E751F24D0C94502C8A3037
:1025D00009F488C08B3051F780912F03813231F795
:1025E0008091330390913403892B01F78091E800A7
:1025F000877F8093E8000E94D40E809131038093FE
:1026000063010E947012D2CF80912F03813A71F63C
:102610008091E800877F8093E80080913303909158
:102620003403892B61F060E080E090E070E00E946C
:102630007B0E8091E8008B778093E800B7CF68E04D
:1026400087E393E0F3CF80912F03813209F0AECF7F
:102650008091330390913403029708F0A7CF8091C3
:10266000E800877F8093E8008091E80082FF18C02F
:102670009091F3008091F200029731F48091F10083
:10268000813011F0863021F48091F10080933F0376
:102690008091E8008B778093E8000E94D40E86CF6B
:1026A0008091CA038111E0CF81CF80912F03813ABD
:1026B00009F07CCF8091330390913403892B09F08A
:1026C00075CF8091E800877F8093E8008091E800D3
:1026D00080FFFCCF809163018093F1008091E8003E
:1026E0008E77D9CF80912F03813209F05FCF80910F
:1026F000E800877F8093E8000E94D40E8091320327
:1027000080932B0353CF80912F03813A09F04ECF52
:102710008091E800877F8093E8008091E80080FF47
:10272000FCCF80912B03D8CF803889F0823841F5D7
:10273000809133038F70873018F58093E900809182
:10274000EB0085FB882780F91092E90006C0809194
:102750002C039091C903911182609091E800977FBA
:102760009093E8008093F1001092F1008091E800CE
:102770008E7723C0811116C080913103813011F111
:102780008091E80083FF0AC08091E800877F8093F2
:10279000E8008091EB0080628093EB00AA96E3E072
:1027A0000C94022C823061F780913103882389F0E8
:1027B0001092E9008091E800877F8093E8000E94F2
:1027C000D40EDECF81E0933009F080E08093C9031E
:1027D000EFCF809133038F702FEF280F263080F6D4
:1027E0008093E9002091EB0020FFE2CF933031F499
:1027F0008091EB0080628093EB00DACF9091EB0048
:1028000090619093EB0021E030E0A90102C0440FF9
:10281000551F8A95E2F74093EA001092EA008091F2
:10282000EB008860E8CF8111ABCF109131031F77A7
:102830008091E3008078812B8093E3008091E80011
:10284000877F8093E8000E94D40E8091E80080FF8B
:10285000FCCF8091E30080688093E30083E0111156
:1028600001C082E08093CA038BCF8058823008F089
:1028700087CF40913103509132034C3D83E058079C
:1028800099F583E08A838AE289834FB7F894DE0161
:10289000139620E03EE051E2E32FF0E05093570022
:1028A000849120FF03C082958F703F5F8F708A30C4
:1028B000C8F0895C90E08D939D932F5F243161F780
:1028C0004FBF8091E800877F8093E8006AE270E064
:1028D000CE0101960E947B0E8091E8008B77809359
:1028E000E8004ECF805DE6CF209133033091340372
:1028F000852F99278330910509F160F48130910586
:1029000009F472C0029709F03BCF8BE390E0E6EA4E
:10291000F1E029C08132910509F45AC0829709F08B
:102920002FCF2115310509F469C02130310509F097
:1029300027CF86EB90E0ECEAF0E015C0CA019927BA
:102940004130B1F18230910509F43AC0892B09F088
:1029500017CFE7E1F2E0E4918E2F90E0E7E1F2E0BB
:10296000009709F40DCF2091E800277F2093E8001D
:1029700020913503309136038217930708F49C01A8
:1029800040E02115310509F03EC041113CC0809165
:10299000E80082FDA1CF8091CA03882309F49CCF6F
:1029A000853009F499CF8091E80083FFF0CF94CF70
:1029B000E1E0F2E0E4918E2F90E0E1E0F2E0D0CFB0
:1029C000E3EFF1E0E4918E2F90E0E3EFF1E0C8CF88
:1029D0002115310571F02130310509F0D1CE89E0A2
:1029E00090E0E1EDF1E0BFCF82E190E0E1EEF1E0D7
:1029F000BACF89E090E0E8EBF1E0B5CF84E490E075
:102A0000E2E6F1E0B0CF8091CA03882309F464CFF5
:102A1000853009F461CF8091E80083FD5DCF80911E
:102A2000E80082FDB4CF8091E80080FFAACF9091AA
:102A3000F3008091F2002115310519F088309105DD
:102A400050F041E0089709F040E08091E8008E776F
:102A50008093E80096CF44914093F1003196215045
:102A600031090196E8CF803809F08ACE8091E800DC
:102A7000877F8093E80080912D038093F10076CECC
:102A800081117ECE10913103123008F079CE809101
:102A9000E800877F8093E80010932D030E94D40EF6
:102AA000112381F084E08093CA0342E061EC81E06D
:102AB0000E945C0F42E261EC82E00E945C0F809118
:102AC000CA035ECE8091E30087FDECCF81E0EBCFBF
:102AD0001F93CF93DF93182FA0917E04B0917F04B2
:102AE000109709F44AC01092810410928004109249
:102AF0007C0410927B041796CD91DC911897CE013F
:102B00009A9581159F4108F4D07ED1E0C11101C092
:102B1000D0E01A96ED91FC911B97309731F01C96FE
:102B20006D917C9180E00995D823DD2339F08CEFFD
:102B30008C0F813A30F58C2F0E94760C1123A9F06E
:102B4000E0917E04F0917F04818584FD0EC0809128
:102B50007D04882351F0808191819C0121503109AD
:102B60002F333E4710F40E94350E0E94F51010924C
:102B70007F0410927E0410927D04DF91CF911F910B
:102B800008950E94F5108C2F0E94FB11D7CFA8E06A
:102B9000B0E0EDECF5E10C94E62B8091FA03909116
:102BA000FB03A091FC03B091FD03BC01CD010E9489
:102BB000150E11E0643671058105910578F10E94CA
:102BC000C80DDC01CB010296A11DB11D89839A833A
:102BD000AB83BC83809154019091550182509C4FEE
:102BE00020915301422F50E0253010F044E050E096
:102BF000BE016F5F7F4F0E94112D82E090E00E9426
:102C0000622B182F882351F00E94AB0D6093FA03BA
:102C10007093FB038093FC039093FD03812F289610
:102C2000E3E00C94022CAAE0B0E0E9E1F6E10C94B8
:102C3000E42BF62E072F80E090E00E94622B182FE5
:102C4000882309F462C080914601482F50E0882310
:102C500011F041E050E060914701709148016250ED
:102C60007C4FCE0106960E94112D80911804909100
:102C70001904A0911A04B0911B04BC01CD010E945B
:102C8000150E6F83788789879A8764367105810569
:102C9000910538F48FEF93E00E94430F9E818917CE
:102CA000A1F181E090E00E94622B8823C9F180911C
:102CB0004E01482F50E0863010F045E050E0609122
:102CC0004F017091500162507C4FCE0101960E94DD
:102CD000112D8FEF93E00E94430F9E81891320C036
:102CE0000E94AB0D609318047093190480931A042A
:102CF00090931B0485E0FE013196A3E1B4E00190BE
:102D00000D928A95E1F781E00CC085E0EFEFF3E0EA
:102D1000DE01119601900D928A95E1F71111EACF2B
:102D200080E095E0E3E1F4E0AF2DB02F01900D924B
:102D30009A95E1F72A96E5E00C94002CEF92FF9229
:102D40001F93CF93DF93CDB7DEB72F970FB6F894CD
:102D5000DEBF0FBECDBF88E0EDE8F4E09E012F5F3F
:102D60003F4F7901D90101900D928A95E1F72091A9
:102D70008A0490918B0480918C0429879A878B8791
:102D8000182F8091F6039091F703A091F803B0916A
:102D9000F903BC01CD010E94150E6C877D878E87DB
:102DA0009F87B7018C859D85AE85BF85843691054B
:102DB000A105B10510F4112301F180915C019091FE
:102DC0005D0182509C4F20915B01422F50E02C30DE
:102DD00010F04BE050E00E94112D83E090E00E9443
:102DE000622B882369F00E94AB0D6093F603709309
:102DF000F7038093F8039093F90310928C0481E019
:102E00002F960FB6F894DEBF0FBECDBFDF91CF91E6
:102E10001F91FF90EF900895A0E0B0E0E2E1F7E1AC
:102E20000C94DB2BFC018280648081E08483EBE1E5
:102E3000F2E09490EAE9F2E0E491009190040695C2
:102E4000015810E0000F111F012F1127C8E4D3E033
:102E500021E9C22E23E0D22EAA24AA94B12C7724F1
:102E60007A94E919EE2EF12C82E0881530F08091E9
:102E70008E04888380918F048983611017C01B8220
:102E80001A8296014A81698188810E944F0825969D
:102E900083E0C80ED11C83E0CE38D80729F70E9402
:102EA000E908CDB7DEB7EEE00C94F72B8B818823D1
:102EB000E9F081508B83789EC00111246C8170E011
:102EC0000E94282CFB01FF27E55EFD4F8491E82F2F
:102ED000E9197E9EC0011124B7010E94282C80911F
:102EE0009004689FB00111247A83CBCF0E94E72C15
:102EF000B5010E943C2C801791070CF0C2CF82E0F4
:102F0000881588F40E94E72CB5010E943C2C888328
:102F10000E94E72C20918F042695622F70E00E947A
:102F20003C2C280F29831A8280919004893C20F040
:102F300088EC8C838B83A5CF8431D8F784E1F9CFDB
:102F4000A0E0B0E0E6EAF7E10C94E12B8901D42F90
:102F5000C52F6B017C010E94DB08A8016D2F7C2F1F
:102F600088E090E00E94502D98014D2F5C2FB60113
:102F7000C70100E20E94802C622F83E290E00E9451
:102F80003E2DCDB7DEB7E8E00C94FD2B8091910487
:102F9000833018F48F5F8093910420918D043091D9
:102FA0008E0440918F04509190046091910470912F
:102FB000920480919304909194040E94A017089524
:102FC00080919104882319F081508093910420917D
:102FD0008D0430918E0440918F0450919004609143
:102FE00091047091920480919304909194040E94B2
:102FF000A0170895A3E0B0E0E0E0F8E10C94D82B2E
:10300000F82E562EE42E422E90918D0490FF42C051
:1030100030918E04381308C080918F04861304C049
:1030200080919004841729F080918C0482608093B1
:103030008C04E92FE695E695AE2FB0E0AB57BD4F77
:103040008C9180938A049C7F943041F59E012F5F80
:103050003F4F4E2D652D8F2D0E944F084B8169816A
:103060008A810E94FE083F2D30938E0450928F0477
:10307000E0929004442071F020918D0460919104BD
:1030800070919204452D5E2D80919304909194044B
:103090000E94A0172396E1E10C94F42B823019F4DE
:1030A000E0909004E0CF8630F9F28930E9F289317E
:1030B000D1F6E9518E2F8170382EE695F0E0E55E6D
:1030C000FC4FE4910E2F10E081E9C82E83E0D82E4A
:1030D0009BEB892E93E0992EA12CB12C2EE0622E31
:1030E000712CC501B3010E94282C8F2D311011C005
:1030F000860F96014E2D652D0E944F08A00EB11E21
:1031000083E0C80ED11C8C149D0459F70E94E90875
:10311000AACF861BEECFEDE8F4E0818121E0438168
:103120006281885F0E94FA170895EDE8F4E08181DA
:1031300021E04381628188500E94FA170895EDE8EA
:10314000F4E0628128E0620F08F46FEF21E0438130
:1031500081810E94FA170895EDE8F4E0628128E089
:10316000621B08F460E021E0438181810E94FA172C
:103170000895EDE8F4E0438128E0420F08F44FEFB2
:1031800021E0628181810E94FA170895EDE8F4E060
:10319000438128E0421B08F440E021E06281818104
:1031A0000E94FA17089560918D046695669570E007
:1031B0004BE050E08DE291E00E94F72C892B19F44E
:1031C00081E080938B040E94FB0D9093EC0380932D
:1031D000EB0380918C04846080938C04089590911B
:1031E0008D0490FF42C0882309F440C08B3208F060
:1031F0003FC08F73282F220F220F80918D04837080
:10320000282B20938D0480918C04816080938C0402
:10321000662381F030918E0440918F045091900488
:103220006091910470919204809193049091940420
:103230000E94A01760918D046695669570E04BE042
:1032400050E08DE291E00E94F72C892B99F00E94CA
:10325000370981E08093EE0320E040919004609173
:103260008F0480918E040E94FA17089581E0C2CFE6
:103270008AE2C0CF0E94D318ECCF80918D0486954E
:1032800086958F5F8B3208F081E061E00E94EF1835
:10329000089590918D04969596958FEF890F9130B2
:1032A00009F48AE261E00E94EF18089590918D047C
:1032B00090FF09C096959695981728F0961718F4E0
:1032C0000E943D19089561E00E94EF180895A9E158
:1032D000B0E0EDE6F9E10C94DC2B1D861C86FE01C6
:1032E0003E9688E0DF011D928A95E9F780EBA82ED3
:1032F00082E0B82E8E01045F1F4F4801EE24E39454
:10330000F12C2CEBC22E22E0D22EF50181915F012F
:103310008F3F09F441C0F894E82FE295EF70F0E098
:1033200021A18F70A70102C0440F551F8A95E2F7B3
:10333000CA01922F982B91A392A18095892382A3F1
:10334000789400C0E5EBF2E031E0712C21912F3F41
:1033500009F492C0A22FA295AF70A05EB0E08C914C
:1033600090E02F7002C0959587952A95E2F78170BD
:10337000811182C0832F782A330FCE16DF0631F7F2
:10338000F501319780818F3F11F00E94350850EA96
:103390005A95F1F7D8017C920F5F1F4FB5EBAB1632
:1033A000B2E0BB0609F0B1CF4AE050E0B4018BEBCC
:1033B00093E00E94042D0091C60310E005531C4FBA
:1033C000892B09F45BC08AE0F401ABEBB3E0019018
:1033D0000D928A95E1F781E0809327030E94A30C68
:1033E000909326038093250380912004882309F479
:1033F0009DC01A821982FE01339683E0DF011D927F
:103400008A95E9F780912A038A3008F059C043E190
:1034100056E1FE0131967F01BF01C8010E94A41050
:103420006701882309F470C047EC55E1B701C80172
:103430000E94A410882309F467C04EE956E1B70141
:10344000C8010E94A410882309F45EC010922A03C8
:103450008091C50390E045E050E0B60185539C4F54
:103460000E94042D21E020932403892B09F03FC002
:103470006996EDE00C94F82B80E07DCF80912703D6
:10348000882309F4B1CF80912503909126030E94EF
:10349000060E059708F4A8CF45E050E06BEB73E00B
:1034A000C8010E94042D892B41F085E0EBEBF3E08D
:1034B000D80101900D928A95E1F71092270394CFDD
:1034C00080912203909123030E94060E843F914035
:1034D00008F09DCF80912403882351F285E0FE01FE
:1034E0003196DF011D928A95E9F710922403A0918D
:1034F000C503B0E0A553BC4F85E0FE0131960190B5
:103500000D928A95E1F7B4CF80912A038F3F39F469
:103510000E94A30C9093230380932203DBCF8F5F41
:1035200080932A038A3008F493CFF2CF85E0F80124
:10353000AFEFB3E001900D928A95E1F78FEF93E042
:103540000E94430F8093FE03C0900404D0900504B2
:10355000E0900604F090070480911E0390911F03F1
:10356000A0912003B0912103C816D906EA06FB06F4
:10357000B1F0C0921E03D0921F03E0922003F0929C
:1035800021030E94AB0DC61AD70AE80AF90AC092B5
:103590001C04D0921D04E0921E04F0921F048BE0E4
:1035A000E8E0F4E0DE01119601900D928A95E1F7D2
:1035B0008091080486958695F0900904E0900A04AD
:1035C000D0900B0400911104109112041092120477
:1035D000112309F44DCF10FF0BC0298190918D0468
:1035E00020FF1AC0916090938D0460E00E94EF1854
:1035F00011FF06C020E04D2D6E2D8F2D0E94FA1771
:1036000012FF04C00023A9F00E94D31813FF30CF8B
:1036100081E08093EE032CCF9E7F90938D040E94D7
:10362000370980918C04816080938C040E94E908A2
:10363000DFCF0E943709EACF0F931F93CF93DF9319
:10364000C62FD42F122F8823A9F0609388040E94DC
:10365000A30C9093290380932803C77081E001C0D5
:10366000880FCA95EAF70E945512DF91CF911F91FA
:103670000F91089580918804681338C080912803C1
:10368000909129030E94060E8F3A910578F5CD138B
:103690000FC0812F0E944711812F0E94FB11D7700C
:1036A00081E001C0880FDA95EAF70E945F12DDCF52
:1036B000C77001E0802F01C0880FCA95EAF70E9409
:1036C0005F1280E28D0F883050F48D2F877001C01B
:1036D000000F8A95EAF7802F0E945512DACF812FCA
:1036E0000E944711812F0E94FB11BFCFC77081E05C
:1036F00001C0880FCA95EAF7D8CFA0E0B0E0E3E8B0
:10370000FBE10C94D82B8C01DC0114968C9188235E
:1037100091F161E0C8010E94DE07EC01F8015580DB
:10372000552071F18E35FCE79F0789F08F352CE726
:10373000920739F08D359C4719F5809164018823F3
:1037400031F01092640180E00E94681503C081E0AE
:103750008093640180919C048770882361F0D80174
:1037600015968C91882339F080919E0482FF03C0C6
:1037700082E00E943305CDB7DEB7E1E10C94F42B73
:1037800080916401882309F4F9C04E0180EE881A03
:1037900091084090970480919504482A809196045E
:1037A000482A98E08916910408F0C8C09E01277045
:1037B000332781E090E001C0880F2A95EAF7552071
:1037C00009F4B9C0482AD8018D919C910E94F60451
:1037D00021E030E0390102C0660C771C8A95E2F7DF
:1037E000A0907E04B0907F04312CE32DF0E0EE0F2A
:1037F000FF1FEC5FFE4FE080F180E114F10409F45B
:1038000019C1411004C0F70182818111E5C0D701BF
:1038100013968D919C91149786219721892B09F4F9
:10382000DBC019968C91982F97709111C7C0B8E0A2
:103830008B16910408F0D2C05110C8C0F701C080A7
:10384000D180CC15DD0509F4C7C0EA14FB0409F4E6
:10385000C3C0D7011E96ED91FC91309721F0808175
:10386000882309F4B9C0642DC7010E946D0B882319
:1038700009F4B2C0CC15DD0511F4511005C0C11416
:10388000D10409F0B3C0512C80E00E946815F09279
:103890007F04E0927E0481E080937D04F7018681BD
:1038A00080937C0451100DC0CD2859F08081918106
:1038B0009C0124503109213A310508F09FC00E9433
:1038C000760CF701C780D084C6019A9581159F4177
:1038D00010F420EED222BB24B394C60101978F339B
:1038E0009E4708F0B12CD7011A96ED91FC911B97D9
:1038F000309731F01C966D917C9181E00995B8224A
:1039000081E05826BB2009F492C0F7018781908599
:103910000E946A0480937B04C601F8E08F1691042C
:1039200008F06FC00E94350E0E94F51051103BC187
:103930000E94F5100FCF8095482245CF51102BC023
:103940008091860490918704C817D90781F410925A
:1039500087041092860410928204109283041092BD
:103960008404109285041092810410928004E091E6
:103970007E04F0917F04309709F0DBC0F801858167
:10398000FE01E851FC47E730F10508F02BC1ED508E
:10399000F24D0C94502CD0938704C09386040E945F
:1039A000AB0D60938204709383048093840490939E
:1039B0008504109281041092800405CFE8E08E16F1
:1039C000910478F4552031F081FF06C0D701CD90E5
:1039D000DC903BCF82FD32CF339407CF5110F6CF2E
:1039E000FBCF5520C9F380FFF7CFF0CF809186043D
:1039F000909187048C159D0579F745CF0E94FB11A6
:103A000060CF0497813A910530F48C2D0E94420CCE
:103A10005110B4CF8DCF0E94F5108FE39CE9019730
:103A2000F1F700C000008C2D0E944711F1CF0E94D9
:103A3000F510EECFA114B10409F4A0CF98E08916D7
:103A4000910408F082C0642DC5010E946D0B8111A4
:103A5000AAC081E00E946815D80115968C91882330
:103A6000B9F010928804CA35FCE7DF0709F468C290
:103A700008F030C2C1303CE7D30709F45FC2C3305D
:103A80008CE7D80709F454C2C115DC4709F434C2E5
:103A9000F8018581E080F180882309F455C2C701CF
:103AA0000E94AA07C82F682FC7010E94C004B7014F
:103AB0008C2F0E9480050E949106D82FC92FD80113
:103AC0001596DC9015971696CC90C2942FE0C222E2
:103AD00080919C048770882301F1ED2CDD20F1F0AA
:103AE000892F807F803461F080E28D0F8830A8F0CC
:103AF000892F807E803221F4D23078F0CC2069F09A
:103B000080919E0482FF09C082E00E94330580916B
:103B10009C048770EE24E3948111E12CEC2FE29554
:103B2000EF70C03C08F07BC2F0E0E650F24D0C9420
:103B3000502C80819181C817D90709F01FCF1092AE
:103B40007D0480E00E94681519CFF5018081918184
:103B5000C817D90731F4552091F3818585FD0ECF23
:103B6000F0CF552009F40ACF8185F8CF26E241EE47
:103B700061EE0E941C1BEECD27E245EE65EEF9CF0B
:103B800026E241EE60EEF5CF27E245EE64EEF1CF9E
:103B900026E241EE62EEEDCF27E245EE66EEE9CF9A
:103BA00028E241E0EBCFD80115968C91882309F4E7
:103BB00004C110928804CE019057839708F053CF28
:103BC00084E090E00E94282D90939E0480939D04B1
:103BD000FE01E150F047E232F10570F5EA5FF14D88
:103BE0000C94502C81110DC0C631BCE7DB0709F0E5
:103BF000E4C0809189048111DEC089E20E94760CC4
:103C000097CE10928804CE0190578397C8F2C631A0
:103C1000ECE7DE0709F027CF809195048A7A91E0DE
:103C2000811101C090E090938904882309F4C1C0F8
:103C300085E30E94420C7CCE80919D04816080933C
:103C40009D0460919D0470919E0484E090E00E9428
:103C50005C2D0E9470127ECD80919E0488608093BE
:103C60009E04EFCF80919D048260E9CF80919D04F6
:103C70008460E5CF80919D048860E1CF80919E04AF
:103C80008160EDCF80919E048260E9CF80919D0498
:103C90008061D5CF80919D048062D1CF80919D04B9
:103CA0008064CDCF0E94701280919D048068C7CF40
:103CB00080919D048C60C3CF80919E048360CFCFA0
:103CC00080919D048E7FBBCF80919E04877FC7CF5C
:103CD00080919D048D7FB3CF80919D048B7FAFCF6A
:103CE00080919D04877FABCF80919E048E7FB7CF5C
:103CF00080919E048D7FB3CF80919D048F7E9FCF56
:103D000080919D048F7D9BCF80919D048F7B97CF69
:103D10000E94701280919D048F7791CF80919D04B5
:103D2000837F8DCF80919E048C7F99CF80919D045D
:103D300082FB992790F921E0922790FB82F990FB72
:103D400083F97DCF80919E04982F909591708E7FFE
:103D5000892B90FB81F983CF90919D04892F8F7BD4
:103D600096FF80646CCF0E94701290919D04892F01
:103D700097FB87F9805863CF61E08EE090E00E9466
:103D80003E2D5FCF60E0F9CF90919D04892F8F7E0B
:103D900094FF806154CF90919D04892F8E7F90FF76
:103DA00081604DCF90919E04892F877F93FF88601B
:103DB00056CF89E23ECF85E321CF80919504827270
:103DC000FE01E052F847E531F10508F061CEE85D0B
:103DD000F14D0C94502C80918D0480FF1EC0282F33
:103DE0002E7F20938D0430918E0440918F0450914A
:103DF0009004609191047091920480919304909149
:103E000094040E94A0170E94370980918C0481605D
:103E100080938C040E94E9089DCC816080938D047E
:103E200061E0869586950E94EF1894CC49E459E1AB
:103E30006DE379E10E94640B8DCC4DE359E169E4B7
:103E400079E1F8CF45E958E16BE878E1F3CF4BE849
:103E500058E165E978E1EECF4CEA58E16FE978E1A5
:103E6000E9CF4FE958E16CEA78E1E4CF46EC58E15C
:103E700069EB78E1DFCF49EB58E166EC78E1DACF26
:103E800040EE57E166EC77E1D5CF46EC57E160EEC6
:103E900077E1D0CF61E081E0C6CF65E082E00E94AB
:103EA000561958CC68E086E0FACF6EE089E0F7CF8B
:103EB00064E18FE0F4CF67E185E1F1CF61E088E173
:103EC000B2CF62E289E1EBCF61E083E2ACCF6AE29C
:103ED00085E2E5CFCB35ACE7DA07A1F1CC35DC479D
:103EE00009F0D6CD80919E0482FB882780F991E06D
:103EF00089270E94DE10CCCD0E947012EFEFF4E310
:103F00002CE0E150F0402040E1F700C0000087E7DE
:103F100097E7909301088093000888E19AE00FB634
:103F2000F894A895809360000FBE90936000FFCF37
:103F30006FEF7FEF80E090E00E945C2D0E94A11265
:103F400081E0D7CF80E0D5CFC7010E94F604C82F0B
:103F5000AECDBC2FBF70FB2EC03118F0F29490EFA5
:103F6000F922DD20B9F0FF2069F080E28D0F883062
:103F700010F0D11109C0809195048F298093950488
:103F80000E94F5108D2F43C080919F048F2980934C
:103F90009F04F6CF8D2F0E94FB11FF2009F43FC034
:103FA00080E28D0F883010F0D11104C08F2D0E9457
:103FB000780506C0F09480919F048F2180939F0420
:103FC0000E94F5102CC0EC2FEF70FE2EC07FC03287
:103FD00019F0F29480EFF822DD2349F0D13009F492
:103FE0006CC0DD2009F478C0CC20D1F1CBCF80911A
:103FF0009E0482FD31C0DD2069F0FF2039F0809100
:1040000095048F29809395040E94F51080E00E940A
:10401000471105C080E00E94FB11F110C7CFEE20D0
:10402000B1F080919C0480FD12C0D80115961C92BD
:104030008695869586950E949E04C8010E947D1BE8
:1040400080919C048695869586950E94AE0460E0DA
:10405000C8010E94DE078FCBDD2099F0C11004C09B
:104060008F2D0E945512DBCFF1E0CF12D8CF809177
:1040700096049F2D9823F91691F28F298093960428
:10408000CECFC110CCCF8F2D0E945F12909196049D
:104090008F2D8923882329F08F2D80958923809364
:1040A0009604809197049F2D9823992309F4B7CF04
:1040B000F094F822F0929704B2CFDD2029F025E0A9
:1040C0002C1508F4ACCFCCCF34E03C1508F4A7CFC6
:1040D0008F2D0E945F12A3CFCC20D1F3D93349F4A6
:1040E0008FEF97EEA3E081509040A040E1F700C031
:1040F00000008D2F0E94FB1192CF8C2F8695869504
:104100008370882369F0813009F089CF8D2F9C2F2F
:104110009370D11002C080E090E00E941C0C7FCF11
:104120008D2F9C2F9370D11002C080E090E00E94F0
:10413000F60B75CF6D2D8D2F0E94D70C70CF8C2F65
:104140008370811142C0D1102FC04D2F42954695EA
:104150004770440F440F2D2F2F7030E0042E02C003
:10416000220F331F0A94E2F780E090E0D4FF09C0E9
:104170008FE090E002C0880F991F4A95E2F7809582
:104180009095C695C695C370C230B1F0C33089F022
:104190004091980450919904C13049F0822B932B9F
:1041A000842395230E9494040E94E50B38CF242B8E
:1041B000352B822B932BF6CF822B932B20919804B7
:1041C0003091990482279327EDCFDD2091F1C0FF34
:1041D000EBCF4D2F429546954770440F440F2D2F3E
:1041E0002F7030E0042E02C0220F331F0A94E2F732
:1041F00080E090E0D4FF09C08FE090E002C0880F1B
:10420000991F4A95E2F780959095C695C695C3701B
:10421000C230C1F0C33099F040919A0450919B0490
:10422000C13059F0822B932B842395230E9499044B
:10423000BBCF823008F4B8CFCCCF242B352B822BC8
:10424000932BF4CF822B932B20919A0430919B04D3
:1042500082279327EBCFCF70DD2039F08C2F0E947F
:104260009E048D2F0E9455129FCF8D2F0E945F12AA
:104270008C2F0E94AE0498CFD23FA1F178F4D03FAA
:10428000C1F0D13F09F447C0DD2009F466C0CC205D
:1042900009F460C08D2F0E94471186CFD33F49F1AA
:1042A000D43FA9F1D110F3CFC11065C08C2F8F710D
:1042B000E0CFDD20A1F0B4E0BC1508F475CFCF71DC
:1042C00081E090E0FC0102C0EE0FFF1FCA95E2F70B
:1042D00080919A0490919B048E279F27A7CFF5E0A9
:1042E000CF16EBCF8C2F8F71D110C3CF0E949E04BD
:1042F0005BCF80E090E0DD2009F498CFCF7181E0C2
:1043000090E002C0880F991FCA95E2F78FCF909175
:104310009E0492FD06C08C2F8F71DD2009F4A9CF79
:10432000E5CFDD2061F08C2F8F7192FFDFCF98E019
:10433000899F90011124236020939C04D7CF81E0B2
:104340000E943305A1E0AC1508F02ECF82E00E9458
:1043500033052ACF8C2F8F71C9CFCC2009F4A6CF7B
:10436000D93349F4BFEFE7EEF3E0B150E040F0405D
:10437000E1F700C000008D2F0E94FB1115CF809146
:10438000E004803178F48091DF04882359F0E091D3
:10439000A1042091A0043091DB044091DA0457E09D
:1043A0002E1301C008956E2F70E05E9FF00111245E
:1043B000DF01AE55BB4F14968C911497882361F1A1
:1043C00011968C911197831327C08C91841324C06C
:1043D00015968C91159781111FC012968D919C9105
:1043E000A091DC04B091DD048A1B9B0B8F3A9105F0
:1043F00098F48091E0048F7080618093E004E85528
:10440000FB4F80818F70806180838AED94E00E94F1
:104410007D1B0E9429050895FB013196E770C0CFEE
:10442000ADE0B0E0E6E1F2E20C94DC2B8C0186E03A
:10443000F801DE01189601900D928A95E1F7F801D6
:10444000E080F580A280B380C4808AED882E84E06D
:10445000982E7090DE04711020C0CC20D9F0FF207F
:1044600009F419C1C8010E940D08882309F413C179
:1044700087E0F801D40101900D928A95E1F7F1E00F
:10448000CF1206C08091DA049091DB040E94FE07EF
:104490000E94BF21FF24F39451C0D090DF0480918B
:1044A000DC049091DD049501281B390BDD2009F413
:1044B000BAC02F3A310508F090C0CC2059F3909142
:1044C000DB04C1808091E004803108F058C0C9123B
:1044D00014C09091DA049E1110C0F1104AC08F7080
:1044E00080618093E0048AED94E00E947D1B8091BE
:1044F000E004F8018683F12C21C0F1103AC040E0BD
:104500006C2D8E2D0E94EE0F40E06C2D8E2D0E94A2
:10451000EE0FF82E8111EFCF888599850E94FE0756
:10452000292F22952F70903470F49F702230A0F0C4
:104530009923B1F0F8019681903190F48F2D2D964A
:10454000EDE00C94F82B2A5F2F70223068F0C80140
:104550000E947D1BFD2CF2CF992311F0882371F36B
:10456000805E883058F3F3CF803F40F3815F823024
:10457000F9CF8091E00481608093E004BCCFC91240
:1045800007C09091DA049E1103C0FF2009F46CC0AB
:10459000C8010E940D08882309F47DC0FF2009F49A
:1045A0007AC08091E004803278F02091DA04309172
:1045B000DB043A832983BC82AB827D821E828F8397
:1045C000CE0101960E947D1B87E0F801AAEDB4E0C0
:1045D00001900D928A95E1F75BCF8091E0048031E4
:1045E00050F48AED94E00E947D1B87E0F401119263
:1045F0008A95E9F780CFCC2009F44CCF2091DB04D9
:1046000091812913C5CF9091DA049E11C1CFF11089
:10461000BFCF8683C8010E947D1B87E0F401119201
:104620008A95E9F737CF2F3A3105F8F6CC2009F40F
:1046300031CFFF2081F19091DB048181981321C05B
:104640008091DA048E111DC08091E00480FD10C0BD
:10465000803170F08683807F803F39F08681982F8B
:10466000907F905F8F70892B8683C8010E947D1B8D
:1046700087E0F801AAEDB4E001900D928A95E1F788
:1046800009CFC8010E940D0881119ECF8091E004DE
:1046900081608093E004C8010E947D1BFBCEABE1EA
:1046A000B0E0E5E5F3E20C94E62B4E8B5F8B688F70
:1046B000798F8A8F9B8F911110929F041D8A86E0BB
:1046C000FE017696DE011F9601900D928A95E1F724
:1046D0008B89882329F061E0CE010F960E94DE07C6
:1046E00087E0FE013F96DE01189601900D928A95B3
:1046F000E1F7CE0108960E94102281112BC087E0BD
:10470000FE013896DE01119601900D928A95E1F72F
:104710002091A0044091A1048C858823D9F030E039
:10472000C90101968770992750E084179507E9F031
:1047300097E0929FD001939FB00D1124AE55BB4FCF
:10474000FE01319601900D929A95E1F78093A004B5
:104750000E94290517E08091A1049091A00489137B
:1047600012C06B96E3E00C94022C0E94701210921F
:10477000A0041092A10487E0EAEDF4E0DF011D92AD
:104780008A95E9F7E7CF189FC00111248E559B4FFA
:104790000E941022882329F38091A10490E00196C1
:1047A000877099278093A104D6CFA6E0B0E0EBED07
:1047B000F3E20C94E52B0E94A30C8C01809122045F
:1047C000909123048017910779F019821A820E9430
:1047D000A30CBC0149815A8180E090E00E944F23E4
:1047E00010932304009322042696E4E00C94012CF9
:1047F000CDB7DEB72E970FB6F894DEBF0FBECDBF94
:1048000085B7806885BF85B7806885BF84B7877F97
:1048100084BF0FB6F894A89580916000886180935A
:104820006000109260000FBE80E890E00FB6F89430
:1048300080936100909361000FBE83E398E09093B2
:10484000F5028093F4020E94240F0E94930F80913E
:10485000E20084608093E20078948091CA03882308
:1048600099F08091E9001091EC00179511271795A8
:104870008F70182B1092E9008091E80083FD0E9450
:10488000B7121F701093E90082E084BD93E095BDDC
:104890009AEF97BD80936E0010921C0410921D0435
:1048A00010921E0410921F048091D80080618093A2
:1048B000D8002AE12A95F1F700C08091D90080FF45
:1048C000D5C181E080932004809321048093380136
:1048D0000E94742A809138018091380190E0811102
:1048E00001C095E09093C60385E0891B8093C503C2
:1048F00000EB12E0D8018D918D018F3F11F00E94E5
:104900003508B2E0053B1B07A9F705EB12E08CEB7D
:10491000E82E82E0F82EF80181918F018F3F11F08F
:104920000E943508E016F106B1F78AE0EBECF3E0FF
:10493000DF01282F1D922A95E9F7EBEBF3E0DF0169
:104940001D928A95E9F780E090E00E94282D853E2F
:104950009E4F09F461C065EE7EEF80E090E00E941A
:104960005C2D60E082E090E00E943E2D81E090E0CE
:10497000909399048093980461E083E090E00E9412
:104980003E2D60E074E184E090E00E945C2D60E0E8
:1049900086E090E00E943E2D60E087E090E00E947B
:1049A0003E2D40E050E0BA0188E090E00E94502D9A
:1049B00060E083E290E00E943E2D60E08CE090E0B9
:1049C0000E943E2D60E08DE090E00E943E2D198215
:1049D0001A821B821C821D821E821F82188648E05A
:1049E00050E067E170E0CE0101960E942E2D40E07C
:1049F00050E0BA018FE190E00E94502D40E050E07D
:104A0000BA018FE090E00E94502D40E050E0BA01E2
:104A100083E190E00E94502D82E090E00E941A2DE8
:104A20008093D50384E090E00E94282D90939E040B
:104A300080939D0483E090E00E941A2D90E00E94F4
:104A400094048091C70381119DC088E090E00E948A
:104A5000222D6B017C0183E290E00E941A2D282F09
:104A600030E040E050E060E070E080E090E000E2A4
:104A70000E94652CF22FA32EB42EB52FA62FE72F60
:104A80009701860140E050E0BA01FC29A12AB22A30
:104A9000B32BA42BE52B862B972BF0938D04A092A0
:104AA0008E04B0928F04B0939004A0939104E0938D
:104AB0009204809393049093940420918C04236037
:104AC00020938C04F43008F04BC025E020938D0433
:104AD00010928E042FEF20938F0420939004109255
:104AE000910425E030E04FEF5FEF60E07E2F0E9401
:104AF000A01788E090E00E94222D6B017C0183E2E8
:104B000090E00E941A2D282F30E040E050E060E055
:104B100070E080E090E000E20E94652C5901B42F23
:104B2000A52FF62FE72F9701860140E050E0BA014C
:104B3000AC28B12AB22BA32BF42BE52B862B972B79
:104B4000A0928D04B0928E04B0938F04A093900431
:104B5000F0939104E09392048093930490939404CF
:104B60000E94DB080E9437090E946B0B80918D0424
:104B700080FF05C060E0869586950E94EF1881E071
:104B80008093C70380912004811102C00E94772A7C
:104B900089E391E09093450480934404B0EE6B2E3A
:104BA000B3E07B2ECE01019618E1C12ED12C05ED8C
:104BB000A02E03E0B02E8D879E878091CA0385309A
:104BC00049F48091CA03853009F45BC00E947012D9
:104BD0000E94E50B0E94671906ED13E0ABECEA2E8C
:104BE000A3E0FA2ED701F80191918D916E167F0600
:104BF00009F495C09817C1F320902004912CD70197
:104C00008D907D01F80131908F01381441F13824E5
:104C1000512C44244394842D83218823C1F02220E5
:104C2000B1F059829A820E94A30C9C838B83F1E09D
:104C3000FD8391E0842D8821811101C090E09E8345
:104C400049815A816B817C818D810E944F235394CD
:104C5000440C27E05212DFCFF80131978082939401
:104C60003AE09312CCCF0E94C80D5DC00E94240F81
:104C70001092CA031092200410922104109238015D
:104C800029CE8091CA03843011F11092C803E0E468
:104C90000FB6F894A895C09260000FBEE093600034
:104CA00083B7817F846083BF83B7816083BF78943B
:104CB000889583B78E7F83BF0FB6F894A8958091AF
:104CC0006000886180936000109260000FBE809148
:104CD000C903882309F475CF0E946719EBECF3E050
:104CE0008191811104C0AE16BF06D1F76ACF80E171
:104CF00089BD82E189BD09B400FEFDCF8091D80055
:104D00008F7D8093D8008091E00082608093E000E6
:104D10008091E00081FDFCCF0E94701252CF981369
:104D20006BCF0E94D52380912004882309F44CC0C6
:104D300000918004109181040115110509F444C00B
:104D40008091E4039091E503A091E603B091E7031D
:104D5000BC01CD010E94150E69877A878B879C87DD
:104D60008091E0039091E103A091E203B091E3030D
:104D700029853A854B855C85281739074A075B07E3
:104D800018F1C8010E946A049801205E3109283098
:104D9000310508F0F4C00E945512802F0E9447117F
:104DA00010928104109280041092E4031092E503A3
:104DB0001092E6031092E7031092E0031092E103D1
:104DC0001092E2031092E30380918B04882309F48C
:104DD00066C080918A04E0918D04E695E695E81B13
:104DE000E093ED03823009F0CDC0F0E0EF5CFB4FC3
:104DF000E4910E2F10E0FEE3EF2EF9E0FF2E8091FC
:104E0000EE03882361F01092EE030E94FB0D909355
:104E1000EC038093EB031092F0031092EF030E94D7
:104E2000FB0D9C018091EB039091EC03A901481BC1
:104E3000590B4F3F5F4798F54091EA034423B1F087
:104E40001092EA034091E8035091E903241B350BCB
:104E50002F3F3F4758F4405D5A485093E903409331
:104E6000E80320918C04286020938C048090EF0349
:104E70009090F003800F911F9093EC038093EB03CD
:104E80008BEE93E0F70109958091EF039091F00389
:104E9000892B29F4892819F081E08093EA0386E0C0
:104EA000E5E7F4E0AD85BE8501900D928A95E1F7C6
:104EB000F090760400917704109178049090790432
:104EC000E0907A041092770410927804109279049A
:104ED00010927A04812F802B882371F08091F30344
:104EE0009091F4030E94060E9C018091730481113D
:104EF000B9C0232B09F0BCC08E2D8929882371F0FD
:104F00008091F1039091F2030E94060E9C01809122
:104F100072048111E5C0232B09F0E8C0809176046A
:104F2000F81216C080917704882311F0801310C006
:104F300090917804992311F019130AC020917A04F2
:104F4000211106C020917904211102C0892B811101
:104F50000E94AF0C86E0ED85FE85A5E7B4E00190E8
:104F60000D928A95E1F70E94E50B9091F503891760
:104F700009F423CE8093F5030E94AB0D1ECE0E9450
:104F800066120BCF08E210E09BE5E92E9AE0F92EBD
:104F9000883109F434CFE0F48F3009F440C058F47C
:104FA000863031F1893079F100ED17E0EEE4EE2E34
:104FB000E8E0FE2E24CF8531B9F7F0E0EB5DFB4F42
:104FC000E4910E2F10E047EFE42E49E0F42E17CFC6
:104FD000843209F440C0853271F1833229F7E3E26B
:104FE000F4E00591149139EEE32E3AE0F32E07CF69
:104FF000F0E0E25DFB4FE4910E2F10E077E2E72E48
:1050000079E0F72EFCCEE695F0E0E55DFB4FE4910C
:105010000E2F10E062E5E62E69E0F62EF0CEE69562
:10502000F0E0E85DFB4FE4910E2F10E05CE7E52E29
:1050300059E0F52EE4CE8E2F63E00E940E2CE92F6E
:10504000F0E0E05EFB4FE4910E2F10E02CE0E22E4A
:1050500027E1F22ED4CE04EF11E083E2E82E8BE0BC
:10506000F82ECDCE2131310508F446CF8F3F19F00F
:105070008F5F80937304002359F00E949C0B9FEF75
:1050800010160CF491E0899F802D112480937704F1
:10509000112359F00E949C0B91E011160CF09FEF28
:1050A000899F802D11248093780480917704882330
:1050B00009F422CF80907804882009F41DCF0E9443
:1050C0008E0B811101C081E080937704882D0E94AE
:1050D0008E0B882319F0809378040ECF81E0FBCFEC
:1050E0002135310508F41ACF8F3F19F08F5F809377
:1050F0007204992059F00E94C00B9FEF19140CF410
:1051000091E0899F802D112480937904EE2059F03D
:105110000E94C00B91E01E140CF09FEF899F802D20
:10512000112480937A0480917904882309F4F6CEBF
:10513000E0907A04EE2009F4F1CE0E948E0B8111EA
:1051400001C081E0809379048E2D0E948E0B88230C
:1051500019F080937A04E2CE81E0FBCF1F921FB654
:105160001F9211248F939F93AF93BF938091C80395
:10517000811113C08091400390914103A09142039B
:10518000B09143034196A11DB11D809340039093BC
:105190004103A0934203B0934303BF91AF919F910A
:1051A0008F911F901FBE1F90189578941F921FB665
:1051B0001F9211248F939F93AF93BF9380914003CD
:1051C00090914103A0914203B09143030196A11D28
:1051D000B11D8093400390934103A0934203B09389
:1051E0004303BF91AF919F918F911F901FBE1F905E
:1051F00018951F920F920FB60F9211242F933F9381
:105200004F935F936F937F938F939F93AF93BF93CE
:10521000EF93FF938091E10082FF09C08091E2004B
:1052200082FF05C08091E1008B7F8093E100809137
:10523000DA0080FF24C08091D80080FF20C08091D8
:10524000DA008E7F8093DA008091D90080FF9BC0C6
:1052500080E189BD82E189BD09B400FEFDCF81E016
:105260008093CA0380912E03811109C00E94240FEC
:105270000E94930F8091E20084608093E20080910D
:10528000E10080FF17C08091E20080FF13C0809191
:10529000E2008E7F8093E2008091E2008061809343
:1052A000E2008091D80080628093D80019BC85E02C
:1052B0008093CA038091E10084FF29C08091E200BD
:1052C00084FF25C080E189BD82E189BD09B400FE6B
:1052D000FDCF8091D8008F7D8093D8008091E10030
:1052E0008F7E8093E1008091E2008F7E8093E200C8
:1052F0008091E20081608093E20080912D038823F9
:1053000009F447C084E08093CA038091CA03809166
:10531000E10083FF27C08091E20083FF23C08091DA
:10532000E100877F8093E10082E08093CA031092BE
:105330002D038091E1008E7F8093E1008091E20057
:105340008E7F8093E2008091E20080618093E20092
:1053500042E060E080E00E945C0F8091F000886095
:105360008093F000FF91EF91BF91AF919F918F914A
:105370007F916F915F914F913F912F910F900FBE51
:105380000F901F90189519BC1092CA0310922E030B
:1053900076CF8091E30087FF02C083E0B4CF81E045
:1053A000B2CF1F920F920FB60F921124FF920F935C
:1053B0001F932F933F934F935F936F937F938F939D
:1053C0009F93AF93BF93CF93DF93EF93FF9309EE38
:1053D00010E0F8018081C091EC00C795CC27C795FB
:1053E0008F70FC2EF82A1082C0EFD0E08881877F72
:1053F000888378940E94B712F801108288818860AF
:105400008883CF2DCF70C083FF91EF91DF91CF9133
:10541000BF91AF919F918F917F916F915F914F91CC
:105420003F912F911F910F91FF900F900FBE0F9002
:105430001F9018958EE1489B03C081508111FBCFCE
:10544000489BFECF0895589880E28A95F1F7589AC4
:105450000895FC012BE02A95F1F728E090E080E028
:1054600031E040E14A95F1F7880F489B02C0816026
:10547000932742E04A95F1F7000040E14A95F1F7A1
:1054800021502111EECF20E12A95F1F729B132E028
:105490003A95F1F7000040E14A95F1F72170922723
:1054A0002081920F90830895A1E0B0E0EAE5FAE24E
:1054B0000C94E32B19828C017C01E60EF11C0E1575
:1054C0001F0541F481E09981911180E02196E6E089
:1054D0000C94FF2B0E941A2ACE0101960E94292AC1
:1054E000F80181938F01EBCF509A589A0895509804
:1054F000589AE89AE9E6F0E080818C7F80830895ED
:105500006150770B91E001C0990F6A95EAF7692F16
:1055100090E021E0611108C0992399F0589A80E247
:105520008A95F1F758980895362F3823332339F0A8
:10553000589A922730E23A95F1F76695EBCF589852
:10554000F9CF5898ECCFFF920F931F93CF93DF932F
:10555000EC018C01060F111DC017D10729F4CDB73E
:10556000DEB7E5E00C94002CF9900E94232A68E055
:105570008F2D0E94802AF0CF1F920F920FB60F92AC
:1055800011240F931F932F933F934F935F936F9328
:105590007F938F939F93AF93BF93EF93FF93CF939B
:1055A000DF930F92CDB7DEB719820E941A2ACE017F
:1055B00001960E94292A082F069506950695982F90
:1055C00092959570202F2570920F292F2370969514
:1055D0009695920F982797708981892B81115CC0CD
:1055E000053008F059C080E18A95F1F7589A509A31
:1055F00082E08A95F1F700C0589888E0089F800102
:105600001124D801AD5BBE4F1696ED91FC91179712
:105610003097A9F06091BC027091BD0214962D9153
:105620003C911597260F371F11968D919C911297DB
:10563000680F791F13964C9113978C910995F80177
:10564000ED5BFE4F6381662351F02091BC023091E7
:10565000BD0284819581820F931F0E94A32A0E941C
:10566000232A80E18A95F1F758985098589A80E15A
:105670008A95F1F7F801ED5BFE4F6081662351F0EA
:105680002091BC023091BD0281819281820F931FD3
:105690000E94542A0E941A2A0F90DF91CF91FF9105
:1056A000EF91BF91AF919F918F917F916F915F919A
:1056B0004F913F912F911F910F910F900FBE0F901F
:1056C0001F9018950F931F93CF93DF938C0105972D
:1056D0000CF065C0F894509A589885E08A95F1F7D7
:1056E0000000C02FC695C570802F8570C80F8C2F05
:1056F0008370C695C69593E0000F111F9A95E1F748
:10570000C80FC8018C2BEC010E94232A00C068E05E
:105710008C2F0E94802A90E19A95F1F75098589A20
:10572000489B35C087E090E0489933C0F801ED5BB5
:10573000FE4F6381662361F02091BC023091BD026F
:1057400084819581820F931F0E94542A882321F11E
:105750000E941A2A80E28A95F1F75898509A90E1AF
:105760009A95F1F7F801ED5BFE4F6081662351F0E9
:105770002091BC023091BD0281819281820F931FE2
:105780000E94A32A0E94232A789481E009C000C0C5
:10579000C7CF0197009749F4509A589A789480E0BF
:1057A000DF91CF911F910F91089500C0BDCF2F922F
:1057B0003F924F925F926F927F928F929F92AF92A1
:1057C000BF92CF92DF92EF92FF920F931F93CF93EE
:1057D000DF93CDB7DEB7CA1BDB0B0FB6F894DEBF85
:1057E0000FBECDBF09942A88398848885F846E84AB
:1057F0007D848C849B84AA84B984C884DF80EE80F5
:10580000FD800C811B81AA81B981CE0FD11D0FB6FD
:10581000F894DEBF0FBECDBFED010895991B79E06E
:1058200004C0991F961708F0961B881F7A95C9F730
:105830008095089587FB082E062687FD819567FDD4
:1058400061950E940E2C0EF4919507FC81950895A8
:10585000AA1BBB1B51E107C0AA1FBB1FA617B70796
:1058600010F0A61BB70B881F991F5A95A9F78095B2
:105870009095BC01CD01089597FB072E16F4009476
:1058800007D077FD09D00E94282C07FC05D03EF4F4
:10589000909581959F4F0895709561957F4F0895DC
:1058A000EE0FFF1F0590F491E02D09940E94C62D84
:1058B000332312F48A1B9B0B0C94602C0E94C62D80
:1058C000B7FF0895821B930B0895002E083090F0C7
:1058D000982F872F762F652F542F432F322F222773
:1058E0000850F4CF220F331F441F551F661F771F28
:1058F000881F991F0A95B2F7002D089597FD1094FF
:10590000002E083098F00850232F342F452F562FA3
:10591000672F782F892F912DF4CF15949795879520
:105920007795679557954795379527950A95AAF7DF
:105930001124002D08958F929F92AF92BF92CF9223
:10594000DF92EF92FF92CF93DF93EC016881798130
:105950008A819B81611571058105910521F464E2BD
:1059600079ED8BE597E02DE133EF41E050E00E94C7
:10597000722D49015A019B01AC01A7EAB1E40E94D2
:10598000912D6B017C01ACEEB4EFA50194010E9456
:105990009F2DDC01CB018C0D9D1DAE1DBF1DB7FFE2
:1059A00003C00197A109B04888839983AA83BB8368
:1059B0009F77DF91CF91FF90EF90DF90CF90BF90D6
:1059C000AF909F908F9008950E949B2C089580E047
:1059D00091E00E949B2C0895B0E0A0E0809300012C
:1059E00090930101A0930201B09303010895FC017B
:1059F0004150504030F001900616D1F73197CF0159
:105A00000895882799270895FB01DC0104C08D9132
:105A10000190801921F441505040C8F7881B990B20
:105A20000895FB01DC0102C001900D9241505040ED
:105A3000D8F70895F999FECF92BD81BDF89A9927BC
:105A400080B50895A6E1B0E044E050E00C94642DE8
:105A5000A8E1B0E042E050E00C94642DDC01A40F1A
:105A6000B51F4150504048F0CB01840F951F2E9137
:105A70000E943F2D41505040D0F70895262FF999AC
:105A8000FECF92BD81BDF89A019700B4021639F09D
:105A90001FBA20BD0FB6F894FA9AF99A0FBE08956E
:105AA0000396272F0E943F2D0E943E2D252F0E94F6
:105AB0003F2D242F0C943F2D0196272F0E943F2D20
:105AC0000C943E2DDC01CB01FC01F999FECF06C000
:105AD000F2BDE1BDF89A319600B40D9241505040AC
