:100000000C944B040C94BD2A0C9468040C94680462
:100010000C9468040C9468040C9468040C946804B0
:100020000C9468040C9468040C94FA280C94D2295B
:100030000C94AF280C9468040C9468040C94680425
:100040000C9468040C9468040C9468040C94680480
:100050000C9468040C94D6280C9468040C946804DE
:100060000C9468040C9468040C9468040C94680460
:100070000C9468040C9468040C9468040C94680450
:100080000C9468040C9468040C9468040C94680440
:100090000C9468040C9468040C9468040C94680430
:1000A0000C9468040C9468040C946804050109021B
:1000B000A10185020901A1000509190129081500FE
:1000C0002501950875018102050109300931158165
:1000D000257F95027508810609381581257F9501D0
:1000E00075088106050C0A38021581257F95017572
:1000F000088106C0C005010980A101850319012AF4
:10010000B700150126B700950175108100C0050CD8
:100110000901A101850419012AA002150126A002E6
:10012000950175108100C005010906A1018506052C
:100130000719E029E71500250195087501810205D9
:1001400007190029EF1500250195F07501810205B9
:10015000081901290595057501910295017503910D
:1001600001C005010906A101050719E029E71500ED
:100170002501950875018102950175088101050722
:10018000190029FF150026FF009506750881000556
:10019000081901290515002501950575019102959C
:1001A0000175039101C009023B00020100A0FA0998
:1001B0000400000103010100092111010001224492
:1001C0000007058103080001090401000103000084
:1001D0000009211101000122B60007058203200059
:1001E000011201000200000008444D4452000101C8
:1001F0000200010C035200650064006F00780000EB
:10020000001403460061006C006200610074006528
:100210000063006800000004030904222325262847
:10022000292A2C2D2F3032333536383A3B3D3E408B
:1002300042434547494A4C4E5051535557595A5CD1
:100240005E6062646668696B6D6F71737577797BE8
:100250007D7F81838587898A8C8E90929496989AE7
:100260009C9E9FA1A3A5A7A8AAACAEAFB1B3B4B6FC
:10027000B8B9BBBCBEBFC1C2C3C5C6C7C9CACBCC57
:10028000CDCED0D1D2D2D3D4D5D6D7D7D8D9D9DA2A
:10029000DADBDBDBDCDCDCDCDCDDDDDDDDDCDCDC9F
:1002A000DCDCDBDBDBDADAD9D9D8D7D7D6D5D4D3C7
:1002B000D2D2D1D0CECDCCCBCAC9C7C6C5C3C2C19C
:1002C000BFBEBCBBB9B8B6B4B3B1AFAEACAAA8A7F9
:1002D000A5A3A19F9E9C9A98969492908E8C8A89B1
:1002E000878583817F7D7B79777573716F6D6B698E
:1002F00068666462605E5C5A5957555351504E4C63
:100300004A4947454342403E3D3B3A383635333211
:10031000302F2D2C2A292826252322FFAA7F55405D
:1003200000010101010101010101020202020202B8
:10033000020202030303030303030304040404048B
:100340000404050505050506060606060707070752
:100350000708080808090909090A0A0A0B0B0B0C07
:100360000C0C0D0D0D0E0E0E0F0F0F1010111111A4
:100370001212131314141515161617171818191925
:100380001A1A1B1B1C1D1D1E1E1F2020212222238A
:100390002424252626272829292A2B2C2D2D2E2FCB
:1003A00030313232333435363738393A3B3C3D3EE2
:1003B0003F404142434445464748494A4C4D4E4FD1
:1003C00050515354555658595A5B5D5E5F61626493
:1003D000656668696B6C6D6F7072737577787A7B20
:1003E0007D7E8082838587888A8C8E8F9193959677
:1003F000989A9C9EA0A2A3A5A7A9ABADAFB1B3B597
:10040000B7BABCBEC0C2C4C6C9CBCDCFD1D4D6D872
:10041000DBDDDFE2E4E7E9EBEEF0F3F5F8FAFDFF10
:100420001E0F0500047F3F1F643214643214783CB1
:100430001E1E140A0530041E001F00200021002289
:1004400000000F2B0014001A2909261300050000D4
:1004500007292104211524162817220A0063522493
:10046000061D001B25062C072A190063522752E09F
:1004700000E20024522C422843284338002700265B
:1004800000250024002300000F2F0033001C391822
:10049000360F000D000007343112310C24083811DA
:1004A0003210006652323254003725363C0B3A0E79
:1004B0000066524F005200510050422A454C464CB3
:1004C0004630041E001F00200021002200000F2BD8
:1004D0000014001A00080015001700000729210465
:1004E000001600070009000A006352E1001D001B0E
:1004F0000006001900050063522752E000E20024C4
:10050000522C422C43284338002700260025002483
:10051000002300000F2F00130012000C0018001C15
:10052000000007343133310F240E380D320B0066D2
:100530005232325400370036001000110066524F1C
:10054000005200510050422A454C464C46000000E3
:10055000000000000000000000000F00001E021F4D
:100560000409081308050C000700000421152416CF
:1005700028172209080000E1001D081B08060807CB
:100580000819080000000000000000390000000009
:10059000000000000000000000000000000000005B
:1005A0000F38002E004D004B004E004A0000072D72
:1005B0000036024F0052005100500000001F023769
:1005C00002BB00A900AA00BC000000BB00A900AA51
:1005D0000038003802270227020000000000000057
:1005E0000000000000000F000000000000000000FC
:1005F00000000000076352E000E200E300E10000B9
:10060000000000E100000000000000000000000009
:1006100000000000000000000000000000000000DA
:100620000000000000000000000000000F38002E55
:1006300000260025002400000000072D00360223BC
:100640000022002100360000001F02370220001F98
:10065000001E0037000000BB00A900AA00380027D8
:100660000027022702000000000000000000000038
:1006700000000F000000000000000000000000006B
:10068000070000E000E200E300E10000000000E1FC
:10069000000000000000000000000000000000005A
:1006A000000000000000000000000000000000004A
:1006B00000000000000000000F38002E0042004142
:1006C000004000450000072D0036023F003E003D7F
:1006D00000440000001F0237023C003B003A004388
:1006E000000000BB00A900AA0039002A004C004C01
:1006F00000300400000000000000000000000F3087
:10070000041E021F042504260420020007200423DF
:1007100002210425022602220200001E06240430C3
:100720000264006402320200000000000000002C9D
:10073000002C00280028000000000000000000003D
:10074000000000000F00000000000000000000009A
:100750000000070000E000E200E300E1000000000C
:1007600000E5000000BB00A900AA00BC000000BB1F
:1007700000A900AA00BC000000000000000000006A
:10078000000000000000000000000F00000000DB7F
:1007900000CD00DC000000000766520000CF00CE54
:1007A00000D0000000000000000000D200DA00D9F4
:1007B000000000000000000000000000002C00D13C
:1007C00000D2000000000000000000000000000057
:1007D0000F000000004F082B012B035008000700FA
:1007E00000E4004F245238513250000000DF00DE98
:1007F00000DD00D200D10000000000BB00A900AA6B
:1008000000BC000000000000002078000000000094
:10081000000000000000001B70000000000000004D
:1008200000000000001C70E000E200E300E10000B6
:1008300052005220782378257827782178015201B8
:10084000520000E000E200E30000000000000000B1
:100850000000000000000000000000000000000098
:100860000000000000000000000000000000000088
:100870000000000000000000000000000000000078
:100880000000000000000000000000000000000068
:1008900000000000000011241FBECFEFDAE0DEBF31
:1008A000CDBF24E0A0EDB2E001C01D92AD3BB20788
:1008B000E1F712E0A0E0B1E0ECE7FCE502C0059052
:1008C0000D92A03DB107D9F70E94F8230C94D62DC4
:1008D0000C9400009C019A9581159F4118F5F9012F
:1008E000EE27F270832F8170B90166277470A90119
:1008F0004427587034FF0CC08295807FEF2B09F09D
:100900008062672B09F08064452B69F08068089548
:10091000EF2B09F08260672B09F08460452B19F0FA
:100920008860089580E0089590937504809374041E
:1009300008959093770480937604089521E030E041
:1009400002C0220F331F8A95E2F7809176049091BE
:100950007704822B932B0E949904089521E030E0C4
:1009600002C0220F331F8A95E2F7209530958091BF
:10097000760490917704822393230E94990408952A
:100980009A3098F5873088F5E82FF0E087E0989F57
:10099000E00DF11D11248E2F877041E001C0440F3E
:1009A0008A95EAF783E0F695E7958A95E1F7EE0FE9
:1009B000FF1FEE0FFF1FE65DFB4F20E030E070E011
:1009C0005191DF011197CB01022E02C096958795B8
:1009D0000A94E2F7817081958527842385278C937B
:1009E0002F5F3F4F2430310559F708959A3078F53D
:1009F000873068F5E82FF0E087E0989FE00DF11D63
:100A000011249E2F977083E0F695E7958A95E1F77C
:100A1000EE0FFF1FEE0FFF1FE65DFB4F40E050E0C3
:100A200080E0219130E0092E02C0369527950A9486
:100A3000E2F721703327042E01C0220F0A94EAF74F
:100A4000822B4F5F5F4F4430510559F7089580E086
:100A5000089580917D0490917C04981301C00895BD
:100A60008F5F8770FACF9091780480958923809367
:100A70007804282F277021110DC0891759F0909103
:100A80007A0492FF07C08695869586950E94AE04EB
:100A90001092780408959091710480917B04982BB2
:100AA000509172045523C1F080915F018823E1F0D9
:100AB0008091790487FF18C08DE12CED32E040E091
:100AC000F90160812F5F3F4F61114F5F8150C0F787
:100AD000411110927204952B8091580480958923BE
:100AE00090915704892B089585E024ED32E0E7CFFB
:100AF000982F9095809171048923809371040895B3
:100B00007A30B8F46730A8F48830B0F4E62FF0E01B
:100B100097E0799FE00DF11D112496E4899FE00D87
:100B2000F11D1124EE0FFF1FEB5CFB4F859194919B
:100B3000089580E090E0089581E0FCCF803E91052B
:100B4000D1F1C8F48133910509F47FC048F48932AA
:100B5000910509F46FC08A32910509F47DC00895AA
:100B600089339105E1F082389105C9F0853391050B
:100B700009F45BC00895843E9105D1F148F4823EAA
:100B8000910531F1833E910541F181EE90E00895A8
:100B9000863E9105C1F1873E9105E1F108952091CE
:100BA00079042370211165C020917A0423FF14C0B9
:100BB00089E290E008952091790420FD43C03091AE
:100BC0007A0430FF09C024FF4EC080E090E0089511
:100BD0002091790422FDF7CF08952091790422FD18
:100BE00045C030917A0430FD44C024FFF5CFEDCFED
:100BF00020917A0421FFF0CF8091790484FDE5CF24
:100C000087EE90E008952091790423FFE5CF24FD3D
:100C1000DCCFF6CF2091790423FD2EC030917A04E9
:100C200031FFE3CF84EE90E008952091790425FF11
:100C3000D3CFBECF2091790425FD21C020917A0425
:100C400023FFCACF89E390E008952091790426FF1D
:100C5000C3CF8AE290E008952091790426FFBCCFAB
:100C600081E390E0089583EE90E0089582EE90E0B5
:100C7000089580EE90E0089586EE90E0089585E373
:100C800090E0AACF9091790492FF10C041E0282F04
:100C90002471243009F040E031E0282F28712830F9
:100CA00009F030E0431711F02CE0822793FF10C0C9
:100CB00041E0282F2471243109F040E031E0282F51
:100CC0002871283109F030E0431711F02CE0822719
:100CD00030917A0430FF10C051E0282F217121306B
:100CE00009F050E041E0282F2871283009F040E059
:100CF000541711F029E0822731FF10C041E0282F5E
:100D00002171213109F040E031E0282F287128318C
:100D100009F030E0431711F029E0822794FD877E27
:100D200008951F93CF93DF930E949E05EC018115D8
:100D300022E5920708F053C0811540E5940708F0BA
:100D4000DDC0803E9105F8F48D3C910508F0AEC001
:100D5000883A910580F4853A910508F099C0813070
:100D6000910521F00497813A910550F4CE01DF916D
:100D7000CF911F910895885A91094B9708F48BC021
:100D8000C0E0D0E0F3CF811550E49507F8F4C11529
:100D900080E2D80708F0CBC0C83ED10538F3CE01B9
:100DA0009A9581159F4160F78D2F0E944206182F5A
:100DB000CE0199270E949E05212F30E0322F222755
:100DC000E901CC27DF71C82BD92BD0CF99270E94FE
:100DD0009E05CC27DF70C82BD92BD06AC7CF8038AF
:100DE00042E59407C8F5803652E5950708F067C0DC
:100DF000C03482E5D807B0F08C2F86958695877031
:100E000020E2829FC0011124C37021E030E0A901DB
:100E100002C0440F551FCA95E2F7EA01C82BD92B2F
:100E2000DC68A4CFC03252E5D50708F041C08C2F52
:100E30008695869520E2829FC0011124C37021E02F
:100E400030E0A90102C0440F551FCA95E2F7EA013C
:100E5000C82BD92BDD688ACF803C52E5950760F41A
:100E60008F71C03AD24508F03FC090E0982F882794
:100E7000EC01C46FD06A7ACF805C9245809708F00D
:100E80007FCFDC2FCC27CC27DF71C06FD06A6ECF2D
:100E9000A497D0646BCFC85AD0E0CC0FDD1FC656E4
:100EA000DD4F0990D881C02DD46460CFD0655ECF6E
:100EB000CF71D0E0DC2FCC27C16FD06A57CF869599
:100EC0008695877020E2829FC0011124C37021E0C3
:100ED00030E0A90102C0440F551FCA95E2F7EA01AC
:100EE000C82BD92BDA6842CF0E944206C82FD0E027
:100EF000DC2FCC27CC27DF71D06238CF8F710E94D6
:100F0000420665E0D695C7956A95E1F7CF70D0E0C7
:100F1000DC2FCC27282F30E084FF05C054E0220FBF
:100F2000331F5A95E1F7C22BD32BD0691FCF8D2FDA
:100F30008F710E944206182FCE0199270E949E05AC
:100F4000212F30E0322F222722273F71282B392BE7
:100F5000E901D2CFA0E0B0E0E0EBF7E00C94E12BA8
:100F60008C01E0907604F090770480917404909165
:100F70007504E82AF92ACFE0D0E0CC24C394D12C20
:100F8000C6010C2E02C0880F991F0A94E2F78E2129
:100F90009F21892B49F4219798F7B12C8B2DCDB740
:100FA000DEB7E9E00C94FD2BBC2EB8018C2F0E941B
:100FB00080050E949106019771F3F0CF0F931F9364
:100FC000CF93FC01858100811181882391F06623F4
:100FD00081F0C8010E94AA07C82F682FC8010E948B
:100FE000C004B8018C2F0E948005CF911F910F91F2
:100FF0000895C8010E94F604C82FF3CFCF93DF9362
:10100000D82FC92F0E94AA076D2F7C2F0E94800520
:101010000E949106DF91CF910895FC01848188237D
:10102000A1F0808191810E94FE07282F92959F70E8
:10103000963091F060F4925F9F70923030F481E0CE
:10104000203F79F030F4283E30F080E004C09A5F11
:10105000F3CF243FD1F7089581E0283E18F0213FD7
:10106000F9CF0895089580E00895F894E82FE29567
:10107000EF70F0E041A18F7021E030E0B90102C0D3
:10108000660F771F8A95E2F7CB01962F90959423F0
:1010900091A392A1892B82A3789408950895A0E04A
:1010A000B0E0E5E5F8E00C94E02BE901E42FF0E096
:1010B000E05EFC4F61110BC0E4919E2F8E2F89835F
:1010C000E8839A83CDB7DEB7EAE00C94FC2B282F97
:1010D00030E0062F10E0F491EF2F86E0829F600150
:1010E000839FD00C1124EE24EA94F12CC601B701A1
:1010F0000E94292C220F331F45E5469FC001479FC0
:10110000900D1124281B390B822F880F280FC7013F
:10111000801B910BF89FA001F99F500D1124952F72
:10112000209F5001219FB00C1124AB2CBB24D70170
:10113000AA19BB095D01FA9DD001FB9DB00D1124D8
:101140008B2F5701A21AB1089501209F5001219FB2
:10115000B00C309FB00C1124AB2CBB24EA18FB0858
:10116000FE9D9001FF9D300D112463307105C9F083
:101170001CEFC11613E0D10650F46130710509F47B
:101180009ECF6230710589F08E2FE32F98CF6430A7
:10119000710571F066307105B9F3E52F9B2F8F2F24
:1011A0008ECFEB2F852F9F2F8ACF852F932F87CF21
:1011B000832FE52FF8CF80916904843028F4837061
:1011C00084608093690408958C3AE8F38370886A98
:1011D000F8CF8091690480FD0AC0EDE6F3E011824A
:1011E00010821282339683E0E739F807C1F76EE088
:1011F00070E08DE693E00E940D10089590916904CF
:1012000090FF0CC0EDE6F3E0818360834283339668
:1012100093E0E739F907C1F70E94E9080895A3E0D0
:10122000B0E0E5E1F9E00C94E82B9091690490FFBF
:101230000AC09E012F5F3F4F0E944F084B8169817A
:101240008A810E94FE082396E2E00C94042CCF933E
:10125000DF93EC01E9E6F4E0438162818C810E9436
:101260000F098C818F5F8C83DF91CF910895E6E623
:10127000F4E011828281846082830895CF93DF93AA
:10128000EC01EC81F0E0E55EFD4F4491E9E6F4E02D
:10129000628181810E940F098C818F5F8C83DF9135
:1012A000CF910895EF92FF921F93CF93DF93EC01BC
:1012B0008DE6E82E83E0F82E10E08C8197014091B6
:1012C0006C0460916B04810F0E944F081E5E83E0E6
:1012D000E80EF11C1C3F89F70E94E9089A818C8175
:1012E00090FF08C08F5F8C83DF91CF911F91FF909B
:1012F000EF9008958150F7CFA0E0B0E0E2E8F9E088
:101300000C94E02BEC018C819A8190FD08C0BB24E9
:10131000B39481110CC08DE0BB24B39404C0BB24F2
:10132000BA94811104C080936C0381E08C832DE614
:10133000E22E23E0F22E00E010E0F701118210828D
:10134000128294E0C92ED12CA12C80916C038A0DBD
:101350008F300CF440C06EE00E941B2C892F082EA9
:10136000000C990B8017910791F480916C048C9D6F
:10137000A0018D9D500D1124559547955595479584
:10138000970160916B0480916A040E944F08AB0C36
:10139000F1E0CF1AD108C114D104B9F60F5F1F4F85
:1013A00083E0E80EF11C0E30110539F60E94E908C1
:1013B00090916C03E1E0BE1212C08DE0992319F008
:1013C0008FEF890F91E080936C039C83CDB7DEB7DC
:1013D000EAE00C94FC2B87FFC2CF825FC0CF892F3D
:1013E00090E00196B8010E943D2C982FECCFEF922F
:1013F000FF920F931F93CF93DF938C01FC018481A5
:10140000811109C081E0848310926B0392E0909374
:10141000280180932701CDE6D3E0FE0111821082DE
:101420001282339683E0E739F807C1F7E12CF12CFB
:1014300080916B03082E000C990BE816F906BCF19D
:1014400080912801082E000C990B8E159F057CF1C8
:101450009E0140916C0460916B0480916A040E942B
:101460004F08EFEFEE1AFE0A2396FEE0EF16F104A6
:10147000F9F60E94E9088091270190916B03980F7B
:1014800090936B0320912801280F209328011216B6
:1014900014F49D303CF0819580932701813011F444
:1014A000F8011482CDB7DEB7E6E00C94002C198267
:1014B00018821A82D6CFAEE0B0E0E1E6FAE00C94F2
:1014C000E22B8D879E87AD85BE8514961C91212FBA
:1014D00030E0D9010E94C72D9B01AC010E94922DE2
:1014E00069837A838B839C83E0E2F0E0E11BF1095E
:1014F000A5E5B0E09B01AC010E94922D69877A8737
:101500008B879C879F01DF010E94572C9B01AC01B8
:101510000E949D2D6D837E838F8398879B01AC01F4
:1015200089819A81AB81BC81280F391F4A1F5B1FBB
:1015300069857A858B859C850E94A52D022F30E0D8
:101540000A32C8F5A901440F551F420F531F559584
:101550004795142F10959DE6C92E93E0D92EF12CB6
:1015600085E5E82EE01A8E2DF1FC802F9601412FA3
:1015700060916B040E944F08F39493E0C90ED11C54
:10158000AEE0FA12F0CF0E94E908ED85FE85948165
:1015900081E0992319F0903219F48FEF809326019E
:1015A00080912601890FAD85BE8514968C932E9669
:1015B000E8E00C94FE2B85E590E0821B930BAC01D8
:1015C000440F551F480F591F57FFC1CF4F5F5F4F43
:1015D000BECFA3E0B0E0EFEEFAE00C94E62B8C0176
:1015E00080916A0381110AC09E012F5F3F4F4FEF28
:1015F0006FEF0E944F088A8180936A03F80164812B
:10160000613049F06230D1F080916A0340E0662396
:1016100031F040E015C060916A0340E080E00E9434
:10162000FE08F801848190E0019663E070E00E947A
:101630003D2C84832396E4E00C94022C40916A03B1
:1016400080E060E0ECCFA0E0B0E0E9E2FBE00C94E9
:10165000E22B8C01CDE6D3E020E030E0F80194816C
:1016600060916B0480916A04A9014F5F5F4F7A011A
:101670002730310574F4FE0133966F019E014091CD
:101680006C04911101C040E00E944F089701E601EF
:10169000E5CF9E0140916C04911140E00E944F08FB
:1016A00097012E30310511F02396D8CF0E94E9081A
:1016B000F801848190E00196817099278483CDB7E9
:1016C000DEB7E8E00C94FE2BFA01882311F00995AF
:1016D0000895FB01FCCF539A0895FC018581862370
:1016E00081110AC082818823B9F06823918593FF14
:1016F00005C081E061110FC080E00895282F229578
:101700002F708F70282B962F92959F706F70962B4D
:1017100081E02913F1CF089581E0FDCF282F35EB2B
:101720002303C001112497FF04C080589109892F19
:10173000089580589F4FFBCF8091500480FD16C0C4
:1017400081FD16C082FD18C080914F04882391F05E
:10175000803490F428E1829FC001112426E0959501
:1017600087952A95E1F7009749F0089586E0089556
:101770008CE0089588E0089588E1089581E0089557
:101780008091500480FD17C081FD17C082FD19C0F3
:1017900080914E04882399F0883298F428E0829F43
:1017A000C001112468E270E00E943D2C61157105B2
:1017B00051F0862F089562E0FCCF64E0FACF61E03B
:1017C000F8CF68E0F6CF81E008958091FC0388238C
:1017D00059F0E0912004F0912104309729F0019014
:1017E000F081E02D0995089580E00895A3E0B0E030
:1017F000ECEFFBE00C94E82B9C018091220390918C
:10180000230382179307A1F030932303209322032D
:10181000E0912004F0912104309751F083E0898316
:101820003B832A830084F185E02DCE010196099542
:101830002396E2E00C94042CA3E0B0E0E2E2FCE0AA
:101840000C94E82B9C018091200390912103821736
:101850009307A1F03093210320932003E09120040B
:10186000F0912104309751F084E089833B832A83EF
:101870000084F185E02DCE01019609952396E2E0E2
:101880000C94042C90915F019923C1F090917904FC
:1018900097FF14C0E82FE695E695E695803FF8F4AB
:1018A000F0E0E652FD4F877021E030E001C0220FEA
:1018B0008A95EAF78281822B82830895A4EDB2E0B3
:1018C000EFEF90E02D91821751F0EF3F19F42111C5
:1018D00001C0E92F9F5F9630A9F7EF3F09F4089503
:1018E0000E2E000CFF0BEE52FD4FE6CF90915F01E4
:1018F0009923E1F09091790497FF18C0E82FE695BD
:10190000E695E695803FF0F4F0E0E652FD4F8770F3
:1019100021E030E0A90102C0440F551F8A95E2F78B
:10192000CA0180959281892382830895E4EDF2E0D3
:101930009191891303C0DF0111971C9252E0EA3D97
:10194000F507B1F708952FB7F89480911C03909193
:101950001D03A0911E03B0911F032FBF08950E9485
:10196000A30C2091530430915404232B222321F003
:101970008093CF039093D003209155043091560467
:10198000232B222321F08093CD039093CE03E0916B
:101990002004F0912104309749F082E080935104B3
:1019A0000680F781E02D81E594E009950895209166
:1019B00053049091560430915504662309F45AC09B
:1019C00040915404242B292B232B222331F098E01F
:1019D00090934F0491E090934E048D3C41F40E940B
:1019E0009C0B8195809354040E94AF0C0895E2E310
:1019F000E80FE231C8F7F0E0E852F24D0C94512CB8
:101A00000E949C0BEFCF0E949C0B81958093530406
:101A1000EBCF0E949C0BFACF0E94C00B8093550421
:101A2000E3CF0E94C00B8195F9CF0E94C00B819536
:101A300080935604D9CF0E94C00BFACF815D990BD9
:101A400021E030E001C0220F8A95EAF7809152042C
:101A5000822B80935204C8CF809150048160809380
:101A60005004C2CF809150048260F9CF809150041D
:101A70008460F5CF8D3C59F48091540487FF0DC0EC
:101A800010925404222359F410924F0408C08E3C43
:101A900081F48091540418169CF3222381F08091E4
:101AA000550490915604892B81119ECF10924E04BB
:101AB0009BCF8F3C41F427FFF0CF109253048091CD
:101AC00054048823E0CF803D19F41216B4F3E5CF17
:101AD000893D29F413160CF710925504DECF8A3D88
:101AE00019F437FFDACFF8CF8B3D29F497FFD5CF24
:101AF00010925604D2CF8C3D19F41916CCF3CDCFE9
:101B00009FE2980F983090F4815D990B41E050E08E
:101B1000BA0102C0660F771F8A95E2F7CB01809564
:101B200090915204892380935204B7CF8D3D31F4B4
:101B3000809150048E7F80935004AFCF8E3D21F46E
:101B4000809150048D7FF7CF8F3D09F0A6CF809113
:101B500050048B7FF0CFA4E0B0E0E1EBFDE00C940B
:101B6000E82B8FB7F89420911C0330911D0340910E
:101B70001E0350911F0329833A834B835C838FBFDD
:101B800069817A818B819C812496E2E00C94042CFB
:101B9000A4E0B0E0EEECFDE00C94E82B8091FC03B7
:101BA000882371F00E94AB0D69837A838B839C83B9
:101BB00069817A818B819C812496E2E00C94042CCB
:101BC0000E94AB0D69837A838B839C838091F80399
:101BD0009091F903A091FA03B091FB0329813A8116
:101BE0004B815C81280F391F4A1F5B1F29833A8371
:101BF0004B835C83DDCF8091FC03882319F00E9426
:101C0000A30C08950E94C80DCB0108959C014FB705
:101C1000F89480911C0390911D03A0911E03B09134
:101C20001F034FBF821B930B0895A4E0B0E0EBE1CC
:101C3000FEE00C94E62B462F572FBC012FB7F894EB
:101C400080911C0390911D03A0911E03B0911F036E
:101C50002FBF8C019D01041B150B260B370BC901EF
:101C6000B8012496E4E00C94022CA6E0B0E0EBE38B
:101C7000FEE00C94E42B7C0100915E0410915F0463
:101C8000209160042E83809161048D83B801822F9E
:101C90009D810E94150E643F71408105910518F1E8
:101CA0000E94AB0D8B018E839D8382E390E0A0E0C8
:101CB000B0E00093C0031093C1032E812093C203B0
:101CC0002D812093C3038093BC039093BD03A09305
:101CD000BE03B093BF03E0925C04F0925D042696CD
:101CE000E6E00C94002C84EF91E0A0E0B0E0E1CFBE
:101CF00080911B030895FC019B0180911103909139
:101D000012038617970740F0672B29F48091E800AB
:101D10008E778093E800C90140E0009741F44111BB
:101D200006C08091E80082FF2FC080E008952091D6
:101D3000A6032223A9F12530A9F12091E80023FD73
:101D40002DC02091E80022FDECCF2091E80020FF7B
:101D5000E4CF3091F3002091F200009719F0283081
:101D6000310558F041E02830310509F040E020917C
:101D7000E8002E772093E800D0CF41914093F10006
:101D800001972F5F3F4FE9CF8091A603882341F051
:101D9000853041F08091E80083FFC3CF81E0089552
:101DA00082E0089583E0089580910B0387FF13C0BC
:101DB0008091E80082FF06C08091E8008B778093D5
:101DC000E80004C08091A6038111F2CF08958091AC
:101DD000A6038823D9F38091E80080FFF8CF809193
:101DE000E8008E77ECCF2091E4003091E50095E695
:101DF000A9018091EC008170882331F08091E80086
:101E000080FF06C080E008952091E80022FD1BC0FD
:101E10008091A603882391F0853091F08091EB00AA
:101E200085FD10C02091E4003091E5004217530772
:101E300001F391509111DCCF84E0089582E0089580
:101E400083E0089581E00895E8EDF0E080818E7FE1
:101E500080831092E2001092DA001092E100A0EE6E
:101E6000B0E08C9181608C9380818F77808319BCE6
:101E7000A7EDB0E08C918E7F8C9380818F7E8083E4
:101E800010920A030895FC01AC014B5F5F4F8FEF86
:101E900091E32191822728E030E087FF0BC0880F73
:101EA00089272150310921153105B9F7E417F507C4
:101EB00081F70895880FF5CF982FE42FE270909363
:101EC000E900891308C0762F242F50E0E11111C0DA
:101ED00091E0980FF4CF7091EC002091ED005091BB
:101EE000F00021FD06C09F5F973049F78093E9001D
:101EF00008953091EB003E7F3093EB003091ED0080
:101F00003D7F3093ED003091EB0031603093EB007A
:101F10007093EC002093ED005093F0002091EE00C0
:101F200027FDE1CF0895A0E0B0E0E9E9FFE00C94DF
:101F3000E22BC8EDD0E088818F7E8883E7EDF0E06A
:101F400080818160808384E082BF81E080930A0386
:101F500088818E7F888302EE10E0F8011082109253
:101F6000DA0081EEC82ED12CF601108288818F779D
:101F7000888388818068888388818F7D888319BC65
:101F80001092A603109209031092A5031092080361
:101F900090EEE92EF12CF70180818B7F8083888180
:101FA0008160888342E060E080E00E945C0FF6017F
:101FB00080818E7F8083F801808181608083808131
:101FC00088608083F70180818E7F80838881806133
:101FD0008883CDB7DEB7E8E00C94FE2BE0917D045A
:101FE00090917C0427E0E91302C080E00895AE2FB1
:101FF000B0E02E9FF0011124E258FB4F31813613DF
:1020000006C03081381303C03581341304C0FD018C
:102010003196E770E8CF81E008959C01AB016BB188
:10202000677F7BB17860EFB7F894CA01880F991F7A
:10203000840F951F820F931F8217930741F4EFBF00
:102040008FE594E00197F1F700C000000895D901F1
:102050004D919D0158E07BB9000000C047FF6BB96E
:10206000440F000000C000C000C06BB900C05A950A
:1020700091F7E2CF0F931F93CF93DF93EB018A0188
:102080009091A603943079F58093E9008FEF9091B9
:10209000E80095FD07C095ED9A95F1F70000815095
:1020A0008111F5CF8091E80085FF1DC00E94F30EDD
:1020B000811114C08091E80085FD06C08091E80080
:1020C0008E778093E800F2CF88818093F1000150F1
:1020D00011090115110511F02196ECCF8091E8004E
:1020E0008E778093E800DF91CF911F910F91089533
:1020F000CF93DF93D82FC92F48E050E0682F792F76
:1021000081E00E943A1088E0ED2FFC2FA3E1B3E0BC
:1021100001900D928A95E1F7DF91CF910895BC016E
:1021200040E250E082E00E943A100895BC0146E08F
:1021300050E082E00E943A100895BC0143E050E074
:1021400082E00E943A100895A0E0B0E0EAEAF0E1EF
:102150000C94E02BF82EE92EB62EA72E8A01809142
:102160000603CC24C394D12C8A3018F48AE0C82EFC
:10217000D12CC1E0D0E06B2D7A2D8F2D9E2DF80152
:102180000995811116C02196CC16DD0694F0CC9FDE
:10219000C001CD9F900D900D112420E030E045E36B
:1021A0004A95F1F700002F5F3F4F28173907B9F71D
:1021B000E2CFCDB7DEB7EAE00C94FC2B90917A0425
:1021C00092FB222720F9281779F080FB92F990934F
:1021D0007A046091790470917A0484E090E00E941E
:1021E0005D2D82E00E943305089580915F01882370
:1021F00059F18091790487FF27C00E944B05809395
:10220000DB0240E250E060E074E08AED92E00E9480
:10221000052D892BC1F080E2EAEDF2E0A0E0B4E008
:1022200001900D928A95E1F7E0912004F09121044C
:10223000309749F086E08093DA020480F581E02D42
:102240008AED92E0099508950E944B058093D20291
:1022500048E050E062E274E082ED92E00E94052DD9
:10226000892B89F388E0E2EDF2E0A2E2B4E001908C
:102270000D928A95E1F7E0912004F09121043097C6
:1022800011F30280F381E02D82ED92E0DBCFCF935A
:10229000C82F8823C9F08238C9F40E94E50B81FD5C
:1022A00013C089E30E94420C0E94F5102FEF37EE15
:1022B00083E0215030408040E1F700C0000089E316
:1022C0000E94760C0E94F510CF9108958338A1F4F6
:1022D0000E94E50B80FDF8CF83E50E94420C0E942E
:1022E000F5109FEF21EE34E0915020403040E1F7AF
:1022F00000C0000083E5E4CF8438A1F40E94E50B20
:1023000082FDE2CF87E40E94420C0E94F5108FEF1D
:1023100091EE24E0815090402040E1F700C00000A1
:1023200087E4CECF8CEF8C0F813A88F580915F01E6
:10233000882301F18091790487FF1CC0EC2FE6957A
:10234000E695E695F0E0E652FD4F828190E04C2F55
:10235000477021E030E002C0220F331F4A95E2F7B8
:1023600082239323892B79F08C2F0E94760C0E9474
:10237000F51009C0E4EDF2E08191C817A9F332E04D
:10238000EA3DF307C9F78C2F0E94420C9BCF80E2F5
:102390008C0F883068F4C77081E090E001C0880F2E
:1023A000CA95EAF7C0917104C82BC09371048ACF13
:1023B0008BE58C0F833038F42C2F2452330BC9015A
:1023C0000E94F60B81CFE8E5EC0FEB3150F4F0E022
:1023D000EE0FFF1FE656FD4F808191810E941C0C7D
:1023E00073CF83E38C0F833108F06ECF61E08C2FC5
:1023F0000E94D70C69CF882309F456C0823879F43B
:102400000E94E50B81FF50C089E30E94420C0E94AC
:10241000F51089E30E94760C0E94F5100895833828
:1024200059F40E94E50B80FF3FC083E50E94420CF7
:102430000E94F51083E5EECF843859F40E94E50B35
:1024400082FF32C087E40E94420C0E94F51087E4AC
:10245000E1CF9CEF980F913AE8F290E2980F983014
:1024600050F4877091E001C0990F8A95EAF7892F9F
:102470000E947805D1CF9BE5980F933028F480E037
:1024800090E00E94F60B089598E5980F9B3128F490
:1024900080E090E00E941C0C089593E3980F933124
:1024A00018F460E00E94D70C0895882339F09091C9
:1024B0007104892B809371040E94F510089588237C
:1024C00021F00E9478050E94F5100895882339F0C4
:1024D00090917B04892B80937B040E94F5100895D2
:1024E0001092710480915F01882339F18091790401
:1024F00087FF23C0ECEDF2E08EE1DF011D928A95AB
:10250000E9F780E090E00E94F60B80E090E00E9406
:102510001C0C10927B040E94F51086E0E1E5F4E0CB
:10252000DF011D928A95E9F710924F0410924E0434
:10253000109250040E94AF0C0895E4EDF2E086E0A2
:10254000DCCF0E9470122FEF84E39CE0215080408A
:102550009040E1F700C0000088E19AE00FB6F894DF
:10256000A895809360000FBE90936000FFCFAAE211
:10257000B0E0EDEBF2E10C94E72B8BE093E0FC0193
:1025800001962091F100208323E083319207B9F76F
:1025900080910C03893009F456C0C8F4823009F4E4
:1025A000B2C0833009F481C0813071F18091E800BC
:1025B00083FFE6C080910B0390910C039A3008F0E2
:1025C000DFC0E92FF0E0E651F24D0C94512C8A3037
:1025D00009F488C08B3051F780910B03813231F7B9
:1025E00080910F0390911003892B01F78091E800EF
:1025F000877F8093E8000E94D40E80910D03809322
:102600005F010E947012D2CF80910B03813A71F664
:102610008091E800877F8093E80080910F0390917C
:102620001003892B61F060E080E090E070E00E9490
:102630007B0E8091E8008B778093E800B7CF68E04D
:1026400083E193E0F3CF80910B03813209F0AECFA9
:1026500080910F0390911003029708F0A7CF80910B
:10266000E800877F8093E8008091E80082FF18C02F
:102670009091F3008091F200029731F48091F10083
:10268000813011F0863021F48091F10080931B039A
:102690008091E8008B778093E8000E94D40E86CF6B
:1026A0008091A6038111E0CF81CF80910B03813A05
:1026B00009F07CCF80910F0390911003892B09F0D2
:1026C00075CF8091E800877F8093E8008091E800D3
:1026D00080FFFCCF80915F018093F1008091E80042
:1026E0008E77D9CF80910B03813209F05FCF809133
:1026F000E800877F8093E8000E94D40E80910E034B
:102700008093070353CF80910B03813A09F04ECF9A
:102710008091E800877F8093E8008091E80080FF47
:10272000FCCF80910703D8CF803889F0823841F5FB
:1027300080910F038F70873018F58093E9008091A6
:10274000EB0085FB882780F91092E90006C0809194
:1027500008039091A503911182609091E800977F02
:102760009093E8008093F1001092F1008091E800CE
:102770008E7723C0811116C080910D03813011F135
:102780008091E80083FF0AC08091E800877F8093F2
:10279000E8008091EB0080628093EB00AA96E3E072
:1027A0000C94032C823061F780910D03882389F00B
:1027B0001092E9008091E800877F8093E8000E94F2
:1027C000D40EDECF81E0933009F080E08093A50342
:1027D000EFCF80910F038F702FEF280F263080F6F8
:1027E0008093E9002091EB0020FFE2CF933031F499
:1027F0008091EB0080628093EB00DACF9091EB0048
:1028000090619093EB0021E030E0A90102C0440FF9
:10281000551F8A95E2F74093EA001092EA008091F2
:10282000EB008860E8CF8111ABCF10910D031F77CB
:102830008091E3008078812B8093E3008091E80011
:10284000877F8093E8000E94D40E8091E80080FF8B
:10285000FCCF8091E30080688093E30083E0111156
:1028600001C082E08093A6038BCF8058823008F0AD
:1028700087CF40910D0350910E034C3D83E05807E4
:1028800099F583E08A838AE289834FB7F894DE0161
:10289000139620E03EE051E2E32FF0E05093570022
:1028A000849120FF03C082958F703F5F8F708A30C4
:1028B000C8F0895C90E08D939D932F5F243161F780
:1028C0004FBF8091E800877F8093E8006AE270E064
:1028D000CE0101960E947B0E8091E8008B77809359
:1028E000E8004ECF805DE6CF20910F0330911003BA
:1028F000852F99278330910509F160F48130910586
:1029000009F472C0029709F03BCF8BE390E0E6EA4E
:10291000F1E029C08132910509F45AC0829709F08B
:102920002FCF2115310509F469C02130310509F097
:1029300027CF86EB90E0ECEAF0E015C0CA019927BA
:102940004130B1F18230910509F43AC0892B09F088
:1029500017CFE7E1F2E0E4918E2F90E0E7E1F2E0BB
:10296000009709F40DCF2091E800277F2093E8001D
:1029700020911103309112038217930708F49C01F0
:1029800040E02115310509F03EC041113CC0809165
:10299000E80082FDA1CF8091A603882309F49CCF93
:1029A000853009F499CF8091E80083FFF0CF94CF70
:1029B000E1E0F2E0E4918E2F90E0E1E0F2E0D0CFB0
:1029C000E3EFF1E0E4918E2F90E0E3EFF1E0C8CF88
:1029D0002115310571F02130310509F0D1CE89E0A2
:1029E00090E0E1EDF1E0BFCF82E190E0E1EEF1E0D7
:1029F000BACF89E090E0E8EBF1E0B5CF84E490E075
:102A0000E2E6F1E0B0CF8091A603882309F464CF19
:102A1000853009F461CF8091E80083FD5DCF80911E
:102A2000E80082FDB4CF8091E80080FFAACF9091AA
:102A3000F3008091F2002115310519F088309105DD
:102A400050F041E0089709F040E08091E8008E776F
:102A50008093E80096CF44914093F1003196215045
:102A600031090196E8CF803809F08ACE8091E800DC
:102A7000877F8093E800809109038093F10076CEF0
:102A800081117ECE10910D03123008F079CE809125
:102A9000E800877F8093E800109309030E94D40E1A
:102AA000112381F084E08093A60342E061EC81E091
:102AB0000E945C0F42E261EC82E00E945C0F809118
:102AC000A6035ECE8091E30087FDECCF81E0EBCFE3
:102AD0001F93CF93DF93182FA0915A04B0915B04FA
:102AE000109709F44AC010925D0410925C04109291
:102AF0005804109257041796CD91DC911897CE0187
:102B00009A9581159F4108F4D07ED1E0C11101C092
:102B1000D0E01A96ED91FC911B97309731F01C96FE
:102B20006D917C9180E00995D823DD2339F08CEFFD
:102B30008C0F813A30F58C2F0E94760C1123A9F06E
:102B4000E0915A04F0915B04818584FD0EC0809170
:102B50005904882351F0808191819C0121503109D1
:102B60002F333E4710F40E94350E0E94F51010924C
:102B70005B0410925A0410925904DF91CF911F9177
:102B800008950E94F5108C2F0E94FB11D7CFA8E06A
:102B9000B0E0EDECF5E10C94E72B8091D603909139
:102BA000D703A091D803B091D903BC01CD010E94F5
:102BB000150E11E0643671058105910578F10E94CA
:102BC000C80DDC01CB010296A11DB11D89839A833A
:102BD000AB83BC83809150019091510186529C4FF0
:102BE00020914F01422F50E0253010F044E050E09A
:102BF000BE016F5F7F4F0E94122D82E090E00E9425
:102C0000632B182F882351F00E94AB0D6093D603DD
:102C10007093D7038093D8039093D903812F28967C
:102C2000E3E00C94032CAAE0B0E0E9E1F6E10C94B7
:102C3000E52BF62E072F80E090E00E94632B182FE3
:102C4000882309F462C080914201482F50E0882314
:102C500011F041E050E060914301709144016652EF
:102C60007C4FCE0106960E94122D8091F403909124
:102C7000F503A091F603B091F703BC01CD010E94CA
:102C8000150E6F83788789879A8764367105810569
:102C9000910538F48BED93E00E94430F9E818917D4
:102CA000A1F181E090E00E94632B8823C9F180911B
:102CB0004A01482F50E0863010F045E050E0609126
:102CC0004B0170914C0166527C4FCE0101960E94DF
:102CD000122D8BED93E00E94430F9E81891320C03B
:102CE0000E94AB0D6093F4037093F5038093F60399
:102CF0009093F70385E0FE013196AFEEB3E00190CB
:102D00000D928A95E1F781E00CC085E0EBEDF3E0F0
:102D1000DE01119601900D928A95E1F71111EACF2B
:102D200080E095E0EFEEF3E0AF2DB02F01900D9233
:102D30009A95E1F72A96E5E00C94012CEF92FF9228
:102D40001F93CF93DF93CDB7DEB72F970FB6F894CD
:102D5000DEBF0FBECDBF88E0E9E6F4E09E012F5F45
:102D60003F4F7901D90101900D928A95E1F72091A9
:102D70006604909167048091680429879A878B87FD
:102D8000182F8091D2039091D303A091D403B091D6
:102D9000D503BC01CD010E94150E6C877D878E87FF
:102DA0009F87B7018C859D85AE85BF85843691054B
:102DB000A105B10510F4112301F180915801909102
:102DC000590186529C4F20915701422F50E02C30E0
:102DD00010F04BE050E00E94122D83E090E00E9442
:102DE000632B882369F00E94AB0D6093D20370932C
:102DF000D3038093D4039093D5031092680481E0A9
:102E00002F960FB6F894DEBF0FBECDBFDF91CF91E6
:102E10001F91FF90EF900895A0E0B0E0E2E1F7E1AC
:102E20000C94DC2BFC018280648081E08483EBE1E4
:102E3000F2E09490EAE9F2E0E49100916C040695E6
:102E4000015810E0000F111F012F1127C4E2D3E039
:102E50002DE6C22E23E0D22EAA24AA94B12C7724E8
:102E60007A94E919EE2EF12C82E0881530F08091E9
:102E70006A04888380916B048983611017C01B8268
:102E80001A8296014A81698188810E944F0825969D
:102E900083E0C80ED11C83E0CA36D80729F70E9408
:102EA000E908CDB7DEB7EEE00C94F82B8B818823D0
:102EB000E9F081508B83789EC00111246C8170E011
:102EC0000E94292CFB01FF27E55EFD4F8491E82F2E
:102ED000E9197E9EC0011124B7010E94292C80911E
:102EE0006C04689FB00111247A83CBCF0E94E82C38
:102EF000B5010E943D2C801791070CF0C2CF82E0F3
:102F0000881588F40E94E82CB5010E943D2C888326
:102F10000E94E82C20916B042695622F70E00E949D
:102F20003D2C280F29831A8280916C04893C20F063
:102F300088EC8C838B83A5CF8431D8F784E1F9CFDB
:102F4000A0E0B0E0E6EAF7E10C94E22B8901D42F8F
:102F5000C52F6B017C010E94DB08A8016D2F7C2F1F
:102F600088E090E00E94512D98014D2F5C2FB60112
:102F7000C70100E20E94812C622F83E290E00E9450
:102F80003F2DCDB7DEB7E8E00C94FE2B80916D04A9
:102F9000833018F48F5F80936D0420916904309121
:102FA0006A0440916B0450916C0460916D047091BF
:102FB0006E0480916F04909170040E94A017089590
:102FC00080916D04882319F0815080936D042091C5
:102FD000690430916A0440916B0450916C046091D3
:102FE0006D0470916E0480916F04909170040E9442
:102FF000A0170895A3E0B0E0E0E0F8E10C94D92B2D
:10300000F82E562EE42E422E9091690490FF42C075
:1030100030916A04381308C080916B04861304C091
:1030200080916C04841729F08091680482608093F9
:103030006804E92FE695E695AE2FB0E0AF59BD4F95
:103040008C91809366049C7F943041F59E012F5FA4
:103050003F4F4E2D652D8F2D0E944F084B8169816A
:103060008A810E94FE083F2D30936A0450926B04BF
:10307000E0926C04442071F02091690460916D0429
:1030800070916E04452D5E2D80916F0490917004B7
:103090000E94A0172396E1E10C94F52B823019F4DD
:1030A000E0906C04E0CF8630F9F28930E9F28931A2
:1030B000D1F6E9518E2F8170382EE695F0E0E55E6D
:1030C000FC4FE4910E2F10E08DE6C82E83E0D82E41
:1030D00097E9892E93E0992EA12CB12C2EE0622E37
:1030E000712CC501B3010E94292C8F2D311011C004
:1030F000860F96014E2D652D0E944F08A00EB11E21
:1031000083E0C80ED11C8C149D0459F70E94E90875
:10311000AACF861BEECFE9E6F4E0818121E043816E
:103120006281885F0E94FA170895E9E6F4E08181E0
:1031300021E04381628188500E94FA170895E9E6F0
:10314000F4E0628128E0620F08F46FEF21E0438130
:1031500081810E94FA170895E9E6F4E0628128E08F
:10316000621B08F460E021E0438181810E94FA172C
:103170000895E9E6F4E0438128E0420F08F44FEFB8
:1031800021E0628181810E94FA170895E9E6F4E066
:10319000438128E0421B08F440E021E06281818104
:1031A0000E94FA170895609169046695669570E02B
:1031B0004BE050E089E291E00E94F82C892B19F451
:1031C00081E0809367040E94FB0D9093C803809375
:1031D000C703809168048460809368040895909187
:1031E000690490FF42C0882309F440C08B3208F084
:1031F0003FC08F73282F220F220F809169048370A4
:10320000282B20936904809168048160809368046E
:10321000662381F030916A0440916B0450916C04F4
:1032200060916D0470916E0480916F0490917004B0
:103230000E94A017609169046695669570E04BE066
:1032400050E089E291E00E94F82C892B99F00E94CD
:10325000370981E08093CA0320E040916C046091BB
:103260006B0480916A040E94FA17089581E0C2CF2E
:103270008AE2C0CF0E94D318ECCF80916904869572
:1032800086958F5F8B3208F081E061E00E94EF1835
:10329000089590916904969596958FEF890F9130D6
:1032A00009F48AE261E00E94EF18089590916904A0
:1032B00090FF09C096959695981728F0961718F4E0
:1032C0000E943D19089561E00E94EF180895A9E158
:1032D000B0E0EDE6F9E10C94DD2B1D861C86FE01C5
:1032E0003E9688E0DF011D928A95E9F78CE8A82ECA
:1032F00082E0B82E8E01045F1F4F4801EE24E39454
:10330000F12C28E9C22E22E0D22EF50181915F0135
:103310008F3F09F441C0F894E82FE295EF70F0E098
:1033200021A18F70A70102C0440F551F8A95E2F7B3
:10333000CA01922F982B91A392A18095892382A3F1
:10334000789400C0E1E9F2E031E0712C21912F3F47
:1033500009F492C0A22FA295AF70A05EB0E08C914C
:1033600090E02F7002C0959587952A95E2F78170BD
:10337000811182C0832F782A330FCE16DF0631F7F2
:10338000F501319780818F3F11F00E94350850EA96
:103390005A95F1F7D8017C920F5F1F4FB1E9AB1638
:1033A000B2E0BB0609F0B1CF4AE050E0B40187E9D2
:1033B00093E00E94052D0091A20310E009551C4FD7
:1033C000892B09F45BC08AE0F401A7E9B3E001901E
:1033D0000D928A95E1F781E0809303030E94A30C8C
:1033E00090930203809301038091FC03882309F4E6
:1033F0009DC01A821982FE01339683E0DF011D927F
:103400008A95E9F7809106038A3008F059C043E1B4
:1034100056E1FE0131967F01BF01C8010E94A41050
:103420006701882309F470C047EC55E1B701C80172
:103430000E94A410882309F467C04EE956E1B70141
:10344000C8010E94A410882309F45EC010920603EC
:103450008091A10390E045E050E0B60189559C4F72
:103460000E94052D21E020930003892B09F03FC025
:103470006996EDE00C94F92B80E07DCF80910303F9
:10348000882309F4B1CF80910103909102030E9437
:10349000060E059708F4A8CF45E050E067E973E011
:1034A000C8010E94052D892B41F085E0E7E9F3E092
:1034B000D80101900D928A95E1F71092030394CF01
:1034C0008091FE029091FF020E94060E843F91407F
:1034D00008F09DCF80910003882351F285E0FE0122
:1034E0003196DF011D928A95E9F710920003A091B1
:1034F000A103B0E0A955BC4F85E0FE0131960190D3
:103500000D928A95E1F7B4CF809106038F3F39F48D
:103510000E94A30C9093FF028093FE02DBCF8F5F8B
:10352000809306038A3008F493CFF2CF85E0F80148
:10353000ABEDB3E001900D928A95E1F78BED93E04E
:103540000E94430F8093DA03C090E003D090E10320
:10355000E090E203F090E3038091FA029091FB0285
:10356000A091FC02B091FD02C816D906EA06FB063E
:10357000B1F0C092FA02D092FB02E092FC02F0920B
:10358000FD020E94AB0DC61AD70AE80AF90AC092DA
:10359000F803D092F903E092FA03F092FB038BE078
:1035A000E4EEF3E0DE01119601900D928A95E1F7C9
:1035B0008091E40386958695F090E503E090E6031C
:1035C000D090E7030091ED031091EE031092EE030B
:1035D000112309F44DCF10FF0BC02981909169048C
:1035E00020FF1AC091609093690460E00E94EF1878
:1035F00011FF06C020E04D2D6E2D8F2D0E94FA1771
:1036000012FF04C00023A9F00E94D31813FF30CF8B
:1036100081E08093CA032CCF9E7F909369040E941F
:103620003709809168048160809368040E94E908EA
:10363000DFCF0E943709EACF0F931F93CF93DF9319
:10364000C62FD42F122F8823A9F0609364040E9400
:10365000A30C9093050380930403C77081E001C01D
:10366000880FCA95EAF70E945512DF91CF911F91FA
:103670000F91089580916404681338C08091040309
:10368000909105030E94060E8F3A910578F5CD13AF
:103690000FC0812F0E944711812F0E94FB11D7700C
:1036A00081E001C0880FDA95EAF70E945F12DDCF52
:1036B000C77001E0802F01C0880FCA95EAF70E9409
:1036C0005F1280E28D0F883050F48D2F877001C01B
:1036D000000F8A95EAF7802F0E945512DACF812FCA
:1036E0000E944711812F0E94FB11BFCFC77081E05C
:1036F00001C0880FCA95EAF7D8CFA0E0B0E0E3E8B0
:10370000FBE10C94D92B8C01DC0114968C9188235D
:1037100091F161E0C8010E94DE07EC01F8015580DB
:10372000552071F18E35FCE79F0789F08F352CE726
:10373000920739F08D359C4719F5809160018823F7
:1037400031F01092600180E00E94681503C081E0B2
:1037500080936001809178048770882361F0D8019C
:1037600015968C91882339F080917A0482FF03C0EA
:1037700082E00E943305CDB7DEB7E1E10C94F52B72
:1037800080916001882309F4F9C04E0180EE881A07
:1037900091084090730480917104482A80917204CA
:1037A000482A98E08916910408F0C8C09E01277045
:1037B000332781E090E001C0880F2A95EAF7552071
:1037C00009F4B9C0482AD8018D919C910E94F60451
:1037D00021E030E0390102C0660C771C8A95E2F7DF
:1037E000A0905A04B0905B04312CE32DF0E0EE0F72
:1037F000FF1FEC5FFE4FE080F180E114F10409F45B
:1038000019C1411004C0F70182818111E5C0D701BF
:1038100013968D919C91149786219721892B09F4F9
:10382000DBC019968C91982F97709111C7C0B8E0A2
:103830008B16910408F0D2C05110C8C0F701C080A7
:10384000D180CC15DD0509F4C7C0EA14FB0409F4E6
:10385000C3C0D7011E96ED91FC91309721F0808175
:10386000882309F4B9C0642DC7010E946D0B882319
:1038700009F4B2C0CC15DD0511F4511005C0C11416
:10388000D10409F0B3C0512C80E00E946815F09279
:103890005B04E0925A0481E080935904F701868129
:1038A0008093580451100DC0CD2859F0808191812A
:1038B0009C0124503109213A310508F09FC00E9433
:1038C000760CF701C780D084C6019A9581159F4177
:1038D00010F420EED222BB24B394C60101978F339B
:1038E0009E4708F0B12CD7011A96ED91FC911B97D9
:1038F000309731F01C966D917C9181E00995B8224A
:1039000081E05826BB2009F492C0F7018781908599
:103910000E946A0480935704C601F8E08F16910450
:1039200008F06FC00E94350E0E94F51051103BC187
:103930000E94F5100FCF8095482245CF51102BC023
:103940008091620490916304C817D90781F41092A2
:1039500063041092620410925E0410925F0410924D
:1039600060041092610410925D0410925C04E09176
:103970005A04F0915B04309709F0DBC0F8018581AF
:10398000FE01E851FC47E730F10508F02BC1EC508F
:10399000F24D0C94512CD0936304C09362040E94A6
:1039A000AB0D60935E0470935F048093600490930A
:1039B000610410925D0410925C0405CFE8E08E165D
:1039C000910478F4552031F081FF06C0D701CD90E5
:1039D000DC903BCF82FD32CF339407CF5110F6CF2E
:1039E000FBCF5520C9F380FFF7CFF0CF8091620461
:1039F000909163048C159D0579F745CF0E94FB11CA
:103A000060CF0497813A910530F48C2D0E94420CCE
:103A10005110B4CF8DCF0E94F5108FE39CE9019730
:103A2000F1F700C000008C2D0E944711F1CF0E94D9
:103A3000F510EECFA114B10409F4A0CF98E08916D7
:103A4000910408F082C0642DC5010E946D0B8111A4
:103A5000AAC081E00E946815D80115968C91882330
:103A6000B9F010926404CA35FCE7DF0709F468C2B4
:103A700008F030C2C1303CE7D30709F45FC2C3305D
:103A80008CE7D80709F454C2C115DC4709F434C2E5
:103A9000F8018581E080F180882309F455C2C701CF
:103AA0000E94AA07C82F682FC7010E94C004B7014F
:103AB0008C2F0E9480050E949106D82FC92FD80113
:103AC0001596DC9015971696CC90C2942FE0C222E2
:103AD000809178048770882301F1ED2CDD20F1F0CE
:103AE000892F807F803461F080E28D0F8830A8F0CC
:103AF000892F807E803221F4D23078F0CC2069F09A
:103B000080917A0482FF09C082E00E94330580918F
:103B100078048770EE24E3948111E12CEC2FE29578
:103B2000EF70C03C08F07BC2F0E0E550F24D0C9421
:103B3000512C80819181C817D90709F01FCF1092AD
:103B4000590480E00E94681519CFF50180819181A8
:103B5000C817D90731F4552091F3818585FD0ECF23
:103B6000F0CF552009F40ACF8185F8CF26E241EE47
:103B700061EE0E941C1BEECD27E245EE65EEF9CF0B
:103B800026E241EE60EEF5CF27E245EE64EEF1CF9E
:103B900026E241EE62EEEDCF27E245EE66EEE9CF9A
:103BA00028E241E0EBCFD80115968C91882309F4E7
:103BB00004C110926404CE019057839708F053CF4C
:103BC00084E090E00E94292D90937A0480937904F8
:103BD000FE01E150F047E232F10570F5E95FF14D89
:103BE0000C94512C81110DC0C631BCE7DB0709F0E4
:103BF000E4C0809165048111DEC089E20E94760CE8
:103C000097CE10926404CE0190578397C8F2C631C4
:103C1000ECE7DE0709F027CF809171048A7A91E002
:103C2000811101C090E090936504882309F4C1C01C
:103C300085E30E94420C7CCE809179048160809360
:103C400079046091790470917A0484E090E00E9494
:103C50005D2D0E9470127ECD80917A0488608093E1
:103C60007A04EFCF809179048260E9CF8091790462
:103C70008460E5CF809179048860E1CF80917A04F7
:103C80008160EDCF80917A048260E9CF80917904E0
:103C90008061D5CF809179048062D1CF8091790401
:103CA0008064CDCF0E947012809179048068C7CF64
:103CB000809179048C60C3CF80917A048360CFCFE8
:103CC000809179048E7FBBCF80917A04877FC7CFA4
:103CD000809179048D7FB3CF809179048B7FAFCFB2
:103CE00080917904877FABCF80917A048E7FB7CFA4
:103CF00080917A048D7FB3CF809179048F7E9FCF9E
:103D0000809179048F7D9BCF809179048F7B97CFB1
:103D10000E947012809179048F7791CF80917904FD
:103D2000837F8DCF80917A048C7F99CF80917904A5
:103D300082FB992790F921E0922790FB82F990FB72
:103D400083F97DCF80917A04982F909591708E7F22
:103D5000892B90FB81F983CF90917904892F8F7BF8
:103D600096FF80646CCF0E94701290917904892F25
:103D700097FB87F9805863CF61E08EE090E00E9466
:103D80003F2D5FCF60E0F9CF90917904892F8F7E2E
:103D900094FF806154CF90917904892F8E7F90FF9A
:103DA00081604DCF90917A04892F877F93FF88603F
:103DB00056CF89E23ECF85E321CF80917104827294
:103DC000FE01E052F847E531F10508F061CEE75D0C
:103DD000F14D0C94512C8091690480FF1EC0282F56
:103DE0002E7F2093690430916A0440916B045091B6
:103DF0006C0460916D0470916E0480916F049091D9
:103E000070040E94A0170E943709809168048160A5
:103E1000809368040E94E9089DCC816080936904C6
:103E200061E0869586950E94EF1894CC49E459E1AB
:103E30006DE379E10E94640B8DCC4DE359E169E4B7
:103E400079E1F8CF45E958E16BE878E1F3CF4BE849
:103E500058E165E978E1EECF4CEA58E16FE978E1A5
:103E6000E9CF4FE958E16CEA78E1E4CF46EC58E15C
:103E700069EB78E1DFCF49EB58E166EC78E1DACF26
:103E800040EE57E166EC77E1D5CF46EC57E160EEC6
:103E900077E1D0CF61E081E0C6CF65E082E00E94AB
:103EA000561958CC68E086E0FACF6EE089E0F7CF8B
:103EB00064E18FE0F4CF67E185E1F1CF61E088E173
:103EC000B2CF62E289E1EBCF61E083E2ACCF6AE29C
:103ED00085E2E5CFCB35ACE7DA07A1F1CC35DC479D
:103EE00009F0D6CD80917A0482FB882780F991E091
:103EF00089270E94DE10CCCD0E947012EFEFF4E310
:103F00002CE0E150F0402040E1F700C0000087E7DE
:103F100097E7909301088093000888E19AE00FB634
:103F2000F894A895809360000FBE90936000FFCF37
:103F30006FEF7FEF80E090E00E945D2D0E94A11264
:103F400081E0D7CF80E0D5CFC7010E94F604C82F0B
:103F5000AECDBC2FBF70FB2EC03118F0F29490EFA5
:103F6000F922DD20B9F0FF2069F080E28D0F883062
:103F700010F0D11109C0809171048F2980937104D0
:103F80000E94F5108D2F43C080917B048F29809370
:103F90007B04F6CF8D2F0E94FB11FF2009F43FC058
:103FA00080E28D0F883010F0D11104C08F2D0E9457
:103FB000780506C0F09480917B048F2180937B0468
:103FC0000E94F5102CC0EC2FEF70FE2EC07FC03287
:103FD00019F0F29480EFF822DD2349F0D13009F492
:103FE0006CC0DD2009F478C0CC20D1F1CBCF80911A
:103FF0007A0482FD31C0DD2069F0FF2039F0809124
:1040000071048F29809371040E94F51080E00E9452
:10401000471105C080E00E94FB11F110C7CFEE20D0
:10402000B1F08091780480FD12C0D80115961C92E1
:104030008695869586950E949E04C8010E947D1BE8
:10404000809178048695869586950E94AE0460E0FE
:10405000C8010E94DE078FCBDD2099F0C11004C09B
:104060008F2D0E945512DBCFF1E0CF12D8CF809177
:1040700072049F2D9823F91691F28F298093720470
:10408000CECFC110CCCF8F2D0E945F1290917204C1
:104090008F2D8923882329F08F2D80958923809364
:1040A0007204809173049F2D9823992309F4B7CF4C
:1040B000F094F822F0927304B2CFDD2029F025E0CD
:1040C0002C1508F4ACCFCCCF34E03C1508F4A7CFC6
:1040D0008F2D0E945F12A3CFCC20D1F3D93349F4A6
:1040E0008FEF97EEA3E081509040A040E1F700C031
:1040F00000008D2F0E94FB1192CF8C2F8695869504
:104100008370882369F0813009F089CF8D2F9C2F2F
:104110009370D11002C080E090E00E941C0C7FCF11
:104120008D2F9C2F9370D11002C080E090E00E94F0
:10413000F60B75CF6D2D8D2F0E94D70C70CF8C2F65
:104140008370811142C0D1102FC04D2F42954695EA
:104150004770440F440F2D2F2F7030E0042E02C003
:10416000220F331F0A94E2F780E090E0D4FF09C0E9
:104170008FE090E002C0880F991F4A95E2F7809582
:104180009095C695C695C370C230B1F0C33089F022
:104190004091740450917504C13049F0822B932BE7
:1041A000842395230E9494040E94E50B38CF242B8E
:1041B000352B822B932BF6CF822B932B20917404DB
:1041C0003091750482279327EDCFDD2091F1C0FF58
:1041D000EBCF4D2F429546954770440F440F2D2F3E
:1041E0002F7030E0042E02C0220F331F0A94E2F732
:1041F00080E090E0D4FF09C08FE090E002C0880F1B
:10420000991F4A95E2F780959095C695C695C3701B
:10421000C230C1F0C33099F04091760450917704D8
:10422000C13059F0822B932B842395230E9499044B
:10423000BBCF823008F4B8CFCCCF242B352B822BC8
:10424000932BF4CF822B932B20917604309177041B
:1042500082279327EBCFCF70DD2039F08C2F0E947F
:104260009E048D2F0E9455129FCF8D2F0E945F12AA
:104270008C2F0E94AE0498CFD23FA1F178F4D03FAA
:10428000C1F0D13F09F447C0DD2009F466C0CC205D
:1042900009F460C08D2F0E94471186CFD33F49F1AA
:1042A000D43FA9F1D110F3CFC11065C08C2F8F710D
:1042B000E0CFDD20A1F0B4E0BC1508F475CFCF71DC
:1042C00081E090E0FC0102C0EE0FFF1FCA95E2F70B
:1042D00080917604909177048E279F27A7CFF5E0F1
:1042E000CF16EBCF8C2F8F71D110C3CF0E949E04BD
:1042F0005BCF80E090E0DD2009F498CFCF7181E0C2
:1043000090E002C0880F991FCA95E2F78FCF909175
:104310007A0492FD06C08C2F8F71DD2009F4A9CF9D
:10432000E5CFDD2061F08C2F8F7192FFDFCF98E019
:10433000899F90011124236020937804D7CF81E0D6
:104340000E943305A1E0AC1508F02ECF82E00E9458
:1043500033052ACF8C2F8F71C9CFCC2009F4A6CF7B
:10436000D93349F4BFEFE7EEF3E0B150E040F0405D
:10437000E1F700C000008D2F0E94FB1115CF809146
:10438000BC04803178F48091BB04882359F0E0911B
:104390007D0420917C043091B7044091B60457E02D
:1043A0002E1301C008956E2F70E05E9FF00111245E
:1043B000DF01A258BB4F14968C911497882361F1AA
:1043C00011968C911197831327C08C91841324C06C
:1043D00015968C91159781111FC012968D919C9105
:1043E000A091B804B091B9048A1B9B0B8F3A910538
:1043F00098F48091BC048F7080618093BC04EC576A
:10440000FB4F80818F708061808386EB94E00E94F7
:104410007D1B0E9429050895FB013196E770C0CFEE
:10442000ADE0B0E0E6E1F2E20C94DD2B8C0186E039
:10443000F801DE01189601900D928A95E1F7F801D6
:10444000E080F580A280B380C48086EB882E84E073
:10445000982E7090BA04711020C0CC20D9F0FF20A3
:1044600009F419C1C8010E940D08882309F413C179
:1044700087E0F801D40101900D928A95E1F7F1E00F
:10448000CF1206C08091B6049091B7040E94FE0737
:104490000E94BF21FF24F39451C0D090BB048091AF
:1044A000B8049091B9049501281B390BDD2009F45B
:1044B000BAC02F3A310508F090C0CC2059F3909142
:1044C000B704C1808091BC04803108F058C0C91283
:1044D00014C09091B6049E1110C0F1104AC08F70A4
:1044E00080618093BC0486EB94E00E947D1B8091E8
:1044F000BC04F8018683F12C21C0F1103AC040E0E1
:104500006C2D8E2D0E94EE0F40E06C2D8E2D0E94A2
:10451000EE0FF82E8111EFCF888599850E94FE0756
:10452000292F22952F70903470F49F702230A0F0C4
:104530009923B1F0F8019681903190F48F2D2D964A
:10454000EDE00C94F92B2A5F2F70223068F0C8013F
:104550000E947D1BFD2CF2CF992311F0882371F36B
:10456000805E883058F3F3CF803F40F3815F823024
:10457000F9CF8091BC0481608093BC04BCCFC91288
:1045800007C09091B6049E1103C0FF2009F46CC0CF
:10459000C8010E940D08882309F47DC0FF2009F49A
:1045A0007AC08091BC04803278F02091B6043091BA
:1045B000B7043A832983BC82AB827D821E828F83BB
:1045C000CE0101960E947D1B87E0F801A6EBB4E0C6
:1045D00001900D928A95E1F75BCF8091BC04803108
:1045E00050F486EB94E00E947D1B87E0F401119269
:1045F0008A95E9F780CFCC2009F44CCF2091B704FD
:1046000091812913C5CF9091B6049E11C1CFF110AD
:10461000BFCF8683C8010E947D1B87E0F401119201
:104620008A95E9F737CF2F3A3105F8F6CC2009F40F
:1046300031CFFF2081F19091B7048181981321C07F
:104640008091B6048E111DC08091BC0480FD10C005
:10465000803170F08683807F803F39F08681982F8B
:10466000907F905F8F70892B8683C8010E947D1B8D
:1046700087E0F801A6EBB4E001900D928A95E1F78E
:1046800009CFC8010E940D0881119ECF8091BC0402
:1046900081608093BC04C8010E947D1BFBCEABE10E
:1046A000B0E0E5E5F3E20C94E72B4E8B5F8B688F6F
:1046B000798F8A8F9B8F911110927B041D8A86E0DF
:1046C000FE017696DE011F9601900D928A95E1F724
:1046D0008B89882329F061E0CE010F960E94DE07C6
:1046E00087E0FE013F96DE01189601900D928A95B3
:1046F000E1F7CE0108960E94102281112BC087E0BD
:10470000FE013896DE01119601900D928A95E1F72F
:1047100020917C0440917D048C858823D9F030E081
:10472000C90101968770992750E084179507E9F031
:1047300097E0929FD001939FB00D1124A258BB4FD8
:10474000FE01319601900D929A95E1F780937C04D9
:104750000E94290517E080917D0490917C048913C3
:1047600012C06B96E3E00C94032C0E94701210921E
:104770007C0410927D0487E0E6EBF4E0DF011D92FB
:104780008A95E9F7E7CF189FC001112482589B4F03
:104790000E941022882329F380917D0490E00196E5
:1047A0008770992780937D04D6CFA6E0B0E0EBED2B
:1047B000F3E20C94E62B0E94A30C8C018091FE0383
:1047C0009091FF038017910779F019821A820E9455
:1047D000A30CBC0149815A8180E090E00E944F23E4
:1047E0001093FF030093FE032696E4E00C94022C42
:1047F000CDB7DEB72E970FB6F894DEBF0FBECDBF94
:1048000085B7806885BF85B7806885BF84B7877F97
:1048100084BF0FB6F894A89580916000886180935A
:104820006000109260000FBE80E890E00FB6F89430
:1048300080936100909361000FBE83E398E09093B2
:10484000D1028093D0020E94240F0E94930F809186
:10485000E20084608093E20078948091A60388232C
:1048600099F08091E9001091EC00179511271795A8
:104870008F70182B1092E9008091E80083FD0E9450
:10488000B7121F701093E90082E084BD93E095BDDC
:104890009AEF97BD80936E001092F8031092F9037F
:1048A0001092FA031092FB038091D80080618093EC
:1048B000D8002AE12A95F1F700C08091D90080FF45
:1048C000D5C181E08093FC031092FD031092340166
:1048D0000E94752A809134018091340190E0811109
:1048E00001C095E09093A20385E0891B8093A1030A
:1048F0000CE812E081E9E82E82E0F82ED8018D91D3
:104900008D018F3F11F00E943508E016F106B1F7D6
:1049100001E912E0F80181918F018F3F11F00E94AF
:104920003508F2E008391F07A9F78AE0E7EAF3E063
:10493000DF01282F1D922A95E9F7E7E9F3E0DF016F
:104940001D928A95E9F780E090E00E94292D853E2E
:104950009E4F09F461C065EE7EEF80E090E00E941A
:104960005D2D60E082E090E00E943F2D81E090E0CC
:10497000909375048093740461E083E090E00E945A
:104980003F2D60E074E184E090E00E945D2D60E0E6
:1049900086E090E00E943F2D60E087E090E00E947A
:1049A0003F2D40E050E0BA0188E090E00E94512D98
:1049B00060E083E290E00E943F2D60E08CE090E0B8
:1049C0000E943F2D60E08DE090E00E943F2D198213
:1049D0001A821B821C821D821E821F82188648E05A
:1049E00050E067E170E0CE0101960E942F2D40E07B
:1049F00050E0BA018FE190E00E94512D40E050E07C
:104A0000BA018FE090E00E94512D40E050E0BA01E1
:104A100083E190E00E94512D82E090E00E941B2DE6
:104A20008093B10384E090E00E94292D90937A0452
:104A30008093790483E090E00E941B2D90E00E9417
:104A400094048091A30381119DC088E090E00E94AE
:104A5000232D6B017C0183E290E00E941B2D282F07
:104A600030E040E050E060E070E080E090E000E2A4
:104A70000E94662CF22FA32EB42EB52FA62FE72F5F
:104A80009701860140E050E0BA01FC29A12AB22A30
:104A9000B32BA42BE52B862B972BF0936904A092C4
:104AA0006A04B0926B04B0936C04A0936D04E0931D
:104AB0006E0480936F0490937004209168042360C7
:104AC00020936804F43008F04BC025E0209369047B
:104AD00010926A042FEF20936B0420936C041092C1
:104AE0006D0425E030E04FEF5FEF60E07E2F0E9425
:104AF000A01788E090E00E94232D6B017C0183E2E7
:104B000090E00E941B2D282F30E040E050E060E054
:104B100070E080E090E000E20E94662C5901B42F22
:104B2000A52FF62FE72F9701860140E050E0BA014C
:104B3000AC28B12AB22BA32BF42BE52B862B972B79
:104B4000A0926904B0926A04B0936B04A0936C04C1
:104B5000F0936D04E0936E0480936F04909370045F
:104B60000E94DB080E9437090E946B0B8091690448
:104B700080FF05C060E0869586950E94EF1881E071
:104B80008093A3038091FC03811102C00E94782AC4
:104B900085E391E09093210480932004BCEB6B2E7D
:104BA000B3E07B2ECE01019618E1C12ED12C01EB92
:104BB000A02E03E0B02E8D879E878091A6038530BE
:104BC00049F48091A603853009F45CC00E947012FC
:104BD0000E94E50B0E94671902EB13E0A7EAEA2E98
:104BE000A3E0FA2ED701F80191918D916E167F0600
:104BF00009F496C09817C1F32090FC03912CD701BB
:104C00008D907D01F80131908F01381441F13824E5
:104C1000512C44244394832D84218823C1F02220E5
:104C2000B1F059829A820E94A30C9C838B83F1E09D
:104C3000FD8391E0882D8421811101C090E09E8345
:104C400049815A816B817C818D810E944F235394CD
:104C5000440C27E05212DFCFF80131978082939401
:104C60003AE09312CCCF0E94C80D5EC00E94240F80
:104C70001092A6031092FC0381E08093FD038093C1
:104C8000340128CE8091A603843011F11092A40340
:104C9000E0E40FB6F894A895C09260000FBEE093D0
:104CA000600083B7817F846083BF83B7816083BFE7
:104CB0007894889583B78E7F83BF0FB6F894A895B4
:104CC00080916000886180936000109260000FBE48
:104CD0008091A503882309F474CF0E946719E7EA3D
:104CE000F3E08191811104C0AE16BF06D1F769CF00
:104CF00080E189BD82E189BD09B400FEFDCF8091CC
:104D0000D8008F7D8093D8008091E00082608093EE
:104D1000E0008091E00081FDFCCF0E94701251CF35
:104D200098136ACF0E94D5238091FC03882309F44D
:104D30004CC000915C0410915D040115110509F44B
:104D400044C08091C0039091C103A091C203B0916F
:104D5000C303BC01CD010E94150E69877A878B873A
:104D60009C878091BC039091BD03A091BE03B0913C
:104D7000BF0329853A854B855C85281739074A0783
:104D80005B0718F1C8010E946A049801205E31098E
:104D90002830310508F0F4C00E945512802F0E947F
:104DA000471110925D0410925C041092C00310929F
:104DB000C1031092C2031092C3031092BC0310925D
:104DC000BD031092BE031092BF0380916704882335
:104DD00009F466C080916604E0916904E695E69561
:104DE000E81BE093C903823009F0CDC0F0E0EF5C2E
:104DF000FB4FE4910E2F10E0FEE3EF2EF9E0FF2EC3
:104E00008091CA03882361F01092CA030E94FB0DAF
:104E10009093C8038093C7031092CC031092CB03E6
:104E20000E94FB0D9C018091C7039091C803A901CA
:104E3000481B590B4F3F5F4798F54091C6034423E9
:104E4000B1F01092C6034091C4035091C503241BD6
:104E5000350B2F3F3F4758F4405D5A485093C503E8
:104E60004093C403209168042860209368048090D4
:104E7000CB039090CC03800F911F9093C803809335
:104E8000C70387EC93E0F70109958091CB039091DC
:104E9000CC03892B29F4892819F081E08093C6037B
:104EA00086E0E1E5F4E0AD85BE8501900D928A953E
:104EB000E1F7F09052040091530410915404909043
:104EC0005504E0905604109253041092540410922A
:104ED000550410925604812F802B882371F0809105
:104EE000CF039091D0030E94060E9C0180914F0445
:104EF0008111B9C0232B09F0BCC08E2D89298823CC
:104F000071F08091CD039091CE030E94060E9C011A
:104F100080914E048111E5C0232B09F0E8C08091F7
:104F20005204F81216C080915304882311F08013A4
:104F300010C090915404992311F019130AC02091C4
:104F40005604211106C020915504211102C0892B5D
:104F500081110E94AF0C86E0ED85FE85A1E5B4E0ED
:104F600001900D928A95E1F70E94E50B9091D10393
:104F7000891709F422CE8093D1030E94AB0D1DCE78
:104F80000E9466120BCF08E210E09BE5E92E9AE042
:104F9000F92E883109F434CFE0F48F3009F440C0A1
:104FA00058F4863031F1893079F100ED17E0EEE404
:104FB000EE2EE8E0FE2E24CF8531B9F7F0E0EB5D70
:104FC000FB4FE4910E2F10E047EFE42E49E0F42E62
:104FD00017CF843209F440C0853271F1833229F74A
:104FE000E3E2F4E00591149139EEE32E3AE0F32E7A
:104FF00007CFF0E0E25DFB4FE4910E2F10E077E287
:10500000E72E79E0F72EFCCEE695F0E0E55DFB4F6C
:10501000E4910E2F10E062E5E62E69E0F62EF0CE68
:10502000E695F0E0E85DFB4FE4910E2F10E05CE7C1
:10503000E52E59E0F52EE4CE8E2F63E00E940F2C72
:10504000E92FF0E0E05EFB4FE4910E2F10E02CE042
:10505000E22E27E1F22ED4CE04EF11E083E2E82E17
:105060008BE0F82ECDCE2131310508F446CF8F3FAD
:1050700019F08F5F80934F04002359F00E949C0B1E
:105080009FEF10160CF491E0899F802D11248093DE
:105090005304112359F00E949C0B91E011160CF05F
:1050A0009FEF899F802D1124809354048091530495
:1050B000882309F422CF80905404882009F41DCF5E
:1050C0000E948E0B811101C081E080935304882DD2
:1050D0000E948E0B882319F0809354040ECF81E038
:1050E000FBCF2135310508F41ACF8F3F19F08F5FC0
:1050F00080934E04992059F00E94C00B9FEF191421
:105100000CF491E0899F802D112480935504EE20AA
:1051100059F00E94C00B91E01E140CF09FEF899F84
:10512000802D11248093560480915504882309F41E
:10513000F6CEE0905604EE2009F4F1CE0E948E0BDC
:10514000811101C081E0809355048E2D0E948E0B49
:10515000882319F080935604E2CE81E0FBCF1F92A2
:105160001FB61F9211248F939F93AF93BF9380918B
:10517000A403811113C080911C0390911D03A09181
:105180001E03B0911F034196A11DB11D80931C0306
:1051900090931D03A0931E03B0931F03BF91AF9183
:1051A0009F918F911F901FBE1F90189578941F920A
:1051B0001FB61F9211248F939F93AF93BF9380913B
:1051C0001C0390911D03A0911E03B0911F03019633
:1051D000A11DB11D80931C0390931D03A0931E037A
:1051E000B0931F03BF91AF919F918F911F901FBEEE
:1051F0001F9018951F920F920FB60F9211242F93A4
:105200003F934F935F936F937F938F939F93AF934E
:10521000BF93EF93FF938091E10082FF09C08091DB
:10522000E20082FF05C08091E1008B7F8093E10066
:105230008091DA0080FF24C08091D80080FF20C0D8
:105240008091DA008E7F8093DA008091D90080FF10
:105250009BC080E189BD82E189BD09B400FEFDCF1C
:1052600081E08093A60380910A03811109C00E9406
:10527000240F0E94930F8091E20084608093E200EB
:105280008091E10080FF17C08091E20080FF13C091
:105290008091E2008E7F8093E2008091E200806145
:1052A0008093E2008091D80080628093D80019BC7E
:1052B00085E08093A6038091E10084FF29C080915E
:1052C000E20084FF25C080E189BD82E189BD09B487
:1052D00000FEFDCF8091D8008F7D8093D800809113
:1052E000E1008F7E8093E1008091E2008F7E8093C9
:1052F000E2008091E20081608093E20080910903E6
:10530000882309F447C084E08093A6038091A60314
:105310008091E10083FF27C08091E20083FF23C0DA
:105320008091E100877F8093E10082E08093A60373
:10533000109209038091E1008E7F8093E1008091BB
:10534000E2008E7F8093E2008091E2008061809392
:10535000E20042E060E080E00E945C0F8091F0009B
:1053600088608093F000FF91EF91BF91AF919F9182
:105370008F917F916F915F914F913F912F910F90FE
:105380000FBE0F901F90189519BC1092A603109293
:105390000A0376CF8091E30087FF02C083E0B4CF99
:1053A00081E0B2CF1F920F920FB60F921124FF929D
:1053B0000F931F932F933F934F935F936F937F931D
:1053C0008F939F93AF93BF93CF93DF93EF93FF930D
:1053D00009EE10E0F8018081C091EC00C795CC2760
:1053E000C7958F70FC2EF82A1082C0EFD0E088811C
:1053F000877F888378940E94B712F8011082888191
:1054000088608883CF2DCF70C083FF91EF91DF91AB
:10541000CF91BF91AF919F918F917F916F915F914C
:105420004F913F912F911F910F91FF900F900FBEC1
:105430000F901F9018958EE1489B03C081508111F9
:10544000FBCF489BFECF0895589880E28A95F1F7EC
:10545000589A0895FC012BE02A95F1F728E090E096
:1054600080E031E040E14A95F1F7880F489B02C0A7
:105470008160932742E04A95F1F7000040E14A95A8
:10548000F1F721502111EECF20E12A95F1F729B152
:1054900032E03A95F1F7000040E14A95F1F72170CA
:1054A00092272081920F90830895A1E0B0E0EBE570
:1054B000FAE20C94E42B19828C017C01E60EF11CBB
:1054C0000E151F0541F481E09981911180E021962C
:1054D000E6E00C94002C0E941B2ACE0101960E944B
:1054E0002A2AF80181938F01EBCF509A589A089598
:1054F0005098589AE89AE9E6F0E080818C7F8083A2
:1055000008956150770B91E001C0990F6A95EAF711
:10551000692F90E021E0611108C0992399F0589A11
:1055200080E28A95F1F758980895362F382333236F
:1055300039F0589A922730E23A95F1F76695EBCF19
:105540005898F9CF5898ECCFFF920F931F93CF93B1
:10555000DF93EC018C01060F111DC017D10729F450
:10556000CDB7DEB7E5E00C94012CF9900E94242A17
:1055700068E08F2D0E94812AF0CF1F920F920FB604
:105580000F9211240F931F932F933F934F935F9389
:105590006F937F938F939F93AF93BF93EF93FF93FB
:1055A000CF93DF930F92CDB7DEB719820E941B2AEB
:1055B000CE0101960E942A2A082F06950695069587
:1055C000982F92959570202F2570920F292F237078
:1055D00096959695920F982797708981892B8111BE
:1055E0005CC0053008F059C080E18A95F1F7589AFF
:1055F000509A82E08A95F1F700C0589888E0089F99
:1056000080011124D801A15CBE4F1696ED91FC914A
:1056100017973097A9F060919802709199021496AB
:105620002D913C911597260F371F11968D919C91C6
:105630001297680F791F13964C9113978C910995C7
:10564000F801E15CFE4F6381662351F020919802DE
:105650003091990284819581820F931F0E94A42A20
:105660000E94242A80E18A95F1F758985098589A18
:1056700080E18A95F1F7F801E15CFE4F60816623D5
:1056800051F0209198023091990281819281820F8C
:10569000931F0E94552A0E941B2A0F90DF91CF91E1
:1056A000FF91EF91BF91AF919F918F917F916F91FA
:1056B0005F914F913F912F911F910F910F900FBECE
:1056C0000F901F9018950F931F93CF93DF938C012A
:1056D00005970CF065C0F894509A589885E08A9523
:1056E000F1F70000C02FC695C570802F8570C80FD8
:1056F0008C2F8370C695C69593E0000F111F9A9565
:10570000E1F7C80FC8018C2BEC010E94242A00C0CD
:1057100068E08C2F0E94812A90E19A95F1F75098C9
:10572000589A489B35C087E090E0489933C0F8010B
:10573000E15CFE4F6381662361F020919802309115
:10574000990284819581820F931F0E94552A882394
:1057500021F10E941B2A80E28A95F1F75898509A0D
:1057600090E19A95F1F7F801E15CFE4F60816623C4
:1057700051F0209198023091990281819281820F9B
:10578000931F0E94A42A0E94242A789481E009C0D1
:1057900000C0C7CF0197009749F4509A589A78945F
:1057A00080E0DF91CF911F910F91089500C0BDCF90
:1057B0002F923F924F925F926F927F928F929F9221
:1057C000AF92BF92CF92DF92EF92FF920F931F930F
:1057D000CF93DF93CDB7DEB7CA1BDB0B0FB6F894C0
:1057E000DEBF0FBECDBF09942A88398848885F8400
:1057F0006E847D848C849B84AA84B984C884DF8071
:10580000EE80FD800C811B81AA81B981CE0FD11D54
:105810000FB6F894DEBF0FBECDBFED010895991B02
:1058200079E004C0991F961708F0961B881F7A9597
:10583000C9F78095089587FB082E062687FD819578
:1058400067FD61950E940F2C0EF4919507FC8195E0
:105850000895AA1BBB1B51E107C0AA1FBB1FA617B7
:10586000B70710F0A61BB70B881F991F5A95A9F709
:1058700080959095BC01CD01089597FB072E16F4F5
:10588000009407D077FD09D00E94292C07FC05D091
:105890003EF4909581959F4F0895709561957F4F47
:1058A0000895EE0FFF1F0590F491E02D09940E94DA
:1058B000C72D332312F48A1B9B0B0C94612C0E947E
:1058C000C72DB7FF0895821B930B0895002E083053
:1058D00090F0982F872F762F652F542F432F322F3C
:1058E00022270850F4CF220F331F441F551F661F75
:1058F000771F881F991F0A95B2F7002D089597FD0D
:105900001094002E083098F00850232F342F452F84
:10591000562F672F782F892F912DF4CF15949795B7
:1059200087957795679557954795379527950A9564
:10593000AAF71124002D08958F929F92AF92BF92E3
:10594000CF92DF92EF92FF92CF93DF93EC016881C9
:1059500079818A819B81611571058105910521F409
:1059600064E279ED8BE597E02DE133EF41E050E023
:105970000E94732D49015A019B01AC01A7EAB1E4D1
:105980000E94922D6B017C01ACEEB4EFA501940155
:105990000E94A02DDC01CB018C0D9D1DAE1DBF1DF5
:1059A000B7FF03C00197A109B04888839983AA83F0
:1059B000BB839F77DF91CF91FF90EF90DF90CF90E7
:1059C000BF90AF909F908F9008950E949C2C089557
:1059D00080E091E00E949C2C0895B0E0A0E08093CC
:1059E000000190930101A0930201B0930301089577
:1059F000FC014150504030F001900616D1F731972C
:105A0000CF010895882799270895FB01DC0104C080
:105A10008D910190801921F441505040C8F7881BA6
:105A2000990B0895FB01DC0102C001900D924150D9
:105A30005040D8F70895F999FECF92BD81BDF89AEC
:105A4000992780B50895A6E1B0E044E050E00C94B9
:105A5000652DA8E1B0E042E050E00C94652DDC013A
:105A6000A40FB51F4150504048F0CB01840F951F43
:105A70002E910E94402D41505040D0F70895262F7E
:105A8000F999FECF92BD81BDF89A019700B4021634
:105A900039F01FBA20BD0FB6F894FA9AF99A0FBEE2
:105AA00008950396272F0E94402D0E943F2D252FF9
:105AB0000E94402D242F0C94402D0196272F0E94E8
:105AC000402D0C943F2DDC01CB01FC01F999FECF58
:105AD00006C0F2BDE1BDF89A319600B40D92415076
